:10100000280600201D1B0000393900004D1B000080
:101010004D1B00004D1B00004D1B00000000000098
:101020000000000000000000000000008D1900001A
:101030004D1B000000000000451900002139000090
:10104000DD1A0000DD1A0000DD1A0000DD1A0000C4
:10105000DD1A0000DD1A0000DD1A0000DD1A0000B4
:10106000DD1A0000DD1A0000DD1A0000DD1A0000A4
:10107000DD1A0000DD1A0000DD1A0000DD1A000094
:10108000DD1A0000DD1A0000DD1A0000DD1A000084
:10109000DD1A0000DD1A0000DD1A0000DD1A000074
:1010A000DD1A0000DD1A0000DD1A0000DD1A000064
:1010B000DD1A0000DD1A0000DD1A0000DD1A000054
:1010C000DD1A0000DD1A0000DD1A0000DD1A000044
:1010D000DD1A0000DD1A0000DD1A0000DD1A000034
:1010E000DD1A0000DD1A0000DD1A0000DD1A000024
:1010F000DD1A0000DD1A0000DD1A0000DD1A000014
:1011000053B94AB9002908BF00281CBF4FF0FF316E
:101110004FF0FF3000F074B9ADF1080C6DE904CE6A
:1011200000F006F8DDF804E0DDE9022304B07047C2
:101130002DE9F047089E04468846002B40F0858044
:101140008A42154648D9B2FA82F24AB1C2F1200762
:1011500001FA02F320FA07F7954047EA03089440A2
:101160004FEA154E230CB8FBFEF71FFA85FC0EFB69
:10117000178843EA084307FB0CF1994209D9EB1899
:1011800007F1FF3080F0E380994240F2E080023FB7
:101190002B445B1AA4B2B3FBFEF00EFB103344EAFF
:1011A000034400FB0CFCA44509D92C1900F1FF33C2
:1011B00080F0CB80A44540F2C88002382C4440EA3D
:1011C0000740A4EB0C0400271EB1D4400023C6E95D
:1011D00000433946BDE8F087002A53D0B2FA82F2C4
:1011E000002A40F0B680491B4FEA154E1FFA85F8D9
:1011F0000127B1FBFEFC230C0EFB1C1143EA01434B
:1012000008FB0CF1994207D9EB180CF1FF3002D220
:10121000994200F2EC808446591AA3B2B1FBFEF069
:101220000EFB101443EA044408FB00F8A04507D95C
:101230002C1900F1FF3302D2A04500F2DC801846E1
:10124000A4EB080440EA0C40BEE78B4208D9002E0C
:1012500078D00027C6E9000138463946BDE8F08756
:10126000B3FA83F77FB98B4202D3824200F2BD808A
:10127000841A61EB030301209846002EA9D0C6E929
:101280000048A6E7FFDEC7F12005BB4022FA05FCB7
:101290004CEA030C01FA07F420FA05F821FA05F3E9
:1012A0004FEA1C4E48EA0404B3FBFEF9210C0EFB86
:1012B00019331FFA8CF841EA034309FB08FA9A45EF
:1012C00002FA07F200FA07F10BD91CEB030309F14C
:1012D000FF3080F088809A4540F28580A9F10209AC
:1012E0006344A3EB0A03A4B2B3FBFEF00EFB10337E
:1012F00044EA034400FB08F8A04508D91CEB0404A9
:1013000000F1FF336BD2A04569D90238644440EA4A
:101310000940A4EB0804A0FB02894C45C6464B4695
:1013200054D351D0002E69D0B1EB0E0264EB03040C
:1013300004FA05F522FA07F3FC401D43C6E9005400
:10134000002746E73746304643E7184637E7074663
:101350001FE7C2F1200320FA03F7954001FA02F0DB
:1013600021FA03F34FEA154E3843010CB3FBFEF7A5
:101370001FFA85F80EFB173341EA034107FB08F318
:101380008B4204FA02F407D9691807F1FF3C28D20E
:101390008B4226D9023F2944CB1A81B2B3FBFEF01F
:1013A0000EFB103341EA034100FB08F38B4207D9DF
:1013B000691800F1FF3C10D28B420ED90238294443
:1013C000C91A40EA074714E74145ABD2B8EB020E11
:1013D00069EB0C0201381346A4E76046F0E71846B3
:1013E00095E76746D8E781467BE7384645E7ACF1A5
:1013F000020C2B4410E702382C4421E73746E8E67C
:10140000704700BF08B500F069FABDE80840014622
:10141000014802F00BB900BF2440000073B53D48FD
:1014200001F0C4F9044628B93A493B4802F0FEF8F5
:1014300002B070BD132140F2111201F065FF0146A8
:1014400028B1344A3548132302F0F0F8F0E71321AD
:101450004FF4B822204601F043FF014618B1132390
:101460002C4A2F48F0E72F492F4B4B604FF40023B5
:101470008B60A368DB6913B10122204698471322D1
:1014800024492A4802F0D2F8294801F08FF905468C
:1014900020BB2749274802F0C9F8274802F0C6F8C0
:1014A000E668A36801A95B682046984720B93368BD
:1014B00001985840C0F3C040EB681B681B0621D45C
:1014C000003018BF012008B3AB68DB6880212846D4
:1014D00098470021212001F019FDE1E7072140F2A2
:1014E000012201F011FF014630B10723104A1348D1
:1014F00002F09CF80025D0E707220D49104802F0C1
:1015000095F8CAE7B0FA80F04009DCE7AB681B69E0
:10151000DCE700BF3A400000414000005F400000AF
:10152000884000008800002005140000BE40000034
:10153000DA400000E140000049410000FC400000AA
:10154000304100000B6801330B60014B1B681847EA
:10155000000000202DE9F04F85B09B460E9CDFF87F
:101560008890012CB8BF0124012B0CBF302320230D
:10157000164682468846029301250A270022B6FBBA
:10158000F9F301930AB9B1451DD8019B414603F116
:101590003000D04701350122019B013F012F09FB9B
:1015A00013664FF00A03B9FBF3F9E8D1414606F19F
:1015B0003000D047BBF1030F02D1641B002C0EDCBE
:1015C00005B0BDE8F08FBC42E6DBBBF1020FE3D80B
:1015D0004146029803920135D047039ADCE7414621
:1015E0002020D047013CE9E700CA9A3B014B186034
:1015F000704700BF0000002007B50023019302469A
:101600000B46034801A901F0A1FE03B05DF804FBFD
:101610004515000010B50748074C01F0C7F8074B07
:101620001860204600F04EFC2046FFF7DFFF002048
:1016300010BD00BF5B410000411600009400002077
:101640000A2838B50446074D04D1286883680D215F
:101650005B68984728688368E1B25B6898472046D2
:1016600038BD00BF94000020F8B5124DEB680C2483
:1016700004FB00340123064663724FF02003EFF3AE
:10168000118183F31188BFF36F8F23682BB16068DA
:101690001A682260834208BF626081F31188BFF339
:1016A0006F8F03B9F8BDD3E9017231462846B847B8
:1016B000E3E700BF1C000020154B07B51A6882B194
:1016C0004FF08042D2F80423D1070AD500221A60D5
:1016D0001B680093009B0F4BDB68587A08B9FFF733
:1016E000C3FF0D4B1A6882B14FF08042D2F8042339
:1016F00092070AD500221A601B680193019B012002
:1017000003B05DF804EBFFF7AFBF03B05DF804FB77
:10171000000100401C00002004010040821C084B16
:1017200022F07F42C3F84025D3F80425904200D12F
:101730007047D3F80405821C22F07F42F2E700BF15
:1017400000100140044B002282B01A601B68019314
:10175000019B02B0704700BF4011014008B5FFF780
:10176000F1FF074B074AD3F840051368C01A20F071
:101770007F4003441360BDE8084001F02BBD00BF6B
:1017800000100140B000002038B5144801F00EF8F8
:1017900000B38368124D1B68012100249847C5F8E7
:1017A0000845FFF7CFFF0F4B4FF40032C3F88021FD
:1017B0004FF48033C5F8043322460121112000F094
:1017C00005F9112000F0F2F8074A012313602046C2
:1017D0002B6038BD4FF0FF30FBE700BF62410000D7
:1017E0000010014000E100E00810014070B52A4BF4
:1017F0002A4C1968D4F80425294D521AB0F1FF3F3C
:1018000008BF284622F07F43120234D4013820EA70
:10181000E070A842A8BF284601334FF48036184430
:10182000C4F80863A84294BF0D184D19D4F80405F4
:10183000D4F84015FFF786FF091A21F07F4120F008
:101840007F430129C4F84035C4F8446304D10F2014
:1018500002F052FAFFF776FF124B4FF40032C3F852
:101860008021D4F804052B1A23F07F43012B04D1E7
:10187000FFF754FF0BE00020CEE725F07F43C4F8CC
:101880004035D4F804052D1A023D2B02F0D44FF454
:101890008033C4F8043370BDB00000200010014054
:1018A000FFFF7F0000E100E04FF02002EFF3118323
:1018B00082F31188BFF36F8F064AD2F80405064AF7
:1018C0001268801A20F07F4083F31188BFF36F8F76
:1018D000704700BF00100140B00000204FF020030F
:1018E000EFF3118283F31188BFF36F8F0649074B23
:1018F0000868D3F8043582F31188BFF36F8F1B1A81
:1019000023F07F4318447047B000002000100140CE
:10191000094A0A499368096819670949D8664B68F2
:1019200043F080534B60002383F31188BFF36F8F24
:101930009368186F704700BFE00100201840000056
:1019400000ED00E00F498A684FF030001044EFF3DB
:10195000098C80E8F01F202080F31188BFF36F8F7F
:10196000094F4FF000664A6A8A603E60D06E0023DD
:10197000D36680F3118802F1300090E8F01F8CF3F9
:1019800009887047E001002004ED00E01EF0040F1C
:101990000CBFEFF30880EFF30980816911F8021C96
:1019A0000229FFD001B501F0C3FF01BD43B2002BF6
:1019B00008DB012200F01F0002FA00F05B09024A76
:1019C00042F82300704700BF00E100E043B2002B63
:1019D000A8BF03F1604301F101014FEA4111AEBF1D
:1019E00003F5614300F00F00034BC9B2ACBF83F8AD
:1019F00000131954704700BF14ED00E0C0E918123D
:101A00000A44203A22F0070208491360009B536001
:101A1000019B9360029BD3604FF08073D36121F0F0
:101A20000101002391610265C366704747360000DB
:101A3000F8B506460C4617461D4600F099F9094BC5
:101A40003C4424F007049E60284684F30988002162
:101A500063B681F31188BFF36F8F0022002301F07A
:101A6000F2FD00BFE0010020014910220A6070472A
:101A700010ED00E072B6404080F31188BFF36F8F25
:101A8000BFF34F8F30BF62B6BFF36F8F704700BF99
:101A900030BFFFF7FDBF00BF0E4A08B50E4B22F066
:101AA0007F029A60BFF34F8FBFF36F8FD3F8882008
:101AB00022F47002C3F88820EFF3148323F00403A8
:101AC00083F3148800F0B0FE00F0B8FE00F01EF9B9
:101AD00000F0F2FE0010000000ED00E001B572B66B
:101AE0000B4A106A00281EBF0021116202F089F81B
:101AF00062B6EFF30580A0F110004FEAC00005497F
:101B0000014409C99847BDE801400349084700005E
:101B1000E0010020E83D0000F11C000001F06EFF34
:101B2000202080F3118808484FF40061401880F3AA
:101B30000988EFF314800221084380F31488BFF36F
:101B40006F8FFFF7A9FF000068070020EFF3088000
:101B5000EFF30981724601B500F04EF801BD00BFF8
:101B60000C4B9A6A9A6A9A6A920708D55A6B9A6AD3
:101B7000120604D518B19A6A22F080029A62054BC7
:101B80009A6A9A6A9A6A9A6A002042F0FF029A62F6
:101B90000870704700ED00E00D4B9A6A9A6A9A6AE5
:101BA000920508D59A6B9A6A120404D518B19A6AFC
:101BB00022F400429A62064B9A6A9A6AD20558BF8A
:101BC0009A6A9A6A002042F47F429A6208707047CB
:101BD00000ED00E0074B9A6A9A6A9A6A9A6A9A6AD2
:101BE0009A6A9A6A6FEA02426FEA12429A62002087
:101BF000704700BF00ED00E070B5364B5B688AB0FF
:101C0000C3F30803002585F31188BFF36F8F02F03B
:101C10007F44B4F17F4F12D102F00C04082C0ED097
:101C200014074EBF0E46064601250022033B8DF8E1
:101C30000720032B47D8DFE803F0043E423B2E4643
:101C4000F3E7244BDA6A92073DD4DC6A14F080444F
:101C500008D028331B78EBB10DF107010120FFF705
:101C60007FFF04469DF8073093B92022314602A831
:101C700001F075FE099B45B3C3F3080222B96FEA70
:101C800053236FEA4323099302A9204601F04EFE35
:101C90000AB070BD104B1B782BB10DF1070101206C
:101CA000FFF77AFFDDE70D4B1C88A4B2002CD9D0DA
:101CB000FFF790FFD5E70DF107010020CFE70DF109
:101CC00007010020ECE70024CCE723F4FF7323F0A6
:101CD0000103D8E700ED00E029ED00E02AED00E087
:101CE000024A536943F010035361704700ED00E06E
:101CF000044B9968586A884203D003494FF08052D8
:101D00000A607047E001002004ED00E00448002371
:101D10002021C2180133302B82F80013F9D170470B
:101D200000E100E038B505464FF02003EFF31184E1
:101D300083F31188BFF36F8F00F0EAFF0A4B9B68B3
:101D4000AB420BD1094B5A68C2F3080212B92046C4
:101D5000FFF7DEFD5A6842F080525A602046BDE827
:101D6000384001F05BBF00BFE001002000ED00E063
:101D70001FB5084B0193084B0293084B039301AB2B
:101D80000093074A074B0121684600F091F805B01F
:101D90005DF804FB000000200000000000000B06BE
:101DA0000000002000000420F0B5204F00268E42E5
:101DB00001DB1046F0BD50F826C0DCF8044094B3B7
:101DC0005BB104F1FF3E14EA0E0F1AD11F2C18D993
:101DD000DCF800501EEA050F13D1202CDCF800506F
:101DE000DCF808C0D2B20FD9B4F1004F0ED8013CD4
:101DF000B4FA84F4C4F11F046400072A4CEA040412
:101E000006D96FF01502D4E70824F6E73E24F4E77C
:101E100025F01F05154345F0100544F00104BA6094
:101E2000FD6001323C610136C1E700BF90ED00E08A
:101E3000034B05225A60BFF34F8FBFF36F8F70477C
:101E400090ED00E0BFF35F8F014B00225A607047B6
:101E500090ED00E013490868082810B51ED8FFF778
:101E6000F1FF114C49680022904201F10C0105D1AB
:101E70000E4B1870FFF7DCFF002010BDA26051F878
:101E80000C3C23F01F03134343F01003E36051F8AD
:101E9000043C43F0010323610132E5E74FF0FF30DA
:101EA000EBE700BF8C3F000090ED00E02002002037
:101EB00010B5034C01232278FFF776FF207010BD88
:101EC00020020020014B1860704700BF0400002072
:101ED0004FF02003EFF3118283F31188BFF36F8F6C
:101EE00006490123C1F840354FF08041C1F87835EB
:101EF00082F31188BFF36F8F0020704700E001402C
:101F000020B1034B800143F001031847704700BF25
:101F1000703F000008B5094B1A786AB901211970A1
:101F200006200521FFF752FD0620FFF73FFD044B79
:101F30004FF00042C3F80423002008BD2102002016
:101F4000006000402E4B1340B3F5801FF0B546688B
:101F500046D007D8022B45D0062B13D093B16FF093
:101F600015003CE0B3F5800F3ED004D825488342ED
:101F7000F5D1072306E02448834237D0B3F5A00FFC
:101F8000EDD10323D00654BFC2F34015032582F4DC
:101F900080749705C2F34020C4F3002407D512F4DF
:101FA000006F776824D001228A40C7F80825327A6A
:101FB00001F01F0141EA42111F2940EA4400C8BF55
:101FC00001F01F0140EA0323CCBF104A4FF0A042AA
:101FD00001F5E07143EA850342F821300020F0BDAD
:101FE0000123CFE70423CDE70223CBE70523C9E78D
:101FF000520542BF01228A40C7F80C25D7E700BF2F
:102000000600F0000600100002004000000300502F
:102010001F2886BF074B00F01F004FF0A04303EBC3
:102020008003D3F8002722F4403242EA0142C3F889
:102030000027704700030050F7B54368C7681B7A54
:1020400001F01F050E464A49D1F8042345EA43151D
:10205000D2B2002303F5A27051F82000C0F305208E
:1020600085426BD122FA03F0C00767D59A0002F1CE
:10207000804202F5C042D2F8100520F00100C2F8FB
:102080001005012202FA03F3C1F8083328460021A3
:10209000FFF7BEFFF868F04010F001004CD038693F
:1020A000F04010F0010047D0B869F04010F0010492
:1020B00050D0FB69F340DB0744D47B6923FA06F672
:1020C00016F0010F14BF01260226294C002101F54C
:1020D000A27354F8230010F0030035D18B0003F1F4
:1020E000804303F5C0432D02D3F8102522F44F326C
:1020F00022F44072C3F81025D3F8102505F47C555E
:1021000045EA0645154301F14002920092B202F100
:10211000804202F5C042C3F8105510601268019267
:10212000019AD3F8102542F00102C3F810250123CB
:1021300003FA01F1C4F8041303B0F0BD0133082B16
:1021400088D1A3E70326C0E701310829BFD16FF08A
:102150001200F1E77B6923FA06F616F0010F284614
:102160000CBF03210221FFF753FF2046E4E700BF25
:1021700000600040B2F5A03F70B4C46816D1456855
:102180002E7A01F01F0545EA46151F2DC6BF05F042
:102190001F051E4E4FF0A04605F5E07556F8255078
:1021A000ED0707D56FF0220070BC7047B2F5005FF5
:1021B000E56826D00125E6688D4035432669E5604F
:1021C00001258D40B2F5005F14BF2E43AE4326615A
:1021D000A669B2F5A03FE2690CBF2E43AE43B3F54A
:1021E000C02F0CBF2A43AA43E2616269A661B3F51E
:1021F000802F0CBF154322EA0505656170BCFFF70F
:102200001BBF01268E4025EA0605D7E700030050D4
:10221000F0B5002685B0CDE90266284D2C685CB18A
:10222000274801F053FC0290264801F04FFC039030
:102230002E602B680093009B234D002201269446BC
:10224000D5F8043306FA02F119421DD0910001F1CC
:10225000804101F5C2410B68B3B102F5A27304AF2E
:1022600055F82330C1F800C0C3F3403007EB8000BD
:10227000C3F3042350F8087C06FA03F33B4340F809
:10228000083C0B680193019B0132082AD8D10299BE
:1022900011B10B4801F006FC039911B1094801F096
:1022A00001FC44B1064801F048FC064805B0BDE811
:1022B000F04001F042BC05B0F0BD00BF7C610040C1
:1022C0004C0000205C00002000600040024BD3F86E
:1022D0008004C3F8800470470020004070B54B793B
:1022E000012B25D0032B20D110268B79032B1CD159
:1022F000CC7924B1012C18D143681B78ABB10A7991
:1023000012B1022A11D10E220B6847F61225AB42F8
:1023100062D029D8B3F5965F61D014D8B3F5167F93
:102320005FD007D8B3F5967F5ED06FF0220052E001
:102330000026DAE7B3F5966F59D0B3F5166FF4D1EE
:102340004FF41D233BE0B3F5615F53D004D8B3F5E0
:10235000165FEAD1304B32E0B3F5964F4DD0B3F56E
:10236000E14FE2D12D4B2AE0B3F5E13F47D011D840
:102370004DF6C025AB4244D004D8B3F5164FD4D1A6
:10238000274B1CE0B3F5614F3ED0B3F5963FCCD15F
:10239000244B14E0B3F5E12F38D008D8B3F5613FF2
:1023A00036D0214DAB42C0D14FF0806307E0B3F58A
:1023B000612F2FD01D4DAB42B7D14FF080531C4D34
:1023C00034432243C5F82435C5F86C25C36803C9D6
:1023D00083E80300002070BD4FF40003EFE7154BC6
:1023E000EDE74FF41C33EAE74FF4A033E7E74FF48F
:1023F0009E23E4E74FF46C13E1E70F4BDFE70F4B4D
:10240000DDE74FF46503DAE70D4BD8E70D4BD6E770
:102410000D4BD4E70D4BD2E70050270000F07500BC
:1024200000509D0000903A0190D0030040420F0000
:102430000020004000B0130000A04E0000E0D701D3
:1024400000F0EB0000705F0700B0AF0300D0BE0EDD
:10245000084B1A6882B052B1002018601B680193C3
:10246000019B054BD3F818350B7002B070474FF045
:10247000FF30FAE70821004000200040F7B50E4683
:1024800001F034FC1B4D88BB64240127BFF35B8F34
:1024900055E8003F002B03D145E80072002AF7D130
:1024A000BFF35B8F07D021200021013C00F02EFDFF
:1024B00014F0FF04EAD1104C00222260226801923D
:1024C000019A0E4A01211160C2F814654FF47A7620
:1024D000236823B9012001F06BFB013EF8D1084BC2
:1024E00001221A6000232B6003B0F0BD01232B6092
:1024F000E1E700BFF40000201C210040082000405C
:102500000C2000404FF0A04337B5174C4FF48032F9
:10251000C3F80825032100220F25C3F84017C3F88C
:102520003C27C4F814551025C4F80C554FF48045C9
:10253000C3F80855C3F83817C3F834270E23C4F876
:1025400008350D23C4F81035C168FFF7C7FE48B938
:102550000423C4F80035054B18601B680193019BE8
:102560000123236003B030BD00200040082100405B
:102570000A4B1B685A1C05BF094B0A4A0A4A1068D5
:102580000ABF1B781068C0F30310082B04D103287E
:102590008CBF0020012070470020704730010010E0
:1025A000E00F00F0E80F00F034010010054B186850
:1025B000043B1B68082B06BFB0FA80F040090020DE
:1025C000704700BF3401001008B5FFF7D1FF40B1DC
:1025D0004FF080430022C3F80C21C3F81021C3F848
:1025E0003825FFF7C5FF002846D04FF08052584BE2
:1025F000D2F80414C3F82015D2F80814C3F824152F
:10260000D2F80C14C3F82815D2F81014C3F82C15FE
:10261000D2F81414C3F83015D2F81814C3F83415CE
:10262000D2F81C14C3F84015D2F82014C3F844158E
:10263000D2F82414C3F84815D2F82814C3F84C155E
:10264000D2F82C14C3F85015D2F83014C3F854152E
:10265000D2F83414C3F86015D2F83814C3F86415EE
:10266000D2F83C14C3F86815D2F84014C3F86C15BE
:10267000D2F84424C3F87025FFF798FF10B1354B0A
:10268000354A1A60FFF792FF18B1344BFB22C3F8AA
:102690001825FFF78BFF48B13149324B0A681B6898
:1026A00022F00F0203F00F0313430B60FFF77EFFCE
:1026B00018B12D4B4FF400721A60FFF759FF48B163
:1026C0004FF08043D3F80024D20744BF6FF00102DB
:1026D000C3F800244FF01023D3F80022002A03DBB4
:1026E000D3F80432002B2FDA204B0122C3F8042543
:1026F000D3F80024002AFBD04FF010221221C2F898
:102700000012D3F80024002AFBD04FF0102312222D
:10271000C3F80422154B1A46D3F800140029FBD045
:102720000021C3F80415D2F80034002BFBD0BFF30E
:102730004F8F0F490F4BCA6802F4E0621343CB601E
:10274000BFF34F8F00BFFDE70B4B0C4A1A6008BD6B
:1027500000C000408C5600404881030000F000405B
:10276000E40E0040580200104096024000E0014094
:1027700000ED00E00400FA05100000200090D003F6
:10278000F8B5094B53F820400130002753F820607A
:10279000A64200D8F8BDD4E900352846984708B1CC
:1027A00005B1AF600834F3E7044000000F4B70B58B
:1027B0000F4C05461E469C4204D10D4CB44208D134
:1027C000002410E0A26812B12268AA420BD0103493
:1027D000F1E7A3680BB91034F0E72168284601F04F
:1027E000B2F80028F7D1204670BD00BF6C00002071
:1027F0001C00002008B50B4D4FF02002EFF31183B1
:1028000082F31188BFF36F8F01F08EFA0121022845
:102810000446D8BF084601F097FA2C62FFF72AF960
:10282000EAE700BFE00100200248034A0021121A33
:1028300001F0BFB8800000202402002008B506483F
:10284000064A0749121A01F08AF8064A064907485B
:10285000BDE8084001F083B800000020800000209F
:10286000CC41000000000000CC410000000000202E
:1028700008B50C4B012202201A70FFF781FF0A4AAB
:102880000A490B4800F0D2FE0320FFF779FF00F061
:1028900089FBFEF7C3FD074A137B23F00103137383
:1028A00008BD00BF22020020C64100008241000096
:1028B000A04100006C0100202DE98048DFF8F49071
:1028C000A5B089F30888344D344E6B69DFF8E8A071
:1028D000DFF8E880324F43F4007300246B61E0239B
:1028E00085F82230EC772C766C76AC766B6A43F404
:1028F000E0236B62FFF7F4F9FFF7B6F84FF0FF3310
:10290000AB62EB62274D40F20113ADF8283007AB04
:10291000AB602046CDE91F44FFF732FF0120FFF7EF
:102920002FFF4FF0010B00F099FA1F4B6E624FF42E
:1029300080624146059330465346CDE9034BCDE9CD
:102940000144009400F008FB737B304623F004033D
:10295000737301F07FF90F23CDE902434FF4A072A6
:10296000124B13493846CDE904B4CDE9004400F0D8
:10297000F3FA7B7BEF6023F004037B7305F118030C
:10298000C5E906332C75C5F8049053464FF48062B0
:1029900041463046FFF74CF800ED00E06C010020A6
:1029A000F8000020E0010020C7410000F5270000EA
:1029B00028060020680F002071280000280200204F
:1029C00010B5084C23685BB1FEF76EFF2368064A1A
:1029D0001844106100211846BDE8104001F0B4B958
:1029E00010BD00BF18020020E0010020F8B50D4620
:1029F0004FF02003EFF3118483F31188BFF36F8F3F
:102A00000D4B4FF4004140F2E7360027E1FB006731
:102A100000221A6130464FF47A7200233946FEF7DD
:102A20006FFB064B1860064B1D60FFF7C9FF84F370
:102A30001188BFF36F8FF8BDE0010020180200205D
:102A4000140200204FF02003EFF3118183F311886B
:102A5000BFF36F8F044B9A68D37B013BD37381F331
:102A60001188BFF36F8F7047E0010020094B03F11D
:102A70002802824205D19B688B4202D14B7BDB0648
:102A800006D1D1E9003213605A600023C1E9003356
:102A9000704700BFE001002070B5104C064604F1FD
:102AA000280001F0D1F8A368597B0546880644BF89
:102AB00041F00801597305B9E5684EB95A7BD20651
:102AC00006D1AA6922B9DA897F2A01D9636270BD69
:102AD000AB4201D0FFF774FF6562F8E7E001002028
:102AE00010B54FF02003EFF3118483F31188BFF387
:102AF0006F8F084B9A68D37B0133D3730020FFF7A5
:102B0000CBFF84F31188BFF36F8FBDE8104001F055
:102B100091B800BFE001002070B4437BDB0627D1F1
:102B200083692BBB134AD2E90A3402F128018B4294
:102B300018D0BBB190F90E5093F90E60AE420CDD87
:102B40005A68C0E9003210605860437B63F07F032D
:102B5000437370BC0020FFF79FBF9C4202D01B68EC
:102B6000002BE9D1C0E90014D36A1860D062ECE709
:102B700070BC7047E001002010B54FF02003EFF368
:102B8000118483F31188BFF36F8F437B590704D4FB
:102B900084F31188BFF36F8F10BD23F004034373D8
:102BA000FFF7BAFF21460248BDE8104001F02BB8FC
:102BB00023020020F8B504464FF02003EFF31185FF
:102BC00083F31188BFF36F8F90F90D30002B03DA78
:102BD00001461848FFF74AFF174AD2E90A3002F1C6
:102BE00028018B421FD0F3B194F90E6093F90E7057
:102BF000B74213DD5968C4E900310C605C60637B47
:102C0000906863F07F036373031B58425841FFF7DA
:102C100043FF85F31188BFF36F8FF8BD984202D050
:102C20001B68002BE2D1C4E90010D36A1C60D46297
:102C3000E5E700BF08020020E0010020154A164920
:102C400038B50C689368A342144603D1BDE83840F8
:102C5000FFF7B6BE00250D6010490968B9B1D989E2
:102C60007F2914D80E4993F90E5009688D420EDB66
:102C70000C498B420BD0996949B91169814203DC37
:102C80001846FFF797FFE1E7091A116138BD0023E5
:102C90002361FBE7E0010020100200201802002061
:102CA00014020020F800002070B50446183001F02E
:102CB00025F84FF02003EFF3118683F31188BFF35B
:102CC0006F8F94F90D30002B07DA21460E48FFF77D
:102CD000CDFE637B03F07F0363730C4D637BA868B9
:102CE00043F010036373031B58425841FFF7D4FEAF
:102CF00086F31188BFF36F8FAB68A34203D1BDE8A1
:102D0000704000F097BF70BD08020020E001002075
:102D1000836D2DE9F041044603B1984704F1180092
:102D200000F0ECFF4FF02003EFF3118683F31188DE
:102D3000BFF36F8F637BD80623D1A2690ABB190644
:102D400007D521461E48FFF791FE637B03F07F0302
:102D500063731C4B9868021B50425041FFF79CFE66
:102D6000637B43F00803637304F128080027A56A16
:102D7000454500D095B986F31188BFF36F8FBDE844
:102D8000F0819B07ECD52146A068FFF76FFE637BBF
:102D900023F0020363730023A360E1E705F1180049
:102DA00000F0ACFFA8682946FFF760FE6B7BAF60C0
:102DB00023F002036B732F672846FFF7ADFED6E7BB
:102DC00008020020E001002010B590F90D30002B22
:102DD000044607DA01460848FFF748FE637B03F024
:102DE0007F036373054B9868031B58425841BDE845
:102DF0001040FFF751BE00BF08020020E001002094
:102E0000F8B5064600F0BAFF34184FF02003EFF390
:102E1000118783F31188BFF36F8F0D4D0D4BA86899
:102E2000186000F053FFA8680B493246F3171830BA
:102E300000F056F9AA68537B43F0100353733846E9
:102E4000FEF766FD00F09AFF201A20EAE070F8BD58
:102E5000E001002010020020753C0000044B00211E
:102E600003F12802C3E90A220846FFF7BFBD00BFED
:102E7000E0010020F8B5234C234BA2689A4229D0E8
:102E80004FF02003EFF3118683F31188BFF36F8FA8
:102E900004F12805A1682846FFF7E8FDA26AA368A7
:102EA000AA4228D03AB3E06A93F90E1092F90E7054
:102EB0008F421BDD5168C3E900210B6053605A7BD0
:102EC00062F07F025A730120FFF7E6FD86F3118856
:102ED000BFF36F8F4FF02003EFF3118083F311885E
:102EE000BFF36F8FBDE8F840FEF712BD824202D0FB
:102EF0001268002ADAD1E26A5A60E26A1D60136041
:102F0000E362DCE7E0010020F8000020013108BFA7
:102F1000B0F1FF3F10B506D10B4B9868FFF7C4FE28
:102F20004FF0FF3010BD044648B9FFF7A3FF4FF440
:102F30007A7084FB0034D80B40EA4440F2E7FFF794
:102F40005FFF0446F3E700BFE0010020014B9868F3
:102F5000704700BFE0010020F0B587B0DDE90F67E2
:102F600000F128058673CDE903670E9E0296C0E93D
:102F70000A550D9E0196042545730C9E0773002586
:102F8000C573C0E9065500960446FEF737FD044BAD
:102F90009B68C4E9155503B19B6EA36607B0F0BDED
:102FA000E00100202DE9F04FDFF8BC902C4D89B0F6
:102FB000C8464D4505F130040FD3FFF743FD284CBB
:102FC0004FF4004940F2E73A4FF0000B444521D35B
:102FD00009B0BDE8F04FFFF783BD54F8043C0593FA
:102FE00054F8103C049354F8143C039354F8183CE0
:102FF000029354F81C3C019354F8203C009354E98C
:103000000A2354E90C01FFF7A7FF54F8303C5D6533
:103010002546CEE7616A4B1C17D021EAE17156467E
:103020005F46C9FB01674FF47A7200233046394688
:10303000FEF766F8002306900793DDE906231343A5
:10304000256804D12846FFF797FD3034BEE7DDE957
:103050000623044905F1180000F042F8F5E700BF27
:103060006C000020753C00006C000020034B1B68C6
:103070000BB9FEF719BC0020704700BF1C020020EE
:10308000036840B1074A5268904204D01BB19A6865
:1030900081680A449A60426813605A600023C0E95C
:1030A00000337047140000200B4B10B51C689C4285
:1030B00008BF0024FFF7DAFF54B1A368181A20EA0A
:1030C000E070064B1B6913B19842A8BF184610BDAB
:1030D0006FF00040F5E700BF14000020E001002081
:1030E0002DE9F74F0191591C08BFB2F1FF3F82460D
:1030F00061D0541C43F100056FF00103B3EB0408E9
:103100004FF0FF3B6BEB0509B8F1000F79F10003BD
:103110000FDBFFF7ABFF2D4AD2E9001C6FF0010374
:103120005B1A6BEB0C021E1B62EB0507341A67EB94
:10313000E075019BCAF80C304FF02003EFF31186C5
:1031400083F31188BFF36F8FFFF790FF012C75F1A8
:1031500000031F4B1A68B8BF012404449A42CAF8FE
:10316000084001D05C6852B95A68CAF804205A680D
:10317000CAF80030C2F800A0C3F804A00DE09068BF
:10318000DAF80810884219DD411A91605168CAE9DD
:103190000021C1F800A0C2F804A01A689A4206D023
:1031A000924504D1FFF780FF0021FEF71FFB86F355
:1031B0001188BFF36F8F03B0BDE8F08F091A9442F6
:1031C000CAF80810D0D01268CDE700BF80000020F8
:1031D000140000202DE9F04B0446FFF72FFD4FF0BF
:1031E0002003EFF3118583F31188BFF36F8F214E16
:1031F000214FDFF888903460B846D9F80040326833
:103200004C45D7E900BC05D024B1A368934214DD36
:103210009B1AA3601BEB02004CEBE2710024C8E98F
:1032200000013460FFF740FF2146FEF7DFFA85F327
:103230001188BFF36F8FBDE8F08B1BEB03004CEBE5
:10324000E371D31A33600023C7E90001A36020466D
:10325000FFF716FF85F31188BFF36F8FE368984778
:103260004FF02003EFF3118583F31188BFF36F8FC5
:10327000C3E700BF1C0200208000002014000020D3
:103280002DE918484FF02003EFF3118483F31188E0
:10329000BFF36F8FFEF708FB074BD3E9002312EB58
:1032A000000B43F1000C5846614684F31188BFF3CC
:1032B0006F8FBDE8188800BF8000002038B5064C2D
:1032C000064DAC4201D3002038BDD4E9011220469E
:1032D00000F058FD1434F4E76C0000206C0000206E
:1032E000130430B4846807D5C56801232D688B406A
:1032F0002B4218BF82F4C022A46902F4C023A44662
:1033000002F4B03230BC604770B50E461546C46852
:1033100083681B68984740B923680121B140EA07D8
:103320004CBF194323EA0101216070BD00207047A2
:1033300070B504460D464520A04729465220A047B7
:10334000294623465220BDE8704018472DE9F04F2A
:103350008BB01C464FF00008531E06460F460293E2
:103360004FF0FF3AC146002505E06DB9252800F071
:103370004F813946B047029B13F8010F0293002892
:10338000F3D10BB0BDE8F08F64286ED01AD839287D
:103390000AD8312860D22D2800F0408130284CD046
:1033A000252807D139460BE0582800F0BB80632858
:1033B00000F02A8139462520B047029B187839460B
:1033C000B047D0E7702800F0A38011D869284CD00E
:1033D0006C2805D1B8F16C0F2AD14FF04C08CAE720
:1033E0006828E7D1B8F1680F22D14FF04808C2E74A
:1033F000752871D018D87328DCD154F8045BAB461B
:103400005B461BF8010B002840F0FB80B9F1030F6D
:1034100040F00A815D1BAAEB0505002DA3DD3946AE
:103420002020B047013DF8E778287BD07A28C1D129
:10343000B8F1000FBED180469DE7BAF1000F0EDA59
:10344000B9F1000F00F0ED80A0F1300AB9F1000FE2
:1034500008BF4FF002098EE7BAF1000FF4DB0A2330
:1034600003FB0A0AAAF1300AF0E7B8F17A0F02D199
:1034700054F8045B1FE0B8F16C0FF9D0B8F14C0FB1
:10348000F6D1073424F00704F4E8022312F10041D6
:10349000069143F100010791DDE906BC00214FF0E0
:1034A000FF30614508BF584504D239463046FFF722
:1034B0003FFF58E71546002D05DA39462D20B04765
:1034C0006D420AF1FF3ACDF800A04B462A46394634
:1034D0003046FEF73FF846E7B8F17A0F02D154F8CC
:1034E000042B11E0B8F16C0FF9D0B8F14C0FF6D104
:1034F000073424F00704F4E8022300214FF0FF30E2
:10350000994208BF9042D0D3CDF800A04B46DEE7E9
:1035100039463020B04739467820B0474FF0080A86
:103520004FF00109029B1B78702B04D154F8043B27
:10353000049300230DE0B8F16C0FF7D0B8F14C0FF5
:10354000F4D1073424F007031C465B6854F8082BB9
:10355000049200211022039105914FF0400BABF132
:10356000040B0498CBF1200CABF1200120FA0BF0F6
:1035700003FA0CFC40EA0C0023FA01F1084310F0B6
:103580000F0006D1059911B9BBF1000F22D13021EE
:1035900003E009288CBF57213021084440B2394646
:1035A00008930592B047039B059A01330393089B48
:1035B000BBF1000F23D1B9F1030F7FF4D4AE039B0D
:1035C000C3EB4A05002D7FF7CEAE39462020B04729
:1035D000013DF7E7511E9245089107DBB9F1010F54
:1035E00006D1099339463020B047099B089AB6E7BF
:1035F000B9F1020FFAD1099339462020F4E7059575
:10360000ADE73946B047FBE6394654F8040BD7E638
:10361000A846A9464FF0FF3A0125ACE64FF0030952
:10362000A9E64FF00109A6E60546A4E60FB407B5E2
:1036300004A951F8040B0191FDF7DEFF03B05DF81A
:1036400004EB04B07047044608B5084611461A4614
:10365000A047FFF77BFCFEF765FB036803EBC101A6
:103660008368B3F5004F2CBF51F8220031F81200E7
:10367000704710B50468806804EBC101B0F5004FD5
:103680002CBF41F8223021F8123010BD2DE9F04155
:10369000002204460D46FFF7E0FFE3681840A368E8
:1036A000B3F5004FB0FA80F234BF00200120636808
:1036B000C0F11F00801A03EBC0014A68561C4E601F
:1036C000A2B9012202FA00F162690A436261294645
:1036D00043F8305002222B462046FFF7CAFF032250
:1036E00029462046BDE8F041FFF7C3BF53F83060DC
:1036F000022231462046FFF7B0FF0222034607466A
:1037000029462046FFF7B5FF3346032229462046C7
:10371000FFF7AFFF032239462B462046FFF7A9FFEC
:1037200002223146DDE7F8B5CC1D114424F0070430
:1037300021F00701091BCB08B1F5802F47F6FF7276
:103740002CBF6FF00041114693420460E16094BFCA
:1037500000210121B3FA83F6C1F1200104F118051B
:10376000891B21F06041C4E901530020033124602A
:103770006061216117468446A268BA4294BF002264
:103780000122C2F11F02921B90420ADD5B1A204601
:103790000022FFF76EFF21692046BDE8F840FFF7E1
:1037A00075BFC5F804C0013045F808CBE4E77047A1
:1037B000C368C9B20C2202FB01314B7A23B9087AE3
:1037C000B0FA80F0400970470220704770B5C9B266
:1037D0004468C5684FF02003EFF3118683F3118826
:1037E000BFF36F8F0C224A43AB18187A90B101389F
:1037F000C0B2187288B904EB8104A850E27858600E
:1038000002F1804201211160587286F31188BFF3E2
:103810006F8F70BD6FF04400F7E70020F5E72DE9EA
:10382000F8434668D0F80CE0CFB24AB10C237B4392
:103830005EF803309A4252D013B11B68002BF9D1C5
:103840004FF02003EFF3118C83F31188BFF36F8FD8
:103850000C257D430EEB05031C7A0134E4B21C7287
:103860008CF31188BFF36F8F5AB34FF0804C4FF039
:103870000308CCF8088393F809C0BCF1000F15D1F8
:103880004FF02008EFF3118988F31188BFF36F8F91
:10389000C2F800C0D3F80480B8F1000F1BD15A6001
:1038A0004EF8052089F31188BFF36F8F4FF08043E6
:1038B0000325C3F80453BCF1000F02D0D2E9013252
:1038C0009847012C05D106EB8706B37803F18043B6
:1038D0001C60002005E0C8F800205A60E2E76FF0A5
:1038E0000F00BDE8F8830022FFF799BF002210B552
:1038F000012104461046FEF769F80020FEF756F84D
:103900004FF080430122C3F818250322C3F8042393
:10391000E3680020C3E90000E368C3E9030010BDC9
:10392000704770470021012000F000B800F04EB948
:103930000146006800F04AB908B5FEF7A9F8BDE8ED
:103940000840FEF7D5B90138013910F8013F11F8E8
:10395000012F934201D1002BF7D1981A7047F0B58F
:1039600081EA0004A50703460BD0013B0A449142BB
:103970001AD1F0BD002AFCD011F8014B03F8014B1D
:10398000013A9C07F6D19508AC001E1F0F19B942E9
:1039900005D16FF0030606FB05222344E5E751F845
:1039A00004CB46F804CFF2E711F8014B03F8014FBE
:1039B000DDE770B5C9B203469C0710D141EA012486
:1039C00044EA0445940803EB8406B3420DD16FF03A
:1039D000030505FB04241C44A34209D170BD002A41
:1039E000FCD003F8011B013AE6E743F8045BECE77F
:1039F00003F8011BF0E74FF0FF307047FEF7E4BD1E
:103A000043685B68D3F810350B600020704743684B
:103A10005B68D3F8040542400A404240C3F80425DD
:103A20000020704743685B680020C3F808157047A2
:103A300043685B680020C3F80C15704743685A68F8
:103A4000D2F804355940C2F8041500207047C36805
:103A5000586830B558B10024814213D108685CB968
:103A60009C685860A14200D198600020086072B93B
:103A7000002030BD2846EFE720609868814208BFEB
:103A80009C60F2E705680446002DF3D13AB15A680C
:103A90000A60986859600028EAD19960E9E76FF0F8
:103AA0001500E6E7F8B5C5680F466968064661B1D6
:103AB0000C688A682B693A401A4202D04B6830463B
:103AC000984714B121462468F3E7F8BDC3682DE98F
:103AD000F041D3E903241440D3E90621D0F804804F
:103AE0005B690A4324EA0204D8F80420D2F810558E
:103AF0005D4024EA05050126002714B92846BDE8E3
:103B0000F08134420AD098F8083007F01F000021F5
:103B100040EA4310FEF77CFA24EA060401377600F7
:103B2000EBE710B4C468012303FA01F2236923EA26
:103B30000203236110BCFEF77FBA2DE9F041C5688E
:103B4000D0F80480D5E903341C40D5E9063213438C
:103B500024EA0304012700260CB9BDE8F0812742BE
:103B600010D06B6998F80820F34013F0010F06F0AD
:103B70001F000CBF0321022140EA4210FEF748FA61
:103B800024EA070401367F00E6E710B4C468012385
:103B900003FA01F223691343236110BCFEF74CBA08
:103BA000C2680B4692E8030083E8030000207047D8
:103BB00000F0A2B84FF02002EFF3118382F31188D6
:103BC000BFF36F8FFEE708B5FFF7F4FFF8B50646C1
:103BD0000F464FF02003EFF3118583F31188BFF3F5
:103BE0006F8FFFF7B3F9394604463046FFF7EBFF16
:103BF00085F31188BFF36F8F2046BDE8F840FEF7CC
:103C000091B8FFF78EBE21B9EFF3058008B9FDF733
:103C10007FBE81F31188BFF36F8F7047034620B9D1
:103C2000EFF305820AB9FDF773BE83F31188BFF382
:103C30006F8F70474FF02003EFF3118083F31188EB
:103C4000BFF36F8FFFF7EABF0368984214BF1846AF
:103C50000020704710B54FF02003EFF3118483F379
:103C60001188BFF36F8FFEF757FF84F31188BFF3FE
:103C70006F8F10BD50F8103C70B50446A0F11805C8
:103C8000CBB14FF02003EFF3118683F31188BFF31C
:103C90006F8F294650F8100CFEF7E8FE14F80B3C25
:103CA00023F0020304F80B3C002344F8103C86F395
:103CB0001188BFF36F8F14F80B3C23F0140304F842
:103CC0000B3C2846BDE87040FFF7C4BF10B54FF06D
:103CD0002003EFF3118483F31188BFF36F8FFFF795
:103CE00073F884F31188BFF36F8F10BDEFF3058075
:103CF000003018BF01207047FEF702B910B54FF031
:103D00002002EFF3118482F31188BFF36F8F0368F1
:103D10003BB1FFF7B5F9002084F31188BFF36F8F33
:103D200010BD6FF01500F7E710B54FF02003EFF36B
:103D3000118483F31188BFF36F8FFFF7B5F984F314
:103D40001188BFF36F8F10BD70B504460E464FF05B
:103D50002003EFF3118583F31188BFF36F8FFFF713
:103D6000A3F9012805DDA04203DD31462046FDF719
:103D70003DFD85F31188BFF36F8F70BD08B5FFF768
:103D80007FFA08BD10B400F10C04C0E9034410BC74
:063D9000FFF7C9BC7047FB
:023D9600FFFF2D
:083D980098D3FF7F0100000039
:103DA000D11E000000000000BD3200000000000035
:103DB000551E000000000000ED3800001C0000202F
:103DC000052500002C000020151600000000000052
:103DD000891700003C000020151F00005C00002037
:083DE000151F00004C0000203B
:103DE80000000000B916000000000000253900009E
:103DF80000000000253900000000000025390000FF
:103E080000000000253900000000000025390000EE
:103E18000000000011220000000000002539000009
:103E280000000000253900000000000025390000CE
:103E380000000000253900000000000025390000BE
:103E480000000000253900000000000025390000AE
:103E5800000000002539000000000000253900009E
:103E68000000000025390000000000005D17000078
:103E7800000000002539000000000000253900007E
:103E8800000000002539000000000000253900006E
:103E9800000000002539000000000000253900005E
:103EA800000000002539000000000000253900004E
:103EB800000000002539000000000000253900003E
:103EC800000000002539000000000000253900002E
:103ED800000000002539000000000000253900001E
:103EE800000000002539000000000000253900000E
:103EF80000000000253900000000000025390000FE
:103F080000000000253900000000000025390000ED
:103F180000000000253900000000000025390000DD
:103F280000000000253900000000000025390000CD
:103F380000000000253900000000000025390000BD
:103F480000000000253900000000000025390000AD
:103F5800000000002539000000000000253900009D
:083F6800FFFFFFFFFFFFFFFF59
:103F70000338FDD870470000E7380000CD37000057
:103F80001F38000000000000B137000002000000F0
:103F9000943F00000000000072410000260002076C
:103FA000000000207A41000022000B11451F000094
:103FB000013A00000F3A0000253A0000313A0000B3
:103FC0003D3A0000752100004F3A00008B3B000095
:103FD000233B000000000000FFFFFFFF0000005037
:103FE00000000000FFFF000000030050010000007F
:103FF000512400007D240000CD220000DD220000BD
:10400000A13B0000A03D0000D03D0000D83D0000D5
:10401000E83D0000E83D0000F5FFFFFF000100045F
:104020000401080C427574746F6E207072657373AE
:1040300065642061742025750A004750494F5F3040
:10404000004572726F723A206469646E277420664C
:10405000696E64202573206465766963650A00458E
:1040600072726F722025643A206661696C65642003
:10407000746F20636F6E66696775726520257320A3
:1040800070696E2025640A004572726F7220256483
:104090003A206661696C656420746F20636F6E6698
:1040A000696775726520696E7465727275707420C7
:1040B0006F6E2025732070696E2025640A00536599
:1040C0007420757020627574746F6E206174202581
:1040D000732070696E2025640A004750494F5F3194
:1040E000004469646E27742066696E64204C454400
:1040F000206465766963652025730A004572726FD6
:10410000722025643A206661696C656420746F20B2
:10411000636F6E666967757265204C4544206465FF
:10412000766963652025732070696E2025640A0016
:10413000536574207570204C4544206174202573AC
:104140002070696E2025640A0050726573732074B4
:10415000686520627574746F6E0A00554152545F31
:104160003000434C4F434B007379735F636C6F6354
:104170006B00464C4153485F30005352414D5F3015
:1041800000017A65706879722D76322E332E302DCB
:10419000312D676537373938356132663035330050
:1041A0002A2A2A20426F6F74696E67205A657068E8
:1041B0007972204F53206275696C64202573202525
:0C41C00073202A2A2A0A006D61696E0033
:1041CC002D330000F739000000C20100000103008C
:0C41DC000090D00314000020140000200C
:1041E800624100001C400000783F00009800002059
:1041F8005B41000081410000F03F00000800002002
:1042080068410000000000000000000000000000FD
:104218003A400000D83F0000AC3F0000B400002046
:10422800DA400000E43F0000AC3F0000D40000206A
:104238006C0000206C00002000000000000000005E
:044248000F00000063
:0400000300001B1DC1
:00000001FF
