:1010000000000420B5120000DD1200002165000080
:10101000E1120000E3120000E512000000000000F1
:10102000000000000000000000000000E7120000C7
:10103000E912000000000000EB120000ED120000B9
:10104000A1B80000EF1200008DB90000EF120000FF
:10105000EF120000EF120000ADB20000EF1200002E
:10106000EF120000EF120000EF120000EF1200007C
:10107000EF120000EF120000EF120000EF1200006C
:10108000EF1200000D650000EF120000EF120000EB
:10109000EF120000EF120000EF120000EF1200004C
:1010A000EF120000EF120000EF120000EF1200003C
:1010B000EF120000EF12000000000000000000002E
:1010C000EF120000EF120000EF120000EF1200001C
:1010D000EF120000EF120000EF12000085DF0000A9
:1010E000EF120000EF120000EF12000000000000FD
:1010F00000000000EF12000000000000EF120000EE
:1011000000000000000000000000000000000000DF
:1011100000000000000000000000000000000000CF
:1011200000000000000000000000000000000000BF
:1011300000000000000000000000000000000000AF
:10114000000000000000000000000000000000009F
:10115000000000000000000000000000000000008F
:10116000000000000000000000000000000000007F
:10117000000000000000000000000000000000006F
:10118000000000000000000000000000000000005F
:10119000000000000000000000000000000000004F
:1011A000000000000000000000000000000000003F
:1011B000000000000000000000000000000000002F
:1011C000000000000000000000000000000000001F
:1011D000000000000000000000000000000000000F
:1011E00000000000000000000000000000000000FF
:1011F00000000000000000000000000000000000EF
:1012000010B5054C237833B9044B13B10448AFF340
:1012100000800123237010BD300400200000000076
:10122000D02E010008B5034B1BB103490348AFF3AF
:10123000008008BD0000000034040020D02E010012
:10124000154B002B08BF134B9D46A3F5803A002198
:101250008B460F461348144A121A0EF0D1FA0F4B60
:10126000002B00D098470E4B002B00D09847002051
:10127000002104000D000D48002802D00C48AFF3F7
:1012800000800EF051FA200029000EF0ABF80EF0AD
:1012900037FA00BF00000800000004200000000032
:1012A0000000000030040020301500200000000085
:1012B000000000000649074A074B9B1A03DD043B68
:1012C000C858D050FBDC0EF039F9FFF7B9FF000029
:1012D000683001000800002030040020FEE7FEE72F
:1012E000FEE7FEE7FEE7FEE7FEE7FEE7FEE7FEE7D6
:1012F000F0B595B0002415460F4608461E4609F085
:10130000C3F8384623460895082205A91A9D099670
:101310000D950A948DF82C400C9409F00FF99DF866
:1013200014308DF81140DDE9061003F00302012AA4
:10133000CDE9020127D0022A04D0384609F0A8F8E6
:1013400015B0F0BDBDF81650C3F3C2038DF81030D0
:10135000AD090826082D2C4628BF0824334622460E
:101360000EA9384609F0EAF82D1B214608AB02AA5F
:101370000EA8264401F004FB002DEBD1384609F0FD
:1013800087F815B0F0BDBDF81460059DC6F383164F
:10139000C3F3C204B2000EA9384608238DF81040EA
:1013A000C5F3952509F0CAF808AB324628460EA9C0
:1013B000009302AB01F03EFA384609F069F815B027
:1013C000F0BD00BF704700BF00B583B0044B009371
:1013D000044A4023FFF78CFF03B05DF804FB00BF15
:1013E000E91300005004002038B50E480E4D037874
:1013F0000E4CEB5C0025D2B2257053B90C300AF0CC
:101400005DFD58B90A4B1B7813B12378002BFCD033
:1014100038BD04300BF0C4F80028F3D001F00EFE04
:10142000F0E700BF080000205014002090040020C6
:101430004C04002070B51348134A0378D35C88B07D
:10144000DBB90C300AF0BCFC104D0FCD6C460FC45C
:1014500095E80F0008AD102645F8206D84E80F00D0
:1014600029460022074809F06DFC08B101F0E6FDAD
:10147000074B00221A7008B070BD04300AF0F6FF66
:10148000E2E700BF0800002050140020B81001005F
:101490004C040020064B8B6004284FF00003CB6007
:1014A0004B609CBF034B53F820300B60704700BF6C
:1014B000F012010014130100C368DB6800225A71A6
:1014C000704700BFC368DB6801225A71704700BFD4
:1014D00030B40E4B0E4D0F4CED1A00222D09C1E910
:1014E0000242C1E900220BD003EB0515DC68247928
:1014F000FF2C02D0904205D001321033AB42F5D11F
:1015000030BC70479B680B6030BC7047AC2F01004B
:10151000CC2F0100281301000129034604D0816863
:10152000D1F84811890704D500221846114608F061
:1015300023B800B5D2E90031054A83B0CDE90021D6
:10154000044A022106F000FC03B05DF804FB00BF72
:10155000B4110100A81101008368D3F848319B073A
:1015600033D42DE9F0471B4C1B4E361B360982B095
:1015700028D00746DFF868A0DFF86890DFF86880B9
:1015800004EB06160CE06D79CDF804C0002D0CBFFD
:1015900055464D460095103406F0D6FBA64211D0B4
:1015A000D4E902E595F804C0BCF1FF0F734642464A
:1015B0004FF008013846E6D1084A103406F0C4FB63
:1015C000A642EDD102B0BDE8F0870022114607F037
:1015D000D3BF00BFAC2F0100CC2F0100E0110100F0
:1015E000D4110100CC110100001201008368D3F86E
:1015F00048319B0703D4044A022106F0A5BB002210
:10160000114607F0B9BF00BF241201008368D3F868
:1016100048319B0703D4044A022106F095BB0022FF
:10162000114607F0A9BF00BF24120100F0B5324CEB
:1016300085B004F5836005F033F904F2144005F039
:101640002FF9D4E9013703EA0702D01C04EB80012B
:1016500014F8200010F0040044D003F1020C0E78BE
:1016600006F00306012E654635D0022E02F1030670
:1016700021D004EB86010028F1D104EB8202013372
:10168000D26801923B4004EB830302F00302012A7B
:10169000DE6829D0022A23D1BDF806309B09033326
:1016A000360C05EB9305154805F006F900B16560A9
:1016B000304605B0F0BD4B880CEB931307EA0302EC
:1016C000D11C03F1020C14F82100654604EB8101E2
:1016D00000F00400CFE70B88C3F383136344EDE706
:1016E0000026E0E79D1CC8E7BDF80430C3F3831370
:1016F000360C1D44D7E700BF6405002078090020A0
:101700002DE9F0410F4C104D52F8046C2D1B2D09A2
:1017100007460FD004EB051502E01034AC4209D0A7
:10172000A16830460EF054FA0028F6D1E3685871EB
:10173000BDE8F08133463846044A0221BDE8F04155
:1017400006F002BBAC2F0100CC2F0100901101006C
:101750002DE9F041104C114D52F8046C2D1B2D0950
:10176000074610D004EB051502E01034AC420AD055
:10177000A16830460EF02CFA0028F6D1E368012269
:101780005A71BDE8F08133463846054A0221BDE86A
:10179000F04106F0D9BA00BFAC2F0100CC2F0100F8
:1017A0009011010070B4104A104E114C921B00238E
:1017B000D208C1E902434B600CD00E4D2C88A042E8
:1017C00004D10CE035F82340A04206D001339A4200
:1017D000F8D100220A6070BC704706EBC30632687D
:1017E0000A6070BC704700BFAC2F0100D42E01000E
:1017F000F0120100340300202DE9F04FCB683E4E7B
:10180000DFF820915B79A6EB090685B08B46F608D8
:101810008046002B6BD0394A394B0821404606F0F0
:1018200093FA384A0821404606F08EFA76B3364DD0
:10183000DFF8F4A0B70000240023EA5AA2423AD00D
:1018400004339F42F9D15146002335F82320A242A8
:1018500041D001339E42F8D100208446D646002371
:1018600035F82320A24223D001339E42F8D1002331
:1018700084450ED8254A0292CDE9001E0134244A3F
:101880000821404606F060FAA642D5D105B0BDE871
:10189000F08F204A0292CDE9001E01341C4A082133
:1018A000404606F051FAB442C6D105B0BDE8F08F0B
:1018B00059F83330DCE7DBF80C2017491279595816
:1018C00002EB4202072393400B40D340DBB2134AA2
:1018D00052F82310B8E709EBC30393F806C00F4B87
:1018E0006046032828BF032053F820E0B7E70C4ADE
:1018F000022106F029FA8EE7AC2F010060120100E8
:101900005412010080120100340300202012010053
:10191000C0120100D8120100A00300200013010032
:1019200040120100D42E01003812010013460A466D
:10193000C168FFF761BF00BF2DE9F047124C134D9E
:1019400052F8046C2D1B2D09804615D01746894688
:1019500004EB051502E01034A5420DD0A168304615
:101960000EF036F90028F6D13B464A46214640465D
:10197000BDE8F047FFF740BF33464046044A022126
:10198000BDE8F04706F0E0B9AC2F0100CC2F010014
:10199000901101002DE9F04F8E4B8F4C52F8049CB2
:1019A000A3EB04085FEA181885B0064611D0174665
:1019B0000D4604EB081802E01034A04509D0A168D8
:1019C00048460EF005F90028F6D15DB905B0BDE82E
:1019D000F08F824A4B463046022105B0BDE8F04FF9
:1019E00006F0B2B9E3687E49386893F8049007229C
:1019F0000EF008F9002866D1012D00F0DE80DFF836
:101A00000C8204460A2258F8041B78680EF0FAF893
:101A100058B10134052CF5D17B68724A3046022159
:101A200005B0BDE8F04F06F08FB9E3B2022D019387
:101A300040F0BF806C4C6D4BA3EB04085FEAD80804
:101A40002746C3D009EB490307229A400292019A24
:101A5000DFF8A4A10194DFF8A4914FEA880802FA04
:101A600003FB0025144609E0019B53F8153006F0EE
:101A70006BF90435A84507F10807A7D0BB79A34245
:101A80004A464FF002013046EED355F80A2002993B
:101A900082EA0B030B405340C3F3C202C3F382112B
:101AA0008A4238BF0A4603F007018A4238BF0A4615
:101AB0004F4945F80A30C3F342206918824238BFC3
:101AC00002464A80D5E708224A4938680EF09AF85B
:101AD00000287AD1012D0190ACD0012303F180437D
:101AE000013B09EB4909A7F1040A07EB8307072328
:101AF0003D4C3E4A03FA09F30293019BA2EB040812
:101B00004FEAD80803FA09F3B3460AEB850A4646BA
:101B10000393A04657F8044F002E43D0C14600253A
:101B200004E00135AE4209F108093AD020222146ED
:101B300058F835000EF066F80028F2D1AE4230D0E9
:101B400099F80620019B9A4223D32B4C039B54F80F
:101B5000252002982649534003405340C3F3C20254
:101B6000C3F38210824238BF024603F0070082426C
:101B700038BF0246C3F3422001EB8501824238BFE1
:101B8000024644F825304A80BA45C3D105B0BDE8C5
:101B9000F08FD9F80030194A0221584606F0D4F8DF
:101BA000F2E73C68164A23460221584606F0CCF874
:101BB000EAE77FF60BAF022390E7124A3046022194
:101BC00005B0BDE8F04F06F0BFB83B680E4A30469E
:101BD00025E700BFCC2F0100AC2F010090110100C0
:101BE000F810010070110100D42E0100AC2F01008B
:101BF0003403002018110100A00300203811010057
:101C00005C1101000011010020110100001301000E
:101C100001B970472DE9F04FC368DB6885B089468C
:101C2000174683467A4910681D7907220DF0EAFFAE
:101C300000286ED1B9F1010F00F0DE80754E044628
:101C40000A2256F8041B78680DF0DCFF58B1013405
:101C5000052CF5D17B68704A5846022105B0BDE8D5
:101C6000F04F06F071B8E3B2B9F1020F019340F002
:101C7000C0806A4C6A4F3F1BFF08264646D0019B36
:101C8000029405EB45051A46AA404FF0070A0AFAE6
:101C900005FADFF89891DFF898810192BF000025DE
:101CA0001C4609E0029B53F81530043506F04CF849
:101CB000AF4206F1080629D0B379A34242464FF05D
:101CC00002015846EED355F80920019B534003EA20
:101CD0000A035340C3F3C202C3F382118A4238BFDE
:101CE0000A4603F007018A4238BF0A464D4945F8C3
:101CF0000930C3F342206918824205F1040538BF58
:101D00000246AF424A8006F10806D5D105B0BDE8CB
:101D1000F08F0822444938680DF074FF002873D111
:101D2000B9F1010F0190A4D0012303F18043013BDD
:101D300005EB45053A1F07EB83070723AB40374CFC
:101D4000374E0293019B361BAB4002EB8909F60824
:101D50000393A04657F8044F002E43D0C2460025F7
:101D600004E00135AE420AF1080A3AD020222146A9
:101D700058F835000DF046FF0028F2D1AE4230D0C1
:101D80009AF80620019B9A4223D3284C039B54F8CF
:101D9000252002982349534003405340C3F3C20215
:101DA000C3F38210824238BF024603F0070082422A
:101DB00038BF0246C3F3422001EB8501824238BF9F
:101DC000024644F825304A80B945C3D105B0BDE884
:101DD000F08FDAF80030164A0221584605F0B4FFB9
:101DE000F2E73C68134A23460221584605F0ACFF4F
:101DF000EAE78BD9022398E70F4A5846022105B03B
:101E0000BDE8F04F05F0A0BF3B680C4A24E700BFD7
:101E1000F81001000013010070110100D42E010020
:101E2000AC2F01003403002018110100A003002092
:101E3000381101005C1101000011010020110100A6
:101E40002DE9F84F234B24480022FF21C3F8182422
:101E50009960C3E90022C3F8142483F8202408F011
:101E6000B5FA814610B14846BDE8F88FDFF87C80AE
:101E70001A4F1B48A7EB080708F0EAFCFF08F2D04E
:101E8000DFF860B04D460026344608EBC50AA5428F
:101E90004FF0140208D058F83410DAF800000DF0B2
:101EA000B1FE0028C8BF01360134A742EFD12BF89C
:101EB00025600135BD42E6D10A4B0B490BEB850588
:101EC00000225A8004339D4241F8042BF9D1484640
:101ED000BDE8F88F6405002028300100AC2F010018
:101EE000E412010034030020A0030020D42E0100DE
:101EF00021B9124B03EBC00000687047104A0F492C
:101F0000521AD20815D030B40E4D2B88834212D00D
:101F1000002303E035F82340844205D001339A4280
:101F2000F8D1002030BC704701EBC300006830BC22
:101F30007047104670470846F8E700BFD42E0100EE
:101F4000AC2F010034030020094B013903EBC00022
:101F500003290BD8DFE801F00208060402207047CD
:101F6000407970470079704704207047002070471F
:101F7000D42E01002DE9F843DFF8D8900746002061
:101F80008846D9F8084004F04FF9D9E90132D9F868
:101F90000060134401339B1B012B56D809F21C45EA
:101FA0000121284604F04AFCFFF740FB0146284681
:101FB00004F044FCD9E90132D9F80010134401338C
:101FC0005B1A012BECD90A400332052302310020B1
:101FD00049F82230C9F8001004F02EF900211C48FD
:101FE00004F00AFC80F31000731C234009EB830308
:101FF00000043440033440EA1740D86019F8243014
:1020000067F3C50309F8243039F824306FF38913D6
:1020100029F8243059F8242068F39F22134601211F
:1020200061F301036FF3820349F8242009F8243097
:1020300099F820341BB906E000F00EF818B1D9E980
:1020400000329A42F8D1BDE8F8833146BBE700BFC1
:1020500080090020640500202DE9F04F9E4C0023EC
:1020600085B0C4F81834BFF34F8FD4E9015605EAA0
:102070000602D31C04EB830114F82330580719D54A
:1020800027680B7803F00303012B3DD0022B03D10B
:102090004B88023505EB931506EA0502D4F81804BF
:1020A000D31C04EB830128B9AF423ED914F8233086
:1020B0005B07E6D404EB82026B1CD26801923340CA
:1020C00004EB830302F00302DB680293022A05F1AA
:1020D000020800F0A380012A2BD0D4F810543DB19F
:1020E0002B6828469B689847EB681D68002DF7D140
:1020F0007A4B5B88012B0DD8D4E90030C01A18BF89
:10210000012005B0BDE8F08F0B880235C3F38313BF
:102110001D44C1E7724B73487349C01AC0080004DC
:1021200040F00200FFF726FFE6E7676005B0BDE874
:10213000F08FBDF804706D48C7F38313062B28BFDA
:102140000623991C63F389178900ADF8047008F021
:102150003FF9C7F3C20781460028BED008F094F9C2
:102160000023082201A9484608F0B4F9BDF804305C
:1021700013F4707F00F0AE806FF0010BABEB050B3A
:10218000082506EA080103312B46042204EB8101ED
:10219000484608F09FF9BDF8043008F1010A0BEB3E
:1021A0000A02C3F383139342D04605F10405E8D82D
:1021B000D4F81834002B77D1D4F81054FDB1DFF8DF
:1021C00034810726EB685A79B2B11A79BDF8080054
:1021D00002EB420158F8200006FA01F2052F02EA4C
:1021E000000208BF0327CA40BA4205D32B684946FC
:1021F0001B6828469847EB681D68002DE2D14846C9
:1022000008F046F9002004F00FF8D4F818340BB9A0
:10221000C4F804A0002004F00FF86DE7BDF8063004
:1022200032489DF804704FEA931A5546502D28BF46
:10223000502565F38F1305F10801ADF8063008F05D
:10224000C7F8C7F3C207814600283FF446AF26EA25
:10225000080B0BF1010B08F017F94FEA8B0B002369
:10226000082201A9484608F035F95D4527D9EBB2A7
:10227000BBF1000F1CD006EA0801A3EB0B030331EE
:1022800004EB8101DDB25A460823484608F022F9E2
:102290002A460BF108031649484608F01BF90AF1D3
:1022A000030A08EB9A0A83E7484608F0F1F823E7A7
:1022B0002A4608230E49484608F00CF9EFE706EADB
:1022C0000801033104EB81012A460823484608F03F
:1022D00001F9E4E7C2466BE7640500204C030020E7
:1022E000D42E0100042F01007014010028300100D9
:1022F00070050020A00300202DE9F047DFF8E4A0DE
:102300000746002091468846DAF8084003F08CFF23
:10231000DAE90132DAF80060134401339B1B022B27
:102320005CD80AF21C450121284604F087FAFFF721
:102330007DF90146284604F081FADAE90132DAF83B
:102340000010134401335B1A022BECD90A4003320C
:102350000331452300204AF82230CAF8001003F068
:102360006BFFB31C23400AEB830300211C48C3F816
:102370000C9004F041FA80F31000731C23400AEB28
:10238000830300043440033440EA1740D8601AF84D
:10239000243067F3C5030AF824303AF824300121C9
:1023A00061F389132AF824305AF8242068F39F2215
:1023B000134661F301036FF382034AF824200AF8FD
:1023C00024309AF820341BB906E0FFF745FE18B117
:1023D000DAE900329A42F8D1BDE8F0873146B5E734
:1023E00080090020640500202DE9F84F3A4C804612
:1023F000002093469A468946A56803F015FFD4E964
:102400000132276813440133DB1B032B61D804F22C
:102410001C460121304604F011FAFFF707F9014686
:10242000304604F00BFAD4E9013221681344013339
:102430005B1A032BEDD90A400332043185230020B7
:1024400044F82230216003F0F7FEBA1CFB1C2A403E
:102450002B4004EB820204EB830300211F48C2F8E7
:102460000CB0C3F80CA004F0C7F980F310007B1C7B
:102470002B4004EB830300043D40033540EA184041
:10248000D86014F8253068F3C50304F8253034F813
:102490002530022262F3891324F8253054F82520D0
:1024A00069F39F221346012161F301036FF3820355
:1024B00044F8252004F8253094F820341BB906E0B0
:1024C000FFF7CAFD18B1D4E900329A42F8D1BDE84D
:1024D000F88F3946AFE700BF64050020800900206F
:1024E0002DE9F84F3D4C8046002093469A46A5685A
:1024F000894603F099FED4E9013227681344013379
:10250000DB1B042B67D804F21C460121304604F083
:1025100095F9FFF78BF80146304604F08FF9D4E9BE
:1025200001322168134401335B1A042BEDD90A40B0
:1025300003320531C523002044F82230216003F026
:102540007BFEB81CFA1C28402A403B1D2B4004EBA4
:10255000800004EB820204EB8303C0F80CB000217E
:10256000C2F80CA01E480A9ADA6004F045F980F31C
:1025700010007B1C2B4004EB830300043D4003351B
:1025800040EA1840D86014F8253068F3C50304F811
:10259000253034F82530032262F3891324F82530DE
:1025A00054F8252069F39F221346012161F30103AA
:1025B0006FF3820344F8252004F8253094F8203482
:1025C0001BB906E0FFF748FD18B1D4E900329A4282
:1025D000F8D1BDE8F88F3946A9E700BF64050020AF
:1025E000800900202DE9F04F85B0444C0E9EA5686F
:1025F0000296CDE900238046994600200F9B039365
:1026000092468B4603F010FED4E90132276813444A
:102610000133DB1B052B6FD804F21C460121304629
:1026200004F00CF9FFF702F80146304604F006F911
:10263000D4E901322168134401335B1A052BEDD92B
:102640000A400332063140F20513002044F82230DC
:10265000FE1C216003F0F0FDB91C29402E403A1DFC
:102660002A4004EB810104EB86067B1D2B4004EB22
:102670008202C1F80CA004EB8303C6F80C900E9EF6
:10268000D66000210F9A1E48DA6004F0B5F880F396
:1026900010007B1C2B4004EB830300043D400335FA
:1026A00040EA1840D86014F8253068F3C50304F8F0
:1026B000253034F82530042262F3891324F82530BC
:1026C00054F825206BF39F221346012161F3010387
:1026D0006FF3820344F8252004F8253094F8203461
:1026E0001BB906E0FFF7B8FC18B1D4E900329A42F2
:1026F000F8D105B0BDE8F08F3946A1E764050020A8
:1027000080090020044BD3E900239A4201D0FFF74F
:10271000A3BC0020704700BF640500202DE9F043F2
:10272000344DD5F81044064600205CB1E3681A79B0
:10273000824204D151E0DB681A7982424DD01B6895
:10274000002BF8D1F3681871D5F81034002B4BD05A
:10275000DA68F36812681A60D5F81034DB681E6016
:10276000254A264FBF1AFF0835D0254D254C02EBD0
:10277000C7094FF0070CF768D37997F80480D5F8AC
:1027800000E08B4208EB480828BF0B4603FA08F329
:1027900083EA0E030CFA08F803EA080383EA0E033F
:1027A000C3F3C20EC3F38218C64538BFC64603F052
:1027B0000708C64538BFC646C3F34228C64502F1DE
:1027C000080238BFC6469145A4F802E045F8043B2C
:1027D00004F10404CFD1BDE8F08301300A28A4D16C
:1027E0004FF0FF30BDE8F083C5F81064F268136065
:1027F000B6E700BF64050020D42E0100AC2F010015
:10280000A00300203403002038B5094BD3F810444E
:10281000012583F820544CB1E3685D71236820469C
:102820005B689847E3681C68002CF5D138BD00BF91
:10283000640500202DE9F04784B01D460C9C002360
:1028400094F80C802373EB8881460E461746002BC4
:1028500040D1297A05290ED06B7AA88873BB404BEA
:1028600053F821A00021FFF743FB524603463D49A0
:10287000204607F085F9062F09D8DFE807F0046A3B
:102880004249525D33004946204607F079F92B7AD8
:10289000052B05D06B7A5BB93349204607F070F9F8
:1028A000204607F061F984F80C8004B0BDE8F08799
:1028B0002E4A2F49204607F063F9EDE7FFF744FB66
:1028C0002C4B2B4953F82020204607F059F9297A40
:1028D000A888C4E7254A00922749284A204607F0DD
:1028E0004FF9B6E7D6E90410D6E900230390D6E9FC
:1028F00002070291CDE900074946204607F040F95A
:10290000C5E74946D6E90023204607F039F9BEE776
:10291000B168D6E9002320460091494607F030F916
:10292000B5E7D6E90201D6E90023019100904946B6
:10293000204607F025F9AAE7D6E90371B068D6E981
:1029400000230291CDE900074946204607F018F917
:102950009DE732684946204607F012F997E700BF25
:102960006C17010060170100FC11010054170100F1
:102970005C170100001701003C170100341701002B
:10298000082900D970472DE9F04F1D4690460023D5
:102990002A7B2B7385B0B8F80630039207460E46A3
:1029A000002B7BD198F80810052911D098F8093030
:1029B000B8F80400002B63D13C4B53F821400021B0
:1029C000FFF796FA224603463949284607F0D8F819
:1029D000DFF8FCB0DFF8FC90002405E03A5D01343C
:1029E00007F0CEF8082C09D0A64249462846F5D86B
:1029F0005946013407F0C4F8082CF5D12D49DFF809
:102A0000D8B0DFF8D890284607F0BAF800240CE0D8
:102A100017F804A0BAF17E0F23D92E224946284682
:102A2000013407F0ADF8082C08D0A642F0D859467A
:102A30002846013407F0A4F8082CF6D198F808309D
:102A4000052B02D098F80930A3B91B49284607F096
:102A500097F8284607F088F8039B2B7305B0BDE86C
:102A6000F08F0CF089FE50445246437813F0970FD4
:102A7000D3D0D3E7114A1249284607F081F8E4E79A
:102A8000FFF762FA0F4B0E4953F82020284607F053
:102A900077F898F80810B8F804008DE7074A009214
:102AA00009490A4A284607F06BF87BE76C170100D2
:102AB0006017010030170100FC11010054170100DC
:102AC0005C170100001701003C17010034170100DA
:102AD0002C17010024170100681701002C2B01009E
:102AE000074B1B5C1F2B8ABF064A4FF0A04203F026
:102AF0001F03D2F80405D840C04300F0010070471E
:102B0000B817010000030050074B1B5C1F2B86BF4A
:102B100003F01F0305494FF0A041012202FA03F31D
:102B2000C1F80C35704700BFB81701000003005012
:102B3000074B1B5C1F2B86BF03F01F0305494FF09B
:102B4000A041012202FA03F3C1F80835704700BF23
:102B5000B81701000003005030B44FF0A043094CF7
:102B600080254FF000504FF080414FF00042C4F8F4
:102B70000855C3F80805C3F80815C3F8082530BC84
:102B8000704700BF0003005030B44FF0A043094C21
:102B900080254FF000504FF080414FF00042C4F8C4
:102BA0000C55C3F80C05C3F80C15C3F80C2530BC44
:102BB000704700BF000300500A4B195C1F298ABFF1
:102BC00009484FF0A04001F01F01D0F80435012260
:102BD0008A4022EA03011340C0F80815C0F80C35FA
:102BE000704700BFB817010000030050133818BF2A
:102BF0004FF0FF30704700BFC10707D4830742BFC3
:102C00004FF0A0430C22C3F84C2770474FF0A0436D
:102C10001149032270B4C1F81C278026C3F8742719
:102C20004FF00055C3F878274FF08044C3F87C2755
:102C30004FF00042C1F80865C3F80855C3F80845CD
:102C4000C3F80825820704D54FF0A0430C22C3F82F
:102C50004C2770BC704700BF0003005070B51A4B82
:102C60001D789DB1194B1C682378C0B2984210D0D2
:102C700004F10802002306E014F8331081421646DE
:102C800002F1080206D001339D42F5D100231B78E2
:102C9000FFDE264608F0FAFA7378A3F10103B3FACF
:102CA00083F35B09834200D070BD094BD3E9002355
:102CB0001343F9D1074B0848196800224908BDE8B9
:102CC000704000F001BC00BF200A0020500A002024
:102CD000280A0020240A0020280000202DE9F04FB7
:102CE000974E337885B0002B00F02581954F964D97
:102CF000DFF8608200244FF00109D7F800B01BF81C
:102D0000340008F0C3FA0BEBC4031BF834B05B7853
:102D10004FEA5B0C1BF0010E15F80C10A3F1010338
:102D2000B3FA83F314BF0A0901F00F025B09042A06
:102D300000F2BB80DFE802F08ABB5B400300834205
:102D400000F0D680BEF1000F0CBFF0230F233078C7
:102D5000194005F80C10A8B1D7F800C09CF8003055
:102D60005B4500F0DE800CF10802002304E01CF853
:102D70003310594500F0D68001338342964602F164
:102D80000802F4D10020039003F04EFAABF12002C8
:102D9000CBF1200329FA03F309FA02F21A4309FAE4
:102DA0000BF103920291D8E90023DDE9020122EA46
:102DB000000023EA010171E0834232780CD0BEF1B9
:102DC000000F0CBFF0230F2303EA01030CBF042103
:102DD0004021194305F80C10013494428DDBD8E9E9
:102DE0000023134340F0938005B0BDE8F08F834289
:102DF0006FD1BEF1000F14BF0F23F02303EA0103CC
:102E0000327814BF30210321194305F80C10002A31
:102E1000E5D0D7F800C09CF800305B4500F08E800C
:102E20000CF108010023013393428E4601F10801A1
:102E3000D2D01CF833005845F5D1DEF80430002B11
:102E4000CAD05846012198473278C5E783422CD131
:102E5000BEF1000F0CBFF0230F2303EA01030CBFE8
:102E60000121102119430020019005F80C1003F0F6
:102E7000DBF9ABF1200309FA03F301930198CBF1DD
:102E8000200129FA01F1084309FA0BF101900091A0
:102E9000D8E90023DDE900011043194302460B463F
:102EA0000020C8E9002303F0C7F9327894E7834291
:102EB00013BF0023202302221A46BEF1000F12BFC7
:102EC0000F20F020134601400B4305F80C303278F8
:102ED00082E7BEF1000F0CBFF0230F2303EA0103CA
:102EE0000CBF01211021194305F80C10327873E74B
:102EF000BEF1000F14BF0F23F02303EA010314BF38
:102F000030210321194305F80C10327864E70F4B88
:102F10000F4819680022490805B0BDE8F04F00F0DD
:102F2000D3BAE646DEF80430002B3FF42BAF002185
:102F30005846984726E7DFF81C8050E7E6467CE7CE
:102F4000200A0020500A0020300A0020240A002015
:102F500028000020280A0020092A40D9F0B583B0B3
:102F60000E460546144608F01BF8002831D0204ACA
:102F70002049214B15600E70202200211F481C6043
:102F80000CF03EFC1E4B00200021741EC3E9000122
:102F9000E4B236B305EBC4041A4E083D032701E042
:102FA000A5421ED09DF8063020788DF8047003F0FD
:102FB000FC036FF382038DF80630A3788DF805309B
:102FC000324601A907F0F6FF083C0028E8D003B01C
:102FD000F0BD07F09BFF0028C9D003B0F0BD07206B
:102FE0007047094A0948002100F060FA03B0F0BDBB
:102FF000500A0020200A0020240A0020300A002065
:10300000280A00205D2C0000DD2C0000BC17010008
:1030100070B5084D2B785BB1074E00243368012151
:1030200013F8340008F0B6F82B780134A342F5D831
:10303000002070BD200A0020500A002000B585B095
:1030400000230390194601AA44F20100CDE901339F
:1030500000F004F805B05DF804FB00BF70B572B66F
:10306000FFF7D2FBFFF74EFB0028FBD1184E738809
:10307000F3B9184B1B68DB070DD5174C174D00BE75
:103080007388012B07D9601BC008000440F00200C0
:103090001349FEF76FFFBFF34F8F1249124BCA68F7
:1030A00002F4E0621343CB60BFF34F8F00BFFDE734
:1030B000094C0A4D0D49601BC008000440F0010096
:1030C000FEF758FF034B1B68DA07D9D5D7E700BFD7
:1030D0004C030020F0ED00E0042F0100D42E01008D
:1030E0000018010000ED00E00400FA05F4170100EB
:1030F000D0E90223D1E90201994208BF90422CBFD6
:1031000001200020704700BF2DE9F04F87B00390E9
:1031100003F0BAF940B19F49D1E9002312F180745C
:1031200043F10005C1E90045002103989A4C03F0E2
:10313000C7F968B123685BB1984B25681B782BB140
:1031400025B195F82030002B40F034810023236016
:103150000121039803F0B4F9002840F0FA8005A992
:103160008F4803F00BFB18B38E4E8C4F8C4D0378B9
:10317000012B00F0CB80C0F0D180022B0ED1304665
:103180004FF0000807F0B6FC30B180F820803046E0
:1031900007F0B0FC0028F8D101233B7005A92846B0
:1031A00003F01AFB05A9284603F0E8FA0028DED14F
:1031B0007C4E7D4FDFF8DC9103E00D2857D00023D3
:1031C0002360304607F09CFC2368002800F0BB8099
:1031D00073B12368D0E90201D3E90223994208BF01
:1031E00090423DD2236893F82030002B40F083803A
:1031F000304607F07FFC0546D5E902233846CDE985
:10320000002303F06FF9D9E90023DFF8A08112EB66
:10321000000A43F1000BD8E900239B4508BF924503
:1032200003D21AF1807A4BF1000BDDE90001B0EB1B
:103230000A0061EB0B01012871F1000313DBDFF8D9
:1032400070A150455CD8AA684FF496030021384617
:1032500003F094F80028B0D12368002B6CD02560CF
:1032600007B0BDE8F08F0021384603F01DF94B4B45
:103270001B78002BA3D095F82030002B9FD0384628
:1032800003F030F9D8E90023D9E900ABCDE90023F8
:103290001AEB00024BF1000310461946DDE900234A
:1032A000994208BF904203D210F1807041F10001B1
:1032B000D5E90223994208BF904265D32B690BB927
:1032C00085F82030D5E905309847296900293FF471
:1032D00076AF95F82030002B3FF471AFD5E902238B
:1032E00012EB010A43F1000BC5E902AB2946304657
:1032F00007F0ECFB63E72168304607F0E7FB77E770
:10330000384603F0EFF800EB0A029DE741682368B6
:10331000994215D0304607F0F7FB3FE7436893F832
:103320002020002A7FF43AAF012283F82020416850
:10333000304607F0CBFB31E7039802F0F1FF8EE750
:10334000002323602AE7002B8AD1039802F0ECFFC8
:1033500086E71548DFF8548003F0C4F80D4BD3E935
:103360000067D8E9002316EB000947F1000A9A45E7
:1033700008BF91454846514603D219F180704AF181
:103380000001C8E90001EAE62946304607F09EFB45
:1033900015E700BF580A0020C80A0020600A002074
:1033A000500000201418010064000020C00A002012
:1033B000FFFFB4001E4803F095F81E4A1E4BD2E9E9
:1033C0000067D3E9002316EB000847F1000999458F
:1033D00008BF90454046494603D218F1807049F134
:1033E0000001D5E90223994208BF90421BD32B6903
:1033F0000BB985F82030D5E90530984729690029AF
:103400003FF4A4AE95F82030002B3FF49FAED5E9F1
:103410000223561843F10007C5E902672946074809
:1034200007F054FB92E62946044807F04FFB8DE66F
:1034300064000020580A0020C00A0020141801006F
:1034400010B5134B13491B68134882B058220193DF
:10345000082303F03FF9044610B1204602B010BD26
:103460000E4A0F4801A902F0F1FE04460028F4D1EB
:1034700001210B4802F0FEFF01231946094A0848C2
:1034800002F056FF084B012220461A7002B010BD10
:1034900010180100640A00205000002009310000CB
:1034A00064000020FFFF7F00600A00204AB1A1F104
:1034B00001010368B1FA81F14909C3E9041200204E
:1034C00070470720704700BF90F820300BB10020F4
:1034D00070472DE9F048826182B004461E480D46CF
:1034E00003F000F81D4B1E49D3E90023D1E9006722
:1034F00012EB000B43F1000CBC4508BFB34503D2EF
:103500001BF1807B4CF1000C1BEB050221694CF197
:103510000003C4E9022379B901A9124803F0F2F8C3
:1035200088B100254460057001A90E4803F016F922
:1035300068B902B0BDE8F088256101A9094803F027
:10354000E1F80028EDD1042002B0BDE8F08802487F
:1035500002F0CCFF2846ECE764000020580A002067
:10356000C00A00205000002030B5002583B004467A
:1035700080F8205001A90B4803F0C4F878B101236A
:103580004460037001A9074803F0E8F808B903B0E4
:1035900030BD054802F0AAFF284603B030BD042024
:1035A00003B030BD500000206400002030B583B06F
:1035B00001A9124803F0A6F8F0B1114D044628689D
:1035C0002060002002F030FE0E4B0F481B8802687E
:1035D00001339B1AE380002103F00EF9A080002044
:1035E00002F02AFE01A9054803F0B8F8074B1B6852
:1035F00013B101462846984703B030BD740000203F
:103600005C1801006C0B0020880C0020D00A002000
:1036100030B50378052B83B0054626D0002B31D179
:103620002C4B1C683CB1236868889B6898472368CA
:103630005C68002CF7D1284C002002F0F5FD2368CF
:103640007BB10121244803F0F9F8002002F0F4FDD9
:10365000224B1B6813B1284601219847236803B009
:1036600030BD1F4B6A881A80EBE71E4BD3F88424C9
:10367000D3F8803413F0FF0F04D11B4BD2B2052ACC
:1036800008BF1D4601A9194803F03CF8044600286C
:10369000E5D02B680360002002F0C6FD104B0E48F9
:1036A0001B88026801339B1AE380002103F0A4F811
:1036B000A080002002F0C0FD01A90C4803F04EF8E4
:1036C000064B1B68002BCAD001462846984703B01A
:1036D00030BD00BF800C0020880C0020D00A0020E4
:1036E0006C0B00200070024058180100740000208C
:1036F00030B5012883B030D009D302282BD101A9DD
:103700001A4802F0FFFF044628B3194D06E001A94C
:10371000164802F0F7FF0446E8B1164D286820600D
:10372000002002F081FD144B14481B88026801330D
:103730009B1AE380002103F05FF8A080002002F0D4
:103740007BFD01A9094803F009F80D4B1B6813B173
:1037500001462846984703B030BD01A9034802F04E
:10376000D1FF04460028F6D0064DD7E774000020AC
:10377000541801004C1801006C0B0020880C00202C
:10378000D00A0020501801002DE9F04F87B006AF95
:1037900000260446894692469B4647F8106D00E095
:1037A0000136626801235568214600223846A84741
:1037B0000028F5D18DF80600049066B380460546D2
:1037C0000AE09DF806306768023B7F68B8479DF8BD
:1037D00006301D44AE421ED9626801235768214657
:1037E0000DF1060204A8B847626801235768214614
:1037F0000DF1070204A8B8479DF807304B454FF07C
:103800000002214604A8DCD1C24508D008F1010815
:103810005FFA88F8D5E7052007B0BDE8F08F109A69
:103820009DF8063013608BF800308BF801906168CA
:10383000023B4D680BF102022146A8470020EBE74E
:103840002DE9F041082382B005464FF484723949CE
:10385000394802F03FFF40B9384809F01DFF0446DF
:1038600040B1204602B0BDE8F0810324204602B0FA
:10387000BDE8F081324A3349334B14700C60482262
:10388000214632481C600BF0BBFF214648223048DD
:103890000BF0B6FF002D45D095E807002D4B83E8CF
:1038A0000700002007F0F8F908B185283FD12A4D1C
:1038B000274F2B7A6E68DFF894C005F109044FF0AA
:1038C000030E1EFB034E74451FD0F4B16378CBB1D9
:1038D000A278A21816D003F1FF38114652FA88F8E0
:1038E000013A01E001310DD012F8010F00F00F0391
:1038F000DB0000064CBF6344DB1990451D60306857
:103900005860EFD103347445DFD102A90B2301F8CD
:10391000043D11483368984704460028A1D009F0B7
:103920004FFF9EE70B4BC3E900551D72B9E7FFF748
:1039300085FBBCE7700B00207400002011360000EE
:103940008C0C0020780C00207C0C0020DC0A00206D
:10395000240B0020D00A0020B418010010B50AF092
:103960004BF840B10AF050F8044620B9054807F07A
:10397000A7F910B910BD082010BDFFF75FFB204666
:1039800010BD00BF4818010009F024BF0BF016B8A5
:103990004FF0804303E0D3F83824D1072BD5D3F878
:1039A00038249207F7D530B583B001A9124802F048
:1039B000A9FE0446E8B1114D28682060002002F0FD
:1039C00033FC0F4B0F481B88026801339B1AE380BE
:1039D000002102F011FFA080002002F02DFC01A9BF
:1039E000054802F0BBFE084B1B6813B10146284690
:1039F000984703B030BD7047740000206018010084
:103A00006C0B0020880C0020D00A002010B582B07A
:103A1000822301A912488DF8003002F073FEE8B14C
:103A2000044600982060002002F0FEFB0D4B0E487B
:103A30001B88026801339B1AE380002102F0DCFE40
:103A4000A080002002F0F8FB01A9054802F086FEE4
:103A5000064B1B6813B101466846984702B010BD7B
:103A6000740000206C0B0020880C0020D00A00207D
:103A70002DE9F04F037881B08246852B00F2B980A2
:103A8000DFE813F03A028B01BA00ED015602D800CC
:103A9000E000B700FB000E012101B700B700B7003E
:103AA000B7003401B700B700B700B700B700B700E0
:103AB000B700B700B700B700B700B700B700B7004E
:103AC000B700B700B700B700B700B700B700B7003E
:103AD000B700B700B700B700B700B700B700B7002E
:103AE000B700B700B700B700B700B700B700B7001E
:103AF000B700B700B700B700B700B700B700B7000E
:103B0000B700B700B700B700B700B700B700B700FD
:103B1000B700B700B700B700B700B700B700B700ED
:103B2000B700B700B700B700B700B700B700B700DD
:103B3000B700B700B700B700B700B700B700B700CD
:103B4000B700B700B700B700B700B700B700B700BD
:103B5000B700B700B700B700B700B700B700B700AD
:103B6000B700B700B700B700B700B700B700B7009D
:103B7000B700B700B700B700B700B700B700B7008D
:103B8000B700B7004801860057011C02D001D800D9
:103B90009C4BDFF888929C49D3E900029047D9F802
:103BA0000040002C40F09A82DFF86CA2DAF8043072
:103BB000002B40F0A28201F0A3FF944B1B68002B66
:103BC00000F00B830120924D09F0E0FE2A78931E4D
:103BD000DBB2062B0BD88F49CB5C13B107F048F84A
:103BE0002A78022A00F0F382082A00F0F0820123EA
:103BF0002B7001B0BDE8F08F854D2A78931EDBB2A3
:103C0000062B0BD88349CB5C13B107F031F82A7827
:103C1000022A01D0082A01D109F03AFF7E4B5B68E5
:103C200003222A700BB1022098477C4B1C68002CA1
:103C300040F0AE81734BD3E90002514601B0BDE8BC
:103C4000F04F1047827802F00F0312064CBF744AFF
:103C50006C4ADB001344D3E9000251469047002828
:103C6000C7D09AF8020000F00F03013B062BC0D822
:103C700001B0BDE8F04F0AF029B8674B5B680BB1A3
:103C800008209847654B1C68002CB2D0636820461A
:103C90001B685146984723681C68002CF6D1A8E79A
:103CA0005D4B5B680BB1092098475C4B1C68002C8E
:103CB0009FD0636820461B685146984723681C685C
:103CC000002CF6D195E7544B5B680BB10A2098475E
:103CD000524B1C68002C8CD0636820461B685146F0
:103CE000984723681C68002CF6D182E74A4B5B6832
:103CF0000BB10F209847494B1C68002C3FF479AF5B
:103D0000636820461B685146984723681C68002C4E
:103D1000F6D16EE73E4D2B78062B00F02B82072B59
:103D200002D0052B7FF465AF09F0BCFE02232B7097
:103D30005FE7DFF8E890D9F80070002F00F04081CD
:103D400097F808A0BAF1000F00F035814FF0000895
:103D5000444607F109057B68DB6813B12146384604
:103D600098473B7AA34240F2A3816E78002E00F080
:103D700019810024234632460AE0AB782A1901341F
:103D8000D05C0AF0B5FBE3B29E4240F20B816A7848
:103D90009A42F2D800231B78FFDEDFF88090D9F832
:103DA0000070002F00F0578197F808B0BBF1000FAA
:103DB00000F04C814FF00008444607F109057B688C
:103DC000DB6813B12146384698473B7AA34240F25C
:103DD0006F816E78002E00F0308100242346324639
:103DE0000AE0AB782A190134D05C0AF081FBE3B217
:103DF0009E4240F222816A789A42F2D800231B78D0
:103E0000FFDE00BF240B0020641801007C0C0020A2
:103E10008C0C002040180100D00A0020780C0020F3
:103E2000DC0A0020A44D2B78032B00F0A88109F0B8
:103E3000F5FD00283FF4DDAE2B789A1ED2B2062A9B
:103E400040F2DD819D4806F0E5FE2B78022B00F064
:103E5000CD81082B00F0CA8106232B70C9E6964D50
:103E60002B78082B00F07E819A1ED2B2062A40F2EF
:103E7000B781924806F0CEFE2B78022B00F0AA8183
:103E8000082B00F0A78105232B708D4B5B680BB1CD
:103E9000032098478B4B5146D3E9000290478A4B49
:103EA0001C68002C3FF4A5AE636820461B68514691
:103EB000984723681C68002CF6D19AE67E4D2B7833
:103EC000032B7FF496AE0AF09DFC00283FF491AEE0
:103ED0002B789A1ED2B2062A0BD87C498A5C12B182
:103EE00006F0C6FE2B78022B00F09281082B00F022
:103EF0008F8104232B707CE66F4B1B78032B00F023
:103F00005581082B00F052816D4B5B680BB100208E
:103F100098476F4B1C68002C3FF46BAE63682046DB
:103F20001B685146984723685C68002CF6D160E610
:103F3000634B5B680BB103209847624B6549D3E93B
:103F400000029047604B1C684CB1624D636820468C
:103F50001B682946984723681C68002CF6D1564DEB
:103F60002B78062B00F00381082B0ED09A1ED2B2BC
:103F7000062A40F23E81514806F04CFE2B78022B77
:103F800003D0082B01D009F08DFD02232B7030E601
:103F9000636820461B685146984723681C68002CBC
:103FA000F6D147E608F101085FFA88F4A24505F169
:103FB00003053FF6D0AE3B681F68002F7FF4C0AE0C
:103FC0003D4D0AF04FFB2A78931EDBB2062B0BD82F
:103FD0003E49CB5C13B106F04BFE2A78022A01D091
:103FE000082A01D109F054FDD9F8004000232B70B4
:103FF0004CB1394E636820461B68314698472368A8
:104000001C68002CF6D12F4B3349D3E900029047AE
:104010002B4B5B680BB10E2098472B78023BDBB231
:10402000062B3FF6E6AD294AD35C002B3FF4E1AD09
:1040300001B0BDE8F04F06F01BBE08F101085FFAC1
:1040400088F45C4505F10305FFF4B9AE3B681F68D1
:10405000002F7FF4A9AE184D01F048FD2A78931E79
:10406000DBB2062B79D81949CB5C002B75D0022A1C
:1040700003D0082A01D009F015FD114B5B6802221C
:104080002A700BB1012098470E4B5146D3E900022C
:104090009047D9F80040002C3FF4ABAD6368204650
:1040A0001B685146984723681C68002CF6D1A0E590
:1040B00000235B78FFDE00BF8C0C00206C0000202A
:1040C000D00A0020240B0020780C002040180100AA
:1040D0007C0C002070180100681801004E4D6368C8
:1040E00020461B682946984723681C68002CF6D197
:1040F000DFF834A1DAF804300BB10D209847D9F875
:104100000070002F3FF457AD97F80890B9F1000FF9
:1041100058D04FF00008444607F109057B68DB687A
:1041200013B12146384698473B7AA342C0D96E78EE
:10413000002E3FD000242346324609E0AB782A19EE
:104140000134D05C0AF0D4F9E3B29E4232D96A78E5
:104150009A42F3D800231B78FFDE304806F05AFD60
:104160002A7884E702232B7009F0A6FC8DE607234A
:104170002B703EE509F096FC08232B7039E50AF018
:1041800041FB00283FF453AE2B789A1ED2B2062A88
:1041900009D823498A5C12B106F06AFD2B78022BFC
:1041A00033D0082B31D004232B7040E61D48FFF795
:1041B0005FFCA9E608F101085FFA88F4A14505F162
:1041C0000305ABD83B681F68002F9DD1F3E409F0CD
:1041D0005FFC0CE509F05CFC55E69AF80800F2E497
:1041E0000F498A5C002A7FF448AE42E609F050FC91
:1041F00032E60B498A5C002A7FF4C1AEBBE608496F
:104200008A5C002A7FF422AE1CE609F041FCCAE772
:1042100009F03EFC6DE600BF641801006C00002050
:10422000401801006C180100D00A002070B5284E1B
:1042300082B03468002301930CB3A588A5B1E3884C
:10424000B3F5006F3ABF5A1C92B2012205F1FF3557
:1042500028BF002301A8A580E280ADF80630FFF753
:1042600007FC012002B070BD2046FFF701FC194990
:10427000194802F0B1FA0120356002B070BD15494D
:10428000154802F07BFA044630600028D5D1134B64
:104290001B6813B9184602B070BD114D01F0C4FF80
:1042A0002B880E48B3F5006F39BF5A1C92B22346D3
:1042B000012201212A80ADF8063002F0D7FA002051
:1042C00001F0BAFF01A8FFF7D3FB012002B070BDD7
:1042D000900C0020CC0A002074000020880C0020E4
:1042E0006C0B00202DE9F041067A374FDFF8E0C073
:1042F00000F109044FF0030E1EFB064E21468E45C9
:1043000082B01AD0D1B14D78002211E08B781344DD
:10431000D9420FD011F8038008F00F03DB0018F02A
:10432000800F14BF6344DB1901321B68002B46D198
:104330009542EBD103318E45E4D10021CDB2B54297
:10434000214FDFF88CC028D205EB4505651924D034
:104350006B78F3B1AB78EB1818BF4FF0010E05D1B5
:1043600017E0AB787344EB1812D096461B7803F035
:104370000F02D2001B064CBF6244D2191060436882
:104380001E6856606E780EF101037645DAB2E8D801
:10439000067A0131CDB2B542D6D30C4A13681BB1AF
:1043A0001A681368002BFBD102A910600B2201F8D8
:1043B000042D43681B68984702B0BDE8F0811120C6
:1043C00002B0BDE8F08100BF240B0020780C002073
:1043D000DC0A0020024B1878003018BF012070471B
:1043E000840C002000F00F03072B10B5044604D8FE
:1043F00009F0F6FC204609F075FC2046BDE81040A7
:1044000009F098BF0AF074B8014B1868704700BFF4
:10441000780C002070B4114B1E68A6B1357A75B1C6
:10442000737A834206F1090210D0002303E012F8E8
:10443000034F84420BD00133DBB29D42F7D1336886
:104440001E68002EEAD1304670BC70470023002958
:10445000F9D030460B7070BC704700BF780C00205C
:10446000436811461B68184700F00F03082B0AD851
:1044700002064CBF054A064ADB001344186810B117
:1044800043681B6818471020704700BFDC0A0020F3
:10449000240B002038B5094B1C6864B1054602E0C6
:1044A00023681C683CB1636829461B68204698470E
:1044B0000628F5D038BD062038BD00BF780C002096
:1044C00038B50D46044609F00DFB18B1054B1B78B5
:1044D000022B01D0082038BD29462046BDE83840CF
:1044E00009F010BB8C0C002038B50D46044609F0CD
:1044F000F9FA18B1054B1B78022B01D0082038BD02
:1045000029462046BDE8384009F088BB8C0C0020C5
:10451000F8B543689B6805460C4616461BB198479C
:10452000062800D0F8BD86BB2B7AA3421DD90935D9
:1045300004EB44042C4467782FB3354633463A469F
:104540000EE0A3786219D65C06F00F03072B304605
:104550000DD9013509F0EEFEEBB29F4213D9627816
:104560009342EED300231B78FFDE7378FFDE09F061
:1045700037FC304609F0B6FB0135304609F0DAFE6B
:10458000EBB2BB42EBD30020F8BD0720F8BD00BF63
:1045900043681B6903B11847184670472DE9F04777
:1045A000304BD3F80090B9F1000F59D099F808A01A
:1045B000BAF1000F4DD04FF00008444609F109054B
:1045C00007E008F101085FFA88F4A24505F1030548
:1045D0003FD9D9F804309B682BB1002221464846C8
:1045E00098470628EDD199F80830A34202D8002355
:1045F0005B78FFDE6F78002FE3D0002423463A4635
:104600000EE0AB782A19D65C06F00F03072B304674
:104610000BD9013409F08EFEE3B29F42D1D96A78FA
:104620009342EED300231B78FFDE09F0D9FB30461E
:1046300009F058FB0134304609F07CFEE3B29F429A
:10464000EDD808F101085FFA88F4A24505F10305E9
:10465000BFD8D9F80030D3F80090B9F1000FA5D138
:10466000BDE8F087780C00202DE9F8431E4B1F6849
:10467000002F33D097F80890B9F1000F2AD04FF0EF
:104680000008444607F109057B68DB6813B1214641
:10469000384698473B7AA34222D96E7896B10024D7
:1046A0002346324609E0AB782A190134D05C09F080
:1046B0001FFFE3B29E4205D96A789342F3D30023E9
:1046C0001B78FFDE08F101085FFA88F4A14505F1C7
:1046D0000305D9D83B681F68002FCBD1BDE8F8830C
:1046E00000235B78FFDE00BF780C00202DE9F0414D
:1046F0000468D04E0D7A3570B4F5517F00F089838F
:104700002ED940F25635AC4200F0858400F2C980C3
:10471000B4F5537F00F0688440F2458140F2513592
:10472000AC4200F0258400F26E8240F24F35AC427C
:1047300000F05683B4F5547F40F0E8820124002550
:10474000002A00F0318507795755A3424FF0020542
:10475000057100F28B8540F2513303600120C7E1FF
:1047600040F22637BC4200F0228448D840F2163787
:10477000BC4200F0458340F2678140F21937BC42E9
:1047800000F0188400F2FE8140F21737BC4200F0BE
:10479000D583B4F5467F40F0B982002A00F0208628
:1047A00090F804E001244FF0000C0027A34202F827
:1047B0000CE0077140F23F8402EB040C01348CF8EA
:1047C0000070DFF87CC200278CF80070AF4280F0E8
:1047D000B0830925A342057140F24085671C002A79
:1047E00000F06D8505791555BB424FF00404047146
:1047F00000F2BF8540F221330360012078E140F2EE
:104800003335AC4200F0C383B4F54D7FC0F08180F6
:10481000B4F54F7F00F0D38340F2998240F24235E5
:10482000AC4200F06B8200F24B8340F24135AC4267
:1048300040F06C8201250024002A00F07984077979
:1048400017559D424FF02404047180F0568427468A
:1048500005F1010E002473455755047140F243845D
:1048600025460EF1010C1024634502F80E50047128
:1048700040F2208425460CF101070124BB4202F8D6
:104880000C50047140F20784254607EB040C052404
:104890006345D555047140F2F98325460CF10107B3
:1048A00098E040F27235AC4200F0A68340F20181FC
:1048B00040F28335AC4200F01F83B4F5617FC0F055
:1048C000568240F28935AC4200F0108240F28E35BB
:1048D000AC4200F00B82B4F5617F40F01782002AF1
:1048E00040F090850124544D0F7D2D682D78AF4206
:1048F00000F0F0838F7DAF4200F09D84DFF844C16B
:104900004E4F9CF800503F780135EDB28CF80050C6
:104910003CE0B4F54B7F00F08B8200F2988140F2CE
:104920002735AC4200F05282B4F54A7F40F0EE8168
:10493000414C2768002A00F07185047996460125CC
:104940008EF800403C780F7DA74200F0E3838F7D16
:10495000A74200F0BC840024AB42047140F2F28113
:104960006C1C0AB107795755334D91F814C02D6866
:104970002F78BC4500F01982DFF8C0E0DFF8C4C032
:104980006F788EF8007000258CF80050BD42C0F0A2
:10499000C181DFF8ACC035789CF800700137FFB2F8
:1049A0008CF8007012E740F24935AC4200F04D83BC
:1049B00000F25E8140F24535AC4200F00383B4F56D
:1049C000527F40F0A381002A00F00285057901277B
:1049D0004FF0000C2424BB4202F80C50047140F24A
:1049E0004B8307F1010E01257345D455057140F243
:1049F00034830EEB050C0324634502F80E5004715A
:104A000040F230830CF1010702F80C40BB4291F8F0
:104A100016C080F804C040F2DD827D1C0424AB4245
:104A200002F807C0047100F2268440F24F3303609D
:104A300001205DE0960C0020980C0020940C0020D2
:104A4000950C0020970C002040F21337BC4200F078
:104A50000882B4F5457F80F01C81002C00F077823D
:104A600040F21237BC4240F05181002A00F03684F7
:104A700004791470012B4FF00B04047140F20A8486
:104A80004FF0030C02274FF0010E02F80E40BB421C
:104A900091F814E080F804E040F2078302246345B3
:104AA00002F807E0047140F2FB8227460CF101088E
:104AB000FDE040F25935AC4200F00B821AD840F2CA
:104AC0005735AC4200F0DA81B4F5567F40F01E81D4
:104AD00001240025002A00F08B8307795755A34253
:104AE0008D7D057100F2BF8340F2593303600120D0
:104AF000BDE8F08140F26D35AC4200F0178240F223
:104B00006E35AC4240F00281002A00F08E840579B7
:104B1000944601248CF80050C24FC34D3F682D7855
:104B200097F801C0AC4540F20A8197F802C03D44B5
:104B3000A34215F80C50057140F24381651C1AB16F
:104B400090F804C002F804C03C780F7DA74200F042
:104B5000D9828F7DA74200F0A8834024AB42047124
:104B600040F219816C1C002A00F0AE82077957557B
:104B7000A3424FF00005057140F21281171901346C
:104B80003D70B0E6B4F5487F00F0758140F2213702
:104B9000BC4240F0BB80002A00F03D8404791546F9
:104BA00001272C700D7AA14C2478AC4280F0EE8065
:104BB00004EB440501F10904DFF868C214F805E0CC
:104BC00080F804E02C44BB42CCF8004040F29082D4
:104BD0007C1C002A00F01B830579D555A3424FF0B9
:104BE0000005057140F26B828E4F3F6804F1010CA5
:104BF000155563457C78047100F251834FF44A7374
:104C00000360012074E740F25235AC4200F07C8131
:104C100040F25535AC4279D1002A00F0048407797E
:104C2000944601252424AB428CF80070047140F2B4
:104C3000668127466C1C5755A3424FF00605057147
:104C400000F2238340F257330360012050E740F223
:104C50002D35AC4200F0858140F22E35AC4255D165
:104C6000002A00F0D583174604793C70012572E6CE
:104C700040F24A35AC4200F0D58140F24B35AC42AF
:104C800044D1002A00F09983047901274FF0000CE9
:104C9000BAE600F0288140F21537BC4236D1002A2E
:104CA00000F0A08307794FF001084FF0000C0224B8
:104CB000434502F80C70047140F2E381274608F185
:104CC000010E0224734502F80870047140F2CF818E
:104CD0000EF1010C02F80E40634591F819E080F8DE
:104CE00004E040F2AD810CF101045EE501240025F1
:104CF000002A3FF403AE07795755FFE5002A00F07C
:104D00005A8307794FF0010E0025A3E500230360C5
:104D10001846EDE60725A34205714DD9671C002A08
:104D200000F0FF8105791555BB424FF0050505716F
:104D300000F2908240F26E3303600120D8E6002337
:104D40001B78FFDE4FF44F7303600120D0E6B4F50B
:104D50004D7F00F0A28040F23535AC42D6D1002A1A
:104D600000F056831446077927700125F3E540F2D9
:104D70007735AC4202D0B4F55F7FC7D1012500245E
:104D8000002A3FF4EAAE07791755E6E6254A0023E4
:104D900013601B78FFDE40F2833303600120A7E637
:104DA0004FF4617303600120A2E605259C42057162
:104DB00080F04B82651C3FE540F26D3303600120BB
:104DC00096E640F272330360012091E6154C2768A5
:104DD000002A00F0EE8205794FF0010C002407E76D
:104DE000002A00F027830779944601252424AB424A
:104DF0008CF80070047140F2048127466C1CA3E417
:104E0000002A00F0D48207794FF0010E4FF000081D
:104E100057E7002A00F0E882057901274FF0000CDF
:104E20002BE500BF980C0020970C0020950C00206B
:104E300001240025002A00F0838207795755A342F8
:104E40004FF00207077140F2DD81651C1755AB4238
:104E50004C7E047100F26F8240F22E330360012019
:104E600046E6002A00F0B18204794FF0020C0127D7
:104E70004FF0000E09E601270024B0E4002A00F0FC
:104E8000D7820779944601258CF800700F7D077151
:104E9000AB4240F2A4806C1C20E6002A00F0938212
:104EA00090F804C0012500240027AB4202F804C09A
:104EB000077100F2538240F235330360012017E698
:104EC000002A00F08B8205794FF0010C4FF0000EA4
:104ED000C9E4002A00F0A5820579174601243D7037
:104EE000C74D2D6848E5002A00F0698290F804E07B
:104EF0004FF0010C0027D1E50124002533E640F2F4
:104F0000563303600120F3E501240025002A00F058
:104F1000578107795755A3424FF00505057100F2F7
:104F2000AF8140F2553303600120E1E50127002401
:104F3000F5E640F2993303600120D9E5002A00F03C
:104F4000558204794FF0010C4FF0000EC2E60824A0
:104F50000471002B7FF489AD40F21233036001200D
:104F6000C6E5002A00F038820779012500246DE7A4
:104F7000002A00F061820779944601250224AB42A1
:104F80008CF80070047141D927466C1CC2E70124DB
:104F90000025002A00F0F081077957554FF0000CEA
:104FA0009C4280F804C080F04181651C7CE70124AC
:104FB00000270EE6002A40F0E981012401E40124E3
:104FC0000025CEE4002A00F0058205794FF0010C9F
:104FD00000275CE44FF453730360012088E54FF42D
:104FE00056730360012083E5002A00F0018290F8E7
:104FF00004C00125002711E5814C01252768002404
:105000009DE54FF454730360012071E540F2523383
:10501000036001206CE501240025002A00F0DC80FB
:10502000077908E6002A00F0CC8105794FF0010CE1
:105030004FF0000EDFE440F219330360012057E522
:105040004FF446730360012052E5002A00F0D2813C
:1050500004794FF0010E0027C5E440F24A330360A3
:10506000012045E540F24B330360012040E540F26A
:105070001733036001203BE540F249330360012010
:1050800036E540F216330360012031E54FF45273E8
:10509000036001202CE540F245330360012027E541
:1050A00040F215330360012022E54FF4457303609D
:1050B00001201DE54FF451730360012018E540F213
:1050C00027330360012013E5A34202717FF668AE27
:1050D000013408E40D6AA3422D78057140F2438142
:1050E0002546013404E640F2433303600120FFE427
:1050F00040F2263303600120FAE440F242330360B9
:105100000120F5E40324AB42047140F244812C46B3
:10511000013535E60224AB42047140F242816C1C39
:1051200088E60524BB4204717FF604AE7C1CF3E4E0
:1051300024249D420471E0D26C1C0025A342057119
:10514000D1D901341025A3420571B3D90134012509
:10515000A34205719FD92C440525A342057195D919
:1051600001342425A342057186D901340125A342C7
:1051700005717FF672AF2C440325A34205717FF6BB
:1051800071AF01348D7D0571A3427FF623AF0134E9
:105190000425A34205717FF648AC651C24279D4277
:1051A0000771BFF42EAF023402259C420571BFF493
:1051B000D2AA651C02279D420771BFF427AF3C4469
:1051C0000525A34205717FF6ACAE651C24279D42E0
:1051D0000771BFF494AE02340625A34205717FF631
:1051E00031AD0D7D0571651C9D42BFF4F8AE0234F2
:1051F0008D7D0571A3427FF677AC013470E600BF68
:10520000980C002040F22D330360012070E4A3428B
:1052100002717FF654AF894D2F6801347D78057196
:10522000A3427FF6EBAC651CFFF78CBB4FF44D73CC
:10523000036001205CE40025A34205713FF650AFF6
:1052400040F28E330360012052E440F241330360A8
:1052500001204DE402EB070C7C1C5BE44FF4487327
:105260000360012044E41719013438E62F4602EBAD
:10527000040C651C82E602EB050C27460135B5E5FA
:105280002F4602EB040C651CCCE42F4602EB040C09
:10529000651CF9E540F213330360012028E402EBBA
:1052A0000C0E0CF10105FFF74BBB0224AB4204715D
:1052B0003FF62DAF4FF45F730360012018E4042420
:1052C000BB4204717FF696AA01370D7A6BE40A247B
:1052D000AB42047140F290806C1C5AE60B24012B07
:1052E0000471D7D90324022791F814C080F804C0B0
:1052F000BB427FF6DAAE0227A34207717FF6D0AE3B
:1053000001340227A34207717FF6BBAE01340227A6
:10531000A34207717FF6ABAE01344F7E0771A34203
:105320007FF68EAE01340027A34207717FF683AE6D
:105330000134FFF746BA571901353C70FFF70BBB34
:105340000225A34205717FF65DAF01344D7E0571E4
:10535000A3427FF681AD651CFFF7FDBA54190135F4
:105360002770FFF7F8BA40F2893303600120FFF796
:10537000BFBBD519013714E49C420271BFF456AF8C
:1053800001340025A3420571E5D894E507799446D8
:105390000124FFF714BA40F2773303600120FFF7CE
:1053A000A7BB4FF44B7303600120FFF7A1BB01249F
:1053B000ADE7012432E70124BFE60124E2E601243F
:1053C00099E70124D8E60124DBE7022401278BE7D3
:1053D0000124C6E60124BFE60124B7E70124B1E6B3
:1053E0000124A0E701248CE70124B0E6012494E71E
:1053F0000124CDE60124B9E640F2333303600120F5
:10540000FFF776BB174605793D700124FFF76BBAAD
:105410000125FFF7A0BA0127FFF7C5BB0125FFF75C
:1054200091BA01245CE51446CFE60124FFF774BB72
:105430000024D6E60024B0E61446BAE6980C002014
:105440004360CA699A4205D201F128020260002035
:105450008B6770478A6910B40260C8698C690A6FEB
:10546000C01A1C441A44C86100308C6118BF012066
:105470000A675DF8044B704780B90B681A7B202AD5
:105480000AD110B50722044603F10E0103F11800FA
:105490000AF092F9204610BD06207047032070479D
:1054A0002DE9F0430B7889B00D4606460E2B1ED829
:1054B000DFE803F0180818181D39221D1D081D18F3
:1054C0001818180003680024C3E91E44C3E92044E7
:1054D00003F134025A671C845C62DC62204609B026
:1054E000BDE8F0830024204609B0BDE8F08306241F
:1054F000204609B0BDE8F083037A8978002B38D0C4
:10550000827A0930002A36D0F27A825C8A42E9D067
:105510000A06EC7800F1BB80012CE3D040D3032CC9
:10552000E0D00324DAE74B78D9094FEA531224D1AB
:10553000012ADCD1AB780768202B63D0222BD6D18F
:10554000B5F80740002CD2D1B5F8033097F82020E9
:105550003B8402F0010203F001039A42C2D0C26907
:10556000002B00F0FB80002ABCD002219047B5E759
:1055700000235B78FFDE1378FFDE12F0030264D0B5
:10558000012AB4D1AB78212BB1D1B5F80720072A75
:10559000ADD10168681C183100F0BCFA04469DE7E3
:1055A0003568012B05F10C00E2D9727B012A06F166
:1055B0000C0372D98949B27BCDE905101344AA6A5C
:1055C00093F80190002A73D1E96FEB6AAA67C5E9E5
:1055D0001F21002B00F0BF8005F12C0393E803008E
:1055E00005F1240383E803004846EA6205A9FEF7B3
:1055F0007BFF0446F369002B3FF470AF3046002177
:1056000098476BE7B5F80720072A7FF470AF3B7324
:10561000B5F807300024DBB27B7320460E37CDE9A6
:105620000573079400F000FE204605A9FEF748FF29
:10563000044630B96A4B049603A9039300F07CFD3D
:105640000446002000F0F8FD48E703F01F03012B9B
:105650007FF44DAFAC78062C7FF449AF05A80392D8
:1056600000F07EFD0DF10C0C0746EA782979CDF8A3
:1056700000C030463B46FEF787F805283FF42EAFC2
:105680003946681C039A00F045FA044626E73CB107
:10569000032C0CBF0024032420E700231B78FFDE2B
:1056A000F369002B3FF41EAF30460121984715E700
:1056B000D5F88440686A05F1340CA24228BF22461E
:1056C0006146904667460AF077F8EA6FE96AA4EB0C
:1056D000080307EB080C42440020C5E91DC3C5E9D7
:1056E0001F02002961D005F12C0797E8030005F19E
:1056F00024044FF0000884E80300C5F82C80002B38
:1057000055D0AA6A93420ED25AE097E8030084E883
:105710000300AB6FC5F82C80002B48D0AA6AD5F8DF
:1057200074C09A424CD86146686A0AF045F8D5E9D7
:105730001D32A96AC5F880100B44521AC5E91D3202
:10574000F36913B1002130469847EB6A002BDCD196
:105750006B6200244EE700246C624BE70AB1032120
:105760009047337A012B7FF603AF737B06F10C046D
:10577000002B93D0B37BE05C08F030FE337A012B32
:105780007FF6F6AE737B012B87D9B37B1C44607820
:1057900008F024FE002407F134037C62FC62C7E9B0
:1057A0001E44C7E920447B6798E60023D0E76B6A74
:1057B000002BCED0484605A9FEF796FE044619E711
:1057C0001A466146686A09F0F7FFD5E90932A96F00
:1057D000E967521A0B44C5E90932E9E74154000070
:1057E0007954000003681B8CDB071CD5037A012B5E
:1057F00016D910B5437B84B000F10C040BB91B78AB
:10580000FFDE0B46817B605C91060CBF0124002407
:1058100001A9CDE901320394FEF752FE04B010BD98
:1058200000235B78FFDE0820704700BF0368D3F8D1
:10583000800070470368986F704700BF70B50468B8
:10584000258CEB0782B027D5656A16462DB1E26A32
:10585000002A36D0112002B070BDA36F93421ED231
:10586000C4E90912027A012A29D9467B012E00F1E6
:105870000C0222D9807B1D4E0096024404F10C00DC
:105880005678019013BB30466946FEF72DFE00287E
:1058900008BF922002B070BD082002B070BD08465B
:1058A000616F09F089FFD4E91D32921B3344C4F8BB
:1058B00080602846C4E91D32CDE72B78FFDE6B7887
:1058C000FFDE9220C4E90B1602B070BD1A460846EE
:1058D000616F09F071FFD4E90932A16FE167521AD3
:1058E0000B44A567C4E90932CDE700BF415400006D
:1058F000F0B505460E4685B0002017462C6800F02E
:1059000093FC731E3F2B4ED8DFE803F020204D2080
:105910004D4D4D204D4D4D4D4D4D4D204D4D4D4D11
:105920004D4D4D4D4D4D4D4D4D4D4D204D4D4D4DD4
:105930004D4D4D4D4D4D4D4D4D4D4D4D4D4D4D4D97
:105940004D4D4D4D4D4D4D4D4D4D4D20B6B2618C93
:105950001FBB21EA060620220223A1200021668423
:10596000E682A073E2732161A3822A7A2B68C2B116
:10597000AA7A05F1090092B1EA7A03910E3301A9DE
:10598000805C0A22CDE90132FEF79AFD0446002030
:1059900000F052FC204605B0F0BD0E43DBE7137863
:1059A000FFDE5378FFDE002000F046FC0624204690
:1059B00005B0F0BD002070472DE9F04F4B6885B071
:1059C000002B75D00D461446CDE9000208F07AF997
:1059D000EE68A64228BF26468246002E00F081804F
:1059E0004FF000094A46CB464FF0010814E00AEB9D
:1059F0000200224609F0E0FED5E902321B1B141B0F
:105A0000C5F804B0C5E902342BB3002C08BF4FF031
:105A100000083A46002E38D0D5E90113B3421C469F
:105A200028BF3446361BA7180029E0D193B1284679
:105A3000524450F8101B4B68D3F804902346C847D3
:105A4000D5E902321B1B141BC5E902342BB34FF0FE
:105A50000109DAE7EC68B9F1000F1ED134B3296807
:105A6000002935D0CDF808B003E0AB6829680133D0
:105A7000AB604B6800225C6802A80123A0470028A5
:105A8000F3D128613A46002EC6D1009BC3F800A08E
:105A90005F60404605B0BDE8F08F2B681B68196851
:105AA00029608CB9A0464FF00109B2E7C846B0E7BB
:105AB0000B681B681B68002B84D18B68002B81D17D
:105AC000C0E900339846E4E74FF001090029C9D145
:105AD0006960002FD9D0019BBB4288BF4FF00008FE
:105AE000D3E737464FF00108CFE700BF08B50020E5
:105AF000FEF778FC8020BDE80840FEF773BC00BFCD
:105B000008B50020FEF77EFC8020BDE80840FEF7C7
:105B100079BC00BF70B5C38893421D4628BF1546A7
:105B2000934284B00E461DD8002200200392CDE996
:105B3000016500F079FB01A98020FEF7C1FC044655
:105B400028B1002000F078FB204604B070BD08F0BA
:105B5000B9F9802812D0002000F06EFB10242046F6
:105B600004B070BD8020144607F0ACFFB4FBF0F326
:105B700003FB1042B2FA82F25209D6E7054A064BFD
:105B800092E8030083E80300002000F055FB204664
:105B900004B070BDFC180100C80C00202DE9F04FC6
:105BA0000B78062B87B07BD010D90D2B69D02AD863
:105BB0000B2B06D00C2B2FD1B34A1378002B40F0BF
:105BC000A0800024204607B0BDE8F08F022BF8D05B
:105BD00045D9032B25D0052B1ED10DF10D008DF8D5
:105BE0000C3008F00DF99DF80D20A84D002102F0B1
:105BF0001F032960032B00F23D81DFE813F014013D
:105C0000E300B600AF000E2B19D0852B04D19E4BBC
:105C10001A78032A00F030810624204607B0BDE838
:105C2000F08F9B4800F048FE0028CAD0994B012213
:105C30001A60BFF36F8FBFF34F8F0024C2E7924B00
:105C40001A78012ABDD0944994480A78012422F098
:105C500002021C700A700024FDF70AFFB2E7012B54
:105C6000DAD1894B1A78032AD6D08B498B480A7827
:105C7000032422F002021C700A700624FDF7F8FECD
:105C8000A0E74FF08042804BD2F838141A78C90749
:105C900033D5022A95D0804980480A780224D6E775
:105CA000C87803280D4600F0EC80784E3368002B4E
:105CB00000F00B8100223260716898470446C8B931
:105CC0003368002B00F0EE80AB78002B7FF479AFC7
:105CD00008F0BCF876E76C4C2378043B012B00F20B
:105CE000F6809DF80F30002B00F06A81012B00F048
:105CF0007881072408F0DCF864E7012A3FF461AFFB
:105D0000A1E7654C65482178002321F0020121704C
:105D100013701C46FDF7ACFE54E7062900F01E8107
:105D2000082900F00A81C9B95D4C0222204609F019
:105D300067FD594A23781278960743F0010148BF5E
:105D400043F0030321700DF10D0048BF23700222C0
:105D50005349FFF7DFFE0446062C03D103A8FEF7E4
:105D600099FB0446002C7CD0C4E79DF81100040781
:105D700007D003A9FEF778FB06280446F2D19DF868
:105D80000D2012F0600F75D19DF80E303E4A9DF83F
:105D900011401278012B00F09C80C0F0AD80032BE5
:105DA00068D104F00F03072B64D8BDF80F10002949
:105DB00060D1052A02D0002B40F08980204607F0F0
:105DC00085FF4EE001A99DF81100FEF723FB064672
:105DD000002872D003AA9DF80410FEF741FB0628A4
:105DE0000446BFD19DF80D3013F0600F82D1264AD2
:105DF0009DF8041012789DF80EC0DF0940F0C380B2
:105E0000BCF10B0F7FF476AF052A60D1BDF80F30DF
:105E1000FF2B3FF66EAF30469DF80F20FEF778FB64
:105E20000446F4B166E7C2F34114002C96D1D209BE
:105E30009DF80E107FF471AF03296FD009293FF44C
:105E40004AAF01298AD1BDF80F30012B86D1FEF768
:105E5000C1FA002800F0B2800F4A137823F0020341
:105E600013702B682BB308F02DF8044600287FF43C
:105E7000A8AE2DE706243DE7074908480A78042420
:105E8000F7E61C469EE600BFA80C0020C80C0020C8
:105E9000D00C00205C700240C40C0020C41801002B
:105EA000D40C0020994B1B68082B08D007F0F6FF94
:105EB00088E607F0F3FF002484E610241AE7944BE9
:105EC0001B68002B3FF47DAEF0E70E2412E7082498
:105ED00010E704F00F03072BCCD8BDF80F100029F2
:105EE000C8D1052A01D0002BF1D1204607F078FF58
:105EF000204607F0F7FEB4E7052A01D02007E6D1D7
:105F0000204607F04BFF8349022208800DF10D0067
:105F1000FFF700FE0446002CA3D0EBE6BDF80F30DF
:105F2000012B7FF41BAFFEF755FA002846D07A4AC2
:105F3000137843F00203137093E778490978052931
:105F400039D004297FF40AAF724A14700DF10D00A4
:105F500001227049FFF7DEFD0446FDE69DF81020A2
:105F6000022A60D0032A48D0012A7FF4F7AEBDF898
:105F70001330002B9DD00DF10D0012226849FFF760
:105F8000C9FD0446E8E6BCF1000F72D0BCF10A0F6F
:105F90007FF4B0AE052A9AD13046FEF7F9FA5D4992
:105FA0003A4608700DF10D00FFF7B4FD0446002CD1
:105FB0003FF457AF9EE6574B1A70C7E70F2499E698
:105FC000FEF752FB2378042B3FF44BAF524A55485F
:105FD0001378042123F0020313702170FDF748FDAC
:105FE0003FE7FEF7DBFA2378052B3FF43AAF0523B2
:105FF0004C482370FDF73CFD33E7BDF81330002B10
:106000003FF457AFBDF811109DF80F0000F0D8F81D
:10601000014600283FF4A2AE0DF10D000A78FFF70B
:1060200079FD044698E6BDF81320002A3FF441AFFD
:10603000092A28BF09229046FEF7E6F9A34606463C
:106040004FF0090A36B3CDF804B0002700E001375D
:1060500072680123D2F804903146002201A8C84793
:106060000028F4D1337A326823441668BA44DCB28B
:10607000E8E7052A7FF42BAF264B0DF10D001946FA
:106080000222A3F800C0FFF745FD0446002C3FF4B0
:10609000E8AE2FE61F4E24493046424609F08CFBFD
:1060A0003471A6F802A0FEF795F918B1F37943F020
:1060B0002003F371FEF7A8F91C4BBDF813201860FC
:1060C0000020C3E90168DA6000F0AEF818498020CA
:1060D000FEF70AFA044630B1002000F0ADF8062CB5
:1060E0007FF408AE3AE607F0EDFE802804D02046A3
:1060F00000F0A2F81024FDE50E4B93E8030085E8BC
:106100000300204600F098F8ABE600BF3001001015
:1061100034010010D40C0020C40C0020A80C002076
:10612000E8180100C4180100C8180100AC0C0020D8
:1061300014190100FC18010038B505460C4607F09B
:10614000C1FEA84207D194E80300044A82E8030094
:106150000023184638BD1023184638BDC80C00204F
:1061600008B1402303600148704700BFD40C0020F1
:1061700070B54FF0805286B0D2F8A830D2F8A42083
:1061800000926FEA83436FEA93439BB202A80A4AE4
:106190000A4E0D2109F09CFC02AD002404E015F824
:1061A000013B06F8013B013402A809F023FD8442BB
:1061B000F5D306B070BD00BF1C19010040140020CB
:1061C00068B1052823D8154B185CF8B1144B10B5ED
:1061D00053F82040ECB123781BB9A01C10BD114826
:1061E00070470020FFF7BCFF2278A2B100230133E3
:1061F000DBB220F8132014F8012F002AF7D1013365
:106200005B00DBB243F44073038010BD7047002095
:106210007047204610BD40F20233F5E794190100A3
:106220007C1901002A19010072B6024A1368013371
:1062300013607047140D0020034A1368013B13607C
:1062400003B962B6704700BF140D002070B52B4B28
:1062500044792B4E03EBC40546F824202D792DB14B
:10626000284B5B88012B29D8082070BD02680C8858
:10627000C2F8084590F904208978002A2ADB02F147
:10628000604202F561424901C9B282F8001390F9F7
:1062900004201D4E1B4D02F01F010124520904FA77
:1062A00001F146F822104279698843F8320003EB85
:1062B000C20302291C7115D8002070BD134B14486D
:1062C0001449C01AC008000440F00200FBF752FE57
:1062D000082070BD104C02F00F0249011444C9B2ED
:1062E0002176D4E7094B0A480C49C01AC0080004BB
:1062F00040F00300FBF73EFE002070BD180D0020AB
:10630000200D00205403002000E100E0D42E010005
:10631000142F0100A8190100FCEC00E0CC190100C9
:10632000036801221A607047036801225A607047AF
:10633000F0B404684FF480358D40C4F80853066803
:106340008C00C6F8485304F5A0740668A4B2002770
:10635000375182B036590468019601F5A87122F0D0
:106360007F42019E44F821200268C2F8445313B1D1
:106370000368C3F8045302B0F0BC70472DE9F0473E
:1063800088464FF48037016807FA08F7C1F8487368
:106390000168C1F80873064600684FEA88040119CD
:1063A000D0F80455D1F84005C1F8405504F5A07463
:1063B000A4B231684FF0000941F8049082B0401B4C
:1063C0000959009120F07F4001289A4622F07F452C
:1063D000009B0BD1264B4FF4806043F0010398479C
:1063E000336843F804901B590193019B3368D3F839
:1063F0000445C3F844732B1B23F07F43012B08F59E
:10640000A87817D130681A4B013540F8285043F06E
:1064100001034FF4806098473268D2F804359C42FB
:1064200022D1C2F8447333680020C3F8047302B069
:10643000BDE8F087336843F828503268D2F8041575
:106440006B1ACAF1FF1A013B0AF57F4A23F07F431A
:106450009A4509D3002BE4D1013542F8285032681F
:10646000D2F804359942DCD00D2002B0BDE8F087A7
:10647000A019010002680223C2F8443311B1026876
:10648000C2F80433704700BF0368D3F8040150B169
:10649000002282B0C3F80421D3F804310193019B98
:1064A000012002B0704770474FF48033026803FA4E
:1064B00001F1C2F848130368C3F80813704700BF1E
:1064C000890001F5A07189B20368585840B10022D3
:1064D0005A5082B05B580193019B012002B0704773
:1064E000704700BF0368D3F80405704790F9043083
:1064F00005485A09403203F01F03012101FA03F352
:1065000040F82230704700BF00E100E0024A034B30
:1065100010681B68184700BF180D0020200D0020D0
:106520001EF0040F1CBFEFF309800AE0EFF30880B0
:106530000549064A884201D8904202D88D464FF05C
:106540000000034B184700000000042000E0032077
:1065500079650000BFF34F8F0549064BCA6802F406
:10656000E0621343CB60BFF34F8F00BFFDE700BF76
:1065700000ED00E00400FA052DE9F04F83B08146FC
:10658000FCF742F9FCF7BEF80028FBD1444F454B1D
:10659000454CDFF83481A56AB8F80220FF1AFF08DD
:1065A0003F0447F00107B9F1000F70D0002A41D134
:1065B0003D4BDB6ADFF814B1DFF814A1002401269B
:1065C00002E001341A2C12D006FA04F32B42F8D060
:1065D0005BF82420002AF4D0B8F80230002BF0D069
:1065E000514638460134FBF787FE1A2CECD12A06B7
:1065F0000ED5B8F802302BB94846FFF7ABFF03B011
:10660000BDE8F08F284B29495A6B3846FBF774FEDA
:106610002B04F1D5B8F80230002BEDD0224B2449E1
:106620009A6B3846FBF768FE4846FFF793FF03B0C6
:10663000BDE8F08FD9F818201E493846FBF75CFEFC
:10664000B8F8023053B3D9E90210D9E90023CDE9F3
:10665000001019493846FBF7C5FFB8F80230002B87
:10666000A6D0D9F81C10D9E9042338460091134963
:10667000FBF736FF0C4BDB6A99079BD5B8F8023065
:10668000002B97D00E493846FBF774FC92E7002A9E
:106690008ED00C493846FBF76DFCEBE7E36A89E7DF
:1066A0008C2F0100D42E010000ED00E0DC1A010067
:1066B000FC1A0100E0190100F8190100301A01006C
:1066C0008C1A0100581A010090030020181B0100C9
:1066D000D01A010099B110B4B2FBF3F403FB1424F7
:1066E000A4B244B9C0E9001484608281C381204609
:1066F0005DF8044B704709205DF8044B70470E208D
:10670000704700BF30B482B050E8013F9DB2C489E9
:1067100025448489A54228BF2D1B0489A54202BFB8
:10672000BFF32F8F002207E0C5EA030540E80154BC
:10673000002CE9D14FF001028DF803200193019B59
:106740009DF803200B602AB10B880068184402B042
:1067500030BC704702F0FF031846F8E70A884B8800
:106760009A4201D00020704750E8012FC2EA02424D
:1067700040E80123002BF7D10120704730B482B0EC
:1067800050E8023F1FFAA3F5C488A54202BFBFF339
:106790002F8F00220DE0C48925448489A54228BF9B
:1067A0002D1BC3EA054540E80254002CE8D14FF008
:1067B00001028DF803200193019B9DF803200B60DB
:1067C0002AB14B880068184402B030BC704702F010
:1067D000FF031846F8E700BF0A884B889A4201D0A9
:1067E0000020704750E8022FC2EA224240E802230C
:1067F000002BF7D10120704750E8002F0B4640E8EE
:10680000003C9CF0000FF7D11046704750E8003F65
:1068100043EA010240E8002C9CF0000FF6D110463C
:10682000704700BF50E8003F03EA010240E8002C37
:106830009CF0000FF6D11046704700BF50E8003FB3
:1068400003EB010240E8002C9CF0000FF6D110464B
:10685000704700BF50E8003FA3EB010240E8002C66
:106860009CF0000FF6D11046704700BF50E8003F83
:106870008B422CBF5A1A1A4640E8002C9CF0000F9D
:10688000F4D11046704700BF012350E800CF4CEA16
:10689000030240E8002191F0000FF6D160467047F6
:1068A000012350E8002F42EA030C40E800C191F0B8
:1068B000000FF6D160467047002350E800CF0CEA85
:1068C000030240E8002191F0000FF6D160467047C6
:1068D000002350E8002F02EA030C40E800C191F0C9
:1068E000000FF6D1604670472DE9F0438368D3F876
:1068F0004861C6F340068BB0002E47D101293ED82F
:10690000264C274D274B2D1BAD08A3FB0535002D2D
:1069100032D0C5EBC505DFF89490074604EB85053A
:106920004FF064082368A1681A79186863690993AD
:1069300063680692081A02EB8202A1EB030CC0B254
:10694000218B039002EB820200910196920008FBDA
:1069500000F0B2FBFCF2B0FBFCF005920290CDF827
:106960001CC0CDF810C0099B1C344A46082138468B
:1069700001F0EAF9A542D5D10BB0BDE8F0830A4A8F
:1069800002210BB0BDE8F04301F0DEB90022114650
:106990000BB0BDE8F04302F0EFBD00BF28300100AE
:1069A0006030010025499224882001009C200100CC
:1069B000B8B130B4D0E90112521A0468D2B2531EF1
:1069C0002160DBB242B101680A685C1E551C0D6093
:1069D0001370E3B2FF2BF6D103680020187130BCAE
:1069E00070470E20704700BF38B504460020FFF7FF
:1069F0001BFCD4E900311A688A4215D9511E19606E
:106A00002168A3680868258B12F8012CE4681B1A1A
:106A10000879DBB2984205FB024400D20B710020DA
:106A2000FFF70AFC204638BD0024F8E738B50546D4
:106A300000200C46FFF7F8FB2A681368591C116008
:106A4000E9682A8B641AB4FBF2F41C700020BDE8DC
:106A50003840FFF7F1BB00BF30B18A68B2F8483167
:106A600043F02003A2F84831704700BF10B54368D7
:106A70009C686068036801219B689847A36810B10F
:106A800004221A7010BD03221A7010BD0968006834
:106A900009F09EB82DE9F041054680684B4F82B061
:106AA000002680223146A0308DF8036008F0A8FE51
:106AB0002869474903F064F8286903F055F847F05E
:106AC00001074FF47A786868036801221C690DF1A8
:106AD000030101ABA047019B4FF6C01063B9B84753
