:10100000E8330020FD450000196801002D4600006E
:101010002D4600002D4600002D4600000000000077
:101020000000000000000000000000000D4400006F
:101030002D46000000000000C54300005964010077
:10104000BD4500001D100100BD450000BD4500006C
:10105000BD450000BD450000BD450000BD45000088
:10106000BD450000BD450000BD450000BD45000078
:10107000BD450000BD450000BD450000BD45000068
:10108000BD450000BD450000BD450000BD45000058
:10109000BD450000BD450000BD450000BD45000048
:1010A000BD450000BD450000BD450000BD45000038
:1010B000BD450000BD450000BD450000BD45000028
:1010C000BD450000BD450000BD450000BD45000018
:1010D000BD450000BD450000BD450000BD45000008
:1010E000BD450000BD450000BD450000BD450000F8
:1010F000BD450000BD450000BD450000BD450000E8
:1011000053B94AB9002908BF00281CBF4FF0FF316E
:101110004FF0FF3000F074B9ADF1080C6DE904CE6A
:1011200000F006F8DDF804E0DDE9022304B07047C2
:101130002DE9F047089E04468846002B40F0858044
:101140008A42154648D9B2FA82F24AB1C2F1200762
:1011500001FA02F320FA07F7954047EA03089440A2
:101160004FEA154E230CB8FBFEF71FFA85FC0EFB69
:10117000178843EA084307FB0CF1994209D9EB1899
:1011800007F1FF3080F0E380994240F2E080023FB7
:101190002B445B1AA4B2B3FBFEF00EFB103344EAFF
:1011A000034400FB0CFCA44509D92C1900F1FF33C2
:1011B00080F0CB80A44540F2C88002382C4440EA3D
:1011C0000740A4EB0C0400271EB1D4400023C6E95D
:1011D00000433946BDE8F087002A53D0B2FA82F2C4
:1011E000002A40F0B680491B4FEA154E1FFA85F8D9
:1011F0000127B1FBFEFC230C0EFB1C1143EA01434B
:1012000008FB0CF1994207D9EB180CF1FF3002D220
:10121000994200F2EC808446591AA3B2B1FBFEF069
:101220000EFB101443EA044408FB00F8A04507D95C
:101230002C1900F1FF3302D2A04500F2DC801846E1
:10124000A4EB080440EA0C40BEE78B4208D9002E0C
:1012500078D00027C6E9000138463946BDE8F08756
:10126000B3FA83F77FB98B4202D3824200F2BD808A
:10127000841A61EB030301209846002EA9D0C6E929
:101280000048A6E7FFDEC7F12005BB4022FA05FCB7
:101290004CEA030C01FA07F420FA05F821FA05F3E9
:1012A0004FEA1C4E48EA0404B3FBFEF9210C0EFB86
:1012B00019331FFA8CF841EA034309FB08FA9A45EF
:1012C00002FA07F200FA07F10BD91CEB030309F14C
:1012D000FF3080F088809A4540F28580A9F10209AC
:1012E0006344A3EB0A03A4B2B3FBFEF00EFB10337E
:1012F00044EA034400FB08F8A04508D91CEB0404A9
:1013000000F1FF336BD2A04569D90238644440EA4A
:101310000940A4EB0804A0FB02894C45C6464B4695
:1013200054D351D0002E69D0B1EB0E0264EB03040C
:1013300004FA05F522FA07F3FC401D43C6E9005400
:10134000002746E73746304643E7184637E7074663
:101350001FE7C2F1200320FA03F7954001FA02F0DB
:1013600021FA03F34FEA154E3843010CB3FBFEF7A5
:101370001FFA85F80EFB173341EA034107FB08F318
:101380008B4204FA02F407D9691807F1FF3C28D20E
:101390008B4226D9023F2944CB1A81B2B3FBFEF01F
:1013A0000EFB103341EA034100FB08F38B4207D9DF
:1013B000691800F1FF3C10D28B420ED90238294443
:1013C000C91A40EA074714E74145ABD2B8EB020E11
:1013D00069EB0C0201381346A4E76046F0E71846B3
:1013E00095E76746D8E781467BE7384645E7ACF1A5
:1013F000020C2B4410E702382C4421E73746E8E67C
:10140000704700BF000000002DE9F04FAA4C8FB0DC
:1014100094F8CC60022306F001060C93002800F03B
:10142000E980BEBB94F87C8094F8290094F82C20C5
:1014300027272D2307FB084800F0030017FB02377E
:10144000FF2384F82A300FF03FF894F8DA00810780
:1014500008F17D0804EB070921D4E05D3146C0F3B3
:10146000801008F07BFB06220146054609F10200C8
:1014700015F081FA0622294608F1020015F07BFAE0
:10148000E35D5A0622D413F00E0F2BD1636A002BB2
:1014900000F022810C2630460FB0BDE8F08FC0F37B
:1014A0008000324604F1DB010FF0EAF9FF2884F8EE
:1014B0002A0040F0E18149467F480FF01FF841467D
:1014C0007D480FF01BF8E35D5A06DCD5062109F1D3
:1014D000020006F0EBFF002800F01D82E35D13F030
:1014E0000E0FD3D094F828300121C3F342030DA886
:1014F0008DF8343007F058F9002870D0E15D99F884
:10150000013098F8015001F00F01022900F1FF327B
:1015100011D0012900F00982ED008035002940F04A
:10152000FC811033DB0003F54D71294403F59A70FB
:1015300000FB021008E01033DB0000FB03F303F5AF
:10154000AA73642000FB023094F820C05B4AE46177
:10155000002565F3000C3123A0FB0201236084F811
:1015600020C053A3D3E90023C4E90555C4E90155BC
:10157000FFF7C6FDB4F8D890E06008F0E9FA8046BD
:10158000B9F1000F07D1E55D05F00F05A5F10105E3
:10159000B5FA85F56D0994F82800E76865F3000051
:1015A00010F0010584F8280000F06A81444D454B95
:1015B000059300200DF1300903210694049701974B
:1015C000CDE90759CDE9020000904346022208F018
:1015D00007FA49460AF0BEFD002800F08881636AD8
:1015E000002B3FF457AF0BF06FF90C2630460FB0CD
:1015F000BDE8F08F0D93002E3FF44CAF20460AF06B
:10160000B7FD84420CD040F2EA432F4A2F493048BC
:1016100014F067FB404080F311884FF0030002DFB5
:1016200094F82830D8070DAD0ED503210095244B32
:101630000122002008F044FA29460AF08BFD002818
:1016400040F0A88102230D93032100951C4B022238
:10165000002008F035FA29460AF07CFD002840F009
:101660007D811C480AF0C0FD002840F063811248CB
:101670000AF08AFD84420CD040F20C53124A1349FE
:10168000134814F02EFB404080F311884FF0030004
:1016900002DF636A0BB10BF017F994F8CC30002627
:1016A0006FF30003304684F8CC300FB0BDE8F08F04
:1016B0008D49FD1A07000000A415002000CA9A3BBE
:1016C00049C1000039C60000C09A01002C9B0100EE
:1016D0008C980100C01500200AF0A6FC8246002864
:1016E00000F03A810AF0ACFC8346002800F04D81FE
:1016F0000BF0E4FE0546002800F044814FF6FF732E
:10170000806FAB8505F11C030B93002800F020814E
:1017100005F16C0205F1680106F0D4FEB5F864200D
:10172000A34995F83DE095F8DC0095F840C0C5F870
:1017300030A10A4042F4887295F8261142F0010265
:101740000EF03F0E6EF07F0E20F0030021F003013B
:10175000A5F86420002262F3000C4FF01B1385F8FB
:101760003DE085F8DC0085F826119248924985F81D
:101770003F204FF0060E6A866A63C5E913226A6548
:10178000A5F8C820A5F8CC20A5F8E82085F8EA201F
:10179000C5F80021A5F80421A5F81821C5F82021D5
:1017A000A5F8242185F82F21AA67EB6585F840C0AC
:1017B0002866A5F8C4E0C5F81C11A5F87C2095F8AA
:1017C00076E195F89EC195F87E0095F85611A5F83A
:1017D000542162F3041E62F3C30C21F0070120F0D0
:1017E0001F00A5F87421A5F89C21A5F8A82185F86B
:1017F00076E185F89EC185F8561185F87E000CF0DB
:10180000ABF9A5F8D6000CF0ADF9D5F8AC116B4BDF
:10181000A5F8D8000B40C5F8AC310CF0A9F995F843
:10182000B01160F3020185F8B0110CF0A7F9C4E91A
:1018300034AB0B9B636295F8B01195F82030ED61E5
:10184000002260F3061162F3C30162F30003C5F8DE
:10185000C421C5E96F22C5E96D22C5E9052285F8D5
:10186000B01185F820300FF01FFF00283FF43AAE8A
:101870000BF02AF803260EE630460EF0C7FE1AE6F5
:101880004F48DFF860C14F4A06941FFA89F9A9FB57
:101890000001912303FB091107F24713CCF8003034
:1018A0000DF13009484B0497CDE9072905934FF610
:1018B000FF773DA3D3E900230295CDF824C0039719
:1018C000FFF71EFC4346CDE90050022228460321C3
:1018D00008F02CF849460AF03DFC00287FF47FAE62
:1018E00094F8CC3043F0010384F8CC30D3E5374989
:1018F00005914AF2D832CDE90759009202250694A3
:10190000CDE90300CDE901004346012203210C95F6
:1019100008F066F8DEE71226BDE506293FF401AEC1
:101920004FF41B714FF4DA7002E64FF47F714FF4FD
:10193000F270FDE540F20953254A2649264814F085
:10194000D0F9404080F311884FF0030002DF8EE6AB
:1019500005F17000A867DBE607269CE51F480AF042
:1019600007FC84423FF496AD40F20353184A1C49E9
:10197000194814F0B6F9404080F311884FF0030085
:1019800002DF87E558460AF061FB50460AF052FB39
:10199000072680E511480AF0EBFB84423FF47AAD5C
:1019A00040F2F443E2E700BF8D49FD1A0700000052
:1019B00080F8FFFF480148017F4901000000FFF661
:1019C000002AE78449C1000039C6000045C800006C
:1019D000C09A0100849A01008C980100A41500208F
:1019E0002C9B0100881600202DE9F04F04464FF68D
:1019F000FF70A38D83428DB00D46164600F08F8098
:101A000094F8E90094F8E820904271D0121A02F09C
:101A10000302022A09D094F82D2194F82C319A421D
:101A20001ED100200DB0BDE8F08F94F89C3194F8E1
:101A30009D11994206D094F89E2102F006010429D6
:101A400000F00B8494F8EA707B1E052B00F2AC8347
:101A5000DFE813F088004303B602AA036D03F40124
:101A60003C4806F0D9FC58B394F82C3184F82D3159
:101A70000379022243F0030342710371C271D4F867
:101A8000B43194F82E2102722BB394F856219107A9
:101A900021D494F8AF21D2071DD4D4F8C0219342A9
:101AA00004BF1A68C4F8C021D4F8B821BAB91A68BA
:101AB000026018600368C4E96E000BB9C4F8C40181
:101AC000B4F8CC000028ACD1B4F8C630012B34D91E
:101AD000A4F8CC30A5E7D4F8B821002A33D0D4F844
:101AE000BC311A6802601860C4F8BC010368E4E7FE
:101AF00094F8563113F001088DD194F8051194F83B
:101B000004718F4200F05E830123821E84F8EA3064
:101B100084F8E92094F89C3194F89D1189E740F20B
:101B200011330D4A0D490E4814F0DBF8404080F3A4
:101B300011884FF0030002DF62E70133A4F8CC30D4
:101B40000DB0BDE8F08F0360C4E96D00C4F8BC01BE
:101B5000B3E700BFF41800204C9C0100149D010065
:101B60008C980100A84F3B68002B00F03085B4F83A
:101B70003680628E94F806319044B04413F003032B
:101B80001FFA88F840F0B884B4F8EC90A8EB090A82
:101B90001FFA8AFA1AF4004F7FF43DAF94F87411DB
:101BA00094F8752194F8040184F805018A4294F8A8
:101BB000E80084F8E90009D094F8762102F00702E1
:101BC000052A04BF84F87511A4F8CC303B689C4208
:101BD00004BF00233B60D4F80071002F00F017858C
:101BE0003868002800F01385B4F80831E28D4168A8
:101BF000C4F800119342B4F80A11B4F80CC100F013
:101C00008A86A28DFA804FF00A0E00227B84B98466
:101C1000A7F826C087F804E087F8202039460AF0A4
:101C20001BFA0AF023FA2368002B09DAD4E901121F
:101C300023F000438A422CBFAD186D182360ED1AC3
:101C4000E38DB4F8087113FB0AF39BB2B3FBF7F111
:101C50001FFA81FB17FB0BF292B2934280F0C5840E
:101C6000D31A6A4840F2E24202FB03F3A3FB0001ED
:101C700063A3D3E90023FFF743FA20F07F40054434
:101C8000638EA9EB08081E4494F93D30D844B04453
:101C900040F2E249002BA4F8328009FB07F7C0F2BA
:101CA000058540F63E135A4A5A495B4814F019F824
:101CB000404080F311884FF0030002DF4FF000082E
:101CC0003E46B4F80C21B4F80A11544B544821860E
:101CD00042F2107C0CFB02723B443844B3FBF7F336
:101CE00001F1060C013AB2FBF7F2B0FBF7F798B23C
:101CF000A4F8C6206045B4F80821A4F8D200A4F8DE
:101D0000CA70E28502DD401A063880B294F80631C6
:101D1000A4F8CE005B0744BF0023A4F8C83002211A
:101D2000012011F04FFC002202218246012006F022
:101D300017FC4FF4E6723B49204606F0A3FB033044
:101D40005FFA80F9384B00944A460121002007F0E1
:101D5000B7FE30F002030CD040F66E132C4A334924
:101D60002D4813F0BEFF404080F311884FF0030070
:101D700002DF264BA6FB0367304621A3D3E90023ED
:101D80003946FFF7BDF92A4AE368049320F07F4BF8
:101D9000ABFB0223072000FB0B33B01A67EB0301F8
:101DA000089406944FF47A7200240023214F224EA7
:101DB000079705960394FFF7A3F92B46CDE901B0E9
:101DC000CDF8008020464A46012107F009FE30F098
:101DD00002030CD040F688130D4A14490E4813F044
:101DE00080FF404080F311884FF0030002DFBAF11A
:101DF000000F40F0A9856FF0470013E6AFF30080B5
:101E00008D49FD1A070000007418002000CA9A3B93
:101E10004C9C0100149901008C9801007FC3C901FA
:101E2000FF596202A816002025D10000B09B0100D6
:101E30008D49FD1ACDD00000C5FF0000E38E628EF3
:101E400094F8EC5013441E44EF07B6B2AB4600F1D1
:101E50001283B4F8EE20B61A37043FF5DCAD94F8DF
:101E6000DC2094F8648094F865A094F8E81084F875
:101E7000E910D60708F007080AF0070AB4F86270FC
:101E800040F16B85D4F81C21100540F16685B4F84B
:101E9000D890B9F5296F28BF4FF42969B9F5A47F07
:101EA0004FF4296338BF4FF4A4790B9315F01C0F3E
:101EB00040F0DB85B4F8606015F0E00F0CD094F8CA
:101EC000652094F85E00690961F3020284F86520D8
:101ED0000B9A0AF099FF074694F8B02194F8641021
:101EE000D4F80051C2F3C00262F3C30184F8641055
:101EF000002D00F011862868002800F00D8694F867
:101F0000641094F865204368C4F80031C1F30201FD
:101F1000C2F302021BF0020F5FFA81FC5FFA82FE3D
:101F200002D1E04500F09787A38DEB804FF00E0CB7
:101F3000002385F8211085F8222085F804C085F853
:101F4000203029460AF088F8D4F80051002D00F01E
:101F5000F5852868002800F0F185B4F86030426803
:101F6000C4F80021B34209D34B4507D8B4F8623016
:101F7000BB4203D30B9A934240F28187A4F860607E
:101F8000A4F8627095F82030A28DEA8043F0030334
:101F9000092285F8212085F82030B4F85E30B4F8A5
:101FA0005C10AB840222152329852A7185F8233021
:101FB0002946EF846E850AF04FF80AF057F82AE5B3
:101FC00094F8EC3013F0030500F0FA8194F93D30F9
:101FD000002BBFF620AD012D7FF41DADCC4806F0DF
:101FE0001BFA054600283FF416ADCA4A037910686B
:101FF0000D226A718268576843F0030304222B7133
:10200000EA7105F108061FB100230C223146B847DA
:102010003146082204F1F60014F0ADFC042205F16B
:10202000100104F19C0014F0A6FCD4F8B431002B8C
:1020300000F0F38594F85621900700F1EE8594F8AE
:10204000AF21D10700F1E985D4F8C021934204BF44
:102050001A68C4F8C021D4F8B821002A01F03481EC
:10206000D4F8BC311A682A601D60C4F8BC512B68D2
:10207000002B01F08F800AF01FF8054600283FF47E
:10208000CAAC95F82030A28DEA8043F00303022603
:102090001721032285F8203085F8211085F82320A8
:1020A00004F2591108222E7105F1240014F063FC8A
:1020B00094F8573185F82C3094F8583185F82D3044
:1020C0002946286809F0C8FF09F0D0FF94F8EC30E1
:1020D00066F3010384F8EC309DE4E38E618E94F89E
:1020E000EC200B441E44D707B6B200F11B81B4F8B4
:1020F000F230F61A35043FF58EAC94F8E83084F8E7
:10210000E93004F13805052204F1ED01284614F008
:1021100032FC2846052106F047FB94F83D300122A9
:1021200060F3050384F83D3084F8C82173E47848EF
:1021300006F072F900283FF46EAC94F8E83084F8A9
:10214000E930012302794371D4F8B43142F003023B
:1021500012210271C171002B00F03C8294F85621CB
:10216000910700F1378294F8AF21D20700F1328253
:10217000D4F8C021934204BF1A68C4F8C021D4F82F
:10218000B821002A01F00D80D4F8BC311A68026031
:102190001860C4F8BC010368002B00F06284B4F836
:1021A000CA30A4F8CC3036E440F297335A4A5B493F
:1021B0005B4813F096FD404080F311884FF0030018
:1021C00002DF28E494F8197194F818C1674567D1C3
:1021D00094F8257194F824C1674500F0B782A7EB05
:1021E0000C07FF077FF517AC94F82631D80740F1AC
:1021F00086869F0740F16B8609F05EFF0146002846
:1022000000F04E8294F8243184F8253190F8203083
:10221000A28DC28043F0030381F820300220062201
:102220000C2381F8212081F82330087194F82701CC
:10223000B4F82821B4F82A31A1F8273081F8240015
:10224000A1F82520086809F007FF09F00FFF94F8AE
:10225000E82094F8E900FFF7D9BBC2F30207F9B20E
:1022600007290ED04FF0010808FA01F010F04E0CCB
:102270007FF4E8AB10F0300F40F00784002900F045
:10228000D58640F63A53244A2449254813F029FDBF
:10229000404080F311884FF0030002DFFFF7D2BB0C
:1022A000A7EB0C07F8077FF5B6AB94F8DC1011F03C
:1022B000010900F07D8309F0FFFE0746002800F0C9
:1022C000EF8194F8183184F8193190F82030A28DFC
:1022D000C28043F0030309220220414687F82030E0
:1022E000387187F8212087F8232007F1240008227D
:1022F00014F06BFBD4F8203187F82430C3F30722A5
:102300001B0C87F8252087F8263039469AE700BF4E
:10231000F4180020781800204C9C0100149901004A
:102320008C980100C44806F077F8054600283FF471
:1023300072AB238E027994F8EC101E44B31DA4F8FE
:10234000F2306FF30001012342F00302082084F809
:10235000EC102A716871EB71052204F1ED01281867
:1023600014F009FBD4F8B431B4F8F220A5F80D202C
:10237000002B00F0B68094F85621910700F1B1804F
:1023800094F8AF21D20700F1AC80D4F8C021934279
:1023900004BF1A68C4F8C021D4F8B821002A00F09C
:1023A0002A87D4F8BC311A682A601D60C4F8BC5171
:1023B0002B68002B7FF42FABC4F8C451FFF72BBB65
:1023C0009D4806F029F8064600283FF424AB94F90E
:1023D0003D30002B00F1040880F2C08394F87E3079
:1023E0001D0700F1D98594F8ED50002D00F03784D9
:1023F000037994F8DC2043F003030371D00740F124
:10240000FD85D4F81C31590740F1F88511220323CA
:102410007572F27133727771D4F8B431002284F896
:10242000ED20002B00F0658494F85621920700F10E
:10243000608494F8AF21D70700F15B84D4F8C02101
:10244000934204BF1A68C4F8C021D4F8B821002A06
:1024500000F04A87D4F8BC311A6832601E60C4F8B4
:10246000BC613368002B00F0F28494F8E83084F803
:10247000E930FFF7D0BA022009F0FEFD80460028BF
:102480003FF4C9AA6C4805F0C7FF054600283FF491
:10249000C2AA94F8EC206FF30002D3B2C3F3820710
:1024A00057EA531784F8EC2040F0F28494F8E820BF
:1024B000A4F8EE70980784F8E92000F12F863B46D7
:1024C000394605226A712F722A796B72D4F8B431B9
:1024D000698142F0030218212A71E971002B7FF40F
:1024E0004AAFD4F8B821002A7FF45BAF2B60C4E96F
:1024F0006D55C4F8BC515CE7012009F0BDFD0646EE
:1025000000283FF488AA4C4805F086FF05460028BD
:102510003FF481AA09F0D0FD94F80611238E3268A9
:10252000D4F8000150606FF30101434484F80611B0
:1025300006332979C4F800619BB20C22A4F8EC3070
:1025400041F003016A71D4F81021D4F8B4013B4E74
:1025500029710021E971A6FB021294F81461B4F804
:1025600008112E72C2F38F22B4F80A61A5F80B107D
:10257000B4F80C11A5F80F10A5F80D60A5F81130EE
:10258000A5F80920002800F0EE8194F8563199074B
:1025900000F1E98194F8AF31DA0700F1E481D4F871
:1025A000C031984204BF0368C4F8C031D4F8B831D0
:1025B000002B00F02F86D4F8BC311A682A601D6009
:1025C000C4F8BC51286800287FF425AAF4E63C60D2
:1025D000FFF7CDBAD4F8B821002A7FF4D5AD036057
:1025E000C4E96D00C4F8BC01D6E507FB113340F225
:1025F000E2429BB2124802FB03F3A3FB00010CA3CF
:10260000D3E90023FEF77CFD2D1AFFF739BB40F616
:10261000C9030C4A0C490D4813F063FB404080F39A
:1026200011884FF0030002DF3868FFF7DDBA00BF02
:102630008D49FD1A07000000F41800205917B7D182
:1026400000CA9A3B4C9C0100309D01008C9801000F
:1026500094F89C3194F89D11994200F0618394F8AC
:102660009E21C2F30207F9B207290CD0012088404D
:1026700010F04E0F7FF4CFA910F0300F40F0D58549
:10268000002900F08C8640F63A53C14AC149C2483D
:1026900013F027FB404080F311884FF0030002DF66
:1026A00094F8E82094F8E900FFF7B0B9E26C636CA5
:1026B000BA4E03FB1A23E3640FF04AFD804694F8F8
:1026C000DC00C0F382000FF045FD08EB000307FBC0
:1026D00003F3B348E26C94F8141103F5742303F286
:1026E0003F23A0FB03034FEA934808FB0BF07B0852
:1026F0000244963B9A4209FB01FC28BF1A464FF060
:10270000000EC4F84480C4E91232A0FB06019EA367
:10271000D3E90023C4F854C0C4F8E4E0FEF7F0FCA9
:10272000A04AD4F81031A2FB03239B0A09FB03F94A
:102730002D1A95A3D3E90023A9FB0601FEF7E0FCBF
:10274000A7EB080620F07F48FFF7BBBA94F875C1E5
:1027500094F87471BC453FF47BAF934FD7F800C039
:10276000BCF1000F00F0008564457FF454A994F893
:1027700076C10CF0070CBCF1050F00F21D870FF2BB
:10278000080E5EF82CF000BF7B280000F92700003F
:10279000A12700000D1A00000D1A00000D1A0000FC
:1027A00098073FF538A909F087FC014600283FF457
:1027B00077AF90F8203094F87621A78D032060F34E
:1027C00002020343182084F8762181F8203081F832
:1027D0002100B4F87801B4F87A21B4F87C31888407
:1027E000B4F87E01CA840B8502220F23CF8048856E
:1027F0000A7181F8233025E594F87781B8F1000F4C
:1028000040F0798594F93D30002BC0F2328694F87F
:10281000763194F88021C4F81081052060F302031A
:10282000012084F8763184F81401002A00F07186C2
:10283000B4F87831B3FBF2F3034413FB02F39BB219
:1028400094F8062194F87601A4F80831022363F382
:1028500001021346C0F3C00262F382030139B4F8E7
:102860007C01B4F87E2184F8051184F80631A4F8BF
:102870000A01A4F80C21FFF7CEB84C48B4F8368012
:10288000B4F8329005F0C8FD014600283FF408AFC7
:1028900094F876010A794FF0040C6CF3020042F0D0
:1028A00003024FF0180C84F8760108EB09030A7153
:1028B00081F805C0B4F878C1B4F87A01B4F87C2185
:1028C000A1F808C03344B4F87EC148818A810F2042
:1028D0000022A1F811304FF0FF33C8710A74CA7496
:1028E0000A754B758B75CB750B764B768B76CB76E5
:1028F0000B774B778B772046A1F80EC00AF0D8FAF9
:10290000B4F8CA303C60A4F8CC3094F8E82094F8CD
:10291000E900FFF77BB8228E8A427FF472A940F269
:10292000E24202FB03FB42F2107202FB0CB2B4F86B
:10293000C6E0013AB2FBFBF292B296457FF461A980
:1029400003233B71FFF76AB901221046022105F00B
:1029500007FE6FF04700FFF765B84FF4A479CDF894
:102960002C90FFF7A3BAD4F8B831002B7FF423AE34
:102970002860C4E96D55C4F8BC5100287FF44BA809
:102980001AE500BFAFF300808D49FD1A0700000073
:102990004C9C0100149901008C98010000CA9A3BDC
:1029A00083DE1B435917B7D174180020F418002098
:1029B000D64805F031FD074600283FF471AE94F883
:1029C0001931D34AC4F81C21013B092284F819317A
:1029D000427194F93D200379002AACBF08220E22EF
:1029E00043F00303C271082203714946104413F0F7
:1029F000ECFFD4F81C313B72C3F307221B0C7A7234
:102A0000BB72D4F8B431002B00F0138194F8562136
:102A1000910700F10E8194F8AF21D20700F10981EE
:102A2000D4F8C021934204BF1A68C4F8C021D4F876
:102A3000B821002A00F05084D4F8BC311A683A60FA
:102A40001F60C4F8BC713B68002B00F0A783B4F88A
:102A5000CA30A4F8CC3094F8E82094F8E900FEF7E6
:102A6000D5BFC4F8C401FFF79ABB94F8642094F86A
:102A70005C00C5F3820161F3020284F864204A46D7
:102A80000AF0C2F90646FFF717BA02F00700B4F8D9
:102A9000A0E1B4F8A411A4F85EE00428A4F8621040
:102AA000B4F8A281B4F8A67100F0AE82062363F3F5
:102AB000020284F89E21D4F80091B9F1000F00F0D1
:102AC0000A82D9F80000002800F0058299F8203029
:102AD0004268B4F82CC0C4F8002143F0030302227A
:102AE00089F820304FF0090A1523A9F806C0A9F883
:102AF00024E0A9F8261089F8042089F823304946F3
:102B0000A9F82880A9F82A7089F821A009F0A4FA68
:102B100009F0ACFAFEF796BF40F642637D4A7E4963
:102B20007E4813F0DEF8404080F311884FF0030038
:102B300002DF286894F8ECB0FFF7E1B940F66E6365
:102B4000744A7549754813F0CCF8404080F31188F9
:102B50004FF0030002DF2868FFF7FFB904F17F0799
:102B60003B462A4604F1EE0104F261100FF0D2FF59
:102B70003946102204F1A00013F0FDFE082204F1F2
:102B8000980104F1B90013F0F6FE94F8970094F858
:102B9000B82094F87E3084F88F5043F0080365F332
:102BA000000042F0010284F8970084F87E3084F837
:102BB000905084F8915084F8925084F8935084F89F
:102BC000945084F8955084F89650C4F8B05041461B
:102BD000C4F8B45084F8B82020460AF075FBD4F845
:102BE000B4318BB394F8562192072DD494F8AF21C9
:102BF000D70729D4D4F8C021934204BF1A68C4F877
:102C0000C021D4F8B821002A7FF424AC1A683260BD
:102C10001E603368C4E96E6624E4D4F8B821002A43
:102C20007FF41EAA2B60C4E96D55C4F8BC51FFF7B0
:102C30001FBAD4F8B821002A7FF4FEAE3B60C4E985
:102C40006D77C4F8BC71FFE6D4F8B821002A7FF490
:102C500001AC3360C4E96D66C4F8BC6102E404F100
:102C60007F073B462A4604F1EE0104F261100FF0A3
:102C700051FF3946102204F1A00013F07CFE082217
:102C800004F1980104F1B90013F075FE94F897204F
:102C900094F8B81094F87E3084F88F5042F0010216
:102CA00065F3000143F00803012084F8972084F8BD
:102CB000B81084F87E3084F8905084F8915084F8ED
:102CC000925084F8935084F8945084F8955084F886
:102CD0009650C4F8B050C4F8B45032797071D4F83A
:102CE000B43142F0030205213271F171002B7FF4FF
:102CF0009BABD4F8B821002A7FF4ACAB3360C4E9B5
:102D00006D66C4F8BC61FFF7ACBB00BFF4180020CF
:102D10007F4901004C9C0100309D01008C9801000E
:102D200094F8ACC194F8AD7167453EF474AE94F874
:102D3000AE7107F0030EBEF1030F00F241840FF2F3
:102D4000080858F82EF000BF592D00000D1A000099
:102D50000D1A0000C12D0000B04805F05DFB0146D2
:102D600000283FF49DAC94F8AE0194F8B03194F88B
:102D7000AF710A794FF0010C6CF301005FFA80FC2F
:102D8000CCF3820E6EF30203CCF3421C6CF30613F9
:102D9000C7F3400767F3C30384F8AE0184F8B0318A
:102DA00042F00302032016230A71487181F808E0FB
:102DB00081F809C0CB71002220460AF079F846E676
:102DC000C7F3820212F0020F84F8ADC100F0BD8398
:102DD000022262F3840784F8AE7194F8AE21570999
:102DE00017F0020F00F0A883022767F3471284F858
:102DF000AE2194F8AE7194F8648094F865E094F88C
:102E0000EC20C7F3820C08F00708E04508BF4FF03C
:102E1000000C0EF0070E7F096CF38402BE4508BF5C
:102E2000002767F3471294F8AFC1D2B242F001070E
:102E3000CCF3800C6CF34107821E4FF0060C84F833
:102E4000E92084F8EC7084F8EAC0FEF7F2BDC4F81B
:102E5000C461FFF70ABBF2457FF466A803232B7118
:102E6000294609F0F9F8D4F80051002D00F08882C5
:102E70002868002800F084824368C4F800310323E6
:102E80002B71294609F0E8F809F0F0F8FEF7C3BD08
:102E9000238E1E44B31DA4F8EE3009F00DF9D8F8C6
:102EA0000030D4F800215A60C4F8008109F004F918
:102EB0000368D4F800215A6094F8EC30C4F800019B
:102EC000C3F38207B4F8EE105B09FFF7FABA40F6D5
:102ED0003133FFF7DABB40F61253514A5149524899
:102EE00012F0FFFE404080F311884FF0030002DF34
:102EF000D9F80000B4F85EE0B4F86210E6E547489F
:102F000005F08AFA00283FF4CBAB94F8252194F819
:102F10002631013A84F82521027943F00103062184
:102F200084F8263142F003024171D4F8B4310271C1
:102F30000B216FF00E020C270172427205214FF037
:102F4000FF32C7718172C2720273002B00F03181AF
:102F500094F85621910700F12C8194F8AF21D20703
:102F600000F12781D4F8C021934204BF1A68C4F845
:102F7000C021D4F8B821002A00F0C582D4F8BC31B1
:102F80001A6802601860C4F8BC010368002B7FF463
:102F90005EADC4F8C4015AE5414620460AF094F9F2
:102FA000D4F8B431002B00F0AE8094F85621950788
:102FB00000F1A98094F8AF21D00700F1A480D4F8E3
:102FC000C021934204BF1A68C4F8C021D4F8B821C4
:102FD000002A00F04682D4F8BC311A6832601E60C4
:102FE000C4F8BC613368002B00F00D8194F85631B1
:102FF00023F0030384F85631FFF737BA0D233572F7
:10300000F3710227FFF707BAB4F8A801002840F0CF
:10301000E58084F89D31A4F8CC004CE5F41800203C
:103020004C9C0100309D01008C980100D04805F0B7
:10303000F3F900283EF406AD94F89E21B4F8A211ED
:10304000B4F8A631A4F8D61068F302024FF0090CC8
:10305000A4F8D83084F89E2180F805C094F8DCC02C
:103060000279818142F0030247F01B0E14211CF00B
:10307000010F02714772D4F81C2180F808E0C17179
:1030800000F0C480110540F11881B3F5296F28BF05
:103090004FF42963B3F5A47F38BF4FF4A4734FF402
:1030A0002962D4F8B411C381B2F5A47F38BF4FF4BC
:1030B000A4724281002900F0878094F856319B0762
:1030C00000F1828094F8AF31DF077DD4D4F8C031AD
:1030D000994204BF0B68C4F8C031D4F8B831002B52
:1030E00000F03C82D4F8BC311A6802601860C4F861
:1030F000BC010368002B00F0DD80B4F8CA30A4F8EE
:10310000CC30FEF79FBCD4F8B821002A7FF463AF1F
:103110003360C4E96D66C4F8BC6163E708F0CCFFB6
:10312000A28D88F8207094F86430A8F80620C3F3C4
:10313000020388F8213094F86530D8F80000C3F312
:1031400002030E2288F82230414688F8042008F055
:1031500083FF08F08BFF94F8EC30B4F8EE10C3F363
:1031600082075B09FFF7ADB994F8762102F00702F8
:10317000052A00F2218201A050F822F07B280000ED
:10318000F9270000A1270000171A0000171A0000F5
:10319000171A0000C4F8C451FEF76DBFC4F8C4711B
:1031A00055E41A68026018600368C4E96E00FEF70F
:1031B000F3BFD4F8B821002A7FF4E0AE0360C4E97D
:1031C0006D00C4F8BC01E0E6D4F8B831002B89D119
:1031D0000160C4E96D00C4F8BC018AE76CF3020227
:1031E000B4F8AA3184F89E21A4F8A201A4F8A8C1D9
:1031F000A4F8A6315FE41A682A601D602B68C4E950
:103200006E55FFF7D6B8C4F8C461EFE64FF4A47367
:103210001A4646E703682B6005602868C4E96E55C6
:1032200000287EF4F8ABFFF7C7B8B4F8A011A4F8F3
:103230005E1002F00701B4F8A401A4F862000429AA
:10324000B4F8A291B4F8A68100F08880062363F355
:10325000020284F89E21D4F80071002F6FD03868E4
:1032600000286CD097F820304268C4F8002143F061
:1032700003030921A28D87F8203087F82110B4F8C4
:103280005E30B4F86210FA80BB84022215233A71D2
:10329000F98487F823303946A7F82890A7F82A80C0
:1032A00008F0DAFE08F0E2FE94F8E82094F8E9006D
:1032B000FEF7ACBBC4F8C4011FE7D2054FF4A473FA
:1032C00040F1D580A822ECE61A682A601D602B68C0
:1032D000C4E96E55FEF7CCBE1A683A601F603B68C1
:1032E000C4E96E77FFF7B0BB1A6832601E60C4E9AC
:1032F0006E66FFF7B6B81E4805F08EF80146002846
:103300003FF4CEA9037943F003030B71112003228C
:103310000F23C8714A710B7294F877314B720022F7
:10332000204609F0C5FD94F8743184F87531002306
:103330003B6094F8E82094F8E900FEF767BB40F69C
:1033400012530C4A0C490D4812F0CBFC404080F35C
:1033500011884FF0030002DF386883E7B4F8A81142
:10336000002940F00A8184F89D31A4F8CC1072E75E
:10337000F41800204C9C0100309D01008C98010045
:1033800040F65163904A9149914812F0AAFC40409E
:1033900080F311884FF0030002DF28686CE58D4848
:1033A00005F03AF800283FF47BA994F89E21B4F880
:1033B000A211B4F8A631A4F8D6104FF0010C6CF3AA
:1033C00002024FF0090CA4F8D83084F89E2180F84E
:1033D00005C094F8DCC00279818142F0030247F015
:1033E0001B0E14211CF0010F02714772D4F81C212E
:1033F00080F808E0C17100F09B80110540F1D48095
:10340000B3F5296F28BF4FF42963B3F5A47F38BF04
:103410004FF4A4734FF42961D4F8B421C381B1F5FA
:10342000A47F38BF4FF4A4714181002A75D094F86D
:103430005631990771D494F8AF31DB076DD4D4F8C5
:10344000C0319A4204BF1368C4F8C031D4F8B8310F
:10345000002B7FF493AD136803601060C4E96E0025
:1034600093E51A6832601E60C4E96E66BAE51A46D2
:1034700017E6584804F0D0FF014600283FF410A991
:103480000379182243F0030303714271B4F87821E1
:10349000B4F87A31B4F87C010A81B4F87E214B810A
:1034A00010238881CA81CB7194F880310B74B4F8F1
:1034B0008231B4F88401B4F88621A1F81130B4F84F
:1034C0008831A1F81300B4F88A01A1F81520B4F8E6
:1034D0008C21A1F81730B4F88E31A1F81D30A1F875
:1034E0001900A1F81B202046424609F0E1FC94F89F
:1034F0007431C7F8008084F8753194F8E82094F8A6
:10350000E900FEF783BA1A6802601860C4E96E0029
:103510003BE5B4F87A31FFF793B9D4F8B831002B12
:103520007FF42CAD0260C4E96D00C4F8BC012CE549
:103530004FF4A47319466FE717F0010F14D0012759
:1035400067F3471284F8AE2153E412F0010F22D042
:10355000012262F3840784F8AE713EE40B680360D5
:103560000860C4E96E00C4E517F0040718BF04271B
:1035700067F3471284F8AE213BE4002363F30202B1
:10358000A4F8A211B4F8AA1184F89E21A4F8A831D5
:10359000A4F8A6115FE612F0040218BF042262F339
:1035A000840784F8AE7118E4D7054FF4A47301D5ED
:1035B000A82131E719462FE740F63E43FFF765B8EB
:1035C00040F6B553FFF761B84C9C0100309D0100F7
:1035D0008C980100F41800202DE9F04F1D4695B09D
:1035E00053F80C6B0B90904612680C46002118465D
:1035F0009160D2F8009004F13201032205F1080A2B
:1036000013F0B9F905F11C0704F12E01042250460C
:1036100013F0B1F904F13E010522384613F0ABF97D
:103620003846052105F0C0F895F8213000F03F003C
:1036300060F30503012885F821300AD994F8432066
:10364000C2F304014B1F03F0FF030B2B85F822107C
:1036500002D915B0BDE8F08F278F6F8294F83A3009
:1036600094F83B0096F8DC10520943EA002362F319
:103670008401AB82E38E86F8DC10ADF83C300EF0AE
:1036800067FD0C9096F8DC00C0F382000EF062FD3E
:103690000C9BDFF834C394F83510AA8A40F2E24B51
:1036A0000BFB07F7184407FB00F000F5742000F24D
:1036B0003F20ACFB00C04FEA570C0BFB01F1800C24
:1036C000ACF1960CA862E963C5F82CC0B4F83CB024
:1036D000B34BB44842F2107101FB0B713B4402F151
:1036E000060CB3FBF7F30139B1FBF7F1A6F8C610EE
:1036F00099B261453844A6F8D210B0FBF7F0A6F8AD
:10370000CA0002DD891A063989B2A6F8CE10042251
:10371000514606F1E00013F02EF994F8203004F140
:10372000220A5146C3F38013062212A88DF84430B2
:1037300013F021F994F820304FF48072228498F825
:10374000162099F82A000E92C3F340138DF83030FA
:103750000DF078FB9DF830300D930146062204F100
:103760002F00002940F0EB8013F02FF90E9804F1A0
:103770002903FF28109304F1230300F0EA801A467E
:1037800051460CF0DBFD94F822201098023284F8A8
:10379000222012A9062213F0EEF896F8DC30698A8E
:1037A000AA8A2287C3F3820384F83C30E186A4F816
:1037B0003AB0304609F08EFE21462882E080D8F8E3
:1037C00004400B9808F048FC2B8AE3800D232371FA
:1037D0000D9B2068002B00F0B78095F809E02B7A4C
:1037E00095F80BC0A97A95F8212041EA0C2143EA0B
:1037F0000E234B4042F0400201216B8485F82120CA
:1038000084F82010214608F027FC08F02FFCD8F897
:1038100010B0654A00240BF252403123A0FB020194
:103820003360C6E901445CA3D3E90023FDF768FCDB
:10383000D8F80C30AD6AA3F5AE7320F07F40A3EB4F
:103840000B0BBDF83C30F06022460221012040F213
:10385000E24A0AFB03AA04F083FE484609F04AFA4A
:10386000821CD2B22046CDF80090504B012106F0C8
:1038700027F90128A7EB0507DA4400F0838099F8BF
:103880002830DB0776D4304609F024FEDFF818B183
:10389000A7FB0B4540A3D3E9002307462946204652
:1038A000FDF72EFC424A069620F07F49A9FB022331
:1038B000072101FB093340F22111D8F808C0089113
:1038C0003C4907913C490591A01A65EB0301F36857
:1038D000049300254FF47A720023ACF13104039570
:1038E000FDF70EFC2CA3D3E900230290AAFB0B01E9
:1038F000CDF80490FDF704FC033720F07F40FFB2C1
:10390000009023463A462846012106F069F830F037
:1039100002030CD040F22313284A2949294812F007
:10392000E0F9404080F311884FF0030002DF0122EC
:103930001046022104F014FE15B0BDE8F08F04F12A
:10394000280113F018F811E79DF8303084F8203082
:1039500058E710980E930622002113F036F89DF8D0
:10396000443084F822300E9B12A91846062213F028
:1039700002F812E70023012200931846114606F0D0
:103980009FF880E708F00CFC81453FF478AF0CF01D
:10399000F5FA74E7AFF300808D49FD1A07000000C7
:1039A0007FC3C901FF59620200CA9A3BA9FF000008
:1039B0008D49FD1A4DFF0000C5FF0000C09D0100AC
:1039C000B09B01008C98010083DE1B4300000000C7
:1039D0002DE9F0410F46D0E90C15C66A4C19303478
:1039E000A642904618D8144D11A3D3E90023A1FB99
:1039F0000501FDF785FBA41B20F07F4038600CA378
:103A0000D3E90023A5FB0401FDF77AFB20F07F40FA
:103A1000C8F80000BDE8F081074C05A3D3E90023F6
:103A2000A6FB0401FDF76CFB3035E5E7AFF3008042
:103A30008D49FD1A0700000000CA9A3B014812F0A8
:103A400050B900BF7FA4010011B1034812F049B979
:103A5000024812F046B900BF54A4010074A401004A
:103A600070B5002088B002F03BF8064628B1014648
:103A70001F4812F036F908B070BD12F0E6FB0D22B7
:103A80001C491D481D4D00F047FA14221C491D48D1
:103A900000F042FA0E221C491C4800F03DFA1022A8
:103AA0001B491C4800F038FA10221B491B4800F043
:103AB00033FA10221A491B4800F02EFA1A4812F065
:103AC00010F91A4802F076FC0FCD03AC0FC42B6836
:103AD0002360174900963346022203A813F087FAA1
:103AE000014608B11348C4E7134812F0FAF8C2E7D8
:103AF0009DA40100BDA40100CAA40100D09301004F
:103B0000D7A40100EBA40100F8A4010006A5010060
:103B100014A5010024A501002EA501003EA5010069
:103B200048A5010058A5010062A501001801002068
:103B30003894010079A501009FA501000B680133AD
:103B40000B60014B1B6818472C0100202DE9F04F3A
:103B500085B09B460E9CDFF88890012CB8BF0124ED
:103B6000012B0CBF30232023164682468846029341
:103B700001250A270022B6FBF9F301930AB9B145E2
:103B80001DD8019B414603F13000D0470135012289
:103B9000019B013F012F09FB13664FF00A03B9FB9C
:103BA000F3F9E8D1414606F13000D047BBF1030FED
:103BB00002D1641B002C0EDC05B0BDE8F08FBC42C6
:103BC000E6DBBBF1020FE3D84146029803920135D0
:103BD000D047039ADCE741462020D047013CE9E783
:103BE00000CA9A3B014B1860704700BF2C010020AF
:103BF00007B50023019302460B46034801A911F0C3
:103C000000FF03B05DF804FB3D3B000030B585B01C
:103C1000CDE901010446002501A90548039511F0ED
:103C2000F0FEDDE902309842B8BF255405B030BD42
:103C3000DD5901002DE9F34101A9064614461D4650
:103C400012F02AFB244902460746304612F074FE61
:103C5000804660B9214E142231462846A0470028EC
:103C600001DB06F80080002002B0BDE8F0813A4692
:103C70001B49304612F060FE804608B9194EEAE74B
:103C80003A461949304612F057FE804608B9174E99
:103C9000E1E73A461649304612F04EFE804608B932
:103CA000144ED8E73A461449304612F045FE804695
:103CB00008B9124ECFE73A461149304612F03CFEA1
:103CC00007460028CFD10F4E142231462846A04780
:103CD0000028A8BF3754C6E7F2A40100050600205B
:103CE000D1A401001A0600200DA501002F06002016
:103CF00045A50100DB0500205FA50100F0050020BF
:103D00002BA50100440600200F4B2DE9F0411C6853
:103D100006460F469046A4B14FF0FF324FF0FF33F6
:103D20000A4810F04BFE63683A469D6831464346A8
:103D30002046A8470446054810F0B8FE2046BDE8D6
:103D4000F0816FF00104F9E7B80800203C0700207B
:103D500030B585B000230546CDE9023301904FF020
:103D6000FF334FF0FF320B4810F028FE0A4B1C685F
:103D700034B1636820461B6801A998472468F7E7B7
:103D8000284600F081F80446024810F08FFE2046D5
:103D900005B030BD3C070020B00800201FB5CDE9BC
:103DA000010103924FF0FF334FF0FF32094810F04A
:103DB00005FE094B1C6834B1636820461B6801A9E5
:103DC00098472468F7E7034810F070FE002004B01D
:103DD00010BD00BF3C070020B0080020024B0022AD
:103DE000C3E90022704700BFB0080020024B002248
:103DF000C3E90022FFF7F2BFBC0800202DE9F34120
:103E000007460E4609B100230B601C4CDFF8748096
:103E10000025444508D31A4B1C680CB1143CC4B9A6
:103E2000284602B0BDE8F08101AA2168384612F0A8
:103E300013FA60B125B90EB1019B3360254606E047
:103E400000222968206812F007FA0028F3D1143400
:103E5000DFE701AA2168384612F0FEF960B125B902
:103E60000EB1019B3360254606E0002229682068D8
:103E700012F0F2F90028F3D16469CEE764930100EF
:103E8000BC080020C8930100F8B5184C184F06462E
:103E90000025BC4206D3174B1C680CB1143C9CB9DE
:103EA0002846F8BD1EB9E3684BB91434F1E7002287
:103EB0003146206812F0D0F90028F4D1F5E7984790
:103EC000002D08BF0546F0E71EB9E3684BB96469E9
:103ED000E3E700223146206812F0BEF90028F4D151
:103EE000F5E79847002D08BF0546F0E76493010009
:103EF000C8930100BC08002010B5064C23783BB9DC
:103F0000FFF774FF12F0EEF908B90123237010BD1A
:103F10000020FCE76221002030B585B00D4601A9E4
:103F20001446FFF76BFF48B1CDE9025402AB856838
:103F3000044A01982146A84705B030BD6FF015002E
:103F4000FAE700BFC562010010B50748074C10F042
:103F500095FB074B1860204600F024FD2046FFF734
:103F600041FE002010BD00BFC8A50100753F000044
:103F7000C40800200A2838B50446074D04D1286833
:103F800083680D215B68984728688368E1B25B68A5
:103F90009847204638BD00BFC4080020F8B5124D30
:103FA000EB680C2404FB00340123064663724FF0D7
:103FB0002003EFF3118183F31188BFF36F8F236820
:103FC0002BB160681A682260834208BF626081F387
:103FD0001188BFF36F8F03B9F8BDD3E90172314681
:103FE0002846B847E3E700BF5C060020154B07B53D
:103FF0001A6882B14FF08042D2F80423D1070AD563
:1040000000221A601B680093009B0F4BDB68587AF4
:1040100008B9FFF7C3FF0D4B1A6882B14FF0804219
:10402000D2F8042392070AD500221A601B68019374
:10403000019B012003B05DF804EBFFF7AFBF03B0B5
:104040005DF804FB000100405C0600200401004014
:10405000821C084B22F07F42C3F84025D3F8042588
:10406000904200D17047D3F80405821C22F07F42B1
:10407000F2E700BF00100140044B002282B01A603A
:104080001B680193019B02B0704700BF40110140C3
:1040900008B5FFF7F1FF074B074AD3F8400513684F
:1040A000C01A20F07F4003441360BDE8084011F0BF
:1040B000F7BA00BF00100140E008002038B51448EE
:1040C00010F0DCFA00B38368124D1B680121002454
:1040D0009847C5F80845FFF7CFFF0F4B4FF4003264
:1040E000C3F880214FF48033C5F804332246012100
:1040F000112000F0CDF9112000F098F9074A0123B2
:10410000136020462B6038BD4FF0FF30FBE700BF47
:10411000CFA501000010014000E100E008100140BF
:1041200070B52A4B2A4C1968D4F80425294D521A27
:10413000B0F1FF3F08BF284622F07F43120234D47B
:10414000013820EAE070A842A8BF284601334FF4A6
:1041500080361844C4F80863A84294BF0D184D195E
:10416000D4F80405D4F84015FFF786FF091A21F0AA
:104170007F4120F07F430129C4F84035C4F84463EF
:1041800004D10F2014F0C7FDFFF776FF124B4FF458
:104190000032C3F88021D4F804052B1A23F07F43A2
:1041A000012B04D1FFF754FF0BE00020CEE725F0F0
:1041B0007F43C4F84035D4F804052D1A023D2B0284
:1041C000F0D44FF48033C4F8043370BDE00800200D
:1041D00000100140FFFF7F0000E100E04FF02002EF
:1041E000EFF3118382F31188BFF36F8F064AD2F881
:1041F0000405064A1268801A20F07F4083F3118874
:10420000BFF36F8F704700BF00100140E00800202F
:10421000F0B5284E07460C460FCE8DB001AD0FC548
:104220000FCE0FC596E8070085E80700002F3CD0A9
:10423000002C3CD0381F2146024610344B780D78B4
:104240001B0443EA0563CD782B438D78043143EAA0
:1042500005238C4242F8043FF0D1174C04218A0711
:10426000036918D14FEA33631A0EA55CDAB2A25C77
:1042700042EA0562C3F30745C3F30723655DE35CC8
:1042800042EA054242EA03220CAD21F003032B442B
:1042900053F82C3C534050F8042F013153402C2943
:1042A0000361DCD101200DB0F0BD3846FBE72046AC
:1042B000F9E700BFE4930100DFA501002DE9F04319
:1042C000154689B00746002859D000295AD0002A3F
:1042D0005AD010230A466846194612F0BFF82946FC
:1042E0006846DFF8A89012F0D1F805F11006C8462C
:1042F000A0356C466A4610231178013B19F801106D
:1043000002F8011BF8D1684612F005F9694604A8C5
:1043100012F03AF901A905A812F036F902A906A887
:1043200012F032F903A907A812F02EF9102319464A
:104330000DEB0302684612F091F8314668461036DC
:1043400012F0A4F8AE42D4D110262378013E18F81A
:10435000033004F8013BF8D1684612F0DCF8294636
:10436000684612F093F8102319466A46384612F050
:1043700075F868461022314612F07DF8012009B028
:10438000BDE8F0830846FAE71046F8E7DFA501002C
:10439000094A0A499368096819670949D8664B6848
:1043A00043F080534B60002383F31188BFF36F8F7A
:1043B0009368186F704700BF8020002048A4010058
:1043C00000ED00E00F498A684FF030001044EFF331
:1043D000098C80E8F01F202080F31188BFF36F8FD5
:1043E000094F4FF000664A6A8A603E60D06E002333
:1043F000D36680F3118802F1300090E8F01F8CF34F
:10440000098870478020002004ED00E01EF0040FB2
:104410000CBFEFF30880EFF30980816911F8021CEB
:104420000229FFD001B512F0F3F901BD43B2002B10
:1044300008DB012200F01F0002FA00F05B09024ACB
:1044400042F82300704700BF00E100E043B2002BB8
:104450000DDB01225B0900F01F0002FA00F020339F
:10446000034A42F82300BFF34F8FBFF36F8F7047AB
:1044700000E100E04209054B00F01F0053F8222044
:10448000012303FA00F01040704700BF00E100E094
:1044900043B2002BA8BF03F1604301F101014FEAD1
:1044A0004111AEBF03F5614300F00F00034BC9B2E9
:1044B000ACBF83F800131954704700BF14ED00E03F
:1044C00008B572B6044B186A18B100221A6214F0CB
:1044D000CAF962B608BD00BF80200020C0E91812EA
:1044E0000A44203A22F0070208491360009B5360F7
:1044F000019B9360029BD3604FF08073D36121F0E6
:104500000101002391610265C3667047175D0100D8
:10451000F8B506460C4617461D4600F099F9094BBA
:104520003C4424F007049E60284684F30988002157
:1045300063B681F31188BFF36F8F0022002311F05F
:10454000EAFB00BF80200020014910220A6070476A
:1045500010ED00E072B6404080F31188BFF36F8F1A
:10456000BFF34F8F30BF62B6BFF36F8F704700BF8E
:1045700030BFFFF7FDBF00BF0E4A08B50E4B22F05B
:104580007F029A60BFF34F8FBFF36F8FD3F88820FD
:1045900022F47002C3F88820EFF3148323F004039D
:1045A00083F3148810F0AEF810F0B6F800F01EF99E
:1045B00010F0F0F80010000000ED00E001B572B658
:1045C0000B4A106A00281EBF0021116214F04BF93B
:1045D00062B6EFF30580A0F110004FEAC000054974
:1045E000014409C99847BDE8014003490847000054
:1045F00080200020A8910100D147000012F00AFAA3
:10460000202080F3118808484FF40061401880F39F
:104610000988EFF314800221084380F31488BFF364
:104620006F8FFFF7A9FF000028350020EFF3088007
:10463000EFF30981724601B500F04EF801BD00BFED
:104640000C4B9A6A9A6A9A6A920708D55A6B9A6AC8
:10465000120604D518B19A6A22F080029A62054BBC
:104660009A6A9A6A9A6A9A6A002042F0FF029A62EB
:104670000870704700ED00E00D4B9A6A9A6A9A6ADA
:10468000920508D59A6B9A6A120404D518B19A6AF1
:1046900022F400429A62064B9A6A9A6AD20558BF7F
:1046A0009A6A9A6A002042F47F429A6208707047C0
:1046B00000ED00E0074B9A6A9A6A9A6A9A6A9A6AC7
:1046C0009A6A9A6A6FEA02426FEA12429A6200207C
:1046D000704700BF00ED00E070B5364B5B688AB0F4
:1046E000C3F30803002585F31188BFF36F8F02F031
:1046F0007F44B4F17F4F12D102F00C04082C0ED08D
:1047000014074EBF0E46064601250022033B8DF8D6
:104710000720032B47D8DFE803F0043E423B2E4638
:10472000F3E7244BDA6A92073DD4DC6A14F0804444
:1047300008D028331B78EBB10DF107010120FFF7FA
:104740007FFF04469DF8073093B92022314602A826
:1047500012F011F9099B45B3C3F3080222B96FEABD
:1047600053236FEA4323099302A9204612F04EF81F
:104770000AB070BD104B1B782BB10DF10701012061
:10478000FFF77AFFDDE70D4B1C88A4B2002CD9D0CF
:10479000FFF790FFD5E70DF107010020CFE70DF1FE
:1047A00007010020ECE70024CCE723F4FF7323F09B
:1047B0000103D8E700ED00E029ED00E02AED00E07C
:1047C000024A536943F010035361704700ED00E063
:1047D000044B9968586A884203D003494FF08052CD
:1047E0000A6070478020002004ED00E004480023A8
:1047F0002021C2180133302B82F80013F9D1704701
:1048000000E100E038B505464FF02003EFF31184D6
:1048100083F31188BFF36F8F10F068FB0A4B9B681E
:10482000AB420BD1094B5A68C2F3080212B92046B9
:10483000FFF7AEFD5A6842F080525A602046BDE84C
:10484000384014F067B900BF8020002000ED00E080
:104850001FB5084B0193084B0293084B039301AB20
:104860000093074A074B0121684600F091F805B014
:104870005DF804FB000000200000000000000B06B3
:104880000000002000000420F0B5204F00268E42DA
:1048900001DB1046F0BD50F826C0DCF8044094B3AC
:1048A0005BB104F1FF3E14EA0E0F1AD11F2C18D988
:1048B000DCF800501EEA050F13D1202CDCF8005064
:1048C000DCF808C0D2B20FD9B4F1004F0ED8013CC9
:1048D000B4FA84F4C4F11F046400072A4CEA040407
:1048E00006D96FF01502D4E70824F6E73E24F4E772
:1048F00025F01F05154345F0100544F00104BA608A
:10490000FD6001323C610136C1E700BF90ED00E07F
:10491000034B05225A60BFF34F8FBFF36F8F704771
:1049200090ED00E0BFF35F8F014B00225A607047AB
:1049300090ED00E013490868082810B51ED8FFF76D
:10494000F1FF114C49680022904201F10C0105D1A0
:104950000E4B1870FFF7DCFF002010BDA26051F86D
:104960000C3C23F01F03134343F01003E36051F8A2
:10497000043C43F0010323610132E5E74FF0FF30CF
:10498000EBE700BF6095010090ED00E0632100209F
:1049900010B5034C01232278FFF776FF207010BD7D
:1049A00063210020014B1860704700BF60010020A8
:1049B0004FF02003EFF3118283F31188BFF36F8F61
:1049C00006490123C1F840354FF08041C1F87835E0
:1049D00082F31188BFF36F8F0020704700E0014021
:1049E00020B1034B800143F001031847704700BF1B
:1049F0003094010003490448CA79C2EBC202FFF7B0
:104A000083B900BF0000002033A70100F7B51646A8
:104A10001F46044620B96FF00104204603B0F0BDE4
:104A200001A911F039FC12490246204611F084FF19
:104A30000028F0D1BFF35B8F0E4D2C68BFF35B8F66
:104A4000C4F3800494B9983D072229463846B047FC
:104A5000062806D807222146284611F0B6FFEC7139
:104A6000DBE70723B0FBF3F0E871D6E70446D4E7B1
:104A700036A70100980000202DE9F04188B09C790C
:104A8000DDF838805D791E79DF7893F802C093F8FD
:104A900001E01B78B8F1000F0ED0CDE90638CDE962
:104AA00004CE1346CDE90267CDE90045084A11F06E
:104AB00025F908B0BDE8F081CDE905E3CDE9037C37
:104AC0001346CDE901560094024A11F017F9F0E7B8
:104AD000EEA6010012A701000949BFF35B8F51E860
:104AE000003F43F0010241E800200028F7D1BFF366
:104AF0005B8FDB0703D40839024813F0B1BF70475E
:104B00006C010020BC20002010B5154CE379E3B106
:104B1000BFF35B8F134C2368BFF35B8F9B0701D4FC
:104B200000F0FAFDBFF35B8F54E8000F20F4004360
:104B300044E80032002AF7D1BFF35B8F10F4004045
:104B40000CD0FFF7C9FF002008E001F05BF8E37923
:104B5000002BDDD101F0C8F80028D9D010BD00BF6E
:104B60000000002098000020F0B40278012A0446DA
:104B70000B4617D01AB1022A2CD0F0BC7047184A45
:104B80000D4602F11007106851682E4603C6083220
:104B9000BA423546F7D11278327062885A73120AD7
:104BA0009A73EAE70E4A0D4602F110071068516841
:104BB0002E4603C60832BA423546F7D11278327013
:104BC00062685A73C2F30721120CDA73120A9973DE
:104BD0001A74D2E7014611221846F0BC11F0CBBE80
:104BE0003CA70100F8B50A4E07460025F379ECB260
:104BF000A34202D86FF0010408E0C4EBC4013144C1
:104C0000384612F02DF801350028EFD12046F8BDC6
:104C100000000020436837B5044658052AD42269AD
:104C20000AB1D90726D5164D2078EB79834221D9D0
:104C3000C0EBC0000023694628440093CDF8033040
:104C400012F00EF8B0B16368DA0706D495F8382090
:104C5000082A02D8A2689F2A0CD9DB0601D423694E
:104C60005BB9D4E902239A4204D81F2A02D9B3F5CA
:104C7000804F02D9002003B030BD0120FBE700BF08
:104C80000000002010B501210446083013F0CEFCCE
:104C900021460723024A0078BDE8104011F0E3BF27
:104CA0008095010013B50C4C0146042294F837009E
:104CB00001F01EFD70B9094B18689A8800909B7925
:104CC000ADF804206946032294F837008DF80630C9
:104CD00001F00EFD02B010BD00000020189401008C
:104CE000F0B5284B047885B006460F4603F12C003A
:104CF000062111F0CCFF1A4640B1082103F12C0027
:104D000011F0C5FF10B11B7EA34234D13546694670
:104D100015F80B3B82F83730284600230093CDF876
:104D2000033011F09DFF0446307864B1294612F03B
:104D300078FA044610BB2946307801F0C3FB0546DB
:104D400078B1042113E06FF0FF03029302A94FF63C
:104D5000FF73ADF80C308DF80E3001F0B3FB054653
:104D600020B96FF00B04204605B0F0BD032101F01F
:104D7000E7FB3D60F7E76FF02204F4E76FF01504FE
:104D8000F1E700BF000000202DE9F047002587680B
:104D9000DFF8E890A8463B789D4201DBBDE8F0874C
:104DA00007EB8503B3F80100B3F803604FF020036D
:104DB000EFF3118A83F31188BFF36F8F01F062FC68
:104DC000044628B98AF31188BFF36F8F0135E2E7F3
:104DD0008AF31188BFF36F8F00F1280A26B34FF0D2
:104DE0002003EFF3118283F31188BFF36F8FE36920
:104DF0006BB1013BE36182F31188BFF36F8F2046F3
:104E000001F080FA013E10F013FAB6B2E6E76369EA
:104E10002BB1A169186860618B4208BFA06182F361
:104E20001188BFF36F8F1BB9204612F003FACDE74C
:104E30004FF02002EFF3118182F31188BFF36F8FDF
:104E4000DA68E261C3F80080626AC3F80C808AB94C
:104E5000C4E9083381F31188BFF36F8F012104F196
:104E6000300011F089FEC307C9D45146484613F0FB
:104E7000F7FDC4E713606362ECE700BFBC200020CD
:104E8000F8B5074688790E460EF062FD194B83424D
:104E90002ED130460EF064FD30460EF061FD164C0A
:104EA0000C2505FB004043685BB157B930460EF056
:104EB00057FD05FB004043681A7AD3E9000111F061
:104EC00084FE30460EF04CFD0C2505FB0040836847
:104ED00073B130460EF044FD6843275430460EF05F
:104EE0003FFD05FB00408068BDE8F84010F0A0B928
:104EF000F8BD00BF20080020E408002038B50321D9
:104F00000446083013F092FBA36805781878214610
:104F1000FFF7B6FF25B10348BDE8384010F088B967
:104F200038BD00BFD000002038B504210446083049
:104F300013F07CFB457800782146FFF7A1FF25B1EF
:104F40000248BDE8384010F073B938BDD0000020E9
:104F50002DE9F84F4FF0FF324FF0FF3382461648ED
:104F6000164F894613F0E7FA044600F108080021BD
:104F70000026404613F0FEFA267520460EF0F0FC9F
:104F80000C2505FB0070A0F802A020460EF0E8FCFE
:104F900005FB0070866020460EF0E2FC05FB007009
:104FA00003214660404613F01AFB80F80290A0F8F7
:104FB00000A02046BDE8F88F20080020E40800206B
:104FC000F0B5154687B00C4621B9FFF7C1FF04467E
:104FD000002848D001220021684613F086FE2046B2
:104FE0000EF0BEFC214E0C2303FB0060C0F808D07D
:104FF000204613F0D0FA21461D4813F0BFFA4FF4B3
:10500000A0220023684610F039F9074680B14FF41A
:10501000B973184A1849194810F063FE3946184800
:1050200010F05FFE404080F311884FF0030002DF74
:1050300020460EF095FC0C235843365C56B12046B2
:105040000EF042FD092E0CBF6FF03C006FF0040023
:1050500007B0F0BD15B12C603046F9E720460EF0E0
:1050600033FD2846F4E76FF03600F1E7E40800204E
:10507000EC00002053A7010087A7010090A70100C2
:10508000ADA701002DE9F04786B004469DF83C50DD
:105090009DF83880894616460021102202A81F4636
:1050A00011F093FC75B19CBB002E3CD1DFF8ACA095
:1050B000504611F02EFC09238DF800308DF80100C8
:1050C000CDF804A0CDE902497DB3B8F1000F2CD191
:1050D0000123CDF810D00593022202A942F2080064
:1050E00011F0F6FD044630B9B8F1000F1FD10421CC
:1050F000194811F041FD204606B0BDE8F08714F8CC
:105100003320083A012A23D901339945F7D1CBE757
:105110000023FAE716F83320083A012A18D9013398
:105120009F42F7D1C2E70023FAE70122D5E7CDE994
:10513000026701221DB10592CDF810D0022202A90A
:1051400042F2090011F0C4FD0028D0D00446D2E795
:105150006FF01504CFE700BF2C0000202BA8010042
:1051600070B5154D062205F13101064611F0F3FB2D
:105170000446E0B1062142F20500FFF7E9FE0446CD
:10518000B8B106223146083013F02FFA214600222A
:1051900042F20500FFF714FF044640B906223146EB
:1051A00005F1310011F0E7FB012385F8303020468E
:1051B00070BD6FF03604FAE700000020F7B5044632
:1051C00011F00100164614D0E7001B4D3B1BEB5CB1
:1051D000012B05D03C1B00202B5D337003B0F0BDCC
:1051E000072010FB04302844FFF7BAFF0028F1D055
:1051F000F4E74B070FD5E7000F4D3B1BEB5C012B92
:1052000005D1072010FB04302844FFF7A9FF3C1B01
:105210002B5D3370E2E70621684605F0E9FE40B9F0
:105220009DF80530684603F03F038DF80530FFF721
:1052300097FF0123EDE700BF0000002030B50121FA
:1052400085B0054642F20A00FFF782FE0446E8B147
:105250000830CDB1012113F0D1F90E4B0193204656
:10526000062302938DF80C500EF07AFB0A4A0C23A9
:1052700003FB002001AB43600022214642F20A00FA
:10528000FFF79EFE05B030BD2946E4E76FF036001B
:10529000F8E700BF2C000020E408002030B5174DCF
:1052A000C0EBC00085B005440C46A9B1002302A99B
:1052B00020460293CDF80B3011F0D2FC60B12146AC
:1052C000284611F056FC01210D4811F0E0FC08B110
:1052D000FFF702FC05B030BD684611F076FD684668
:1052E000FFF780FC0028F7DA6946284611F041FCF8
:1052F000002CE8D029462046E3E700BF000000204C
:1053000098000020024BD3F804311B69184700BFF6
:105310000000002038B505460C4619B9FFF718FE05
:10532000044698B140F635439D4209D12046FFF727
:10533000E9FF054610B120460EF0C6FB284638BDF1
:105340002146044813F01AF90025F7E76FF03605F7
:10535000F4E700BFEC000020837A062B73B5044607
:105360001ED1051D0D21284611F091FCD0B9E3781E
:1053700023B1284B93F8A030190713D5022142F22C
:105380001600FFF7E5FD064660B10221083013F074
:1053900026F923880380314642F21600FFF7BAFF50
:1053A00002B070BD0C21284611F071FC194E70B985
:1053B00096F8A130DA070AD502221146204611F0EC
:1053C00049FD20B98021284611F0D6FBE8E796F880
:1053D000A0309B060CD50DF1060101A811F060FC70
:1053E00030B9BDF80620BDF80410204611F015FDB7
:1053F000E378012BD4D10821284611F048FC00287D
:10540000CED14FF42032002304F15801024810F0AD
:1054100053F8C5E700000020BC2000202DE9F84F1C
:10542000DFF80481DFF814A1D8F80C303D486FF3A1
:105430001033C8F80C3001F009F8471C4FF0FF3268
:105440004FF0FF333946384810F0B2F960B141F2FD
:10545000E44352463549364810F043FC404080F35F
:1054600011884FF0030002DFDFF8D4902E4DA9F130
:10547000EC06A9F11C0B17B90FF068FED4E7EB6836
:10548000C3F30433042B42D12B7B002B42D10022E7
:105490000023484613F054F8044660B941F28643AD
:1054A00052462449224810F01CFC404080F31188E9
:1054B0004FF0030002DF4FF0FF324FF0FF3358464A
:1054C0000FF0DCFED6F8E80020B10EF0FDFA002364
:1054D000C6F8E830204613F05EF8C6F8E80020462B
:1054E000FFF710FF98B114480FF0A2FE20460EF00F
:1054F00037FA21461F20FFF7C3FCD6F8E8000EF06C
:10550000E3FA00232046C6F8E8300EF0DDFA143541
:10551000013FB0E7012BFAD12869343801F0DAF9FC
:10552000F5E700BF840100207001002087A701007B
:1055300090A7010027A80100D000002053A7010078
:10554000EC00002070B5037D012B044636D0032B00
:1055500066D18389032B0CD840F20653334A344971
:10556000344810F0BEFB404080F311884FF0030038
:1055700002DF042104F1080013F058F8FF224388E9
:1055800006886275A289C6F30B009A42E08203D0B6
:1055900020460EF099FA0FE001F074F80546002855
:1055A000F6D001F0FFF9320B60752146284611F064
:1055B000CDFD284611F03EFE002070BD8389012BF1
:1055C0000CD841F27343194A19491A4810F089FB63
:1055D000404080F311884FF0030002DF022104F104
:1055E000080013F023F802781A2A054611D801237F
:1055F0009340114A13420CD041F277430B4A0F49B2
:105600000C4810F06EFB404080F311884FF003000F
:1056100002DF03230A4A2878214611F024FBB7E76A
:105620000EF052FA6FF01500C7E700BF53A7010054
:10563000CDA7010090A7010000C00804E6A7010063
:10564000F895010038B5037D012B04460CD041F6D6
:10565000F803204A2049214810F043FB404080F3E2
:1056600011884FF0030002DFA389012B0CD841F60B
:10567000F903184A1A49194810F033FB404080F3E7
:1056800011884FF0030002DF022104F1080012F03C
:10569000CDFF02781A2A054604D801239340114A07
:1056A00013420CD141F6FC030A4A0F490B4810F093
:1056B00018FB404080F311884FF0030002DF042301
:1056C0000A4A2878214611F0CEFA20460EF0FCF95D
:1056D000002038BD53A7010004A8010090A70100D5
:1056E000CDA7010000C00804E7A701001096010043
:1056F000084AD2F804313BB9C16841B1016931B1FE
:10570000C2F80401184670476FF0440070476FF00C
:1057100015007047000000200221014811F02CBA4A
:105720009800002073B53C4DD5F80431996811F00C
:10573000010121D101AA40F60340FFF741FC0446D4
:10574000002866D1019B9B681B7893B9BFF35B8FE0
:105750002B4653F8982FBFF35B8F02F00502BFF37F
:105760005B8F53E8001F43E800200028F9D1BFF306
:105770005B8F01980EF0A8F901AA002141F2030005
:10578000FFF71EFC0446002843D1019B234899687B
:105790000822013111F0EFF801980EF095F9214639
:1057A00001AA41F20100FFF70BFC0446002830D1AA
:1057B000019883685A7885F83820D9789A7842EA2F
:1057C00001226A871A7985F83920197ADA7942EA4A
:1057D0000122AA875A799B7942EA0323EB870EF0CC
:1057E00073F9214601AA41F20200FFF7E9FB0446E2
:1057F00078B9019B0A4899684022013111F0BBF841
:1058000001980EF061F995F844305E060AD46FF005
:105810001204204602B070BD0000002040000020AD
:1058200048000020214601AA42F20300FFF7C8FB0E
:1058300004460028EDD1019B9E4899680822013159
:1058400011F099F801980EF03FF9214601AA42F2B1
:105850000200FFF7B5FB04460028DAD1019B9B68E4
:10586000B3F80120A5F8B02091B221B1DA789248BE
:10587000114613F03AFA01980EF026F995F84440D3
:1058800014F0200400F0F98095F864301C0711D55D
:1058900001AA002142F21C00FFF792FB04460028F7
:1058A000B7D10198836853F8012F5B68C5E92A23B3
:1058B0000EF00AF995F8A030980623D50DF10201F3
:1058C000684611F0EDF904460028A2D1042142F205
:1058D0002400FFF73DFB0646002800F0D580042198
:1058E000083012F07CFEBDF800300380BDF80230B5
:1058F00043802246314642F22400FFF761FB044612
:10590000002886D1082142F20100FFF721FB04465E
:10591000002800F0B9800821084412F060FE95F8D4
:10592000A02012F0020F14BF2F230F23910695F829
:10593000A12048BF43F0400312F0090F18BF43F401
:10594000006300220370C3F3072343708270C270A8
:10595000027142718271C271214642F20100FFF769
:105960002FFB044600287FF454AF95F844309A0684
:105970001ED4B5F8B010D9B901AA41F20500FFF75D
:105980001FFB044600287FF444AFB5F8B03063B97C
:10599000019B9B685A78997842EA0122A5F8B020C9
:1059A0009A884548114613F0A0F901980EF08CF83A
:1059B000082140F60140FFF7CBFA0446002863D0E7
:1059C0000821084412F00BFE1023037088230022E4
:1059D0004370022620238270C67002714271827168
:1059E000C371214640F60140FFF7EAFA0446002859
:1059F0007FF40FAF014601AA4FF60140FFF7E0FA2E
:105A0000044648BB01980EF05FF8214601AA4FF604
:105A10000240FFF7D5FA0446F0B9019B2748996880
:105A20003246013110F0A7FF01980EF04DF895F8BD
:105A300089305B0710D501AA21464FF60340FFF7D6
:105A4000BFFA48B9019B1E4899680122114410F021
:105A500092FF01980EF038F800F0C2FF04460028CB
:105A60007FF4D7AEEB79002B3FF4D3AE0421154879
:105A700011F082F8FFF750FECBE6022140F66D40B0
:105A8000FFF766FA064610B96FF03604C1E6022148
:105A9000083012F0A4FD0123447003702246314601
:105AA00040F66D40FFF78CFA044600283FF4ECAE58
:105AB000AFE600BFA0000020B40000208900002055
:105AC000880000209800002010B5FFF72BFE034B44
:105AD0001B6813B1BDE81040184710BDFC0800203A
:105AE00070B5254DD5F8043188B00646002B3DD061
:105AF000012105F1980011F03FF8C20739D410F0E8
:105B0000E3FF044678BB1D4B1E6000220023CDE955
:105B100006236FF00803CDE902030490CDE90000ED
:105B2000174B184918484FF420720FF00FFC174913
:105B3000154813F0F2F8D5F80431DB6898470446AD
:105B400088B926B908B0BDE87040FFF7EBBD012168
:105B500005F1940011F010F8C30704D405F18C018D
:105B60000B4812F07DFF204608B070BD6FF01204A4
:105B7000F9E76FF04404F6E700000020FC0800207D
:105B80001D54000010230020000900204DA7010033
:105B9000BC200020004870472BA8010037B50C46F8
:105BA000054628B9ECB16FF01504204603B030BDAE
:105BB000002369460093CDF8033011F051F8002816
:105BC000F0D02B78012BEED1AB7903F0C003C02BC2
:105BD000E9D12846FFF706F80028E3DB6FF044041C
:105BE000E3E7074BDC79012C06D0621C29462046EE
:105BF000DA71FFF753FBD8E76FF00B04D5E700BF6E
:105C00000000002070B588B001AA002141F209000F
:105C1000FFF7D6F91A4E044618B10023F37108B005
:105C200070BD019B04909D68ADF8140001350622FB
:105C300004A9284610F08FFE18B901980DF044FF12
:105C4000EBE7104B186802909B88ADF80C300622E9
:105C500002A9284610F07FFE0028EED02946062231
:105C60000DF1190010F087FE01988DF818400DF025
:105C70002BFF012306A92046F371FFF70FFBCEE7A8
:105C8000000000201F9401002DE9F341154B93F80B
:105C90008A4014F0010407460E4615D001AA0021DF
:105CA0004FF60940FFF78CF90546C8B9019B996882
:105CB0004C78B44228BF34464FF016088E1CA542DB
:105CC00006DB01980DF000FF204602B0BDE8F08130
:105CD00008FB05701622314610F04DFE0135EEE747
:105CE0000024F1E700000020F0B5144DEC7989B0F4
:105CF000F4B9012102A8FFF7C7FFE871C0B1162768
:105D00000FE002AB07FB063106220DF1010010F097
:105D100032FE0123694630468DF80030FFF7BEFAA7
:105D20000134EB79E6B2B342EBD8002009B0F0BD04
:105D300000210846FFF732FFF8E700BF000000200F
:105D40002DE9F04F774D06698BB0044689464FF038
:105D5000000B012105F1980092469846CDF80CB051
:105D600010F095FF002800F0D1802046FEF752FF8A
:105D70000746002800F0CD8059460F2206A810F0F3
:105D800024FEA368ADF81830E368ADF81A30062198
:105D9000072305F12C008DF825308DF826B010F082
:105DA00076FF002840F0B8802A7E23789A4205D0FA
:105DB0006FF4805105F1980010F0F8FE20782876F5
:105DC00085F837000DF11D026168FFF7F7F9054608
:105DD000002865D1002E3ED02169534810F0C9FE3D
:105DE0006368DA073FD5002E3AD013F0100F14BFC6
:105DF0000423012321698DF81C300DF11E0010F0E1
:105E0000B8FE0F2142F20600FFF7A2F8054600286F
:105E100000F085800F2206A9083012F0E6FB294623
:105E2000002242F20600FFF7CBF80546002837D1E2
:105E300046B36368DB0737D40120FFF7FFF9054657
:105E40000398002D38D058B3002100F079FB039857
:105E500011F0F0F924E0049604A9CDF81360BCE732
:105E60008DF81C60CDE7B8F1000F09D103F00803ED
:105E7000002B0ABF0027022303238DF81C30C0E744
:105E80000223FAE76368C3F3C003CDE90073424617
:105E9000149B51464846FFF7F5F805460028C8D040
:105EA00028460BB0BDE8F08F03A92048FEF718FF85
:105EB00005460028C0D0F3E708B111F0BBF91EBBBE
:105EC000626882F00202C2F340020B21184810F00F
:105ED0007CFE62681648C2F3C002072110F075FE0E
:105EE0006268134802F00102082110F06EFE3A4683
:105EF00009210F4810F069FE62680D48C2F3800264
:105F00000A2110F062FECBE70022DEE76FF00A05FF
:105F1000C6E76FF01505C3E76FF04405C0E76FF003
:105F20003605BDE7000000202300002018000020F7
:105F30002C00002013B50B21104810F0A8FED0B1A2
:105F400006210E4810F0A3FEA8B908210B4810F056
:105F50009EFE80B101A90A48FEF7C2FE044650B970
:105F60000120FFF76BF918B12146019800F0E8FA1B
:105F7000019811F05FF902B010BD00BF2C000020A5
:105F800018000020F0B5057885B004469DB13C2D81
:105F900040D16FF04001434810F008FE0020FEF7AA
:105FA00081FE0446B0B34572002100F0C9FA2046D4
:105FB00011F040F92EE00379B0F80160023B051DB5
:105FC000012BB7B2294602A826D810F0D2FD9DF8C1
:105FD00008300622023B04F111010DF101008DF899
:105FE000083010F0C8FC01238DF80030E378012B55
:105FF0000CD102A8FEF756FEE378012B054604D12A
:106000006FF04001274810F0D1FD65B907213846EF
:1060100010F0E9FE05B0F0BD10F0ABFD2946684672
:1060200010F0A7FDE2E7284602A920F8786B10F0EF
:10603000A0FD227EE37D43EA0223A5F88E30A27EF6
:10604000637E43EA0223A5F89430E37E227F43EA8D
:106050000223A5F89630E378EB700024012B6C72D4
:1060600016D1694605F17F0010F083FD297A0E4EA6
:10607000C1EBC101314405F1860010F07AFDD6F87C
:10608000AC10224601F04003134301D0FFF752FF4A
:106090000621284600F054FA2846FFF75DF9284605
:1060A00086E700BF2C0000200000002038B5054620
:1060B000054812F040FA044620B10021083012F0E1
:1060C00059FA2575204638BD48080020D0B50F463E
:1060D0004FF02003EFF3118283F31188BFF36F8F2A
:1060E0000D4B0021D3F8E840C3F8E81082F3118883
:1060F000BFF36F8F34B902463B460120BDE8D04064
:10610000FFF7D4BF012304F108002375A18112F029
:1061100031FA2046D0BD00BF0000002070B5044613
:106120000E2C0D461046194614D30F2C0ED9132CE5
:1061300010D10D4812F0FFF9044628B100210830B3
:1061400012F018FA01232375204670BDBDE8704097
:10615000FFF7BCBF02460B460DB10448EAE7012039
:10616000BDE87040FFF7A2BF70080020D0070020F4
:1061700000230146C0E90133C360014812F070BC3E
:106180005007002038B5094B1C680546697A2CB9C0
:1061900051B92846BDE8384002F01CB823680BB15D
:1061A000284698472469F1E738BD00BF74090020EC
:1061B00070B5044600F1340600220023304612F088
:1061C000BFF9054658B9204610F073FF04F1580195
:1061D000002200230648BDE870400FF06DB96869E1
:1061E00008B1FFF7C5FF28460DF06EFCE4E700BFDD
:1061F000BC2000202DE9F84304460E4691461F4678
:106200004D694FF0FF334FF0FF323D480FF036F845
:10621000A37A062B43D1042106F1080012F0F6F907
:106220002288B38942EA0932043B028043804FF05E
:106230002003EFF3118283F31188BFF36F8F002DDA
:106240003FD000232B60A369002B37D1C4E905554B
:1062500082F31188BFF36F8F022333753046FFF747
:1062600051F8002849D04FF02003EFF3118183F358
:106270001188BFF36F8F002D39D06369002253B1AD
:106280009D4231D12B684ABBA2696361954200D11E
:10629000A36100232B6081F31188BFF36F8F18482F
:1062A0000EF0C6FF15B12846FFF762FF1FB130465A
:1062B0000DF00AFC00273846BDE8F8831D60A56193
:1062C000C6E7A36933B103F10C08DB680133C8F8F2
:1062D0000030BDE704F11C08E369F7E71360A36928
:1062E0009D4208BFA261D4E71A461B68C7E7D8F8E9
:1062F0000030013BC8F80030CDE70127DBE700BFE5
:10630000B400002000487047B4000020031D70B5A1
:106310000446184610F0C7FE820519D5B4F88E2041
:10632000B4F89010914213D8B4F8921091420FD360
:10633000D4E9251291420BD1BFF35B8F53E8002FB4
:1063400022F4007243E800210029F7D1BFF35B8FEC
:10635000074B1D6805B970BDEE683EB1B4F89630C4
:10636000B4F89420B4F88E102046B0472D69F1E7B8
:1063700074090020F8B5074608460E4610F005FDE2
:10638000054610B900252846F8BD094B1C68002CAD
:10639000F9D0A3680BB92469F9E731463846984724
:1063A0000028EFD0304610F0F0FC0028F3D1E9E7E8
:1063B00074090020024B1A6802611860704700BF20
:1063C000740900202DE9F0419846837A062B064691
:1063D0000D46174605D008460DF076FB6FF03800E5
:1063E00015E062B30EF01EFF164B8342164807BF3E
:1063F000002200234FF0FF324FF0FF330EF09CFBE2
:10640000044630B928460DF05FFB6FF03600BDE85A
:10641000F081B37A062B06D028460DF055FB2046B6
:10642000FFF7A6FEDAE70023C0E90178C3606861E0
:1064300006F13400294612F0A1F80020E7E76A616E
:10644000F6E700BFD4200020500700201A4B10B5FB
:10645000002201219A6004460FF096F9174B03F1D0
:10646000540010F020FE194608B9012010BD9A7A98
:106470009AB9BFF35B8F1A1D52E8000F20F0400C51
:1064800042E800CEBEF1000FF6D1BFF35B8F4206AB
:1064900003D51846FFF78CFEE7E78B7A062BE4D18D
:1064A000074B04F11400002204210FF06DF90123C1
:1064B00084F820300220D9E7AC010020A809002090
:1064C000DC0900202DE9F041194C04F15406804606
:1064D00030460F4610F0E7FD054610B10020BDE83C
:1064E000F0810146A822204610F06FFA114904F10C
:1064F000580012F07BFC104BA562C4E90B35012556
:10650000BFF35B8F56E8003F46E80052002AF9D1FE
:10651000BFF35B8F0722394604F1780084F80880C6
:1065200010F029FA054BA570C4F890302046D6E744
:10653000A809002099670000437101001800280095
:1065400070B5857A8D42044600F09780817215B946
:10655000543010F0C6FDA37ACBB1062B40F08D80ED
:10656000A378042B00F0898004F1340012F06CFA57
:10657000002142480FF074F900232046C4E9133388
:1065800000F05CFA2046BDE87040FFF7FBBDA37841
:10659000042B05D104F15400BDE8704010F094BD07
:1065A000013D062D69D801A353F825F06D66000062
:1065B00095650000956500006D6600006D66000041
:1065C000C9650000C96500002D4D00264FF020036D
:1065D000EFF3118283F31188BFF36F8FE3694BB13F
:1065E000013BE36182F31188BFF36F8F28460EF001
:1065F0001FFEEBE7606928B1A16903686361884207
:1066000008BFA36182F31188BFF36F8F88B14FF089
:106610002002EFF3118382F31188BFF36F8FC268FA
:10662000E261C66083F31188BFF36F8FFFF7A0FDAF
:10663000DCE7204610F062FDA378012B03D104F1C2
:10664000580012F0DBFBBFF35B8F043454E8003FCB
:1066500043F0400344E80032002AF7D1BFF35B8FD8
:1066600000210648BDE870400FF0FAB8637A002BAD
:1066700090D02046FFF786FD8CE770BDAC0100206E
:10668000B400002010B50B4C024604F1540010F089
:106690000AFD58B1A37A063B012B08D82388934200
:1066A00005D104F1540010F01CFD204610BD00205F
:1066B000FCE700BFA809002010B50C4C034604F10C
:1066C00054000A4610F0EFFC08B9002010BDA17874
:1066D0000129FAD11946204610F083FD0028F4D094
:1066E00004F1540010F0FDFC2046EFE7A80900205B
:1066F00070B5104C054604F15400164610F0D3FC5A
:1067000008B9002070BDA378012BFAD151B9A37A42
:10671000B342F6D1237AAB42F3D1074810F0E1FC43
:106720000448EFE70A462046294610F05AFD0028A3
:10673000EDD1E6E7A8090020FC09002038B50446A1
:1067400008460D4610F021FB08B3124B93F8A03019
:10675000990707D4E37873B129462046BDE838404D
:1067600000F0C6B994F89C309A07F3D5201D10F0BC
:106770009AFC4305EED42946204610F05EFD28B968
:10678000AB88A4F89830EB88A4F89A3038BD6FF045
:106790001500FBE7000000207FB510F84E3C0446D2
:1067A000A0F15806A3B9304610F0C9FD204B1D6872
:1067B00035B9201F10F088FCFFF7BCFB04B070BD9A
:1067C0006B681BB114F84F1C304698472D69EFE7F2
:1067D00010F8563C012BF1D1BFF35B8FA0F15405AB
:1067E00055E8003F23F4007245E800210029F7D165
:1067F000BFF35B8F9B0514D5A36B0093236C0193B0
:1068000069463046FFF79AFFBFF35B8F55E8003FBC
:1068100043F4807345E80032002AF7D1BFF35B8F61
:10682000CCE7044A5168106802AB03C302A9E8E749
:10683000740900201094010038B50D46064900285F
:1068400008BF084611F077FE044618B1291D08302C
:1068500011F090FE204638BD800700200146014817
:10686000FFF7EABFF80700202DE9F04106464FF098
:10687000FF334FF0FF3200200C46FFF7EFFF337875
:10688000062B05464FF0000605D00DF01DF93546E4
:106890002846BDE8F081466100F108070C4E3846F5
:1068A000B6F8B08011F0D6FE80450CD2B6F8B060D4
:1068B00054F8081F3246384611F097FE31462046FC
:1068C00011F0ACFEE4E7384611F0C4FE86B2EFE703
:1068D00000000020F8B5837A054693B9BFF35B8FBB
:1068E000031D53E8002F22F0400143E80014002C60
:1068F000F7D1BFF35B8F530603D5BDE8F840FFF730
:1069000057BC0022002305F1340011F019FE0446A3
:1069100060B940F226631F4A1F4920480FF0E1F991
:10692000404080F311884FF0030002DF1C4EA18924
:10693000B6F8B020914207D800231A4621462846CF
:10694000FFF758FC40B1F8BD05F10A07214638466B
:10695000FFF78AFF014620B92046BDE8F8400DF058
:10696000B3B8012300222846FFF744FC0028F3D0E7
:10697000A289B6F8B0309A4202D800230122DDE79E
:1069800021463846FFF770FF01460028E4D0012376
:106990001A46E8E73AA8010027A8010090A70100DD
:1069A00000000020034BC01A034BC0105843C0B274
:1069B000704700BFA80900203DCFF33C08B508B1DF
:1069C000002008BD044810F06EFB0028F8D00248F3
:1069D00010F087FB0148F4E7FC090020A80900201B
:1069E00010B50B490B4812F03BF80B49094812F05F
:1069F00037F80A49074812F033F811F0C7F811F0D8
:106A000097FD044608B910F026FD204610BD00BFD2
:106A100078090020500700208809002098090020EC
:106A2000044B186818B9044A5A600B6070476FF03D
:106A30000B007047500A0020609601002DE9F743D3
:106A4000284D294FDFF8A4800646BD4202D303B08B
:106A5000BDE8F0836B6801A93046984700283CDB0D
:106A6000019C2B88A386A4F84030414604F1100015
:106A7000D5F8089012F0BAF9BFF35B8F04F1300338
:106A8000002253E8001F43E800200028F9D1BFF39B
:106A90005B8FA260326D04F1080302BBC6E91333B9
:106AA000019826604368C4F80C901B6803B19847AE
:106AB000019BBFF35B8F303353E8002F42F001029C
:106AC00043E800210029F7D1BFF35B8F01984368A9
:106AD0009B6913B100F1300198470C35B5E713609D
