:1010000000000420B5120000DD120000DF12000015
:10101000E1120000E3120000E512000000000000F1
:10102000000000000000000000000000E7120000C7
:10103000E912000000000000EB120000ED120000B9
:10104000EF120000EF120000114500007145000092
:10105000EF120000EF120000EF120000EF1200008C
:10106000EF120000EF120000EF120000EF1200007C
:10107000EF120000EF120000EF120000EF1200006C
:10108000EF120000EF120000EF120000EF1200005C
:10109000EF120000EF120000EF120000EF1200004C
:1010A000EF120000EF120000EF120000EF1200003C
:1010B000EF120000EF12000000000000000000002E
:1010C000EF120000EF120000EF120000EF1200001C
:1010D000EF120000EF120000EF120000EF1200000C
:1010E000EF120000EF120000EF12000000000000FD
:1010F00000000000EF12000000000000EF120000EE
:1011000000000000000000000000000000000000DF
:1011100000000000000000000000000000000000CF
:1011200000000000000000000000000000000000BF
:1011300000000000000000000000000000000000AF
:10114000000000000000000000000000000000009F
:10115000000000000000000000000000000000008F
:10116000000000000000000000000000000000007F
:10117000000000000000000000000000000000006F
:10118000000000000000000000000000000000005F
:10119000000000000000000000000000000000004F
:1011A000000000000000000000000000000000003F
:1011B000000000000000000000000000000000002F
:1011C000000000000000000000000000000000001F
:1011D000000000000000000000000000000000000F
:1011E00000000000000000000000000000000000FF
:1011F00000000000000000000000000000000000EF
:1012000010B5054C237833B9044B13B10448AFF340
:1012100000800123237010BD0C020020000000009C
:10122000908E000008B5034B1BB103490348AFF390
:10123000008008BD0000000010020020908E000019
:10124000154B002B08BF134B9D46A3F5803A002198
:101250008B460F461348144A121A07F0A2FB0F4B95
:10126000002B00D098470E4B002B00D09847002051
:10127000002104000D000D48002802D00C48AFF3F7
:10128000008007F03FFB2000290004F06BF907F015
:1012900025FB00BF00000800000004200000000043
:1012A000000000000C020020DC0D00200000000007
:1012B000000000000649074A074B9B1A03DD043B68
:1012C000C858D050FBDC07F027FAFFF7B9FF000041
:1012D000E88E0000080000200C020020FEE7FEE778
:1012E000FEE7FEE7FEE7FEE7FEE7FEE7FEE7FEE7D6
:1012F000F0B595B0002415460F4608461E4602F08C
:101300008BFF384623460895082205A91A9D0996A1
:101310000D950A948DF82C400C9402F0D7FF9DF89F
:1013200014308DF81140DDE9061003F00302012AA4
:10133000CDE9020127D0022A04D0384602F070FF1E
:1013400015B0F0BDBDF81650C3F3C2038DF81030D0
:10135000AD090826082D2C4628BF0824334622460E
:101360000EA9384602F0B2FF2D1B214608AB02AA97
:101370000EA8264400F01EFD002DEBD1384602F0E9
:101380004FFF15B0F0BDBDF81460059DC6F3831680
:10139000C3F3C204B2000EA9384608238DF81040EA
:1013A000C5F3952502F092FF08AB324628460EA9F8
:1013B000009302AB00F058FC384602F031FF15B044
:1013C000F0BD00BF704700BF00B583B0044B009371
:1013D000044A4023FFF78CFF03B05DF804FB00BF15
:1013E000E91300002C02002038B50E480E4D03789A
:1013F0000E4CEB5C0025D2B2257053B90C3003F0D3
:10140000A5FD58B90A4B1B7813B12378002BFCD0EB
:1014100038BD043004F050F80028F3D000F0ACFDE3
:10142000F0E700BF08000020D80D00206C0200206B
:101430002802002070B51348134A0378D35C88B0A3
:10144000DBB90C3003F004FD104D0FCD6C460FC41A
:1014500095E80F0008AD102645F8206D84E80F00D0
:1014600029460022074803F00FF808B100F084FD78
:10147000074B00221A7008B070BD043003F082FFE1
:10148000E2E700BF08000020D80D0020F889000026
:101490002802002070B50D4D0FCD88B06C460FC4EA
:1014A00095E80F0008AD102645F8206D84E80F0080
:1014B00029460022064802F0E7FF08B100F05CFD73
:1014C000044B00221A7008B070BD00BFF8890000FC
:1014D000080000202802002008B5FFF7DBFF0421E8
:1014E000034800F077FB034B01225A7108BD00BF8F
:1014F000BC8E00001C000020F0B5324C85B004F515
:10150000836002F043F804F2144002F03FF8D4E99B
:10151000013703EA0702D01C04EB800114F8200015
:1015200010F0040044D003F1020C0E7806F003061C
:10153000012E654635D0022E02F1030621D004EBC0
:1015400086010028F1D104EB82020133D2680192B6
:101550003B4004EB830302F00302012ADE6829D03A
:10156000022A23D1BDF806309B090333360C05EB64
:101570009305154802F016F800B16560304605B0D5
:10158000F0BD4B880CEB931307EA0302D11C03F167
:10159000020C14F82100654604EB810100F0040000
:1015A000CFE70B88C3F383136344EDE70026E0E73E
:1015B0009D1CC8E7BDF80430C3F38313360C1D44EB
:1015C000D7E700BF40030020540700200B4B0C4816
:1015D00010B50022FF2401219C60C3F8182483F871
:1015E0002014C3E90022C3F8142402F0D1FD0446FC
:1015F00010B9044802F09EFE204610BD40030020B2
:10160000CC8E0000388A000021B9124B03EBC000D9
:1016100000687047104A0F49521AD20815D030B4EA
:101620000E4D2B88834212D0002303E035F823406F
:10163000844205D001339A42F8D1002030BC704773
:1016400001EBC300006830BC704710467047084685
:10165000F8E700BF948E0000BC8E00000C02002052
:10166000094B013903EBC00003290BD8DFE801F077
:1016700002080604022070474079704700797047DD
:101680000420704700207047948E00002DE9F84335
:10169000DFF8D890074600208846D9F8084001F0C6
:1016A00041FFD9E90132D9F80060134401339B1B93
:1016B000012B56D809F21C450121284601F04EFFA6
:1016C000FFF71AFF0146284601F048FFD9E9013229
:1016D000D9F80010134401335B1A012BECD90A40EE
:1016E000033205230231002049F82230C9F80010E6
:1016F00001F020FF00211C4801F026FF80F31000BC
:10170000731C234009EB830300043440033440EA94
:101710001740D86019F8243067F3C50309F824305E
:1017200039F824306FF3891329F8243059F824202C
:1017300068F39F221346012161F301036FF38203D3
:1017400049F8242009F8243099F820341BB906E020
:1017500000F00EF818B1D9E900329A42F8D1BDE88C
:10176000F8833146BBE700BF5C0700204003002040
:101770002DE9F047914C002384B0C4F81834BFF32E
:101780004F8FD4E9015605EA0602D31C04EB83010E
:1017900014F82330580719D527680B7803F0030392
:1017A000012B43D0022B03D14B88023505EB931557
:1017B00006EA0502D4F81804D31C04EB830128B907
:1017C000AF4239D914F823305B07E6D404EB820228
:1017D0006B1CD2680192334004EB830302F00302D6
:1017E000DB680293022A05F1020700F08980012AD2
:1017F00026D0D4F810543DB12B6828469B689847F2
:10180000EB681D68002DF7D16D486E4B6E49C01A0C
:10181000C008000440F00200FFF738FFD4E90030B0
:10182000C01A18BF012004B0BDE8F0870B8802354C
:10183000C3F383131D44BBE7676004B0BDE8F087C2
:10184000BDF804206148C2F38313062B28BF06238A
:1018500063F3891202339900ADF8042002F09AFC78
:1018600080460028C5D002F0D7FC0023082201A939
:10187000404602F0F7FCBDF8043013F4707F00F02E
:101880009B806FF0010AAAEB050A082506EA07010A
:1018900003312B46042204EB8101404602F0E2FCB6
:1018A000BDF8043007F101090AEB0902C3F3831301
:1018B00093424F4605F10405E8D8D4F81834002BBC
:1018C00064D1D4F8105465B1EB685A792846414682
:1018D000002A57D02B681B689847EB681D68002DBD
:1018E000F2D1404602F09CFC002001F01BFED4F82F
:1018F00018340BB9C4F80490002001F01BFE8DE7EA
:10190000BDF8063031484FEA93194D46502D28BF97
:10191000502565F38F1305F10801ADF8063002F08C
:1019200039FC804600283FF464AF26EA070A0AF132
:10193000010A02F071FC4FEA8A0A0023082201A979
:10194000404602F08FFC55452BD9EBB2BAF1000F9F
:1019500020D006EA0701A3EB0A03033104EB81015F
:10196000DDB252460823404602F07CFC2A460AF1CA
:1019700008031749404602F075FC09F1030907EB1B
:1019800099099AE71D68002D9ED1AAE7404602F00A
:1019900047FC43E72A4608230D49404602F062FC13
:1019A000EBE706EA0701033104EB81012A4608232D
:1019B000404602F057FCE0E7B9467EE740030020CE
:1019C000B48E0000948E0000448A0000CC8E00008B
:1019D0004C0300202DE9F047DFF8E4A00746002083
:1019E00091468846DAF8084001F09CFDDAE90132B8
:1019F000DAF80060134401339B1B022B5CD80AF217
:101A00001C450121284601F0A9FDFFF775FD01469F
:101A1000284601F0A3FDDAE90132DAF80010134498
:101A200001335B1A022BECD90A4003320331452300
:101A300000204AF82230CAF8001001F07BFDB31CE8
:101A400023400AEB830300211C48C3F80C9001F0EB
:101A50007BFD80F31000731C23400AEB830300041A
:101A60003440033440EA1740D8601AF8243067F352
:101A7000C5030AF824303AF82430012161F38913B0
:101A80002AF824305AF8242068F39F22134661F381
:101A900001036FF382034AF824200AF824309AF8ED
:101AA00020341BB906E0FFF763FE18B1DAE9003213
:101AB0009A42F8D1BDE8F0873146B5E75C070020CF
:101AC000400300202DE9F84F3A4C80460020934611
:101AD0009A468946A56801F025FDD4E901322768B8
:101AE00013440133DB1B032B61D804F21C46012194
:101AF000304601F033FDFFF7FFFC0146304601F0B0
:101B00002DFDD4E901322168134401335B1A032B04
:101B1000EDD90A40033204318523002044F82230F5
:101B2000216001F007FDBA1CFB1C2A402B4004EB8E
:101B3000820204EB830300211F48C2F80CB0C3F8F3
:101B40000CA001F001FD80F310007B1C2B4004EB86
:101B5000830300043D40033540EA1840D86014F880
:101B6000253068F3C50304F8253034F82530022207
:101B700062F3891324F8253054F8252069F39F2255
:101B80001346012161F301036FF3820344F825201A
:101B900004F8253094F820341BB906E0FFF7E8FD7F
:101BA00018B1D4E900329A42F8D1BDE8F88F39462D
:101BB000AFE700BF400300205C070020044BD3E9DF
:101BC00000239A4201D0FFF7D3BD0020704700BF29
:101BD0004003002030B4184DD5F8104400215CB10A
:101BE000E3681A798A4204D116E0DB681A798A42DE
:101BF00012D01B68002BF8D1C3681971D5F81034C6
:101C000093B1DA68C36812681A60D5F81034DB68DB
:101C1000186030BC0846704701310A29DFD14FF007
:101C2000FF31084630BC7047C5F81004C268136025
:101C3000084630BC704700BF4003002038B5094B50
:101C4000D3F81044012583F820544CB1E3685D714A
:101C5000236820465B689847E3681C68002CF5D130
:101C600038BD00BF400300202DE9F04784B01D4679
:101C70000C9C002394F80C802373EB8881460E465D
:101C80001746002B40D1297A05290ED06B7AA888F7
:101C900073BB404B53F821A00021FFF7B5FC52461F
:101CA00003463D49204601F04DFE062F09D8DFE8E6
:101CB00007F0046A4249525D33004946204601F06C
:101CC00041FE2B7A052B05D06B7A5BB93349204650
:101CD00001F038FE204601F029FE84F80C8004B0A3
:101CE000BDE8F0872E4A2F49204601F02BFEEDE794
:101CF000FFF7B6FC2C4B2B4953F82020204601F06F
:101D000021FE297AA888C4E7254A00922749284A53
:101D1000204601F017FEB6E7D6E90410D6E9002305
:101D20000390D6E902070291CDE900074946204613
:101D300001F008FEC5E74946D6E90023204601F038
:101D400001FEBEE7B168D6E900232046009149466E
:101D500001F0F8FDB5E7D6E90201D6E900230191CB
:101D600000904946204601F0EDFDAAE7D6E903714F
:101D7000B068D6E900230291CDE900074946204624
:101D800001F0E0FD9DE732684946204601F0DAFDAA
:101D900097E700BFD08A0000C08A0000CC8A00000C
:101DA000B48A0000BC8A00005C8A00009C8A0000A3
:101DB000948A0000082900D970472DE9F04F1D468C
:101DC000904600232A7B2B7385B0B8F80630039227
:101DD00007460E46002B7BD198F80810052911D034
:101DE00098F80930B8F80400002B63D13C4B53F845
:101DF00021400021FFF708FC2246034639492846C6
:101E000001F0A0FDDFF8FCB0DFF8FC90002405E055
:101E10003A5D013401F096FD082C09D0A6424946EE
:101E20002846F5D85946013401F08CFD082CF5D12F
:101E30002D49DFF8D8B0DFF8D890284601F082FDB0
:101E400000240CE017F804A0BAF17E0F23D92E224B
:101E500049462846013401F075FD082C08D0A642F9
:101E6000F0D859462846013401F06CFD082CF6D113
:101E700098F80830052B02D098F80930A3B91B490F
:101E8000284601F05FFD284601F050FD039B2B73AF
:101E900005B0BDE8F08F06F059FD50445246437836
:101EA00013F0970FD3D0D3E7114A1249284601F017
:101EB00049FDE4E7FFF7D4FB0F4B0E4953F8202010
:101EC000284601F03FFD98F80810B8F804008DE7A7
:101ED000074A009209490A4A284601F033FD7BE788
:101EE000D08A0000C08A00008C8A0000CC8A0000E2
:101EF000B48A0000BC8A00005C8A00009C8A000052
:101F0000948A0000888A0000808A0000C88A000045
:101F1000908A0000C10707D4830742BF4FF0A04357
:101F20000C22C3F84C2770474FF0A04311490322FD
:101F300070B4C1F81C278026C3F874274FF00055F1
:101F4000C3F878274FF08044C3F87C274FF0004255
:101F5000C1F80865C3F80855C3F80845C3F8082553
:101F6000820704D54FF0A0430C22C3F84C2770BC65
:101F7000704700BF0003005000B585B000230390F8
:101F8000194601AA44F20100CDE9013300F004F83A
:101F900005B05DF804FB00BF10B572B6FFF74EFE4A
:101FA000FFF70CFE0028FBD1104B114C1149E41A2D
:101FB000E408240444F00100FFF768FB0E4B1B68A3
:101FC000DB0700D500BE44F002000C49FFF75EFBC2
:101FD000BFF34F8F0A490B4BCA6802F4E062134308
:101FE000CB60BFF34F8F00BFFDE700BF948E0000B2
:101FF000B48E00003C8B0000F0ED00E0488B000048
:1020000000ED00E00400FA052DE9F04FA14DEC8B46
:1020100040F2D916B44285B000F0C980B4F5ED7F26
:102020009B4649D2002C00F0F08040F2C716B44223
:1020300052D195F82340032C40F0B9802C8C013408
:10204000A4B244F62066B4422C8474D84FF0040C39
:1020500044F6206E79B10478FF2C18BF064641D1B2
:10206000013003E010F8014BFF2C3BD1013911F096
:10207000FF010646F6D195F858301F2B61D9864AE4
:1020800003F01F0301218548019101FA03F3C2F80F
:102090000C3500F11004102300900022694680489E
:1020A000CDE9024302F034FC002840F0F08040F219
:1020B000C713EB8301200CE0B4F5F07F00F0B38090
:1020C000B4F5F67F08D1002285F8232002201A708B
:1020D000EA8305B0BDE8F08F00230320EB8305B051
:1020E000BDE8F08FFE2C40F0C8800139C9B29142A2
:1020F000894628BF914685F823C0701CB9F1000FAE
:1021000022D006EB090A3446A71B14F8018FEB68AE
:10211000A24503F80780F7D1EC6895F82360A5F88D
:1021200018904C44032EEC6043D12C8C0134A4B2A3
:1021300074452C848ED9022000228BF80000EA839B
:10214000C7E74FF0A0429DE795F85810A5F8189002
:102150000B46A2EB0904A4B2F02C28BFF0241F2BDD
:1021600084BF01F01F034C48EA68029298BF4FF009
:10217000A040012101FA03F3C0F80C350191474B4F
:102180004748039400226946009302F0C1FB08B15E
:10219000FFF7F2FE2A8BEB6801202344144440F23F
:1021A000D912EB602C83EA8305B0BDE8F08FB5F857
:1021B000189095F858304A451946CAD8EA8A3748DF
:1021C00000901F2B02F1FF3288BF3349EA8298BF8B
:1021D0004FF0A0414FF0010288BF03F01F0302FA45
:1021E00003F3C1F80C3500F1100401920223002220
:1021F00069462B48CDE9024302F08AFB002843D10F
:102200004FF4F073EB83012063E7AC8AEC826CB18E
:10221000FF26002485F828602C830326012485F8F6
:1022200023602C8412E7EC8A0021F0E795F858200F
:102230001A4800901F2A4FF0FF0384BF02F01F02CC
:10224000154985F8283098BF4FF0A041012301932C
:102250009340C1F80C3500F11004022300226946B6
:102260000F48CDE9024302F053FB08B1FFF784FEAB
:102270004FF4F673EB8301202BE7052100228BF846
:1022800000100220EA8324E7FFF776FEB8E7FFF7A5
:1022900073FE0CE7FC070020000300502408002018
:1022A0005C8B0000F0B5C34CC568E78A017C87B041
:1022B00067B994F858201F2A86BF02F01F02BE4E4D
:1022C0004FF0A04601239340C6F8083594F82360E8
:1022D000731E012B0CD994F82220013A042A00F233
:1022E0001681DFE812F058008D001401E3002A0087
:1022F000436818788B1F4C28DBB205F1060200F00A
:102300002681002B00F00E811178FF2918BF154699
:102310000BD10132013B13F0FF03154600F0FC80A6
:102320001178FF2902F10102F4D01946022E00F0C3
:102330001881002684F82360CDE7A38BB3F5397F9D
:1023400000F0F98440F2E68140F20A32934200F054
:10235000A18440F2BC82B3F5487F00F0C484B3F599
:102360004C7F40F0B98469B12B78002B40F0F085A8
:102370006B18013504E015F8012B002A40F0E885C0
:102380009D42F8D194F85820032E114600F0A08603
:102390000023A383B2E20222002384F82220A38335
:1023A000002E40F05C8494F8581040201F294FF014
:1023B00001034FF41542A06284BF01F01F017E4863
:1023C00084F8233098BF4FF0A04084F82430A285D1
:1023D0007A4B029301228A40C0F80C25103306265E
:1023E0000F25002202A9764804930396059502F072
:1023F0008FFA002840F034844FF40473A38389E0FB
:10240000A38BD5F801202878B3F50E7F12BA00F01F
:10241000CA8340F2288140F26127BB4200F00C835E
:1024200040F20B8240F26B22934200F07C8340F238
:102430007122934240F0BF8302AE284633461022F9
:10244000FFF7E2FD012865D99DF80820002A00F079
:10245000FB840023A38394F858308DF809200021D1
:1024600003221F2B8DF8081084F8222000F2DB8253
:1024700001224FF0A04102FA03F3C1F8083594F8A5
:102480002230002B00F01A8394F82230032B00F046
:10249000C4841120FFF770FD4A4B4FF00042C3F88F
:1024A000242530462368984707B0F0BDA38B40F23F
:1024B0009A22934200F0938040F2A220834200F0DF
:1024C000C382002B00F082800023A383062294F8AD
:1024D00058308DF8092003211F2B4FF0000284F89B
:1024E0002210626184F8232086BF03F01F03324963
:1024F0004FF0A041012202FA03F301208DF80800F9
:102500002268C1F8083502A8904707B0F0BD032043
:10251000FFF732FD07B0F0BD4C2803D1551E40F047
:10252000E185012394F82220012A00F0F08094F83C
:1025300022300122013B8DF80920042B00F2718228
:10254000DFE813F0640164016F025D014401002BB8
:10255000E4D0CB1F13F0FF0305F107027FF4D4AEE4
:10256000DCE7012384F823302B7813F0FE0F7FF48F
:10257000E0AE94F8581094F82430134C02941F29BC
:1025800086BF01F01F010C484FF0A0400E3301221E
:102590008A40DBB2C0F80C25059304F10A05062336
:1025A000002202A90648CDE9033502F0B1F900285E
:1025B000B0D0ADE7FC070020000300502408002045
:1025C0005C8B0000003000402A080020287810F0C2
:1025D000FC0F40F0B1844B1ED9B20135E2612846B0
:1025E0000DF107034FF40072FFF70EFD012891D99A
:1025F0009DF80720002A40F05284A38A012B40F264
:10260000238294F82330002B40F03C8394F8581038
:102610004C201F294FF001034FF47F42A06284BF7A
:1026200001F01F01C54884F8233098BF4FF0A04047
:1026300084F82430A285C24B029301228A40C0F85C
:102640000C25103306260F25002202A9BD4804934D
:102650000396059502F05CF9002840F0148340F2DF
:10266000A223A38356E740F21322934200F065822F
:10267000B3F5057FC0F06A8140F21922934200F061
:102680009F8240F22622934240F09582450740F116
:10269000DE81A37A012262F30203A372238C013349
:1026A0009BB2B3F5FA6F238400F24A84002E40F007
:1026B000F28394F8581041201F294FF47F424FF0C5
:1026C0000503A06284BF01F01F019C48A28598BF4A
:1026D0004FF0A04084F824300122994B02938A40A5
:1026E0000125C0F80C2584F8235010330626132545
:1026F000002202A9934804930396059502F008F975
:10270000002840F0C9834FF40E73A38302E71946F3
:1027100000250BE640F2C322934200F04E8140F2C6
:10272000D322934200F00783002B40F0D5822A7811
:1027300012F0FC0F40F04584A27AA38A02F007024F
:10274000012A00F01584012B40F21284002E40F083
:102750007584236994F8582084F82C3001211F2AAD
:102760004FEA13654FEA13404FEA132384F823100E
:1027700084F8241084F82A0088BF704984F82B302C
:10278000104694BF4FF0A04102F01F006C4B84F83C
:102790002950012282405926FF25C1F80C2584F8D2
:1027A000286084F82D500293062610330F2500224E
:1027B00002A9644804930396059502F0A9F800283D
:1027C00040F03D8440F2C323A383A3E694F858204D
:1027D000022311468DF808301F2A86BF02F01F0120
:1027E00056484FF0A04001238B400322C0F8083523
:1027F000236884F8222002A8984707B0F0BD94F817
:102800005820012311468DF80830E5E7032384F8AA
:10281000223094F8223000228DF80820002B00F09E
:10282000958394F82230032B00F039841120FFF7B0
:10283000A3FB94F858201146CEE740F24D218B427D
:1028400000F0058140F253218B4240F0B48110F03A
:10285000FC0F40F0F480530003D5A37A43F0080343
:10286000A372A37A03F00703032B00F02981002E43
:1028700040F0CB8294F85810334BA3621F294FF0DD
:1028800001034FF47F4284BF01F01F012B4884F8FD
:10289000233098BF4FF0A04084F82430A285284B05
:1028A000029301228A40C0F80C25103306260F251A
:1028B000002202A9234804930396059502F028F804
:1028C000002840F0A38240F26123A38322E6B3F5FF
:1028D0003B7F40F0018294F83A3094F8582003F09E
:1028E0001F03052B114600F047830B2B00F06F836D
:1028F0000D2B00F06C830023A38304231F2A4FF0C9
:1029000003008DF809304FF0000384F8220084BFE3
:1029100002F01F01094884F8233098BF4FF0A0400F
:10292000636101238B400225C0F808358DF80850FB
:10293000226802A8904707B0F0BD00BF0003005016
:10294000240800205C8B000050000002002B3FF4A4
:1029500027ADB3F5047F40F02E81002E40F08E812C
:1029600094F8581040201F294FF001034FF41542EE
:10297000A06284BF01F01F01BB4884F8233098BFD8
:102980004FF0A04084F82430A285B84B0293012276
:102990008A40C0F80C25103306260F25002202A914
:1029A000B34804930396059501F0B2FF002840F068
:1029B000668140F21323A383ACE52B7894F858206A
:1029C00013F0FC0F114696D1A38AE3821846002B20
:1029D00040F0E48101287FF6DBAC1F2A4FF6FF535D
:1029E00084BF02F01F01A048238598BF4FF0A0408C
:1029F00001229E4B029302FA01F1C0F80C1510332C
:102A000002260325002202A99948049303960595FE
:102A100001F07EFF08B1FFF7AFFA4FF44873A383CC
:102A200078E5032003E703F01F0301228E4902FA31
:102A300003F3C1F8083522E510F0FC0F40D0002365
:102A4000A383042202AE06E50022A2833FE510F034
:102A5000FC0FF4D1C20700F12682002E40F06882FC
:102A600094F858107A201F294FF47F424FF0050345
:102A7000A06284BF01F01F017B48A28598BF4FF080
:102A8000A04084F824300122784B02938A4001252B
:102A9000C0F80C2584F82350103306261325002295
:102AA00002A9734804930396059501F031FF0028AD
:102AB00040F03F8240F25323A3832BE50820E9E452
:102AC0006C4BE3600123A382002E40F0C48094F895
:102AD000582084F8233049201F2A4FF47F41A062F8
:102AE00084BF02F01F02604884F8243098BF4FF082
:102AF000A0405E4BA185012101FA02F2C0F80C252D
:102B00000293062610330F25002202A95848049389
:102B10000396059501F0FCFE002840F09D8040F2F0
:102B20006B23A383F6E410F0FC0F88D14B1E40F218
:102B30007122D9B20135E2617EE410F0FC0F7FF41E
:102B40007EAF002E40F0658194F858204A4BA36276
:102B500001201F2A48F2AA714FF0050384F82300D0
:102B600084BF02F01F024048A18598BF4FF0A040EB
:102B7000012184F824303D4B029301FA02F2C0F89F
:102B80000C25103306261325002202A93848049389
:102B90000396059501F0BCFE002840F03B8140F211
:102BA0001923A383B6E410F0FC0F7FF448AFC107EC
:102BB0003FF574AD55E60023A383062202AE4AE436
:102BC000470708D4A37A032262F3020310F0FC0F34
:102BD000A3727FF434AFA37A03F00703032B4FF003
:102BE000000314BF1A4640222384002E4ED194F8CD
:102BF000581084F82F207723022269201F2984F897
:102C00002320A3624FF07F424FF0050384F82E008B
:102C100084BF01F01F011448226398BF4FF0A04009
:102C200084F824300122114B02938A404FF47F45EF
:102C3000C0F80C25A585103306260F25002202A911
:102C40000B4804930396059501F062FEF8B940F233
:102C50002623A3835EE41120FFF78EF95FE711209E
:102C6000FFF78AF9FFF7C8BB0003005024080020D3
:102C70005C8B000044080020480000011120FFF791
:102C80007BF996E61120FFF777F9E8E41120FFF7CA
:102C900073F9DCE769B12B78002B40F05E816B188B
:102CA000013504E015F8012B002A40F05681AB42B3
:102CB000F8D194F85820032E114640F0A180238CBF
:102CC00001339BB244F620608342238440F2598151
:102CD0000023A383022311E694F858200023A38342
:102CE000114606230AE694F85820032001231146D2
:102CF00084F8230023841F2A8ABF02F01F014FF0AB
:102D0000A042B54AB5480290012303938B40C2F814
:102D10000C3500F110051023002202A9B048CDE9BE
:102D2000045301F0F5FD08B1FFF726F94FF44C7399
:102D3000A383FFF7EFBB218B94F85830E268B1F51D
:102D4000007F80F05181C1F50075ADB2F02D28BF34
:102D5000F0251F2B0A4488BF9F48029298BF4FF06E
:102D6000A0404FF0010188BF03F01F0301FA03F3F5
:102D7000C0F80C3505919B4B99480395002202A998
:102D8000049301F0C5FD08B1FFF7F6F8228B4FF46C
:102D9000397315442583A383FFF7BCBB022834BFD6
:102DA000FE23FC2304201F2A84F829304FF0FF0360
:102DB00084F8230084BF02F01F01874884F828307C
:102DC00098BF4FF0A0400122844B029302FA01F118
:102DD0000025C0F80C15258310330225002202A916
:102DE0007F480595CDE9035301F092FD08B1FFF747
:102DF000C3F840F2D323A383FFF78CBB00232384C3
:102E00007B1E9BB2A08AE382E1E51120FFF7B4F8B4
:102E100059E51120FFF7B0F8C1E6714801F028FD2F
:102E200094F858301F2B86BF03F01F036A494FF0F8
:102E3000A04103F5E073002241F8232084F8232009
:102E400084F82220FFF728BB94F848309B09012B17
:102E500000F01881C0F0F780022B00F0F48094F8A5
:102E6000583062604FF40070002203211F2B208134
:102E7000A2838DF808208DF8092084F8221040F2F2
:102E8000348103F01F030122534902FA03F3C1F80E
:102E90000835FFF701BB1120FFF76EF833E400237C
:102EA000A383FFF714BB238C01339BB2B3F5FA6FF6
:102EB000238445D8A37A03F00703032B14BF002310
:102EC0004023002E50D194F8581084F82F3002225D
:102ED000772369201F2984F82320A3624FF07F42C3
:102EE0004FF0050384F82E0084BF01F01F013A481B
:102EF000226398BF4FF0A04084F824300122374B62
:102F000002938A404FF47F45C0F80C25A585103305
:102F100006260F25002202A9314804930396059541
:102F200001F0F6FC08BB40F24D23A383FFF7F2BA91
:102F30001120FFF721F8BDE5A3830422FFF7C7BAEC
:102F40000023A383022202AEFFF785BA08206EE4B5
:102F500094F858201146FFF71BBA94F85820002324
:102F6000114684F823304BE71120FFF705F8DAE724
:102F700094F85820114628E5032E7FF43FAF012333
:102F800023841F2A8ABF02F01F014FF0A042124A79
:102F900012480290012303938B40C2F80C3500F1D4
:102FA00010051023002202A90D48CDE9045301F0B9
:102FB000AFFC08B1FEF7E0FF40F20A33A383FFF74E
:102FC000A9BA94F85820A3831146042396E4002359
:102FD000A383052392E400BF0003005024080020CF
:102FE0005C8B00003408002003211F2B02F50072C7
:102FF00084F82310414888BF4149E26098BF4FF0F0
:10300000A0414FF0010288BF03F01F0302FA03F34F
:10301000C1F80C3500F11005039203230290002241
:1030200002A93848CDE9045301F072FC08B1FEF75B
:10303000A3FF4FF43B73A383FFF76CBA1120FEF795
:103040009BFFFFF7BFBB94F84F2094F8505094F8C3
:10305000513094F84E0094F84D10920002EB951206
:103060005B0094F85250800203F0060301F00F0158
:10307000013200F4406003EBD513073902440B44DE
:103080009A40ECE694F8512094F8501094F84F30A0
:10309000013202EB012202EB03429202DFE6194801
:1030A00001F0E6FB94F858201F2A8BBF02F01F03A3
:1030B0001346134D4FF0A04503F5E073002045F88B
:1030C0002300114684F8230084F82200FFF784BB14
:1030D000238C01339BB244F62060834223843FF665
:1030E000F7AD08E60121FFF721B901224FF0A04119
:1030F00002FA03F3C1F80835FFF7CEB9240800201F
:10310000000300505C8B000030B5344B93F8224034
:1031100085B014B393F82240032C1BD1002A59D058
:103120009C7A9A820425240783F8225093F823502E
:10313000DA8258BF49020024012A1961D8608CBF85
:10314000522251229C835DB11120FEF715FF2046CB
:1031500005B030BD112005B030BD082005B030BD30
:1031600093F8584083F8282001221F2C4FEA11655C
:103170004FEA114083F82C1083F823204FEA1121E5
:1031800083F824204FF0FF0283F82B1084BF04F053
:103190001F04134983F8295098BF4FF0A04183F8CA
:1031A0002A0083F82D200F4B00930122A240C1F882
:1031B0000C25103306250F240B4803940022694682
:1031C000CDE9015301F0A4FB0028C4D0FEF7D4FEE2
:1031D0000020C0E7072005B030BD00BFFC0700207D
:1031E00000030050240800205C8B000070B5634B86
:1031F00093F8224084B02CB393F82240032C1ED1C4
:10320000002A60D09C7A9A82052583F822502507EF
:1032100058BF49020025012AC3E90301DA829D83D0
:1032200093F8230011D004F00704012C4ED000289D
:1032300078D01120FEF7A0FE002004B070BD112050
:1032400004B070BD082004B070BD0028F1D193F81F
:10325000584083F82320080C1F2C4FEA116583F88F
:103260002C1083F824204FEA11214FF0FF024FF079
:10327000580683F82B1083F82A0083F82D2083F852
:10328000286083F8295088BF04F01F044FF0010222
:103290003B4B88BF3B493C48009398BF4FF0A0414F
:1032A000A240C1F80C25103306250F2400226946E0
:1032B000CDE90153039401F02BFB08B1FEF75CFE4E
:1032C000002004B070BD072004B070BD0028B0D14C
:1032D00093F8585083F82C105922080C1F2D4FEAF0
:1032E000116683F828204FEA11214FF0FF0283F87E
:1032F0002B1083F82A0083F82D2083F8234083F8CD
:10330000244083F8296088BF05F01F054FF00102B3
:103310001B4B88BF1B491C48009398BF4FF0A0412E
:10332000AA40BEE793F85810184C83F830001F29C4
:103330004FEA122083F832204FF077054FF0010258
:10334000C3E90A5483F8310083F824204FF0FF00CA
:103350004FF0020684BF01F01F010A4C83F83300CE
:1033600098BF4FF0A044012283F823608A40044BA9
:1033700005480093C4F80C2595E700BFFC07002022
:1033800024080020000300505C8B000000FF570061
:10339000F0B53B4C94F8223089B0002B65D1002960
:1033A00060D0C378FF2B5DD04278FF2A5AD00278D4
:1033B000FF2A57D08278FF2A54D01F2B84F8583028
:1033C0008ABF03F01F034FF0A0462E4E0D4603F5B3
:1033D000E0710327012246F8217002FA03F3C6F8D0
:1033E000083500218378067847788DF800308DF80D
:1033F00001600B46FF268DF802704FF0060C8DF829
:103400000C108DF80D104FF000471F4A1F488DF823
:10341000036069468DF805608DF804C0029700F0DE
:10342000B5FF48BBA37A1A49256003F0F8036FF390
:10343000C303002501F11006A37204910123FF21AB
:1034400084F82230059384F828100A231148069640
:103450002A4604A984F82350079301F059FA38B991
:1034600009B0F0BD072009B0F0BD082009B0F0BDDB
:10347000FEF782FD2846F3E7FEF77EFDD2E700BFA8
:10348000FC07002000030050A5220000588B00001C
:10349000240800205C8B000010B5114C94F82230F9
:1034A000DBB194F82230032B01D0112010BD0D4860
:1034B00001F0DEF994F858301F2B86BF03F01F038C
:1034C000094A4FF0A04203F5E073002042F82300C0
:1034D00084F8230084F8220010BD082010BD00BF2E
:1034E000FC0700205C8B000000030050064B93F8A3
:1034F0002220032A05D093F82200003018BF0120B3
:1035000070470020704700BFFC070020044890F877
:103510002230022B00F1040098BF0020704700BF4A
:10352000FC07002072B6024A13680133136070472B
:1035300058080020034A1368013B136003B962B6C0
:10354000704700BF5808002050E8002F0B4640E8A5
:10355000003C9CF0000FF7D11046704750E8003F48
:1035600003EB010240E8002C9CF0000FF6D110465E
:10357000704700BF50E8003FA3EB010240E8002C79
:103580009CF0000FF6D11046704700BF012350E8B1
:10359000002F42EA030C40E800C191F0000FF6D181
:1035A00060467047002350E800CF0CEA030240E871
:1035B000002191F0000FF6D160467047B8B130B4E9
:1035C000D0E90112521A0468D2B2531E2160DBB254
:1035D00042B101680A685C1E551C0D601370E3B2AD
:1035E000FF2BF6D103680020187130BC70470E2005
:1035F000704700BF38B504460020FFF793FFD4E9B9
:1036000000311A688A4215D9511E19602168A368D1
:103610000868258A12F8012CE4681B1A0879DBB2C5
:10362000984205FB024400D20B710020FFF782FF95
:10363000204638BD0024F8E738B5054600200C4682
:10364000FFF770FF2A681368591C1160E9682A8A1D
:10365000641AB4FBF2F41C700020BDE83840FFF798
:1036600069BF00BF41B1012904D152B104301060DB
:103670000020704706207047002AF9D011700846D4
:1036800070470720704700BF80697047F0B51F4B37
:103690001B68834285B003D01124204605B0F0BDDD
:1036A0000C4605468669FFF721FF0028F4D194E80F
:1036B000070006F10C0787E80700A2882168A068C8
:1036C000FFF794FDB368044668B9002BE5D1FFF716
:1036D0000DFF0028FBD10E4B1B78002BDDD0B3680B
:1036E0000D2413B9D9E7002BD7D0B3690393012276
:1036F000022128468DF804100297B3688DF8052042
:1037000001A99847204605B0F0BD00BF5C08002025
:1037100060080020F0B51F4B1B68834285B003D0C2
:103720001124204605B0F0BD0C4605468669FFF71A
:10373000DDFE0028F4D194E8070006F10C0787E8C5
:103740000700A2882168A068FFF7DEFCB368044682
:1037500068B9002BE5D1FFF7C9FE0028FBD10E4B5D
:103760001B78002BDDD0B3680D2413B9D9E7002BEB
:10377000D7D0B36903930122022128468DF80410A3
:103780000297B3688DF8052001A99847204605B037
:10379000F0BD00BF5C08002060080020F0B5154EA9
:1037A0003368834285B003D01124204605B0F0BDB4
:1037B00005468769FFF79AFE0028F5D1FFF76CFEF2
:1037C000044600B93060BB68002BEED0211CBB69F9
:1037D000039318BF01210022012628468DF8051009
:1037E000BB688DF80460029201A99847204605B095
:1037F000F0BD00BF5C0800202DE9F0430369B3F57C
:10380000007F85B00AD1204FD7F80080B8F1000FB3
:1038100009D01125284605B0BDE8F08306252846C5
:1038200005B0BDE8F083D0F818900E46044617495D
:10383000C9F81820C9F8086014303C60FFF7A8FDEB
:10384000054660B9002EE5D1FFF750FE0028FBD1F8
:103850000F4B1B78002BDDD038600D25DAE7C7F859
:103860000080002ED6D0D9F81830039301228DF8AD
:103870000480CDF808802046D9F808308DF805205E
:1038800001A99847C6E700BF5C08002095380000F2
:1038900060080020F0B5234F027823493E68437842
:1038A0000B70012A85B0B46933D01BD3022A14D11E
:1038B000A268AAB1003318BF0123032104F10C024E
:1038C0008DF805308DF804100292A36903933046F9
:1038D000A36801A9984705B0F0BD0320FEF74CFB93
:1038E00005B0F0BD0546FFF711FE026822603B6897
:1038F0004FF4007262609B699B68002BF0D06B787C
:1039000000229B1A18BF01238DF805308DF8042082
:10391000DAE7A268002AE3D0003318BF01230221AE
:10392000CCE700BF5C08002060080020826842B13C
:1039300010B5044643690168006998470023A360F5
:1039400010BD70470EB400B582B0039929B102AA28
:1039500004AB42F8043D00F0A9F802B05DF804EBB6
:1039600003B070472DE9F04F924683B051450F46A2
:1039700005461E46DDE90CB2C0F092800B464FF0C2
:103980000108B3FBFAF39A4508F10108F9D9B045EB
:1039900038BFB04612F00109A96802D1BBF1000F8F
:1039A00054D1012402E0013E0AFB04F4012EFAD8AE
:1039B000B7FBF4F08245F7D93B4E02E0A968B7FBAC
:1039C000F4F0335C2A680A2B04FB107702EB010E3B
:1039D00001F1010029D0A8608EF80030D5E901314D
:1039E000994202D32846FFF7A1FFB4FBFAF4002C5A
:1039F000E4D1B9F1000F15D0BBF1000F12D0C345CF
:103A000010D92024AB682A68591CA960D454D5E980
:103A100001329A420BF1FF3B14D2BBF1000F01D0EF
:103A2000C345EFD103B0BDE8F08FA8604FF00D00A3
:103A30005054D5E9011088421DD2296801EB000ECF
:103A40000130C8E72846FFF771FFE6E7930722D465
:103A50002024C345A5D92B684A1CAA605C54D5E92B
:103A6000013199420BF1FF3B10D2BBF1000F98D00E
:103A7000C345F0D195E728460193FFF757FFAA68A1
:103A80002968019B501C01EB020EA4E72846FFF7B2
:103A90004DFFA968E9E7002E0CBF30242024D8E7A9
:103AA0004FF0010873E700BF808B0000002900F091
:103AB000B9822DE9F04F054687B091460C460E7845
:103AC000DFF8C8A64FF00D0B13E0AB6828680A2E8C
:103AD00003F1010200EB030100F04B82AA600E70BB
:103AE000D5E901329A4280F01B812678002E00F041
:103AF0001E810134002E00F01A81252EE5D12346C7
:103B0000002713F8012B2D2A00F0E380302A00F063
:103B1000E4802B2A00F0D4802A2A00F00D81A2F143
:103B20003006F1B2092903D97DE2A1F1300603463E
:103B3000184606EB860110F8012BA2F13004092C7F
:103B400002EB4101F1D92E2A00F002814FF000086A
:103B5000013301E013F8012B02F0FB0168291C4638
:103B6000F8D0253A532AC0D801A353F822F000BF59
:103B70005B3F0000EB3A0000EB3A0000EB3A00003C
:103B8000EB3A0000EB3A0000EB3A0000EB3A0000A1
:103B9000EB3A0000EB3A0000EB3A0000EB3A000091
:103BA000EB3A0000EB3A0000EB3A0000EB3A000081
:103BB000EB3A0000EB3A0000EB3A0000EB3A000071
:103BC000EB3A0000EB3A0000EB3A0000EB3A000061
:103BD000EB3A0000EB3A0000EB3A0000EB3A000051
:103BE000EB3A0000EB3A0000EB3A0000EB3A000041
:103BF000EB3A0000EB3A0000EB3A0000EB3A000031
:103C0000EB3A0000EB3A0000EB3A0000EB3A000020
:103C1000EB3A0000EB3A0000EB3A0000EB3A000010
:103C2000EB3A0000EB3A0000EB3A0000EB3A000000
:103C3000EB3A0000EB3A0000EB3A00003F3F000097
:103C4000EB3A0000EB3A0000EB3A0000EB3A0000E0
:103C5000EB3A0000EB3A0000EB3A0000EB3A0000D0
:103C6000EB3A0000EB3A0000E33C0000C53E0000E8
:103C7000EB3A0000EB3A0000EB3A0000EB3A0000B0
:103C8000C53E0000EB3A0000EB3A0000EB3A0000C2
:103C9000EB3A0000EB3A0000EB3A00002D3E00004A
:103CA000EB3A0000EB3A0000A53D0000EB3A0000C3
:103CB000893D0000EB3A0000EB3A00003F3F000076
:103CC00047F004071C46234613F8012B2D2A7FF4E6
:103CD0001DAF47F001071C46F5E747F002071C46F9
:103CE000F1E7D9F800301A1DC9F800201E78AB683A
:103CF0000A2E0CD12A68591CA96002F803B0D5E934
:103D00000123934203D32846FFF710FEAB682A68CD
:103D1000591CA960D654D5E901329A42FFF4E5AEA8
:103D20002846FFF703FE2678002E7FF4E2AE2B7BB9
:103D300023BB07B0BDE8F08FD9F80020111DC9F8EA
:103D40000010166862782E2A04F102007FF4FEAE9D
:103D50005A78A2F13003092B00F2BD814FF0000820
:103D600008EB880802EB480810F8012FA2F1300395
:103D7000092BA8F13008F3D90346E9E6284607B035
:103D8000BDE8F04FFFF7D2BDD9F800301A1DC9F8D1
:103D9000002019680197434600960A222846FFF73B
:103DA000E1FDA2E6D9F800301A1DC9F80020D3F8C9
:103DB0000080FB0700F1E880B8F1000F00F0A1815E
:103DC000404604F0F6FD0746BE4215D9A6B12021B3
:103DD00000E08EB1AA682B68501CA8609954D5E900
:103DE00001329A4206F1FF3604D328460391FFF7C9
:103DF0009DFD0399BE42ECD108F1FF3818F8016F20
:103E0000002E3FF472AEAB6828680A2E03F101025F
:103E100000EB030100F09081AA600E70D5E9013239
:103E20009A42EBD32846FFF781FDE7E7D9F8002057
:103E3000131DC9F80030AB6829681768581C302278
:103E4000A860CA54D5E90123934280F0E6802A682D
:103E5000581C7821A860D154D5E90123934280F001
:103E6000D7800F2F03D93A4612090F2AFCD84FF0FA
:103E700080560DE0AA6081F80080D5E901329A42AF
:103E800002D32846FFF752FD36093FF42EAEAB6849
:103E9000B7FBF6F21AF802802868B8F10A0F06FBA1
:103EA000127700EB030103F10102E3D1AA6000F8ED
:103EB00003B0D5E901329A4280F049812B68991804
:103EC0000132D7E7D9F800301A1DC9F80020196867
:103ED00081EAE173A3EBE173092B40F30E81AA4859
:103EE0000122A0FB03C3DB08092B02F10102F8DC6D
:103EF0004245134638BF4346039307F00203002EA2
:103F000040F09580002B00F0B780B8F1000F00F072
:103F1000F680F80740F1B0800029C0F2FF807A07F0
:103F200000F1C88007F00303022B00F0A780CDE961
:103F3000006743460A222846FFF714FDD5E5D9F865
:103F400000301A1DC9F800201968019743460096F1
:103F500010222846FFF706FDC7E5AB682A68581C03
:103F60002521A860D154D5E901329A42FFF4BDADB4
:103F7000D6E6AA6000F803B0D5E901329A423FD2F2
:103F8000296811440132A9E54146A1EB080311F863
:103F9000017BD7B1AB68D5F800C00A2F03F101024D
:103FA0000CEB030000F0AF80AA600770D5E9013286
:103FB0009A42EAD328460391FFF7B8FC0399A1EB94
:103FC000080311F8017B002FE4D19E427FF68DADEE
:103FD000202702E0002E3FF488ADA9682A68481C1B
:103FE000A8605754D5E90121914206F1FF3604D368
:103FF00028460393FFF79AFC039BB342EAD174E58A
:104000002846FFF793FCAB6829685A1C194465E5FC
:104010002846FFF78BFCAB6823E72846FFF786FCB2
:10402000AB6814E770471846002623468BE5002945
:1040300020DB7A071ED41BB1B8F1000F3FF46CAF40
:10404000F8073FF569AFBEB1039BB342BFF464AF5D
:104050002023AA68501CA86028688354D5E901026F
:10406000824206F1FF3640D236B1039AB242F0D115
:10407000164651E7013EDEE700264DE7B8F1000F96
:104080007FF455AF002E6AD0039BB342BFF44FAF0D
:104090003023AA68501CA86028688354D5E901021F
:1040A000824206F1FF3618D2002E58D0039AB2424F
:1040B000EFD13CE7AA68531CAB602B682B209854C7
:1040C000D5E901329A42FFF42DAF28460491FFF75B
:1040D0002DFC049926E7034638E52846CDE904136C
:1040E000FFF724FCDDE90413DEE72846CDE90413DD
:1040F000FFF71CFCDDE90413B6E70122F8E64646AB
:104100000AE7474660E6AA600CF803B0D5E9013239
:104110009A4226D22B689818013245E7AA68531CA8
:10412000AB602B682D209854D5E901329A42C1F139
:104130000001FFF4F7AEC8E7AA6000F803B0D5E9C4
:1041400001329A4217D229681144013264E62846A6
:10415000FFF7ECFBA9682B684A1C19448AE6002685
:10416000E5E628460391FFF7E1FBA8682B68039971
:10417000421C184418E72846FFF7D8FBAB682968AB
:104180005A1C194448E600BFCDCCCCCC808B000033
:10419000FFF714BA2DE9F041058ACE1C043D2E44E8
:1041A0000746B6FBF5F6FFF725FA78B3F6B24FF4FB
:1041B0008073013E0446C5800760838027D0804617
:1041C000002509E06379AE4203F101036371C8F889
:1041D0000000076080461AD03846FFF70BFA013519
:1041E0000028EFD16679721E14D023460130824236
:1041F0001B68FBD11F684EB100252368214601359D
:1042000038461C46FFF718FAAE42F6D10024204685
:10421000BDE8F0812768EFE704300121FFF79EB980
:10422000F8B5012104460430FFF7A4F9C0B200B18B
:10423000F8BD6679721E12D02346013082421B6897
:10424000FBD11F68002EF3D00025236821460135DD
:1042500038461C46FFF7F0F9AE42F6D1F8BD2768A4
:10426000F2E700BF2DE9F843C788467907FB06F659
:10427000043E02EB030C0446664503F104001546B8
:104280008846B0FBF7F238BFF51A07FB120012B1EF
:10429000013A2468FCD13E1AAE4228BF2E469DB199
:1042A0004FF000090430AD1B2044324608EB0901F1
:1042B00004F06CFBAF42B14424683E464FF000006E
:1042C00028BF2E46002DEDD1BDE8F8832DE9F84337
:1042D000C7884679154607FB06F6043E05EB030C36
:1042E0001A1D664504468846B2FBF7F038BFF51A3A
:1042F00007FB102110B101382468FCD17E1AAE42B0
:1043000028BF2E469DB14FF0000904312144AD1B5A
:10431000324608EB090004F039FBAF42B14424688F
:104320003E464FF0000128BF2E46002DEDD1BDE8DE
:10433000F88300BF826800239360826813618268FB
:1043400053618268D36082685360826813607047EB
:1043500030B587B0057844688DF8045002948568BC
:10436000084A094B8DF80C50D0E9034053F821302E
:104370008DF81400049452F8211001A8984707B052
:1043800030BD00BF64080020740800202DE9F04310
:1043900006461F4C16F8047B1E4844F82730154685
:1043A0000C460FC8DFF870E0DFF870C04EF82750F9
:1043B00085B0002D6D4685E80F00237894F80190B4
:1043C00094F8028094F803E08DF8003029463B46CB
:1043D000257B67798DF8019018BF6246304694F8C6
:1043E00004C0A668647B8DF8028008BF00228DF8A7
:1043F00003E08DF805C08DF8067002968DF80C501C
:104400008DF80D4000F0F0F805B0BDE8F08300BF76
:1044100064080020908B00007408002051430000C5
:1044200030B585B0047845688DF80040D0E9024089
:10443000064A074B039053F8213001958DF8084048
:1044400052F821106846984705B030BD8408002016
:104450008C08002030B585B0047845688DF80040A0
:10446000D0E90240064A074B039053F821300195EA
:104470008DF8084052F821106846984705B030BDC5
:10448000840800208C0800202DE9F043DFF87480B8
:1044900006784B7F08F806300D46074696460FCD46
:1044A00089B06C460FC495E80F003D78DFF858904E
:1044B000DFF858C018F8055049F826E084E80F00E6
:1044C0004CF82600049665B1BEF1000F0B4A694610
:1044D00007F1040008BF002200F048FE09B0BDE863
:1044E000F083BEF1000F064A694607F10C0008BFD1
:1044F000002200F0BBFB09B0BDE8F08321440000BE
:1045000055440000D80D00208C08002084080020AD
:10451000014B1B68184700BF9408002038B50C4BAE
:10452000984201D0002038BD00200D46FEF7FAFF6A
:10453000084B1C7924B10020FEF7FCFF112038BD88
:10454000012220461D601A71FEF7F4FF204638BD97
:104550000020004094080020034B984203D1034BF5
:1045600000221A601A717047002000409408002051
:10457000194BD3F8182102B970470021174AC3F824
:104580001811D3F81811D37F82B0FF2B0191019934
:104590000DD0917F99B11F2B86BF03F01F031048E8
:1045A0004FF0A040012101FA03F3C0F80C350023BD
:1045B00053771372D2E900310A4802B018471F2B13
:1045C00086BF03F01F0306484FF0A040012101FA07
:1045D00003F3C0F80835EAE7003000409C080020EB
:1045E00000030050A40800202DE9F04F0579DFF802
:1045F0007C824FEAC50909EB0506B60008EB060BFD
:1046000083B09BF81C70002F40F0E4809A4603684A
:1046100001920C460746914900931846FFF77EFF2A
:10462000002840F0DB80019A48F80620CBF804A06F
:10463000217B009B012940F2E78026781F2E86BF50
:1046400006F01F06DFF818C24FF0A04C0121B14060
:10465000CCF8081521781F2986BF01F01F01804E74
:104660004FF0A04601F5E0714FF0010C46F821C073
:104670006178FF2900F0D7801F298BBF01F01F0E42
:104680008E46DFF8DCC14FF0A04C0EF5E07A012633
:1046900006FA0EF64FF0030ECCF80C654CF82AE043
:1046A00094F802C0BCF1FF0F00F0C580BCF11F0FF1
:1046B000E6468BBF0CF01F067646DFF8A4C14FF02C
:1046C000A04C06F5E0764FF0040A4CF826A094F8CA
:1046D00002C009EB050608EB860686F820C094F8B0
:1046E00003C086F81FC0E678FF2E29D094F804C0D6
:1046F000BCF1000F76D11F2E86BF06F01F06DFF833
:1047000060A14FF0A04A4FF0010C0CFA06F6CAF86F
:104710000865E6781F2E86BF06F01F06DFF840C149
:104720004FF0A04C06F5E0764FF0030A4CF826A0B7
:1047300009EB050608EB860694F804C086F81EC04F
:104740002678C3F80865C3F80C15C3F810E5A1680E
:10475000C3F82415617B267B003118BF0121022E8E
:1047600078D0032E4DD0012E01D141F00201C3F8C3
:104770005415A179C3F8C015002A5FD04021072243
:10478000C3F80413C3F8002539686379090B4AB2EA
:10479000002A57DB02F1604202F561425B01DBB2A5
:1047A00082F800333B682F4C1B0B5AB2520903F0BE
:1047B0001F03012101FA03F344F822304D4408EBB2
:1047C00085080022012388F81D2088F81C3003B0DA
:1047D000BDE8F08F082003B0BDE8F08F112003B0D2
:1047E000BDE8F08F1F2E86BF06F01F06DFF870A011
:1047F0004FF0A04A4FF0010C0CFA06F6CAF80C650F
:1048000087E741F00601B2E721781F2986BF01F052
:104810001F01DFF84CC04FF0A04C012606FA01F151
:10482000CCF80C1516E794F802C0BCF1FF0F4FF05E
:10483000FF317FF43BAF4FF0FF3E4AE70722C3F85A
:104840000025BBE7084A01F00F015B010A44DBB217
:104850001376A7E741F0040189E700BF7145000026
:104860000003005000E100E0FCEC00E09C080020A8
:10487000F8B50679224C0368F500AA199200A11830
:10488000A2589AB11A0B53B25B09203302F01F02EF
:104890000127DFF874E0DFF874C007FA02F24EF87F
:1048A00023200368C3F808C34A7FEAB9AA1904EBB6
:1048B000820292F82020FF2A0BD01F2A8ABF02F022
:1048C0001F024FF0A0410F4902F5E072022741F8A4
:1048D00022700027C3F800750068FFF73DFEAB1992
:1048E00004EB83031F77F8BD5F61D3F80421002A2E
:1048F000FBD0AA1904EB820200215177D6E700BF52
:104900009C0800200003005000E100E05201080074
:104910002DE9F0470479DFF890C14FEAC40E0EEBA1
:1049200004039B0080460CEB03000D46417F82B0E0
:10493000002940F092805CF80330164623B112F053
:10494000140F04BF012343770EEB04070CEB87071A
:1049500095E80F0097F81F9007F10C0AB9F1FF0FC7
:104960008AE80F000FD0BB7F002B7AD0B9F11F0F60
:1049700086BF09F01F094B4A4FF0A042012303FAFA
:1049800009F3C2F808352A6822B102F06043B3F196
:10499000005F58D1AB6823B103F06043B3F1005F0F
:1049A00051D1D8F800306968C3F84425C3F84815D8
:1049B000D5E90221C3F834250022C3F83815C3F81D
:1049C0001821D3F818210192019A16F0010218BF9C
:1049D0000122C3F8502516F0020218BF0122C3F8C5
:1049E000402532075CBF01221A610EEB04025CF81D
:1049F000222062B116F004004FF040021ABFC3F843
:104A000008230020C3F8042302B0BDE8F087D3F8E0
:104A10001821002AFBD074440CEB840C9CF81F3046
:104A2000FF2B3DD09CF81E2062B31F2B86BF03F0E6
:104A30001F031C494FF0A041012202FA03F3C1F801
:104A40000C350020E0E774440CEB840C00231020AC
:104A50008CF81D3002B0BDE8F087112002B0BDE82F
:104A6000F087B9F11F0F8ABF0E4A4FF0A04209F03C
:104A70001F09012303FA09F3C2F80C352A68002A3A
:104A800083D187E71F2B86BF03F01F0305494FF033
:104A9000A041012202FA03F3C1F808350020B3E770
:104AA0000020B1E7000300509C08002030B56D4A9B
:104AB000D2F8043399058BB068D5D2F82431002B95
:104AC00064D00023C2F82431D2F8243101934FF48A
:104AD0000171654B0198C2F8081393F8291009B9C0
:104AE000012151605F4902228DF81820D1F88024FD
:104AF000C1F880249869D96809920022CDE907108D
:104B0000C3E90622D3E9001406A8A047554AD2F803
:104B10001C31CBB1544B5869196A88426BD8514942
:104B20000022C1F81C21D1F81C1102910299596987
:104B300051B1586999688DF8182008905A61079109
:104B400006A8D3E900129047464AD2F84431DBB1B7
:104B50000021454BC2F84411D2F8440193F82910C2
:104B60000090009809B1012111609A6962B1002298
:104B7000586AD9689A610122CDE907108DF818208A
:104B800006A8D3E9001290470BB030BD354AD2F8E1
:104B900004335B07BAD5D2F80831002BB6D0324BBC
:104BA000996900293CD00021C2F80811D2F80811F7
:104BB00004910499D868596AD2F8182542545A6A5F
:104BC000996901325A625A6A8A429FD1DA69196830
:104BD000002A2ED0D8685D6A1C699A61079000226D
:104BE0000120DC60DA615A628DF8180008955B6874
:104BF00006A898478AE793F8281001F0FF000029DB
:104C00008DD1C2F81C01D2F81C11039103999C6844
:104C1000186A196A205C01311962C2F81C0593E711
:104C2000C2F80811D2F8080105900598D2F81825A5
:104C3000C9E793F8292012B90A4A01205060094AAD
:104C40004FF40170C2F80803586ADA68089000242B
:104C5000012007928DF818005A689C6106A89047B9
:104C600054E700BF00200040C00800202DE9F041BB
:104C7000714F06792C2505FB067582B095F82A3010
:104C8000002B40F09A800D4604466C49006890461F
:104C9000FFF744FC002840F08C802B68591C19D089
:104CA0001F2B4FF001028ABF65494FF0A04103F06E
:104CB0001F0302FA03F3C1F808352B681F2B86BFC8
:104CC00003F01F035E4A4FF0A04203F5E073032197
:104CD00042F823106B685A1C0BD01F2B86BF03F0C1
:104CE0001F03574A4FF0A04203F5E073002142F83A
:104CF00023102368AA69C3F82425297D6B7D2268C7
:104D00000B43C2F86C35D5E900122368C3F81425AB
:104D1000C3F80C152B7D012B53D02C2303FB06F37A
:104D2000FA18C2F804802A69FA50B8F1000F2DD0A1
:104D300022682B7F434D0021C2F81C11D2F81C21A0
:104D400000922268DDF800C0C2F84411D2F8441184
:104D5000226801910199C2F804532168090B4AB2F3
:104D60005B01002ADBB261DB02F1604202F56142C5
:104D700082F800332368344D1B0B5AB2520903F0FA
:104D80001F03012101FA03F345F822302C23246884
:104D900003FB0673002204250121C4F8005583F8A3
:104DA0002A10C3E9062283F829205A6102B0BDE81F
:104DB000F081112002B0BDE8F081082002B0BDE80A
:104DC000F081AB68591C0BD01F2B86BF03F01F036B
:104DD0001B4A4FF0A04203F5E073002142F8231074
:104DE000EB685A1C1BD01F2B4FF001028ABF1449DD
:104DF0004FF0A04103F01F0302FA03F3C1F8083596
:104E0000EB681F2B88BF03F01F0303F5E0738CBF13
:104E10000B4A4FF0A042032142F82310EB682268AE
:104E2000A968C2F80835C2F8101576E7074A01F0FC
:104E30000F010A4413769DE7C0080020AD4A000028
:104E4000000300508000020000E100E0FCEC00E004
:104E5000F8B53A4F047902682C2303FB0473002150
:104E60005B68C2F8001583B10368354AC3F80823AC
:104E70000368344D1B0B5AB25209203203F01F0352
:104E8000012101FA03F345F8223003684FF0FF3C9B
:104E9000D3F80C65D3F81455D3F80825D3F81015BA
:104EA000C3F814C5C3F80CC503686645C3F808C544
:104EB000C3F810C50CD01F2E86BF06F01F06224B6C
:104EC0004FF0A04306F5E0764FF0020C43F826C001
:104ED0006E1C0BD01F2D86BF05F01F051A4B4FF01F
:104EE000A04305F5E075022643F825604D1C0BD064
:104EF0001F2986BF01F01F01134B4FF0A04301F59E
:104F0000E071022543F82150531C0BD01F2A86BFA5
:104F100002F01F020C494FF0A04102F5E07202239B
:104F200041F822300068FFF717FB2C2303FB0474C1
:104F3000002384F82A306360F8BD00BFC008002059
:104F40008402020000E100E000030050F0B5314EA1
:104F500005792C2303FB056385B05C69002C53D1D4
:104F60005A6199601C6283F828400268C2F81C41AB
:104F7000D2F81C11026802910121029F916002681F
:104F8000D3F808C0C2F81C41D2F81C110191019954
:104F9000D3F820E0196A5F681CF80EE0013119624D
:104FA000C2F81CE517B1204605B0F0BD5C691A6A6D
:104FB0000168944203D819E093F828203ABBD1F84D
:104FC0001C21002AF8D0C1F81C71D1F81C210392D1
:104FD000039AD3F820E01A6A1CF80EE001321A6234
:104FE000C1F81CE51A6A9442E9D80168D1F81C316D
:104FF000002BFBD00123CB6000202C2303FB056595
:1050000000236B6105B0F0BD112005B0F0BD0F208D
:10501000F3E700BFC0080020F0B5524BD3F82421BD
:105020008BB0002A6ED00021C3F82411D3F82421BC
:10503000049202228DF81820049AD3F880044A4A78
:10504000C3F880040990D3F83C05D3680890C2E9FE
:10505000061107931168536806A89847414BD3F887
:105060004421BAB10021404AC3F84411D3F8444165
:1050700090690394039C68B1D3F83C35D0680893D9
:105080000123C2E9061107908DF8183006A8D2E96D
:1050900000139847334BD3F82021BAB10021C3F84D
:1050A0002011D3F82021029201202F4A029CD860BF
:1050B000506958B1D3F84C05936808908DF81810D2
:1050C0005161079306A8D2E900139847254BD3F8FE
:1050D0005821AAB10021C3F85811D3F85801224A27
:1050E00001900198506958B1D3F84C059368089025
:1050F0008DF818105161079306A8D2E9001398475C
:105100000BB0F0BDD3F810110029A7D0C3F81021BF
:10511000D3F810111448059105998169D3F83C45DD
:105120008C429BD1C569C768D0E900168DB1D3F810
:1051300000C285612CF02005C261C3F800520369EA
:10514000C3600122CDE907748DF8182006A8B04786
:1051500084E701238561CDE907748DF8183006A82E
:10516000B0477BE700200040EC0800202DE9F04329
:1051700007797E4E4FEAC70808EB070306EB830367
:1051800087B093F82030002B40F0B0800D460446E5
:10519000774900689146FFF7C1F9002840F0A280E6
:1051A0002B68591C19D01F2B4FF001028ABF71497F
:1051B0004FF0A04103F01F0302FA03F3C1F80835D2
:1051C0002B681F2B86BF03F01F036A4A4FF0A042D3
:1051D00003F5E073032142F823106B685A1C0BD0CF
:1051E0001F2B86BF03F01F03624A4FF0A04203F556
:1051F000E073002142F823102368AA69C3F824252C
:10520000297D6A7D23680A43C3F86C25D5E90031FE
:105210002268C2F80C35C2F814152B7D012B69D019
:1052200008EB07029200B318C3F804902B69B3503F
:10523000B9F1000F45D021682A7F4F4D0023C1F8F6
:105240001031D1F8101101912168DDF804C0C1F8C6
:105250002031D1F8201102912168DDF808C0C1F891
:105260002431D1F8241103912168DDF80CC0C1F874
:105270004431D1F8441104912168DDF810C0C1F81F
:105280005831D1F85811236805910599C3F8045392
:105290002168090B53014AB2002ADBB25FDB02F13D
:1052A000604202F5614282F800332368334D1B0BE4
:1052B0005AB2520903F01F03012101FA03F345F822
:1052C00022304744226806EB870600230124082188
:1052D000C2F8001586F82040C6E90633736107B0AE
:1052E000BDE8F083112007B0BDE8F083082007B0C7
:1052F000BDE8F083AB68591C0BD01F2B86BF03F0B1
:105300001F031C4A4FF0A04203F5E073002142F84E
:105310002310EB685A1C1BD01F2B4FF001028ABFD1
:1053200014494FF0A04103F01F0302FA03F3C1F840
:105330000835EB681F2B88BF03F01F0303F5E073EC
:105340008CBF0C4A4FF0A042032142F82310EB68B7
:105350002268A968C2F80835C2F8101560E7084A43
:1053600001F00F010A4413769FE700BFEC0800200C
:1053700019500000000300501003420000E100E05B
:10538000FCEC00E0F0B50679474C0368F500AA197B
:1053900004EB820283B0526882B1444AC3F8082306
:1053A0000368434F1B0B5AB25209203203F01F030C
:1053B000012101FA03F347F822300368D3F80022F1
:1053C00022F02002C3F80022026801235360026821
:1053D0000021C2F85811D2F85811026801910199C0
:1053E000D3600268D2F85831002BFBD00023C2F8FA
:1053F000003503684FF0FF3ED3F80CC5D3F81475A1
:10540000D3F80825D3F81015C3F80CE5C3F814E554
:105410000368F445C3F808E5C3F810E50DD0BCF106
:105420001F0F86BF0CF01F0CDFF888E04FF0A04E76
:105430000CF5E07C02234EF82C307B1C0CD01F2F87
:1054400086BF07F01F07DFF86CC04FF0A04C07F5D0
:10545000E07702234CF827304F1C0BD01F2986BF62
:1054600001F01F01134F4FF0A04701F5E071022337
:1054700047F82130531C0BD01F2A86BF02F01F02B1
:105480000C4B4FF0A04302F5E072022143F82210CA
:105490000068FFF761F8354404EB8504002384F8C5
:1054A0002030636003B0F0BDEC0800201003420020
:1054B00000E100E00003005001F06043B3F1005F41
:1054C0002CD1F0B40579264EEF007C1906EB84044C
:1054D00082B0636923BB6261A1600268C2F82031B7
:1054E000D2F820C10268CDF804C0DDF804C0C2F8CB
:1054F0005831D2F8582100920268DDF800C0D4F883
:1055000014C0C2F84415C2F848C502680121916070
:1055100062684AB1184602B0F0BC7047102070476C
:10552000112002B0F0BC7047036800E0B2B9D3F8B4
:105530002011D3F858210029F8D07AB90122DA6075
:105540000268D2F85831002BFBD000203D4406EB16
:1055500085060023736102B0F0BC70470F20F5E7A9
:10556000EC0800202DE9F043012083B0FCF7D2FCC9
:1055700000210846FCF72AF8002840F0A380FBF73A
:10558000ABFF5A4A5A4B5B499B1ADB081E0446F094
:1055900003042046FCF77AF80121574800F01CFA72
:1055A00020465649FCF772F8002000F0EBF848B1AD
:1055B000002000F0E7F828B1002000F0E3F8002810
:1055C00040F083804E4B4F485F69B84743684D4871
:1055D0004FF48015B5FBF3F5B8474B490268B2FBB1
:1055E000F5F22046FCF7F6F948492046FCF74EF85C
:1055F00001224749474802F027FB002858D1464975
:105600002046FCF743F84549454802F047FF00288B
:1056100053D1444DDFF8089146F00506A84605F140
:1056200009074146484602F07BFF00283BD16B7AD0
:105630006BB195F808C03C491CF0100F3A46304653
:105640003B4623D0FCF7C6F96B7A002BE9D13046F4
:105650002F49FCF71BF835492046FCF717F8332291
:105660003349344802F02EFB002839D101AB102217
:105670003149304802F088FC60B320462F49FCF7DE
:1056800005F82C4802F05EFE20BFFDE72A682C4991
:10569000FCF718FA6B7A002BD9D04146484602F045
:1056A0003FFF0028C3D020462649FBF7EFFFEBE77A
:1056B00020462549FBF7EAFFE6E720462349FBF7AA
:1056C000E5FFE1E7FCF758FC59E720462049FBF7E6
:1056D000DDFFD9E72046019A1E49FCF77BF9D0E7A8
:1056E00020461D49FBF7D2FFCEE700BF948E000095
:1056F000B48E0000D88B000024000020F08B000046
:10570000688B0000BC8B00002C8C00003C8C0000DF
:105710000C8C00007C0B0020608C0000788C00005A
:1057200010090020640B0020B08C0000CC8C00001D
:10573000EC8C00003C090020248D0000388D000016
:10574000C08C0000988C0000508C00007C8C000005
:10575000108C0000488D0000F88C00000B78032BA3
:105760000AD8064B0A7A1B68497802EB420203EB1F
:105770008203002219729A72704700BFC80D002080
:1057800020BF70471B4B1B7883422CD970B51A4D34
:1057900000EB40042A68A400131916592EB35A7A54
:1057A000D2070CD55A6812B3012199723368134994
:1057B0001B680246304698472B68234430B1587A1C
:1057C000C0B270BD5B6898472B6823449A7A002A60
:1057D000F8D11A7A002AF2D15A7A296802F0FE0228
:1057E0005A720B19EBE703207047032070BD044A7F
:1057F0005A60D9E7CC0D0020C80D00205D5700008D
:1058000081570000074B1B78834208D9064B1B6861
:1058100000EB400003EB8000407AC0B270470120EB
:10582000704700BFCC0D0020C80D0020F0B51E4C05
:105830002478844285B023D913B31C4D00EB40007B
:105840008400286807590619002F29D0777AFF07A6
:1058500026D41746CDE9017301220391B27206598D
:10586000336830465B69984703689F4205D23368C6
:1058700030469B6801A9984738B1012005B0F0BDBA
:10588000042005B0F0BD5B6898472B6823449A7AE2
:10589000002AF8D1187A003018BF012005B0F0BDF9
:1058A000032005B0F0BD00BFCC0D0020C80D0020C6
:1058B000F0B5204C2478844285B026D92BB31E4DF8
:1058C00000EB40008400286807590619002F2CD0EF
:1058D000777AFF0729D4777A7F0729D41746CDE94D
:1058E000017301220391B2720659336830465B6935
:1058F000984703689F4205D233683046DB6801A9A8
:10590000984738B1012005B0F0BD042005B0F0BDC6
:105910005B6898472B6823449A7A002AF8D1187A52
:10592000003018BF012005B0F0BD032005B0F0BD68
:105930000220EBE7CC0D0020C80D0020244B1B7883
:10594000834217D970B5012982B0144630D016D3DE
:10595000022911D11F4B00EB40001B6853F82000B7
:10596000002833D003685B69984743682380002090
:1059700002B070BD04207047012002B070BD02ADBE
:10598000012300EB400005F8013D124E840033680E
:10599000185903682A461B690021984708B1112845
:1059A00003D19DF80730002BF1D1002002B070BD6B
:1059B000084B00EB40001B6853F8200030B103682F
:1059C0005B699847036823600020EFE70320D4E772
:1059D000CC0D0020C80D0020024A034B1060197046
:1059E000704700BFC80D0020CC0D00202DE9F0410C
:1059F000C37804460D46407804F130070BB3E66ADD
:105A0000012332463946FFF753FF48BB226AA36998
:105A1000E070B21A9A42607813D294F80280B8F11A
:105A2000010F02D80DE0A36960781E4408F1FF3829
:105A3000324601233946FFF73BFFB8F1010FF2D19F
:105A400060782A4639460123FFF7F0FE002818BF88
:105A50004FF0FF35E56214BF01200020BDE8F08162
:105A60000120BDE8F08100BFF8B5C37804465BB9FA
:105A70002378032B2AD0002260781146FFF75EFFBF
:105A8000003018BF0120F8BDC56A407804F1300726
:105A90002A4639460123FFF70BFF002840F0828099
:105AA000226AA369E070AA1A9A42E1D2A678012E6E
:105AB00001D8DDE7A36960781D44013E2A46012331
:105AC0003946FFF7F5FE012EF4D1D1E72379012BFA
:105AD000D1D104F130014B4213F0030367D000220F
:105AE000012B84F8302004F1310C5DD0032B84F8B5
:105AF000312004F1320C5ED184F8322004F1330CF1
:105B000040F2FD16C3F5007703F130020023224472
:105B1000BD0818460133AB4242F8040BFAD327F014
:105B200003039F42A6EB03020CEB030507D0012AF7
:105B30000CF8030003D0022A687018BFA870D4E9DB
:105B400003320025100A62F30705160C60F30F25D7
:105B5000002063F3070066F31745120E1E0A62F376
:105B60001F6566F30F201A0C62F317401B0EE269E3
:105B7000C4F8185263F31F6055230132C4F81C02A5
:105B800084F82E320D480E4B2063AA25C4F8143237
:105B9000E262012384F82F526078FFF789FE002328
:105BA000237168E70120F8BD40F2FF16AAE78C4692
:105BB0004FF40076A6E74FF4FF76A3E75252614117
:105BC000727241612DE9F84F0378022B04460D46AD
:105BD000174600F08D80032B64D0012B02D00220E9
:105BE000BDE8F88F026AD0F82CA001EB510802EB57
:105BF0005829D14500F1300640F0F18008F1010943
:105C000015F00105C8F308084FEA592200F0158184
:105C100016F8083003F00F0343EA071306F80830BC
:105C2000236AD4F82CA002EB0308D0454FF00103FF
:105C3000E37000F021810123524631466078FFF77E
:105C400037FE002840F0C880226AA369E070AAEB02
:105C500002029A4212D294F802B0BBF1010F01D8AD
:105C60000CE0A36960789A440BF1FF3B5246012394
:105C70003146FFF71DFEBBF1010FF2D10123424671
:105C800031466078FFF7D2FD002840F0A280C9F3CA
:105C900008094E44C4F82C80002D00F0DE80C7F3C4
:105CA0000717E0E0036AD0F82C9003EBD118C84541
:105CB00000F1300661D1AD0005F4FE75731927F0CF
:105CC00070475A88120402F070423A430023110AC6
:105CD00062F3070361F30F23110C61F31743120EF4
:105CE00062F31F6373510122E2700020BDE8F88F58
:105CF000066AD0F82C8006EB1126464500F13009E3
:105D00002CD0C37840780BB3012342464946FFF7B5
:105D1000CFFD002860D1226AA369E070A8EB0202DF
:105D20009A4212D294F802A0BAF1010F01D80CE005
:105D3000A369607898440AF1FF3A42460123494634
:105D4000FFF7B6FDBAF1010FF2D1607801233246B8
:105D50004946FFF76BFD00283BD1E6626D0005F474
:105D6000FF7509EB050209F80570C7F30721012348
:105D70005170E3700020BDE8F88FC37840780BB312
:105D800001234A463146FFF793FD28BB226AA369E7
:105D9000E070A9EB02029A42607813D294F802A054
:105DA000BAF1010F02D80DE0A369607899440AF1B5
:105DB000FF3A4A4601233146FFF77AFDBAF1010F57
:105DC000F2D16078012342463146FFF72FFD0028CB
:105DD0004FD04FF0FF33E3620120BDE8F88FC27867
:105DE000407802B352463146FFF762FD0028F3D1F6
:105DF000226AA369E070AAEB02029A4212D294F8D6
:105E000002B0BBF1010F01D80CE0A36960789A449D
:105E10000BF1FF3B524601233146FFF749FDBBF131
:105E2000010FF2D1607801234A463146FFF7FEFCAC
:105E30000028CED1C4F82C90E0E606F80870236A5A
:105E4000D4F82CA002EB0308C2454FF00103E37025
:105E50007FF4F1AEC9F308094E443378C7F3032247
:105E600023F00F07174301233770E3700020BDE8CC
:105E7000F88FC4F82C801EE7C9F308094E440EE7DA
:105E80002DE9F04F85B00129009014D904686369A9
:105E90008B420D4606460ED98AB9A34604F1300A54
:105EA0005E469D4207D23378022B00F03581032BEA
:105EB00068D0012B14D0022005B0BDE8F08F012A74
:105EC000F9D99342F7D9114620464FF0FF32FFF738
:105ED00079FE0028F0D1D6F800B0DBF81430DDE709
:105EE000326AD6F82C9005EB550702EB5728C845C7
:105EF00040F05681C7F308030137334402EB5728BB
:105F0000C84593F830B000F06082F378707806F1FD
:105F100030021146019233B301234A46FFF7C8FC11
:105F2000002840F0A181326AB369F070A9EB020247
:105F30009A42707817D296F802C06246012A12D9A6
:105F4000029403956446019D01E0B3697078994419
:105F5000013C4A4601232946FFF7AAFC012CF4D153
:105F6000DDE902457078019901234246FFF75EFCA6
:105F7000002800F028824FF0FF330120F36205B0C3
:105F8000BDE8F08F376AD6F82C9007EBD5174F4550
:105F900006F1300840F03681AB0003F4FE7308EBE5
:105FA000030218F8037092F801B053884BEA032BF0
:105FB00047EA0B2727F07047002F00F01482012FCB
:105FC0003FF479AF63699D42BFF475AF2378022B2C
:105FD00000F09781032B00F04B81012B7FF46BAF16
:105FE000226AD4F82C9005EB550602EB5628C845DA
:105FF0002ED0E27860780AB34A465146FFF758FC43
:10600000002840F03181226AA369E070A9EB020206
:106010009A4212D294F802B0BBF1010F01D80CE001
:10602000A369607899440BF1FF3B4A46012351462E
:10603000FFF73EFCBBF1010FF2D16078012342462D
:106040005146FFF7F3FB002840F00B81C4F82C8089
:1060500006F1010815F00109C6F308064FEA5822B7
:1060600000F09E811AF8063003F00F030AF806309C
:10607000266AE56A16444FF00103B542E37000F06A
:10608000B48101232A4651466078FFF711FC0028AD
:1060900040F0EA80226AA369E070AA1A9A4212D2FA
:1060A00094F802B0BBF1010F01D80CE0A36960784D
:1060B0001D440BF1FF3B2A4601235146FFF7F8FB35
:1060C000BBF1010FF2D10123324651466078FFF750
:1060D000ADFB002840F0C580C8F30808D044E66254
:1060E000B9F1000F00F06A814FF0010388F8000059
:1060F000E370D4E90432911E8B4205D22179013339
:1061000041F0010123612171BA4240F26C81009B90
:106110001E683D467369C4E6376AD6F82C9007EBD3
:1061200015274F4506F130082ED0F378707813B359
:1061300001234A464146FFF7BBFB002840F094800C
:10614000326AB369F070A9EB02029A4212D296F851
:1061500002B0BBF1010F01D80CE0B369707899442B
:106160000BF1FF3B4A4601234146FFF7A1FBBBF180
:10617000010FF2D1707801233A464146FFF756FBF2
:1061800000287FF4F8AEF7626B0003F4FF7308EBAE
:10619000030218F8037092F801B047EA0B270BE7E7
:1061A000F278707806F1300BFAB14A465946FFF79B
:1061B0007FFB002858D1326AB369F070A9EB020264
:1061C0009A4211D2B278012A0ED90194144600E005
:1061D000B36970789944013C4A4601235946FFF758
:1061E00067FB012CF4D1019C70785946012342468B
:1061F000FFF71CFB00287FF4BEAE326AC6F82C8085
:10620000C14677E6F37870780BB301234A464146DE
:10621000FFF74EFB40BB326AB369F070A9EB020294
:106220009A42707813D296F802B0BBF1010F02D8EF
:106230000DE0B369707899440BF1FF3B4A460123A6
:106240004146FFF735FBBBF1010FF2D17078012316
:106250003A464146FFF7EAFA00287FF48CAEF7622F
:106260009AE64FF0FF33E362012005B0BDE8F08FFE
:10627000266AD4F82C8006EBD51646452DD0E37857
:10628000607813B3012342465146FFF711FB002803
:10629000EAD1226AA369E070A8EB02029A42607810
:1062A00013D294F80290B9F1010F02D80DE0A3695E
:1062B0006078984409F1FF39424601235146FFF7BF
:1062C000F7FAB9F1010FF2D1607801233246514655
:1062D000FFF7ACFA0028C4D1E662AD0005F4FE7504
:1062E0000AEB05024FF0000153880AF805101B0A5B
:1062F00003F0F003D3704FF0010351709170E3701D
:10630000F7E6266AD4F82C8006EB1526464539D0E8
:10631000E37860780BB3012342465146FFF7C8FA91
:106320000028A1D1226AA369E070A8EB02029A4278
:1063300012D294F80290B9F1010F01D80CE0A369D0
:106340006078984409F1FF39424601235146FFF72E
:10635000AFFAB9F1010FF2D160780123324651460C
:10636000FFF764FA00287FF47CAF6D0005F4FF7539
:106370000AEB0503E6620AF8050058704FF00103C6
:10638000E370B6E66D0005F4FF750AEB05034FF008
:1063900000020AF805205A704FF00103E370A8E6E6
:1063A0000AF80690266AE56A16444FF00103B542E2
:1063B000E3707FF466AEC8F30808D04498F8000094
:1063C00000F0F00090E6C6F82C80C7F308073E44C2
:1063D000EB0796F830704BEA072B4CBF4FEA1B17C0
:1063E000CBF30B07E8E5002066E5C8F30808D044C6
:1063F000002079E62DE9F04F8468D0F80080002372
:1064000085B003612CBB98F80030022B1CD8B8F87B
:106410000830ABB1D8F824308361446183B108F10E
:106420003003C361002005B0BDE8F08FD8F8142018
:10643000A11E023A9142C0F04D810023C0E90543FC
:10644000022005B0BDE8F08FD8F82430002BDED054
:106450001C46B8F80A30002BE8D1012CF0D9D8F846
:106460001430A342ECD9454607462B78022B00F0A6
:106470009A80032B40D0012BE2D12A6AD5F82C90C8
:1064800004EB540602EB562ACA4500F0D280EA78A3
:10649000687805F1300B12B34A465946FFF708FAFF
:1064A00040BB2A6AAB69E870A9EB02029A4215D296
:1064B000AA78012A12D9CDF80480904600E0AB6991
:1064C0006878994408F1FF384A4601235946FFF796
:1064D000EFF9B8F1010FF2D1DDF804806878594680
:1064E00001235246FFF7A2F9002800F09E804FF0EA
:1064F000FF33EB62012096E72E6AD5F82CA006EB5D
:10650000D416564505F130092DD0EB78687813B3D1
:10651000012352464946FFF7CBF90028EAD12A6AFF
:10652000AB69E870AAEB02029A42687813D295F838
:1065300002B0BBF1010F02D80DE0AB6968789A4454
:106540000BF1FF3B524601234946FFF7B1F9BBF17E
:10655000010FF2D16878012332464946FFF766F908
:106560000028C4D1EE62A40004F4FE7409EB040216
:1065700019F804405188537843EA012344EA03247C
:1065800024F07044012C7FF65BAFD8F81430A3429E
:106590007FF656AF3D686B69A3427FF651AF2B780B
:1065A000022B7FF466AF2E6AD5F82CA006EB1426DA
:1065B000564505F130092DD0EB7868780BB30123EF
:1065C00052464946FFF774F9002893D12A6AAB690D
:1065D000E870AAEB02029A4212D295F802B0BBF11F
:1065E000010F01D80CE0AB6968789A440BF1FF3BCE
:1065F000524601234946FFF75BF9BBF1010FF2D187
:106600006878012332464946FFF710F900287FF4E5
:106610006EAFEE62640004F4FF7409EB040319F832
:1066200004405B7844EA0324ACE72A6AC5F82CA04E
:10663000D146C6F3080301362B4402EB562ACA455D
:1066400093F830B039D0EB78687805F13002114614
:10665000019243B301234A46FFF72AF900287FF449
:1066600049AF2A6AAB69E870A9EB02029A426878DE
:1066700019D295F802C06246012A14D9CDE90284E4
:10668000E046019C01E0AB696878994408F1FF3865
:106690004A4601232146FFF70BF9B8F1010FF2D169
:1066A000DDE902846878019901235246FFF7BEF8BC
:1066B00000287FF41CAFC5F82CA0C6F308063544AB
:1066C000E20795F830304BEA03234CBF1C09C3F3B3
:1066D0000B0457E7D8F8282001FB032383619CE6CD
:1066E000012932D92DE9F84F436999422AD203781A
:1066F000022B06460C4641D0032B28D0012B21D17A
:10670000026AD0F82C8001EB510502EB5527474572
:1067100040F0A580C5F308036F1C334402EB5729F2
:10672000C14593F8305040F0CA80C7F308003044A8
:10673000E30790F8300045EA00204CBF0009C0F3A1
:106740000B0000E00120BDE8F88F01207047056ACA
:10675000D0F82C8005EBD115454500F130074ED11E
:10676000A10001F4FE717A18785C5378518843EAED
:10677000012340EA032020F07040E4E7056AD0F8E6
:106780002C8005EB1125454500F130072ED0C3784C
:10679000407813B3012342463946FFF789F80028B1
:1067A00040F0C180326AB369F070A8EB02029A42ED
:1067B00012D296F80290B9F1010F01D80CE0B3693A
:1067C0007078984409F1FF39424601233946FFF7B2
:1067D0006FF8B9F1010FF2D1707801232A463946DA
:1067E000FFF724F8002840F09A80F562610001F478
:1067F000FF717B18785C5B7840EA0320A3E7C378DD
:1068000040781BB3012342463946FFF751F8002870
:1068100040F08980326AB369F070A8EB02029A42B4
:10682000707813D296F80290B9F1010F02D80DE0FA
:10683000B3697078984409F1FF394246012339461B
:10684000FFF736F8B9F1010FF2D1707801232A462B
:106850003946FEF7EBFF002861D1F56280E7C27888
:10686000407806F1300902B342464946FFF720F866
:10687000002858D1326AB369F070A8EB02029A423C
:1068800012D296F802A0BAF1010F01D80CE0B36958
:10689000707898440AF1FF3A424601234946FFF7CF
:1068A00007F8BAF1010FF2D17078494601233A4650
:1068B000FEF7BCFF98BB326AF762B8462AE7F37866
:1068C000707806F1300A0BB3012342465146FEF7B9
:1068D000EFFF40BB326AB369F070A8EB02029A4244
:1068E000707813D296F802B0BBF1010F02D80DE018
:1068F000B369707898440BF1FF3B4246012351463F
:10690000FEF7D6FFBBF1010FF2D17078514601239B
:106910004A46FEF78BFF10B9C6F82C9005E74FF0FA
:10692000FF30F0620FE74FF0FF300CE72DE9F04F3A
:1069300087B082460191D0F800B0002940F05C8118
:10694000DBF80C80DBF81430B8F1000F1DD14FF0EC
:106950000108444601349C421CD3B8F1010F40F2B7
:106960007181DAF8005002246B69A34208D92B78B0
:10697000022B00F0F980032B00F0AD80012B0ED02C
:106980000124204607B0BDE8F08F984528BF4FF09E
:106990000108DEE7012CDAF80050F1D9E4E72A6AB1
:1069A000D5F82C9004EB540602EB56274F4536D011
:1069B000EA78687805F13001029132B34A46FEF771
:1069C00077FF002840F038812A6AAB69E870A9EBAC
:1069D00002029A4217D2AA78012A14D9CDF80C8063
:1069E00004949046029C00E0AB696878994408F1F1
:1069F000FF384A4601232146FEF75AFFB8F1010F3E
:106A0000F2D1DDE903846878029901233A46FEF762
:106A10000DFF002840F0DF802A6AEF62B946C6F316
:106A20000803013602EB56222B444A45029293F8A2
:106A3000307038D0EB78687805F130021146039257
:106A40003BB301234A46FEF733FF002840F0F480B1
:106A50002A6AAB69E870A9EB02029A4218D2AA78B6
:106A60006878012A15D9CDF8108005949046039CCA
:106A700001E0AB696878994408F1FF384A46012380
:106A80002146FEF715FFB8F1010FF2D1DDE90484CC
:106A900068780399029A0123FEF7C8FE002840F0A7
:106AA0009A80029BEB62C6F308063544E20795F82C
:106AB000303047EA03234CBF1B09C3F30B03002B01
:106AC00000F0AB80012B3FF45BAFA04500F0BA8033
:106AD000DBF814303EE72E6AD5F82C9006EBD4167E
