:1010000008060020FD1A0000934E00005D1A000043
:101010005D1A00005D1A00005D1A00005D1A0000F4
:101020005D1A00005D1A00005D1A000049190000F9
:101030005D1A00005D1A0000011900007B4E0000DF
:10104000BD1A0000BD1A0000BD1A0000BD1A000044
:10105000BD1A0000BD1A0000BD1A0000BD1A000034
:10106000BD1A0000BD1A0000BD1A0000BD1A000024
:10107000BD1A0000BD1A0000BD1A0000BD1A000014
:10108000BD1A0000BD1A0000BD1A0000BD1A000004
:10109000BD1A0000BD1A0000BD1A0000BD1A0000F4
:1010A000BD1A0000BD1A0000BD1A0000BD1A0000E4
:1010B000BD1A0000BD1A0000BD1A0000BD1A0000D4
:1010C000BD1A0000BD1A0000BD1A0000BD1A0000C4
:1010D000BD1A0000BD1A0000BD1A0000BD1A0000B4
:1010E000BD1A0000BD1A0000BD1A0000BD1A0000A4
:1010F000BD1A0000BD1A0000BD1A0000BD1A000094
:1011000053B94AB9002908BF00281CBF4FF0FF316E
:101110004FF0FF3000F072B9ADF1080C6DE904CE6C
:1011200000F006F8DDF804E0DDE9022304B07047C2
:101130002DE9F047089E04468846002B4BD18A4291
:10114000154667D9B2FA82F24AB1C2F1200701FA14
:1011500002F320FA07F7954047EA030894404FEA64
:10116000154E230CB8FBFEF71FFA85FC0EFB178803
:1011700043EA084307FB0CF1994209D9EB1807F140
:10118000FF3080F01B81994240F21881023F2B44CE
:101190005B1AA4B2B3FBFEF00EFB103344EA034427
:1011A00000FB0CFCA44509D92C1900F1FF3380F099
:1011B0000781A44540F2048102382C4440EA0740EC
:1011C000A4EB0C0400271EB1D4400023C6E9004361
:1011D0003946BDE8F0878B4209D9002E00F0EB803C
:1011E0000027C6E9000138463946BDE8F087B3FA62
:1011F00083F7002F47D18B4202D3824200F2FA805C
:10120000841A61EB030301209846002EE0D0C6E962
:101210000048DDE702B9FFDEB2FA82F2002A40F0B0
:101220008F80491B4FEA154E1FFA85F80127B1FB45
:10123000FEFC230C0EFB1C1143EA014308FB0CF1DE
:10124000994207D9EB180CF1FF3002D2994200F213
:10125000CD808446591AA3B2B1FBFEF00EFB1014E8
:1012600043EA044408FB00F8A04507D92C1900F113
:10127000FF3302D2A04500F2B6801846A4EB080462
:1012800040EA0C409FE7C7F1200CBB4022FA0CFE5D
:101290004EEA030E01FA07F420FA0CF521FA0CF3DA
:1012A0004FEA1E482543B3FBF8F92C0C08FB193311
:1012B0001FFA8EFA44EA034309FB0AF49C4202FA3D
:1012C00007F200FA07F10BD91EEB030309F1FF3017
:1012D00080F087809C4240F28480A9F10209734427
:1012E0001B1BADB2B3FBF8F008FB103345EA034417
:1012F00000FB0AFAA24508D91EEB040400F1FF33F3
:101300006BD2A24569D90238744440EA0940A0FB77
:101310000289A4EB0A044C45C2464B4654D351D033
:10132000002E69D0B1EB0A0564EB030404FA0CFC4F
:10133000FD40FC404CEA0505C6E90054002747E79C
:10134000C2F1200320FA03F7954001FA02F021FAD6
:1013500003F34FEA154E3843010CB3FBFEF71FFAB7
:1013600085F80EFB173341EA034107FB08F38B4274
:1013700004FA02F407D9691807F1FF3C2FD28B4217
:101380002DD9023F2944CB1A81B2B3FBFEF00EFBEC
:10139000103341EA034100FB08F38B4207D9691877
:1013A00000F1FF3C17D28B4215D902382944C91AE3
:1013B00040EA07473BE73746304609E70746E7E696
:1013C0001846FBE64145ABD2B8EB020A69EB0E02C8
:1013D00001381346A4E76046E9E7184695E76746F3
:1013E000D1E781467CE702382C4447E7ACF1020C98
:1013F0002B442FE7384608E73746E9E6704700BF39
:101400002DE9F0433D4B85B0186802903C4801F04F
:1014100019FA3C4801F016FA3B4802F0B3FC0446C6
:1014200030B93949394801F00DFA05B0BDE8F0830B
:10143000374801F007FA63680021DB6820469847C7
:1014400063684FF47F219B684FF480522046984791
:101450000146D8B12F4801F0F5F92F4801F0F2F913
:1014600063680021DB682046984704212B4801F07F
:10147000E9F9636802AE5D684FF47F2104233246C8
:101480002046A847014628B12548CCE7254801F069
:10149000D9F9E2E703AD0422284603F059FD636859
:1014A00020461F682A4604234FF47F21B84704468C
:1014B00010B101461C48B6E704222946304603F025
:1014C0000AFD18B9194801F0BDF9AEE71848DFF870
:1014D0006890DFF86880174F01F0B4F9325D2B5D3A
:1014E0009A420CBF494641460091384604F57F2197
:1014F000013401F0A7F9042CF0D196E7C05C00009C
:10150000335E0000565E0000725E00007A5E0000EE
:101510009E5E0000B45E0000E45E0000FA5E000023
:10152000185F0000CC5E0000305F0000475F0000E5
:101530006F5F0000985F0000245E00002A5E0000DC
:101540000B6801330B60014B1B681847480F0020E4
:101550002DE9F04F85B09B460E9CDFF88890012C5A
:10156000B8BF0124012B0CBF30232023164682462E
:101570008846029301250A270022B6FBF9F301935E
:101580000AB9B1451DD8019B414603F13000D0474F
:1015900001350122019B013F012F09FB13664FF02A
:1015A0000A03B9FBF3F9E8D1414606F13000D04710
:1015B000BBF1030F02D1641B002C0EDC05B0BDE8AB
:1015C000F08FBC42E6DBBBF1020FE3D84146029844
:1015D00003920135D047039ADCE741462020D047EB
:1015E000013CE9E700CA9A3B014B1860704700BF15
:1015F000480F002013B502AC002344F8043D024616
:101600000B460348214603F0EEF902B010BD00BFBF
:101610004115000010B50748074C02F0B3FB074B1B
:101620001860204601F0FEF82046FFF7DDFF00209D
:1016300010BD00BFB65F000041160000080000208A
:101640000A2838B50446074D04D1286843680D219F
:101650005B68984728684368E1B25B689847204612
:1016600038BD00BF08000020F8B5124DAB680C244F
:1016700004FB00340123064663724FF02003EFF3AE
:10168000118183F31188BFF36F8F23682BB16068DA
:101690001A682260834208BF626081F31188BFF339
:1016A0006F8F03B9F8BDD3E9017231462846B847B8
:1016B000E3E700BF18100020154B07B51A6882B188
:1016C0004FF08042D2F80423D1070AD500221A60D5
:1016D0001B680093009B0F4B9B68587A08B9FFF773
:1016E000C3FF0D4B1A6882B14FF08042D2F8042339
:1016F00092070AD500221A601B680193019B012002
:1017000003B05DF804EBFFF7AFBF03B05DF804FB77
:101710000001004018100020040100400D4B002281
:10172000C3F840214FF02002EFF3118182F31188BA
:10173000BFF36F8F084AD3F804051368C01A20F06E
:101740007F400344136081F31188BFF36F8F03F070
:1017500067B800BF001001402400002073B518488E
:1017600002F010FB48B34368164D1B6801219847EF
:10177000002401264FF48033C5F80845C5F84065BC
:10178000C5F8043303F1804303F58A534FF4003264
:101790001C601B680193019B0B4B3146C3F88021F1
:1017A0001120224600F0F0F8112000F0DDF8074B80
:1017B00020461E602E6002B070BD4FF0FF30FAE789
:1017C000BD5F00000010014000E100E00810014092
:1017D000F0B5254FB0F1FF3F08BF38464FF020036A
:1017E000EFF3118583F31188BFF36F8F1F4C204BEC
:1017F000D4F804651B68F21A22F07F42B2F5000F9C
:1018000019D2411E21EAE171B942A8BF3946501CE4
:101810000844B84294BF1818D819861B26F07F4692
:1018200020F07F43022EC4F8403506D985F3118895
:10183000BFF36F8FF0BD0021E9E7D4F804350D4AFE
:10184000C31A23F07F43591E914205D90A4B4FF426
:101850000032C3F80021E9E7012B02BF023020F07B
:101860007F40C4F84005E1E7FEFFFF0000100140A3
:1018700024000020FEFF7F0000E100E04FF0200286
:10188000EFF3118382F31188BFF36F8F064AD2F80A
:101890000405064A1268801A20F07F4083F31188FD
:1018A000BFF36F8F704700BF00100140240000207D
:1018B00004488168406A884203D003494FF080524F
:1018C0000A607047A001002004ED00E0094A0A49BF
:1018D0009368096819670949D8664B6843F08053D3
:1018E0004B60002383F31188BFF36F8F9368186FE9
:1018F000704700BFA0010020185E000000ED00E06E
:101900000F498A684FF030001044EFF3098C80E8EB
:10191000F01F202080F31188BFF36F8F094F4FF025
:1019200000664A6A8A603E60D06E0023D36680F308
:10193000118802F1300090E8F01F8CF3098870479D
:10194000A001002004ED00E01EF0040F0CBFEFF337
:101950000880EFF30980816911F8021C0229FFD089
:1019600001B503F092FA01BD43B2002B08DB01225E
:1019700000F01F0002FA00F05B09024A42F823005F
:10198000704700BF00E100E043B2002BA8BF03F1A5
:10199000604301F101014FEA4111AEBF03F561431C
:1019A00000F00F00034BC9B2ACBF83F80013195409
:1019B000704700BF14ED00E073B51E460A9B00930C
:1019C0008C18099B054604F019F8A4F120030A4A73
:1019D00023F0070322F001029A61069A5A60079ADF
:1019E0009A60089ADA604FF080721E60DA612B65A7
:1019F0000023EB6602B070BDF14C0000F8B506465E
:101A00000C4617461D4600F08BF9094B3C4424F068
:101A100007049E60284684F30988002163B681F399
:101A20001188BFF36F8F0022002303F061F900BF1C
:101A3000A0010020014910220A60704710ED00E06B
:101A400072B6404080F31188BFF36F8FBFF34F8FA2
:101A500030BF62B6BFF36F8F704700BFEFF30880EF
:101A6000EFF30981724601B500F0ACF801BD00BF8B
:101A700030BFFFF7FDBF00BF0E4A08B50E4B22F086
:101A80007F029A60BFF34F8FBFF36F8FD3F8882028
:101A900022F47002C3F88820EFF3148323F00403C8
:101AA00083F3148802F0AEF902F0B6F900F006F9FB
:101AB00002F0F0F90010000000ED00E001B572B690
:101AC0000B4A106A00281EBF0021116203F09DFE20
:101AD00062B6EFF30580A0F110004FEAC00005499F
:101AE000014409C99847BDE801400349084700007F
:101AF000A0010020AC5A0000B118000003F0CEFA9B
:101B0000202080F3118808484FF40061401880F3CA
:101B10000988EFF314800221084380F31488BFF38F
:101B20006F8FFFF7A9FF0000480700200C4B9A6A4F
:101B30009A6A9A6A920708D55A6B9A6A120604D56D
:101B400018B19A6A22F080029A629A6A9A6A9A6A2C
:101B50009A6A002042F0FF029A620870704700BF44
:101B600000ED00E00D4B9A6A9A6A9A6A920508D5D0
:101B70009A6B9A6A120404D518B19A6A22F4004248
:101B80009A629A6A9A6AD205044A58BF9B6A936A13
:101B9000002043F47F4393620870704700ED00E03B
:101BA000074B9A6A9A6A9A6A9A6A9A6A9A6A9A6AC7
:101BB0006FEA02426FEA12429A620020704700BF49
:101BC00000ED00E070B5364B5B688AB0C3F30803E4
:101BD000002585F31188BFF36F8F02F07F44B4F1C5
:101BE0007F4F12D102F00C04082C0ED014074EBF08
:101BF0000E46064601250022033B8DF80720032BE5
:101C000047D8DFE803F0043E423B2E46F3E7244B7F
:101C1000DA6A92073DD4DC6A14F0804408D0283395
:101C20001B78EBB10DF107010120FFF77FFF0446A0
:101C30009DF8073093B92022314602A803F05BF9E2
:101C4000099B45B3C3F3080222B96FEA53236FEA35
:101C50004323099302A9204603F015F90AB070BD89
:101C6000104B1B782BB10DF107010120FFF77AFF14
:101C7000DDE70D4B1C88A4B2002CD9D0FFF790FFF4
:101C8000D5E70DF107010020CFE70DF10701002096
:101C9000ECE70024CCE723F4FF7323F00103D8E73B
:101CA00000ED00E029ED00E02AED00E0024A536972
:101CB00043F010035361704700ED00E00448002337
:101CC0002021C2180133302B82F80013F9D170475C
:101CD00000E100E038B505464FF02003EFF3118432
:101CE00083F31188BFF36F8F02F020FB0A4B9B68D0
:101CF000AB420BD1094B5A68C2F3080212B9204615
:101D0000FFF7E4FD5A6842F080525A602046BDE871
:101D1000384003F087BD00BFA001002000ED00E0C7
:101D20001FB5094B0193094B029304A8084B039379
:101D300001AB40F8103D074A074B012100F076F84F
:101D400005B05DF804FB00BF0000002000000000AB
:101D500000000B06000000200000042030B5D1E98F
:101D60000043202B896817D9B3F1004F16D8013BE7
:101D7000B3FA83F3C3F11F035B00072841F00102AC
:101D80000ED8094D24F01F0140F0100421431343E5
:101D9000A860E9602B6130BD0823EEE73E23ECE745
:101DA0006FF01500F7E700BF90ED00E0034B052250
:101DB0005A60BFF34F8FBFF36F8F704790ED00E015
:101DC000BFF35F8F014B00225A60704790ED00E037
:101DD00013490868082810B51ED8FFF7F1FF114C09
:101DE00049680022904201F10C0105D10E4B187098
:101DF000FFF7DCFF002010BDA26051F80C3C23F07F
:101E00001F0343F010031343E36051F8043C43F015
:101E1000010323610132E5E74FF0FF30EBE700BF3C
:101E2000EC5C000090ED00E0E0010020F8B5104C03
:101E3000074620780E460025B54208DA57F82510E7
:101E40004B6893B15A1E134203D06FF015002070F7
:101E5000F8BD1F2BF9D90B681A42F6D1C0B2FFF7B3
:101E60007DFF10F1160FF0D001300135E4E700BF1F
:101E7000E00100202DE9F04F9DB0CDE902011E46A2
:101E8000002301931078531C069358B1252800F0C5
:101E900088800399029B9847013040F00C844FF0F2
:101EA000FF33019301981DB0BDE8F08F232C6FD054
:101EB00064D8002CF6D0202C0C9B08BF01230C9377
:101EC000CDF81880DDF81880BB4818F8014B214682
:101ED00002F0E6FF0028E9D12A2C69D13268079286
:101EE000002ABFBF5242079201220D92069A331D6B
:101EF000547802F102081E462E2C7ED198F800304C
:101F00002A2B77D1356808F10108043698F800408B
:101F100008F101082146A948274602F0C1FF002820
:101F20006ED008F10103682F069398F8004007D19E
:101F3000682C05D108F1020398F801400693482760
:101F4000672C7CD8652C80F03B81472C5CD8452CD5
:101F500080F03681002CA5D0252C00F0A8830399B1
:101F6000029B25209847013099D00399029B204677
:101F70009847013093D0019B02339EE32D2C0DD066
:101F8000302C08D02B2C099B08BF0123099397E71D
:101F90000123059394E70123089391E701230D930F
:101FA0008EE7002308930C9309930D93059389E71B
:101FB000A4F13003092B07909ED80A22DDF818807F
:101FC00018F8014BA4F13003092B95D8079B02FBAD
:101FD0000344A4F13003CDE90683EFE701FB0535A7
:101FE000303D9046424612F8013BA3F130000928EB
:101FF000F4D98BE700250A21F4E74FF0FF3589E794
:10200000CDF8188007469BE7632C59D021D8582C6F
:10201000A5D1331D6F2C0493316840F01C83059BC0
:1020200015AF002B00F00B8330238DF854300029BE
:1020300040F00E838DF855108B46012726E0702C5A
:1020400000F0E88227D86E2C00F0CF82E1D8692C0E
:1020500085D13468331D002C049380F29E802D239B
:102060008DF8543061420DF1550738460A2202F0CE
:1020700090FF099B074415A83F1A002B40F02083CE
:102080000C9B002B40F01C834FEAD47B002DC0F248
:102090001C8315AE1EE0752CBBD0782CB9D0732CE8
:1020A0007FF45DAF331D002D36680493B8BF6FF029
:1020B00000450027BD4240F0BD820025AB4609E047
:1020C000331D049333681CAE4FF0000B06F81C3D23
:1020D00001275D46A5EB070A0025DA44A846A94674
:1020E0002AEAEA7A079B0AEB07041C1B0D9B13B92B
:1020F000002C00F30A8306EB0B039E4240F007839B
:10210000534613F1FF3380F00E83A7EB0B07B9F1B1
:10211000000F00F02D833078F219A0F13001092969
:10212000A2EB060340F20A834A46002A40F01183DC
:10213000A3EB0909B8F1000F18D006EB090316F854
:10214000012B07930399029B059210469847013093
:102150003FF4A5AE059A079B2E2AA3EB0609EED104
:102160004346002B00F30683A9EB08099DB13078A4
:1021700006EB0908A0F13003092BA8EB060940F291
:1021800006832E2800F00383A846B8F1000F00F361
:102190000783A9EB0509B14415E3099B23B12B2360
:1021A0008DF8543021465EE70C9B0BB12023F7E7F6
:1021B000214615AF59E700BFCD5F0000D35F000097
:1021C000073626F00706D6E9000106F10803049356
:1021D000CB0243EA5053C202002823F00049904644
:1021E00071F10003C1F30A56CDE9108942DA2D21BD
:1021F0008DF854100DF1550740F2FF718E4254D105
:1022000058EA0903A4F1410407F1030042D1192C53
:102210003AD849233B704E237B7046230025BB7080
:10222000FD7015AFC01BA846A946099B002B40F0C6
:10223000D9810C9B002B40F0D5819DF854B0ABF1B7
:102240002D03D3F1000B4BEB030B1CAB5B4408EBF2
:10225000090713F81C3C303B2F44092B074400F2BC
:102260003882089B002B00F03B82079B15AEA3EB46
:10227000070A35E7099B0BB12B21B9E70C9B0BB182
:102280002021B5E715AFB7E769233B706E237B705C
:102290006623C3E7192C99BF4E2341226E23612286
:1022A00094BF3B703B707A70B8E7462C48EA060052
:1022B00049EAE67108BF662450EA010300F0DA80BB
:1022C000002E7AD0DDE910230DF17009104643F09D
:1022D000004169E90C01A6F2FE38002618F1020F50
:1022E0007ADB6FF0004A4FF0000BB8F1000F00F3FB
:1022F000A48010A808F1010802F06BFEB8F1040FE9
:10230000F7D1002D04F0DF03B8BF0625472B40F0BE
:10231000B980F21C02DBB54280F2AF80023CE4B22D
:10232000002D00F07582059B013D002B40F070826E
:10233000002DD4BF4FF0000A4FF0010A662C40F088
:10234000698215EB060840F1A38010230F936624E1
:102350004FF000080DF1700900224FF0006369E9A9
:102360000A2318F1FF3880F09580DDE91023DDE9BC
:10237000120112EB000843EB0109CDE9108909F0C5
:1023800070484FF0000958EA090306D010A802F07F
:1023900034FE10A802F01DFE0136662C40F0C48009
:1023A000002E7DDC30233B70059B07F1010B002BD9
:1023B00040F08D80994685E0013E18EB080849EB16
:1023C0000909B8F1000F79F10003F5DACDE91089B8
:1023D00078E7484602F0FDFDDDE910A000230B93ED
:1023E0000A90DDE90ABCBD4A0023634508BF5A458F
:1023F00008F10108EDD30522AAFB02AB02FB00BBEA
:10240000CDE910AB013E4FF0000C002300216FF02E
:102410000040994208BF584506D2BCF1000F3FF476
:102420005DAFCDE910AB59E71AEB0A0A4BEB0B0B8A
:1024300008F1FF384FF0010CE7E710A802F0DDFDCE
:10244000DDE9100108F1FF3801364FF0000C0023E0
:102450009B4508BF8A4506D2BCF1000F3FF445AF4B
:10246000CDE9100141E70018494108F1FF384FF06C
:10247000010CECE70026B0463BE7059BAD1B23B9FA
:10248000662455E74FF0000A58E74FF0000A58E776
:102490006624C1E1484602F0B0FD02F09AFD60E713
:1024A000BB460F9B002B07DD0FA910A802F0D6FD3D
:1024B000013E0BF8010BF4D1059B002B40F09F81EE
:1024C000B1461E46002D04DC4FF0000820E04FF01E
:1024D00000092E220BF101038BF80020002E00F0E2
:1024E0009581002D1EDDC6F10008A845A8BFA846AD
:1024F000A5EB08059B4606E00FA910A802F0AEFD6B
:102500000BF8010B013D002D02DD0F9B002BF3DCCE
:10251000BAF1000F1ED1002315AF8BF80030ABEBE2
:10252000070082E69B46CFE70FA910A802F096FDB0
:10253000059B3870302818BF06F1FF36002B3BD1C1
:10254000002D39DC07F1010BBAF1000F47D04FF035
:102550000009C8461BF8012C302A0BF1FF333CD090
:102560002E2A08BF9B46002504F0DF03452BD2D15D
:10257000002E5A46BABF76422D232B23632E02F833
:10258000024B8BF801300ADD642196FBF1F303F175
:1025900030000BF103028BF8020001FB13660A21E5
:1025A000934696FBF1F301FB136603F130003036DE
:1025B0000BF8020B5670AEE72E2307F1020B7B706F
:1025C000002DC1DD0F9B002BBEDD0FA910A802F06E
:1025D00045FD013D0BF8010BF2E79B46BAE7D146FA
:1025E000D046C1E74FF0010B2FE63246682F52F874
:1025F000043B049206D06C2F09D0482F07D1019AD2
:102600001A7001E0019A1A80049E069A3AE4019A2F
:102610001A60F9E7331D0493316847F6300310223E
:102620000DF15600ADF8543002F0B3FC4FF0020B40
:10263000871C2BE5F35D002B45D001373AE5384682
:102640000822C71B02F0A5FC07444FF0000B1DE554
:102650000DF15500F4E7752C05D10A2215A802F0FA
:1026600098FC0746F1E7059BFBB147F63003ADF850
:1026700054300DF156061022304602F08AFC582CD8
:102680000CD10DF1530313F8012FA2F161011929A7
:102690009CBF203A1A701A78002AF4D115AF059B16
:1026A000F71B07444FEA430BF0E415AEE3E7039949
:1026B0002046FFF7EFBB019B013301930496A3E78C
:1026C0004FF0010BE2E41D46F8E40025A846A946B8
:1026D000C7E515AE4FF0000A04E500BF32333333CF
:1026E00015AEDDF820A0FDE405930399029B2020A0
:1026F00098470130059B3FF4D2AB13F1FF33F3D27F
:10270000019A224401921C46F5E42346F5E705931D
:102710000399029B16F8010B98470130059B7FF443
:10272000ECACFFF7BCBB05930399029B30209847A4
:102730000130059B7FF4E5ACFFF7B1BBDDE9023169
:102740000592984701303FF4AAAB16F8010F059A9D
:10275000E3E405930399029B079230209847079A78
:10276000059B013002F1FF327FF4DFACFFF797BB2E
:10277000B946DFE405930399029B30209847059BF7
:10278000013003F1FF337FF4ECACFFF788BBDDE9E8
:102790000231984701303FF482AB16F8010FE9E4AB
:1027A0000399029B30209847013008F1FF387FF4ED
:1027B000ECACFFF774BB039916F8010B029B98472A
:1027C00001303FF46CABA9EB0603002BF3DC019B5B
:1027D0005B449B46D34407EB0B03002C01937FF72C
:1027E00013AF2344019314F1FF34FFF40DAF0399A9
:1027F000029B202098470130F5D1FFF750BB2E22D5
:10280000B1460BF101038BF800200026B04671E6BB
:102810004FF0000A05F10108102398450F93A8BF57
:10282000984697E5014B1860704700BF4C0F002099
:10283000022902D1024B1B6818474FF0FF30704746
:102840004C0F00200FB407B504AB022153F8042B42
:1028500004480193FFF70EFB03B05DF804EB04B0EE
:10286000704700BF995000004FF02003EFF3118232
:1028700083F31188BFF36F8F06490123C1F84035F8
:102880004FF08041C1F8783582F31188BFF36F8F24
:102890000020704700E0014020B1034B800143F06D
:1028A00001031847704700BFD05C000008B5094B12
:1028B0001A786AB90121197006200521FFF764F81A
:1028C0000620FFF751F8044B4FF00042C3F80423F1
:1028D000002008BDE1010020006000400368F0B561
:1028E0009E682D4B1340B3F5801F46D031D8022B84
:1028F00047D0062B00D09BBBD00654BFC2F3401577
:10290000032582F480749705C2F34020C4F30024A9
:1029100007D512F4006F776837D001228A40C7F8D4
:102920000825327A01F01F0141EA42111F2940EACD
:102930004402C6BF01F01F01184E4FF0A04642EA04
:10294000032301F5E07143EA850346F821300020B6
:10295000F0BDB3F5800F0ED005D8114883420ED0DC
:102960006FF01500F4E70F4883420CD0B3F5A00FC9
:10297000F6D10323C0E70223BEE70123BCE7072308
:10298000BAE70423B8E70523B6E7520542BF0122A0
:102990008A40C7F80C25C4E70600F0000003005089
:1029A00006001000020040001F288ABF074B4FF0AE
:1029B000A04300F01F0003EB8000D0F8003723F4A1
:1029C000403343EA0141C0F800177047000300504C
:1029D000F7B5036886689B6801F01F040D464849F7
:1029E0001B7AD1F8042344EA4314D2B2002303F53E
:1029F000A27051F82000C0F30520844267D122FA6A
:102A000003F0C00763D59A0002F1804202F5C0428C
:102A1000D2F8100520F00100C2F81005012202FAD8
:102A200003F3C1F8083320460021FFF7BDFFF0682B
:102A3000E84010F0010048D03069E84010F0010093
:102A400043D0B069E84010F001024CD0F369EB408C
:102A5000DB0740D4736923FA05F515F0010F0CBFAD
:102A600002270127264E002101F5A27356F8230004
:102A700010F0030031D18A0002F1804303F5C04316
:102A80002402D3F8105525F44F3525F44075C3F8CA
:102A90001055D3F8105504F47C5402F1804202F52D
:102AA000C24244EA07442C43C3F810451060126840
:102AB0000192019AD3F8102542F00102C3F81025C3
:102AC000012303FA01F1C6F8041303B0F0BD01338A
:102AD000082B8CD1A7E70327C4E701310829C3D10C
:102AE0006FF01200F1E7736923FA05F515F0010F95
:102AF00020460CBF03210221FFF756FF1046E4E7F2
:102B000000600040B2F5A03F70B4846817D105683A
:102B1000AD682E7A01F01F0545EA46151F2DC6BF88
:102B200005F01F051E4E4FF0A04605F5E07556F85E
:102B30002550ED0707D56FF0220070BC7047B2F545
:102B4000005FE56826D00125E6688D40354326699B
:102B5000E56001258D40B2F5005F14BF2E43AE4302
:102B60002661A669B2F5A03FE2690CBF2E43AE43D1
:102B7000B3F5C02F0CBF2A43AA43E2616269A66184
:102B8000B3F5802F0CBF154322EA0505656170BCC3
:102B9000FFF71EBF01268E4025EA0605D7E700BFD6
:102BA00000030050F0B5002685B0CDE90266284D3F
:102BB0002C685CB1274802F0DFFA0290264802F048
:102BC000DBFA03902E602B680093009B234D0022BC
:102BD00001269446D5F8043306FA02F119421DD0B5
:102BE00002F1805101F5C25189000B68B3B102F5C1
:102BF000A27304AF55F82330C1F800C0C3F34030CE
:102C000007EB8000C3F3042350F8087C06FA03F3B3
:102C10003B4340F8083C0B680193019B0132082AB2
:102C2000D8D1029911B10B4802F091FA039911B170
:102C3000094802F08CFA44B1064802F0D0FA06487E
:102C400005B0BDE8F04002F0CABA05B0F0BD00BF63
:102C50007C610040481000205410002000600040BB
:102C600010B50446002201210320FEF78DFE2368E3
:102C7000084A9868234600F1080100F009FF064B56
:102C8000984204D1A06802F016FB002010BD6FF03E
:102C90000F00FBE7F75200000000AD0B30B5856870
:102CA000EA6B6B6C85B082B97BBB1C460022114677
:102CB000284602F0D6FA6C6205F1140001F074FCAB
:102CC000002385F84C3005B030BD114613B19A424F
:102CD00028BF1946AC6BA9640094C4B1002A18BF80
:102CE0000A4601922A6C02929AB1002B18BF0B4639
:102CF0000393036800229868694600F081FF064B41
:102D00009842E0D06FF00404D0E71946E2E722468B
:102D1000E7E71346ECE700BF0000AD0B2DE9F74FE6
:102D2000846880460F4616461D4604F1040A4FF09B
:102D3000FF31504601F058FCD8F80890D9F800301F
:102D40009F426DD0BB8841F60902134240F0B98022
:102D5000C3F34513082B40F0B4803A685A4B9A42AB
:102D600040F2AF80D8F800309B680193BB68C9F887
:102D7000007013B3186800B35B68D0F808B0DBB21A
:102D80000093436800991B684FF40072984748B954
:102D9000009A012303FA02F2DBF8003023EA02036F
:102DA000CBF80030D9F800209368B2F904201979E3
:102DB0001868D243D20F02F043FA019B1968BB880E
:102DC000980703F0040259D5002A0CBF02220322FF
:102DD000022AC3F3001355D0032A56D0012A01D189
:102DE00043F00203C1F85435384A3B6893424FD947
:102DF000374A93424FD9374A93424FD9364A934282
:102E00004FD9364A93424FD902F5741202F5106237
:102E100093428CBF4FF000434FF08043C1F82435FC
:102E2000012384F84C30002E41D033687268A362CD
:102E3000E2621A685B68A263E363002D3CD02B68F2
:102E40006A68236362631A685B68226463640022B1
:102E500062620121204602F004FA4046FFF71EFF9D
:102E60004FF0FF3104F1140001F0BEFB646A5046DC
:102E700001F09AFB204603B0BDE8F08F003218BF86
:102E80000122A5E743F00403ACE743F00603A9E7FA
:102E90004FF00073C2E74FF08063BFE74FF000636D
:102EA000BCE74FF08053B9E74FF00053B6E7C4E9F1
:102EB0000A66C4E90E66C0E7C4E90C55C4E91055BA
:102EC000C5E76FF01504D2E747E801008FD0030093
:102ED0001FA107003F420F007F841E00FF083D0036
:102EE000024B0B6001231360704700BF705D000050
:102EF0002DE9F84303689F68836893F820300646FD
:102F00001546002B56D17B688B420C4603D86FF0D8
:102F10001500BDE8F8830029F9DB9342F7D38A183E
:102F20009342F4D3002DF2D0DFF890907B68AB424F
:102F30000ED1304602F01DFA00F06EFD0446304618
:102F400002F01CFA1D4B9C421AD06FF00400E0E71F
:102F5000B5F5803F16D3A3B2BBB9304602F009FAEB
:102F60002146012000F048FD8046304602F006FA76
:102F700004F58034A5F58035C845E6D1002DD5D1BE
:102F80000020C6E7B5F5805FC1D3C4F30B08B8F1E4
:102F9000000FBCD1304602F0ECF92146404600F06B
:102FA0002BFD8046304602F0E9F904F58054A5F582
:102FB0008055E1E76FF00C00ABE700BF0000AD0B00
:102FC000F8B506460D461C46174612B3A30720D196
:102FD000FCB103689B685B688B421AD9002918DB37
:102FE000A34216D30A19934213D302F0C2F9214621
:102FF0002A46384600F0E8FC0446304602F0BEF9A6
:1030000004F1744000F5A6000A2805D8044B1856B0
:10301000F8BD6FF01500FBE76FF00F00F8E700BF99
:10302000FA5F0000F8B506460D461C4617464AB33F
:10303000A30727D134B38268036892F820209B68E5
:10304000EAB95B688B421DD900291BDBA34219D367
:103050000A19934216D302F08CF921462A463846C3
:1030600000F09AFC0446304602F088F904F17440FE
:1030700000F5A6000A2808D8054B1856F8BD6FF0D1
:103080000C00FBE76FF01500F8E76FF00F00F5E7B5
:10309000FA5F000037B50C46054602F06AF90023D6
:1030A000D4E90102ADF8043023788DF80030012313
:1030B0008DF802308DF803308DF805308DF8013031
:1030C000D8B103790AB151680B4401338DF801304E
:1030D00001681268684600F01FFC0446A86801F009
:1030E00063FA04F1744000F5A6000A289ABF054B64
:1030F00018566FF00F0003B030BD002AE8D05368B7
:10310000E3E700BFFA5F0000F0B505468DB000228E
:1031100001212920FEF738FC2B683A4A9E683A497B
:103120000023CDE9073242F62F42ADF824200422D5
:103130008DF8262003228DF827208DF82D2007A852
:103140002A468DF828308DF829308DF82A308DF8F0
:103150002C308DF82B3000F063FB2C4B984204464A
:103160002AD19DF82730023B012B04D99DF8263047
:10317000033B012B20D80023CDE90433069304A997
:10318000062328468DF81030FFF784FF80B90CAB7A
:10319000402203F8292D0293012303938DF8103068
:1031A00002ABCDE9053004A92846FFF773FF18B13B
:1031B0006FF004000DB0F0BD04F1744000F5A600FE
:1031C0000A2802D96FF00F00F4E7114B18560028B7
:1031D000F0D19F2302AC03278DF81C30089004AB7C
:1031E00007A92846049405970993FFF753FF30B9C0
:1031F0003A462146304601F06EFE0028DAD06FF0E4
:103200001200D7E72B2D2A2E895300000000AD0BAA
:10321000FA5F0000024B0B6001231360704700BF90
:1032200068000020F8B50D46164602F08BFA3146CC
:103230000746B6FBF0F4284602F0CDF8D8B1B5FB4E
:10324000F7F307FB1353B3B907FB14679FB9ACB18E
:103250004FF0FF310A4801F0C7F902F073FA044653
:10326000284600F021FA361B2544F9D1044801F024
:103270009BF93046F8BD6FF01500FBE72046F9E7F3
:103280007000002010B5012211460648064C02F0DD
:10329000A1FB02F05BFA206002F054FA60600020AB
:1032A00010BD00BF700000206800002070B50D4602
:1032B0002846194616461C4602F08DF8F8B1A907B3
:1032C0001DD1A2071BD1ECB14FF0FF310E4801F028
:1032D0008BF924F003042C44761BA54209D10B4A38
:1032E000D2F80034DB07FBD5074801F05DF9002078
:1032F00070BD7159284600F0F7F90435EDE76FF01D
:103300001500F5E72046F3E77000002000E00140DB
:10331000F0B54B79012B29D0032B24D110268B79C2
:10332000032B20D1CC792CB1012C1CD103689B68D4
:103330001B79C3B10A7912B1022A14D10E22036893
:103340009B681D680B6847F61227BB426FD029D8CF
:10335000B3F5965F65D014D8B3F5167F4FD007D874
:10336000B3F5967F78D06FF0220056E00026D6E7BE
:10337000B3F5966F52D0B3F5166FF4D14FF41D2309
:103380003FE0B3F5615F4ED004D8B3F5165FEAD1E4
:10339000334B36E0B3F5964F47D0B3F5E14FE2D16A
:1033A000304B2EE0B3F5E13F4AD012D84DF6C0279E
:1033B000BB423FD005D8B3F5164FD4D14FF41D030F
:1033C0001FE0B3F5614F38D0B3F5963FCBD1264B14
:1033D00017E0B3F5E12F39D008D8B3F5613F32D00B
:1033E000224FBB42BFD14FF080630AE0B3F5612F9B
:1033F0002FD01F4FBB42B6D14FF0805301E04FF4A6
:103400001C33C5F8243544EA06031343C5F86C356C
:10341000836803C983E803000020F0BD4FF49E23B6
:10342000EFE7144BEDE7144BEBE7144BE9E74FF4F0
:103430000003E6E74FF46503E3E74FF46B03E0E7CF
:103440004FF0EB73DDE74FF06C73DAE74FF0E863B2
:10345000D7E74FF07063D4E74FF4A033D1E700BF54
:103460000050270000C0750000903A0190D0030082
:1034700040420F0000B0130000F03A0000A04E00E0
:103480000A4B1B685A1C05BF094B0A4A0A4A1068B6
:103490000ABF1B781068C0F30310082B04D103285F
:1034A0008CBF0020012070470020704730010010C1
:1034B000E00F00F0E80F00F034010010054B186831
:1034C000043B1B68082B06BFB0FA80F040090020BF
:1034D000704700BF3401001008B5FFF7D1FF40B1BD
:1034E0004FF080430022C3F80C21C3F81021C3F829
:1034F0003825FFF7C5FF002846D04FF08052584BC3
:10350000D2F80414C3F82015D2F80814C3F824150F
:10351000D2F80C14C3F82815D2F81014C3F82C15DF
:10352000D2F81414C3F83015D2F81814C3F83415AF
:10353000D2F81C14C3F84015D2F82014C3F844156F
:10354000D2F82414C3F84815D2F82814C3F84C153F
:10355000D2F82C14C3F85015D2F83014C3F854150F
:10356000D2F83414C3F86015D2F83814C3F86415CF
:10357000D2F83C14C3F86815D2F84014C3F86C159F
:10358000D2F84424C3F87025FFF798FF10B1354BEB
:10359000354A1A60FFF792FF18B1344BFB22C3F88B
:1035A0001825FFF78BFF48B13149324B0A681B6879
:1035B00022F00F0203F00F0313430B60FFF77EFFAF
:1035C00018B12D4B4FF400721A60FFF759FF48B144
:1035D0004FF08043D3F80024D20744BF6FF00102BC
:1035E000C3F800244FF01023D3F80022002A03DB95
:1035F000D3F80432002B2FDA204B0122C3F8042524
:10360000D3F80024002AFBD04FF010221221C2F878
:103610000012D3F80024002AFBD04FF0102312220E
:10362000C3F80422154B1A46D3F800140029FBD026
:103630000021C3F80415D2F80034002BFBD0BFF3EF
:103640004F8F0F490F4BCA6802F4E0621343CB60FF
:10365000BFF34F8F00BFFDE70B4B0C4A1A6008BD4C
:1036600000C000408C5600404881030000F000403C
:10367000E40E0040580200104096024000E0014075
:1036800000ED00E00400FA05E80F00200090D003F0
:10369000044AD2F80034DB07FBD50160BFF35F8F2B
:1036A000704700BF00E001404FF080531A69B0FB43
:1036B000F2F302FB130373B9084B0222C3F804258B
:1036C000C3F80805D3F80024D207FBD50022C3F8BD
:1036D0000425034870470348704700BF00E00140DD
:1036E0000000AD0B0A00AD0B10B5054C0123C4F86A
:1036F0000435FFF7CDFF0023C4F8043510BD00BF2B
:1037000000E0014038B5064D64242B6833B90A2027
:1037100002F010F8013CF8D1024838BD0248FCE73D
:10372000009102400700AD0B0000AD0B0E4A53792B
:1037300010B503F0FF01A3B90C4B1960116821B15A
:10374000012454710A4AC2F8044300F1804000F594
:1037500024300122026011B91A68002AFCD0054801
:1037600000E0054810BD00BF80000020009102402D
:10377000009002400000AD0B0B00AD0B0238072893
:103780001FD8DFE800F02927251123211F04CB795A
:103790001B068A7943EA02434A7943EA02230A79FB
:1037A00013430E4AC2F83C36CB781B068A7843EAAC
:1037B00002434A7843EA02230A781343074AC2F8CD
:1037C000383670470023E4E70023E5E70023E6E707
:1037D0000023EBE70023ECE70023EDE70090024035
:1037E0000E4B0238D3F83C26D3F83836072813D8C6
:1037F000DFE800F0110F0D0B0A080604100EC87167
:10380000100C8871100A48710A711A0ECA701A0CCD
:103810008A701A0A4A700B70704700BF009002400D
:10382000F8B5384D2E79002E67D190F804E0BEF13E
:10383000FF0F64D090F805C0BCF1FF0F5FD087790F
:10384000FF2F5CD0C479FF2C59D02F4BC3F824E54F
:10385000C3F828C5C3F83075C3F83445047A90F826
:103860000BC0877AFF2C08BF4FF0FF34C3F83845F0
:10387000447AFF2C08BF4FF0FF34C3F83C4504687E
:10388000C3F84045047BA40144EACC043C43477B95
:1038900090F810C0002F14BF802700273C43C3F8C6
:1038A0004445D3F80046877B24F07F4424F0FF048E
:1038B0003C43C77B407C002F44EA4C6414BF4FF06C
:1038C0008077002744EA00743C43C3F800466E71D9
:1038D00001262960AA601C46C3F8086311B129209B
:1038E000FEF742F8094B2E710022C4F800651A60F9
:1038F0002660BDE8F840FFF705BF0548F8BD05485C
:10390000FCE700BF800000200090024000910240D0
:103910000500AD0B0400AD0B194B5B7970B5154676
:10392000064603F0FF024BBB164C226011B17078C3
:10393000FFF724FF144A71780123C2F80833B378E3
:103940001B0343EA012331780B43F17843EA413307
:10395000317943EA8133717943EAC133C2F83436AD
:10396000FFF7D0FE094B984209D0002323601DB118
:1039700029467078FFF734FF054800E0054870BD20
:103980008000002000910240009002400700AD0B33
:103990000000AD0B0B00AD0B00F06043B3F1005F16
:1039A0000BD1830709D1064BC3F81025C3F81405C2
:1039B000C3F818150820FFF7B9BE0248704700BFCA
:1039C000009002400A00AD0B00F06043B3F1005FCD
:1039D0000BD1830709D1064BC3F80425C3F80805AA
:1039E000C3F80C150420FFF7A1BE0248704700BFC2
:1039F000009002400A00AD0B8B0707D1044BC3F8BF
:103A00001C15C3F820050C20FFF790BE0148704735
:103A1000009002400A00AD0B044B0022C3F81C25A5
:103A20000222C3F820250C20FFF780BE0090024040
:103A3000054A136833B1054B00205871996810602E
:103A40001A681047704700BF0091024080000020B4
:103A50001F2886BF00F01F00044A4FF0A042012338
:103A600003FA00F0C2F80C05704700BF00030050D5
:103A70001F2886BF00F01F00044A4FF0A042012318
:103A800003FA00F0C2F80805704700BF00030050B9
:103A90002DE9F0410679564C07462C207043251835
:103AA00095F81CC0BCF1000F40F0A0806B600B7B50
:103AB0002250012B087800F28A80FFF7C9FF0B78AB
:103AC0001F2B86BF03F01F034A4A4FF0A04203F5A5
:103AD000E073012042F823004D78FF2D7AD028466C
:103AE000FFF7B6FF1F2D8BBF05F01F032B46414A82
:103AF0004FF0A04203F5E073032042F823008B78D7
:103B0000FF2B6AD01F2B887B87BFDFF8E8C003F04C
:103B10001F021A464FF0A04C02F5E07280004CF8EC
:103B2000220098463A792C2000FB0242D377C878CD
:103B3000FF280ED0FFF79CFFCB781F2B86BF03F02A
:103B40001F032C4A4FF0A04203F5E073032042F814
:103B500023003A79C8782C2303FB0243987738680E
:103B60000B78C0F808358B68C0F80C55C0F8108584
:103B7000C0F824354B7B0D7B003318BF0123022D89
:103B80002ED0032D2FD0012D01D143F00203C0F818
:103B900054352C2303FB024273434979E35882F8DE
:103BA000201013B10422C0F804230122C0F800251C
:103BB0001BB140F30730FDF7D7FE2C2303FB06446F
:103BC000002363770C4801232377BDE8F081FFF7DA
:103BD0004FFF74E74FF0FF3591E74FF0FF38A1E753
:103BE00043F00403D3E743F00603D0E70348ECE7D0
:103BF0008C000020000300500000AD0B0500AD0B51
:103C00002DE9F74306793D4C2C2373439046E21887
:103C10000F46517F814600296DD1E3580BB1012336
:103C2000537797E80F002C2505FB064505F10C0C92
:103C30008CE80F00A87F0023FF2885F8283001D0EA
:103C4000FFF706FF2C23B8F1000F07D003FB064354
:103C500000222B485A7703B0BDE8F083D9F8005012
:103C60000422C5F8082303FB0643C5F80881D5F8EC
:103C70000821C3F824800092009A7A689AB13B68C0
:103C80001B78C5F81C35012A10D93B685B78C5F84C
:103C90001C352C2101FB06F3E35883B10423C5F83E
:103CA00004331848D7E793F82030EAE7FB68012B84
:103CB000EFD92C2303FB064393F82030E7E706FBFC
:103CC00001479846D5F80831002BFBD0C5F808818C
:103CD000D5F80831019339462846019B01F03AFD99
:103CE0000028EFD12C2303FB0644A07FFF28D8D067
:103CF000FFF7BEFED5E70448ADE700BF8C0000200B
:103D00000300AD0B0000AD0B0B00AD0B13B50E4B5C
:103D10000E4C0F4800221A601B6801932146019B3C
:103D200001F018FD70B9A07FFF2801D0FFF7A0FEB9
:103D3000002363772372D4E90031064802B0BDE85E
:103D40001040184702B010BD083100408C00002020
:103D50000030004094000020094B70B553F820401B
:103D60000130002653F82050A54200D870BD2368CA
:103D700020465B68984700B166600C34F4E700BFEA
:103D8000045E0000104B70B5104C05461E469C4268
:103D900004D10E4CB44209D1002412E062681AB179
:103DA00022681268AA420CD00C34F0E763680BB9A1
:103DB0000C34EFE723682846196801F07FF80028E3
:103DC000F6D1204670BD00BF84100020F40F002003
:103DD00008B50B4D4FF02002EFF3118382F31188E9
:103DE000BFF36F8F01F02FFE012102280446D8BFD8
:103DF000084601F038FE2C62FDF722FEEAE700BF1C
:103E0000A00100200248034A0021121A01F0A0B8C4
:103E1000000000200402002008B50648064A0749B1
:103E2000121A01F068F8064A06490748BDE808403A
:103E300001F061B8480F0020981000206C6000006D
:103E4000000000006C6000000000002008B50C4B72
:103E5000012202201A70FFF77FFF0A4A0A490B4825
:103E600000F039FF0320FFF777FF00F0FFFBFDF7BD
:103E7000C7FA074A137B23F00103137308BD00BF81
:103E8000020200206E5F0000186000003860000031
:103E90002C0100202DE98048DFF8FCA0A5B08AF3B2
:103EA0000888354D354E6B69DFF8F0B0DFF8F090DB
:103EB000334F43F4007300246B61E02385F8223014
:103EC000EC772C766C76AC766B6A43F4E0236B620D
:103ED000FDF7ECFEFDF7AEFD4FF0FF33AB62EB629A
:103EE00007AB74222146184601F032F8254D4FF0F9
:103EF0000108A86020468DF82980FFF72DFF404675
:103F0000FFF72AFF00F0C8FA1F4B6E624FF4806281
:103F10004946CDE9048330465B46CDE90244CDE90C
:103F2000004400F085FB737B304623F00403737379
:103F300001F094FC154B1649CDE904830F23CDE91C
:103F400002434FF4A072134B3846CDE9004400F011
:103F50006FFB7B7BEF6023F004037B7305F1180399
:103F6000C5E906332C75C5F804A05B464FF48062A2
:103F700049463046FDF742FD00ED00E02C010020EF
:103F8000B8000020A00100205F6000006460000015
:103F900008060020D13D0000480F00204D3E0000E3
:103FA0000802002070B5044621EAE1764FF400458E
:103FB00040F2E73000214FF47A72C5FB060100237E
:103FC000FDF79EF80349421C04F11800BDE870405B
:103FD00000F0E2BB7D58000010B5084C23685BB1CF
:103FE000FDF74CFC2368064A18441061002118466E
:103FF000BDE8104001F037BD10BD00BFD801002062
:10400000A0010020F8B50D464FF02003EFF3118416
:1040100083F31188BFF36F8F0D4B4FF4004140F2D3
:10402000E7360027E1FB006700221A6130464FF4B3
:104030007A7200233946FDF763F8064B1860064B89
:104040001D60FFF7C9FF84F31188BFF36F8FF8BDC0
:10405000A0010020D8010020D40100204FF020034F
:10406000EFF3118183F31188BFF36F8F044B9A68CC
:10407000D37B013BD37381F31188BFF36F8F7047FC
:10408000A0010020094B03F12802824205D19B6860
:104090008B4202D14B7BDB0607D1D1E900231A60AA
:1040A0000A6853600023C1E900337047A001002073
:1040B00070B5104C064604F1280001F0C9FBA36856
:1040C000597B0546880644BF41F00801597305B97C
:1040D000E5684EB95A7BD20606D1AA6922B9DA89B7
:1040E0007F2A01D9636270BDAB4201D0FFF774FF34
:1040F0006562F8E7A001002010B54FF02003EFF350
:10410000118483F31188BFF36F8F084B9A68D37BB8
:104110000133D3730020FFF7CBFF84F31188BFF383
:104120006F8FBDE8104001F089BB00BFA0010020E7
:1041300070B4437BDB0628D1836933BB144AD2E9D0
:104140000A3402F128018B420BD053B190F90E5082
:1041500093F90E60AE420ADCA34202D01B68002B2A
:10416000F6D1C0E90014D36A1860D06205E05A683D
:10417000C0E900325A6810605860437B63F07F03E7
:10418000437370BC0020FFF793BF70BC704700BF43
:10419000A001002010B54FF02003EFF3118483F34A
:1041A0001188BFF36F8F437B590704D484F31188C0
:1041B000BFF36F8F10BD23F004034373FFF7B8FF05
:1041C00021460248BDE8104001F021BB0302002057
:1041D000F8B504464FF02003EFF3118583F31188FF
:1041E000BFF36F8F90F90D30002B03DA01461848AA
:1041F000FFF748FF174AD2E90A3002F128018B4243
:104200000BD053B194F90E6093F90E70B7420ADCEB
:10421000834202D01B68002BF6D1C4E90010D36A98
:104220001C60D46205E05968C4E9003159680C602B
:104230005C60637B906863F07F036373031B584289
:104240005841FFF735FF85F31188BFF36F8FF8BD35
:10425000C8010020A0010020154A164938B50C6895
:104260009368A342144603D1BDE83840FFF7B4BEBB
:1042700000250D6010490968B9B1D9897F2914D882
:104280000E4993F90E5009688D420EDB0C498B42A2
:104290000BD0996949B91169814203DC1846FFF7CF
:1042A00097FFE1E7091A116138BD00232361FBE79D
:1042B000A0010020D0010020D8010020D40100205E
:1042C000B800002070B50446183001F0A6FB4FF08E
:1042D0002003EFF3118683F31188BFF36F8F94F9F6
:1042E0000D30002B07DA21460E48FFF7CBFE637B2B
:1042F00003F07F0363730C4D637BA86843F01003E6
:104300006373031B58425841FFF7D2FE86F31188AE
:10431000BFF36F8FAB68A34203D1BDE8704001F0DB
:104320008DBA70BDC8010020A0010020836D2DE969
:10433000F041044603B1984704F1180001F06DFB09
:104340004FF02003EFF3118683F31188BFF36F8FD3
:10435000637BD80623D1A2690ABB190607D521467B
:104360001C48FFF78FFE637B03F07F0363731A4BD8
:104370009868021B50425041FFF79AFE637B43F05E
:104380000803637304F128080027A56A454500D097
:1043900095B986F31188BFF36F8FBDE8F0819B0755
:1043A000ECD52146A068FFF76DFE637B23F0020386
:1043B00063730023A360E1E7A8682946FFF762FE64
:1043C0006B7BAF6023F002036B732F672846FFF708
:1043D000AFFEDAE7C8010020A001002010B590F977
:1043E0000D30002B044607DA01460848FFF74AFE65
:1043F000637B03F07F036373054B9868031B58428C
:104400005841BDE81040FFF753BE00BFC80100206F
:10441000A0010020F8B5461C01F03FFB34184FF016
:104420002003EFF3118783F31188BFF36F8F0D4DD6
:104430000D4BA868186001F04DFAA8680B49324688
:10444000183000F0A9F9AA68537B43F010035373A6
:104450003846FDF73BFA01F020FB201A20EAE07015
:10446000F8BD00BFA0010020D00100207D58000051
:1044700010B50C461146064A9068064A10601A4666
:1044800001F061FA2046BDE81040FDF71FBA00BFF9
:10449000A0010020D0010020044B002103F12802DC
:1044A000C3E90A220846FFF7ADBD00BFA001002006
:1044B000F8B5244C244BA2689A4236D04FF0200322
:1044C000EFF3118683F31188BFF36F8F04F1280592
:1044D000A1682846FFF7D6FDA26AA368AA420CD0BD
:1044E0005AB1E06A93F90E1092F90E708F420BDC0C
:1044F000824202D01268002AF6D1E26A5A60E26A69
:104500001D601360E36205E05168C3E90021516852
:104510000B6053605A7B62F07F025A730120FFF7F1
:10452000C7FD86F31188BFF36F8F4FF02003EFF3C1
:10453000118083F31188BFF36F8FBDE8F840FDF75A
:10454000C5B900BFA0010020B800002038B5431C49
:10455000044605D1104B9868FFF7B4FE204638BDDD
:104560004FF4004540F2E7300021E5FB04014FF431
:104570007A720023FCF7C4FD044648B9FFF798FFA0
:104580004FF47A7084FB0001C40B44EA4140E6E733
:10459000FFF740FF0446F3E7A0010020014B9868B5
:1045A000704700BFA001002038B504464FF020033B
:1045B000EFF3118583F31188BFF36F8F01F0DDF9FD
:1045C00048B10022026701F049F929460548BDE8D3
:1045D000384001F01CB9D4E902329A4218BF0133C5
:1045E000A360F2E70302002010B402460B464FF02E
:1045F0002000EFF3118180F31188BFF36F8F94686F
:1046000044B1013C946081F31188BFF36F8F0020A7
:1046100010BC704733B981F31188BFF36F8F6FF00F
:104620000F00F5E7014810BCFFF722BF030200208E
:1046300030B587B000F12805C0E90A550E9D0495F4
:104640000D9D03950C9D02950B9D01950A9D00956E
:104650000446FDF7B1F9044B9B6813B9A36607B094
:1046600030BD9B6EFAE700BFA00100202DE9F04F9E
:10467000284E294D87B0B046B54205F1300410D31D
:10468000FFF7ECFC244CDFF894A04FF4004940F213
:10469000E7360027444521D307B0BDE8F04FFFF7C8
:1046A0002BBD54F8043C059354F8103C049354F883
:1046B000143C039354F8183C029354F81C3C0193A7
:1046C00054F8203C009354E90A2354E90C01FFF705
:1046D000AFFF54F8303C5D652546CDE7616A4B1C61
:1046E00004D0256821B92846FFF754FD3034D1E7BE
:1046F000B346BC46E9FB01BC4FF47A72002358462E
:104700006146FCF7FDFC5146421C05F1180000F023
:1047100043F8EBE784100020841000207D5800004F
:10472000034B1B680BB9FDF7A9B80020704700BF09
:10473000DC010020036840B1084A5268904204D06E
:104740001BB19A6881680A449A60426813600368E2
:104750005A600023C0E90033704700BFEC0F00200F
:104760000B4B10B51C689C4208BF0024FFF7D8FF14
:1047700054B1A368181A20EAE070064B1B6913B104
:104780009842A8BF184610BD6FF00040F5E700BF83
:10479000EC0F0020A001002070B504461646C16051
:1047A0004FF02003EFF3118583F31188BFF36F8F70
:1047B000FFF7B6FF194B1A68012EACBF8019013004
:1047C0009A42A06001D05E6832B95A6862605A6845
:1047D000236014605C600BE09068A168884216DD7D
:1047E000411A91605168C4E9002151680C6054601D
:1047F0001A689A4206D0944204D1FFF7B1FF002113
:10480000FCF7E6FF85F31188BFF36F8F70BD091ABF
:104810009642A160D9D01268D6E700BFEC0F002005
:104820002DE9F04B0446FFF717FD4FF02003EFF39F
:10483000118583F31188BFF36F8F214E214FDFF86D
:1048400088903460B846D9F8004032684C45D7E9C2
:1048500000BC05D024B1A368934214DD9B1AA36069
:104860001BEB02004CEBE2710024C8E9000134604C
:10487000FFF776FF2146FCF7ABFF85F31188BFF306
:104880006F8FBDE8F08B1BEB03004CEBE371D31A89
:1048900033600023C7E90001A3602046FFF74AFF09
:1048A00085F31188BFF36F8FE36898474FF02003BB
:1048B000EFF3118583F31188BFF36F8FC3E700BF58
:1048C000DC01002000000020EC0F00202DE918483A
:1048D0004FF02003EFF3118483F31188BFF36F8F40
:1048E000FCF7CCFF074BD3E9002312EB000B43F19D
:1048F000000C5846614684F31188BFF36F8FBDE802
:10490000188800BF0000002038B5074C074DAC42A6
:1049100001D3002038BD04F114032046C4E9053357
:1049200000F006F81C34F2E7841000208410002008
:104930002DE9F74F456807890468FF2305FB07FC4D
:10494000C372837A01936444294600224FF00C0A13
:104950004FF0200B019B934208DC002319468F4245
:1049600005EB030C20DC03B0BDE8F08FD0F80C8021
:10497000BCFBF1F30AFB02FE202B08EB0E0688BFFE
:104980001F3306F104094FEA9101C6E901998ABF74
:1049900093FBFBF3C27248F80E4021F0030188BF7D
:1049A00004EB83040132D5E7C268066802F1040E05
:1049B000F41846F803E093686360936801311C6063
:1049C00094606346CBE70020704770B504460D46FF
:1049D0004520A04729465220A04729462346522079
:1049E000BDE8704018472DE9F04F4FF000088BB03C
:1049F00006460F461C4602F1FF3B4FF0FF3AC14608
:104A0000002505E05DB9252800F056813946B047FC
:104A10001BF8010F0028F5D10BB0BDE8F08F64281A
:104A20006DD01AD839280AD831285FD22D2800F045
:104A3000498130284BD0252807D139460BE058282A
:104A400000F0BC80632800F0318139462520B04752
:104A50009BF800003946B047D2E7702800F0A480E8
:104A600011D869284BD06C2805D1B8F16C0F29D129
:104A70004FF04C08CCE76828E7D1B8F1680F21D196
:104A80004FF04808C4E7752870D017D87328DCD1D8
:104A90002568231D02932B461C4614F8010B0028A1
:104AA00040F0FB80B9F1030F40F012815C1BAAEBD0
:104AB0000404002C00F3F580029CA1E778287DD047
:104AC0007A28C2D1B8F1000FBFD18046A0E7BAF171
:104AD000000F0EDAB9F1000F00F0F780A0F1300AF4
:104AE000B9F1000F08BF4FF0020991E7BAF1000FCA
:104AF000F4DB0A2303FB0A0AAAF1300AF0E7B8F153
:104B00007A0F02D1256804341FE0B8F16C0FF9D098
:104B1000B8F14C0FF6D1073424F0070303F1080471
:104B2000D3E9002312F10040CDE9022343F1000153
:104B300000234FF0FF328B4208BF824204D2394635
:104B40003046FFF742FF5BE7029D002D05DA39464C
:104B50002D20B0476D420AF1FF3ACDF800A04B4638
:104B60002A4639463046FCF7F3FC49E7B8F17A0F9C
:104B700002D12268043413E0B8F16C0FF9D0B8F117
:104B80004C0FF6D1073424F0070303F10804D3E9EE
:104B9000002300214FF0FF30994208BF9042CED34E
:104BA000CDF800A04B46DCE739463020B047394607
:104BB0007820B0474FF0080A4FF001099BF8003009
:104BC000702B05D1236806930023029304340EE072
:104BD000B8F16C0FF6D0B8F14C0FF3D1073424F0D4
:104BE000070303F108041A685B6806920293002326
:104BF0000593079310224023043B02990698C3F1C2
:104C0000200CA3F1200ED84001FA0CFC40EA0C0065
:104C100021FA0EFE40EA0E0010F00F0007D10799AE
:104C200001B92BBB4FF0300C07E00795E4E70928EA
:104C30008CBF4FF0570C4FF0300C39466044CDE933
:104C40000732B047059B01330593DDE90732002B9E
:104C5000EBD1B9F1030F7FF4D3AE059BC3EB4A054B
:104C6000002D7FF7CDAE39462020B047013DF7E754
:104C7000511E9245089107DBB9F1010F06D1099346
:104C800039463020B047099B089AB5E7B9F1020FC1
:104C9000FAD1099339462020F4E73946B047234634
:104CA000FAE639462020B047013C02E72068251D7E
:104CB0003946B0472C46A3E6A846A9464FF0FF3A2E
:104CC0000125A5E64FF00309A2E64FF001099FE692
:104CD000029C05469CE60FB407B504A951F8040BE5
:104CE0000191FCF787FC03B05DF804EB04B070475A
:104CF000044608B5084611461A46A047FFF74EFC81
:104D0000FCF7E8FF70478368C9B20C2202FB01314F
:104D10004B7A23B9087AB0FA80F040097047022034
:104D20007047036870B5C9B29C6885684FF020036E
:104D3000EFF3118683F31188BFF36F8F0C224A4380
:104D4000AB18187A90B10138C0B2187288B904EB68
:104D50008104A850E278586002F18042012111607C
:104D6000587286F31188BFF36F8F70BD6FF04400E7
:104D7000F7E70020F5E72DE9F8430368D0F808E0ED
:104D80009E68CFB24AB10C237B435EF803309A424F
:104D900052D013B11B68002BF9D14FF02003EFF371
:104DA000118C83F31188BFF36F8F0C257D430EEBBD
:104DB00005031C7A0134E4B21C728CF31188BFF332
:104DC0006F8F5AB34FF0804C4FF00308CCF8088334
:104DD00093F809C0BCF1000F15D14FF02008EFF394
:104DE000118988F31188BFF36F8FC2F800C0D3F820
:104DF0000480B8F1000F1BD15A604EF8052089F3EA
:104E00001188BFF36F8F4FF080430325C3F804531D
:104E1000BCF1000F02D0D2E901329847012C05D134
:104E200006EB8706B37803F180431C60002005E0A1
:104E3000C8F800205A60E2E76FF00F00BDE8F88381
:104E40000022FFF798BF002210B50121044610464A
:104E5000FCF79AFD0020FCF787FD4FF0804301220C
:104E6000C3F818250322C3F80423A3680020C3E96C
:104E70000000A368C3E9030010BD7047704700211C
:104E8000012000F000B800F0A5BC0146006800F069
:104E9000A1BC08B5FCF7ECFDBDE80840FCF708BD77
:104EA000C9B202788A42034600F1010004D0002A08
:104EB000F7D1002918BF002318467047013801397F
:104EC00010F8013F11F8012F934202D1002BF7D1C6
:104ED0001A46981A704710B55AB10139841810F85B
:104EE000012B11F8013FA04201D09A42F7D0D01A0D
:104EF00010BD1046FCE7F0B581EA0004A5070346A3
:104F00000BD0013B0A4491421DD1F0BD002AFCD0D8
:104F100011F8014B03F8014B013A9C07F6D11D1F14
:104F20000C468F183E1B032E08D894086FF003051B
:104F300005FB0422A40023442144E2E754F8046B57
:104F400045F8046FEEE711F8014B03F8014FDAE77B
:104F5000F0B5C9B203469C070FD141EA012444EAE7
:104F600004441D469F187E1B032E0CD8940803EBA7
:104F7000840413449C4209D1F0BD002AFCD003F8FC
:104F8000011B013AE7E745F8044BECE704F8011B85
:104F9000F0E770B50346B1FBF2F602FB16110929E2
:104FA0008CBF272500251C463031294404F8011BFD
:104FB00031462EB95E70241A834203D8204670BD54
:104FC0002346E8E71A78017803F8011900F8012B65
:104FD000F2E7D0E900232DE930485FEA530C4FEAAD
:104FE000320B02F001041BEB04024FF000054CEB06
:104FF0000503C0E90023BDE83088D0E900232DE98E
:10500000F04F052112F102084FF0000643F10009AC
:10501000B8EB0608B9FBF1F501FB05F769EB0709E9
:105020004FEAD80646EA49760024B6FBF1FC4FEA7F
:10503000CC06A2194FEA5C77C24645EB070314463B
:10504000A6FB0189BAEB08021D46B2FBF1F2A418D7
:1050500045F10005C0E90045BDE8F08F0B68002B65
:105060002DE9104813DD02684468013B0B600A21FA
:10507000A2FB01BC01FB04CC5A462CF07043C0E9F2
:1050800000234FEA1C7130310846BDE810883021FA
:10509000FAE74FF0FF307047FDF7CABBFEF71CBAC6
:1050A00003689B685B68D3F810350B60002070477D
:1050B00003689B685B68D3F8040542400A4042409D
:1050C000C3F804250020704703689B685B680020D4
:1050D000C3F80815704703689B685B680020C3F835
:1050E0000C15704703689B685A68D2F8043559401C
:1050F000C2F80415002070478368586830B558B16D
:105100000024814213D108685CB99C685860A142B0
:1051100000D198600020086072B9002030BD284698
:10512000EFE720609868814208BF9C60F2E705685D
:105130000446002DF3D13AB15A680A609868596064
:105140000028EAD19960E9E76FF01500E6E7F8B5C5
:1051500085680F466968064669B10C682B698A68DC
:105160003B40134203D04B683A463046984714B14F
:1051700021462468F2E7F8BDF8B5026883689768AD
:10518000D3E903120A40D3E90610014322EA0102DF
:1051900079685B69D1F810455C4022EA0404012576
:1051A00000260AB92046F8BD2A4209D03B7A06F00B
:1051B0001F00002140EA4310FDF7F6FB22EA05023A
:1051C00001366D00EDE710B48468012303FA01F2A3
:1051D000236923EA0203236110BCFDF7F9BBF8B58C
:1051E000846803689F68D4E903321A40D4E9063121
:1051F0000B4322EA03020126002502B9F8BD16423C
:1052000010D0636997F808C0EB4013F0010F05F068
:105210001F0014BF0221032140EA4C10FDF7C4FB1C
:1052200022EA060201357600E7E710B4846801231C
:1052300003FA01F223691343236110BCFDF7C8BBD5
:10524000012303FA01F183681B6819421CBFB2FAFB
:1052500082F2520912B14368DB68184743681B6940
:10526000FBE738B50468054624B3A36813B3186890
:1052700000B361B1B4F904201979D20FFFF7E0FF50
:105280002B689B689868BDE8384000F0B5BB12B940
:10529000A28892040ED4986800F0AEFB2A68936846
:1052A000B2F9042019791868D243D20FBDE838400A
:1052B000FFF7C6BF38BD10B5012200210446FFF735
:1052C000D0FFE36823B9201DBDE81040FFF76CB99B
:1052D00010BD806803688B4210B506D190F84C4031
:1052E00034B9FFF7E8FF204610BD6FF01500FBE76B
:1052F0006FF00F00F8E7037810B4002B37D18B68FC
:10530000D86B9A6C80B182420ED8801AD86310BBD9
:10531000D86A0138D86210B3986A00F108049C6218
:105320008468C0689C63D863586C80B182420ED890
:10533000801A5864A8B95A6B013A5A63AAB11A6B19
:1053400002F1080018639068D26818645A6408462D
:1053500010BCFDF7A3BC986B0028E5D010449863FF
:10536000E2E7186C0028F2D002441A64EFE710BCA0
:10537000704780684FF0FF31FFF736B98068103012
:105380004FF0FF31FFF730B910B50C4640B98868CF
:105390001030FFF709F9A068BDE81040FFF704B925
:1053A00010BD1FB582680023CDE90133039382F855
:1053B0002010994214BF0423062301A98DF804305C
:1053C000FDF768FE002818BF6FF0040005B05DF817
:1053D00004FB0020704738B504460D4600F0ACF9D8
:1053E000844209D2002C07DBA84205D32C44844216
:1053F0008CBF0020012038BD0020FCE770B50D46B1
:105400002846194616461C46FFF7E5FF38B14CB151
:10541000224629463046FFF76EFD002070BD6FF032
:105420001500FBE72046F9E70023435082B04358BC
:105430000193019B02B07047036882689B681868FB
:105440009368997B10B559B1D0F8201141B14FF450
:105450008072C0F808230122C26000229A7310BD36
:10546000D0F824311BB14FF49271FFF7DDFF926841
:105470001368002BF3D05068BDE8104018478268CD
:105480000B4692E8030083E803000020704703689E
:105490009B681B68D3F88004C3F8800470470268D7
:1054A0009268126808B58368D2F8100150B11B7C6D
:1054B0000B7010464FF48871FFF7B6FF012313609D
:1054C000002008BD4FF0FF30FBE703689B6870B514
:1054D0001C68D4F820310E46DBB18568AB689B8927
:1054E0004FF490719A422046A8BF1A46FFF79CFFDE
:1054F0000023A9689342896807DB0123C4F8441597
:10550000C4F84825A360104670BDF05CC854013350
:10551000EFE71A46F7E738B503689B681A68D2F8D0
:1055200010310C4653B185684FF488711046FFF76F
:105530007BFF2B7C23700120106038BD1846FCE7F0
:10554000036882689B6892681B68002191734FF41E
:105550008072C3F80423704783689B6801229A73A2
:10556000704703689B681B68D3F8200118B1D3F813
:105570000403C0F30020704703689B681B68D3F8DE
:105580001001003018BF0120704703689B681B683A
:105590001022C3F80423704703689B681B6810221D
:1055A000C3F80823704703689B681B684FF40072B8
:1055B000C3F80423704703689B681B684FF40072AC
:1055C000C3F8082370470120704783689B68C3E9CC
:1055D0000012704708B503689B681968D1F8043356
:1055E000DB05024605D4D1F8040310F0100006D103
:1055F00008BDFFF7B6FF0028F5D00120F8E71046F8
:10560000FFF7BAFF003018BF0120F1E72DE9F341A1
:1056100003688DF807109B6886681C6800F0E6F93F
:10562000D8B9642506F10C074FF00108BFF35B8F72
:1056300057E8003F002B03D147E80082002AF7D14A
:10564000BFF35B8F0BD00120013DFEF77FFF15F00C
:10565000FF05EBD102B0BDE8F0810123F3604FF408
:1056600090712046FFF7E0FE0DF10703C4F84435C2
:105670000123C4F848354FF47A75A360D4F820317B
:1056800023B9012000F056F8013DF7D10123E36072
:105690000023F360DEE770B50022064601210220F8
:1056A000FCF772F90220FCF75FF93368B5689B6874
:1056B0001C684FF0A0434FF48032C3F80825032143
:1056C00000221020C3F84017C3F83C27C4F80C058B
:1056D0000F20C4F814054FF48040C3F80805C3F840
:1056E0003817C3F834270E23C4F808350D23C4F83F
:1056F000103529463046FDF70BFE0246B8B908239F
:10570000C4F800354FF488712046FFF78DFEA96874
:1057100005F11003C4F8343589680123C4F838351D
:105720002360C4F84415C4F84825A360E36010461C
:1057300070BD004700F060B94FF080531A69586996
:10574000504370474FF08053186970474FF08053B3
:105750005869704737B5D0F818358A69DBB28DF8CB
:1057600007304B6A93423EBF4A699DF80740D454C4
:105770004A6A91F82840531C4B6202323CB10C69D2
:10578000A2428C6938BF0A61944288BF8A610D6960
:10579000954205D9CB689B5CC0F81C3501200BE015
:1057A0008C69944202D991F82030F5E7AB42F5D3E9
:1057B000A3422CBF0020012003B030BD4FF02002D7
:1057C000EFF3118382F31188BFF36F8FFEE708B503
:1057D000FFF7F4FFF8B506460F464FF02003EFF34E
:1057E000118583F31188BFF36F8FFEF7D7FE39461B
:1057F00004463046FFF7EBFF85F31188BFF36F8F48
:105800002046BDE8F840FCF765BAFFF737BB21B981
:10581000EFF3058008B9FCF759B881F31188BFF39D
:105820006F8F7047034620B9EFF305820AB9FCF782
:105830004DB883F31188BFF36F8F70474FF020038B
:10584000EFF3118083F31188BFF36F8FFFF7EABF87
:105850000368984214BF18460020704710B54FF0F7
:105860002003EFF3118483F31188BFF36F8FFEF7EA
:105870005FFC84F31188BFF36F8F10BD50F8103CAC
:1058800070B50446A0F11805CBB14FF02003EFF33B
:10589000118683F31188BFF36F8F294650F8100CDF
:1058A000FEF7F0FB14F80B3C23F0020304F80B3C6A
:1058B000002344F8103C86F31188BFF36F8F14F86F
:1058C0000B3C23F0140304F80B3C2846BDE8704061
:1058D000FFF7C4BF10B54FF02003EFF3118483F33B
:1058E0001188BFF36F8FFEF779FD84F31188BFF342
:1058F0006F8F10BD38B504460D46FEF76FFD637B14
:1059000043F002036373EDB12B68A5609D420CD098
:105910005BB194F90E2093F90E1091420CDC69688A
:105920008B4202D01B68002BF5D16B6863606B68FB
:1059300025601C606C6005E05A68C4E900325A6852
:1059400014605C6038BD70B5054614464FF0200306
:10595000EFF3118683F31188BFF36F8FFFF7CAFF50
:1059600086F31188BFF36F8F631C05D0214628464C
:10597000BDE87040FEF716BB70BD38B54FF0200390
:10598000EFF3118283F31188BFF36F8FFFF760FF8E
:10599000044682F31188BFF36F8FC8B14FF0200324
:1059A000EFF3118583F31188BFF36F8F0146806891
:1059B000FEF768FB637B23F0020363730023A3609D
:1059C00085F31188BFF36F8F04F1180000F025F8FC
:1059D000204638BD3AB18A4205D3C0E90212C0E977
:1059E0000000002070476FF015007047EFF305804E
:1059F000003018BF01207047FCF74EBF10B5029C65
:105A000004738373042400234473C373C0E906330F
:105A1000C0E91533C0E9181210BD10B54FF02002CF
:105A2000EFF3118482F31188BFF36F8F03683BB1EA
:105A3000FEF780FE002084F31188BFF36F8F10BD46
:105A40006FF01500F7E710B54FF02003EFF3118466
:105A500083F31188BFF36F8FFEF782FE84F3118802
:105A6000BFF36F8F10BD70B504460E464FF0200394
:105A7000EFF3118583F31188BFF36F8FFEF770FE8C
:105A8000012805DDA04203DD31462046FBF7A0FEDC
:105A900085F31188BFF36F8F70BD08B5FEF716FF51
:045AA00008BD704786
:085AA4008CB6FF7F0100000039
:105AAC0000000000B9160000000000007F4E00004E
:105ABC0024100020395400000D3D00003357000025
:105ACC00000000007F4E0000000000007F4E000030
:105ADC0000000000A52B0000000000007F4E00001D
:105AEC00000000007F4E0000000000007F4E000010
:105AFC00000000007F4E0000000000007F4E000000
:105B0C00000000007F4E0000000000007F4E0000EF
:105B1C00000000007F4E0000000000007F4E0000DF
:105B2C00000000007F4E0000000000001D17000068
:105B3C00000000007F4E0000000000007F4E0000BF
:105B4C00000000007F4E0000000000007F4E0000AF
:105B5C00000000007F4E0000000000007F4E00009F
:105B6C00000000007F4E0000000000007F4E00008F
:105B7C00000000007F4E0000000000007F4E00007F
:105B8C00000000007F4E0000000000007F4E00006F
:105B9C00000000007F4E0000000000007F4E00005F
:105BAC00000000007F4E0000000000007F4E00004F
:105BBC00000000007F4E0000000000007F4E00003F
:105BCC00000000007F4E0000000000007F4E00002F
:105BDC00000000007F4E0000000000007F4E00001F
:105BEC00000000007F4E0000313A000033570000E7
:105BFC00000000007F4E0000000000007F4E0000FF
:105C0C00000000007F4E0000000000007F4E0000EE
:105C1C00000000007F4E0000000000007F4E0000DE
:105C2C006E5F00001516000000000000BD5F000054
:105C3C00474E00001C5E0000C35F00005D170000B3
:105C4C00000000006E5F0000D11D0000000000008D
:105C5C006E5F00006928000000000000E65F000095
:105C6C00AD280000445D0000ED5F0000AD28000091
:105C7C00385D0000F45F0000612C0000505D0000F6
:105C8C00725E000009310000785D000005600000C4
:105C9C008532000000000000B65F0000975600003F
:105CAC00FC5D00006E5F0000094900000000000070
:045CBC00FFFFFFFFE8
:105CC00055AA6699000000000000000000000000D6
:105CD0000338FDD870470000414E0000234D0000FE
:105CE000774D000000000000074D0000020000009A
:105CF000F45C000000000000D75F000026000207EF
:105D000000000020DF5F000022000B11DD280000F2
:105D1000A1500000B1500000C9500000D750000051
:105D2000E5500000052B0000F95000002B52000048
:105D3000C751000000000000FFFFFFFF00000050FF
:105D400000000000FFFFFFFF000300500100000003
:105D500000300040000000000B0C28FF00FF000096
:105D600000000040000000001D2D0000D352000084
:105D70008000000000000100C22817000000800021
:105D8000C12F000025300000F12E0000A3530000B9
:105D9000E12E000001000000FD530000AD320000C4
:105DA00025320000D353000015320000040000002B
:105DB0009F5400000D5600008F5400001133000066
:105DC0007F540000CB5400001755000041550000DF
:105DD00059550000635500008B550000995500008F
:105DE0006355000079550000A7550000B755000025
:105DF000D5550000C7550000CB55000000200040DD
:105E000001000000F40F00203C100020481000208A
:105E10008410002084100020F5FFFFFF0001000423
:105E20000401080C6D61746368004D49534D415481
:105E30004348000A4A4544454320515350492D4E9A
:105E40004F522053504920666C617368207465730B
:105E500074696E670A003D3D3D3D3D3D3D3D3D3D24
:105E60003D3D3D3D3D3D3D3D3D3D3D3D3D3D3D3D62
:105E70000A004D5832355236340053504920666C72
:105E8000617368206472697665722025732077617A
:105E900073206E6F7420666F756E64210A000A5459
:105EA00065737420313A20466C61736820657261B5
:105EB00073650A00466C61736820657261736520C2
:105EC0006661696C6564212025640A00466C617313
:105ED00068206572617365207375636365656465C9
:105EE00064210A000A5465737420323A20466C61BA
:105EF00073682077726974650A00417474656D7007
:105F000074696E6720746F207772697465202575D7
:105F10002062797465730A00466C61736820777239
:105F2000697465206661696C6564212025640A00D6
:105F3000466C6173682072656164206661696C6596
:105F400064212025640A00446174612072656164E3
:105F5000206D617463686573206461746120777279
:105F6000697474656E2E20476F6F6421210A0044A6
:105F7000617461207265616420646F6573206E6F67
:105F800074206D6174636820646174612077726944
:105F90007474656E21210A00253038782077726F7D
:105FA0007465202530327820726561642025303296
:105FB000782025730A00554152545F3000434C4FFE
:105FC000434B007379735F636C6F636B002D2B2001
:105FD000233000686C7A00464C4153485F300053D0
:105FE00052414D5F30004750494F5F3100475049A3
:105FF0004F5F30005350495F300000F0F0F0EAB8D6
:10600000F0F0F0F0EA4E52465F464C4153485F4490
:1060100052565F4E414D45007A65706879722D7613
:10602000322E322E302D3732372D676663343037BB
:1060300035373434313261002A2A2A20426F6F7496
:10604000696E67205A6570687972204F53206275B7
:10605000696C64202573202573202A2A2A0A006D82
:0C60600061696E0069646C65000000005E
:10606C00C74900009350000000000000540F0020AE
:10607C00540F00200000000001000000640F0020FD
:10608C00640F002000000000010000000000000070
:10609C0000000000000000000000000000000000F4
:1060AC0000000000000000000000000000000000E4
:1060BC000000000000000000A00F0020A00F002036
:1060CC000100000001000000B00F0020B00F002004
:1060DC0000000000010000000000000000000000B3
:1060EC0000000000E20100202000000000C20100BE
:1060FC0000010300C40F002000000000000000009D
:0C610C000090D003EC0F0020EC0F0020EE
:106118005C5C00000000000000000000B05C0000B3
:106128000000000000000000505C000000000000BB
:1061380000000000385C0000D85C00000C00002063
:10614800A45C0000B05D0000D40F00202C5C0000AF
:106158000000000000000000445C00000000000097
:1061680000000000745C00000C5D000028000020A6
:10617800685C00000C5D000048000020985C00008E
:10618800985D000000000000805C0000685D000071
:10619800500F00208C5C0000805D0000A00F0020E4
:1061A800841000208410002000000000000000007F
:0461B8000F000000D4
:0400000300001AFDE2
:00000001FF
