:1010000000000420B5120000DD120000DF12000015
:10101000E1120000E3120000E512000000000000F1
:10102000000000000000000000000000E7120000C7
:10103000E912000000000000EB120000ED120000B9
:10104000EF120000EF120000112B0000EF12000061
:10105000EF120000EF120000EF120000EF1200008C
:10106000EF120000EF120000EF120000EF1200007C
:10107000EF120000EF120000EF120000EF1200006C
:10108000EF120000EF120000EF120000EF1200005C
:10109000EF120000EF120000EF120000EF1200004C
:1010A000EF120000EF120000EF120000EF1200003C
:1010B000EF120000EF12000000000000000000002E
:1010C000EF120000EF120000EF120000EF1200001C
:1010D000EF120000EF120000EF120000EF1200000C
:1010E000EF120000EF120000EF12000000000000FD
:1010F00000000000EF12000000000000EF120000EE
:1011000000000000000000000000000000000000DF
:1011100000000000000000000000000000000000CF
:1011200000000000000000000000000000000000BF
:1011300000000000000000000000000000000000AF
:10114000000000000000000000000000000000009F
:10115000000000000000000000000000000000008F
:10116000000000000000000000000000000000007F
:10117000000000000000000000000000000000006F
:10118000000000000000000000000000000000005F
:10119000000000000000000000000000000000004F
:1011A000000000000000000000000000000000003F
:1011B000000000000000000000000000000000002F
:1011C000000000000000000000000000000000001F
:1011D000000000000000000000000000000000000F
:1011E00000000000000000000000000000000000FF
:1011F00000000000000000000000000000000000EF
:1012000010B5054C237833B9044B13B10448AFF340
:1012100000800123237010BD0002002000000000A8
:10122000A03C000008B5034B1BB103490348AFF3D2
:10123000008008BD0000000004020020A03C000067
:10124000154B002B08BF134B9D46A3F5803A002198
:101250008B460F461348144A121A02F08CFB0F4BB0
:10126000002B00D098470E4B002B00D09847002051
:10127000002104000D000D48002802D00C48AFF3F7
:10128000008002F029FB2000290002F0CDF902F0D5
:101290000FFB00BF00000800000004200000000059
:1012A0000000000000020020600800200000000094
:1012B000000000000649074A074B9B1A03DD043B68
:1012C000C858D050FBDC02F011FAFFF7B9FF00005C
:1012D000F03C00000800002000020020FEE7FEE7CE
:1012E000FEE7FEE7FEE7FEE7FEE7FEE7FEE7FEE7D6
:1012F000F0B595B0002415460F4608461E4601F08D
:10130000F3FA384623460895082205A91A9D09963E
:101310000D950A948DF82C400C9401F03FFB9DF83C
:1013200014308DF81140DDE9061003F00302012AA4
:10133000CDE9020127D0022A04D0384601F0D8FABC
:1013400015B0F0BDBDF81650C3F3C2038DF81030D0
:10135000AD090826082D2C4628BF0824334622460E
:101360000EA9384601F01AFB2D1B214608AB02AA34
:101370000EA8264400F0AAFC002DEBD1384601F05F
:10138000B7FA15B0F0BDBDF81460059DC6F383161D
:10139000C3F3C204B2000EA9384608238DF81040EA
:1013A000C5F3952501F0FAFA08AB324628460EA996
:1013B000009302AB00F0E4FB384601F099FA15B057
:1013C000F0BD00BF014B01221A707047600200207F
:1013D000704700BF00B583B0044B0093044A40231C
:1013E000FFF786FF03B05DF804FB00BFF5130000B4
:1013F0002002002038B50E480E4D03780E4CEB5CF1
:101400000025D2B2257053B90C3001F001FE58B955
:101410000A4B1B7813B12378002BFCD038BD043065
:1014200002F0ACF80028F3D000F000FDF0E700BFB8
:10143000080000205C080020600200201C02002040
:1014400070B51348134A0378D35C88B0DBB90C300D
:1014500001F060FD104D0FCD6C460FC495E80F00F4
:1014600008AD102645F8206D84E80F0029460022BB
:10147000074801F009FB08B100F0D8FC074B002237
:101480001A7008B070BD043001F0DEFFE2E700BF63
:10149000080000205C080020CC3900001C0200205D
:1014A00070B50D4D0FCD88B06C460FC495E80F0098
:1014B00008AD102645F8206D84E80F002946074A3C
:1014C000074801F0E1FA08B100F0B0FC054B012239
:1014D0001A7008B070BD00BFCC390000C513000001
:1014E000080000201C02002008B5FFF7D9FF0421E6
:1014F000034800F0FBFA034B01225A7108BD00BFFC
:10150000C43C00001C000020F0B5324C85B004F54E
:10151000836000F007FD04F2144000F003FDD4E9FD
:10152000013703EA0702D01C04EB800114F8200005
:1015300010F0040044D003F1020C0E7806F003060C
:10154000012E654635D0022E02F1030621D004EBB0
:1015500086010028F1D104EB82020133D2680192A6
:101560003B4004EB830302F00302012ADE6829D02A
:10157000022A23D1BDF806309B090333360C05EB54
:101580009305154800F0DAFC00B16560304605B0FF
:10159000F0BD4B880CEB931307EA0302D11C03F157
:1015A000020C14F82100654604EB810100F00400F0
:1015B000CFE70B88C3F383136344EDE70026E0E72E
:1015C0009D1CC8E7BDF80430C3F38313360C1D44DB
:1015D000D7E700BF34030020480700200B4B0C481E
:1015E00010B50022FF21C3F818249960C3E9002236
:1015F000C3F8142483F8202401F032F9044610B90A
:10160000044801F0FFF9204610BD00BF340300205C
:10161000D43C00000C3A000021B9124B03EBC0008F
:1016200000687047104A0F49521AD20815D030B4DA
:101630000E4D2B88834212D0002303E035F823405F
:10164000844205D001339A42F8D1002030BC704763
:1016500001EBC300006830BC704710467047084675
:10166000F8E700BFA43C0000C43C000000020020DA
:10167000094B013903EBC00003290BD8DFE801F067
:1016800002080604022070474079704700797047CD
:101690000420704700207047A43C00002DE9F84367
:1016A000DFF8D890074600208846D9F8084000F0B7
:1016B00005FCD9E90132D9F80060134401339B1BC2
:1016C000012B56D809F21C450121284600F012FCD6
:1016D000FFF71AFF0146284600F00CFCD9E9013259
:1016E000D9F80010134401335B1A012BECD90A40DE
:1016F000033205230231002049F82230C9F80010D6
:1017000000F0E4FB00211C4800F0EAFB80F310002D
:10171000731C234009EB830300043440033440EA84
:101720001740D86019F8243067F3C50309F824304E
:1017300039F824306FF3891329F8243059F824201C
:1017400068F39F221346012161F301036FF38203C3
:1017500049F8242009F8243099F820341BB906E010
:1017600000F00EF818B1D9E900329A42F8D1BDE87C
:10177000F8833146BBE700BF500700203403002048
:101780002DE9F047914C002384B0C4F81834BFF31E
:101790004F8FD4E9015605EA0602D31C04EB8301FE
:1017A00014F82330580719D527680B7803F0030382
:1017B000012B43D0022B03D14B88023505EB931547
:1017C00006EA0502D4F81804D31C04EB830128B9F7
:1017D000AF4239D914F823305B07E6D404EB820218
:1017E0006B1CD2680192334004EB830302F00302C6
:1017F000DB680293022A05F1020700F08980012AC2
:1018000026D0D4F810543DB12B6828469B689847E1
:10181000EB681D68002DF7D16D486E4B6E49C01AFC
:10182000C008000440F00200FFF738FFD4E90030A0
:10183000C01A18BF012004B0BDE8F0870B8802353C
:10184000C3F383131D44BBE7676004B0BDE8F087B2
:10185000BDF804206148C2F38313062B28BF06237A
:1018600063F3891202339900ADF8042000F0FAFF07
:1018700080460028C5D001F037F80023082201A9CE
:10188000404601F057F8BDF8043013F4707F00F0C3
:101890009B806FF0010AAAEB050A082506EA0701FA
:1018A00003312B46042204EB8101404601F042F84B
:1018B000BDF8043007F101090AEB0902C3F38313F1
:1018C00093424F4605F10405E8D8D4F81834002BAC
:1018D00064D1D4F8105465B1EB685A792846414672
:1018E000002A57D02B681B689847EB681D68002DAD
:1018F000F2D1404600F0FCFF002000F0DFFAD4F8FF
:1019000018340BB9C4F80490002000F0DFFA8DE71A
:10191000BDF8063031484FEA93194D46502D28BF87
:10192000502565F38F1305F10801ADF8063000F07E
:1019300099FF804600283FF464AF26EA070A0AF1BF
:10194000010A00F0D1FF4FEA8A0A0023082201A908
:10195000404600F0EFFF55452BD9EBB2BAF1000F2E
:1019600020D006EA0701A3EB0A03033104EB81014F
:10197000DDB252460823404600F0DCFF2A460AF159
:1019800008031749404600F0D5FF09F1030907EBAA
:1019900099099AE71D68002D9ED1AAE7404600F0FC
:1019A000A7FF43E72A4608230D49404600F0C2FF3F
:1019B000EBE706EA0701033104EB81012A4608231D
:1019C000404600F0B7FFE0E7B9467EE73403002069
:1019D000BC3C0000A43C0000183A0000D43C0000CD
:1019E000400300202DE9F047DFF8E4A0074600207F
:1019F00091468846DAF8084000F060FADAE90132E8
:101A0000DAF80060134401339B1B022B5CD80AF206
:101A10001C450121284600F06DFAFFF775FD0146CF
:101A2000284600F067FADAE90132DAF800101344C8
:101A300001335B1A022BECD90A40033203314523F0
:101A400000204AF82230CAF8001000F03FFAB31C18
:101A500023400AEB830300211C48C3F80C9000F0DC
:101A60003FFA80F31000731C23400AEB8303000449
:101A70003440033440EA1740D8601AF8243067F342
:101A8000C5030AF824303AF82430012161F38913A0
:101A90002AF824305AF8242068F39F22134661F371
:101AA00001036FF382034AF824200AF824309AF8DD
:101AB00020341BB906E0FFF763FE18B1DAE9003203
:101AC0009A42F8D1BDE8F0873146B5E750070020CB
:101AD00034030020044BD3E900239A4201D0FFF7DE
:101AE0004FBE0020704700BF3403002030B4184DB3
:101AF000D5F8104400215CB1E3681A798A4204D118
:101B000016E0DB681A798A4212D01B68002BF8D1E4
:101B1000C3681971D5F8103493B1DA68C3681268D4
:101B20001A60D5F81034DB68186030BC084670477E
:101B300001310A29DFD14FF0FF31084630BC704730
:101B4000C5F81004C2681360084630BC704700BF77
:101B50003403002038B5094BD3F81044012583F82D
:101B600020544CB1E3685D71236820465B68984758
:101B7000E3681C68002CF5D138BD00BF3403002099
:101B80002DE9F04784B01D460C9C002394F80C808E
:101B90002373EB8881460E461746002B40D1297AE5
:101BA00005290ED06B7AA88873BB404B53F821A04F
:101BB0000021FFF731FD524603463D49204600F023
:101BC00029FA062F09D8DFE807F0046A4249525D76
:101BD00033004946204600F01DFA2B7A052B05D02C
:101BE0006B7A5BB93349204600F014FA204600F0C6
:101BF00005FA84F80C8004B0BDE8F0872E4A2F491E
:101C0000204600F007FAEDE7FFF732FD2C4B2B4999
:101C100053F82020204600F0FDF9297AA888C4E76F
:101C2000254A00922749284A204600F0F3F9B6E7F2
:101C3000D6E90410D6E900230390D6E90207029101
:101C4000CDE900074946204600F0E4F9C5E74946DA
:101C5000D6E90023204600F0DDF9BEE7B168D6E9F9
:101C6000002320460091494600F0D4F9B5E7D6E9B3
:101C70000201D6E90023019100904946204600F078
:101C8000C9F9AAE7D6E90371B068D6E90023029141
:101C9000CDE900074946204600F0BCF99DE73268CF
:101CA0004946204600F0B6F997E700BFA43A000085
:101CB000943A0000A03A0000883A0000903A0000F0
:101CC000303A0000703A0000683A0000082900D954
:101CD00070472DE9F04F1D46904600232A7B2B7359
:101CE00085B0B8F80630039207460E46002B7BD12C
:101CF00098F80810052911D098F80930B8F80400B0
:101D0000002B63D13C4B53F821400021FFF784FCAA
:101D1000224603463949284600F07CF9DFF8FCB03A
:101D2000DFF8FC90002405E03A5D013400F072F920
:101D3000082C09D0A64249462846F5D85946013410
:101D400000F068F9082CF5D12D49DFF8D8B0DFF89C
:101D5000D890284600F05EF900240CE017F804A0A3
:101D6000BAF17E0F23D92E2249462846013400F0CD
:101D700051F9082C08D0A642F0D85946284601341B
:101D800000F048F9082CF6D198F80830052B02D05D
:101D900098F80930A3B91B49284600F03BF92846BA
:101DA00000F02CF9039B2B7305B0BDE8F08F01F018
:101DB000B7FD50445246437813F0970FD3D0D3E782
:101DC000114A1249284600F025F9E4E7FFF750FCD4
:101DD0000F4B0E4953F82020284600F01BF998F8C5
:101DE0000810B8F804008DE7074A009209490A4A2A
:101DF000284600F00FF97BE7A43A0000943A00006F
:101E0000603A0000A03A0000883A0000903A0000D2
:101E1000303A0000703A0000683A00005C3A000076
:101E2000543A00009C3A0000643A000000B585B0C6
:101E300000230390194601AA44F20100CDE90133C1
:101E400000F004F805B05DF804FB00BF10B572B6F1
:101E5000FFF780FEFFF73EFE0028FBD1104B114C30
:101E60001149E41AE408240444F00100FFF716FCC9
:101E70000E4B1B68DB0700D500BE44F002000C4986
:101E8000FFF70CFCBFF34F8F0A490B4BCA6802F4F3
:101E9000E0621343CB60BFF34F8F00BFFDE700BF8D
:101EA000A43C0000BC3C0000103B0000F0ED00E052
:101EB0001C3B000000ED00E00400FA0572B6024A87
:101EC0001368013313607047F0070020034A13685A
:101ED000013B136003B962B6704700BFF0070020F2
:101EE00050E8002F0B4640E8003C9CF0000FF7D173
:101EF0001046704750E8003F03EB010240E8002C19
:101F00009CF0000FF6D11046704700BF50E8003F2C
:101F1000A3EB010240E8002C9CF0000FF6D1104624
:101F2000704700BF012350E8002F42EA030C40E84D
:101F300000C191F0000FF6D160467047002350E8D1
:101F400000CF0CEA030240E8002191F0000FF6D127
:101F500060467047B8B130B4D0E90112521A046833
:101F6000D2B2531E2160DBB242B101680A685C1E26
:101F7000551C0D601370E3B2FF2BF6D103680020EF
:101F8000187130BC70470E20704700BF38B504464A
:101F90000020FFF793FFD4E900311A688A4215D96F
:101FA000511E19602168A3680868258A12F8012C5F
:101FB000E4681B1A0879DBB2984205FB024400D2A0
:101FC0000B710020FFF782FF204638BD0024F8E7A0
:101FD00038B5054600200C46FFF770FF2A681368E5
:101FE000591C1160E9682A8A641AB4FBF2F41C7067
:101FF0000020BDE83840FFF769BF00BF826842B1EA
:1020000010B5044643690168006998470023A3603E
:1020100010BD70470EB400B582B0039929B102AA71
:1020200004AB42F8043D00F0A9F802B05DF804EBFF
:1020300003B070472DE9F04F924683B051450F46EB
:1020400005461E46DDE90CB2C0F092800B464FF00B
:102050000108B3FBFAF39A4508F10108F9D9B04534
:1020600038BFB04612F00109A96802D1BBF1000FD8
:1020700054D1012402E0013E0AFB04F4012EFAD8F7
:10208000B7FBF4F08245F7D93B4E02E0A968B7FBF5
:10209000F4F0335C2A680A2B04FB107702EB010E84
:1020A00001F1010029D0A8608EF80030D5E9013196
:1020B000994202D32846FFF7A1FFB4FBFAF4002CA3
:1020C000E4D1B9F1000F15D0BBF1000F12D0C34518
:1020D00010D92024AB682A68591CA960D454D5E9CA
:1020E00001329A420BF1FF3B14D2BBF1000F01D039
:1020F000C345EFD103B0BDE8F08FA8604FF00D00ED
:102100005054D5E9011088421DD2296801EB000E18
:102110000130C8E72846FFF771FFE6E7930722D4AE
:102120002024C345A5D92B684A1CAA605C54D5E974
:10213000013199420BF1FF3B10D2BBF1000F98D057
:10214000C345F0D195E728460193FFF757FFAA68EA
:102150002968019B501C01EB020EA4E72846FFF7FB
:102160004DFFA968E9E7002E0CBF30242024D8E7F2
:102170004FF0010873E700BF2C3B0000002900F07E
:10218000B9822DE9F04F054687B091460C460E788E
:10219000DFF8C8A64FF00D0B13E0AB6828680A2ED5
:1021A00003F1010200EB030100F04B82AA600E7004
:1021B000D5E901329A4280F01B812678002E00F08A
:1021C0001E810134002E00F01A81252EE5D1234610
:1021D000002713F8012B2D2A00F0E380302A00F0AD
:1021E000E4802B2A00F0D4802A2A00F00D81A2F18D
:1021F0003006F1B2092903D97DE2A1F13006034688
:10220000184606EB860110F8012BA2F13004092CC8
:1022100002EB4101F1D92E2A00F002814FF00008B3
:10222000013301E013F8012B02F0FB0168291C4681
:10223000F8D0253A532AC0D801A353F822F000BFA2
:102240002B260000BB210000BB210000BB210000A9
:10225000BB210000BB210000BB210000BB2100000E
:10226000BB210000BB210000BB210000BB210000FE
:10227000BB210000BB210000BB210000BB210000EE
:10228000BB210000BB210000BB210000BB210000DE
:10229000BB210000BB210000BB210000BB210000CE
:1022A000BB210000BB210000BB210000BB210000BE
:1022B000BB210000BB210000BB210000BB210000AE
:1022C000BB210000BB210000BB210000BB2100009E
:1022D000BB210000BB210000BB210000BB2100008E
:1022E000BB210000BB210000BB210000BB2100007E
:1022F000BB210000BB210000BB210000BB2100006E
:10230000BB210000BB210000BB2100000F26000004
:10231000BB210000BB210000BB210000BB2100004D
:10232000BB210000BB210000BB210000BB2100003D
:10233000BB210000BB210000B32300009525000055
:10234000BB210000BB210000BB210000BB2100001D
:1023500095250000BB210000BB210000BB2100002F
:10236000BB210000BB210000BB210000FD240000B8
:10237000BB210000BB21000075240000BB21000030
:1023800059240000BB210000BB2100000F260000E3
:1023900047F004071C46234613F8012B2D2A7FF42F
:1023A0001DAF47F001071C46F5E747F002071C4642
:1023B000F1E7D9F800301A1DC9F800201E78AB6883
:1023C0000A2E0CD12A68591CA96002F803B0D5E97D
:1023D0000123934203D32846FFF710FEAB682A6817
:1023E000591CA960D654D5E901329A42FFF4E5AEF2
:1023F0002846FFF703FE2678002E7FF4E2AE2B7B03
:1024000023BB07B0BDE8F08FD9F80020111DC9F833
:102410000010166862782E2A04F102007FF4FEAEE6
:102420005A78A2F13003092B00F2BD814FF0000869
:1024300008EB880802EB480810F8012FA2F13003DE
:10244000092BA8F13008F3D90346E9E6284607B07E
:10245000BDE8F04FFFF7D2BDD9F800301A1DC9F81A
:10246000002019680197434600960A222846FFF784
:10247000E1FDA2E6D9F800301A1DC9F80020D3F812
:102480000080FB0700F1E880B8F1000F00F0A181A7
:10249000404601F078FA0746BE4215D9A6B1202180
:1024A00000E08EB1AA682B68501CA8609954D5E949
:1024B00001329A4206F1FF3604D328460391FFF712
:1024C0009DFD0399BE42ECD108F1FF3818F8016F69
:1024D000002E3FF472AEAB6828680A2E03F10102A9
:1024E00000EB030100F09081AA600E70D5E9013283
:1024F0009A42EBD32846FFF781FDE7E7D9F80020A1
:10250000131DC9F80030AB6829681768581C3022C1
:10251000A860CA54D5E90123934280F0E6802A6876
:10252000581C7821A860D154D5E90123934280F04A
:10253000D7800F2F03D93A4612090F2AFCD84FF043
:1025400080560DE0AA6081F80080D5E901329A42F8
:1025500002D32846FFF752FD36093FF42EAEAB6892
:10256000B7FBF6F21AF802802868B8F10A0F06FBEA
:10257000127700EB030103F10102E3D1AA6000F836
:1025800003B0D5E901329A4280F049812B6899184D
:102590000132D7E7D9F800301A1DC9F800201968B0
:1025A00081EAE173A3EBE173092B40F30E81AA48A2
:1025B0000122A0FB03C3DB08092B02F10102F8DCB6
:1025C0004245134638BF4346039307F00203002EEB
:1025D00040F09580002B00F0B780B8F1000F00F0BC
:1025E000F680F80740F1B0800029C0F2FF807A073A
:1025F00000F1C88007F00303022B00F0A780CDE9AB
:10260000006743460A222846FFF714FDD5E5D9F8AE
:1026100000301A1DC9F8002019680197434600963A
:1026200010222846FFF706FDC7E5AB682A68581C4C
:102630002521A860D154D5E901329A42FFF4BDADFD
:10264000D6E6AA6000F803B0D5E901329A423FD23B
:10265000296811440132A9E54146A1EB080311F8AC
:10266000017BD7B1AB68D5F800C00A2F03F1010296
:102670000CEB030000F0AF80AA600770D5E90132CF
:102680009A42EAD328460391FFF7B8FC0399A1EBDD
:10269000080311F8017B002FE4D19E427FF68DAD37
:1026A000202702E0002E3FF488ADA9682A68481C64
:1026B000A8605754D5E90121914206F1FF3604D3B1
:1026C00028460393FFF79AFC039BB342EAD174E5D3
:1026D0002846FFF793FCAB6829685A1C194465E546
:1026E0002846FFF78BFCAB6823E72846FFF786FCFC
:1026F000AB6814E770471846002623468BE500298F
:1027000020DB7A071ED41BB1B8F1000F3FF46CAF89
:10271000F8073FF569AFBEB1039BB342BFF464AFA6
:102720002023AA68501CA86028688354D5E90102B8
:10273000824206F1FF3640D236B1039AB242F0D15E
:10274000164651E7013EDEE700264DE7B8F1000FDF
:102750007FF455AF002E6AD0039BB342BFF44FAF56
:102760003023AA68501CA86028688354D5E9010268
:10277000824206F1FF3618D2002E58D0039AB24298
:10278000EFD13CE7AA68531CAB602B682B20985410
:10279000D5E901329A42FFF42DAF28460491FFF7A4
:1027A0002DFC049926E7034638E52846CDE90413B5
:1027B000FFF724FCDDE90413DEE72846CDE9041326
:1027C000FFF71CFCDDE90413B6E70122F8E64646F4
:1027D0000AE7474660E6AA600CF803B0D5E9013283
:1027E0009A4226D22B689818013245E7AA68531CF2
:1027F000AB602B682D209854D5E901329A42C1F183
:102800000001FFF4F7AEC8E7AA6000F803B0D5E90D
:1028100001329A4217D229681144013264E62846EF
:10282000FFF7ECFBA9682B684A1C19448AE60026CE
:10283000E5E628460391FFF7E1FBA8682B680399BA
:10284000421C184418E72846FFF7D8FBAB682968F4
:102850005A1C194448E600BFCDCCCCCC2C3B000020
:10286000FFF778BB2DE9F041058ACE1C043D2E44CC
:102870000746B6FBF5F6FFF789FB78B3F6B24FF4DF
:102880008073013E0446C5800760838027D0804660
:10289000002509E06379AE4203F101036371C8F8D2
:1028A0000000076080461AD03846FFF76FFB0135FD
:1028B0000028EFD16679721E14D02346013082427F
:1028C0001B68FBD11F684EB10025236821460135E6
:1028D00038461C46FFF77CFBAE42F6D1002420466A
:1028E000BDE8F0812768EFE704300121FFF702BB64
:1028F000F8B5012104460430FFF708FBC0B200B16F
:10290000F8BD6679721E12D02346013082421B68E0
:10291000FBD11F68002EF3D0002523682146013526
:1029200038461C46FFF754FBAE42F6D1F8BD276887
:10293000F2E700BF2DE9F843C788467907FB06F6A2
:10294000043E02EB030C0446664503F10400154601
:102950008846B0FBF7F238BFF51A07FB120012B138
:10296000013A2468FCD13E1AAE4228BF2E469DB1E2
:102970004FF000090430AD1B2044324608EB09013A
:1029800000F0EEFFAF42B14424683E464FF0000035
:1029900028BF2E46002DEDD1BDE8F8832DE9F84380
:1029A000C7884679154607FB06F6043E05EB030C7F
:1029B0001A1D664504468846B2FBF7F038BFF51A83
:1029C00007FB102110B101382468FCD17E1AAE42F9
:1029D00028BF2E469DB14FF0000904312144AD1BA4
:1029E000324608EB090000F0BBFFAF42B144246857
:1029F0003E464FF0000128BF2E46002DEDD1BDE828
:102A0000F88300BF82680023936082681361826844
:102A100053618268D3608268536082681360704734
:102A200030B585B0047845688DF80040D0E90240A3
:102A3000064A074B039053F8213001958DF8084062
:102A400052F821106846984705B030BDF4070020C1
:102A5000FC07002030B585B0047845688DF800404B
:102A6000D0E90240064A074B039053F82130019504
:102A70008DF8084052F821106846984705B030BDDF
:102A8000F4070020FC0700202DE9F043DFF87480F4
:102A900006784B7F08F806300D46074696460FCD60
:102AA00089B06C460FC495E80F003D78DFF8589068
:102AB000DFF858C018F8055049F826E084E80F0000
:102AC0004CF82600049665B1BEF1000F0B4A69462A
:102AD00007F1040008BF002200F0AAFB09B0BDE81E
:102AE000F083BEF1000F064A694607F10C0008BFEB
:102AF000002200F01DF909B0BDE8F083212A000092
:102B0000552A00005C080020FC070020F407002084
:102B1000014B1B68184700BF0408002038B50C4B58
:102B2000984201D0002038BD00200D46FFF7C6F9BD
:102B3000084B1C7924B10020FFF7C8F9112038BDDB
:102B4000012220461D601A71FFF7C0F9204638BDEA
:102B50000020004004080020034B984203D1034B9F
:102B600000221A601A7170470020004004080020FB
:102B700030B56D4AD2F8043399058BB068D5D2F8D8
:102B80002431002B64D00023C2F82431D2F8243140
:102B900001934FF40171654B0198C2F8081393F843
:102BA000291009B9012151605F4902228DF81820CE
:102BB000D1F88024C1F880249869D968099200224C
:102BC000CDE90710C3E90622D3E9001406A8A047FF
:102BD000554AD2F81C31CBB1544B5869196A884216
:102BE0006BD851490022C1F81C21D1F81C11029167
:102BF0000299596951B1586999688DF8182008905F
:102C00005A61079106A8D3E900129047464AD2F8C4
:102C10004431DBB10021454BC2F84411D2F84401E4
:102C200093F829100090009809B1012111609A6968
:102C300062B10022586AD9689A610122CDE9071071
:102C40008DF8182006A8D3E9001290470BB030BDCC
:102C5000354AD2F804335B07BAD5D2F80831002BD5
:102C6000B6D0324B996900293CD00021C2F8081136
:102C7000D2F8081104910499D868596AD2F8182535
:102C800042545A6A996901325A625A6A8A429FD1F9
:102C9000DA691968002A2ED0D8685D6A1C699A61C1
:102CA000079000220120DC60DA615A628DF818007A
:102CB00008955B6806A898478AE793F8281001F002
:102CC000FF0000298DD1C2F81C01D2F81C1103911C
:102CD00003999C68186A196A205C01311962C2F86C
:102CE0001C0593E7C2F80811D2F808010590059871
:102CF000D2F81825C9E793F8292012B90A4A012009
:102D00005060094A4FF40170C2F80803586ADA6843
:102D100008900024012007928DF818005A689C61E1
:102D200006A8904754E700BF002000400C08002090
:102D30002DE9F041714F06792C2505FB067582B00F
:102D400095F82A30002B40F09A800D4604466C49D5
:102D500000689046FFF7E2FE002840F08C802B6868
:102D6000591C19D01F2B4FF001028ABF65494FF043
:102D7000A04103F01F0302FA03F3C1F808352B68E2
:102D80001F2B86BF03F01F035E4A4FF0A04203F5DE
:102D9000E073032142F823106B685A1C0BD01F2BE1
:102DA00086BF03F01F03574A4FF0A04203F5E073BC
:102DB000002142F823102368AA69C3F82425297D3D
:102DC0006B7D22680B43C2F86C35D5E9001223688D
:102DD000C3F81425C3F80C152B7D012B53D02C23DD
:102DE00003FB06F3FA18C2F804802A69FA50B8F116
:102DF000000F2DD022682B7F434D0021C2F81C11FB
:102E0000D2F81C2100922268DDF800C0C2F84411FB
:102E1000D2F84411226801910199C2F80453216843
:102E2000090B4AB25B01002ADBB261DB02F16042AE
:102E300002F5614282F800332368344D1B0B5AB20D
:102E4000520903F01F03012101FA03F345F8223070
:102E50002C23246803FB0673002204250121C4F8F7
:102E6000005583F82A10C3E9062283F829205A6105
:102E700002B0BDE8F081112002B0BDE8F081082069
:102E800002B0BDE8F081AB68591C0BD01F2B86BF88
:102E900003F01F031B4A4FF0A04203F5E07300212B
:102EA00042F82310EB685A1C1BD01F2B4FF0010275
:102EB0008ABF14494FF0A04103F01F0302FA03F345
:102EC000C1F80835EB681F2B88BF03F01F0303F51B
:102ED000E0738CBF0B4A4FF0A042032142F823104D
:102EE000EB682268A968C2F80835C2F8101576E7C1
:102EF000074A01F00F010A4413769DE70C080020F1
:102F0000712B0000000300508000020000E100E08F
:102F1000FCEC00E0F8B53A4F047902682C2303FB7F
:102F2000047300215B68C2F8001583B10368354A59
:102F3000C3F808230368344D1B0B5AB252092032E0
:102F400003F01F03012101FA03F345F8223003685F
:102F50004FF0FF3CD3F80C65D3F81455D3F808258F
:102F6000D3F81015C3F814C5C3F80CC5036866453B
:102F7000C3F808C5C3F810C50CD01F2E86BF06F0D5
:102F80001F06224B4FF0A04306F5E0764FF0020CEF
:102F900043F826C06E1C0BD01F2D86BF05F01F0501
:102FA0001A4B4FF0A04305F5E075022643F8256063
:102FB0004D1C0BD01F2986BF01F01F01134B4FF092
:102FC000A04301F5E071022543F82150531C0BD0BA
:102FD0001F2A86BF02F01F020C494FF0A04102F5E4
:102FE000E072022341F822300068FFF7B5FD2C2380
:102FF00003FB0474002384F82A306360F8BD00BF2B
:103000000C0800208402020000E100E000030050F0
:10301000F0B5314E05792C2303FB056385B05C695F
:10302000002C53D15A6199601C6283F828400268D1
:10303000C2F81C41D2F81C11026802910121029FC2
:1030400091600268D3F808C0C2F81C41D2F81C1184
:1030500001910199D3F820E0196A5F681CF80EE02D
:1030600001311962C2F81CE517B1204605B0F0BD68
:103070005C691A6A0168944203D819E093F8282021
:103080003ABBD1F81C21002AF8D0C1F81C71D1F844
:103090001C210392039AD3F820E01A6A1CF80EE070
:1030A00001321A62C1F81CE51A6A9442E9D8016833
:1030B000D1F81C31002BFBD00123CB6000202C2346
:1030C00003FB056500236B6105B0F0BD112005B061
:1030D000F0BD0F20F3E700BF0C080020F0B5524B05
:1030E000D3F824218BB0002A6ED00021C3F824111C
:1030F000D3F82421049202228DF81820049AD3F8E0
:1031000080044A4AC3F880040990D3F83C05D36888
:103110000890C2E9061107931168536806A89847FA
:10312000414BD3F84421BAB10021404AC3F84411BD
:10313000D3F8444190690394039C68B1D3F83C35BB
:10314000D06808930123C2E9061107908DF8183062
:1031500006A8D2E900139847334BD3F82021BAB11F
:103160000021C3F82011D3F82021029201202F4A18
:10317000029CD860506958B1D3F84C059368089008
:103180008DF818105161079306A8D2E900139847EB
:10319000254BD3F85821AAB10021C3F85811D3F810
:1031A0005801224A01900198506958B1D3F84C0552
:1031B000936808908DF818105161079306A8D2E91A
:1031C000001398470BB0F0BDD3F810110029A7D019
:1031D000C3F81021D3F8101114480591059981699D
:1031E000D3F83C458C429BD1C569C768D0E900162D
:1031F0008DB1D3F800C285612CF02005C261C3F8FF
:1032000000520369C3600122CDE907748DF81820CC
:1032100006A8B04784E701238561CDE907748DF8DE
:10322000183006A8B0477BE700200040380800208F
:103230002DE9F04307797E4E4FEAC70808EB0703F4
:1032400006EB830387B093F82030002B40F0B0806A
:103250000D460446774900689146FFF75FFC002859
:1032600040F0A2802B68591C19D01F2B4FF001028F
:103270008ABF71494FF0A04103F01F0302FA03F324
:10328000C1F808352B681F2B86BF03F01F036A4A5D
:103290004FF0A04203F5E073032142F823106B685E
:1032A0005A1C0BD01F2B86BF03F01F03624A4FF03E
:1032B000A04203F5E073002142F823102368AA69B5
:1032C000C3F82425297D6A7D23680A43C3F86C2549
:1032D000D5E900312268C2F80C35C2F814152B7DEF
:1032E000012B69D008EB07029200B318C3F80490D1
:1032F0002B69B350B9F1000F45D021682A7F4F4D9B
:103300000023C1F81031D1F8101101912168DDF8C6
:1033100004C0C1F82031D1F8201102912168DDF8F4
:1033200008C0C1F82431D1F8241103912168DDF8D7
:103330000CC0C1F84431D1F8441104912168DDF882
:1033400010C0C1F85831D1F858112368059105997A
:10335000C3F804532168090B53014AB2002ADBB2B7
:103360005FDB02F1604202F5614282F800332368BC
:10337000334D1B0B5AB2520903F01F03012101FA0E
:1033800003F345F822304744226806EB8706002302
:1033900001240821C2F8001586F82040C6E906334A
:1033A000736107B0BDE8F083112007B0BDE8F0837A
:1033B000082007B0BDE8F083AB68591C0BD01F2B69
:1033C00086BF03F01F031C4A4FF0A04203F5E073D1
:1033D000002142F82310EB685A1C1BD01F2B4FF022
:1033E00001028ABF14494FF0A04103F01F0302FA03
:1033F00003F3C1F80835EB681F2B88BF03F01F03E8
:1034000003F5E0738CBF0C4A4FF0A042032142F851
:103410002310EB682268A968C2F80835C2F81015B5
:1034200060E7084A01F00F010A4413769FE700BFE6
:1034300038080020DD300000000300501003420077
:1034400000E100E0FCEC00E0F0B50679474C0368D1
:10345000F500AA1904EB820283B0526882B1444A93
:10346000C3F808230368434F1B0B5AB2520920329A
:1034700003F01F03012101FA03F347F82230036828
:10348000D3F8002222F02002C3F8002202680123B0
:10349000536002680021C2F85811D2F8581102682E
:1034A00001910199D3600268D2F85831002BFBD00A
:1034B0000023C2F8003503684FF0FF3ED3F80CC577
:1034C000D3F81475D3F80825D3F81015C3F80CE514
:1034D000C3F814E50368F445C3F808E5C3F810E53C
:1034E0000DD0BCF11F0F86BF0CF01F0CDFF888E079
:1034F0004FF0A04E0CF5E07C02234EF82C307B1CE4
:103500000CD01F2F86BF07F01F07DFF86CC04FF0ED
:10351000A04C07F5E07702234CF827304F1C0BD066
:103520001F2986BF01F01F01134F4FF0A04701F57F
:10353000E071022347F82130531C0BD01F2A86BFAD
:1035400002F01F020C4B4FF0A04302F5E072022183
:1035500043F822100068FFF7FFFA354404EB8504B6
:10356000002384F82030636003B0F0BD38080020E9
:103570001003420000E100E00003005001F060434E
:10358000B3F1005F2CD1F0B40579264EEF007C1921
:1035900006EB840482B0636923BB6261A1600268A8
:1035A000C2F82031D2F820C10268CDF804C0DDF89D
:1035B00004C0C2F85831D2F8582100920268DDF8F0
:1035C00000C0D4F814C0C2F84415C2F848C5026857
:1035D0000121916062684AB1184602B0F0BC7047A0
:1035E00010207047112002B0F0BC7047036800E063
:1035F000B2B9D3F82011D3F858210029F8D07AB9FC
:103600000122DA600268D2F85831002BFBD000208A
:103610003D4406EB85060023736102B0F0BC7047A1
:103620000F20F5E7380800202DE9F04F274B002147
:1036300083B019600846FDF7D1FF08B1FEF7F6FB2D
:10364000FDF752FF224F234B2349244D244EDFF830
:1036500094B0DFF894A0FF1AFF083F0447F0030777
:103660003846FEF71BF84FF0010845EA0805C14649
:10367000C6F80090D6F80031002BFBD00023C6F826
:103680000031D6F8083513F4007FD6F8083518BF96
:1036900043EA0B03002BB8BF03339B100193C6F81A
:1036A0000480019A51463846FEF79CF94FF4FA74AB
:1036B0004FF47A40A847013CFAD1FEF70BFA0028F4
:1036C000D6D0FEF707FA0028F7D1D1E704C50040AD
:1036D000BC3C0000A43C0000583B0000503B0000F4
:1036E00000C0004000FCFFFF783B000010B44FF02A
:1036F00080414FF080520020C1F80C015E4BC1F8B0
:103700001001C1F83805D2F80414C3F82015D2F816
:103710000814C3F82415D2F80C14C3F82815D2F8ED
:103720001014C3F82C15D2F81414C3F83015D2F8BD
:103730001814C3F83415D2F81C14C3F84015D2F885
:103740002014C3F84415D2F82414C3F84815D2F84D
:103750002814C3F84C15D2F82C14C3F85015D2F81D
:103760003014C3F85415D2F83414C3F86015D2F8E5
:103770003814C3F86415D2F83C04C3F86805D2F8CD
:1037800040043E49C3F86C050968D2F84424C3F8E4
:103790007025082924D04FF08043D3F80024D207A5
:1037A00044BF6FF00102C3F80024354AD2F88830D4
:1037B00043F47003C2F88830BFF34F8FBFF36F8FAD
:1037C0004FF01023D3F80022002A23DBD3F8043271
:1037D000002B1FDB2B4B2C4A1A605DF8044B704703
:1037E0002A4B1B68002BD6D129482A4A2A4C046050
:1037F0002A492B4BFB20C2F818050A681B68294888
:1038000022F00F0203F00F0313434FF400720B601A
:103810000260C0E7244B0122C3F80425D3F800243A
:10382000002AFBD04FF0102312221F49C3F80022B8
:10383000D1F80034002BFBD04FF0102212211A4B8C
:10384000C2F80412D3F80024002AFBD00022164943
:10385000C3F80425D1F80034002BFBD0BFF34F8F01
:103860000749124BCA6802F4E0621343CB60BFF30E
:103870004F8F00BFFDE700BF00C0004030010010C7
:1038800000ED00E0240000200090D003340100107F
:103890008C56004000F0004048810300E40E0040D8
:1038A000580200104096024000E001400400FA0572
:1038B00008B5074B044613B10021AFF30080054B58
:1038C0001868836A03B19847204600F071F800BF7A
:1038D00000000000903B000070B50D4E0D4CA41B85
:1038E000A4100025A54209D10B4E0C4C00F062F843
:1038F000A41BA4100025A54205D170BD56F82530A3
:1039000098470135EEE756F8253098470135F2E73C
:10391000F8010020F8010020F8010020FC0100203F
:10392000044B054A1B681B6A002B08BF1346D3F8DB
:10393000EC007047280000208C00002082B001B904
:1039400001A942B14BB113780B601278101C18BF5B
:10395000012002B070471046FBE76FF00100F8E766
:1039600010B5431E0A44914200D110BD11F8014B1D
:1039700003F8014FF7E702440346934200D1704732
:1039800003F8011BF9E7034613F8012B002AFBD1CA
:10399000181A0138704749B1FF2A85BF8A2303608E
:1039A0000A704FF0FF3098BF0120704708467047FB
:1039B000FEE700BFF8B500BFF8BC08BC9E467047E4
:1039C000F8B500BFF8BC08BC9E467047FFFFFFFF7C
:1039D000FFFFFFFFFFFFFFFFFFFFFFFF00000000F3
:1039E000000000000000D60106010000D513000011
:1039F00041140000D1130000756172745F6C6F6731
:103A00005F6261636B656E64000000005807002010
:103A10007F000000D80700204261636B656E64730D
:103A200020666C757368656400000000617070004A
:103A3000883A0000B83A0000683A0000C03A000036
:103A4000C83A0000D03A0000D83A0000E03A00003E
:103A5000E83A0000202530327800000020202000C5
:103A60007C000000256300001B5B313B33316D009F
:103A700025734C6F67732064726F707065642028C3
:103A800025642925730D0A001B5B306D00000000C2
:103A9000257300003C25733E2025733A200000006A
:103AA0000D0A000000000000F03A0000F83A0000A3
:103AB000003B0000083B00001B5B313B33306D00D6
:103AC0001B5B313B33326D001B5B313B33336D008D
:103AD0001B5B313B33346D001B5B313B33356D0079
:103AE0001B5B313B33366D001B5B313B33376D0065
:103AF0006572726F720000007761726E696E6700A6
:103B0000696E666F00000000646562756700000002
:103B1000466174616C206572726F720053797374C0
:103B2000656D2072657365740000000030313233BA
:103B300034353637383941424344454650525300B4
:103B400055415254000000005541525445000000B8
:103B50000338FDD87047000054656D70657261745C
:103B6000757265206578616D706C65207374617223
:103B70007465642E0000000041637475616C2074EC
:103B8000656D70657261747572653A202564000018
:103B90002C0000204300504F534958002E000020B5
:103BA00020202020202020202828282828202020ED
:103BB000202020202020202020202020202020889D
:103BC0001010101010101010101010101010100401
:103BD0000404040404040404041010101010101051
:103BE0004141414141410101010101010101010145
:103BF000010101010101010101011010101010105B
:103C00004242424242420202020202020202020214
:103C10000202020202020202020210101010200030
:103C20000000000000000000000000000000000094
:103C30000000000000000000000000000000000084
:103C40000000000000000000000000000000000074
:103C50000000000000000000000000000000000064
:103C60000000000000000000000000000000000054
:103C70000000000000000000000000000000000044
:103C80000000000000000000000000000000000034
:103C90000000000000000000000000000000000024
:043CA0000000000020
:103CA4003C3B000000000000403B0000000000001E
:103CB400483B0000000000002C3A00000000030311
:103CC400EC39000000000000F83900001C0000205E
:103CD400640200202C030020340300206C02002026
:043CE40018000000C4
:083CE80058D5FF7F0100000028
:103CF0000000000000200040000000000020004004
:103D00000000000000000000FF0000000090D00351
:103D10002C00002000000000000000000000000057
:103D20000000000000000000000000000000000093
:103D30000000000000000000000000000000000083
:103D40000000000000000000000000000000000073
:103D50000000000000000000000000000000000063
:103D60000000000000000000000000000000000053
:103D70000000000043000000000000000000000000
:103D80000000000000000000000000000000000033
:103D900000000000430000000000000000000000E0
:103DA0000000000000000000000000000000000013
:103DB00000000000430000000000000000000000C0
:103DC00000000000000000000000000000000000F3
:103DD00000000000430000000000000000000000A0
:103DE00000000000000000000000000000000000D3
:103DF0000000000043000000000000000000000080
:103E000000000000000000000000000000000000B2
:103E1000000000004300000000000000000000005F
:103E20000000000000000000000000000000000092
:103E3000000000004300000000000000000000003F
:103E40000000000000000000000000000000000072
:103E500000000000973900003D390000000000001C
:103E60009E3B00009C3B00009D3B00009D3B0000F2
:103E70009D3B00009D3B00009D3B00009D3B0000E2
:103E80009D3B00009D3B00009D3B0000FFFFFFFFAE
:103E9000FFFFFFFFFFFFFFFFFFFF00000100415397
:103EA000434949000000000000000000000000003D
:103EB000000000000000000000000000000041536E
:103EC000434949000000000000000000000000001D
:103ED00000000000000000000000000000000000E2
:083EE000251200000112000090
:04000003000012B532
:00000001FF
