:1010000000000420B5120000DD120000DF12000015
:10101000E1120000E3120000E512000000000000F1
:10102000000000000000000000000000E7120000C7
:10103000E912000000000000EB120000ED120000B9
:101040007D340000EF120000E1340000EF120000D8
:10105000EF120000EF120000EF1200004135000017
:101060000D3A0000EF120000EF120000EF12000036
:10107000EF120000EF120000EF120000EF1200006C
:10108000EF12000009210000EF120000EF12000033
:10109000D1210000EF120000EF120000EF1200005B
:1010A000EF120000EF120000EF120000EF1200003C
:1010B000EF120000EF12000000000000000000002E
:1010C000EF120000EF120000EF120000EF1200001C
:1010D000EF120000EF120000EF120000EF1200000C
:1010E000EF120000EF120000EF12000000000000FD
:1010F00000000000EF12000000000000EF120000EE
:1011000000000000000000000000000000000000DF
:1011100000000000000000000000000000000000CF
:1011200000000000000000000000000000000000BF
:1011300000000000000000000000000000000000AF
:10114000000000000000000000000000000000009F
:10115000000000000000000000000000000000008F
:10116000000000000000000000000000000000007F
:10117000000000000000000000000000000000006F
:10118000000000000000000000000000000000005F
:10119000000000000000000000000000000000004F
:1011A000000000000000000000000000000000003F
:1011B000000000000000000000000000000000002F
:1011C000000000000000000000000000000000001F
:1011D000000000000000000000000000000000000F
:1011E00000000000000000000000000000000000FF
:1011F00000000000000000000000000000000000EF
:1012000010B5054C237833B9044B13B10448AFF340
:1012100000800123237010BD0002002000000000A8
:101220001C4D000008B5034B1BB103490348AFF345
:10123000008008BD00000000040200201C4D0000DA
:10124000154B002B08BF134B9D46A3F5803A002198
:101250008B460F461348144A121A03F068FB0F4BD3
:10126000002B00D098470E4B002B00D09847002051
:10127000002104000D000D48002802D00C48AFF3F7
:10128000008003F005FB2000290003F097F903F02C
:10129000EBFA00BF0000080000000420000000007E
:1012A0000000000000020020E00D0020000000000F
:1012B000000000000649074A074B9B1A03DD043B68
:1012C000C858D050FBDC03F0EDF9FFF7B9FF000080
:1012D0009C4D00000800002000020020FEE7FEE711
:1012E000FEE7FEE7FEE7FEE7FEE7FEE7FEE7FEE7D6
:1012F000F0B595B0002415460F4608461E4601F08D
:10130000FFFE384623460895082205A91A9D09962E
:101310000D950A948DF82C400C9401F04BFF9DF82C
:1013200014308DF81140DDE9061003F00302012AA4
:10133000CDE9020127D0022A04D0384601F0E4FEAC
:1013400015B0F0BDBDF81650C3F3C2038DF81030D0
:10135000AD090826082D2C4628BF0824334622460E
:101360000EA9384601F026FF2D1B214608AB02AA24
:101370000EA8264400F0AEFC002DEBD1384601F05B
:10138000C3FE15B0F0BDBDF81460059DC6F383160D
:10139000C3F3C204B2000EA9384608238DF81040EA
:1013A000C5F3952501F006FF08AB324628460EA985
:1013B000009302AB00F0E8FB384601F0A5FE15B043
:1013C000F0BD00BF014B01221A707047600200207F
:1013D000704700BF00B583B0044B0093044A40231C
:1013E000FFF786FF03B05DF804FB00BFF5130000B4
:1013F0002002002038B50E480E4D03780E4CEB5CF1
:101400000025D2B2257053B90C3002F07BFD58B9DB
:101410000A4B1B7813B12378002BFCD038BD043065
:1014200003F026F80028F3D000F04AFDF0E700BFF3
:1014300008000020DC0D0020600200201C020020BB
:1014400070B51348134A0378D35C88B0DBB90C300D
:1014500002F0DAFC104D0FCD6C460FC495E80F007A
:1014600008AD102645F8206D84E80F0029460022BB
:10147000074801F087FF08B100F022FD074B00226A
:101480001A7008B070BD043002F058FFE2E700BFE8
:1014900008000020DC0D0020844900001C02002010
:1014A00070B50D4D0FCD88B06C460FC495E80F0098
:1014B00008AD102645F8206D84E80F002946074A3C
:1014C000074801F05FFF08B100F0FAFC054B01226C
:1014D0001A7008B070BD00BF84490000C513000039
:1014E000080000201C02002008B5FFF7D9FF0421E6
:1014F000034800F0FFFA034B01225A7108BD00BFF8
:10150000704D00001C000020F0B5324C85B004F591
:10151000836001F013F904F2144001F00FF9D4E9EB
:10152000013703EA0702D01C04EB800114F8200005
:1015300010F0040044D003F1020C0E7806F003060C
:10154000012E654635D0022E02F1030621D004EBB0
:1015500086010028F1D104EB82020133D2680192A6
:101560003B4004EB830302F00302012ADE6829D02A
:10157000022A23D1BDF806309B090333360C05EB54
:101580009305154801F0E6F800B16560304605B0F6
:10159000F0BD4B880CEB931307EA0302D11C03F157
:1015A000020C14F82100654604EB810100F00400F0
:1015B000CFE70B88C3F383136344EDE70026E0E72E
:1015C0009D1CC8E7BDF80430C3F38313360C1D44DB
:1015D000D7E700BF34030020480700200B4B0C481E
:1015E00010B50022FF21C3F818249960C3E9002236
:1015F000C3F8142483F8202401F03EFD044610B9FA
:10160000044801F00BFE204610BD00BF340300204B
:10161000804D0000C449000021B9124B03EBC0000B
:1016200000687047104A0F49521AD20815D030B4DA
:101630000E4D2B88834212D0002303E035F823405F
:10164000844205D001339A42F8D1002030BC704763
:1016500001EBC300006830BC704710467047084675
:10166000F8E700BF204D0000704D00000002002090
:10167000094B013903EBC00003290BD8DFE801F067
:1016800002080604022070474079704700797047CD
:101690000420704700207047204D00002DE9F843DA
:1016A000DFF8D890074600208846D9F8084001F0B6
:1016B00011F8D9E90132D9F80060134401339B1BBA
:1016C000012B56D809F21C450121284601F01EF8CD
:1016D000FFF71AFF0146284601F018F8D9E9013250
:1016E000D9F80010134401335B1A012BECD90A40DE
:1016F000033205230231002049F82230C9F80010D6
:1017000000F0F0FF00211C4800F0F6FF80F310000D
:10171000731C234009EB830300043440033440EA84
:101720001740D86019F8243067F3C50309F824304E
:1017300039F824306FF3891329F8243059F824201C
:1017400068F39F221346012161F301036FF38203C3
:1017500049F8242009F8243099F820341BB906E010
:1017600000F00EF818B1D9E900329A42F8D1BDE87C
:10177000F8833146BBE700BF500700203403002048
:101780002DE9F047914C002384B0C4F81834BFF31E
:101790004F8FD4E9015605EA0602D31C04EB8301FE
:1017A00014F82330580719D527680B7803F0030382
:1017B000012B43D0022B03D14B88023505EB931547
:1017C00006EA0502D4F81804D31C04EB830128B9F7
:1017D000AF4239D914F823305B07E6D404EB820218
:1017E0006B1CD2680192334004EB830302F00302C6
:1017F000DB680293022A05F1020700F08980012AC2
:1018000026D0D4F810543DB12B6828469B689847E1
:10181000EB681D68002DF7D16D486E4B6E49C01AFC
:10182000C008000440F00200FFF738FFD4E90030A0
:10183000C01A18BF012004B0BDE8F0870B8802353C
:10184000C3F383131D44BBE7676004B0BDE8F087B2
:10185000BDF804206148C2F38313062B28BF06237A
:1018600063F3891202339900ADF8042001F006FCFD
:1018700080460028C5D001F043FC0023082201A9BE
:10188000404601F063FCBDF8043013F4707F00F0B3
:101890009B806FF0010AAAEB050A082506EA0701FA
:1018A00003312B46042204EB8101404601F04EFC3B
:1018B000BDF8043007F101090AEB0902C3F38313F1
:1018C00093424F4605F10405E8D8D4F81834002BAC
:1018D00064D1D4F8105465B1EB685A792846414672
:1018E000002A57D02B681B689847EB681D68002DAD
:1018F000F2D1404601F008FC002000F0EBFED4F8E5
:1019000018340BB9C4F80490002000F0EBFE8DE70A
:10191000BDF8063031484FEA93194D46502D28BF87
:10192000502565F38F1305F10801ADF8063001F07D
:10193000A5FB804600283FF464AF26EA070A0AF1B7
:10194000010A01F0DDFB4FEA8A0A0023082201A9FF
:10195000404601F0FBFB55452BD9EBB2BAF1000F25
:1019600020D006EA0701A3EB0A03033104EB81014F
:10197000DDB252460823404601F0E8FB2A460AF150
:1019800008031749404601F0E1FB09F1030907EBA1
:1019900099099AE71D68002D9ED1AAE7404601F0FB
:1019A000B3FB43E72A4608230D49404601F0CEFB2E
:1019B000EBE706EA0701033104EB81012A4608231D
:1019C000404601F0C3FBE0E7B9467EE73403002060
:1019D000584D0000204D0000D0490000804D00000F
:1019E000400300202DE9F84F3A4C804600209346F2
:1019F0009A468946A56800F06DFED4E90132276851
:101A000013440133DB1B032B61D804F21C46012174
:101A1000304600F07BFEFFF777FD0146304600F0D0
:101A200075FED4E901322168134401335B1A032B9C
:101A3000EDD90A40033204318523002044F82230D6
:101A4000216000F04FFEBA1CFB1C2A402B4004EB27
:101A5000820204EB830300211F48C2F80CB0C3F8D4
:101A60000CA000F049FE80F310007B1C2B4004EB1F
:101A7000830300043D40033540EA1840D86014F861
:101A8000253068F3C50304F8253034F825300222E8
:101A900062F3891324F8253054F8252069F39F2236
:101AA0001346012161F301036FF3820344F82520FB
:101AB00004F8253094F820341BB906E0FFF760FEE7
:101AC00018B1D4E900329A42F8D1BDE8F88F39460E
:101AD000AFE700BF3403002050070020044BD3E9D8
:101AE00000239A4201D0FFF74BBE0020704700BF91
:101AF0003403002030B4184DD5F8104400215CB1F7
:101B0000E3681A798A4204D116E0DB681A798A42BE
:101B100012D01B68002BF8D1C3681971D5F81034A6
:101B200093B1DA68C36812681A60D5F81034DB68BC
:101B3000186030BC0846704701310A29DFD14FF0E8
:101B4000FF31084630BC7047C5F81004C268136006
:101B5000084630BC704700BF3403002038B5094B3D
:101B6000D3F81044012583F820544CB1E3685D712B
:101B7000236820465B689847E3681C68002CF5D111
:101B800038BD00BF340300202DE9F04784B01D4666
:101B90000C9C002394F80C802373EB8881460E463E
:101BA0001746002B40D1297A05290ED06B7AA888D8
:101BB00073BB404B53F821A00021FFF72DFD524687
:101BC00003463D49204600F031FE062F09D8DFE8E4
:101BD00007F0046A4249525D33004946204600F04E
:101BE00025FE2B7A052B05D06B7A5BB9334920464D
:101BF00000F01CFE204600F00DFE84F80C8004B0BE
:101C0000BDE8F0872E4A2F49204600F00FFEEDE791
:101C1000FFF72EFD2C4B2B4953F82020204600F0D7
:101C200005FE297AA888C4E7254A00922749284A50
:101C3000204600F0FBFDB6E7D6E90410D6E9002304
:101C40000390D6E902070291CDE9000749462046F4
:101C500000F0ECFDC5E74946D6E90023204600F038
:101C6000E5FDBEE7B168D6E900232046009149466C
:101C700000F0DCFDB5E7D6E90201D6E900230191C9
:101C800000904946204600F0D1FDAAE7D6E903714D
:101C9000B068D6E900230291CDE900074946204605
:101CA00000F0C4FD9DE732684946204600F0BEFDC5
:101CB00097E700BF5C4A00004C4A0000584A000009
:101CC000404A0000484A0000E8490000284A000055
:101CD000204A0000082900D970472DE9F04F1D4621
:101CE000904600232A7B2B7385B0B8F80630039208
:101CF00007460E46002B7BD198F80810052911D015
:101D000098F80930B8F80400002B63D13C4B53F825
:101D100021400021FFF780FC22460346394928462E
:101D200000F084FDDFF8FCB0DFF8FC90002405E053
:101D30003A5D013400F07AFD082C09D0A6424946EC
:101D40002846F5D85946013400F070FD082CF5D12D
:101D50002D49DFF8D8B0DFF8D890284600F066FDAE
:101D600000240CE017F804A0BAF17E0F23D92E222C
:101D700049462846013400F059FD082C08D0A642F7
:101D8000F0D859462846013400F050FD082CF6D111
:101D900098F80830052B02D098F80930A3B91B49F0
:101DA000284600F043FD284600F034FD039B2B73CA
:101DB00005B0BDE8F08F02F08FFD504452464378E5
:101DC00013F0970FD3D0D3E7114A1249284600F0F9
:101DD0002DFDE4E7FFF74CFC0F4B0E4953F8202094
:101DE000284600F023FD98F80810B8F804008DE7A5
:101DF000074A009209490A4A284600F017FD7BE786
:101E00005C4A00004C4A0000184A0000584A000092
:101E1000404A0000484A0000E8490000284A000003
:101E2000204A0000144A00000C4A0000544A0000F6
:101E30001C4A0000074B1B5C1F2B86BF03F01F03CF
:101E400005494FF0A041012202FA03F3C1F80C3515
:101E5000704700BFC84A000000030050C10707D404
:101E6000830742BF4FF0A0430C22C3F84C277047B2
:101E70004FF0A0431149032270B4C1F81C278026FB
:101E8000C3F874274FF00055C3F878274FF080440B
:101E9000C3F87C274FF00042C1F80865C3F8085525
:101EA000C3F80845C3F80825820704D54FF0A043BE
:101EB0000C22C3F84C2770BC704700BF00030050D1
:101EC00000B585B000230390194601AA44F2010031
:101ED000CDE9013300F004F805B05DF804FB00BF64
:101EE00010B572B6FFF73AFEFFF7F8FD0028FBD1F8
:101EF000104B114C1149E41AE408240444F0010089
:101F0000FFF7CCFB0E4B1B68DB0700D500BE44F08F
:101F100002000C49FFF7C2FBBFF34F8F0A490B4B7E
:101F2000CA6802F4E0621343CB60BFF34F8F00BF77
:101F3000FDE700BF204D0000584D0000CC4A0000D6
:101F4000F0ED00E0D84A000000ED00E00400FA05E2
:101F5000F0B412F0030412D14B1CDB000A4D0B4EFF
:101F60000B4F34709BB213442B600A4E0A4D0B4B3F
:101F700028803A60347019802046F0BC70470724EE
:101F80002046F0BC704700BFF4070020F007002097
:101F9000F807002000080020FC070020FE070020B2
:101FA0002DE9F047294F3B888B4235D30546002069
:101FB00016460C4600F08EFB254B264A264819781B
:101FC00013780088DBB2834238BF0133C9B234BF13
:101FD000DBB20023994222D092F800801378DFF818
:101FE0008090DBB2984286BF0133DBB200235FFAF8
:101FF00088F80020137000F075FBD9F800300FFA54
:1020000088F24FEAC20A43F83260534405B164B91A
:1020100000209880BDE8F0870920BDE8F087002007
:1020200000F060FB0420BDE8F0870C4B38881B688B
:10203000294608FB0030224602F06EFCD9F8003039
:102040009A440020AAF80440E4E700BFFC070020FF
:1020500000080020F0070020FE070020F407002001
:10206000F80700202DE9F84F1B4C1C4D22782B78E7
:102070009A4226D0DFF86CA0DFF86C90184FDFF89A
:102080006CB04FF000082378DAF800203888D9F8CF
:102090000060DBB20FFA83FE02EBCE0103FB0060AF
:1020A000898852F83E3098472378BBF80010DBB29D
:1020B0005A1C9942D2B206D9227023782A789A42C1
:1020C000E1D1BDE8F88F84F8008022782B789A421D
:1020D000D9D1BDE8F88F00BF00080020F00700202C
:1020E000FC070020F8070020F4070020FE0700206E
:1020F000082910B5044602D00020FFF7E1FED4E91C
:102100000030BDE8104018472DE9F041284A294B1E
:102110000024C2F84041C2F84441C2F84841C2F824
:102120004C41C2F80041C2F804411B6882B033B38D
:102130002149D2F804550A68204EAD1A1A6825F0D4
:102140007F45AA4227460CD8197CD3F81C80AD1ACB
:102150001444B9B9B8F1000F03D043461A68AA4233
:10216000F2D91749174A0B7812789A4219D01649B2
:10217000164A41F823404FF48013C2F8003102B0F0
:10218000BDE8F0811F74D3E9053208210192684649
:1021900032460093FFF704FF0028DBD0FFF790FEE4
:1021A000D8E7531CDBB2022B08BF00230B70DEE71D
:1021B000001001402409002020090020F120000027
:1021C0001D0900201C0900201409002000E100E086
:1021D0002DE9F04F8C4A8D4913780978DFF8508249
:1021E000994285B0D8F800A000F07B810133DBB2C2
:1021F000022B08BF002386481370864A076852F8EE
:1022000023107B1823F07F430024036053462646A7
:102210002046A446ABB11A688A4200F26581DC68A8
:10222000C3F800C0891A1044DA6934B13D1825F0AA
:102230007F45C3E90154DE611E4613460124002B8D
:10224000E9D1002C40F07C8101230093724B734F45
:10225000DFF8E09143F00103019355464FF0000B86
:1022600046B3D6E901C13446F669694B6C481A6831
:10227000ACEB020323F07F43834248D80B44236036
:1022800000220121C4E90122E2612174002D5DD008
:102290002A689A424DD2284603E00A689A424FD2F1
:1022A0000846C1699B1A0029F7D12360E161C46126
:1022B000002ED6D178783978884264D00B4603EB6B
:1022C00043034C1CBA7807EBC303E1B28A421A7984
:1022D000397004BF00213970022A9C6844D0032A57
:1022E00038D0012AE8D1227C002AE5D1D3F80CC0ED
:1022F000C4F804C01969A1605869E06099F8000049
:102300009B69A3610028B0D062609446ADE7A2EB60
:102310000C0222F07F428A4202D28B1A2360AFE77E
:1023200000230122C4E90033A360E36122746DB18C
:102330002A68C8F80040D31A2B60E56125468FE76C
:10234000D21A0A602360E161C461B1E7C8F80040B5
:10235000254685E7002DAFD000232B74ED69002DB5
:10236000FBD1C8F80050A5E74DB1AC422B4603D1D4
:10237000E4E094422FD01346DA69002AF9D1002311
:10238000237488429AD1BBF1000F01D1554553D037
:10239000002D56D1234E244A1F4C4FF480334FF466
:1023A00000310127C2F880103C43C6F848334FF48F
:1023B0003C60C6F808337760A047154BB7604FF410
:1023C0003C601D60A047194B1D70002389F8003048
:1023D00005B0BDE8F08FA34200F09180E06921686C
:1023E000D861002800F086802A4603680B44036009
:1023F000AA424FF000033978787823741CBF154641
:102400004FF0010BBDE700BF1C0900201D09002093
:102410002009002014090020F04A000004080020D0
:10242000FEFF7F000010014000E100E011090020E4
:102430002409002010090020009B002BC5D0002D8E
:10244000A8D0434B434A1C68D2F80465424FD5F8E4
:1024500000A03978331B23F07F43DD1CB9B93F4915
:102460003F4B4FF48030C2F844034FF00108C2F8EC
:1024700004034FF40030C1F8800143F00103086009
:10248000C2F800804FF43C60984787F80080AA4566
:102490002CBF04EB0A0363192E4923F07F43C1F8D4
:1024A0004035D1F80425921B9B1B22F07F4223F07C
:1024B0007F4303329A4288D9294BD1F80425C1F8C9
:1024C000402543F001034FF43C609847234B4FF401
:1024D0000032C3F80021002389F8003005B0BDE8C0
:1024E000F08F00260096B1E674BB521A1A600123E1
:1024F0000093ABE6002339787878237441E71946D6
:10250000EA69C8F8002092B9CDE90231114BDFF831
:1025100040C001209860019B89F80000CCF80020A1
:102520004FF43C609847DDE90231D8F80020C869D3
:102530000968D86100287FF458AF59E72946DFE7DA
:10254000C8F800309A467FE6C8F800309A46CCE7D3
:1025500020090020001001401109002000E100E0E6
:10256000F04A00002DE9F8431F4D204E204FDFF8C0
:1025700098804FF480334FF400324FF0010900246B
:10258000C6F8802047EA0907C5F848334FF43C6095
:10259000C5F80833C5F80490B847C5F808904FF45B
:1025A0003C60C8F80040B847124A134B13491C60FE
:1025B0001470134B134A0C700B2114701C8099700B
:1025C0004FF48012C023C6F8802186F8143332609D
:1025D000C5F8084586F81133D5F80435C8F8003039
:1025E0002046BDE8F88300BF0010014000E100E094
:1025F000F04A000011090020240900201C090020D5
:10260000040800201D09002020090020074B9B78AA
:102610004BB132B128B10368187C20B959745A61A2
:102620007047072070470820704700BF040800204B
:102630002DE9F843234CA378002B37D0002835D060
:10264000214B4D1F9D4234D843697BB3437C0646E2
:10265000012B4FF000000CBF884680461746894684
:1026600000F038F86378A17822785D1CEDB2A942B9
:1026700008BF0025AA421FD003EB430304EBC303AA
:102680000121124A9E601971D2F80425DA600020F7
:10269000C3E904989F61657000F024F80C4B4FF477
:1026A0008012C3F800210020BDE8F8830820BDE8AF
:1026B000F8830720BDE8F883002000F013F8042019
:1026C000F2E700BF04080020FAFFFF0000100140FD
:1026D00000E100E072B6024A1368013313607047EC
:1026E00028090020034A1368013B136003B962B64E
:1026F000704700BF2809002050E8002F0B4640E833
:10270000003C9CF0000FF7D11046704750E8003FA6
:1027100003EB010240E8002C9CF0000FF6D11046BC
:10272000704700BF50E8003FA3EB010240E8002CD7
:102730009CF0000FF6D11046704700BF012350E80F
:10274000002F42EA030C40E800C191F0000FF6D1DF
:1027500060467047002350E800CF0CEA030240E8CF
:10276000002191F0000FF6D160467047B8B130B447
:10277000D0E90112521A0468D2B2531E2160DBB2B2
:1027800042B101680A685C1E551C0D601370E3B20B
:10279000FF2BF6D103680020187130BC70470E2063
:1027A000704700BF38B504460020FFF793FFD4E917
:1027B00000311A688A4215D9511E19602168A36830
:1027C0000868258A12F8012CE4681B1A0879DBB224
:1027D000984205FB024400D20B710020FFF782FFF4
:1027E000204638BD0024F8E738B5054600200C46E1
:1027F000FFF770FF2A681368591C1160E9682A8A7C
:10280000641AB4FBF2F41C700020BDE83840FFF7F6
:1028100069BF00BF826842B110B5044643690168D0
:10282000006998470023A36010BD70470EB400B53F
:1028300082B0039929B102AA04AB42F8043D00F02A
:10284000A9F802B05DF804EB03B070472DE9F04F32
:10285000924683B051450F4605461E46DDE90CB24F
:10286000C0F092800B464FF00108B3FBFAF39A4593
:1028700008F10108F9D9B04538BFB04612F0010996
:10288000A96802D1BBF1000F54D1012402E0013E3E
:102890000AFB04F4012EFAD8B7FBF4F08245F7D90D
:1028A0003B4E02E0A968B7FBF4F0335C2A680A2BC0
:1028B00004FB107702EB010E01F1010029D0A860A2
:1028C0008EF80030D5E90131994202D32846FFF74E
:1028D000A1FFB4FBFAF4002CE4D1B9F1000F15D03C
:1028E000BBF1000F12D0C34510D92024AB682A6871
:1028F000591CA960D454D5E901329A420BF1FF3B2F
:1029000014D2BBF1000F01D0C345EFD103B0BDE835
:10291000F08FA8604FF00D005054D5E901108842A7
:102920001DD2296801EB000E0130C8E72846FFF7E9
:1029300071FFE6E7930722D42024C345A5D92B686D
:102940004A1CAA605C54D5E9013199420BF1FF3B66
:1029500010D2BBF1000F98D0C345F0D195E72846BF
:102960000193FFF757FFAA682968019B501C01EBF0
:10297000020EA4E72846FFF74DFFA968E9E7002EFD
:102980000CBF30242024D8E74FF0010873E700BFC4
:10299000F84A0000002900F0B9822DE9F04F054601
:1029A00087B091460C460E78DFF8C8A64FF00D0BA5
:1029B00013E0AB6828680A2E03F1010200EB030163
:1029C00000F04B82AA600E70D5E901329A4280F085
:1029D0001B812678002E00F01E810134002E00F0AD
:1029E0001A81252EE5D12346002713F8012B2D2A25
:1029F00000F0E380302A00F0E4802B2A00F0D4803D
:102A00002A2A00F00D81A2F13006F1B2092903D97A
:102A10007DE2A1F130060346184606EB860110F868
:102A2000012BA2F13004092C02EB4101F1D92E2A2D
:102A300000F002814FF00008013301E013F8012B90
:102A400002F0FB0168291C46F8D0253A532AC0D869
:102A500001A353F822F000BF432E0000D329000049
:102A6000D3290000D3290000D3290000D329000076
:102A7000D3290000D3290000D3290000D329000066
:102A8000D3290000D3290000D3290000D329000056
:102A9000D3290000D3290000D3290000D329000046
:102AA000D3290000D3290000D3290000D329000036
:102AB000D3290000D3290000D3290000D329000026
:102AC000D3290000D3290000D3290000D329000016
:102AD000D3290000D3290000D3290000D329000006
:102AE000D3290000D3290000D3290000D3290000F6
:102AF000D3290000D3290000D3290000D3290000E6
:102B0000D3290000D3290000D3290000D3290000D5
:102B1000D3290000D3290000D3290000D3290000C5
:102B2000D3290000272E0000D3290000D32900005C
:102B3000D3290000D3290000D3290000D3290000A5
:102B4000D3290000D3290000D3290000D329000095
:102B5000CB2B0000AD2D0000D3290000D3290000AD
:102B6000D3290000D3290000AD2D0000D329000097
:102B7000D3290000D3290000D3290000D329000065
:102B8000D3290000152D0000D3290000D32900000F
:102B90008D2C0000D3290000712C0000D3290000E7
:102BA000D3290000272E000047F004071C462346C7
:102BB00013F8012B2D2A7FF41DAF47F001071C46A7
:102BC000F5E747F002071C46F1E7D9F800301A1D77
:102BD000C9F800201E78AB680A2E0CD12A68591C4F
:102BE000A96002F803B0D5E90123934203D3284634
:102BF000FFF710FEAB682A68591CA960D654D5E9C6
:102C000001329A42FFF4E5AE2846FFF703FE26782C
:102C1000002E7FF4E2AE2B7B23BB07B0BDE8F08F24
:102C2000D9F80020111DC9F80010166862782E2A04
:102C300004F102007FF4FEAE5A78A2F13003092BB2
:102C400000F2BD814FF0000808EB880802EB48084D
:102C500010F8012FA2F13003092BA8F13008F3D9A5
:102C60000346E9E6284607B0BDE8F04FFFF7D2BDBE
:102C7000D9F800301A1DC9F8002019680197434699
:102C800000960A222846FFF7E1FDA2E6D9F80030B7
:102C90001A1DC9F80020D3F80080FB0700F1E88076
:102CA000B8F1000F00F0A181404601F048FE074650
:102CB000BE4215D9A6B1202100E08EB1AA682B68CA
:102CC000501CA8609954D5E901329A4206F1FF36AA
:102CD00004D328460391FFF79DFD0399BE42ECD132
:102CE00008F1FF3818F8016F002E3FF472AEAB68A0
:102CF00028680A2E03F1010200EB030100F0908125
:102D0000AA600E70D5E901329A42EBD32846FFF74C
:102D100081FDE7E7D9F80020131DC9F80030AB6842
:102D200029681768581C3022A860CA54D5E90123C5
:102D3000934280F0E6802A68581C7821A860D1541C
:102D4000D5E90123934280F0D7800F2F03D93A466B
:102D500012090F2AFCD84FF080560DE0AA6081F8C6
:102D60000080D5E901329A4202D32846FFF752FD8E
:102D700036093FF42EAEAB68B7FBF6F21AF80280C4
:102D80002868B8F10A0F06FB127700EB030103F184
:102D90000102E3D1AA6000F803B0D5E901329A42FA
:102DA00080F049812B6899180132D7E7D9F80030B3
:102DB0001A1DC9F80020196881EAE173A3EBE173D9
:102DC000092B40F30E81AA480122A0FB03C3DB08B4
:102DD000092B02F10102F8DC4245134638BF434695
:102DE000039307F00203002E40F09580002B00F0C3
:102DF000B780B8F1000F00F0F680F80740F1B0801E
:102E00000029C0F2FF807A0700F1C88007F00303B1
:102E1000022B00F0A780CDE9006743460A2228462E
:102E2000FFF714FDD5E5D9F800301A1DC9F80020C8
:102E3000196801974346009610222846FFF706FDC1
:102E4000C7E5AB682A68581C2521A860D154D5E98C
:102E500001329A42FFF4BDADD6E6AA6000F803B095
:102E6000D5E901329A423FD2296811440132A9E5DD
:102E70004146A1EB080311F8017BD7B1AB68D5F847
:102E800000C00A2F03F101020CEB030000F0AF8039
:102E9000AA600770D5E901329A42EAD32846039125
:102EA000FFF7B8FC0399A1EB080311F8017B002F91
:102EB000E4D19E427FF68DAD202702E0002E3FF444
:102EC00088ADA9682A68481CA8605754D5E9012133
:102ED000914206F1FF3604D328460393FFF79AFC8C
:102EE000039BB342EAD174E52846FFF793FCAB6835
:102EF00029685A1C194465E52846FFF78BFCAB6826
:102F000023E72846FFF786FCAB6814E770471846AE
:102F1000002623468BE5002920DB7A071ED41BB14F
:102F2000B8F1000F3FF46CAFF8073FF569AFBEB1E1
:102F3000039BB342BFF464AF2023AA68501CA8606F
:102F400028688354D5E90102824206F1FF3640D257
:102F500036B1039AB242F0D1164651E7013EDEE7A0
:102F600000264DE7B8F1000F7FF455AF002E6AD070
:102F7000039BB342BFF44FAF3023AA68501CA86034
:102F800028688354D5E90102824206F1FF3618D23F
:102F9000002E58D0039AB242EFD13CE7AA68531CE6
:102FA000AB602B682B209854D5E901329A42FFF48C
:102FB0002DAF28460491FFF72DFC049926E7034620
:102FC00038E52846CDE90413FFF724FCDDE90413B6
:102FD000DEE72846CDE90413FFF71CFCDDE9041306
:102FE000B6E70122F8E646460AE7474660E6AA60E9
:102FF0000CF803B0D5E901329A4226D22B68981812
:10300000013245E7AA68531CAB602B682D20985409
:10301000D5E901329A42C1F10001FFF4F7AEC8E7E9
:10302000AA6000F803B0D5E901329A4217D22968A4
:103030001144013264E62846FFF7ECFBA9682B68CF
:103040004A1C19448AE60026E5E628460391FFF764
:10305000E1FBA8682B680399421C184418E728462E
:10306000FFF7D8FBAB6829685A1C194448E600BF33
:10307000CDCCCCCCF84A0000FFF778BB2DE9F0416D
:10308000058ACE1C043D2E440746B6FBF5F6FFF735
:1030900089FB78B3F6B24FF48073013E0446C580D5
:1030A0000760838027D08046002509E06379AE421F
:1030B00003F101036371C8F80000076080461AD06D
:1030C0003846FFF76FFB01350028EFD16679721E95
:1030D00014D02346013082421B68FBD11F684EB1D9
:1030E000002523682146013538461C46FFF77CFB46
:1030F000AE42F6D100242046BDE8F0812768EFE714
:1031000004300121FFF702BBF8B501210446043069
:10311000FFF708FBC0B200B1F8BD6679721E12D08D
:103120002346013082421B68FBD11F68002EF3D07A
:10313000002523682146013538461C46FFF754FB1D
:10314000AE42F6D1F8BD2768F2E700BF2DE9F8439B
:10315000C788467907FB06F6043E02EB030C0446DB
:10316000664503F1040015468846B0FBF7F238BF08
:10317000F51A07FB120012B1013A2468FCD13E1A7D
:10318000AE4228BF2E469DB14FF000090430AD1B62
:103190002044324608EB090101F0BEFBAF42B144C6
:1031A00024683E464FF0000028BF2E46002DEDD18A
:1031B000BDE8F8832DE9F843C7884679154607FB33
:1031C00006F6043E05EB030C1A1D664504468846C8
:1031D000B2FBF7F038BFF51A07FB102110B1013828
:1031E0002468FCD17E1AAE4228BF2E469DB14FF016
:1031F000000904312144AD1B324608EB090001F0FF
:103200008BFBAF42B14424683E464FF0000128BF1B
:103210002E46002DEDD1BDE8F88300BF8268002363
:10322000936082681361826853618268D3608268A8
:10323000536082681360704710B570B101280BD1DC
:103240000D4C2369A0703BB1D3E90023012022611A
:1032500098472369002BF7D110BD074CA3680122C2
:103260006270002BF8D0D3E900230020A2609847B9
:10327000A368002BF7D1EFE72C09002038B50A4CE2
:1032800023786BB909486360A3602361E36000F0B1
:10329000BDF8054600F0C8F801232370284638BD64
:1032A0008525284638BD00BF2C0900203932000092
:1032B00038B5154CA378054673B110B143680120A9
:1032C00098470020FFF706FAE3680133E360002027
:1032D000BDE83840FFF706BA03F0FF00FFF7FAF940
:1032E00065B1226942B1954208D0134601E09D4282
:1032F00004D01B68002BFAD12A602561E368002BFB
:10330000E2D100F0A3F8DFE72C0900204FF0804362
:10331000D3F81804C0F30040704700BF30B585B043
:10332000047845688DF80040D0E90240064A074B12
:10333000039053F8213001958DF8084052F8211080
:103340006846984705B030BD400900204809002074
:1033500030B585B0047845688DF80040D0E902406A
:10336000064A074B039053F8213001958DF8084029
:1033700052F821106846984705B030BD400900203A
:10338000480900202DE9F043DFF8748006784B7F70
:1033900008F806300D46074696460FCD89B06C46B4
:1033A0000FC495E80F003D78DFF85890DFF858C05B
:1033B00018F8055049F826E084E80F004CF826007C
:1033C000049665B1BEF1000F0B4A694607F104008F
:1033D00008BF002200F0A6FE09B0BDE8F083BEF1F0
:1033E000000F064A694607F10C0008BF002200F0F2
:1033F00019FC09B0BDE8F0831D3300005133000013
:10340000DC0D00204809002040090020054A1379FE
:103410002BB9012110605371184611717047852036
:10342000704700BF50090020074B1A68D20704D428
:10343000C021012283F800131A604FF0804301225B
:10344000C3F81825704700BF00E100E010B4094B35
:10345000094A0021196083B01B680193019C4FF059
:10346000804102200123C1F80403136003B05DF81A
:10347000044B7047040100400800004010B5154B94
:103480001A6882B07AB10021134A19601B6850791A
:1034900000934FF080410123009CC1F8083310B91C
:1034A0001168537188470D4B1A6882B100221A6067
:1034B0001B6801934FF080420221074B0198C2F82C
:1034C00008131B68012002B0BDE81040184702B085
:1034D00010BD00BF00010040500900200401004061
:1034E000014B1B68184700BF5809002038B50C4B2A
:1034F000984201D0002038BD00200D46FFF7EAF8C1
:10350000084B1C7924B10020FFF7ECF8112038BDDE
:10351000012220461D601A71FFF7E4F8204638BDED
:103520000020004058090020034B984203D1034B70
:1035300000221A601A7170470020004058090020CC
:103540002DE9F041734B1A6888B0002A4CD1DFF89E
:10355000DC8198F82E30002B54D16F4B1A686AB179
:1035600000221A6008A81B680393022100F80C1DB2
:10357000D8F80030039988F810209847674B1C68EA
:10358000002C7CD1D8F814705FB34FF000450126B1
:10359000B7FA87F101F146039B0003F1804202F57F
:1035A000E042A3F58C73D2F800E083F0040025FA22
:1035B00001F1C0F3800CDB0805A827EA0107BEF182
:1035C000000F0CD01460126804928DF818308DF83A
:1035D00014608DF819C0D8F80030049A9847002F6D
:1035E000D6D108B0BDE8F0810022DFF840811A6032
:1035F000196898F82E3000910099F3B198F82F309F
:10360000002B46D1464B1A68002AA6D0002018602D
:1036100098F82D201968B8F81A30019191B28B42B0
:10362000019C4DD861D03B4B3E4A002119601B687C
:1036300002930123029913608FE7D8F80C20D8F881
:103640000400B8F808108DF814300690ADF81C107E
:10365000002A46D03448B8F81810C8F804200122CF
:10366000C8F80C30A8F81A10A8F808100260D8F8AA
:10367000003005A89847002388F82F3069E700221A
:103680001A601B680593059B88F8102008B0BDE8F8
:10369000F081D8F80C30D8F80400B8F808108DF88C
:1036A00014200690ADF81C10DBB1B8F81810C8F85B
:1036B0000430C8F80C20A8F81A10A8F80810D6E7AB
:1036C000B8F80800184C5B1A9BB2D8F80410A8F898
:1036D0001A30C01A01EB4001C4F82C16C4F8302689
:1036E000A1E7002388F81030C1E7D8F80C3053B1B7
:1036F0000D49A8F81A00012088F82F00C1F82C36CF
:10370000C1F830268FE70122A8F81A3088F82F2058
:1037100089E700BF0471004010710040147100403F
:1037200000710040047000400070004060090020FB
:10373000234B93F82C20002A3FD170B4214C0578FC
:103740001960C4F8F05545781F49C4F8F4556FF076
:1037500000451A74C678C4F8085385B00A60096831
:1037600003911A49039D0A600968194D0291029953
:103770002A60817883F82E602D68164801954901EA
:1037800083F82D205A6183F82F20C9B28022F5B228
:10379000019E80F80713026002210122C4F804137D
:1037A00083F82C200DB1C4F80423064B012200201D
:1037B000C3F8002505B070BC70470820704700BFF3
:1037C000600900200070004004710040007100405A
:1037D0001471004000E100E0244A137C002B42D128
:1037E000F0B400F10C0602EB46031B7923B992F802
:1037F0002D30013382F82D304B788C780D780F798D
:103800001B01240204F4E06403F030032343CC786A
:1038100005F0030524032B4304F4805423434C791F
:103820008D793F0407F4E02724053B4304F480141A
:103830002343040102EB46022D0604F18044CE79B5
:10384000167104F5E04405F080750E7A56712B432D
:10385000C4F81835CB79097AC4F81415C4F81035B2
:103860000020F0BC70471120704700BF60090020A5
:10387000F0B45D4C227C82B0002A40F0B18094F814
:103880002D60012502F0FF03584A25740327AE423C
:10389000C2F80873C2F82C16C2F8305623D9544D1A
:1038A0005449554F554EC2F81435C2F81035C5F875
:1038B0001435C5F81035C1F81435C1F81035C7F8FE
:1038C0001435C7F81035C6F81435C6F81035C5F8E4
:1038D0005435C5F85035C1F85435C1F85035C2F8E3
:1038E0008435C2F8803500F10C03000104EB43037A
:1038F00000F1804000F5E0405A793C4E404D1B7984
:10390000C0F814250122C0F810353E49326042F259
:1039100010732A6001E0013B02D00A68002AFAD045
:10392000394994F82D00374B00220A60096801914B
:1039300001991A601B6800930128009B3FD92B480E
:10394000657FC0F81455257FC0F810552849E57FDC
:10395000C1F81455A57FC1F81055264A94F8215096
:10396000C2F8145594F82050C2F81055224B94F820
:103970002350C3F8145594F82250C3F8105594F806
:103980002550C0F8545594F82450C0F8505594F878
:10399000275094F82600C1F8545594F82960C1F8CE
:1039A000500594F8285094F82B00C2F8546594F808
:1039B0002A10C2F85055C3F85405C3F8501594F8AE
:1039C0002E3043B9094B0222C3F80423002020748F
:1039D00002B0F0BC7047054B0322C3F80423F5E79F
:1039E000112002B0F0BC7047600900200070004058
:1039F0001070004020700040307000404070004067
:103A00000470004004710040007100402DE9F04155
:103A1000114C124FDFF8488082B000254FF48036F9
:103A20002368A4F5004006FA05F20021013580B2B2
:103A300053B1D7F804331A4206D0216023680193AA
:103A4000D8E90031019A9847042D04F10404E7D124
:103A500002B0BDE8F08100BF40810040008000401E
:103A60009009002030B56D4AD2F8043399058BB027
:103A700068D5D2F82431002B64D00023C2F8243159
:103A8000D2F8243101934FF40171654B0198C2F8CB
:103A9000081393F8291009B9012151605F490222E6
:103AA0008DF81820D1F88024C1F880249869D9684D
:103AB00009920022CDE90710C3E90622D3E90014D8
:103AC00006A8A047554AD2F81C31CBB1544B5869CF
:103AD000196A88426BD851490022C1F81C21D1F8DB
:103AE0001C1102910299596951B1586999688DF870
:103AF000182008905A61079106A8D3E90012904750
:103B0000464AD2F84431DBB10021454BC2F844119A
:103B1000D2F8440193F829100090009809B10121CE
:103B200011609A6962B10022586AD9689A610122CB
:103B3000CDE907108DF8182006A8D3E900129047A8
:103B40000BB030BD354AD2F804335B07BAD5D2F892
:103B50000831002BB6D0324B996900293CD00021A6
:103B6000C2F80811D2F8081104910499D868596A6A
:103B7000D2F8182542545A6A996901325A625A6A2F
:103B80008A429FD1DA691968002A2ED0D8685D6A06
:103B90001C699A61079000220120DC60DA615A6298
:103BA0008DF8180008955B6806A898478AE793F88F
:103BB000281001F0FF0000298DD1C2F81C01D2F8B5
:103BC0001C11039103999C68186A196A205C0131E1
:103BD0001962C2F81C0593E7C2F80811D2F808016F
:103BE00005900598D2F81825C9E793F8292012B94D
:103BF0000A4A01205060094A4FF40170C2F80803D4
:103C0000586ADA6808900024012007928DF818009D
:103C10005A689C6106A8904754E700BF0020004006
:103C20009C0900202DE9F041714F06792C2505FBF8
:103C3000067582B095F82A30002B40F09A800D4628
:103C400004466C4900689046FFF750FC002840F09D
:103C50008C802B68591C19D01F2B4FF001028ABF92
:103C600065494FF0A04103F01F0302FA03F3C1F8C6
:103C700008352B681F2B86BF03F01F035E4A4FF0E9
:103C8000A04203F5E073032142F823106B685A1C2D
:103C90000BD01F2B86BF03F01F03574A4FF0A042E3
:103CA00003F5E073002142F823102368AA69C3F8E2
:103CB0002425297D6B7D22680B43C2F86C35D5E93C
:103CC00000122368C3F81425C3F80C152B7D012BB3
:103CD00053D02C2303FB06F3FA18C2F804802A6998
:103CE000FA50B8F1000F2DD022682B7F434D0021F0
:103CF000C2F81C11D2F81C2100922268DDF800C025
:103D0000C2F84411D2F84411226801910199C2F815
:103D100004532168090B4AB25B01002ADBB261DB64
:103D200002F1604202F5614282F800332368344DAB
:103D30001B0B5AB2520903F01F03012101FA03F3CE
:103D400045F822302C23246803FB06730022042547
:103D50000121C4F8005583F82A10C3E9062283F82C
:103D600029205A6102B0BDE8F081112002B0BDE8FF
:103D7000F081082002B0BDE8F081AB68591C0BD07F
:103D80001F2B86BF03F01F031B4A4FF0A04203F511
:103D9000E073002142F82310EB685A1C1BD01F2B44
:103DA0004FF001028ABF14494FF0A04103F01F03F6
:103DB00002FA03F3C1F80835EB681F2B88BF03F044
:103DC0001F0303F5E0738CBF0B4A4FF0A0420321A1
:103DD00042F82310EB682268A968C2F80835C2F8D7
:103DE000101576E7074A01F00F010A4413769DE7A4
:103DF0009C090020653A000000030050800002008A
:103E000000E100E0FCEC00E0F8B53A4F047902680C
:103E10002C2303FB047300215B68C2F8001583B1F7
:103E20000368354AC3F808230368344D1B0B5AB2A4
:103E30005209203203F01F03012101FA03F345F870
:103E4000223003684FF0FF3CD3F80C65D3F81455CB
:103E5000D3F80825D3F81015C3F814C5C3F80CC55A
:103E600003686645C3F808C5C3F810C50CD01F2EFB
:103E700086BF06F01F06224B4FF0A04306F5E07602
:103E80004FF0020C43F826C06E1C0BD01F2D86BFCE
:103E900005F01F051A4B4FF0A04305F5E07502260B
:103EA00043F825604D1C0BD01F2986BF01F01F0170
:103EB000134B4FF0A04301F5E071022543F8215068
:103EC000531C0BD01F2A86BF02F01F020C494FF073
:103ED000A04102F5E072022341F822300068FFF7AA
:103EE00023FB2C2303FB0474002384F82A30636033
:103EF000F8BD00BF9C0900208402020000E100E040
:103F000000030050F0B5314E05792C2303FB056307
:103F100085B05C69002C53D15A6199601C6283F8AA
:103F200028400268C2F81C41D2F81C1102680291B4
:103F30000121029F91600268D3F808C0C2F81C41B9
:103F4000D2F81C1101910199D3F820E0196A5F6839
:103F50001CF80EE001311962C2F81CE517B12046C9
:103F600005B0F0BD5C691A6A0168944203D819E093
:103F700093F828203ABBD1F81C21002AF8D0C1F8C8
:103F80001C71D1F81C210392039AD3F820E01A6A1D
:103F90001CF80EE001321A62C1F81CE51A6A94425C
:103FA000E9D80168D1F81C31002BFBD00123CB608C
:103FB00000202C2303FB056500236B6105B0F0BDD9
:103FC000112005B0F0BD0F20F3E700BF9C090020D1
:103FD000F0B5524BD3F824218BB0002A6ED00021CB
:103FE000C3F82411D3F82421049202228DF818205A
:103FF000049AD3F880044A4AC3F880040990D3F89D
:104000003C05D3680890C2E906110793116853680C
:1040100006A89847414BD3F84421BAB10021404A41
:10402000C3F84411D3F8444190690394039C68B1E8
:10403000D3F83C35D06808930123C2E906110790F4
:104040008DF8183006A8D2E900139847334BD3F8FF
:104050002021BAB10021C3F82011D3F82021029207
:1040600001202F4A029CD860506958B1D3F84C0502
:10407000936808908DF818105161079306A8D2E94B
:1040800000139847254BD3F85821AAB10021C3F853
:104090005811D3F85801224A01900198506958B13B
:1040A000D3F84C05936808908DF818105161079368
:1040B00006A8D2E9001398470BB0F0BDD3F8101151
:1040C0000029A7D0C3F81021D3F810111448059186
:1040D00005998169D3F83C458C429BD1C569C76875
:1040E000D0E900168DB1D3F800C285612CF020050F
:1040F000C261C3F800520369C3600122CDE90774AD
:104100008DF8182006A8B04784E701238561CDE922
:1041100007748DF8183006A8B0477BE700200040F0
:10412000C80900202DE9F04307797E4E4FEAC70801
:1041300008EB070306EB830387B093F82030002BCE
:1041400040F0B0800D460446774900689146FFF77D
:10415000CDF9002840F0A2802B68591C19D01F2BE4
:104160004FF001028ABF71494FF0A04103F01F03D5
:1041700002FA03F3C1F808352B681F2B86BF03F042
:104180001F036A4A4FF0A04203F5E073032142F88F
:1041900023106B685A1C0BD01F2B86BF03F01F0324
:1041A000624A4FF0A04203F5E073002142F8231069
:1041B0002368AA69C3F82425297D6A7D23680A43F8
:1041C000C3F86C25D5E900312268C2F80C35C2F875
:1041D00014152B7D012B69D008EB07029200B31850
:1041E000C3F804902B69B350B9F1000F45D0216892
:1041F0002A7F4F4D0023C1F81031D1F810110191E1
:104200002168DDF804C0C1F82031D1F820110291F5
:104210002168DDF808C0C1F82431D1F824110391D8
:104220002168DDF80CC0C1F84431D1F84411049183
:104230002168DDF810C0C1F85831D1F85811236851
:1042400005910599C3F804532168090B53014AB23B
:10425000002ADBB25FDB02F1604202F5614282F8C4
:1042600000332368334D1B0B5AB2520903F01F036E
:10427000012101FA03F345F822304744226806EB96
:104280008706002301240821C2F8001586F8204083
:10429000C6E90633736107B0BDE8F083112007B0AB
:1042A000BDE8F083082007B0BDE8F083AB68591C77
:1042B0000BD01F2B86BF03F01F031C4A4FF0A042F8
:1042C00003F5E073002142F82310EB685A1C1BD061
:1042D0001F2B4FF001028ABF14494FF0A04103F099
:1042E0001F0302FA03F3C1F80835EB681F2B88BFE0
:1042F00003F01F0303F5E0738CBF0C4A4FF0A0429C
:10430000032142F82310EB682268A968C2F8083537
:10431000C2F8101560E7084A01F00F010A4413764D
:104320009FE700BFC8090020D13F000000030050F4
:104330001003420000E100E0FCEC00E0F0B506797B
:10434000474C0368F500AA1904EB820283B0526857
:1043500082B1444AC3F808230368434F1B0B5AB287
:104360005209203203F01F03012101FA03F347F839
:1043700022300368D3F8002222F02002C3F8002282
:1043800002680123536002680021C2F85811D2F874
:104390005811026801910199D3600268D2F858312E
:1043A000002BFBD00023C2F8003503684FF0FF3E1E
:1043B000D3F80CC5D3F81475D3F80825D3F8101525
:1043C000C3F80CE5C3F814E50368F445C3F808E541
:1043D000C3F810E50DD0BCF11F0F86BF0CF01F0C09
:1043E000DFF888E04FF0A04E0CF5E07C02234EF899
:1043F0002C307B1C0CD01F2F86BF07F01F07DFF867
:104400006CC04FF0A04C07F5E07702234CF8273042
:104410004F1C0BD01F2986BF01F01F01134F4FF017
:10442000A04701F5E071022347F82130531C0BD05F
:104430001F2A86BF02F01F020C4B4FF0A04302F56B
:10444000E072022143F822100068FFF76DF835444E
:1044500004EB8504002384F82030636003B0F0BDD2
:10446000C80900201003420000E100E000030050F2
:1044700001F06043B3F1005F2CD1F0B40579264E12
:10448000EF007C1906EB840482B0636923BB626190
:10449000A1600268C2F82031D2F820C10268CDF8CC
:1044A00004C0DDF804C0C2F85831D2F85821009297
:1044B0000268DDF800C0D4F814C0C2F84415C2F890
:1044C00048C502680121916062684AB1184602B08D
:1044D000F0BC704710207047112002B0F0BC70474C
:1044E000036800E0B2B9D3F82011D3F858210029AD
:1044F000F8D07AB90122DA600268D2F85831002B7C
:10450000FBD000203D4406EB85060023736102B01A
:10451000F0BC70470F20F5E7C8090020704700BFC6
:1045200030B583B002A9002021F8020DFFF7A0F9F1
:1045300090BBBDF906301A4AC3EB0313C3EB031358
:104540005B0148BF03F2FF33C3F38F23A3F61C4381
:1045500082FB0312DB17D3EBA2031BD41BB26E2B1F
:10456000A8BF6E230F4AD35C0F4D1048104C114A60
:104570001149401B4FF0A045C008D5F81055000464
:1045800015F0007F40F0030018BF2246FDF72AFA1D
:1045900003B030BD0023E7E7FDF792FCC9E700BF99
:1045A000676666665C4B0000204D0000584D0000B9
:1045B000D84B0000CC4B0000E44B000000B54FF49A
:1045C000004185B00020FDF709F808B1FDF778FC3F
:1045D000FCF78AFF2D4A3C210820FDF7B9FC08B101
:1045E000FDF76EFCFEF74AFE08B1FDF769FC0020FE
:1045F000FEF75EFEFEF78AFE0028FBD0FDF7B2FF55
:1046000008B1FDF75DFC0120FDF728FC204B53F8B5
:10461000042B009293E8070001AB03C34FF0A041C5
:1046200000201A70C1F864070122052319498DF88A
:104630000A2068468DF80830FFF77AF808B1FDF7D0
:104640003FFC01A90020FFF7C7F808B1FDF738FCCF
:10465000114A12480121FDF7D9FF08B1FDF730FCDE
:1046600000224FF480310E48FDF7E2FF08B1FDF75C
:1046700027FC0020FDF7DEFBFDF7F4FCFDF72EFA2A
:104680000028FBD120BF40BF20BFF5E7EC09002088
:104690004C4B00001D45000021450000084C000067
:1046A000BC0D002010B44FF080414FF0805200202C
:1046B000C1F80C015E4BC1F81001C1F83805D2F801
:1046C0000414C3F82015D2F80814C3F82415D2F83E
:1046D0000C14C3F82815D2F81014C3F82C15D2F80E
:1046E0001414C3F83015D2F81814C3F83415D2F8DE
:1046F0001C14C3F84015D2F82014C3F84415D2F89E
:104700002414C3F84815D2F82814C3F84C15D2F86D
:104710002C14C3F85015D2F83014C3F85415D2F83D
:104720003414C3F86015D2F83814C3F86415D2F8FD
:104730003C04C3F86805D2F840043E49C3F86C0550
:104740000968D2F84424C3F87025082924D04FF012
:104750008043D3F80024D20744BF6FF00102C3F8AE
:104760000024354AD2F8883043F47003C2F8883008
:10477000BFF34F8FBFF36F8F4FF01023D3F800229A
:10478000002A23DBD3F80432002B1FDB2B4B2C4AEF
:104790001A605DF8044B70472A4B1B68002BD6D17A
:1047A00029482A4A2A4C04602A492B4BFB20C2F88C
:1047B00018050A681B68294822F00F0203F00F034E
:1047C00013434FF400720B600260C0E7244B0122D8
:1047D000C3F80425D3F80024002AFBD04FF010239F
:1047E00012221F49C3F80022D1F80034002BFBD05D
:1047F0004FF0102212211A4BC2F80412D3F80024F1
:10480000002AFBD000221649C3F80425D1F8003451
:10481000002BFBD0BFF34F8F0749124BCA6802F43D
:10482000E0621343CB60BFF34F8F00BFFDE700BFD3
:1048300000C000403001001000ED00E02400002026
:104840000090D003340100108C56004000F000406E
:1048500048810300E40E00405802001040960240D8
:1048600000E001400400FA0508B5074B044613B107
:104870000021AFF30080054B1868836A03B19847A5
:10488000204600F071F800BF000000000C4C000052
:1048900070B50D4E0D4CA41BA4100025A54209D1E6
:1048A0000B4E0C4C00F062F8A41BA4100025A5428E
:1048B00005D170BD56F8253098470135EEE756F81A
:1048C000253098470135F2E7F8010020F801002073
:1048D000F8010020FC010020044B054A1B681B6AFC
:1048E000002B08BF1346D3F8EC00704728000020C7
:1048F0008C00002082B001B901A942B14BB11378FC
:104900000B601278101C18BF012002B070471046CF
:10491000FBE76FF00100F8E710B5431E0A4491422F
:1049200000D110BD11F8014B03F8014FF7E7024425
:104930000346934200D1704703F8011BF9E7034691
:1049400013F8012B002AFBD1181A0138704749B11E
:10495000FF2A85BF8A2303600A704FF0FF3098BF9B
:104960000120704708467047FEE700BFF8B500BF5A
:10497000F8BC08BC9E467047F8B500BFF8BC08BC40
:104980009E467047FFFFFFFFFFFFFFFFFFFFFFFF98
:10499000FFFFFFFF00000000000000000000D60144
:1049A00006010000D513000041140000D1130000DF
:1049B000756172745F6C6F675F6261636B656E6473
:1049C00000000000580700207F000000D8070020EA
:1049D0004261636B656E647320666C7573686564B1
:1049E0000000000061707000404A0000704A000042
:1049F000204A0000784A0000804A0000884A0000EF
:104A0000904A0000984A0000A04A00002025303259
:104A100078000000202020007C00000025630000BA
:104A20001B5B313B33316D0025734C6F6773206422
:104A3000726F70706564202825642925730D0A0043
:104A40001B5B306D00000000257300003C25733EA9
:104A50002025733A200000000D0A0000000000002D
:104A6000A84A0000B04A0000B84A0000C04A00004E
:104A70001B5B313B33306D001B5B313B33326D00D0
:104A80001B5B313B33336D001B5B313B33346D00BB
:104A90001B5B313B33356D001B5B313B33366D00A7
:104AA0001B5B313B33376D006572726F7200000023
:104AB0007761726E696E6700696E666F0000000054
:104AC0006465627567000000271D1E1F46617461E2
:104AD0006C206572726F720053797374656D207209
:104AE0006573657400000000000000000000000015
:104AF0000338FDD870470000303132333435363753
:104B000038394142434445467077725F6D676D7432
:104B100000000000636C6F636B000000434C4F4368
:104B20004B00000050504900505253005341414443
:104B30004300000054494D45520000005541525475
:104B400000000000554152544500000001000600DD
:104B5000000000000200000400000000000001014D
:104B60000101010101010101010101010101010234
:104B7000020202020202020203030303030303040C
:104B800004040404040505050606070708080909C6
:104B90000A0B0C0D0D0E0F10121316191C202428D1
:104BA0002C2F3335383A3C3E4042434547484A4C27
:104BB0004D4F5152545555565656575858595A5BA1
:104BC0005B5C5D5E5F606162636464006368617228
:104BD00067696E672E2E2E006368617267656421B7
:104BE00000000000426174746572792069732025A9
:104BF000732042617474657279206C6576656C3AD5
:104C00002025642525000000BC0D00202C0000207C
:104C10004300504F534958002E00002020202020F0
:104C2000202020202828282828202020202020205C
:104C3000202020202020202020202088101010104C
:104C400010101010101010101010100404040404A0
:104C500004040404041010101010101041414141CC
:104C600041410101010101010101010101010101B4
:104C700001010101010110101010101042424242C6
:104C80004242020202020202020202020202020284
:104C900002020202020210101010200000000000A8
:104CA0000000000000000000000000000000000004
:104CB00000000000000000000000000000000000F4
:104CC00000000000000000000000000000000000E4
:104CD00000000000000000000000000000000000D4
:104CE00000000000000000000000000000000000C4
:104CF00000000000000000000000000000000000B4
:104D000000000000000000000000000000000000A3
:104D10000000000000000000000000000000000093
:104D20001C4B000000000000244B000000000000AD
:104D3000284B0000000000002C4B00000000000089
:104D4000344B0000000000003C4B0000000000005D
:104D5000444B000000000000E44900000000030391
:104D6000144B000000000000084B00000000000091
:104D7000A449000000000000B04900001C00002011
:104D8000640200202C030020340300206C02002069
:044D90001800000007
:084D9400ACC4FF7F0100000028
:104D9C000000000000200040000000000020004047
:104DAC000000000000000000FF0000000090D00395
:104DBC002C0000200000000000000000000000009B
:104DCC0000000000000000000000000000000000D7
:104DDC0000000000000000000000000000000000C7
:104DEC0000000000000000000000000000000000B7
:104DFC0000000000000000000000000000000000A7
:104E0C000000000000000000000000000000000096
:104E1C000000000043000000000000000000000043
:104E2C000000000000000000000000000000000076
:104E3C000000000043000000000000000000000023
:104E4C000000000000000000000000000000000056
:104E5C000000000043000000000000000000000003
:104E6C000000000000000000000000000000000036
:104E7C0000000000430000000000000000000000E3
:104E8C000000000000000000000000000000000016
:104E9C0000000000430000000000000000000000C3
:104EAC0000000000000000000000000000000000F6
:104EBC0000000000430000000000000000000000A3
:104ECC0000000000000000000000000000000000D6
:104EDC000000000043000000000000000000000083
:104EEC0000000000000000000000000000000000B6
:104EFC00000000004F490000F548000000000000D1
:104F0C001A4C0000184C0000194C0000194C000001
:104F1C00194C0000194C0000194C0000194C0000F1
:104F2C00194C0000194C0000194C0000FFFFFFFF4A
:104F3C00FFFFFFFFFFFFFFFFFFFF000001004153DA
:104F4C004349490000000000000000000000000080
:104F5C0000000000000000000000000000004153B1
:104F6C004349490000000000000000000000000060
:104F7C000000000000000000000000000000000025
:084F8C002512000001120000D3
:04000003000012B532
:00000001FF
