:020000022000DC
:1070000000000420B5720200DD720200DF7202008F
:10701000E1720200E3720200E5720200000000006B
:10702000000000000000000000000000E772020005
:10703000E972020000000000EB720200ED72020033
:1070400035E60200EF72020015F00200EF72020056
:10705000EF720200EF720200ADEA0200EF7202006E
:10706000EF720200EF720200EF720200EF72020094
:10707000EF720200EF720200EF720200EF72020084
:10708000EF720200D1990200EF720200EF7202006B
:10709000EF720200EF720200E5460300EF72020099
:1070A000EF720200EF720200EF720200EF72020054
:1070B000EF720200EF72020000000000000000000A
:1070C000EF720200EF720200EF720200EF72020034
:1070D0004DF10200EF720200EF720200EF72020047
:1070E000EF720200EF720200EF7202000000000077
:1070F00000000000EF72020000000000EF720200CA
:10710000000000000000000000000000000000007F
:10711000000000000000000000000000000000006F
:10712000000000000000000000000000000000005F
:10713000000000000000000000000000000000004F
:10714000000000000000000000000000000000003F
:10715000000000000000000000000000000000002F
:10716000000000000000000000000000000000001F
:10717000000000000000000000000000000000000F
:1071800000000000000000000000000000000000FF
:1071900000000000000000000000000000000000EF
:1071A00000000000000000000000000000000000DF
:1071B00000000000000000000000000000000000CF
:1071C00000000000000000000000000000000000BF
:1071D00000000000000000000000000000000000AF
:1071E000000000000000000000000000000000009F
:1071F000000000000000000000000000000000008F
:1072000010B5054C237833B9044B13B10448AFF3E0
:1072100000800123237010BDC03C0020000000004E
:10722000587C030008B5034B1BB103490348AFF377
:10723000008008BD00000000C43C0020587C030012
:10724000154B002B08BF134B9D46A3F5803A002138
:107250008B460F461348144A121A0DF0A2FC0F4B2E
:10726000002B00D098470E4B002B00D098470020F1
:10727000002104000D000D48002802D00C48AFF397
:1072800000800DF013FC200029000AF0E1F90DF058
:10729000F9FB00BF0000080000000420000000000F
:1072A00000000000C03C0020806C002000000000B6
:1072B000000000000649074A074B9B1A03DD043B08
:1072C000C858D050FBDC06F01DFFFFF7B9FF0000E7
:1072D000207F030078320020C03C0020FEE7FEE75C
:1072E000FEE7FEE7FEE7FEE7FEE7FEE7FEE7FEE776
:1072F000F0B595B0002415460F4608461E4606F028
:10730000F7FA3846234608950C2205A91A9D0996D6
:107310000D950A948DF82C400C9406F043FB9DF8D3
:1073200014308DF81140DDE9061003F00302012A44
:10733000CDE9020127D0022A04D0384606F0DCFA53
:1073400015B0F0BDBDF81650C3F3C2038DF8103070
:10735000AD090C26082D2C4628BF082433462246AA
:107360000EA9384606F01EFB2D1B214608AB02AACB
:107370000EA8264401F0A2FB002DEBD1384606F002
:10738000BBFA15B0F0BDBDF81460059DC6F38316B9
:10739000C3F3C204B2000EA938460C238DF8104086
:1073A000C5F3952506F0FEFA08AB324628460EA92D
:1073B000009302AB01F09EFA384606F09DFA15B034
:1073C000F0BD00BF704700BF00B583B0044B009311
:1073D000044A4023FFF78CFF03B05DF804FB00BFB5
:1073E000E9730200E03C002038B50E480E4D0378EA
:1073F0000E4CEB5C0025D2B2257053B90C3008F06E
:107400004FF958B90A4B1B7813B12378002BFCD0E5
:1074100038BD043008F0B6FC0028F3D001F07CFE43
:10742000F0E700BF78320020046C0020203D0020EF
:10743000DC3C002070B51348134A0378D35C88B055
:10744000DBB90C3008F0AEF8104D0FCD6C460FC410
:1074500095E80F0008AD102645F8206D84E80F0070
:1074600029460022074807F075F808B101F054FEDC
:10747000074B00221A7008B070BD043008F0E8FB1A
:10748000E2E700BF78320020046C002024500300A3
:10749000DC3C0020064B8B6004284FF00003CB60DF
:1074A0004B609CBF034B53F820300B60704700BF0C
:1074B0005C52030080520300C368DB6800225A71EB
:1074C000704700BFC368DB6801225A71704700BF74
:1074D00030B40E4B0E4D0F4CED1A00222D09C1E9B0
:1074E0000242C1E900220BD003EB0515DC682479C8
:1074F000FF2C02D0904205D001321033AB42F5D1BF
:1075000030BC70479B680B6030BC7047E87E03005E
:10751000187F0300945203000129034604D08168B8
:10752000D1F84811890704D500221846114605F004
:10753000A9B900B5D2E90031054A83B0CDE90021EF
:10754000044A022103F086FD03B05DF804FB00BF8E
:1075500020510300145103008368D3F848319B077E
:1075600033D42DE9F0471B4C1B4E361B360982B035
:1075700028D00746DFF868A0DFF86890DFF8688059
:1075800004EB06160CE06D79CDF804C0002D0CBF9D
:1075900055464D460095103403F05CFDA64211D0CF
:1075A000D4E902E595F804C0BCF1FF0F73464246EA
:1075B0004FF008013846E6D1084A103403F04AFD7E
:1075C000A642EDD102B0BDE8F0870022114605F0D9
:1075D00059B900BFE87E0300187F03004C51030037
:1075E00040510300385103006C5103008368D3F805
:1075F00048319B0703D4044A022103F02BBD00222B
:10760000114605F03FB900BF905103008368D3F8DD
:1076100048319B0703D4044A022103F01BBD00221A
:10762000114605F02FB900BF90510300F0B5314865
:10763000314C85B002F0AEFA304802F0ABFAD4E932
:10764000013703EA0702D01C04EB800114F8200084
:1076500010F0040044D003F1030C0E7806F003068A
:10766000012E654635D0022E02F1030621D004EB2F
:1076700086010028F1D104EB82020133D268019225
:107680003B4004EB830302F00302012ADE6829D0A9
:10769000022A23D1BDF806309B090333360C05EBD3
:1076A0009305164802F082FA00B16560304605B0D5
:1076B000F0BD4B880CEB931307EA0302D11C03F1D6
:1076C000030C14F82100654604EB810100F004006E
:1076D000CFE70B88C3F383136344EDE70026E0E7AD
:1076E000DD1CC8E7BDF80430C3F38313360C1D441A
:1076F000D7E700BF0C5E0020F43D0020085E0020AC
:107700002DE9F0410F4C104D52F8046C2D1B2D0942
:1077100007460FD004EB051502E01034AC4209D047
:10772000A16830460DF0A4FB0028F6D1E36858713B
:10773000BDE8F08133463846044A0221BDE8F041F5
:1077400003F088BCE87E0300187F0300FC500300B0
:107750002DE9F041104C114D52F8046C2D1B2D09F0
:10776000074610D004EB051502E01034AC420AD0F5
:10777000A16830460DF07CFB0028F6D1E3680122B9
:107780005A71BDE8F08133463846054A0221BDE80A
:10779000F04103F05FBC00BFE87E0300187F0300E8
:1077A000FC50030070B4104A104E114C921B002381
:1077B000D208C1E902434B600CD00E4D2C88A04288
:1077C00004D10CE035F82340A04206D001339A42A0
:1077D000F8D100220A6070BC704706EBC30632681D
:1077E0000A6070BC704700BF607E0300407D0300EC
:1077F0005C5203009C3B00202DE9F04FCB683E4ECD
:10780000DFF820915B79A6EB090685B08B46F60878
:107810008046002B6BD0394A394B0821404603F093
:1078200019FC384A0821404603F014FC76B3364D63
:10783000DFF8F4A0B70000240023EA5AA2423AD0AD
:1078400004339F42F9D15146002335F82320A24248
:1078500041D001339E42F8D100208446D646002311
:1078600035F82320A24223D001339E42F8D10023D1
:1078700084450ED8254A0292CDE9001E0134244ADF
:107880000821404603F0E6FBA642D5D105B0BDE88D
:10789000F08F204A0292CDE9001E01341C4A0821D3
:1078A000404603F0D7FBB442C6D105B0BDE8F08F27
:1078B00059F83330DCE7DBF80C20174912795958B6
:1078C00002EB4202072393400B40D340DBB2134A42
:1078D00052F82310B8E709EBC30393F806C00F4B27
:1078E0006046032828BF032053F820E0B7E70C4A7E
:1078F000022103F0AFFB8EE7607E0300CC51030052
:10790000C0510300EC5103009C3B00208C5103004C
:107910002C520300445203002C3C00206C52030004
:10792000AC510300407D0300A451030013460A46F6
:10793000C168FFF761BF00BF2DE9F047124C134D3E
:1079400052F8046C2D1B2D09804615D01746894628
:1079500004EB051502E01034A5420DD0A1683046B5
:107960000DF086FA0028F6D13B464A4621464046AD
:10797000BDE8F047FFF740BF33464046044A0221C6
:10798000BDE8F04703F066BBE87E0300187F030004
:10799000FC5003002DE9F04F42F21803B54C0022D1
:1079A00085B0E250BFF34F8FD4E9015605EA0602D5
:1079B000D31C04EB830114F8233058071BD5D4F8EB
:1079C00000C0AD4F0B7803F00303012B45D0022B11
:1079D00003D14B88033505EB931506EA0502386899
:1079E000D31C04EB830130B9AC4540F2BE8014F8DF
:1079F00023305B07E6D404EB8202691CAB1C3140E8
:107A00003340D068019004EB810204EB830300F063
:107A10000300D268DB680228CDE9022305F10308E0
:107A200000F03A81012800F0A58042F21003E558E9
:107A30003DB12B6828469B689847EB681D68002D70
:107A4000F7D18E4B5B88012B0DD8D4E90030C01ADA
:107A500018BF012005B0BDE8F08F0B880335C3F3D4
:107A600083131D44B9E704A8002300F80D3D844F9B
:107A7000844BA568FF1A01F00DFED4E90132D4F859
:107A8000008013440133A3EB0803022B4FEAD7070E
:107A900000F255817C4E0121304602F057F8FFF785
:107AA000C5FD0146304602F051F8D4E901322168A3
:107AB000134401335B1A022BEDD90A40033205232C
:107AC00003319DF8030044F82230216001F008FEE4
:107AD00000216D4802F018F880F3100008F101034E
:107AE0002B4042F20C0204EB8303BFB247EA004092
:107AF000D86008F10206A35898472E4004EB86068A
:107B000005EA08050335F06014F825305F490222C4
:107B100062F3C50304F8253034F825306FF3891378
:107B200024F8253054F8252061F39F2213460121C3
:107B300061F301036FF3820344F8252042F220022F
:107B400004F82530A35C002B3FF47FAFD4E9000399
:107B5000834208D0FFF71EFF00283FF476AFD4E938
:107B600000038342F6D1034671E7C4F804C005B0B0
:107B7000BDE8F08FBDF804704548C7F38313062BAA
:107B800028BF0623D91C63F389178900ADF8047058
:107B900005F052FEC7F3C207814600283FF445AF07
:107BA00005F0A6FE00230C2201A9484605F0C6FEFA
:107BB000BDF8043013F4707F00F0CE806FF0020B3C
:107BC000ABEB050B0C2506EA080103312B4604221A
:107BD00004EB8101484605F0B1FEBDF8043008F120
:107BE000010A0BEB0A02C3F383139342D04605F15B
:107BF0000405E8D842F21803E358002B40F09280C5
:107C000042F21003E558FDB1DFF888800726EB68E3
:107C10005A79B2B11A79BDF8080002EB420158F85E
:107C2000200006FA01F2052F02EA000208BF03272E
:107C3000CA40BA4205D32B6849461B682846984774
:107C4000EB681D68002DE2D1484605F055FE04A8FA
:107C5000002300F80D3D01F01DFD42F21803E3582A
:107C60000BB9C4F804A09DF8030001F039FDD4E974
:107C70000030ECE6F43D00200C5E0020BC3B002010
:107C8000807D0300407D0300105E0020DC53030074
:107C9000607E03002C3C0020BDF806302F489DF884
:107CA00004704FEA931A5546502D28BF502565F3AE
:107CB0008F1305F10C01ADF8063005F0BDFDC7F3DB
:107CC000C207814600283FF4B0AE26EA080B0BF14C
:107CD000010B05F00DFE4FEA8B0B00230C2201A9CE
:107CE000484605F02BFE5D452BD9EBB2BBF1000FEA
:107CF0001ED006EA0801A3EB0B03033104EB81015C
:107D0000DDB25A460C23484605F018FE2A460BF110
:107D10000C031349484605F011FE0AF1030A08EB6B
:107D20009A0A67E7484605F0E7FDD4E900308EE699
:107D30002A460C230A49484605F000FEEDE7414675
:107D4000BBE606EA0801033104EB81012A460C2355
:107D5000484605F0F3FDE0E7C2464BE7607E0300CE
:107D6000003E00202DE9F04F8E4B8F4C52F8049CC2
:107D7000A3EB04085FEA181885B0064611D0174631
:107D80000D4604EB081802E01034A04509D0A168A4
:107D900048460DF06DF80028F6D15DB905B0BDE894
:107DA000F08F824A4B463046022105B0BDE8F04FC5
:107DB00003F050B9E3687E49386893F804900722CD
:107DC0000DF070F8002866D1012D00F0DE80DFF89C
:107DD0000C8204460A2258F8041B78680DF062F8F9
:107DE00058B10134052CF5D17B68724A3046022126
:107DF00005B0BDE8F04F03F02DB9E3B2022D0193B9
:107E000040F0BF806C4C6D4BA3EB04085FEAD808D0
:107E10002746C3D009EB490307229A400292019AF0
:107E2000DFF8A4A10194DFF8A4914FEA880802FAD0
:107E300003FB0025144609E0019B53F8153003F0BD
:107E400009F90435A84507F10807A7D0BB79A34273
:107E50004A464FF002013046EED355F80A20029907
:107E600082EA0B030B405340C3F3C202C3F38211F7
:107E70008A4238BF0A4603F007018A4238BF0A46E1
:107E80004F4945F80A30C3F342206918824238BF8F
:107E900002464A80D5E708224A4938680DF002F8C0
:107EA00000287AD1012D0190ACD0012303F1804349
:107EB000013B09EB4909A7F1040A07EB83070723F4
:107EC0003D4C3E4A03FA09F30293019BA2EB0408DE
:107ED0004FEAD80803FA09F3B3460AEB850A464687
:107EE0000393A04657F8044F002E43D0C146002507
:107EF00004E00135AE4209F108093AD020222146BA
:107F000058F835000CF0CEFF0028F2D1AE4230D048
:107F100099F80620019B9A4223D32B4C039B54F8DB
:107F2000252002982649534003405340C3F3C20220
:107F3000C3F38210824238BF024603F00700824238
:107F400038BF0246C3F3422001EB8501824238BFAD
:107F5000024644F825304A80BA45C3D105B0BDE891
:107F6000F08FD9F80030194A0221584603F072F810
:107F7000F2E73C68164A23460221584603F06AF8A5
:107F8000EAE77FF60BAF022390E7124A3046022160
:107F900005B0BDE8F04F03F05DB83B680E4A3046CF
:107FA00025E700BF187F0300E87E0300FC500300B4
:107FB00064500300DC500300407D0300607E03003A
:107FC0009C3B0020845003002C3C0020A450030064
:107FD000C85003006C5003008C5003006C52030027
:107FE00001B970472DE9F04FC368DB6885B0894659
:107FF000174683467A4910681D7907220CF052FF14
:1080000000286ED1B9F1010F00F0DE80754E0446F4
:108010000A2256F8041B78680CF044FF58B101346A
:10802000052CF5D17B68704A5846022105B0BDE8A1
:10803000F04F03F00FB8E3B2B9F1020F019340F033
:10804000C0806A4C6A4F3F1BFF08264646D0019B02
:10805000029405EB45051A46AA404FF0070A0AFAB2
:1080600005FADFF89891DFF898810192BF000025AA
:108070001C4609E0029B53F81530043502F0EAFF74
:10808000AF4206F1080629D0B379A34242464FF029
:1080900002015846EED355F80920019B534003EAEC
:1080A0000A035340C3F3C202C3F382118A4238BFAA
:1080B0000A4603F007018A4238BF0A464D4945F88F
:1080C0000930C3F342206918824205F1040538BF24
:1080D0000246AF424A8006F10806D5D105B0BDE898
:1080E000F08F0822444938680CF0DCFE002873D178
:1080F000B9F1010F0190A4D0012303F18043013BAA
:1081000005EB45053A1F07EB83070723AB40374CC8
:10811000374E0293019B361BAB4002EB8909F608F0
:108120000393A04657F8044F002E43D0C2460025C3
:1081300004E00135AE420AF1080A3AD02022214675
:1081400058F835000CF0AEFE0028F2D1AE4230D027
:108150009AF80620019B9A4223D3284C039B54F89B
:10816000252002982349534003405340C3F3C202E1
:10817000C3F38210824238BF024603F007008242F6
:1081800038BF0246C3F3422001EB8501824238BF6B
:10819000024644F825304A80B945C3D105B0BDE850
:1081A000F08FDAF80030164A0221584602F052FFEA
:1081B000F2E73C68134A23460221584602F04AFF80
:1081C000EAE78BD9022398E70F4A5846022105B007
:1081D000BDE8F04F02F03EBF3B680C4A24E700BF09
:1081E000645003006C520300DC500300407D030028
:1081F000607E03009C3B0020845003002C3C002048
:10820000A4500300C85003006C5003008C500300BE
:108210002DE9F84F002852D02B4C42F218020023CF
:10822000A35040F2FF720546A260084642F22002C7
:1082300042F21401A3546350C4E9003300F02EFD50
:1082400042F20C032148E55005F0F4FA814610B1E2
:108250004846BDE8F88FDFF888801D4F1D48A7EB22
:10826000080705F093FDFF08F2D0DFF86CB04D462B
:108270000026344608EBC50AA5424FF0140208D088
:1082800058F83410DAF800000CF00CFE0028C8BFD3
:1082900001360134A742EFD12BF825600135BD42EC
:1082A000E6D10D4B0D490BEB850500225A800433B6
:1082B0009D4241F8042BF9D14846BDE8F88F4FF0B4
:1082C00007094846BDE8F88FF43D0020607E0300B2
:1082D000607E0300505203009C3B00202C3C002099
:1082E000407D030021B9124B03EBC00000687047CA
:1082F000104A0F49521AD20815D030B40E4D2B88AF
:10830000834212D0002303E035F82340844205D095
:1083100001339A42F8D1002030BC704701EBC30012
:10832000006830BC7047104670470846F8E700BF49
:10833000407D0300607E03009C3B0020094B013917
:1083400003EBC00003290BD8DFE801F002080604A4
:1083500002207047407970470079704704207047C9
:1083600000207047407D03002DE9F04383B002AB4D
:10837000002203F8012DDFF8F490074618468846DE
:10838000D9F8084001F086F9D9E90132D9F800603E
:10839000134401339B1B022B63D8334D0121284624
:1083A00001F0D4FBFFF742F90146284601F0CEFB6D
:1083B000D9E90132D9F80010134401335B1A022BBA
:1083C000ECD90A400332052303319DF8070049F830
:1083D0002230C9F8001001F083F90021224801F091
:1083E00093FB80F31000731C234042F20C0209EB54
:1083F0008303000440EA1740D860B51C59F80230E6
:108400009847254009EB850534400334E86019F8A6
:10841000243067F3C50309F8243039F824306FF3AA
:10842000891329F8243059F8242068F39F22134631
:10843000012161F301036FF3820349F8242042F222
:10844000200209F8243019F802301BB906E0FFF7C2
:10845000A1FA18B1D9E900329A42F8D103B0BDE8C7
:10846000F0833146ADE700BF105E0020F43D0020F0
:108470002DE9F04782B002AB002403F8014DDFF88C
:1084800000A10746184691468846DAF8084001F0F0
:1084900001F9DAE90132DAF80060134401339B1B79
:1084A000032B69D8354D0121284601F04FFBFFF71A
:1084B000BDF80146284601F049FBDAE90132DAF855
:1084C0000010134401335B1A032BECD90A4003322A
:1084D000043145239DF807004AF82230CAF80010FD
:1084E00001F0FEF8F31C23400AEB8303002123482C
:1084F000C3F80C9001F008FB80F31000731C2340BC
:1085000042F20C020AEB8303000440EA1740D860F1
:10851000B51C5AF80230984725400AEB85053440CF
:108520000334E8601AF8243067F3C5030AF82430EE
:108530003AF82430012161F389132AF824305AF8DB
:10854000242068F39F22134661F301036FF3820333
:108550004AF8242042F220020AF824301AF80230A5
:108560001BB906E0FFF716FA18B1DAE900329A42B1
:10857000F8D102B0BDE8F0873146A7E7105E0020D1
:10858000F43D00202DE9F04F83B002AD002405F842
:10859000014D404C8046284693469A468946A56838
:1085A00001F078F8D4E90132276813440133DB1B6A
:1085B000042B6CD8384E0121304601F0C7FAFFF782
:1085C00035F80146304601F0C1FAD4E9013221689C
:1085D000134401335B1A042BEDD90A40033285237F
:1085E00044F8223005319DF80700216001F078F849
:1085F000FA1C3B1D2A402B4004EB820204EB830350
:1086000000212548C2F80CB0C3F80CA001F07CFA98
:1086100080F310007B1C2B4042F20C0204EB83031E
:10862000000440EA1840D860BE1CA35898472E406A
:1086300004EB86063D400335F06014F8253068F3FE
:10864000C50304F8253034F82530022262F389137B
:1086500024F8253054F8252069F39F221346012180
:1086600061F301036FF3820344F8252042F22002F4
:1086700004F82530A35C1BB906E0FFF78BF918B1AD
:10868000D4E900329A42F8D103B0BDE8F08F394600
:10869000A3E700BFF43D0020105E00202DE9F04F5D
:1086A00083B002AE002406F8014D434C80463046AC
:1086B00093469A46A568894600F0ECFFD4E901325A
:1086C000276813440133DB1B052B72D83B4E012175
:1086D000304601F03BFAFEF7A9FF0146304601F0B3
:1086E00035FAD4E901322168134401335B1A052BB2
:1086F000EDD90A400332C52344F8223006319DF8F3
:108700000700216000F0ECFFF81C3A1D28402A40C9
:108710007B1D2B4004EB800004EB820204EB8303FF
:10872000C0F80CB00021C2F80CA024480C9ADA6002
:1087300001F0EAF980F310007B1C2B4042F20C029E
:1087400004EB8303000440EA1840D860BE1CA35821
:1087500098472E4004EB86063D400335F06014F840
:10876000253068F3C50304F8253034F8253003229A
:1087700062F3891324F8253054F8252069F39F22E9
:108780001346012161F301036FF3820344F82520AE
:1087900042F2200204F82530A35C1BB906E0FFF783
:1087A000F9F818B1D4E900329A42F8D103B0BDE823
:1087B000F08F39469DE700BFF43D0020105E002099
:1087C000044BD3E900239A4201D0FFF7E3B800201D
:1087D000704700BFF43D00202DE9F04342F2100342
:1087E000334DEC58064600205CB1E3681A798242AA
:1087F00004D151E0DB681A7982424DD01B68002B0E
:10880000F8D1F26842F210031071EA58002A4AD0F7
:10881000D468F26824681460EB58DB681E60254A4F
:10882000254FBF1AFF0835D0244D254C02EBC70950
:108830004FF0070CF768D37997F80480D5F800E07B
:108840008B4208EB480828BF0B4603FA08F383EA7B
:108850000E030CFA08F803EA080383EA0E03C3F3D5
:10886000C20EC3F38218C64538BFC64603F00708D8
:10887000C64538BFC646C3F34228C64502F10802C2
:1088800038BFC6469145A4F802E045F8043B04F120
:108890000404CFD1BDE8F08301300A28A4D14FF001
:1088A000FF30BDE8F083EE50F3681A60B7E700BF11
:1088B000F43D0020407D0300607E03002C3C00203E
:1088C0009C3B002038B542F21001094B42F22002D5
:1088D0005C5801259D544CB1E3685D7123682046C6
:1088E0005B689847E3681C68002CF5D138BD00BF71
:1088F000F43D00202DE9F04784B01D460C9C002378
:1089000094F80C802373EB8881460E461746002BA3
:1089100074D1297A052943D06B7A002B63D15A4848
:108920005A4B5B4AD0F800C01B682968B1FBF3F0D2
:10893000B0FBFCF1A2FB01324FF4616E4FEAD22A88
:10894000544B0EFB1A1AA3FB0AE30CFB11015B0943
:108950004FF47A70C3EB031E00FB01F1AAEB8E0A01
:10896000B1FBFCFE0CFB1E11D20ACDF800A000FBEF
:1089700001F0CDF804E0B0FBFCF04749029020463E
:1089800004F032FB454B2A7AA88853F822A0002134
:10899000FFF7A8FC524603464149204604F024FB59
:1089A000062F09D8DFE807F004694148515C32001E
:1089B0004946204604F018FB2B7A052B05D06B7A2C
:1089C0005BB93849204604F00FFB204604F000FB59
:1089D00084F80C8004B0BDE8F087334A3349204660
:1089E00004F002FBEDE7A888FFF7A8FC304B2F4905
:1089F00053F82020204604F0F7FA90E72A4A009224
:108A00002C492D4A204604F0EFFA82E7D6E90410FB
:108A1000D6E900230390D6E902070291CDE90007C9
:108A20004946204604F0E0FAC6E74946D6E9002365
:108A3000204604F0D9FABFE7B168D6E90023204602
:108A40000091494604F0D0FAB6E7D6E90201D6E92A
:108A50000023019100904946204604F0C5FAABE797
:108A6000D6E90371B068D6E900230291CDE9000789
:108A70004946204604F0B8FA9EE732684946204647
:108A800004F0B2FA98E700BFB05E0020B45E0020A8
:108A9000C5B3A29189888888D8560300005703007F
:108AA000F456030068510300CC560300D45603006B
:108AB00074560300B4560300AC560300082900D9CD
:108AC00070472DE9F04F1D46904600232A7B2B73FB
:108AD00087B0B8F80630059207460E46002B40F0E6
:108AE000B08098F80810052947D098F80930002B75
:108AF00040F09B80574B5849584A1C680868D8F882
:108B00000010B1FBF0F0B0FBF4F1A2FB01324FF426
:108B1000616E4FEAD22C524B0EFB1C1CA3FB0CE3E4
:108B200004FB11015B094FF47A70C3EB031E00FBD9
:108B300001F1ACEB8E0EB1FBF4FC04FB1C1100FB4D
:108B400001F1D20AB1FBF4F4CDF800E0CDF804C095
:108B500044490294284604F047FA434B98F8082009
:108B6000B8F8040053F822400021FFF7BBFB22466F
:108B700003463E49284604F037FADFF810B1DFF823
:108B80001091002405E03A5D013404F02DFA082C20
:108B900009D0A64249462846F5D85946013404F082
:108BA00023FA082CF5D13249DFF8E8B0DFF8E89075
:108BB000284604F019FA00240CE017F804A0BAF1D2
:108BC0007E0F23D92E2249462846013404F00CFAA0
:108BD000082C08D0A642F0D859462846013404F0A3
:108BE00003FA082CF6D198F80830052B02D098F833
:108BF0000930A3B91F49284604F0F6F9284604F0C5
:108C0000E7F9059B2B7307B0BDE8F08F0BF076FFFB
:108C100050445246437813F0970FD3D0D3E7164A07
:108C20001649284604F0E0F9E4E7B8F80400FFF735
:108C300085FB134B114953F82020284604F0D4F942
:108C400058E70D4A00920F490F4A284604F0CCF924
:108C500047E700BFB05E0020B45E0020C5B3A2911C
:108C600089888888D856030000570300F45603000B
:108C7000A456030068510300CC560300D4560300E9
:108C800074560300B4560300AC560300A05603000C
:108C900098560300FC560300A8560300074A0849EB
:108CA000012390420B6005D9400890424FEA4303EC
:108CB000FAD80B60034B1860704700BF40420F00AA
:108CC000B45E0020B05E002070B51A4B1D789DB1D7
:108CD000194B1C682378C0B2984210D004F10802E6
:108CE000002306E014F833108142164602F1080210
:108CF00006D001339D42F5D100231B78FFDE2646C6
:108D000005F0C4FE7378A3F10103B3FA83F35B09A2
:108D1000834200D070BD094BD3E900231343F9D13E
:108D2000074B0848196800224908BDE8704000F068
:108D300039BC00BFB85E0020E85E0020C05E0020A5
:108D4000BC5E0020983200202DE9F04F9D4E337814
:108D500087B0002B00F030819B4F9C4DDFF878826C
:108D600000244FF00109D7F800B01BF8340005F0DB
:108D70008DFE0BEBC4031BF834B05B784FEA5B0C41
:108D80001BF0010E15F80C10A3F10103B3FA83F3E5
:108D900014BF0A0901F00F025B09042A00F2D08017
:108DA000DFE812F09800D000690048000500834217
:108DB00000F0E980BEF1000F0CBFF0230F233078E4
:108DC000194005F80C10A8B1D7F800C09CF8003085
:108DD0005B4500F0E7800CF10802002304E01CF87A
:108DE0003310594500F0DF8001338342964602F18B
:108DF0000802F4D14FF000030DF117008DF8173081
:108E00000023039300F046FCABF12002CBF12003DA
:108E100029FA03F309FA02F21A4309FA0BF1039251
:108E20000291D8E90023DDE9020122EA000023EAE9
:108E300001017DE0834232780CD0BEF1000F0CBFFF
:108E4000F0230F2303EA01030CBF0421402119433F
:108E500005F80C100134944285DBD8E90023134354
:108E600006D05B4B5B4819680022490800F09AFB6A
:108E700007B0BDE8F08F834276D1BEF1000F14BF7A
:108E80000F23F02303EA0103327814BF30210321BA
:108E9000194305F80C10002ADFD0D7F800C09CF861
:108EA00000305B4500F08B800CF10801002301339A
:108EB00093428E4601F10801CCD01CF8330058458E
:108EC000F5D1DEF80430002BC4D058460121984774
:108ED0003278BFE7834233D1BEF1000F0CBFF023DD
:108EE0000F2303EA01030CBF0121102119434FF0A6
:108EF00000030DF117008DF817300023019305F8DA
:108F00000C1000F0C7FBABF1200309FA03F3019347
:108F10000198CBF1200129FA01F1084309FA0BF17C
:108F200001900091D8E90023DDE9000110431943C5
:108F300002460B469DF81700C8E9002300F0D0FB5D
:108F4000327887E7834213BF0023202302221A4688
:108F5000BEF1000F12BF0F20F020134601400B435B
:108F600005F80C30327875E7BEF1000F0CBFF02326
:108F70000F2303EA01030CBF01211021194305F857
:108F80000C10327866E7BEF1000F14BF0F23F023F8
:108F900003EA010314BF30210321194305F80C1023
:108FA000327857E7E646DEF80430002B3FF422AF74
:108FB0000021584698471DE7DFF81C804DE7E6463C
:108FC0007FE700BFB85E0020E85E0020C85E00209A
:108FD000BC5E002098320020C05E0020092A40D9E3
:108FE000F0B583B00E460546144605F09FFB0028F9
:108FF00031D0204A2049214B15600E7020220021DB
:109000001F481C600BF0CDFD1E4B00200021741E7C
:10901000C3E90001E4B236B305EBC4041A4E083DBF
:10902000032701E0A5421ED09DF8063020788DF878
:10903000047003F0FC036FF382038DF80630A3780D
:109040008DF80530324601A905F07AFB083C00286E
:10905000E8D003B0F0BD05F01FFB0028C9D003B075
:10906000F0BD07207047094A0948002100F08CFA3A
:1090700003B0F0BDE85E0020B85E0020BC5E0020BA
:10908000C85E0020C05E0020C98C0200498D02002D
:109090004C57030070B5084D2B785BB1074E002488
:1090A0003368012113F8340005F03AFC2B780134C1
:1090B000A342F5D8002070BDB85E0020E85E002015
:1090C00070B5114D2B7882B053B1104E0024336827
:1090D00013F8340005F0A0FC2B780134A342F6D835
:1090E00002A8002300F8013D00F0D4FA084B9DF8D7
:1090F000070000240025C3E9004500F0F1FA054807
:1091000000F0A0FA02B070BDB85E0020E85E00205A
:10911000C05E00209832002000B585B00023039087
:10912000194601AA44F20100CDE9013300F004F828
:1091300005B05DF804FB00BF70B572B6FFF7C2FB67
:10914000FFF73EFB0028FBD1184E7388F3B9184B8C
:109150001B68DB070DD5174C174D00BE7388012B1C
:1091600007D9601BC008000440F002001349FFF754
:10917000FBF8BFF34F8F1249124BCA6802F4E0624A
:109180001343CB60BFF34F8F00BFFDE7094C0A4D7F
:109190000D49601BC008000440F00100FFF7E4F82F
:1091A000034B1B68DA07D9D5D7E700BFBC3B0020CB
:1091B000F0ED00E0807D0300407D03009057030048
:1091C00000ED00E00400FA0584570300D0E9022313
:1091D000D1E90201994208BF90422CBF0120002032
:1091E000704700BF2DE9F04F87B0039000F0AEFB51
:1091F00040B19F49D1E9002312F1807443F1000589
:10920000C1E90045002103989A4C00F0BBFB68B10E
:1092100023685BB1984B25681B782BB125B195F875
:109220002030002B40F0348100232360012103987B
:1092300000F0A8FB002840F0FA8005A98F4800F054
:1092400025FC18B38E4E8C4F8C4D0378012B00F00B
:10925000CB80C0F0D180022B0ED130464FF00008F9
:1092600004F0FCFE30B180F82080304604F0F6FEB9
:109270000028F8D101233B7005A9284600F034FCF2
:1092800005A9284600F002FC0028DED17C4E7D4F67
:10929000DFF8DC9103E00D2857D00023236030462F
:1092A00004F0E2FE2368002800F0BB8073B123685D
:1092B000D0E90201D3E90223994208BF90423DD28E
:1092C000236893F82030002B40F08380304604F070
:1092D000C5FE0546D5E902233846CDE9002300F056
:1092E00063FBD9E90023DFF8A08112EB000A43F108
:1092F000000BD8E900239B4508BF924503D21AF121
:10930000807A4BF1000BDDE90001B0EB0A0061EB64
:109310000B01012871F1000313DBDFF870A1504548
:109320005CD8AA684FF496030021384600F088FA0A
:109330000028B0D12368002B6CD0256007B0BDE8B1
:10934000F08F0021384600F011FB4B4B1B78002BAF
:10935000A3D095F82030002B9FD0384600F024FB96
:10936000D8E90023D9E900ABCDE900231AEB0002CC
:109370004BF1000310461946DDE90023994208BF6E
:10938000904203D210F1807041F10001D5E902232F
:10939000994208BF904265D32B690BB985F82030FC
:1093A000D5E905309847296900293FF476AF95F84B
:1093B0002030002B3FF471AFD5E9022312EB010AF4
:1093C00043F1000BC5E902AB2946304604F032FEFA
:1093D00063E72168304604F02DFE77E7384600F059
:1093E000E3FA00EB0A029DE741682368994215D031
:1093F000304604F03DFE3FE7436893F82020002A02
:109400007FF43AAF012283F820204168304604F00F
:1094100011FE31E7039800F0E5F98EE700232360A1
:109420002AE7002B8AD1039800F0E0F986E7154877
:10943000DFF8548000F0B8FA0D4BD3E90067D8E9A3
:10944000002316EB000947F1000A9A4508BF914531
:109450004846514603D219F180704AF10001C8E92B
:109460000001EAE62946304604F0E4FD15E700BFB6
:10947000F05E0020605F0020F85E0020C032002017
:10948000A4570300D4320020585F0020FFFFB4002F
:109490001E4800F089FA1E4A1E4BD2E90067D3E944
:1094A000002316EB000847F10009994508BF9045D5
:1094B0004046494603D218F1807049F10001D5E9D0
:1094C0000223994208BF90421BD32B690BB985F840
:1094D0002030D5E905309847296900293FF4A4AE2A
:1094E00095F82030002B3FF49FAED5E902235618A3
:1094F00043F10007C5E902672946074804F09AFDD1
:1095000092E62946044804F095FD8DE6D432002009
:10951000F05E0020585F0020A457030010B5134BE5
:1095200013491B68134882B058220193082300F0A6
:1095300059FA044610B1204602B010BD0E4A0F4839
:1095400001A900F0E5F804460028F4D101210B48F8
:1095500000F0F2F901231946094A084800F04AF9D7
:10956000084B012220461A7002B010BDA05703001C
:10957000FC5E0020C0320020E5910200D4320020C1
:10958000FFFF7F00F85E00204AB1A1F101010368EE
:10959000B1FA81F14909C3E904120020704707209C
:1095A000704700BF90F820300BB1002070472DE9C4
:1095B000F048826182B004461E480D4600F0F4F97E
:1095C0001D4B1E49D3E90023D1E9006712EB000BC4
:1095D00043F1000CBC4508BFB34503D21BF1807BAF
:1095E0004CF1000C1BEB050221694CF10003C4E9AE
:1095F000022379B901A9124800F00CFA88B10025BC
:109600004460057001A90E4800F030FA68B902B054
:10961000BDE8F088256101A9094800F0FBF90028A0
:10962000EDD1042002B0BDE8F088024800F0C0F996
:109630002846ECE7D4320020F05E0020585F00207E
:10964000C032002030B5002583B0044680F8205099
:1096500001A90B4800F0DEF978B1012344600370E2
:1096600001A9074800F002FA08B903B030BD054867
:1096700000F09EF9284603B030BD042003B030BD91
:10968000C0320020D4320020014800F08DB900BF64
:10969000D432002070B4EFF3108472B60D4B9A6888
:1096A000AAB90D490D4E01259D60D1F88050354075
:1096B0001D60C1F88060D1F884505D604FF0FF33C9
:1096C000C1F88430027004B962B670BC70470123DF
:1096D0000370F8E7F86B002000E100E0FC06FFBD36
:1096E000094B9A687AB170B910B4EFF3108172B671
:1096F000064A1C6814605C685460986001B962B6E0
:109700005DF8044B70477047F86B002000E100E003
:1097100070B52B4B44792B4E03EBC40546F824203F
:109720002D792DB1284B5B88012B29D8082070BDDD
:1097300002680C88C2F8084590F904208978002A4C
:109740002ADB02F1604202F561424901C9B282F8A6
:10975000001390F904201D4E1B4D02F01F0101243F
:10976000520904FA01F146F822104279698843F857
:10977000320003EBC20302291C7115D8002070BD12
:10978000134B14481449C01AC008000440F00200EA
:10979000FEF7EAFD082070BD104C02F00F024901EF
:1097A0001444C9B22176D4E7094B0A480C49C01ABF
:1097B000C008000440F00300FEF7D6FD002070BD95
:1097C000645F00206C5F0020C43B002000E100E0EB
:1097D000407D0300907D0300D8570300FCEC00E0BF
:1097E000FC570300036801221A60704703680122D6
:1097F0005A607047F0B404684FF480358D40C4F867
:10980000085306688C00C6F8485304F5A07406682F
:10981000A4B20027375182B036590468019601F589
:10982000A87122F07F42019E44F821200268C2F80C
:10983000445313B10368C3F8045302B0F0BC70473B
:109840002DE9F04788464FF48037016807FA08F79A
:10985000C1F848730168C1F80873064600684FEA0A
:1098600088040119D0F80455D1F84005C1F84055D5
:1098700004F5A074A4B231684FF0000941F80490D7
:1098800082B0401B0959009120F07F4001289A4680
:1098900022F07F45009B0BD1264B4FF4806043F0B4
:1098A00001039847336843F804901B590193019BC7
:1098B0003368D3F80445C3F844732B1B23F07F436C
:1098C000012B08F5A87817D130681A4B013540F8FC
:1098D000285043F001034FF4806098473268D2F873
:1098E00004359C4222D1C2F8447333680020C3F887
:1098F000047302B0BDE8F087336843F8285032683B
:10990000D2F804156B1ACAF1FF1A013B0AF57F4A17
:1099100023F07F439A4509D3002BE4D1013542F867
:1099200028503268D2F804359942DCD00D2002B0BC
:10993000BDE8F087D057030002680223C2F8443321
:1099400011B10268C2F80433704700BF0368D3F84E
:10995000040150B1002282B0C3F80421D3F80431CD
:109960000193019B012002B0704770474FF4803390
:10997000026803FA01F1C2F848130368C3F8081338
:10998000704700BF890001F5A07189B2036858587B
:1099900040B100225A5082B05B580193019B0120D4
:1099A00002B07047704700BF0368D3F804057047E2
:1099B00090F9043005485A09403203F01F03012191
:1099C00001FA03F340F82230704700BF00E100E0E5
:1099D000024A034B10681B68184700BF645F0020F1
:1099E0006C5F002099B110B4B2FBF3F403FB1424B4
:1099F000A4B244B9C0E9001484608281C3812046C6
:109A00005DF8044B704709205DF8044B70470E2049
:109A1000704700BF30B482B050E8013F9DB2C489A6
:109A200025448489A54228BF2D1B0489A54202BF75
:109A3000BFF32F8F002207E0C5EA030540E8015479
:109A4000002CE9D14FF001028DF803200193019B16
:109A50009DF803200B602AB10B880068184402B0FF
:109A600030BC704702F0FF031846F8E70A884B88BD
:109A70009A4201D00020704750E8012FC2EA02420A
:109A800040E80123002BF7D10120704730B482B0A9
:109A900050E8023F1FFAA3F5C488A54202BFBFF3F6
:109AA0002F8F00220DE0C48925448489A54228BF58
:109AB0002D1BC3EA054540E80254002CE8D14FF0C5
:109AC00001028DF803200193019B9DF803200B6098
:109AD0002AB14B880068184402B030BC704702F0CD
:109AE000FF031846F8E700BF0A884B889A4201D066
:109AF0000020704750E8022FC2EA224240E80223C9
:109B0000002BF7D10120704750E8002F0B4640E8AA
:109B1000003C9CF0000FF7D11046704750E8003F22
:109B200043EA010240E8002C9CF0000FF6D11046F9
:109B3000704700BF50E8003F03EA010240E8002CF4
:109B40009CF0000FF6D11046704700BF50E8003F70
:109B500003EB010240E8002C9CF0000FF6D1104608
:109B6000704700BF50E8003FA3EB010240E8002C23
:109B70009CF0000FF6D11046704700BF012350E85B
:109B800000CF4CEA030240E8002191F0000FF6D12B
:109B900060467047012350E8002F42EA030C40E87A
:109BA00000C191F0000FF6D160467047002350E8E5
:109BB00000CF0CEA030240E8002191F0000FF6D13B
:109BC00060467047002350E8002F02EA030C40E88B
:109BD00000C191F0000FF6D1604670472DE9F043C7
:109BE0008368D3F84861C6F340068BB0002E47D196
:109BF00001293ED8264C274D274B2D1BAD08A3FB32
:109C00000535002D32D0C5EBC505DFF89490074629
:109C100004EB85054FF064082368A1681A79186879
:109C20006369099363680692081A02EB8202A1EB4A
:109C3000030CC0B2218B039002EB820200910196CB
:109C4000920008FB00F0B2FBFCF2B0FBFCF00592C6
:109C50000290CDF81CC0CDF810C0099B1C344A46B8
:109C60000821384601F0F6F9A542D5D10BB0BDE880
:109C7000F0830A4A02210BB0BDE8F04301F0EAB9D3
:109C8000002211460BB0BDE8F04302F0FBBD00BF5F
:109C9000607E0300D07E03002549922438580300DB
:109CA0004C580300B8B130B4D0E90112521A04681C
:109CB000D2B2531E2160DBB242B101680A685C1E59
:109CC000551C0D601370E3B2FF2BF6D10368002022
:109CD000187130BC70470E20704700BFF0B583B0DC
:109CE00002AB002503F8015D04461846FFF7D2FCDD
:109CF000D4E900311A688A4210D9511E19602168CE
:109D0000A3680F6812F8015C0A79268BE068DB1BF8
:109D1000DBB29A4206FB050538BF0B719DF80700C0
:109D2000FFF7DEFC284603B0F0BD00BF30B583B0BE
:109D300002AB002203F8012D054618460C46FFF73A
:109D4000A9FC2A681368591C1160E9682A8B641AF7
:109D5000B4FBF2F41C709DF80700FFF7C1FC03B0E0
:109D600030BD00BF30B18A68B2F8483143F02003FB
:109D7000A2F84831704700BF10B543689C6860681E
:109D8000036801219B689847A36810B104221A70E8
:109D900010BD03221A7010BD096800680BF068B886
:109DA0002DE9F041054680684B4F82B000268022A5
:109DB0003146A0308DF803600AF0F3FE2869474968
:109DC00003F012F9286903F003F947F001074FF493
:109DD0007A786868036801221C690DF1030101AB00
:109DE000A047019B4FF6C01063B9B847019B002BF9
:109DF000EFD108F1FF381FFA88F8B8F1000FE8D169
:109E00000D2018E09DF80330AA681B2B06F1010015
:109E100002EB060105D092F8A0401B2CD9D1522BA1
:109E20000CD0C6B2092E81F8A030D2D9AB6800227E
:109E300083F8A020042002B0BDE8F081002681F85C
:109E4000A060AF6897F8A1305B2B3AD107F1A1046D
:109E5000022302E0802B96B239D014F8010F0133AF
:109E6000A0F1300106EB8602DBB23B2801EB420297
:109E700059B2EFD100292ADB03F19F0CBC4400202A
:109E800002E090B21A0622D41CF8014F00EB8002C7
:109E90000133A4F1300101EB4202DBB2002CF0D11E
:109EA000FA2828BFFA203875AB68FA2E86BFFA2246
:109EB0009A759E75AB68002083F8A00002B0BDE8DB
:109EC000F0810B2087F8A06002B0BDE8F0810C2083
:109ED00002B0BDE8F08100BFC059030094590300EF
:109EE000F8B50C4601F1140508B10AF0D3FFE27F82
:109EF000637EA17FA076C0B20244084492FBF3F7D0
:109F000003FB172290FBF3F6013203FB160300213B
:109F100062F307010133013763F30F2167F3174140
:109F2000013666F31F6161612846F8BD2DE9F04FE7
:109F30000746002083B0034688461446386005462D
:109F4000814605E084F8009001343B680B2B77D8FC
:109F50002678002E74D00AF0D1FD3044437813F0F7
:109F60000803EFD13A68511C396048F822401D4679
:109F70002378002BE9D0002D69D09D4204F1010621
:109F800024D05C2B627802D013463446F1E7954228
:109F900000F0B280302A5CD01346782BF4D1A3783D
:109FA000A3F1300A5FFA8AFABAF1090F7FD8E27892
:109FB000A2F13003DBB2092B00F28C8043EA0A1ACB
:109FC0005FFA8AFA032304225FE0661C20460AF047
:109FD00061FF3146024620460AF0CAFD2578002D71
:109FE000B3D0272D14D05C2D04F10106204619D0E2
:109FF000222D0DD0002DE8D00AF080FD28444378B2
:10A000001B0777D465780134002D9ED0272DEAD127
:10A0100020460AF03FFF611C024620460AF0A8FDD8
:10A020002378A6E70AF036FF3146024620460AF0BA
:10A030009FFD65783446002DD3D13B680B2B87D923
:10A040000022284648F8232003B0BDE8F08F1D46C3
:10A05000C7E7A378A3F1300A5FFA8AFABAF1070FCB
:10A060009BD8E378303BDBB2072B63D82279303AB8
:10A0700043EACA0AD3B2072B4FFA8AFA35D843EA21
:10A08000CA0A5FFA8AFA04230522204604EB030B6E
:10A0900001920AF0FFFE019A0230821A59462046C8
:10A0A0000AF066FD84F800A06378344661E7A3F106
:10A0B000610105292BD9A3F1410105293FF664AFC0
:10A0C000E278373B5FFA83FAA2F13003DBB2092B67
:10A0D0007FF674AFA2F16103052B23D9A2F14103EE
:10A0E000052B27D8373A42EA0A1A5FFA8AFA03237D
:10A0F0000422CAE7002528E720460AF0CBFE3146B5
:10A10000024620460AF034FD6378344631E7E278AF
:10A11000573B5FFA83FAA2F13003DBB2092B7FF6DB
:10A120004DAFD7E7573A42EA0A1A5FFA8AFA032391
:10A130000422AAE702230322A7E700BF002900F0B8
:10A14000CE802DE9F04F8B4685B0924607464C1ED7
:10A15000002600E001360AF0D1FC14F8013F184453
:10A1600043781B07F6D45FFA8AF3019358460AF046
:10A1700091FEBB6893F81980801BA8EB0A08404544
:10A180005BD906F1FF39D944002400E001340AF01C
:10A19000B5FC19F8013F18440AEB04014278100796
:10A1A00006EB040502D50A2B07D0A046BB685B7EF0
:10A1B0009942EBD306EB08054446386902F008FFE4
:10A1C00004B34FF00008A9467868036806EB08015D
:10A1D000DD68224603AB5944A847039B9844E41A20
:10A1E0006BB9BA681378032B09D0D2F848319906B5
:10A1F000FBD5B2F848316FF34513A2F84831002C73
:10A20000E2D14D466C1E5C4400E001350AF076FC5C
:10A2100014F8013F184443781B07F6D432493869D3
:10A2200002F0E2FE019B0BB92E469FE71A462F492A
:10A23000386902F0D9FE2E4698E703460BEB060874
:10A2400038697BB11BF806200A2A49D0424600240F
:10A2500003E012F8011F0A290ED00134A34206EBD5
:10A260000405F6D1414602F0BFFE38691E4902F0EE
:10A27000BBFE05B0BDE8F08F02F0AAFE4FF000086B
:10A28000A9467868036808EB0601DD68224603AB3F
:10A290005944A847039B9844E41A6BB9BA681378E9
:10A2A000032B09D0D2F848319D06FBD5B2F84831CE
:10A2B0006FF34513A2F84831002CE2D14D460A490C
:10A2C000386902F091FE019B01350BEB050823B1C3
:10A2D0001A460649386902F087FE3869C2E77047B6
:10A2E00002F076FE3546EAE7D8580300C859030065
:10A2F0000CB470B584B008AB816853F8045B01936B
:10A30000D1F848315B07044601D5CB7E4BB92946CD
:10A31000206901AA02F01CFF04B0BDE8704002B041
:10A3200070471B31022268460AF017FCA368254AD1
:10A3300025490026DE76206902F056FE01AA29464C
:10A34000206902F005FF9DF80030A26893B3D17E2A
:10A3500099421CD19DF80130002BDDD0A268117FFD
:10A360009942D9D045F61B3103F12F00ADF8081002
:10A3700034256D218DF80B00ADF80C108DF80A50C6
:10A3800013772069104902AA02F02EFEC4E70F4994
:10A39000029103F12F0033256D218DF80D00ADF8EA
:10A3A0000E108DF80C50D3762069074902AA02F0EE
:10A3B0001BFECFE7D3762069024A034902F014FE60
:10A3C000C8E700BF8C590300D45603001B5B313B28
:10A3D0000CB430B585B008AB816853F8045B0193C9
:10A3E000D1F848315B07044602D5CB7E082B09D152
:10A3F0002946206901AA02F0ABFE05B0BDE8304055
:10A4000002B0704702221B3168460AF0A6FBA3681F
:10A41000DA7E082A29D101AA2946206902F098FE8D
:10A420009DF80030A268002B3ED0D17E994228D101
:10A430009DF80130002BE0D0A268117F9942DCD05A
:10A4400045F61B3103F12F00ADF8081034256D21BE
:10A450008DF80B00ADF80C108DF80A5013772069B9
:10A46000154902AA02F0C0FDC7E7144A0292144936
:10A4700003910822DA7620690F496A4402F0B4FD9C
:10A48000C9E70E49029103F12F0033256D218DF8A4
:10A490000D00ADF80E108DF80C50D37620690649EA
:10A4A00002AA02F0A1FDC3E7D3762069054A02495A
:10A4B00002F09AFDBCE700BFD45603001B5B313BA2
:10A4C00033376D008C5903002DE9F047064686B0FE
:10A4D00052480AF0DFFC044651480AF0DBFCB3683E
:10A4E00050495B68504A0091241A08213046FFF712
:10A4F0006FFFB3685868A4B2002800F08D800AF09E
:10A50000C9FC85B247480AF0C5FCB368284499687D
:10A5100082B23046FFF712FE444A00213046FFF770
:10A52000E7FE3F480AF0B6FC02300444A4B23B4BBD
:10A5300000933F4A234608213046FFF749FFE21CBB
:10A5400092B23C493046FFF7F9FDB368DC68002C55
:10A550003BD000231D4694F800C0626802A918464B
:10A560005F1CBCF1000F11D090470298A0B10DF113
:10A5700008080AF08FFCA84206D9D8F800502846EF
:10A5800015B10AF087FC85B23B46E4E71B0102EBFC
:10A590000308D0580028ECD1012F16D0264ADFF846
:10A5A00090A000213046FFF7A3FE2278636805F1F2
:10A5B00002094FF000081FFA89F902A94046FAB9CA
:10A5C0004FEA08129F189B581BB906B0BDE8F087E8
:10A5D00002AF0821009352464B463046FFF7F8FE83
:10A5E0007B686A1D92B21946304683B1FFF7A6FD1B
:10A5F0002278636808F1010802A94046002ADFD0EA
:10A600009847029B002BE3D106B0BDE8F0870B49C9
:10A61000306902F0E9FCEBE7054673E7D059030027
:10A62000E05C03009C590300105C0300D45B030052
:10A63000E05B0300E85B0300FC5B0300D858030009
:10A64000022910B5044604D18368D3F848319B072A
:10A650000BD42069074A084902F0C6FC2069074A62
:10A660000549BDE8104002F0BFBCBDE81040FFF74F
:10A670002BBF00BF6C590300D45603007059030070
:10A68000F8B504460068A56888B30AF003FCC6B2B2
:10A690003046E97F6B7EAA7FAE760144024491FB8F
:10A6A000F3F003FB101192FBF3F6013103FB1622CA
:10A6B0000027CBB20132D2B2013063F30707C0B238
:10A6C00062F30F27711C60F31747C9B261F31F676C
:10A6D00093426F610DD088420FD3934217D8D21A9C
:10A6E00012F0FF021DD1A3689A7FDA77F8BD064603
:10A6F000CFE78842FAD08842EFD20A1AD2B20D4987
:10A70000206902F071FC2B7D6A7D9342E7D99A1A89
:10A71000D2B20949206902F067FCA3689A7FDA7710
:10A72000E4E70649206902F05FFCA3689A7FDA77C4
:10A73000DCE700BFA0590300A8590300C859030073
:10A74000F8B505460068AC68002847D00AF0A2FBBF
:10A75000C0B2064600F1010CE37F617EA77FA676BA
:10A76000034493FBF1F201FB12333844013390FBB5
:10A77000F1FEDBB201FB1E010027013163F3070785
:10A78000501C61F30F27C1B20EF1010E61F31747A0
:10A790006EF31F676345676124D0012914D8B34263
:10A7A00008D80136F31A13F0FF021ED1AB6800225D
:10A7B000DA77F8BD013B9E1B16F0FF02F6D00D497B
:10A7C000286902F011FCF1E7D2B20B49286902F0C6
:10A7D0000BFC237DA67EB342E3D9EBE706464FF0A0
:10A7E000010CB9E70129D8D1F8BD0449286902F064
:10A7F000FBFBDBE7A8590300B0590300C85903006D
:10A80000F0B585B08268002504460195D2F8443140
:10A8100002958DF80C50002958D1002B54D00E46CB
:10A82000FFF78EFFA26801AFD2F844013346092238
:10A83000394603F0B7F8A368029AC3F84421A36825
:10A84000D3F844019D7F002800F08B803946002317
:10A85000092203F0A7F8A1689DF80C20D1F8440163
:10A8600009232031013203F09DF89DF80C00A36804
:10A87000D877A368854298774FD8A368464A204680
:10A8800020330821FFF7A4FDA2682068D57F0028A7
:10A890003AD00AF0FFFAA268537E2844B0FBF3F5E1
:10A8A00003FB150060B12068957F18B10AF0F2FA39
:10A8B000A3685B7E2844B0FBF3F203FB120018B9D7
:10A8C0002069364902F090FB05B0F0BDD2F8401186
:10A8D0009942F9D0D2F83C31002BF5D0FFF730FF88
:10A8E000A368D3F84401F0B101AF2B4609223946E1
:10A8F00003F058F8A368019AC3F84421A3689DF8AF
:10A900000C50D3F84401A1E7537EB5FBF3F103FBF0
:10A910001155002DD4D0957FCCE7214A1E492069DE
:10A9200002F062FBA9E703F120000AF0B3FAA36882
:10A93000C5B2D3F83C21C3F844213DB9A36883F8DC
:10A94000A050A36801AFD3F844017FE7A06800F1ED
:10A950002001A0300AF096FAA36801AFD3F84401B1
:10A9600074E703F1A0000AF095FA68B9A36883F8C8
:10A970002000A36813F1200003D00AF08BFAA3682B
:10A98000C0B28DF80C0073E7A06800F1A001203080
:10A990000AF078FAEDE700BFD4560300D858030058
:10A9A000805903002DE9F04105460068AC68002895
:10A9B00068D00AF06FFAC6B23046E27F637EA17FAC
:10A9C000A6760244084492FBF3F603FB162290FBA2
:10A9D000F3F7013203FB1703002162F3070101368D
:10A9E0000133F6B263F30F21013766F31741FFB26B
:10A9F00067F31F616161AA68286892F81F800028C8
:10AA000036D00AF047FAAA68537E4044B0FBF3F808
:10AA100003FB180068B1286892F81E8018B10AF08C
:10AA200039FAAB685B7E4044B0FBF3F203FB1200E3
:10AA300018B91F49286902F0D7FABE4224D0E27D36
:10AA4000A37DD21A12F0FF0209D1237D627D9342C9
:10AA500026D8D21A12F0FF021CD1BDE8F0811549A8
:10AA6000286902F0C1FA237D627D9342F1D917E093
:10AA7000537EB8FBF3F103FB11810029D9D092F882
:10AA80001E80D0E7064698E7627D237DD21A12F039
:10AA9000FF02E2D028690849BDE8F04102F0A4BAFB
:10AAA0009A1A28690549D2B2BDE8F04102F09CBA71
:10AAB000D8580300B0590300A8590300C85903002F
:10AAC0002DE9F0418768BB7F9C187F2C00DC0AB918
:10AAD000BDE8F0818846F97F05465B1A8818DEB22A
:10AAE0002030203114463944721C38440AF040F8B2
:10AAF000A868C37F20331844414622460AF038F83C
:10AB0000AB6813F1200003D00AF0C4F9AB68C0B2FF
:10AB10009877A9681D4ACB7F20330B44284608212B
:10AB2000FFF756FCAB68DA7F2244DA77AA68286818
:10AB3000D47F08B30AF0AEF9AA68537E2044B0FB74
:10AB4000F3F403FB140060B12868947F18B10AF095
:10AB5000A1F9AB685B7E2044B0FBF3F203FB12006B
:10AB600018B90B49286902F03FFA002EB0D02846E8
:10AB7000BDE8F041FFF716BF537EB4FBF3F103FBD2
:10AB80001144002CEDD0947FE5E700BFD4560300BC
:10AB9000D8580300F8B58368DE7F9A7F921B12F0C5
:10ABA000FF0500D1F8BD044606F1210106F12000A1
:10ABB000194418442A4609F0DBFFA268937F013B41
:10ABC00093772068A66800283FD00AF063F9C7B2DF
:10ABD0003846F27F737EB17FB7760244084492FB19
:10ABE000F3F703FB1722013290FBF3F14FF0000C57
:10ABF00003FB110362F3070C01330137FAB263F36D
:10AC00000F2C4B1CDBB262F3174C63F31F6C9A42A0
:10AC1000C6F814C01BD02069194A1A4902F0E4F999
:10AC20002069194A174902F0DFF9A168154ACB7F5C
:10AC300020330B4420460821FFF7CAFB2069134A42
:10AC40001049BDE8F84002F0CFB90746C1E7A16856
:10AC50000C4ACB7F20330B4420460821FFF7B8FB7A
:10AC60000B4A0849206902F0BFF96A1E12F0FF0280
:10AC700098D020690749BDE8F84002F0B5B900BF97
:10AC800084590300D45603008059030088590300F7
:10AC900068590300A85903002DE9F0418368D3F8EF
:10ACA000486104468846D87F997FC6F300060D1A8E
:10ACB000F7B2EDB2D7B97E2916D8002D40F0DA8070
:10ACC000034483F8208018E06B7EB6FBF3F003FBAF
:10ACD0001066002E00F0E680AE7FB6FBF3F203FBB9
:10ACE0001262002A00F0DC80BDE8F0817E2976D86F
:10ACF000034483F82080002D76D1A268937F01332E
:10AD0000DBB2D118937781F8205042467849206908
:10AD100002F06AF9A268D37F0133D377A56820686F
:10AD2000EE7F0028D0D00AF0B5F8A5686B7E3044DD
:10AD3000B0FBF3F603FB1600002800F0B380206898
:10AD4000AE7F0028C9D00AF0A5F8A5686B7E304414
:10AD5000B0FBF3F603FB16000028C5D120680028DD
:10AD600000F0C3800AF096F86B7EAE7FC0B2024658
:10AD7000E97FA8761144164491FBF3F003FB101110
:10AD800096FBF3F2013103FB1266002761F307071C
:10AD9000431C0136DBB2D2B266F30F27511C63F3BA
:10ADA0001747D21A61F31F6712F0FF026F6140F07C
:10ADB00097805049206902F017F9EA7DAB7DD21ADD
:10ADC00012F0FF0240F087802A7D013A12F0FF0264
:10ADD0008AD020694849BDE8F04102F005B9002D4C
:10ADE00082D0034483F820802068A66800283FD0E2
:10ADF0000AF050F8C1B20846F27F737E96F81EE062
:10AE0000B1760244864492FBF3F003FB1022013238
:10AE10009EFBF3F14FF0000C03FB11E362F3070C10
:10AE200001330130C2B263F30F2C4B1CDBB262F36F
:10AE3000174C63F31F6C9A42C6F814C038D02069CF
:10AE40002E4A2F4902F0D0F8A1682D4ACB7F20333B
:10AE50000B4420460821FFF7BBFA2069294A2849FC
:10AE600002F0C2F801222449206902F0BDF851E73E
:10AE70000146C1E700F120012130194418442A4657
:10AE800009F076FEA368DA7F134483F82080A26875
:10AE9000937F0133DBB2D118937781F82060A3E769
:10AEA000104665E720691349BDE8F04102F09CB8FF
:10AEB000A168134ACB7F20330B4420460821ED1BA9
:10AEC000FFF786FA15F0FF023FF424AF0E49206920
:10AED00002F08AF81EE70D49206902F085F873E751
:10AEE0000B49206902F080F863E70246AE7F3FE736
:10AEF000A8560300D8580300C8590300845903001A
:10AF0000D456030088590300A8590300B059030020
:10AF1000A05903002DE9F0410446C0689DF818705F
:10AF2000406884606068056890462D682E4A1E4619
:10AF30002346A847054610B12846BDE8F081606960
:10AF400002F078FC05460028F6D1A368C3F83C015E
:10AF5000A368C3F840014FF4A6722946A06809F01F
:10AF600020FEA068214BB0F84821214942F0200280
:10AF7000A0F84821A268B2F8480168F38200A2F85C
:10AF80004801A068B0F8482142F00802A0F8482122
:10AF9000A26801201070A26850205076A268C91AD9
:10AFA0001820C90810760ED0124A03EBC10C58685D
:10AFB0000833006842F8040B6345F8D10E4B0D4886
:10AFC000042209F02EFE002EB6D03946E068FDF7C7
:10AFD00003FC002806DBE368DB6801225A7128467F
:10AFE000BDE8F0810425A7E7659D0200A47C03006D
:10AFF000EC7C0300783B0020999D02004AB32DE9C8
:10B00000F043054683B08846144600270E4668681C
:10B0100003682246D3F80C90314601ABC847019B28
:10B020002BB1E41A1F4411D008EB0706EFE7AA681A
:10B030001378032BEBD0D2F848319B06FBD5B2F83E
:10B0400048316FF34513A2F84831E0E703B0BDE89B
:10B05000F08370470CB470B584B008AB826853F8C5
:10B06000046B0193D2F848315B07044603D5D37EC5
:10B070008B420D4609D13146206901AA02F068F8D9
:10B0800004B0BDE8704002B0704702F11B01684691
:10B09000022209F062FDA368002D59D0DA7EAA428F
:10B0A0003CD101AA3146206902F052F89DF80030E7
:10B0B000A268002B45D0D17E99421CD19DF8013069
:10B0C000002BDDD0A268117F9942D9D045F61B3103
:10B0D00003F12F00ADF8081034256D218DF80B0019
:10B0E000ADF80C108DF80A50137720691C4902AA9C
:10B0F00001F07AFFC4E71B49029103F12F003325C9
:10B100006D218DF80D00ADF80E108DF80C50D37632
:10B110002069134902AA01F067FFCFE7114A0292A2
:10B12000332205F12F018DF80C206D228DF80D10C2
:10B13000ADF80E20DD762069094902AA01F054FF1E
:10B14000AFE7D3762069084A054901F04DFFB5E71E
:10B15000DD762069044A024901F046FFA1E700BFFD
:10B16000D45603001B5B313B8C5903002DE9F041A1
:10B17000C3685B6890B006460F46186803A90022B2
:10B1800002F08CFD002840F08580002F6ED1B4685D
:10B190003068002800F0C08009F07CFEC2B2104682
:10B1A000E37F617EA57FA276034493FBF1F201FB6E
:10B1B00012332844013390FBF1FCDBB201FB1C018C
:10B1C0000025013163F30705501C61F30F25C1B25F
:10B1D0000CF1010C61F317456CF31F6501296561E2
:10B1E00000F28F80012B306976D84C4A4C4901F02F
:10B1F000FBFE77B17CE0022A50D0039802F07CFB82
:10B20000F3685B680022186803A902F047FD002874
:10B210003CD100230C2204A9039802F0C3FB9DF843
:10B2200010308DF82570DDE9051003F00302012AC6
:10B23000CDE90701DFD1BDF81080DDE90304C8F3D3
:10B240008318C3F3C2054FEA88020AA90C238DF8BC
:10B250002450C4F3952402F0A5FB336900934246C1
:10B26000204607AB0AA9FDF745FBC6E7039802F0A5
:10B2700043FBB268D2F838310133C2F83831B468D0
:10B28000D4F8383103F00703012B81D0012010B02E
:10B29000BDE8F081002010B0BDE8F081BDF812508B
:10B2A000C3F3C2038DF82430AD094FF00C08082D0C
:10B2B0002C4628BF0824434622460AA9039802F0D8
:10B2C00071FB2D1B2146336907AA0AA8A044FDF78C
:10B2D000F5FB002DEBD190E75A1ED2B2114901F0D7
:10B2E00083FE30690D4A0E4901F07EFE002F90D09A
:10B2F00030460D4A0221FFF7ADFE384610B0BDE8DA
:10B30000F08130690949D2B201F06EFE237D3069C7
:10B31000012B7FF66AAFDFE7024641E78059030061
:10B32000D4560300A859030038590300B05903004C
:10B33000436801219868FFF719BF00BFF0B5446862
:10B34000A56883B0AB6801911F78042F16D001A9BE
:10B35000206802F02DFC60B1FE1E18BF01263146A8
:10B360002846FFF703FF01A9206802F021FC00280E
:10B37000F5D1019802F0BCFA032F01D003B0F0BD63
:10B3800028460021FFF7F2FE03B0F0BD2DE9F04F93
:10B3900082468068A9B0102100F5A470FEF7BEFBBC
:10B3A000DAF808301B78022B40F08380DFF868B3AE
:10B3B000D24BCDF81CB00DF1A0080022A3EB0B037B
:10B3C00048F85C2D4FEAD309DAF80400036801223B
:10B3D0001C690DF143014346A047119B002B4DD042
:10B3E0009DF94330002BEFDB02F050FBDAF8083018
:10B3F0005A78012A00F03C8104D3022A68D0002246
:10B400005A70E1E79DF843400D2C02D00A2C40F021
:10B41000A980D3F8482112F47F5F06D0D3F84821E1
:10B42000C2F38712944240F0A380B3F8482164F33A
:10B430008D12A3F84821DAF80820937F002B40F002
:10B44000CF83C2F84431DAF81000AD4901F0CCFDE9
:10B45000DAF80830AB4A02211970DAF80810002334
:10B4600081F82030DAF80810CB77DAF808108B77FB
:10B47000DAF8003003215046FFF7ECFD002150467A
:10B48000FFF774FEA8B1DAF800309E4A0321504657
:10B49000FFF7E0FDDAF80830D3F84821120708D5A5
:10B4A00050462033974A0821FEF792FF5046FFF797
:10B4B00079FADAF8100001F08BFDDAF808006FF085
:10B4C000100100F5A470FEF735FB29B0BDE8F08F40
:10B4D00000225A70DAF80840D4F848311807CDD560
:10B4E0009DF84330313B1B2B3FF66EAF01A252F863
:10B4F00023F000BFAFB60200BBB60200DDB602000B
:10B50000A3B60200C9B30200C9B30200C9B3020066
:10B51000C9B30200C9B30200C9B30200C9B3020033
:10B52000C9B30200C9B30200C9B30200C9B3020023
:10B53000C9B30200F1B6020093B702009DB7020042
:10B540001DB70200C9B30200A7B60200C9B30200CA
:10B55000B3B60200C9B30200C9B30200C9B3020006
:10B56000C3B60200B3F848216FF38D12A3F8482147
:10B57000092C00F07D8100F28380002C3FF424AF81
:10B58000082C40F04781DAF80830D3F84821160734
:10B590007FF51AAF9A7F002A3FF416AFD87F0028B4
:10B5A0003FF412AF121A00F12001D5B21F306A1C0D
:10B5B0001944184409F0DCFADAF80820D37F013B7B
:10B5C000D377DAF80820937F013B9377002D00F0C2
:10B5D00056852246DAF810004B4901F005FDDAF8ED
:10B5E0000000DAF80840002800F07A8509F052FCE3
:10B5F000C0B20146E27F637EA77FA0760A440F4473
:10B6000092FBF3F603FB1622013297FBF3F10020C5
:10B6100003FB117362F3070001330136F2B263F3E7
:10B620000F204B1CDBB262F3174063F31F609A429A
:10B63000606100F07E85DAF81000344A314901F08B
:10B64000D3FCDAF81000324A2E4901F0CDFCDAF8CA
:10B6500008102C4ACB7F20330B4450460821FEF7BC
:10B66000B7FE2C4A2749DAF8100001F0BDFCABE622
:10B670009DF843205B2A7FF4C2AE02225A70A3E6F3
:10B680001B2C00F0F0807F2C40F0C480DAF80830EA
:10B69000D3F848311D077FF597AE5046FFF77AFA89
:10B6A00092E6032363705046FEF7EAFF8CE603231D
:10B6B00063705046FFF744F886E603236370DAF8B8
:10B6C0000840D4F84831B4F8482103F0010383F06E
:10B6D000010363F30002A4F8482175E603236370B5
:10B6E000DAF80830D3F8483119077FF56DAED4E7A2
:10B6F00001215046FFF784F866E600BFEC7C0300AA
:10B70000D8580300D4560300A856030084590300F8
:10B710008059030088590300A47C0300DAF8000074
:10B72000002800F0238109F0B5FBC1B20E46354672
:10B730000131E27F637EA77FA6762A4492FBF3F075
:10B7400003FB10222F440132D2B297FBF3F60025FF
:10B7500003FB1673013062F307050133C0B263F3D4
:10B760000F2560F31745013666F31F658A42656150
:10B7700000F01482012ADAF8100000F02682B049A5
:10B78000012201F031FCDAF80820D37F013BD377A6
:10B790001AE600215046FFF733F815E6DAF8000004
:10B7A000002800F0E78009F075FBC5B22846E37F6A
:10B7B000617EA27FA5760344024493FBF1F001FB76
:10B7C000103392FBF1F5013301FB1522DBB20026A9
:10B7D00001320130D2B263F30706C7B262F30F261B
:10B7E000681C67F31746C0B260F31F669342666138
:10B7F00000F0D88199424FF0010200F0DB819149BD
:10B80000DAF8100001F0F0FBDAF80820D37F0133FA
:10B81000D377D9E509F072F99DF8431008444378CD
:10B8200013F0970F3FF4D0ADDAF80830D3F8482181
:10B830001407C2F3C00000F1B9819A7F7E2A3FF657
:10B84000C3ADDA7F9C180132DA7784F82010DAF879
:10B850000830DA7F134483F82000DAF80820937F59
:10B8600001339377B0E5DAF8083001225A70ABE57E
:10B87000DAF80800D0F848311A077FF5A5AD837FC4
:10B88000C3F17F0313F0FF0309933FF49DAD00F173
:10B890002001C27FA03009F060F9DAF80830DA7FC1
:10B8A0001344002483F8A04009F028F9DAF808309E
:10B8B000DA7F1A441BA9D27F024412A85578C3F834
:10B8C0004441DAF8082005F008030F93A032C5F3CD
:10B8D000C0030D93FEF72AFB1B98002800F040835D
:10B8E00009F0D8FAC3B208930022CDF814A0129B35
:10B8F000DDF820A003920A920C92164604920E9252
:10B900000B92CDF81880002B00F0A2800D9A013A1E
:10B910001344B34240F29C8028AA02EB86084A4CAA
:10B920000A9FCDF820800023CDF828A05D1C1EBB07
:10B930004B457FD2DA46B046DAF804302068196801
:10B9400009F096FA002800F01D8108F10108C145B0
:10B950000AF1080AF0D1DDE905A8002D7FF434AD25
:10B960003A4A04215046FFF775FB2DE50546064689
:10B970000121DEE605461AE7002F5BD039787A68A8
:10B98000002951D013A9184690471399002951D086
:10B990000DF14C0A002D00F07F84089B53F8340C05
:10B9A00009F066FA04342B460028BFD15746DDF86B
:10B9B00028A0BB680A9333B1129B0D9A0136F6B2E8
:10B9C0001A4496429FD3CDF820A0DDE905A8049B38
:10B9D000002B3FF4F9AC012B00F01084DAF80830AA
:10B9E0000E9D00225A7728AB03EB86030593002EA9
:10B9F00040F0CF82A94514D9134ACDF8188002EB44
:10BA00008507A84634465D466B683868196809F0B2
:10BA10002FFA002800F0CA830134A14505F108057A
:10BA2000F2D100231B68FFDE1B0102EB030AD15891
:10BA30000029AFD1DDE905A8002D7FF4C5AC8FE763
:10BA4000A8590300C8590300783B0020845C030018
:10BA50000F9B002B75D128AB03EB860353F8340CF6
:10BA600000286ED009F016FA5FFA80FA28AB03EBD3
:10BA7000860300240893C6B9A14510D9B44B3746B4
:10BA800003EB84050BEBC7082868D8F80430196865
:10BA900009F0EEF900284CD001374F45F2D1CDF82E
:10BAA00020A00026DDE905A891E70A9B002B8AD09B
:10BAB0001A785B68002A00F0148213A92046984780
:10BAC000139900293FF47FAF13AD089B524653F8FA
:10BAD000340C09F0E7F9B0B9049B039A01330493DD
:10BAE0002B6892B143B1184609F0D4F90C9BC0B24F
:10BAF000834238BF03460C93099B2BBB631C00F0A9
:10BB0000F78103950B940134B5E7002B38D0184624
:10BB100009F0C0F9C3B20C931846099BA0EB0A00C8
:10BB200083420CDD0C9B0E94A3EB0A03DBB209935A
:10BB3000E4E7D8F80450002DB1D02968C5E70E9489
:10BB4000DCE74FF0000A91E7002E40F0DA810B9B12
:10BB50004B45BFF466AF7E4A039402EB8307D84699
:10BB60003446D8F804303868196809F081F900289B
:10BB700000F09F8201344C4508F10808F1D150E7EC
:10BB80000C90CAE7DAF804A0002D00F08583BAF122
:10BB9000000F00F07D83DAF80010FEE601287FF444
:10BBA000E9AD11E487427FF425AE0DE45046FFF77E
:10BBB00073F809E46749DAF8100001F015FA627EBB
:10BBC000002A3FF421AE64491AE6644901F00CFAF8
:10BBD000627E002A3FF4D7AD6149DAF81000D0E563
:10BBE00092F82030002B4ED0002404E00134B4F54C
:10BBF000807F00F0BD8208F081FFDAF80820131979
:10BC0000E5B293F82030184443781907EED4937FB7
:10BC100095B102F1200001331A1B011908F0A8FFA9
:10BC2000DAF80820937F5D1B9577DAF808309A7F61
:10BC3000DA77DAF80820937F1F33D418254608F006
:10BC40005DFF2B780344661B5B7813F008032F46D7
:10BC5000F6B205F1FF35F2D1DAF80820917F01F153
:10BC60001F00104487420ED0891B0A4482F82030FE
:10BC7000DAF80820937F9E1B9677DAF808309A7FCF
:10BC8000DA77DAF8082012F1200000F0658109F077
:10BC900001F9DAF808300025C4B2C3F84451002C89
:10BCA00000F05C81DAF80830D3F83C011BAE48B1F3
:10BCB000092231462B4601F075FE9DF87420A24200
:10BCC00000F05C8204F10A08082703E0C3F83C0195
:10BCD000013F76D04146DAF8140001F0ADFDDAF804
:10BCE0000830044600283DD1D3F84051002DEFD054
:10BCF000034609223146284601F054FEDAF808309E
:10BD00001C9AC3F8402121460922304608F049FF19
:10BD1000234609223146284601F010FE284601F04C
:10BD2000CDFDDAF80830D3F840010028CED0234604
:10BD30003146092201F036FEDAF808201B94D2F8C9
:10BD4000400123460922314601F0F8FDC0E700BF5B
:10BD5000783B0020A0590300A8590300B059030004
:10BD6000C8590300D3F83C01002800F0BC8100232F
:10BD70000922314601F016FEDAF808301C94D3F897
:10BD80003C0109220023314601F0D8FDDAF80830E1
:10BD900000221C92D3F83C211B929A7F8DF87420CC
:10BDA000C3F83C41002309223146204601F0C6FD7C
:10BDB000DAF808108A7F204601322031092301F089
:10BDC000BDFD5046FEF75CFCDAF80820DAF800000A
:10BDD000D47F20B109F05EF8DAF808200444517EDF
:10BDE000B4FBF1F301FB1343002B40F0BB80203286
:10BDF000314613A8FEF79AF8139B002B00F0BA8087
:10BE0000002840F0BE80B9F1000F00F04881079D86
:10BE100004466B681B98196809F02AF8002840F05E
:10BE20003681DAF8080010220430002108F0B9FE4B
:10BE30006B68DA6832B10FCBDAF80840043484E872
:10BE40000F006B68D3F808B0DFF8A893DFF8A88379
:10BE500003960023344604930127002515E09BF840
:10BE60000020DBF80430002A00F0298117A92846B9
:10BE700098471799E9B117AE6B1C1AD0606808F0A3
:10BE8000F7FF0135002800F03C81139BBB4210D91D
:10BE90004946606808F0ECFF002800F01781414631
:10BEA000606808F0E5FF002800F01081BBF1000F8A
:10BEB000D5D1039EDAF808301B69002B00F0078209
:10BEC0000498139906EB8002091A50469847DAF84D
:10BED0000830B3F848216FF34102A3F84821FFF777
:10BEE000B7BA22019D18995800297FF4EEAD6AE592
:10BEF000B44A0598039504210B94FFF7ABF80A9B0D
:10BF000059E50A9B002B3FF48CAD1A785B68002A38
:10BF100000F006810B9817A99847DDF85CE0BEF1A8
:10BF2000000F3FF47EAD2868002308E01EF80110E2
:10BF300091420BD10133B3F5807F3FF4DFAD0AEBC3
:10BF400003015FFA83FC425C002AEFD1099B634541
:10BF500028BF63460993D1E5C2F844011BAE30E720
:10BF60000890C1E49849DAF8100001F03DF8DAF8D9
:10BF700008203CE79449DAF8100001F035F8FFF7A3
:10BF800067BA0346914A02215046FFF763F8FFF76C
:10BF90005FBA0A9B002B3FF444AD1A785B68002A15
:10BFA00000F0648113A928469847139900293FF4AB
:10BFB00038AD13AC059B089A53F8340C08F072FFA7
:10BFC00000285AD1049B2768013B0493002F00F0FE
:10BFD000F4807F4808F05EFF0C9BDAF808101A180E
:10BFE000D2B27B484C7E0B9208F054FF0690384644
:10BFF00008F050FFDAF80830069993F81DC00B9A44
:10C00000611AB1FBF2F1C9B2121ABCFBF1F001FBEB
:10C0100010C111F0FF0F0CF1010CD4B283F81DC058
:10C0200040F09F8000976A4B6A4A07215046FFF70D
:10C0300011F8002C40F02281049B0135002B7FF485
:10C04000D6ACDAF80030644A50460321FFF702F814
:10C05000DAF80830614A203308215046FEF7B8F973
:10C060005046FEF79FFC039B1968DDE908325046F5
:10C070001944FEF725FDFFF7A7B90135B7E4584A83
:10C080005649DAF8100000F0AFFFFFF79DB9013410
:10C090004C453FF6C6AE05F108057FF4BAAE514BEC
:10C0A0000093514A1B9B02215046FEF7D3FFFFF736
:10C0B000CFB9D8F80430039CD3F800E033E72A0165
:10C0C0009E18995800297FF4D7AEF2E6DAF80820D6
:10C0D000039EB2F8483143F00203A2F84831E9E682
:10C0E0000146FFF787BAC3F83C41DAF80830C3F8D5
:10C0F0004041CDE91B00DAF808309B7F8DF87430A1
:10C1000050E6F3683BB196E80F00DAF80850049760
:10C11000043585E80F000137D6F808B004349CE6F2
:10C120000B9A120153F802E0BEF1000F7FF4FBAE50
:10C1300077E4DAF80810294ACB7F20330B445046C5
:10C140000821FEF745F9DAF81000284A234900F0E3
:10C150004BFF2A462649DAF8100000F045FFFFF7AA
:10C1600033B93B461D4A07215046FEF773FF60E78F
:10C17000002382F82030DAF8082084E5DAF8083065
:10C18000013203F1A001D3F83C01092301F00AFCBC
:10C19000DAF8080000F1A001203008F069FEDAF8B2
:10C1A0000830002871D083F8A0508BE52C46454616
:10C1B0006468DDF818802168FCE6DAF80820577713
:10C1C0003AE700BF845C0300D8580300285C0300F2
:10C1D000B05C0300B45C0300BC5C0300D4560300F5
:10C1E00090590300445C03003C5C03008059030049
:10C1F000A8590300585C03005C5C03000A9B1B7891
:10C20000002B4DD1039B186808B108F043FE089B32
:10C21000834206D0039A1168099A19445046FEF7E2
:10C220004FFC08F06BFCDAF80810CA7F8B1893F803
:10C23000203003445B7813F0080363D1D1F8482120
:10C24000D70759D5B1F8482163F30002A1F8482176
:10C2500050462021FEF720FDDAF80820B2F84831D8
:10C2600043F00103A2F84831FFF7AEB82A019C1849
:10C27000995800297FF49EAEFFF7D3BB224634497C
:10C28000DAF8100000F0B0FED6E683F8A00098E5DA
:10C29000DDE905A8FFF798B8DDE905A8FFF760BB61
:10C2A000F6B90B9B99457FF6BCAB2A4A5C4602EB7C
:10C2B000830708E063683868196808F0D9FD2346E9
:10C2C000083450B10136B145F4D1FFF7AABB224A78
:10C2D00002215046FEF7BEFEF9E55B68039391E745
:10C2E0000A9B0B985B6813A99847139800283FF4A2
:10C2F00098AB13AB039388E720215046FEF7CCFCA4
:10C30000FFF762B88B7F93427FF65EA8DAF80000F1
:10C31000FDF7E6FDDAF808208478D37F0133D37780
:10C32000DAF80810DAF80000FDF7DAFD8378A342A6
:10C3300006D00A49DAF8100000F056FEFFF744B8BC
:10C3400001220349DAF8100000F04EFEFFF73CB876
:10C35000C8590300783B0020645C0300D8580300F0
:10C3600001290AD0022904D18368D3F848319B07F8
:10C3700003D4034A0221FEF76DBEFEF7A5B800BF45
:10C38000645C030010B5012982B004460BD0022979
:10C390000B460ED08268D2F84811890703D4022BCD
:10C3A00011D802B010BD204602B0BDE81040FEF723
:10C3B0008BB8D2E90034084ACDE90024074AFEF7D9
:10C3C00049FE02B010BD5368054A022102B0BDE823
:10C3D0001040FEF73FBE00BF20510300145B030076
:10C3E000205B030030B583681B78012B83B045D1F7
:10C3F00004464068036800219B689847054610B1D1
:10C40000284603B030BDA368DA7E082A1AD11A7F05
:10C41000012A26D120691B4900F0E6FDA3681A4ACB
:10C4200002211970A168002381F82030A168CB7720
:10C43000A1688B77204623680321FEF70BFE284670
:10C4400003B030BD114A0092114901910822DA76F9
:10C4500020690D496A4600F0C7FDA3681A7F012ACA
:10C46000D8D00C4A00926D210122ADF804101A7741
:10C47000206905496A4600F0B7FDCBE70825284644
:10C4800003B030BDD05C0300D45603001B5B313BCE
:10C4900033376D001B5B34308268D2F84831C3F308
:10C4A000400383B9012909D110B4C2F83831C368F7
:10C4B0005DF8044B5B68186801F064BC5368034A7C
:10C4C0000221FEF7C7BDFDF7FFBF00BF205B0300E1
:10C4D0008268D2F84831C3F340036BB9012906D111
:10C4E000B2F8481163F3C301A2F8481170475368CA
:10C4F000024A0221FEF7AEBDFDF7E6BF205B030056
:10C5000010B58268D2F84841A30715D401290CD18F
:10C5100004460B4A0B49006900F066FDA3685022EF
:10C520005A76A36818221A7610BD5368064A02216B
:10C53000BDE81040FEF78EBDBDE81040FDF7C4BF5A
:10C5400078590300D4560300205B030070B582685D
:10C55000D2F84841C4F3400484B02CBB01291BD15C
:10C56000C3685B681E680546304601F007FCAB688F
:10C57000B168D3F838310291C0B2642202FB00F2F4
:10C58000B2FBF1F2D2B2CDE9002021462846094A99
:10C59000FDF7AEFE04B070BD5368074A022104B037
:10C5A000BDE87040FEF756BD04B0BDE87040FDF731
:10C5B0008BBF00BF3C5B0300205B03008368D3F8A4
:10C5C000482192070DD4012906D1B3F8482142F041
:10C5D0000802A3F8482170475B68034A0221FEF76E
:10C5E00039BDFDF771BF00BF205B0300F0B5836864
:10C5F000D3F84841C4F3400487B084BB012927D154
:10C60000D3F84051FDB1184F0646284600230922B1
:10C6100003A901F0C7F99DF81420B168284601323A
:10C62000A031092301F0BEF9B368049DA033009343
:10C630003A462346002130460134FDF759FE0DB13C
:10C64000082CE2D1B368002283F8A02007B0F0BD27
:10C650005B68064A0221FEF7FDFC07B0F0BDFDF75E
:10C6600033FF07B0F0BD00BF8C5B0300205B03000D
:10C670008268D2F84831C3F340036BB9012906D16F
:10C68000B2F8481163F38201A2F848117047536869
:10C69000024A0221FEF7DEBCFDF716BF205B030055
:10C6A0008368D3F8482192070DD4012906D1B3F845
:10C6B000482142F00402A3F8482170475B68034A0E
:10C6C0000221FEF7C7BCFDF7FFBE00BF205B0300E1
:10C6D00030B58368D3F84841C4F3400483B0CCB983
:10C6E00002290FD81BD0D3F84811124D124B134A10
:10C6F00011F0080F18BF2B46214603B0BDE83040AB
:10C70000FDF7F6BD5B680E4A022103B0BDE830407C
:10C71000FEF7A0BC03B0BDE83040FDF7D5BED2E9BE
:10C720000034084ACDE90024074AFEF793FC03B021
:10C7300030BD00BF80570300745B0300785B0300CB
:10C74000205B030020510300145B030070B5012936
:10C7500082B0044610D08568D5F84861B3070BD481
:10C7600002290FD1D2E900340A4ACDE900240A4A4D
:10C77000FEF770FC02B070BD204602B0BDE870400C
:10C78000FDF7A2BE6B68054A022102B0BDE8704009
:10C79000FEF760BC20510300145B0300205B030024
:10C7A000F0B5012983B0856810D0D5F848319B07D2
:10C7B00044D4022947D8D2E900312A4ACDE90021E0
:10C7C000294A0221FEF746FC03B0F0BD0446FDF7FE
:10C7D000E7FA28BBA368254920691F7D9E7DFA22C0
:10C7E00000F002FC20692249FA2200F0FDFB2046FD
:10C7F000FDF7D6FAA0B9A3681A7D6A76A368D21BA2
:10C800009B7D2B7612F0FF0225D19B1B13F0FF02BC
:10C81000DAD02069174903B0BDE8F04000F0E4BB6E
:10C82000A368154A50215976A36818211976204625
:10C83000042103B0BDE8F040FEF70CBC03B0BDE836
:10C84000F040FDF741BE6B680C4A022103B0BDE821
:10C85000F040FEF7FFBB0A49206900F0C5FB2B7EC4
:10C86000D3E700BF20510300145B0300C859030045
:10C87000A0590300B0590300985B0300205B03003C
:10C88000A85903002DE9F04F054687B0B0480C4683
:10C89000164608F0FFFA0746AE4808F0FBFAAB6808
:10C8A000AD495B68AD4A00913F1A08212846FDF763
:10C8B0008FFDAB685868BFB2002800F0C28008F056
:10C8C000E9FA1FFA80F8A44808F0E4FAAB6840449B
:10C8D00082B299682846FDF731FCA14A002128461A
:10C8E000FDF706FD96B3002C00F01D8106EB460611
:10C8F00004EB8606A0461FE0184608F0CBFA8146F6
:10C90000D8F8000008B108F0C5FA4844B8420ED97A
:10C91000D8F80400002800F0968008F0BBFA87B22F
:10C92000D8F8000018B108F0B5FA0744BFB208F112
:10C930000C08464500F08980D8F80430002BDBD184
:10C94000D8F800000028F2D09946DCE7814808F0CA
:10C95000A1FA02300744BFB27D4B0093814A3B46A7
:10C96000082128460337FDF733FDBAB27E49284631
:10C97000FDF7E4FBAB68DC68002C3BD000231E46CF
:10C9800094F800C0626802A918465F1CBCF1000F51
:10C9900011D090470298A0B10DF1080808F07AFA7A
:10C9A000864206D2D8F80060304616B108F072FA16
:10C9B00086B23B46E4E71B0102EB0308D05800288F
:10C9C000ECD1012F16D0694ADFF898A10021284642
:10C9D000FDF78EFC2278636806F102094FF000082B
:10C9E0001FFA89F902A94046FAB94FEA08129F18BE
:10C9F0009B581BB907B0BDE8F08F02AF0821009328
:10CA000052464B462846FDF7E3FC7B68721D92B206
:10CA10001946284683B1FDF791FB2278636808F137
:10CA2000010802A94046002ADFD09847029B002B4C
:10CA3000E3D107B0BDE8F08F4D49286900F0D4FA82
:10CA4000EBE780463FE707466AE7424808F022FAEC
:10CA500002300744BFB23E4B009307F103093B4647
:10CA6000404A082128461FFA89F907F1020AFDF712
:10CA7000AFFC5FFA8AFA4A463B492846FDF75EFB5F
:10CA8000AAF1020A2EE033492846CDE90012394ABC
:10CA90000821FDF79DFC606800283DD008F0FAF9F8
:10CAA000C6B22068002835D008F0F4F95FFA80FBA0
:10CAB000284808F0EFF9AAEB0606A6EB0B02121ABB
:10CAC00012F0FF022AD13A222B49286900F08CFA91
:10CAD000A168B1B14A462846FDF730FB0C34A045A9
