:020000022000DC
:1070000000000420B5720200DD720200DF7202008F
:10701000E1720200E3720200E5720200000000006B
:10702000000000000000000000000000E772020005
:10703000E972020000000000EB720200ED72020033
:10704000399F0200EF72020019A90200EF720200DC
:10705000EF720200EF720200B1A30200EF720200B1
:10706000EF720200EF720200EF720200EF72020094
:10707000EF720200EF720200EF720200EF72020084
:10708000EF720200F58B0200EF720200EF72020055
:10709000EF720200EF72020041CA0200EF720200BA
:1070A000EF720200EF720200EF720200EF72020054
:1070B000EF720200EF72020000000000000000000A
:1070C000EF720200EF720200EF720200EF72020034
:1070D000EF720200EF720200EF720200EF72020024
:1070E000EF720200EF720200EF7202000000000077
:1070F00000000000EF72020000000000EF720200CA
:10710000000000000000000000000000000000007F
:10711000000000000000000000000000000000006F
:10712000000000000000000000000000000000005F
:10713000000000000000000000000000000000004F
:10714000000000000000000000000000000000003F
:10715000000000000000000000000000000000002F
:10716000000000000000000000000000000000001F
:10717000000000000000000000000000000000000F
:1071800000000000000000000000000000000000FF
:1071900000000000000000000000000000000000EF
:1071A00000000000000000000000000000000000DF
:1071B00000000000000000000000000000000000CF
:1071C00000000000000000000000000000000000BF
:1071D00000000000000000000000000000000000AF
:1071E000000000000000000000000000000000009F
:1071F000000000000000000000000000000000008F
:1072000010B5054C237833B9044B13B10448AFF3E0
:1072100000800123237010BD202500200000000005
:1072200044DB020008B5034B1BB103490348AFF32D
:10723000008008BD000000002425002044DB02007F
:10724000154B002B08BF134B9D46A3F5803A002138
:107250008B460F461348144A121A05F0CEFD0F4B09
:10726000002B00D098470E4B002B00D098470020F1
:10727000002104000D000D48002802D00C48AFF397
:10728000008005F06BFD2000290004F0F7F905F0FF
:1072900051FD00BF000008000000042000000000B5
:1072A0000000000020250020582E002000000000D3
:1072B000000000000649074A074B9B1A03DD043B08
:1072C000C858D050FBDC02F0D1FBFFF7B9FF00003B
:1072D0003CDC02000023002020250020FEE7FEE722
:1072E000FEE7FEE7FEE7FEE7FEE7FEE7FEE7FEE776
:1072F000F0B595B0002415460F4608461E4602F02C
:107300005BFA384623460895082205A91A9D099676
:107310000D950A948DF82C400C9402F0A7FA9DF874
:1073200014308DF81140DDE9061003F00302012A44
:10733000CDE9020127D0022A04D0384602F040FAF3
:1073400015B0F0BDBDF81650C3F3C2038DF8103070
:10735000AD090826082D2C4628BF082433462246AE
:107360000EA9384602F082FA2D1B214608AB02AA6C
:107370000EA8264400F03EFD002DEBD1384602F069
:107380001FFA15B0F0BDBDF81460059DC6F3831655
:10739000C3F3C204B2000EA9384608238DF810408A
:1073A000C5F3952502F062FA08AB324628460EA9CD
:1073B000009302AB00F078FC384602F001FA15B0F9
:1073C000F0BD00BF014B01221A70704780250020DC
:1073D000704700BF00B583B0044B0093044A4023BC
:1073E000FFF786FF03B05DF804FB00BFF5730200F2
:1073F0004025002038B50E480E4D03780E4CEB5C4E
:107400000025D2B2257053B90C3003F00DFD58B9E8
:107410000A4B1B7813B12378002BFCD038BD043005
:1074200003F0B8FF0028F3D000F0BCFFF0E700BF86
:1074300000230020542E0020802500203C25002021
:1074400070B51348134A0378D35C88B0DBB90C30AD
:1074500003F06CFC104D0FCD6C460FC495E80F0087
:1074600008AD102645F8206D84E80F00294600225B
:10747000074802F0F1FC08B100F094FF074B00222E
:107480001A7008B070BD043003F0EAFEE2E700BFF6
:1074900000230020542E002050CE02003C25002066
:1074A00070B50D4D0FCD88B06C460FC495E80F0038
:1074B00008AD102645F8206D84E80F002946074ADC
:1074C000074802F0C9FC08B100F06CFF054B01222F
:1074D0001A7008B070BD00BF50CE0200C573020024
:1074E000002300203C25002008B5FFF7D9FF042128
:1074F000034800F08FFB034B01225A7108BD00BF07
:1075000024DC020014230020F0B5324C85B004F5D1
:10751000836001F063FC04F2144001F05FFCD4E9E5
:10752000013703EA0702D01C04EB800114F82000A5
:1075300010F0040044D003F1020C0E7806F00306AC
:10754000012E654635D0022E02F1030621D004EB50
:1075500086010028F1D104EB82020133D268019246
:107560003B4004EB830302F00302012ADE6829D0CA
:10757000022A23D1BDF806309B090333360C05EBF4
:107580009305154801F036FC00B16560304605B042
:10759000F0BD4B880CEB931307EA0302D11C03F1F7
:1075A000020C14F82100654604EB810100F0040090
:1075B000CFE70B88C3F383136344EDE70026E0E7CE
:1075C0009D1CC8E7BDF80430C3F38313360C1D447B
:1075D000D7E700BF54260020682A00200B4B0C4838
:1075E00010B50022FF21C3F818249960C3E90022D6
:1075F000C3F8142483F8202402F09AF8044610B942
:10760000044802F0A7F9204610BD00BF5426002010
:1076100098DB020090CE020021B9124B03EBC000B0
:1076200000687047104A0F49521AD20815D030B47A
:107630000E4D2B88834212D0002303E035F82340FF
:10764000844205D001339A42F8D1002030BC704703
:1076500001EBC300006830BC704710467047084615
:10766000F8E700BFACDB020024DC02001C25002090
:10767000094B013903EBC00003290BD8DFE801F007
:10768000020806040220704740797047007970476D
:107690000420704700207047ACDB02002DE9F04366
:1076A00083B002AB002203F8012DDFF8DC9007461F
:1076B00018468846D9F8084001F010F9D9E9013296
:1076C000D9F80060134401339B1B012B58D809F2F1
:1076D0001C450121284601F069FBFFF715FF014613
:1076E000284601F063FBD9E90132D9F800101344B0
:1076F00001335B1A012BECD90A4003320523023116
:107700009DF8070049F82230C9F8001001F00CF983
:1077100000211C4801F028FB80F31000731C23405B
:1077200009EB830300043440033440EA1740D86077
:1077300019F8243067F3C50309F8243039F82430E8
:107740006FF3891329F8243059F8242068F39F2215
:107750001346012161F301036FF3820349F82420EA
:1077600009F8243099F820341BB906E000F00EF82F
:1077700018B1D9E900329A42F8D103B0BDE8F083DC
:107780003146B9E7702A0020542600202DE9F04741
:10779000934C002384B0C4F81834BFF34F8FD4E95E
:1077A000015605EA0602D31C04EB830114F82330CA
:1077B000580719D527680B7803F00303012B43D032
:1077C000022B03D14B88023505EB931506EA05021F
:1077D000D4F81804D31C04EB830128B9AF4239D97B
:1077E00014F823305B07E6D404EB82026B1CD268EA
:1077F0000192334004EB830302F00302DB6802933F
:10780000022A05F1020700F08D80012A26D0D4F863
:1078100010543DB12B6828469B689847EB681D685B
:10782000002DF7D16F48704B7049C01AC008000492
:1078300040F00200FFF732FFD4E90030C01A18BF51
:10784000012004B0BDE8F0870B880235C3F3831331
:107850001D44BBE7676004B0BDE8F087BDF80420B5
:107860006348C2F38313062B28BF062363F38912F0
:1078700002339900ADF8042001F05CFF8046002837
:10788000C5D001F099FF0023082201A9404601F06C
:10789000B9FFBDF8043013F4707F00F09F806FF0E3
:1078A000010AAAEB050A082506EA070103312B465F
:1078B000042204EB8101404601F0A4FFBDF804302E
:1078C00007F101090AEB0902C3F3831393424F4600
:1078D00005F10405E8D8D4F81834002B68D1D4F8A1
:1078E000105465B1EB685A7928464146002A5BD0AE
:1078F0002B681B689847EB681D68002DF2D1404645
:1079000001F05EFF04A8002300F80D3D00F0E6FF43
:10791000D4F818340BB9C4F804909DF8030001F0B2
:1079200003F889E7BDF8063031484FEA93194D4610
:10793000502D28BF502565F38F1305F10801ADF8D0
:10794000063001F0F7FE804600283FF460AF26EADB
:10795000070A0AF1010A01F02FFF4FEA8A0A002301
:10796000082201A9404601F04DFF55452BD9EBB245
:10797000BAF1000F20D006EA0701A3EB0A03033196
:1079800004EB8101DDB252460823404601F03AFF84
:107990002A460AF108031749404601F033FF09F16E
:1079A000030907EB990996E71D68002D9AD1A6E710
:1079B000404601F005FF3FE72A4608230D494046AF
:1079C00001F020FFEBE706EA0701033104EB810138
:1079D0002A460823404601F015FFE0E7B9467AE75A
:1079E00054260020D4DB0200ACDB02009CCE020057
:1079F00098DB0200602600202DE9F04782B002AB40
:107A0000002403F8014DDFF8ECA007461846914624
:107A10008846DAF8084000F061FFDAE90132DAF866
:107A20000060134401339B1B022B5ED80AF21C45F5
:107A30000121284601F0BAF9FFF766FD0146284604
:107A400001F0B4F9DAE90132DAF800101344013335
:107A50005B1A022BECD90A400332033145239DF80F
:107A600007004AF82230CAF8001000F05DFFB31C8E
:107A700023400AEB830300211D48C3F80C9001F05A
:107A800073F980F31000731C23400AEB8303000496
:107A90003440033440EA1740D8601AF8243067F3C2
:107AA000C5030AF824303AF82430012161F3891320
:107AB0002AF824305AF8242068F39F22134661F3F1
:107AC00001036FF382034AF824200AF824309AF85D
:107AD00020341BB906E0FFF759FE18B1DAE900328D
:107AE0009A42F8D102B0BDE8F0873146B3E700BF53
:107AF000702A0020542600202DE9F04F83B002ADFB
:107B0000002405F8014D3B4C8046284693469A4692
:107B10008946A56800F0E2FED4E9013227681344E3
:107B20000133DB1B032B63D804F21C4601213046D2
:107B300001F03CF9FFF7E8FC0146304601F036F968
:107B4000D4E901322168134401335B1A032BEDD9C8
:107B50000A400332852344F8223004319DF807009F
:107B6000216000F0E1FEBA1CFB1C2A402B4004EB14
:107B7000820204EB830300211F48C2F80CB0C3F853
:107B80000CA001F0F1F880F310007B1C2B4004EBFB
:107B9000830300043D40033540EA1840D86014F8E0
:107BA000253068F3C50304F8253034F82530022267
:107BB00062F3891324F8253054F8252069F39F22B5
:107BC0001346012161F301036FF3820344F825207A
:107BD00004F8253094F820341BB906E0FFF7D6FDF1
:107BE00018B1D4E900329A42F8D103B0BDE8F08F61
:107BF0003946ADE754260020702A0020044BD3E913
:107C000000239A4201D0FFF7C1BD0020704700BF9A
:107C10005426002030B4184DD5F8104400215CB132
:107C2000E3681A798A4204D116E0DB681A798A423D
:107C300012D01B68002BF8D1C3681971D5F8103425
:107C400093B1DA68C36812681A60D5F81034DB683B
:107C5000186030BC0846704701310A29DFD14FF067
:107C6000FF31084630BC7047C5F81004C268136085
:107C7000084630BC704700BF5426002038B5094B79
:107C8000D3F81044012583F820544CB1E3685D71AA
:107C9000236820465B689847E3681C68002CF5D190
:107CA00038BD00BF542600202DE9F04784B01D46A2
:107CB0000C9C002394F80C802373EB8881460E46BD
:107CC0001746002B40D1297A05290ED06B7AA88857
:107CD00073BB404B53F821A00021FFF79DFC524697
:107CE00003463D49204601F0FDF8062F09D8DFE89C
:107CF00007F0046A4249525D33004946204601F0CC
:107D0000F1F82B7A052B05D06B7A5BB93349204605
:107D100001F0E8F8204601F0D9F884F80C8004B0AE
:107D2000BDE8F0872E4A2F49204601F0DBF8EDE749
:107D3000FFF79EFC2C4B2B4953F82020204601F0E6
:107D4000D1F8297AA888C4E7254A00922749284A09
:107D5000204601F0C7F8B6E7D6E90410D6E90023BB
:107D60000390D6E902070291CDE900074946204673
:107D700001F0B8F8C5E74946D6E90023204601F0EE
:107D8000B1F8BEE7B168D6E9002320460091494624
:107D900001F0A8F8B5E7D6E90201D6E90023019180
:107DA00000904946204601F09DF8AAE7D6E9037104
:107DB000B068D6E900230291CDE900074946204684
:107DC00001F090F89DE732684946204601F08AF8B4
:107DD00097E700BF28CF020018CF020024CF02008F
:107DE0000CCF020014CF0200B4CE0200F4CE020089
:107DF000ECCE0200082900D970472DE9F04F1D464E
:107E0000904600232A7B2B7385B0B8F80630039286
:107E100007460E46002B7BD198F80810052911D093
:107E200098F80930B8F80400002B63D13C4B53F8A4
:107E300021400021FFF7F0FB22460346394928463E
:107E400001F050F8DFF8FCB0DFF8FC90002405E00A
:107E50003A5D013401F046F8082C09D0A6424946A3
:107E60002846F5D85946013401F03CF8082CF5D1E4
:107E70002D49DFF8D8B0DFF8D890284601F032F865
:107E800000240CE017F804A0BAF17E0F23D92E22AB
:107E900049462846013401F025F8082C08D0A642AE
:107EA000F0D859462846013401F01CF8082CF6D1C8
:107EB00098F80830052B02D098F80930A3B91B496F
:107EC000284601F00FF8284601F000F8039B2B73B9
:107ED00005B0BDE8F08F04F065FF5044524643788A
:107EE00013F0970FD3D0D3E7114A1249284600F078
:107EF000F9FFE4E7FFF7BCFB0F4B0E4953F82020D6
:107F0000284600F0EFFF98F80810B8F804008DE755
:107F1000074A009209490A4A284600F0E3FF7BE736
:107F200028CF020018CF0200E4CE020024CF0200C6
:107F30000CCF020014CF0200B4CE0200F4CE020037
:107F4000ECCE0200E0CE0200D8CE020020CF02002C
:107F5000E8CE020070B51A4B1D789DB1194B1C6814
:107F60002378C0B2984210D004F10802002306E042
:107F700014F833108142164602F1080206D001338C
:107F80009D42F5D100231B78FFDE264602F000FA61
:107F90007378A3F10103B3FA83F35B09834200D042
:107FA00070BD094BD3E900231343F9D1074B0848AF
:107FB000196800224908BDE8704000F01DBC00BFF0
:107FC000102B0020602B0020382B0020142B0020C9
:107FD000182B00202DE9F04F9D4E337887B0002BF1
:107FE00000F030819B4F9C4DDFF8788200244FF0E9
:107FF0000109D7F800B01BF8340002F0C9F90BEB07
:10800000C4031BF834B05B784FEA5B0C1BF0010E25
:1080100015F80C10A3F10103B3FA83F314BF0A0996
:1080200001F00F025B09042A00F2D080DFE812F0B1
:108030009800D000690048000500834200F0E98004
:10804000BEF1000F0CBFF0230F233078194005F864
:108050000C10A8B1D7F800C09CF800305B4500F0C8
:10806000E7800CF10802002304E01CF833105945A6
:1080700000F0DF8001338342964602F10802F4D11A
:108080004FF000030DF117008DF817300023039314
:1080900000F024FCABF12002CBF1200329FA03F31A
:1080A00009FA02F21A4309FA0BF103920291D8E994
:1080B0000023DDE9020122EA000023EA01017DE05C
:1080C000834232780CD0BEF1000F0CBFF0230F2397
:1080D00003EA01030CBF04214021194305F80C10E9
:1080E0000134944285DBD8E90023134306D05B4B6F
:1080F0005B4819680022490800F07EFB07B0BDE824
:10810000F08F834276D1BEF1000F14BF0F23F0230E
:1081100003EA0103327814BF30210321194305F823
:108120000C10002ADFD0D7F800C09CF800305B4567
:1081300000F08B800CF108010023013393428E463E
:1081400001F10801CCD01CF833005845F5D1DEF818
:108150000430002BC4D05846012198473278BFE73D
:10816000834233D1BEF1000F0CBFF0230F2303EA8B
:1081700001030CBF0121102119434FF000030DF141
:1081800017008DF817300023019305F80C1000F04C
:10819000A5FBABF1200309FA03F301930198CBF19E
:1081A000200129FA01F1084309FA0BF1019000912D
:1081B000D8E90023DDE900011043194302460B46CC
:1081C0009DF81700C8E9002300F0AEFB327887E77E
:1081D000834213BF0023202302221A46BEF1000F60
:1081E00012BF0F20F020134601400B4305F80C305E
:1081F000327875E7BEF1000F0CBFF0230F2303EABE
:1082000001030CBF01211021194305F80C1032782D
:1082100066E7BEF1000F14BF0F23F02303EA01034A
:1082200014BF30210321194305F80C10327857E7A9
:10823000E646DEF80430002B3FF422AF002158461A
:1082400098471DE7DFF81C804DE7E6467FE700BF53
:10825000102B0020602B0020402B0020142B00202E
:10826000182B0020382B0020092A40D9F0B583B004
:108270000E460546144601F0DBFE002831D0204AA8
:108280002049214B15600E70202200211F481C60E0
:1082900004F0B3FD1E4B00200021741EC3E9000151
:1082A000E4B236B305EBC4041A4E083D032701E0DF
:1082B000A5421ED09DF8063020788DF8047003F09A
:1082C000FC036FF382038DF80630A3788DF8053038
:1082D000324601A901F0B6FE083C0028E8D003B000
:1082E000F0BD01F05BFE0028C9D003B0F0BD07204F
:1082F0007047094A0948002100F070FA03B0F0BD48
:10830000602B0020102B0020142B0020402B00207D
:10831000382B0020557F0200D57F020094CF020049
:1083200070B5084D2B785BB1074E002433680121EE
:1083300013F8340001F076FF2B780134A342F5D80E
:10834000002070BD102B0020602B002070B5114D57
:108350002B7882B053B1104E0024336813F83400E8
:1083600001F0DCFF2B780134A342F6D802A80023E9
:1083700000F8013D00F0B2FA084B9DF80700002418
:108380000025C3E9004500F0CFFA054800F084FA63
:1083900002B070BD102B0020602B0020382B002075
:1083A000182B002000B585B000230390194601AAC0
:1083B00044F20100CDE9013300F004F805B05DF8A6
:1083C00004FB00BF10B572B6FFF758FCFFF716FCB0
:1083D0000028FBD1104B114C1149E41AE408240485
:1083E00044F00100FFF75AF90E4B1B68DB0700D57C
:1083F00000BE44F002000C49FFF750F9BFF34F8F65
:108400000A490B4BCA6802F4E0621343CB60BFF326
:108410004F8F00BFFDE700BFACDB0200D4DB0200E2
:10842000A4CF0200F0ED00E0B0CF020000ED00E0CC
:108430000400FA05D0E90223D1E90201994208BFFC
:1084400090422CBF01200020704700BF2DE9F04F63
:1084500087B0039000F08CFB40B19B49D1E9002329
:1084600012F1807443F10005C1E900450021039831
:10847000964C00F099FB60B1236853B1944B25688A
:108480001B7823B11DB12B7F002B40F02D810023E1
:1084900023600121039800F087FB002840F0F3805F
:1084A00005A98C4800F004FC18B38B4E884F894D09
:1084B0000378012B00F0C680C0F0CC80022B0ED1D7
:1084C00030464FF0000801F07DFA30B180F81C8092
:1084D000304601F077FA0028F8D101233B7005A956
:1084E000284600F013FC05A9284600F0E1FB00280F
:1084F000DED1794E794FDFF8D09103E00D2855D0C9
:1085000000232360304601F063FA2368002800F05E
:10851000B48063B12368D0E90201D3E90223994210
:1085200008BF90423BD223681B7F002B7FD130468F
:1085300001F048FA0546D5E902233846CDE9002383
:1085400000F044FBD9E90023DFF8948112EB000A24
:1085500043F1000BD8E900239B4508BF924503D2A5
:108560001AF1807A4BF1000BDDE90001B0EB0A0053
:1085700061EB0B01012871F1000313DBDFF864A14B
:10858000504559D8AA684FF496030021384600F0A8
:1085900069FA0028B2D12368002B67D0256007B0A4
:1085A000BDE8F08F0021384600F0F2FA484B1B7806
:1085B000002BA5D02B7F002BA2D0384600F006FB65
:1085C000D8E90023D9E900ABCDE900231AEB00027A
:1085D0004BF1000310461946DDE90023994208BF1C
:1085E000904203D210F1807041F10001D5E90223DD
:1085F000994208BF904261D32B6903B92B77D5E923
:1086000005309847296900293FF47AAF2B7F002B6A
:108610003FF476AFD5E9022312EB010A43F1000BD8
:10862000C5E902AB2946304601F0B8F968E7216890
:10863000304601F0B3F97AE7384600F0C7FA00EBAC
:108640000A02A0E741682368994213D0304601F03E
:10865000C3F944E743681A7F002A7FF440AF012240
:108660001A774168304601F099F938E7039800F02D
:10867000CBF993E70023236031E7002B8FD10398D8
:1086800000F0C6F98BE71548DFF8548000F09EFA39
:108690000D4BD3E90067D8E9002316EB000947F139
:1086A000000A9A4508BF91454846514603D219F140
:1086B00080704AF10001C8E90001F1E62946304620
:1086C00001F06CF91CE700BF682B0020E82B0020AC
:1086D000702B0020CC2B0020C4CF02001C230020D4
:1086E000E02B0020FFFFB4001D4800F06FFA1D4A88
:1086F0001D4BD2E90067D3E9002316EB000847F1D0
:108700000009994508BF90454046494603D218F1F3
:10871000807049F10001D5E90223994208BF9042D7
:1087200019D32B6903B92B77D5E905309847296907
:1087300000293FF4ACAE2B7F002B3FF4A8AED5E967
:108740000223561843F10007C5E902672946074886
:1087500001F024F99BE62946044801F01FF996E64A
:108760001C230020682B0020E02B0020C4CF020037
:1087700010B5134B13491B68134882B0582201935C
:10878000082300F041FA044610B1204602B010BDA3
:108790000E4A0F4801A900F0DFF804460028F4D182
:1087A00001210B4800F0DAF901231946094A08486B
:1087B00000F032F9084B012220461A7002B010BDB9
:1087C000C0CF0200742B0020CC2B00204D8402006F
:1087D0001C230020FFFF7F00702B00204AB1A1F175
:1087E00001010368B1FA81F14909C3E904120020CB
:1087F00070470720704700BF037F0BB10020704710
:108800002DE9F048826182B004461F480D4600F011
:10881000DDF91E4B1E49D3E90023D1E9006712EBB5
:10882000000B43F1000CBC4508BFB34503D21BF15C
:10883000807B4CF1000C1BEB050221694CF100031D
:10884000C4E9022379B901A9124800F0F5F988B109
:1088500000254460057001A90E4800F019FA68B9B6
:1088600002B0BDE8F088256101A90A4800F0E4F9EA
:108870000028EDD1042002B0BDE8F088024800F0E5
:10888000A9F92846ECE700BF1C230020682B002034
:10889000E02B0020CC2B002030B5002583B004460F
:1088A000057701A90B4800F0C7F978B101234460AE
:1088B000037001A9074800F0EBF908B903B030BD17
:1088C000054800F087F9284603B030BD042003B006
:1088D00030BD00BFCC2B00201C23002070B4EFF370
:1088E000108472B60D4B9A68AAB90D490D4E012538
:1088F0009D60D1F8805035401D60C1F88060D1F88E
:1089000084505D604FF0FF33C1F88430027004B9C9
:1089100062B670BC704701230370F8E7482E002050
:1089200000E100E0FC06FFBD094B9A687AB170B91E
:1089300010B4EFF3108172B6064A1C6814605C68CC
:108940005460986001B962B65DF8044B7047704797
:10895000482E002000E100E0F8B5234E4579234C75
:10896000234F0346234847F82520801B04EBC50608
:10897000C0083679000486BB1A680D88C2F808550D
:1089800093F904208978002A1FDB02F1604202F586
:1089900061424901C9B282F8001393F90420164FCD
:1089A0001649012602F01F05520906FA05F547F897
:1089B00022505A7904EBC20540F003002E7144F8AE
:1089C0003230FEF76BFE0020F8BD0D4D02F00F02B5
:1089D00049011544C9B22976DFE740F00200094990
:1089E000FEF75CFE0820F8BDACDB0200EC2B00209B
:1089F000F42B0020E4DB020000E100E00CD00200D8
:108A0000FCEC00E0E8CF0200036801221A60704726
:108A1000036801225A607047F0B404684FF480354F
:108A20008D40C4F8085306688C00C6F8485304F516
:108A3000A0740668A4B20027375182B03659046882
:108A4000019601F5A87122F07F42019E44F8212091
:108A50000268C2F8445313B10368C3F8045302B068
:108A6000F0BC70472DE9F04788464FF48037016825
:108A700007FA08F7C1F848730168C1F80873064699
:108A800000684FEA88040119D0F80455D1F8400570
:108A9000C1F8405504F5A074A4B231684FF0000944
:108AA00041F8049082B0401B0959009120F07F40AA
:108AB00001289A4622F07F45009B0BD1264B4FF4AC
:108AC000806043F001039847336843F804901B59D2
:108AD0000193019B3368D3F80445C3F844732B1BFF
:108AE00023F07F43012B08F5A87817D130681A4B83
:108AF000013540F8285043F001034FF48060984757
:108B00003268D2F804359C4222D1C2F844733368EB
:108B10000020C3F8047302B0BDE8F087336843F85F
:108B200028503268D2F804156B1ACAF1FF1A013BBB
:108B30000AF57F4A23F07F439A4509D3002BE4D1FD
:108B4000013542F828503268D2F804359942DCD019
:108B50000D2002B0BDE8F087E0CF020002680223DA
:108B6000C2F8443311B10268C2F80433704700BF41
:108B70000368D3F8040150B1002282B0C3F8042185
:108B8000D3F804310193019B012002B07047704774
:108B90004FF48033026803FA01F1C2F84813036806
:108BA000C3F80813704700BF890001F5A07189B2AE
:108BB0000368585840B100225A5082B05B58019364
:108BC000019B012002B07047704700BF0368D3F8D3
:108BD0000405704790F9043005485A09403203F003
:108BE0001F03012101FA03F340F82230704700BF50
:108BF00000E100E0024A034B10681B68184700BF01
:108C0000EC2B0020F42B002099B110B4B2FBF3F44C
:108C100003FB1424A4B244B9C0E900148460828127
:108C2000C38120465DF8044B704709205DF8044B72
:108C300070470E20704700BF30B482B050E8013F4B
:108C40009DB2C48925448489A54228BF2D1B04896F
:108C5000A54202BFBFF32F8F002207E0C5EA03053C
:108C600040E80154002CE9D14FF001028DF80320B7
:108C70000193019B9DF803200B602AB10B880068CB
:108C8000184402B030BC704702F0FF031846F8E702
:108C90000A884B889A4201D00020704750E8012F83
:108CA000C2EA024240E80123002BF7D101207047BD
:108CB00030B482B050E8023F1FFAA3F5C488A54241
:108CC00002BFBFF32F8F00220DE0C48925448489A1
:108CD000A54228BF2D1BC3EA054540E80254002CDD
:108CE000E8D14FF001028DF803200193019B9DF81C
:108CF00003200B602AB14B880068184402B030BCD6
:108D0000704702F0FF031846F8E700BF0A884B8857
:108D10009A4201D00020704750E8022FC2EA224256
:108D200040E80223002BF7D10120704701F01F0219
:108D30004B09012100EB8300914000F01FB800BFF8
:108D400001F01F0201234909934000EB8100D94340
:108D500000F020B84B0901F01F0150F82300C84073
:108D600000F00100704700BF50E8002F0B4640E8BC
:108D7000003C9CF0000FF7D11046704750E8003FD0
:108D800043EA010240E8002C9CF0000FF6D11046A7
:108D9000704700BF50E8003F03EA010240E8002CA2
:108DA0009CF0000FF6D11046704700BF50E8003F1E
:108DB00003EB010240E8002C9CF0000FF6D11046B6
:108DC000704700BF50E8003FA3EB010240E8002CD1
:108DD0009CF0000FF6D11046704700BF012350E809
:108DE000002F42EA030C40E800C191F0000FF6D1D9
:108DF00060467047002350E800CF0CEA030240E8C9
:108E0000002191F0000FF6D160467047B8B130B440
:108E1000D0E90112521A0468D2B2531E2160DBB2AB
:108E200042B101680A685C1E551C0D601370E3B204
:108E3000FF2BF6D103680020187130BC70470E205C
:108E4000704700BFF0B583B002AB002503F8015DA9
:108E500004461846FFF742FDD4E900311A688A42F9
:108E600010D9511E19602168A3680F6812F8015CBF
:108E70000A79268AE068DB1BDBB29A4206FB05050D
:108E800038BF0B719DF80700FFF74EFD284603B071
:108E9000F0BD00BF30B583B002AB002203F8012D56
:108EA000054618460C46FFF719FD2A681368591C39
:108EB0001160E9682A8A641AB4FBF2F41C709DF808
:108EC0000700FFF731FD03B030BD00BF826842B13B
:108ED00010B5044643690168006998470023A36000
:108EE00010BD70470EB400B582B0039929B102AA33
:108EF00004AB42F8043D00F0A9F802B05DF804EBC1
:108F000003B070472DE9F04F924683B051450F46AC
:108F100005461E46DDE90CB2C0F092800B464FF0CC
:108F20000108B3FBFAF39A4508F10108F9D9B045F5
:108F300038BFB04612F00109A96802D1BBF1000F99
:108F400054D1012402E0013E0AFB04F4012EFAD8B8
:108F5000B7FBF4F08245F7D93B4E02E0A968B7FBB6
:108F6000F4F0335C2A680A2B04FB107702EB010E45
:108F700001F1010029D0A8608EF80030D5E9013157
:108F8000994202D32846FFF7A1FFB4FBFAF4002C64
:108F9000E4D1B9F1000F15D0BBF1000F12D0C345D9
:108FA00010D92024AB682A68591CA960D454D5E98B
:108FB00001329A420BF1FF3B14D2BBF1000F01D0FA
:108FC000C345EFD103B0BDE8F08FA8604FF00D00AE
:108FD0005054D5E9011088421DD2296801EB000EDA
:108FE0000130C8E72846FFF771FFE6E7930722D470
:108FF0002024C345A5D92B684A1CAA605C54D5E936
:10900000013199420BF1FF3B10D2BBF1000F98D018
:10901000C345F0D195E728460193FFF757FFAA68AB
:109020002968019B501C01EB020EA4E72846FFF7BC
:109030004DFFA968E9E7002E0CBF30242024D8E7B3
:109040004FF0010873E700BF20D00200002900F0B4
:10905000B9822DE9F04F054687B091460C460E784F
:10906000DFF8C8A64FF00D0B13E0AB6828680A2E96
:1090700003F1010200EB030100F04B82AA600E70C5
:10908000D5E901329A4280F01B812678002E00F04B
:109090001E810134002E00F01A81252EE5D12346D1
:1090A000002713F8012B2D2A00F0E380302A00F06E
:1090B000E4802B2A00F0D4802A2A00F00D81A2F14E
:1090C0003006F1B2092903D97DE2A1F13006034649
:1090D000184606EB860110F8012BA2F13004092C8A
:1090E00002EB4101F1D92E2A00F002814FF0000875
:1090F000013301E013F8012B02F0FB0168291C4643
:10910000F8D0253A532AC0D801A353F822F000BF63
:10911000FB9402008B9002008B9002008B90020067
:109120008B9002008B9002008B9002008B900200CB
:109130008B9002008B9002008B9002008B900200BB
:109140008B9002008B9002008B9002008B900200AB
:109150008B9002008B9002008B9002008B9002009B
:109160008B9002008B9002008B9002008B9002008B
:109170008B9002008B9002008B9002008B9002007B
:109180008B9002008B9002008B9002008B9002006B
:109190008B9002008B9002008B9002008B9002005B
:1091A0008B9002008B9002008B9002008B9002004B
:1091B0008B9002008B9002008B9002008B9002003B
:1091C0008B9002008B9002008B9002008B9002002B
:1091D0008B9002008B9002008B900200DF940200C3
:1091E0008B9002008B9002008B9002008B9002000B
:1091F0008B9002008B9002008B9002008B900200FB
:109200008B9002008B900200839202006594020012
:109210008B9002008B9002008B9002008B900200DA
:10922000659402008B9002008B9002008B900200EC
:109230008B9002008B9002008B900200CD93020075
:109240008B9002008B900200459302008B900200ED
:10925000299302008B9002008B900200DF940200A1
:1092600047F004071C46234613F8012B2D2A7FF4F0
:109270001DAF47F001071C46F5E747F002071C4603
:10928000F1E7D9F800301A1DC9F800201E78AB6844
:109290000A2E0CD12A68591CA96002F803B0D5E93E
:1092A0000123934203D32846FFF710FEAB682A68D8
:1092B000591CA960D654D5E901329A42FFF4E5AEB3
:1092C0002846FFF703FE2678002E7FF4E2AE2B7BC4
:1092D00023BB07B0BDE8F08FD9F80020111DC9F8F5
:1092E0000010166862782E2A04F102007FF4FEAEA8
:1092F0005A78A2F13003092B00F2BD814FF000082B
:1093000008EB880802EB480810F8012FA2F130039F
:10931000092BA8F13008F3D90346E9E6284607B03F
:10932000BDE8F04FFFF7D2BDD9F800301A1DC9F8DB
:10933000002019680197434600960A222846FFF745
:10934000E1FDA2E6D9F800301A1DC9F80020D3F8D3
:109350000080FB0700F1E880B8F1000F00F0A18168
:10936000404603F052FD0746BE4215D9A6B1202162
:1093700000E08EB1AA682B68501CA8609954D5E90A
:1093800001329A4206F1FF3604D328460391FFF7D3
:109390009DFD0399BE42ECD108F1FF3818F8016F2A
:1093A000002E3FF472AEAB6828680A2E03F101026A
:1093B00000EB030100F09081AA600E70D5E9013244
:1093C0009A42EBD32846FFF781FDE7E7D9F8002062
:1093D000131DC9F80030AB6829681768581C302283
:1093E000A860CA54D5E90123934280F0E6802A6838
:1093F000581C7821A860D154D5E90123934280F00C
:10940000D7800F2F03D93A4612090F2AFCD84FF004
:1094100080560DE0AA6081F80080D5E901329A42B9
:1094200002D32846FFF752FD36093FF42EAEAB6853
:10943000B7FBF6F21AF802802868B8F10A0F06FBAB
:10944000127700EB030103F10102E3D1AA6000F8F7
:1094500003B0D5E901329A4280F049812B6899180E
:109460000132D7E7D9F800301A1DC9F80020196871
:1094700081EAE173A3EBE173092B40F30E81AA4863
:109480000122A0FB03C3DB08092B02F10102F8DC77
:109490004245134638BF4346039307F00203002EAC
:1094A00040F09580002B00F0B780B8F1000F00F07D
:1094B000F680F80740F1B0800029C0F2FF807A07FB
:1094C00000F1C88007F00303022B00F0A780CDE96C
:1094D000006743460A222846FFF714FDD5E5D9F870
:1094E00000301A1DC9F800201968019743460096FC
:1094F00010222846FFF706FDC7E5AB682A68581C0E
:109500002521A860D154D5E901329A42FFF4BDADBE
:10951000D6E6AA6000F803B0D5E901329A423FD2FC
:10952000296811440132A9E54146A1EB080311F86D
:10953000017BD7B1AB68D5F800C00A2F03F1010257
:109540000CEB030000F0AF80AA600770D5E9013290
:109550009A42EAD328460391FFF7B8FC0399A1EB9E
:10956000080311F8017B002FE4D19E427FF68DADF8
:10957000202702E0002E3FF488ADA9682A68481C25
:10958000A8605754D5E90121914206F1FF3604D372
:1095900028460393FFF79AFC039BB342EAD174E594
:1095A0002846FFF793FCAB6829685A1C194465E507
:1095B0002846FFF78BFCAB6823E72846FFF786FCBD
:1095C000AB6814E770471846002623468BE5002950
:1095D00020DB7A071ED41BB1B8F1000F3FF46CAF4B
:1095E000F8073FF569AFBEB1039BB342BFF464AF68
:1095F0002023AA68501CA86028688354D5E901027A
:10960000824206F1FF3640D236B1039AB242F0D11F
:10961000164651E7013EDEE700264DE7B8F1000FA0
:109620007FF455AF002E6AD0039BB342BFF44FAF17
:109630003023AA68501CA86028688354D5E9010229
:10964000824206F1FF3618D2002E58D0039AB24259
:10965000EFD13CE7AA68531CAB602B682B209854D1
:10966000D5E901329A42FFF42DAF28460491FFF765
:109670002DFC049926E7034638E52846CDE9041376
:10968000FFF724FCDDE90413DEE72846CDE90413E7
:10969000FFF71CFCDDE90413B6E70122F8E64646B5
:1096A0000AE7474660E6AA600CF803B0D5E9013244
:1096B0009A4226D22B689818013245E7AA68531CB3
:1096C000AB602B682D209854D5E901329A42C1F144
:1096D0000001FFF4F7AEC8E7AA6000F803B0D5E9CF
:1096E00001329A4217D229681144013264E62846B1
:1096F000FFF7ECFBA9682B684A1C19448AE6002690
:10970000E5E628460391FFF7E1FBA8682B6803997B
:10971000421C184418E72846FFF7D8FBAB682968B5
:109720005A1C194448E600BFCDCCCCCC20D0020056
:10973000FFF76CBB2DE9F041058ACE1C043D2E4499
:109740000746B6FBF5F6FFF77DFB78B3F6B24FF4AC
:109750008073013E0446C5800760838027D0804621
:10976000002509E06379AE4203F101036371C8F893
:109770000000076080461AD03846FFF763FB0135CA
:109780000028EFD16679721E14D023460130824240
:109790001B68FBD11F684EB10025236821460135A7
:1097A00038461C46FFF776FBAE42F6D10024204631
:1097B000BDE8F0812768EFE704300121FFF7F6BA32
:1097C000F8B5012104460430FFF7FCFAC0B200B13D
:1097D000F8BD6679721E12D02346013082421B68A2
:1097E000FBD11F68002EF3D00025236821460135E8
:1097F00038461C46FFF74EFBAE42F6D1F8BD27684F
:10980000F2E700BF2DE9F843C788467907FB06F663
:10981000043E02EB030C0446664503F104001546C2
:109820008846B0FBF7F238BFF51A07FB120012B1F9
:10983000013A2468FCD13E1AAE4228BF2E469DB1A3
:109840004FF000090430AD1B2044324608EB0901FB
:1098500003F0C8FAAF42B14424683E464FF000001E
:1098600028BF2E46002DEDD1BDE8F8832DE9F84341
:10987000C7884679154607FB06F6043E05EB030C40
:109880001A1D664504468846B2FBF7F038BFF51A44
:1098900007FB102110B101382468FCD17E1AAE42BA
:1098A00028BF2E469DB14FF0000904312144AD1B65
:1098B000324608EB090003F095FAAF42B144246840
:1098C0003E464FF0000128BF2E46002DEDD1BDE8E9
:1098D000F88300BF41DF7047064A074B10B50024EC
:1098E00014701C60BFF35F8F0449054800F040F816
:1098F000204610BD002C0020042C002030D0020097
:10990000F82B002000B583B002A8002300F8013D29
:10991000FEF7E4FFF1EE103A23F09F03E1EE103A78
:10992000BFF35F8F0A4B4022C3F884219DF80700E4
:10993000FEF7FAFF03F07EF828B920BF40BF20BF32
:1099400003B05DF804FBFFF7C5FF03B05DF804FB4F
:1099500000E100E0826800239360826813618268FE
:1099600053618268D3608268536082681360704775
:1099700001600B6843604A68934204BF0023436060
:10998000704700BF436843B1026891680B4443606D
:109990005268934204BF00234360704770B5446827
:1099A000064620680D4618B908E02468206828B1EA
:1099B000B368294698470028F7D1206828602560B9
:1099C00070BD00BF4368186808B102681A6070472C
:1099D00043681868704700BF4068036873B18B42E2
:1099E00003D107E0814204D0034618680028F9D16A
:1099F000704718460B68036001207047184670478F
:109A000030B4184DA5F59472AB1ADB1003EBD37389
:109A10005B1002EBC30152F83330984228BF0C466A
:109A200005D311E052F8333098420CD221468B1AFC
:109A3000DB1003EBD3735B108A4202EBC304F1D358
:109A4000094830BC70470D46984204D904F1080219
:109A5000AA42D9D3F4E76068034B002808BF184630
:109A6000EFE700BF90D1020054D0020010B44FF0D5
:109A700080414FF080520020C1F80C015E4BC1F8CC
:109A80001001C1F83805D2F80414C3F82015D2F833
:109A90000814C3F82415D2F80C14C3F82815D2F80A
:109AA0001014C3F82C15D2F81414C3F83015D2F8DA
:109AB0001814C3F83415D2F81C14C3F84015D2F8A2
:109AC0002014C3F84415D2F82414C3F84815D2F86A
:109AD0002814C3F84C15D2F82C14C3F85015D2F83A
:109AE0003014C3F85415D2F83414C3F86015D2F802
:109AF0003814C3F86415D2F83C04C3F86805D2F8EA
:109B000040043E49C3F86C050968D2F84424C3F800
:109B10007025082924D04FF08043D3F80024D207C1
:109B200044BF6FF00102C3F80024354AD2F88830F0
:109B300043F47003C2F88830BFF34F8FBFF36F8FC9
:109B40004FF01023D3F80022002A23DBD3F804328D
:109B5000002B1FDB2B4B2C4A1A605DF8044B70471F
:109B60002A4B1B68002BD6D129482A4A2A4C04606C
:109B70002A492B4BFB20C2F818050A681B682948A4
:109B800022F00F0203F00F0313434FF400720B6037
:109B90000260C0E7244B0122C3F80425D3F8002457
:109BA000002AFBD04FF0102312221F49C3F80022D5
:109BB000D1F80034002BFBD04FF0102212211A4BA9
:109BC000C2F80412D3F80024002AFBD00022164960
:109BD000C3F80425D1F80034002BFBD0BFF34F8F1E
:109BE0000749124BCA6802F4E0621343CB60BFF32B
:109BF0004F8F00BFFDE700BF00C0004030010010E4
:109C000000ED00E0242300200090D0033401001078
:109C10008C56004000F0004048810300E40E0040F4
:109C2000580200104096024000E001400400FA058E
:109C3000074B1B5C1F2B86BF03F01F0305494FF02A
:109C4000A041012202FA03F3C1F80C35704700BFAE
:109C50007CD5020000030050074B1B5C1F2B86BF06
:109C600003F01F0305494FF0A041012202FA03F35C
:109C7000C1F80835704700BF7CD5020000030050D2
:109C8000C10707D4830742BF4FF0A0430C22C3F89B
:109C90004C2770474FF0A0431149032270B4C1F81C
:109CA0001C278026C3F874274FF00055C3F8782787
:109CB0004FF08044C3F87C274FF00042C1F808659C
:109CC000C3F80855C3F80845C3F80825820704D52A
:109CD0004FF0A0430C22C3F84C2770BC704700BF64
:109CE0000003005010B570B101280BD10D4C236951
:109CF000A0703BB1D3E9002301202261984723697A
:109D0000002BF7D110BD074CA36801226270002B15
:109D1000F8D0D3E900230020A2609847A368002B65
:109D2000F7D1EFE7082C002070B910B5074CA368F5
:109D3000012262703BB1D3E900230020A260984762
:109D4000A368002BF7D110BD704700BF082C00207E
:109D500030B5012883B01CD015D3032811D100F0F1
:109D6000CDF802A800231F4C00F8013DFEF7B6FD18
:109D7000E368013BE360E56865B39DF80700FEF723
:109D8000D3FD03B030BD184B0122C3F8802003B0CF
:109D900030BD02A80023134C00F8013DFEF79EFDE4
:109DA000237853B1E3689DF8070001330122E36093
:109DB000A270FEF7B9FD03B030BD0C486360A3602C
:109DC0002361E36000F08CF802F034FE30B101232F
:109DD0002370E7E700F0A4F8A570CEE700F08EF856
:109DE000F5E700BF082C002000E100E0E59C020040
:109DF00030B585B0047845688DF80040D0E9024060
:109E0000064A074B039053F8213001958DF808401E
:109E100052F821106846984705B030BD1C2C002030
:109E2000242C002030B585B0047845688DF80040BA
:109E3000D0E90240064A074B039053F821300195C0
:109E40008DF8084052F821106846984705B030BD9B
:109E50001C2C0020242C00202DE9F043DFF8748016
:109E600006784B7F08F806300D46074696460FCD1C
:109E700089B06C460FC495E80F003D78DFF8589024
:109E8000DFF858C018F8055049F826E084E80F00BC
:109E90004CF82600049665B1BEF1000F0B4A6946E6
:109EA00007F1040008BF002201F0CEF809B0BDE8B8
:109EB000F083BEF1000F064A694607F10C0008BFA7
:109EC000002200F041FE09B0BDE8F083F19D0200E0
:109ED000259E0200542E0020242C00201C2C002043
:109EE000054A13792BB9012110605371184611717D
:109EF00070478520704700BF2C2C0020074B1A6844
:109F0000D20704D4C021012283F800131A604FF055
:109F100080430122C3F81825704700BF00E100E02C
:109F2000044B01221A604FF08042D2F81834DB0350
:109F3000FBD470470C00004010B5154B1A6882B076
:109F40007AB10021134A19601B68507900934FF0D1
:109F500080410123009CC1F8083310B91168537186
:109F600088470D4B1A6882B100221A601B68019362
:109F70004FF080420221074B0198C2F808131B687A
:109F8000012002B0BDE81040184702B010BD00BF6C
:109F9000000100402C2C00200401004030B5204C72
:109FA00094F86A5083B0002D36D14FF0FF33294624
:109FB000062204F16400C4E90033C4E90233C4E9B1
:109FC0000433C4E90633C4E90833C4E90A33C4E9F5
:109FD0000C33C4E90E33C4E91033C4E91233C4E9C5
:109FE0001433C4E91633236602F007FF0D4A0E4B03
:109FF0000E491D60C02082F80603402010601B68D7
:10A00000019301984FF000430122284684F86A200A
:10A01000C1F8043303B030BD082003B030BD00BF29
:10A02000342C002000E100E07C6100400060004032
:10A03000034B93F86A00003018BF0120704700BF3F
:10A04000342C0020F0B5744B1C1894F93050002DBE
:10A050006ADA8E78C6F340069646002E5ED11D6AF7
:10A06000013500F0C48009240C2553F82470013711
:10A070005DD004F1010C53F82C70013700F0C28060
:10A08000A71CAF4248D253F82720013200F0BC8011
:10A0900004F1030CAC453FD253F82C70013700F0AB
:10A0A000B18004F1040CAC4536D253F82C70013762
:10A0B00000F0A88004F1050CAC452DD253F82C70AB
:10A0C000013700F09F8004F1060CAC4524D253F810
:10A0D0002C70013700F0968004F1070CAC451BD2C0
:10A0E00053F82C70013700F08D8004F1080CAC455A
:10A0F00012D253F82C70013700F0848004F1090C5F
:10A10000AC4509D253F82C7001377BD00A34AC42ED
:10A1100002D2DC6A013409D00420F0BD1D6801358B
:10A1200074D001240825A0E70820F0BD0B241F18D7
:10A1300065B243F824E087F83050002E5ED08A786C
:10A1400054071AD4D60741D41F284A7887BF334E04
:10A1500000F01F0404464FF0A04604F5E07492009E
:10A1600046F824202E4EC40800F0070C375D01226B
:10A1700002FA0CF23A4332558A780C7812F0020255
:10A1800009D1083D2B44104693F8602042EA84141C
:10A1900083F86040F0BDAB0003F1804303F5C0439A
:10A1A0000202D3F8101521F44F3121F44071C3F8A5
:10A1B00010152404D3F8101504F4403402F47C5232
:10A1C00022430A43C3F810250020F0BD1F2887BF93
:10A1D000124A00F01F0404464FF0A04202EB840232
:10A1E000D2F8004724F00204C2F80047BAE7082674
:10A1F00084F83060C3F820E0354634461C4484F8C7
:10A2000058009CE7644692E73C4690E700251A60B8
:10A2100084F8305093E700BF342C00200003005036
:10A22000982C002070B43A4D2E1883B096F9303037
:10A23000072B20DD2B4493F858309B09032B45D086
:10A24000012B14BF4FF440314FF400311F284DD97A
:10A2500000F01F002F4B03EB8000D0F8002722F402
:10A260004032C0F80027D0F800370B43C0F8003761
:10A2700003B070BC7047DAB2072AF9D8980000F131
:10A28000804000F5C04003F14002D0F81045920034
:10A2900092B244F0010402F18042C0F8104502F588
:10A2A000C04200200190019C10600029E0D096F986
:10A2B000302055F82220002ADAD00122164902FA6D
:10A2C00003F3C1F8043303B070BC70471F2810D9E2
:10A2D000104BD3F8103500F01F00C34013F0010FEE
:10A2E0000CBF4FF400314FF44031B3E74FF0A043BF
:10A2F000B1E74FF0A0421346D2F81025C24012F049
:10A30000010F14BF4FF440314FF40031A3E700BFF9
:10A31000342C00200003005000600040194B03441F
:10A3200093F93030072B13DD1F288ABF164B4FF0EF
:10A33000A04300F01F0003EB8000D0F8003723F4A7
:10A340004033C0F80037D0F80037C0F80037704706
:10A35000DAB2072A14D810B49A0002F1804202F54A
:10A36000C0420A4CD2F81005012120F0010001FA88
:10A3700003F3C2F81005C4F808335DF8044B7047C6
:10A38000704700BF342C00200003005000600040E4
:10A390001F288ABF054B4FF0A04300F01F00D3F8E1
:10A3A000103523FA00F000F0010070470003005060
:10A3B0002DE9F047002388B0CDE90233CE4A166874
:10A3C000012E00F03B821E46CC4B1A68012A00F099
:10A3D0002782CB4B1A68012A00F01482C94B1A68F5
:10A3E000012A00F00182C84B1A68012A00F0EE81B0
:10A3F000C64B1A68012A00F0DB81C54B1A68012A96
:10A4000000F0C881C34B1A68012A00F0B581C24B25
:10A410001A68012A0FD100221A601B6801934FF0BD
:10A42000A042019BD2F81025BC4B0292D3F8103504
:10A43000039346F0004616F0FF0F1AD0B84F0024E1
:10A440000125A30003F180432E4203F5C0434FEAE8
:10A4500045050BD0D3F8100557F82420D3F8101574
:10A46000C0F30520C1F3014102B190470134082C2B
:10A47000E7D1002E02DB08B0BDE8F087A84CA74F5B
:10A480004FF0FF33CDE9063394F960300DF1100839
:10A4900000225D1CC8F8042004924FF0010600F071
:10A4A000F4805FFA83FC2CF0C00008AB4FEAD009BF
:10A4B00003EB090E0CF007031EF8082C06FA03F351
:10A4C00012EA030521D022184FEA9C1192F930209C
:10A4D00054F82220002A00F02981032900F0288165
:10A4E0001F2800F2F98005464FF0A04C0CEB850CBC
:10A4F0001EF8185CDCF800E71D40CEF3014E40F07A
:10A50000DF80BEF1030F00F0BF8194F96130581C69
:10A5100032D0DBB223F0C00008AA4FEAD00E02EB23
:10A520000E0C03F007011CF8082C06FA01F912EAD8
:10A53000090F21D02218990992F9302054F82220CD
:10A54000002A00F0FB80032900F0FB801F2800F2A6
:10A55000E98003464FF0A04E0EEB83031CF818EC85
:10A56000D3F800C71EEA090FCCF3014C40F0B880C5
:10A57000BCF1030F00F0AE8194F96230591C30D069
:10A58000DBB223F0C00008AA4FEAD00E02EB0E0C9B
:10A5900003F007011CF8082C06FA01F912EA090F6A
:10A5A0001FD02218990992F9302054F82220002A4D
:10A5B00000F0D880032900F0D8801F287CD80346FB
:10A5C0004FF0A04E0EEB83031CF818ECD3F800C735
:10A5D0001EEA090FCCF3014C64D1BCF1030F00F06B
:10A5E000658194F963305A1C34D0DBB223F0C0008B
:10A5F00008AA4FEAD00E02EB0E0C03F007021CF87B
:10A60000081C06FA02F2114224D004EB0009990951
:10A6100099F9309054F82990B9F1000F00F0988022
:10A62000032900F098801F288BBFBE464FF0A04E34
:10A6300003F01F0303460EEB83031CF818ECD3F85A
:10A6400000C71EEA020FCCF3014C20D1BCF1030F6E
:10A6500000F00181002D3FF40EAF4FF0A0430299AE
:10A66000D3F81035D7F81025994203D103999142B8
:10A670003FF401AFDDE90401CDE9023294F9603025
:10A680005D1CCDE906017FF40CAF00253DE7BCF170
:10A69000020FDFD1032900F03481B9F1000F40F03F
:10A6A000F180D7E7BCF1020F9BD1032900F026818E
:10A6B000002A96D0904794E703F01F03BE4681E737
:10A6C000BEF1020FE1D1032900F021810025002A0B
:10A6D0003FF41BAF904718E70CF01F05BC4605E799
:10A6E000BCF1020F7FF448AF032900F00D81002A6E
:10A6F0003FF442AF90473FE70061004004610040F3
:10A70000086100400C61004010610040146100408D
:10A71000186100401C6100407C6100400003005053
:10A72000342C002003F01F03BE4615E70329ACD1EB
:10A7300018F809501D4308F80950D1E603297FF4A1
:10A740001BAF18F80EA04AEA090A08F80EA0FDE6A9
:10A7500003297FF47FAF18F80EA04AEA020A08F82E
:10A760000EA060E703297FF43CAF18F80EA04AEA78
:10A77000090A08F80EA020E7664AD2F80423170653
:10A780007FF545AE00221A601B680093009B46F0DF
:10A7900080063CE65F4AD2F8042352067FF532AECB
:10A7A00000221A601B680093009B46F0400629E6D1
:10A7B000584AD2F8042391067FF51FAE00221A6092
:10A7C0001B680093009B46F0200616E6514AD2F81B
:10A7D0000423D0067FF50CAE00221A601B6800939C
:10A7E000009B46F0100603E64A4AD2F804231407F9
:10A7F0007FF5F9AD00221A601B680093009B46F0BC
:10A800000806F0E5434AD2F8042355077FF5E6AD84
:10A8100000221A601B680093009B46F00406DDE5E9
:10A820003C4AD2F8042397077FF5D3AD00221A6083
:10A830001B680093009B46F00206CAE53549D1F833
:10A84000041311F0010104D0136013680093009BFE
:10A85000BAE50E46B8E503297FF41FAF4FF4003C7C
:10A86000D3F8002722F44032C3F80027D3F800279A
:10A87000013542EA0C02EDB2C3F80027B9F1000F2E
:10A880003FF4EBAEC847E5E603297FF420AF4FF471
:10A890000035DCF8003723F44033CCF80037DCF81F
:10A8A00000372B43CCF80037012510E703297FF44C
:10A8B000FFAE4FF4003ED3F800C72CF4403CC3F881
:10A8C00000C7D3F800C701354EEA0C0CEDB2C3F84F
:10A8D00000C7EDE603297FF40AAF4FF4003ED3F83A
:10A8E00000C72CF4403CC3F800C7D3F800C70135BB
:10A8F0004EEA0C0CEDB2C3F800C7F8E64FF4403E48
:10A90000D9E74FF4403CABE74FF4403EE7E74FF464
:10A910004035BEE700600040014B1B68184700BF90
:10A92000A02C0020104B984201D00020704730B579
:10A9300083B002A8002300F8013D0D46FDF7CEFFCD
:10A940000A4B1C7934B19DF80700FDF7EDFF11208B
:10A9500003B030BD01229DF807001D601A71FDF79C
:10A96000E3FF2046F4E700BF00200040A02C0020B9
:10A97000034B984203D1034B00221A601A717047AF
:10A9800000200040A02C002030B56D4AD2F80433DE
:10A9900099058BB068D5D2F82431002B64D0002300
:10A9A000C2F82431D2F8243101934FF40171654B80
:10A9B0000198C2F8081393F8291009B901215160D0
:10A9C0005F4902228DF81820D1F88024C1F8802434
:10A9D0009869D96809920022CDE90710C3E90622D7
:10A9E000D3E9001406A8A047554AD2F81C31CBB1D0
:10A9F000544B5869196A88426BD851490022C1F8F2
:10AA00001C21D1F81C1102910299596951B1586960
:10AA100099688DF8182008905A61079106A8D3E923
:10AA200000129047464AD2F84431DBB10021454B31
:10AA3000C2F84411D2F8440193F82910009000980C
:10AA400009B1012111609A6962B10022586AD9687E
:10AA50009A610122CDE907108DF8182006A8D3E9E4
:10AA6000001290470BB030BD354AD2F804335B0773
:10AA7000BAD5D2F80831002BB6D0324B99690029EB
:10AA80003CD00021C2F80811D2F8081104910499B1
:10AA9000D868596AD2F8182542545A6A996901321D
:10AAA0005A625A6A8A429FD1DA691968002A2ED0FE
:10AAB000D8685D6A1C699A61079000220120DC60F9
:10AAC000DA615A628DF8180008955B6806A8984705
:10AAD0008AE793F8281001F0FF0000298DD1C2F811
:10AAE0001C01D2F81C11039103999C68186A196A19
:10AAF000205C01311962C2F81C0593E7C2F8081105
:10AB0000D2F8080105900598D2F81825C9E793F8FE
:10AB1000292012B90A4A01205060094A4FF40170F5
:10AB2000C2F80803586ADA680890002401200792E6
:10AB30008DF818005A689C6106A8904754E700BF3A
:10AB400000200040A82C00202DE9F041714F06792B
:10AB50002C2505FB067582B095F82A30002B40F0B5
:10AB60009A800D4604466C4900689046FFF7DAFE6D
:10AB7000002840F08C802B68591C19D01F2B4FF0F7
:10AB800001028ABF65494FF0A04103F01F0302FA9A
:10AB900003F3C1F808352B681F2B86BF03F01F0392
:10ABA0005E4A4FF0A04203F5E073032142F8231000
:10ABB0006B685A1C0BD01F2B86BF03F01F03574A2C
:10ABC0004FF0A04203F5E073002142F82310236800
:10ABD000AA69C3F82425297D6B7D22680B43C2F83E
:10ABE0006C35D5E900122368C3F81425C3F80C1599
:10ABF0002B7D012B53D02C2303FB06F3FA18C2F84C
:10AC000004802A69FA50B8F1000F2DD022682B7FFA
:10AC1000434D0021C2F81C11D2F81C210092226879
:10AC2000DDF800C0C2F84411D2F844112268019145
:10AC30000199C2F804532168090B4AB25B01002A4A
:10AC4000DBB261DB02F1604202F5614282F800335F
:10AC50002368344D1B0B5AB2520903F01F03012124
:10AC600001FA03F345F822302C23246803FB067312
:10AC7000002204250121C4F8005583F82A10C3E9F5
:10AC8000062283F829205A6102B0BDE8F081112024
:10AC900002B0BDE8F081082002B0BDE8F081AB68E9
:10ACA000591C0BD01F2B86BF03F01F031B4A4FF00C
:10ACB000A04203F5E073002142F82310EB685A1C10
:10ACC0001BD01F2B4FF001028ABF14494FF0A04147
:10ACD00003F01F0302FA03F3C1F80835EB681F2BDA
:10ACE00088BF03F01F0303F5E0738CBF0B4A4FF0DE
:10ACF000A042032142F82310EB682268A968C2F839
:10AD00000835C2F8101576E7074A01F00F010A442A
:10AD100013769DE7A82C002089A9020000030050AB
:10AD20008000020000E100E0FCEC00E0F8B53A4FE2
:10AD3000047902682C2303FB047300215B68C2F8CA
:10AD4000001583B10368354AC3F808230368344DFE
:10AD50001B0B5AB25209203203F01F03012101FAE2
:10AD600003F345F8223003684FF0FF3CD3F80C653D
:10AD7000D3F81455D3F80825D3F81015C3F814C523
:10AD8000C3F80CC503686645C3F808C5C3F810C509
:10AD90000CD01F2E86BF06F01F06224B4FF0A0439B
:10ADA00006F5E0764FF0020C43F826C06E1C0BD07F
:10ADB0001F2D86BF05F01F051A4B4FF0A04305F568
:10ADC000E075022643F825604D1C0BD01F2986BF75
:10ADD00001F01F01134B4FF0A04301F5E071022574
:10ADE00043F82150531C0BD01F2A86BF02F01F02CC
:10ADF0000C494FF0A04102F5E072022341F82230E5
:10AE00000068FFF7B5FD2C2303FB0474002384F8CE
:10AE10002A306360F8BD00BFA82C00208402020025
:10AE200000E100E000030050F0B5314E05792C231D
:10AE300003FB056385B05C69002C53D15A619960AE
:10AE40001C6283F828400268C2F81C41D2F81C1129
:10AE5000026802910121029F91600268D3F808C044
:10AE6000C2F81C41D2F81C1101910199D3F820E0DD
:10AE7000196A5F681CF80EE001311962C2F81CE51E
:10AE800017B1204605B0F0BD5C691A6A01689442AA
:10AE900003D819E093F828203ABBD1F81C21002AE6
:10AEA000F8D0C1F81C71D1F81C210392039AD3F891
:10AEB00020E01A6A1CF80EE001321A62C1F81CE5A3
:10AEC0001A6A9442E9D80168D1F81C31002BFBD0F2
:10AED0000123CB6000202C2303FB056500236B615D
:10AEE00005B0F0BD112005B0F0BD0F20F3E700BFA5
:10AEF000A82C0020F0B5524BD3F824218BB0002AA7
:10AF00006ED00021C3F82411D3F824210492022228
:10AF10008DF81820049AD3F880044A4AC3F88004B4
:10AF20000990D3F83C05D3680890C2E9061107934D
:10AF30001168536806A89847414BD3F84421BAB129
:10AF40000021404AC3F84411D3F844419069039466
:10AF5000039C68B1D3F83C35D06808930123C2E95B
:10AF6000061107908DF8183006A8D2E9001398470B
:10AF7000334BD3F82021BAB10021C3F82011D3F804
:10AF80002021029201202F4A029CD860506958B1BA
:10AF9000D3F84C05936808908DF818105161079309
:10AFA00006A8D2E900139847254BD3F85821AAB137
:10AFB0000021C3F85811D3F85801224A0190019892
:10AFC000506958B1D3F84C05936808908DF8181063
:10AFD0005161079306A8D2E9001398470BB0F0BD62
:10AFE000D3F810110029A7D0C3F81021D3F81011FD
:10AFF0001448059105998169D3F83C458C429BD151
:10B00000C569C768D0E900168DB1D3F800C2856163
:10B010002CF02005C261C3F800520369C36001220D
:10B02000CDE907748DF8182006A8B04784E70123FE
:10B030008561CDE907748DF8183006A8B0477BE725
:10B0400000200040D42C00202DE9F04307797E4EEB
:10B050004FEAC70808EB070306EB830387B093F8B2
:10B060002030002B40F0B0800D4604467749006840
:10B070009146FFF757FC002840F0A2802B68591C2E
:10B0800019D01F2B4FF001028ABF71494FF0A04128
:10B0900003F01F0302FA03F3C1F808352B681F2BD6
:10B0A00086BF03F01F036A4A4FF0A04203F5E07326
:10B0B000032142F823106B685A1C0BD01F2B86BF4C
:10B0C00003F01F03624A4FF0A04203F5E073002132
:10B0D00042F823102368AA69C3F82425297D6A7DD4
:10B0E00023680A43C3F86C25D5E900312268C2F809
:10B0F0000C35C2F814152B7D012B69D008EB070223
:10B100009200B318C3F804902B69B350B9F1000F43
:10B1100045D021682A7F4F4D0023C1F81031D1F866
:10B12000101101912168DDF804C0C1F82031D1F877
:10B13000201102912168DDF808C0C1F82431D1F84E
:10B14000241103912168DDF80CC0C1F84431D1F815
:10B15000441104912168DDF810C0C1F85831D1F8CC
:10B160005811236805910599C3F804532168090B08
:10B1700053014AB2002ADBB25FDB02F1604202F502
:10B18000614282F800332368334D1B0B5AB25209D7
:10B1900003F01F03012101FA03F345F8223047446D
:10B1A000226806EB8706002301240821C2F8001557
:10B1B00086F82040C6E90633736107B0BDE8F08326
:10B1C000112007B0BDE8F083082007B0BDE8F08388
:10B1D000AB68591C0BD01F2B86BF03F01F031C4A02
:10B1E0004FF0A04203F5E073002142F82310EB6812
:10B1F0005A1C1BD01F2B4FF001028ABF14494FF07D
:10B20000A04103F01F0302FA03F3C1F80835EB680D
:10B210001F2B88BF03F01F0303F5E0738CBF0C4A9C
:10B220004FF0A042032142F82310EB682268A9687E
:10B23000C2F80835C2F8101560E7084A01F00F019E
:10B240000A4413769FE700BFD42C0020F5AE02001D
:10B25000000300501003420000E100E0FCEC00E0BD
:10B26000F0B50679474C0368F500AA1904EB820291
:10B2700083B0526882B1444AC3F808230368434F3D
:10B280001B0B5AB25209203203F01F03012101FAAD
:10B2900003F347F822300368D3F8002222F020029B
:10B2A000C3F8002202680123536002680021C2F83B
:10B2B0005811D2F85811026801910199D3600268BF
:10B2C000D2F85831002BFBD00023C2F800350368B8
:10B2D0004FF0FF3ED3F80CC5D3F81475D3F808250A
:10B2E000D3F81015C3F80CE5C3F814E50368F4456A
:10B2F000C3F808E5C3F810E50DD0BCF11F0F86BFF9
:10B300000CF01F0CDFF888E04FF0A04E0CF5E07C4D
:10B3100002234EF82C307B1C0CD01F2F86BF07F069
:10B320001F07DFF86CC04FF0A04C07F5E077022351
:10B330004CF827304F1C0BD01F2986BF01F01F018E
:10B34000134F4FF0A04701F5E071022347F8213079
:10B35000531C0BD01F2A86BF02F01F020C4B4FF06C
:10B36000A04302F5E072022143F822100068FFF7C3
:10B37000FFFA354404EB8504002384F82030636031
:10B3800003B0F0BDD42C00201003420000E100E027
:10B390000003005001F06043B3F1005F2CD1F0B422
:10B3A0000579264EEF007C1906EB840482B06369B0
:10B3B00023BB6261A1600268C2F82031D2F820C1CB
:10B3C0000268CDF804C0DDF804C0C2F85831D2F8E4
:10B3D000582100920268DDF800C0D4F814C0C2F809
:10B3E0004415C2F848C502680121916062684AB1FB
:10B3F000184602B0F0BC704710207047112002B010
:10B40000F0BC7047036800E0B2B9D3F82011D3F85C
:10B4100058210029F8D07AB90122DA600268D2F8FE
:10B420005831002BFBD000203D4406EB850600235D
:10B43000736102B0F0BC70470F20F5E7D42C0020F8
:10B4400072DF704773DF704776DF70477ADF7047CF
:10B450007CDF70477FDF70478FDF7047B1DF704759
:10B46000FCF7A0BF08B5037803B108BD054B3B212D
:10B470001888FFF7E9FF0028F7D0BDE80840FCF77F
:10B4800091BF00BF42230020132820D1114B124846
:10B49000C01AC008000410B540F003000C460F4964
:10B4A000FCF7FCF80E4B0F491888224601F016FAFB
:10B4B00030F008020DD043F20202904209D043F26C
:10B4C0000142904205D0BDE81040FCF76BBFFCF78D
:10B4D00069BF10BDACDB0200D4DB0200C8D502009E
:10B4E000422300204C2D002010B50C4B0C4CE41ACC
:10B4F000E408240444F0030402203AB9FEF7ACFB4C
:10B5000020460849BDE81040FCF7C8B8FEF790FB9C
:10B5100020460549BDE81040FCF7C0B8ACDB02008E
:10B52000D4DB0200F8D50200E4D50200FCF73ABFF4
:10B5300010B50388103B82B00446462B46D8DFE89E
:10B5400003F0652445814545454545454545454507
:10B55000454545514545454545454545454545458F
:10B560004545454545454545454545454547454589
:10B57000454545454545454545454545454545457B
:10B58000454545455B4545454700354B35483649BA
:10B59000C01AC008000440F00300FCF77FF8012047
:10B5A000FEF75AFB314B4FF6FF721A80FCF7CEFEC6
:10B5B00008B1FCF7F7FE2E4B01211878FFF742FF88
:10B5C00008B1FCF7EFFE0020FEF732FB02B010BD21
:10B5D00080881321FFF738FF0028F7D0FCF7E2FE40
:10B5E00002B010BD02A9002321F8043D8088FFF7B6
:10B5F00033FF0028EAD0F1E71C4A002310881946DF
:10B600001A46FFF72BFF0028E0D0E7E7144B154858
:10B610001849C01AC008000440F00300FCF73EF8C7
:10B620000120FEF705FB0020FEF716FB0F4BA1885B
:10B630001148198001F04AF870B9FCF771FE002832
:10B64000C4D0CBE7094A0023108885211A46FFF7AA
:10B6500001FF0028BAD0C1E7FCF7A4FEEDE700BF68
:10B66000ACDB0200D4DB0200B8D50200422300208C
:10B6700040230020ACD50200642D002080B54FF49B
:10B680008041A6B00020FBF7A9FF08B1FCF78AFEB5
:10B69000FBF72AFF0120FEF7F3FAFDF769F808B17E
:10B6A000FCF780FE40F2333201217048FCF7DCFDEC
:10B6B00008B1FCF777FEFEF70FF908B1FCF772FE50
:10B6C00001F02EF908B1FCF76DFE26AC002344F81A
:10B6D0003C3D0120214601F0FBF908B1FCF762FE78
:10B6E000204601F0B1FA08B1FCF75CFE26AD11234B
:10B6F00005F8783D5E4801F088FB5D4982B2284636
:10B70000FFF7A6FE08B1FCF74DFE082200212046F7
:10B7100001F073FB574B179320464FF0C8731893F3
:10B72000FFF794FE08B1FCF73DFE0021524800F0FF
:10B7300081FE08B1FCF736FE0022504B50480892BB
:10B740002146179300F0B0FF08B1FCF72BFE4D4BDC
:10B750004D480893294601F05FF808B1FCF722FE36
:10B76000494B4A4E9B7C8DF806303C2241F22353D4
:10B7700000212846ADF8043001F03FFB02210623EA
:10B7800001273C228DF82010204600218DF823301F
:10B790008DF8227001F031FB324601AB284652F899
:10B7A000041BADF86C701C9300F0E2F808B1FCF7D4
:10B7B000F9FDB168364A204600F0DAF808B1FCF726
:10B7C000F1FD1822002102A801F017FB012000233F
:10B7D0004FF4807640258DF8080002AA2B492D48A9
:10B7E000ADF814300393ADF81C600495FFF728FE04
:10B7F00008B1FCF7D7FD1C220021204601F0FDFA1C
:10B800000023254A1793ADF86A308DF86C30234B2E
:10B8100020464FF4A0254FF4A0340321CDE918545D
:10B820008DF86810CDE91C2300F0D2FB08B1FCF7BD
:10B83000B9FD1B4B1B481C49C01AC008000440F04E
:10B840000300FBF72BFF134B01211878FFF7FAFDDC
:10B8500008B1FCF7A7FD0020FEF7EAF9FCF7CEF9E6
:10B860000028FBD1FEF74EF8F8E700BF28230020A0
:10B870000CD602005000A000382D002061B4020058
:10B88000642D0020E9B402004C2D0020302300205C
:10B890003C2300204023002065B402002DB50200A7
:10B8A000ACDB0200D4DB02001CD602006DDF704767
:10B8B00079DF70477DDF704764DF70472DE9F04F17
:10B8C00083B004880C9EBDF83490B6F800A0002C1C
:10B8D00039D09846002317468B4605461C4603E0A0
:10B8E0002A880134A24224DD6A6852F824000190BB
:10B8F00000220DF1030101A8FFF7DEFF20BB9DF838
:10B900000320BA42ECD13288B91803B389452BDB46
:10B9100042440DF1030101A80123FFF7CDFF98B9BF
:10B9200031889DF803200A4432802A880134A242DB
:10B93000DADC43B13388013BA3EB0A039BB2FF2B54
:10B9400012D808F80A30002003B0BDE8F08F0231A9
:10B950000132894592B207DB328008F802B03288A2
:10B96000013292B23280D3E70C2003B0BDE8F08FF1
:10B970002DE9F04700231788138090F82D3086B00A
:10B98000144605460E46002B40F0FB80AA78002A9C
:10B9900040F0FD80EA78A2B1D91CB94200F2F380F0
:10B9A0000221F154238801339BB201212380F154F9
:10B9B00023880B449BB22380F25423880B449BB210
:10B9C00023806A68AAB1D91CB94200F2DC80022146
:10B9D00092F90020F154238801339BB20A2123807D
:10B9E000F154238801339BB22380F254238801331E
:10B9F00023802B89002B40F01B812B8A002B40F0E9
:10BA00002F812B8B002B40F043812B6A002B44D0DD
:10BA10002288911DB94200F2B6801988052940F2AA
:10BA200003816FF4486801EB080080B24FF27D3C5F
:10BA3000604540F2F9805888052840F2F5806FF49F
:10BA4000486E86441FFA8EFEE64540F2ED804FF6C2
:10BA5000FF7C614504D0604502D0814200F2E48061
:10BA60000521B1542288013292B212212280B154B0
:10BA70002288013292B222801988B1543244090AD4
:10BA800051702288023292B222805B88B3543244D1
:10BA90001B0A53702388023323806B6A002B2FD03C
:10BAA0009988B4F800C0881C0CF102020244BA4222
:10BAB00069D8FE2867D8033106F80C1022880132B5
:10BAC00092B2FF212280B1542288013292B22280A8
:10BAD0001988B1543244090A51702088023080B26A
:10BAE00020809A8862B199680393002900F09C80B5
:10BAF000304401F077F9039B9A882388134423800C
:10BB000095F82C30002B40F08A80287800283BD014
:10BB10002B88012B00F08880228802F1020CBC45A2
:10BB200031D8012804D16B78023313449F422AD3C1
:10BB3000BB1E9B1A06A99BB221F8083D06EB0C0020
:10BB4000FFF7B8FE00BB2978BDF81020022900F0ED
:10BB5000048168789042C0F0FB809342C0F0F88086
:10BB60000921FE2A0FD82388501CF0542388013362
:10BB70009BB22380F154238801331A442280002091
:10BB800002E0082F23D80C2006B0BDE8F08704336C
:10BB9000BB42F8D804A8FFF78BFE0028F4D1238815
:10BBA000BDF810200321F154238801339BB21921E1
:10BBB0002380F154238801339BB2F1182380F2547F
:10BBC000120A4A70238802339BB22380E2E604A85B
:10BBD000FFF76CFE0028D7D113880822CA542388A7
:10BBE00001339BB21B222380CA542088013080B2CB
:10BBF0002080062208440DF1110101F0F3F823889A
:10BC00009DF8102006339BB212F0FE0218BF0122ED
:10BC10002380F254238801339BB22380B6E6D5F803
:10BC20002880B8F1000F4CD1072006B0BDE8F0879E
:10BC300005F108080222CDE9004740461146334687
:10BC4000FFF73CFE00289FD1CDE900474046334630
:10BC500010220621FFF732FE00283FF4CEAE93E714
:10BC600005F11008CDE90047404633460222032182
:10BC7000FFF724FE002887D1CDE900474046334630
:10BC800010220721FFF71AFE00283FF4BAAE7BE727
:10BC900005F11808CDE90047404633460222142139
:10BCA000FFF70CFE00287FF46FAFCDE90047404658
:10BCB000334610221521FFF701FE00283FF4A5AE00
:10BCC00062E7B8F804200232FE2A3FF65CAF238810
:10BCD0004FF000094FF0160A0132F2542388013365
:10BCE0009BB2238006F803A0238801339BB22380F4
:10BCF000B8F80020F2543344120A5A7023880233F1
:10BD00009BB22380B8F80410F0180A4661B1D8F845
:10BD100008301946002B87D001F064F8B8F80420E9
:10BD2000238813449BB2238009F1010995F82C2044
:10BD30005FFA89F94A4509EB49087FF6E6AEAA6A37
:10BD400002EB8808B8F804200232FE2AC4D91AE7A8
:10BD5000012906D01A46082103E79342BFF400AF39
:10BD6000F8E78342F6D302460821FAE675DF70470A
:10BD700076DF70477ADF70477BDF704730B51D4B49
:10BD80001A8884B2A24283B001D003B030BD1A4DEC
:10BD9000187A297B88420FD32A7C00211972E2B9D4
:10BDA0006B69002BF1D00022ADF806408DF804201D
:10BDB00001A8984703B030BD104603F10A01FFF710
:10BDC000D5FF28B11128E0D0AB69002BF1D1DCE719
:10BDD0001A7A01321A7203B030BD3B212046FFF7B8
:10BDE000C7FF30F00803DBD0AB69002BD8D09847F1
:10BDF000D6E700BF8C2D0020702D0020F0B5028802
:10BE0000112A83B0034649D036D9122A08D0502AC5
:10BE100004D16C4DC188EA89914251D003B0F0BD84
:10BE2000694C828821889142F8D1E1896589B1F510
:10BE3000FA7F24BF6FF4F9700E18588938BF0026B6
:10BE400085424FD8A58985424CD39B89B34249D3BB
:10BE500001F2F311994245D35A4B5B694FF480715B
:10BE60002181002BDAD00121ADF806208DF80410D5
:10BE700001A8984703B0F0BD102ACFD1C27B012A98
:10BE8000CCD1514C21884FF6FF7291423CD04D4BA2
:10BE90009B69002BC2D004209847BFE74A4C828898
:10BEA00023889A42BAD16068FCF7F6FC18B1454B7A
:10BEB0009B6903B198474FF6FF73238003B0F0BD31
:10BEC000028A022AAAD1404C86882788B742A5D187
:10BED000123000F06DF9002856D16068FCF7DCFCE8
:10BEE00070B99BE7374D267A6068D5E90131002E9D
:10BEF00008BF194600236372FCF77EFC00288DD032
:10BF0000AB69002BB5D189E7304D8288228003CD03
:10BF1000C4F80E10E689C4F80A00B6F5FA7F28BF07
:10BF20006FF4F9754FF00001588AB4F80AC0217215
:10BF300028BF7119234D8445EF8919D8B4F80CC076
:10BF4000844515D39B8A8B4212D306F2F3169E4288
:10BF50000ED301216172002F7FF460AF6B69002B5B
:10BF60003FF45CAF8DF80410ADF8062001A880E71F
:10BF700000236372002F7FF451AF60686968FCF79B
:10BF80003BFC0028BCD149E7637A63B9D5E90131AC
:10BF9000267A60683A46002E08BF1946FCF72CFC4A
:10BFA0000028ADD13AE76B6900222272002B3FF4E2
:10BFB00035AF0122ADF806608DF8042001A898473E
:10BFC0002CE700BF702D00208C2D0020A02D00201C
:10BFD00000282FD0F8B5054606460FCD164F3C4633
:10BFE0000FC4844695E80700144B3B6084E80700C3
:10BFF000BCF1000F18D06046FFF7BCFE98B932685C
:10C000001068516803C30E4B0E490F4A18464FF68D
:10C01000FF7440F8041F1C800021FCF7DFFB0028A0
:10C0200014BF03200020F8BD1846FFF7A5FE002826
:10C03000E9D0F8BD0E207047702D0020A02D002003
:10C040008C2D0020A82D00207DBD02002DE9F04799
:10C050000388B0F80490103B98B080460A2B1BD898
:10C06000DFE803F02F281A1A1A1A1A1A1A1D0600E6
:10C07000047A46482409032C494665D8FCF760FE3B
:10C08000032C63D049464248FCF75AFE022C61D08B
:10C0900049464048FCF754FE18B0BDE8F087037AE3
:10C0A000002BF9D1437A39481B0749466AD4FCF77B
:10C0B00047FEF1E749463848FCF742FE18B0BDE8B4
:10C0C000F087364A936818A8DB4340F8603D516812
:10C0D000FCF760FE009B0193019B63B300273C4685
:10C0E000214601A8FCF736FE28B118AB03EB470345
:10C0F000013723F8284C0134142CF1D10D970DAEE3
:10C100000FCE02AC0FC40FCE0FC496E8070084E830
:10C11000070087B10DF10A0A214E0AEB47073AF8EA
:10C12000025F204C204629460434FCF709FEA64253
:10C13000F8D1BA45F3D1B9F1130F12D90420FCF7A5
:10C1400031F918B0BDE8F087FCF7F0FD494610481A
:10C15000FCF7ECFD49460F48FCF7E8FD18B0BDE8D8
:10C16000F08749460C48FCF7E1FD49460D48FCF7CD
:10C17000DDFD98F80F30012B8ED049460A48FCF7B8
:10C18000D5FD89E7FCF7D2FD86E700BFE02D002052
:10C19000DC2D0020D82D0020D02D0020C82D00201F
:10C1A000442E0020CC2D0020D42D0020AADF704783
:10C1B000007800F001007047F0B58B7891B0002B4B
:10C1C0000C460988ADF80C1008BF01230546164639
:10C1D0006846032200218DF80E3000F00EFE637CCD
:10C1E0000022013B8DF80020042B09D8DFE813F072
:10C1F0000500D300D700DB00CF0011238DF80030FD
:10C20000A37C0022013B8DF80120042B09D8DFE834
:10C2100013F00500D200D600BA00CE0011238DF82D
:10C2200001309DF80230E77B227D207C217B67F383
:10C23000C303002A60F3041314BF0222012261F336
:10C24000000362F3420309A81C2200218DF802308A
:10C2500000F0D3FD637B13F0300F73D1627BA37BBF
:10C260008DF824200021142204A88DF8253000F038
:10C27000C4FDA368A288CDF814D003A90491ADF839
:10C280001C201BB1E2880893ADF81820A369002B8D
:10C2900036D001AF03220021384600F0AEFDA2697E
:10C2A0001388ADF82C305388ADF82E3051680D97B7
:10C2B000137B0A91013B00218DF80410042B2DD82B
:10C2C000DFE803F0299D8D91990011238DF8053049
:10C2D000917A9DF8063061F3C3038DF80630D17A68
:10C2E00061F304138DF80630117A927B002A61F312
:10C2F000000314BF0222012262F342038DF80630CC
:10C30000E36903B10C93334604AA09A92846FFF751
:10C310004DFF11B0F0BD11238DF80430537B002187
:10C32000013B8DF80510042BD2D801A151F823F060
:10C33000CBC20200CFC30200D7C30200C7C30200B2
:10C34000EFC30200032202A8002100F056FDE37CA7
:10C350000022013B8DF80920042B07D8DFE803F009
:10C36000035F5B57530011238DF809309DF80A30A5
:10C3700002AA0E92012262F3420311228DF80A30C2
:10C380008DF808206AE712238DF8013049E722234F
:10C390008DF8003034E721238DF8003030E7312369
:10C3A0008DF800302CE712238DF8003028E7222387
:10C3B0008DF8013035E721238DF8013031E7312345
:10C3C0008DF801302DE712238DF8053080E7212309
:10C3D0008DF805307CE731238DF8053078E731237F
:10C3E0008DF804309AE712238DF8043096E7222363
:10C3F0008DF805306CE722238DF804308EE7212379
:10C400008DF804308AE722238DF80930AEE7122335
:10C410008DF80930AAE731238DF80930A6E72123EA
:10C420008DF80930A2E700BF90DF7047A5DF7047A5
:10C43000B5DF704708B90E20704730B403464FF09F
:10C44000171200201B2541F61B3419611A60C3F82E
:10C4500006201D719872D8729C8130BC704700BF55
:10C4600070B5858884B01DBB0388232B0C4621D072
:10C470006FD93A2B54D0552B00F0B180242B00F00B
:10C480009C80A37AA3B1E1880020FFF7CFFF0028AA
:10C490006DD011280CD0FDF7B3FA7A4A7A4B7B495C
:10C4A0009B1ADB081B04024643F00100FBF7A4FAC9
:10C4B00004B070BD037A0A7B0395934228BF1346EC
:10C4C00002A96A4628460095ADF80830ADF80A3052
:10C4D000ADF80450FFF7A8FF0028D2D0694B6A4E90
:10C4E000F61AF608FDF78CFA360446F00106034604
:10C4F0002A4630466649FBF7FFFABDF80020BDF832
:10C50000023002B91BB163493046FBF7F5FABDF8BA
:10C510000420002AB5D030465F49FBF76DFAB0E73A
:10C520004389C98822698B4228BF0B46172B38BF25
:10C53000172323814AB1E17A39B140F6772102917C
:10C54000ADF80C3002A9204690470023E372A37295
:10C55000AEE7102B0FD0112B93D14FF0171241F6ED
:10C560001B338D72CD72C1F806208B81A0E70122AA
:10C57000A072E2729CE70B790B73C27B012A52D046
:10C58000022A4DD0C98822898A425DD3627B9A42B1
:10C59000BFF477AF00259BB228466A4602A9ADF8E2
:10C5A0000830ADF80A3003950095ADF80450FFF758
:10C5B0003BFF00283FF465AF90E70B69027A4A73AE
:10C5C000002B3FF45EAF4DF67A21ADF80C5002918E
:10C5D0008DF80C2002A920469847A37A52E7C38819
:10C5E000C988A572172B38BF17238B4228BF0B466B
:10C5F00028462381FFF71CFFC0B9E37A002B7FF4A4
:10C6000040AF2369002B3FF43CAF40F677212289ED
:10C610000291ADF80C2002A920469847A37A31E791
:10C620004988E180AFE70988E180ACE7FDF7E8F9E8
:10C63000144A154B19499B1ADB081B04024643F0A8
:10C640000100FBF7D9F9D8E70020FFF7EFFE18B992
:10C650000123E372237B99E7112803D10123A372FD
:10C66000237B93E7FDF7CCF9064A074B07499B1A52
:10C67000DB081B04024643F00100FBF7BDF9237BF6
:10C6800084E700BFACDB0200F4DB020018D7020035
:10C6900034D6020080D60200C0D602004CD7020079
:10C6A000B0DF704766DF704760B159B10378DE2BA9
:10C6B0000AD00B684360DE224FF6FF73027043809E
:10C6C000002070470E2070470820704738B103786B
:10C6D000DE2B02D1418000207047082070470E20D9
:10C6E000704700BF19B110B10B78DE2B00D0704736
:10C6F00030B505464B888088984285B00C4606D0F8
:10C700002A88012A0DD0512A20D005B030BD0B7ADD
:10C71000002B35D12B88112B48D0512B4DD0012B1C
:10C72000F3D12B7A012BF0D162888242EDD12372B2
:10C730000021FFF7B7FF00284ED0112808BF237251
:10C74000E3D063689847E0E76388A8888342DCD138
:10C75000AA79022AD9D1A97B01F0FD0004282ED0A4
:10C760000529D2D100206946C1E902000090486045
:10C770008DF800201846FFF793FF0028E1D1C4E7A9
:10C780000021FFF78FFF0346A8B1112812D063687C
:10C7900098472B88112B05D0512BD5D0012BB4D124
:10C7A000A888BEE7AA8863889A42AED14FF6FF7385
:10C7B0006380AAE701232372EBE70346C6E76946D5
:10C7C00000204FF4C07548600090C1E902008DF868
:10C7D0000020ADF80450CDE7207296E7A8DF70473F
:10C7E000AEDF704762DF70470388502B12D110B460
:10C7F0004B88C4889C4202D05DF8044B7047038A82
:10C80000012BF9D14B69002BF6D0827C5DF8044BEB
:10C8100080881847704700BFF0B52F4B0E6805465B
:10C820000FCB8FB002AC84E80F006E61204605F19B
:10C830001201FFF7D7FF08B10FB0F0BD0EA941F20A
:10C84000235321F8343D2A46AB7C8DF80630012075
:10C85000FFF7C4FF0028EFD10146202206A800F010
:10C86000CCFA9DF82530AA7C8DF81A20012443F0DB
:10C87000120341F224574FF0011628888DF8253015
:10C8800006A905F10A02ADF8187007968DF829403F
:10C890008DF82B40FFF790FC0028CDD101462022D7
:10C8A00006A800F0AAFA9DF82530AF7C079643F061
:10C8B0000A0341F2255628888DF8294006A9AA1CAA
:10C8C0008DF82A408DF82530ADF818608DF81A7073
:10C8D000FFF772FCB0E700BF8CD7020070B588B0DC
:10C8E0000E4605468DF80720012404A810220021D9
:10C8F000ADF80E4000F081FA7389ADF810300DF1FB
:10C9000007020DF10E0304A928468DF81240CDE967
:10C910000632FFF765FF08B070BD00BF10DF70473B
:10C9200070B53B4D2B7884B0002B63D1394E3A491A
:10C93000012302A83370FDF71BF8039B002B4FD196
:10C94000364902A8FDF714F8039B4BB1D3E9002147
:10C950000020904702A8FDF715F8039B002BF5D1A6
:10C960002F4A002312688DF8083002A80192FBF7C5
:10C97000B5FF2C4901A8FFF7D1FFB0FA80F30446B8
:10C980005B099DF808002B70FBF7CEFF002C2ED121
:10C99000254B26491C70347091F81623EC2352095C
:10C9A0001341DB072FD5224B9A683ABB4FF4800323
:10C9B0000B601A4902A8FCF7DBFF039BBBB1D3E96C
:10C9C00000210120904702A8FCF7DCFF039B002B0D
:10C9D000F5D10CE002A8FCF7D5FF039B002BAFD0EC
:10C9E000D3E90021002090470028F3D104462046D7
:10C9F00004B070BD0824204604B070BD1A6842F42B
:10CA000080021A60D5E742F20200FBF7CBFCD0E7C8
:10CA1000452E0020442E0020A0D70200B8D70200E7
:10CA20009CD70200C5830200462E002000E100E0F2
:10CA3000482E0020014B1878704700BF452E00207B
:10CA400000B583B068460849FCF792FF019B43B1EB
:10CA5000D3E9002090476846FCF794FF019B002B28
:10CA6000F6D103B05DF804FBACD7020060DF70477D
:10CA700069DF704761DF7047134B1B781BB330B51C
:10CA8000124D91B034240DF1020103A8ADF802401B
:10CA9000FFF7F0FF88B9294601A8FCF769FF029B60
:10CAA000002BF0D0D3E9002103A8904701A8FCF7A0
:10CAB00069FF029B002BF5D1E5E7052801D0FBF7C4
:10CAC00071FC11B030BD7047472E002004DA02001F
:10CAD000002900F0A68070B5534B0B6084B00C4663
