:020000040000FA
:1000000000040020810A000015070000610A0000BA
:100010001F07000029070000330700000000000050
:10002000000000000000000000000000A50A000021
:100030003D070000000000004707000051070000D6
:100040005B070000650700006F07000079070000EC
:10005000830700008D07000097070000A10700003C
:10006000AB070000B5070000BF070000C90700008C
:10007000D3070000DD070000E7070000F1070000DC
:10008000FB070000050800000F0800001908000029
:10009000230800002D080000370800004108000078
:1000A0004B080000550800005F08000069080000C8
:1000B000730800007D080000870800009108000018
:1000C0009B080000A5080000AF080000B908000068
:1000D000C3080000CD080000D7080000E1080000B8
:1000E000EB080000F5080000FF0800000909000007
:1000F000130900001D090000270900003109000054
:100100003B0900001FB500F003F88DE80F001FBD8C
:1001100000F0ACBC40F6FC7108684FF01022401CA7
:1001200008D00868401C09D00868401C04D0086842
:1001300000F037BA9069F5E79069F9E7704770B554
:100140000B46010B184400F6FF70040B4FF0805073
:100150000022090303692403406943431D1B104621
:1001600000F048FA29462046BDE8704000F042BA47
:10017000F0B54FF6FF734FF4B4751A466E1E11E0DA
:10018000A94201D3344600E00C46091B30F8027B3B
:10019000641E3B441A44F9D19CB204EB134394B25D
:1001A00004EB12420029EBD198B200EB134002EBB2
:1001B000124140EA0140F0BDF34992B00446D1E952
:1001C0000001CDE91001FF224021684600F0F4FB58
:1001D00094E80F008DE80F00684610A902E004C8FB
:1001E00041F8042D8842FAD110216846FFF7C0FF7C
:1001F0001090AA208DF8440000F099F9FFF78AFFCB
:1002000040F6FC7420684FF01025401C0FD0206889
:1002100010226946803000F078F92068401C08D030
:100220002068082210A900F070F900F061F9A869AF
:10023000EEE7A869F5E74FF080500369406940F6A2
:10024000FC71434308684FF01022401C06D0086838
:1002500000F58050834203D2092070479069F7E788
:100260000868401C04D00868401C03D00020704778
:100270009069F9E70420704770B504460068C34DE3
:10028000072876D2DFE800F033041929631E250021
:10029000D4E9026564682946304600F062F92A46CE
:1002A0002146304600F031F9AA002146304600F0E0
:1002B00057FB002800D0032070BD00F009FC4FF46C
:1002C000805007E0201D00F040F90028F4D100F034
:1002D000FFFB60682860002070BD241D94E80700C3
:1002E000920000F03DFB0028F6D00E2070BDFFF715
:1002F000A2FF0028FAD1D4E901034FF0805100EBAE
:10030000830208694D69684382420ED840F6F8704E
:1003100005684FF010226D1C09D0056805EB8305B8
:100320000B6949694B439D4203D9092070BD55694A
:10033000F4E70168491C03D00068401C02D003E0C8
:100340005069FAE70F2070BD2046FFF735FFFFF731
:1003500072FF0028F7D1201D00F0F7F80028F2D135
:1003600060680028F0D100F0E2F8FFF7D3FE00F05B
:10037000BFF8072070BD10B50C46182802D0012028
:10038000086010BD2068FFF777FF206010BD41684E
:10039000054609B1012700E0002740F6F8742068FF
:1003A0004FF01026401C2BD02068AA68920000F065
:1003B000D7FA38B3A86881002068401C27D020688D
:1003C000FFF7BDFED7B12068401C22D026684FF051
:1003D0008050AC686D68016942695143A9420DD9EA
:1003E000016940694143A14208D92146304600F0E5
:1003F000B8F822462946304600F087F800F078F831
:100400007069D2E700F093F8FFF784FEF6E77069B1
:10041000D6E77669DBE740F6FC7420684FF01026DB
:10042000401C23D02068401C0CD02068401C1FD0EA
:100430002568206805F18005401C1BD027683879A5
:10044000AA2819D040F6F8700168491C42D001680A
:10045000491C45D00168491C3ED001680968491C07
:100460003ED00168491C39D000683EE0B069DAE747
:10047000B569DEE7B769E2E710212846FFF778FEA5
:100480003968814222D12068401C05D0D4F8001080
:1004900001F18002C03107E0B169F9E730B108CA63
:1004A00051F8040D984201D1012000E000208A4259
:1004B000F4D158B1286810B1042803D0FEE72846CB
:1004C000FFF765FF3149686808600EE0FFF722FE1C
:1004D00000F00EF87169BBE77169BFE7706904E06D
:1004E0004FF480500168491C01D000F0CBFAFEE7C0
:1004F000BFF34F8F26480168264A01F4E06111439B
:100500000160BFF34F8F00BFFDE72DE9F0411746B3
:100510000D460646002406E03046296800F054F8EF
:10052000641C2D1D361DBC42F6D3BDE8F08140F69B
:10053000FC700168491C04D0D0F800004FF48051D1
:10054000FDE54FF010208069F8E74FF080510A690F
:10055000496900684A43824201D810207047002050
:10056000704770B50C4605464FF4806608E0284693
:1005700000F017F8B44205D3A4F5806405F5805562
:10058000002CF4D170BD0000F40A0000000000202F
:100590000CED00E00400FA05144801680029FCD0C5
:1005A0007047134A0221116010490B68002BFCD0E0
:1005B0000F4B1B1D186008680028FCD0002010603D
:1005C00008680028FCD07047094B10B501221A605A
:1005D000064A1468002CFCD0016010680028FCD08A
:1005E0000020186010680028FCD010BD00E4014015
:1005F00004E5014070B50C46054600F073F810B9EB
:1006000000F07EF828B121462846BDE8704000F091
:1006100007B821462846BDE8704000F037B8000012
:100620007FB5002200920192029203920A0B000B06
:100630006946012302440AE0440900F01F0651F80C
:10064000245003FA06F6354341F82450401C8242F8
:10065000F2D80D490868009A10430860081D016827
:10066000019A1143016000F03DF800280AD00649C4
:1006700010310868029A10430860091D0868039A3F
:10068000104308607FBD00000006004030B50F4CED
:10069000002200BF04EB0213D3F800582DB9D3F8A1
:1006A000045815B9D3F808581DB1521C082AF1D3C3
:1006B00030BD082AFCD204EB0212C2F80008C3F8CD
:1006C00004180220C3F8080830BD000000E0014013
:1006D0004FF08050D0F83001082801D0002070473A
:1006E000012070474FF08050D0F83011062905D016
:1006F000D0F83001401C01D0002070470120704725
:100700004FF08050D0F830010A2801D00020704707
:100710000120704708208F490968095808471020B0
:100720008C4909680958084714208A4909680958FA
:100730000847182087490968095808473020854923
:100740000968095808473820824909680958084744
:100750003C20804909680958084740207D490968BC
:100760000958084744207B49096809580847482028
:1007700078490968095808474C207649096809589A
:10078000084750207349096809580847542071499F
:1007900009680958084758206E49096809580847E8
:1007A0005C206C4909680958084760206949096854
:1007B00009580847642067490968095808476820AC
:1007C00064490968095808476C2062490968095852
:1007D000084770205F4909680958084774205D4937
:1007E00009680958084778205A490968095808478C
:1007F0007C205849096809580847802055490968EC
:10080000095808478420534909680958084788202F
:1008100050490968095808478C204E490968095809
:10082000084790204B4909680958084794204949CE
:10083000096809580847982046490968095808472F
:100840009C204449096809580847A0204149096883
:1008500009580847A4203F49096809580847A820B3
:100860003C49096809580847AC203A4909680958C1
:100870000847B0203749096809580847B420354966
:10088000096809580847B8203249096809580847D3
:10089000BC203049096809580847C0202D4909681B
:1008A00009580847C4202B49096809580847C82037
:1008B0002849096809580847CC2026490968095879
:1008C0000847D0202349096809580847D4202149FE
:1008D000096809580847D8201E4909680958084777
:1008E000DC201C49096809580847E02019490968B3
:1008F00009580847E4201749096809580847E820BB
:100900001449096809580847EC2012490968095830
:100910000847F0200F49096809580847F4200D4995
:10092000096809580847F8200A490968095808471A
:10093000FC2008490968095808475FF48070054998
:10094000096809580847000003480449024A034B54
:100950007047000000000020000B0000000B0000AA
:1009600040EA010310B59B070FD1042A0DD310C82C
:1009700008C9121F9C42F8D020BA19BA884201D97E
:10098000012010BD4FF0FF3010BD1AB1D30703D0C6
:10099000521C07E0002010BD10F8013B11F8014B7C
:1009A0001B1B07D110F8013B11F8014B1B1B01D198
:1009B000921EF1D1184610BD02F0FF0343EA032254
:1009C00042EA024200F005B87047704770474FF0A6
:1009D00000020429C0F0128010F0030C00F01B800C
:1009E000CCF1040CBCF1020F18BF00F8012BA8BF1A
:1009F00020F8022BA1EB0C0100F00DB85FEAC17CDE
:100A000024BF00F8012B00F8012B48BF00F8012B90
:100A100070474FF0000200B51346944696462039C1
:100A200022BFA0E80C50A0E80C50B1F12001BFF4A7
:100A3000F7AF090728BFA0E80C5048BF0CC05DF80D
:100A400004EB890028BF40F8042B08BF704748BF5B
:100A500020F8022B11F0804F18BF00F8012B7047CF
:100A6000014B1B68DB6818470000002009480A4951
:100A70007047FFF7FBFFFFF745FB00BD20BFFDE719
:100A8000064B1847064A1060016881F308884068E1
:100A900000470000000B0000000B000017040000DE
:100AA000000000201EF0040F0CBFEFF30881EFF3ED
:100AB0000981886902380078182803D100E0000015
:100AC000074A1047074A12682C3212681047000084
:100AD00000B5054B1B68054A9B58984700BD0000B0
:100AE0007703000000000020F00A0000040000006E
:100AF000001000000000000000FFFFFF0090D00386
:1010000000000420B5120000DD120000DF12000015
:10101000E1120000E3120000E512000000000000F1
:10102000000000000000000000000000E7120000C7
:10103000E912000000000000EB120000ED120000B9
:10104000EF120000EF12000055420000EF12000006
:10105000EF120000EF120000ED3C0000EF12000064
:10106000EF120000EF120000EF120000EF1200007C
:10107000EF120000EF120000EF120000EF1200006C
:10108000EF120000812B0000EF120000EF120000B1
:10109000EF120000EF120000EF120000EF1200004C
:1010A000EF120000EF120000EF120000EF1200003C
:1010B000EF120000EF12000000000000000000002E
:1010C000EF120000EF120000EF120000EF1200001C
:1010D000EF120000EF120000EF120000EF1200000C
:1010E000EF120000EF120000EF12000000000000FD
:1010F00000000000EF12000000000000EF120000EE
:1011000000000000000000000000000000000000DF
:1011100000000000000000000000000000000000CF
:1011200000000000000000000000000000000000BF
:1011300000000000000000000000000000000000AF
:10114000000000000000000000000000000000009F
:10115000000000000000000000000000000000008F
:10116000000000000000000000000000000000007F
:10117000000000000000000000000000000000006F
:10118000000000000000000000000000000000005F
:10119000000000000000000000000000000000004F
:1011A000000000000000000000000000000000003F
:1011B000000000000000000000000000000000002F
:1011C000000000000000000000000000000000001F
:1011D000000000000000000000000000000000000F
:1011E00000000000000000000000000000000000FF
:1011F00000000000000000000000000000000000EF
:1012000010B5054C237833B9044B13B10448AFF340
:1012100000800123237010BD0802002000000000A0
:10122000CC61000008B5034B1BB103490348AFF381
:10123000008008BD000000000C020020CC6100000E
:10124000154B002B08BF134B9D46A3F5803A002198
:101250008B460F461348144A121A04F0FEFA0F4B3D
:10126000002B00D098470E4B002B00D09847002051
:10127000002104000D000D48002802D00C48AFF3F7
:10128000008004F09BFA2000290004F069F904F0C2
:1012900081FA00BF000008000000042000000000E8
:1012A00000000000080200203C0A002000000000AE
:1012B000000000000649074A074B9B1A03DD043B68
:1012C000C858D050FBDC04F083F9FFF7B9FF0000E9
:1012D0003C6200000800002008020020FEE7FEE754
:1012E000FEE7FEE7FEE7FEE7FEE7FEE7FEE7FEE7D6
:1012F000F0B595B0002415460F4608461E4602F08C
:10130000DFF9384623460895082205A91A9D099653
:101310000D950A948DF82C400C9402F02BFA9DF850
:1013200014308DF81140DDE9061003F00302012AA4
:10133000CDE9020127D0022A04D0384602F0C4F9D0
:1013400015B0F0BDBDF81650C3F3C2038DF81030D0
:10135000AD090826082D2C4628BF0824334622460E
:101360000EA9384602F006FA2D1B214608AB02AA48
:101370000EA8264400F0AAFC002DEBD1384602F05E
:10138000A3F915B0F0BDBDF81460059DC6F3831632
:10139000C3F3C204B2000EA9384608238DF81040EA
:1013A000C5F3952502F0E6F908AB324628460EA9AA
:1013B000009302AB00F0E4FB384602F085F915B06B
:1013C000F0BD00BF014B01221A7070476802002077
:1013D000704700BF00B583B0044B0093044A40231C
:1013E000FFF786FF03B05DF804FB00BFF5130000B4
:1013F0002802002038B50E480E4D03780E4CEB5CE9
:101400000025D2B2257053B90C3003F0A3F958B9B6
:101410000A4B1B7813B12378002BFCD038BD043065
:1014200003F04EFC0028F3D000F0AEFFF0E700BF61
:1014300008000020380A0020680200202402002052
:1014400070B51348134A0378D35C88B0DBB90C300D
:1014500003F002F9104D0FCD6C460FC495E80F0054
:1014600008AD102645F8206D84E80F0029460022BB
:10147000074802F027FA08B100F086FF074B002268
:101480001A7008B070BD043003F080FBE2E700BFC3
:1014900008000020380A0020B05B00002402002071
:1014A00070B50D4D0FCD88B06C460FC495E80F0098
:1014B00008AD102645F8206D84E80F002946074A3C
:1014C000074802F0FFF908B100F05EFF054B01226A
:1014D0001A7008B070BD00BFB05B0000C5130000FB
:1014E000080000202402002008B5FFF7D9FF0421DE
:1014F000034800F0FBFA034B01225A7108BD00BFFC
:10150000106200001C000020F0B5324C85B004F5DC
:10151000836001F0F3FB04F2144001F0EFFBD4E927
:10152000013703EA0702D01C04EB800114F8200005
:1015300010F0040044D003F1020C0E7806F003060C
:10154000012E654635D0022E02F1030621D004EBB0
:1015500086010028F1D104EB82020133D2680192A6
:101560003B4004EB830302F00302012ADE6829D02A
:10157000022A23D1BDF806309B090333360C05EB54
:101580009305154801F0C6FB00B16560304605B013
:10159000F0BD4B880CEB931307EA0302D11C03F157
:1015A000020C14F82100654604EB810100F00400F0
:1015B000CFE70B88C3F383136344EDE70026E0E72E
:1015C0009D1CC8E7BDF80430C3F38313360C1D44DB
:1015D000D7E700BF3C030020500700200B4B0C480E
:1015E00010B50022FF21C3F818249960C3E9002236
:1015F000C3F8142483F8202402F01EF8044610B91E
:10160000044802F0EBF8204610BD00BF3C03002068
:1016100020620000F05B000021B9124B03EBC00018
:1016200000687047104A0F49521AD20815D030B4DA
:101630000E4D2B88834212D0002303E035F823405F
:10164000844205D001339A42F8D1002030BC704763
:1016500001EBC300006830BC704710467047084675
:10166000F8E700BFD061000010620000080200200F
:10167000094B013903EBC00003290BD8DFE801F067
:1016800002080604022070474079704700797047CD
:101690000420704700207047D06100002DE9F84316
:1016A000DFF8D890074600208846D9F8084001F0B6
:1016B00007F9D9E90132D9F80060134401339B1BC3
:1016C000012B56D809F21C450121284601F0FEFAEB
:1016D000FFF71AFF0146284601F0F8FAD9E901326E
:1016E000D9F80010134401335B1A012BECD90A40DE
:1016F000033205230231002049F82230C9F80010D6
:1017000001F0E6F800211C4801F0D6FA80F3100041
:10171000731C234009EB830300043440033440EA84
:101720001740D86019F8243067F3C50309F824304E
:1017300039F824306FF3891329F8243059F824201C
:1017400068F39F221346012161F301036FF38203C3
:1017500049F8242009F8243099F820341BB906E010
:1017600000F00EF818B1D9E900329A42F8D1BDE87C
:10177000F8833146BBE700BF580700203C03002038
:101780002DE9F047914C002384B0C4F81834BFF31E
:101790004F8FD4E9015605EA0602D31C04EB8301FE
:1017A00014F82330580719D527680B7803F0030382
:1017B000012B43D0022B03D14B88023505EB931547
:1017C00006EA0502D4F81804D31C04EB830128B9F7
:1017D000AF4239D914F823305B07E6D404EB820218
:1017E0006B1CD2680192334004EB830302F00302C6
:1017F000DB680293022A05F1020700F08980012AC2
:1018000026D0D4F810543DB12B6828469B689847E1
:10181000EB681D68002DF7D16D486E4B6E49C01AFC
:10182000C008000440F00200FFF738FFD4E90030A0
:10183000C01A18BF012004B0BDE8F0870B8802353C
:10184000C3F383131D44BBE7676004B0BDE8F087B2
:10185000BDF804206148C2F38313062B28BF06237A
:1018600063F3891202339900ADF8042001F0E6FE1B
:1018700080460028C5D001F023FF0023082201A9DB
:10188000404601F043FFBDF8043013F4707F00F0D0
:101890009B806FF0010AAAEB050A082506EA0701FA
:1018A00003312B46042204EB8101404601F02EFF58
:1018B000BDF8043007F101090AEB0902C3F38313F1
:1018C00093424F4605F10405E8D8D4F81834002BAC
:1018D00064D1D4F8105465B1EB685A792846414672
:1018E000002A57D02B681B689847EB681D68002DAD
:1018F000F2D1404601F0E8FE002000F0E1FFD4F80C
:1019000018340BB9C4F80490002000F0E1FF8DE713
:10191000BDF8063031484FEA93194D46502D28BF87
:10192000502565F38F1305F10801ADF8063001F07D
:1019300085FE804600283FF464AF26EA070A0AF1D4
:10194000010A01F0BDFE4FEA8A0A0023082201A91C
:10195000404601F0DBFE55452BD9EBB2BAF1000F42
:1019600020D006EA0701A3EB0A03033104EB81014F
:10197000DDB252460823404601F0C8FE2A460AF16D
:1019800008031749404601F0C1FE09F1030907EBBE
:1019900099099AE71D68002D9ED1AAE7404601F0FB
:1019A00093FE43E72A4608230D49404601F0AEFE68
:1019B000EBE706EA0701033104EB81012A4608231D
:1019C000404601F0A3FEE0E7B9467EE73C03002075
:1019D000F0610000D0610000FC5B000020620000AC
:1019E000480300202DE9F047DFF8E4A00746002077
:1019F00091468846DAF8084000F062FFDAE90132E1
:101A0000DAF80060134401339B1B022B5CD80AF206
:101A10001C450121284601F059F9FFF775FD0146E3
:101A2000284601F053F9DAE90132DAF800101344DC
:101A300001335B1A022BECD90A40033203314523F0
:101A400000204AF82230CAF8001000F041FFB31C11
:101A500023400AEB830300211C48C3F80C9001F0DB
:101A60002BF980F31000731C23400AEB830300045E
:101A70003440033440EA1740D8601AF8243067F342
:101A8000C5030AF824303AF82430012161F38913A0
:101A90002AF824305AF8242068F39F22134661F371
:101AA00001036FF382034AF824200AF824309AF8DD
:101AB00020341BB906E0FFF763FE18B1DAE9003203
:101AC0009A42F8D1BDE8F0873146B5E758070020C3
:101AD0003C030020044BD3E900239A4201D0FFF7D6
:101AE0004FBE0020704700BF3C03002030B4184DAB
:101AF000D5F8104400215CB1E3681A798A4204D118
:101B000016E0DB681A798A4212D01B68002BF8D1E4
:101B1000C3681971D5F8103493B1DA68C3681268D4
:101B20001A60D5F81034DB68186030BC084670477E
:101B300001310A29DFD14FF0FF31084630BC704730
:101B4000C5F81004C2681360084630BC704700BF77
:101B50003C03002038B5094BD3F81044012583F825
:101B600020544CB1E3685D71236820465B68984758
:101B7000E3681C68002CF5D138BD00BF3C03002091
:101B80002DE9F04784B01D460C9C002394F80C808E
:101B90002373EB8881460E461746002B40D1297AE5
:101BA00005290ED06B7AA88873BB404B53F821A04F
:101BB0000021FFF731FD524603463D49204601F022
:101BC00015F9062F09D8DFE807F0046A4249525D8B
:101BD00033004946204601F009F92B7A052B05D040
:101BE0006B7A5BB93349204601F000F9204601F0D9
:101BF000F1F884F80C8004B0BDE8F0872E4A2F4934
:101C0000204601F0F3F8EDE7FFF732FD2C4B2B49AE
:101C100053F82020204601F0E9F8297AA888C4E783
:101C2000254A00922749284A204601F0DFF8B6E706
:101C3000D6E90410D6E900230390D6E90207029101
:101C4000CDE900074946204601F0D0F8C5E74946EE
:101C5000D6E90023204601F0C9F8BEE7B168D6E90D
:101C6000002320460091494601F0C0F8B5E7D6E9C7
:101C70000201D6E90023019100904946204601F077
:101C8000B5F8AAE7D6E90371B068D6E90023029156
:101C9000CDE900074946204601F0A8F89DE73268E3
:101CA0004946204601F0A2F897E700BF885C000093
:101CB000785C0000845C00006C5C0000745C0000D8
:101CC000145C0000545C00004C5C0000082900D942
:101CD00070472DE9F04F1D46904600232A7B2B7359
:101CE00085B0B8F80630039207460E46002B7BD12C
:101CF00098F80810052911D098F80930B8F80400B0
:101D0000002B63D13C4B53F821400021FFF784FCAA
:101D1000224603463949284601F068F8DFF8FCB04E
:101D2000DFF8FC90002405E03A5D013401F05EF834
:101D3000082C09D0A64249462846F5D85946013410
:101D400001F054F8082CF5D12D49DFF8D8B0DFF8B0
:101D5000D890284601F04AF800240CE017F804A0B7
:101D6000BAF17E0F23D92E2249462846013401F0CC
:101D70003DF8082C08D0A642F0D859462846013430
:101D800001F034F8082CF6D198F80830052B02D071
:101D900098F80930A3B91B49284601F027F82846CE
:101DA00001F018F8039B2B7305B0BDE8F08F03F02A
:101DB00029FD50445246437813F0970FD3D0D3E710
:101DC000114A1249284601F011F8E4E7FFF750FCE8
:101DD0000F4B0E4953F82020284601F007F898F8D9
:101DE0000810B8F804008DE7074A009209490A4A2A
:101DF000284600F0FBFF7BE7885C0000785C000071
:101E0000445C0000845C00006C5C0000745C0000BA
:101E1000145C0000545C00004C5C0000405C00005E
:101E2000385C0000805C0000485C0000074B1B5CD5
:101E30001F2B8ABF064A4FF0A04203F01F03D2F8BF
:101E40000405D840C04300F001007047F45C000076
:101E500000030050074B1B5C1F2B86BF03F01F03C2
:101E600005494FF0A041012202FA03F3C1F80C35F5
:101E7000704700BFF45C000000030050074B1B5C80
:101E80001F2B86BF03F01F0305494FF0A04101221D
:101E900002FA03F3C1F80835704700BFF45C000094
:101EA0000003005030B44FF0A043094C80254FF0A0
:101EB00080404FF000514FF00042C4F80855C3F87D
:101EC0000805C3F80815C3F8082530BC704700BFE3
:101ED0000003005030B44FF0A043094C80254FF070
:101EE00080404FF000514FF00042C4F80C55C3F849
:101EF0000C05C3F80C15C3F80C2530BC704700BFA7
:101F0000000300500A4B195C1F298ABF09484FF093
:101F1000A04001F01F01D0F8043501228A4022EAD6
:101F200003011340C0F80815C0F80C35704700BF16
:101F3000F45C000000030050133818BF4FF0FF306E
:101F4000704700BFC10707D4830742BF4FF0A043CB
:101F50000C22C3F84C2770474FF0A04311490322CD
:101F600070B4C1F81C278026C3F878274FF080454D
:101F7000C3F874274FF00054C3F87C274FF0004299
:101F8000C1F80865C3F80855C3F80845C3F8082523
:101F9000820704D54FF0A0430C22C3F84C2770BC35
:101FA000704700BF0003005070B51A4B1D789DB1FB
:101FB000194B1C682378C0B2984210D004F1080273
:101FC000002306E014F833108142164602F108029D
:101FD00006D001339D42F5D100231B78FFDE264653
:101FE00001F074FE7378A3F10103B3FA83F35B0984
:101FF000834200D070BD094BD3E900231343F9D1CC
:10200000074B0848196800224908BDE8704000F0F5
:10201000E5BB00BFF807002048080020200800208A
:10202000FC070020000800202DE9F04F974E337880
:1020300085B0002B00F02581954F964DDFF860822A
:1020400000244FF00109D7F800B01BF8340001F06C
:102050003DFE0BEBC4031BF834B05B784FEA5B0C1E
:102060001BF0010E15F80C10A3F10103B3FA83F372
:1020700014BF0A0901F00F025B09042A00F2BB80B9
:10208000DFE802F08ABB5B400300834200F0D680A9
:10209000BEF1000F0CBFF0230F233078194005F874
:1020A0000C10A8B1D7F800C09CF800305B4500F0D8
:1020B000DE800CF10802002304E01CF833105945BF
:1020C00000F0D68001338342964602F10802F4D133
:1020D0000020039000F0F4FBABF12002CBF12003D1
:1020E00029FA03F309FA02F21A4309FA0BF10392EF
:1020F0000291D8E90023DDE9020122EA000023EA87
:10210000010171E0834232780CD0BEF1000F0CBFA8
:10211000F0230F2303EA01030CBF042140211943DC
:1021200005F80C10013494428DDBD8E900231343E9
:1021300040F0938005B0BDE8F08F83426FD1BEF1CF
:10214000000F14BF0F23F02303EA0103327814BFFA
:1021500030210321194305F80C10002AE5D0D7F8E7
:1021600000C09CF800305B4500F08E800CF1080147
:102170000023013393428E4601F10801D2D01CF8AE
:1021800033005845F5D1DEF80430002BCAD058464C
:10219000012198473278C5E783422CD1BEF1000F68
:1021A0000CBFF0230F2303EA01030CBF0121102110
:1021B00019430020019005F80C1000F081FBABF1F1
:1021C000200309FA03F301930198CBF1200129FAC6
:1021D00001F1084309FA0BF101900091D8E90023BD
:1021E000DDE900011043194302460B460020C8E90F
:1021F000002300F06DFB327894E7834213BF002385
:10220000202302221A46BEF1000F12BF0F20F02039
:10221000134601400B4305F80C30327882E7BEF1DB
:10222000000F0CBFF0230F2303EA01030CBF0121B1
:102230001021194305F80C10327873E7BEF1000F36
:1022400014BF0F23F02303EA010314BF302103213D
:10225000194305F80C10327864E70F4B0F481968E2
:102260000022490805B0BDE8F04F00F0B7BAE646D5
:10227000DEF80430002B3FF42BAF0021584698477E
:1022800026E7DFF81C8050E7E6467CE7F8070020E9
:102290004808002028080020FC0700200008002033
:1022A00020080020092A40D9F0B583B00E46054623
:1022B000144601F095FB002831D0204A2049214BDB
:1022C00015600E70202200211F481C6003F0C5FA23
:1022D0001E4B00200021741EC3E90001E4B236B396
:1022E00005EBC4041A4E083D032701E0A5421ED0A9
:1022F0009DF8063020788DF8047003F0FC036FF32E
:1023000082038DF80630A3788DF80530324601A996
:1023100001F070FB083C0028E8D003B0F0BD01F0EC
:1023200015FB0028C9D003B0F0BD07207047094A4B
:102330000948002100F044FA03B0F0BD480800202D
:10234000F8070020FC0700202808002020080020B3
:10235000A91F000029200000F85C000070B5084D9E
:102360002B785BB1074E00243368012113F8340049
:1023700001F030FC2B780134A342F5D8002070BD69
:10238000F80700204808002000B585B0002303901E
:10239000194601AA44F20100CDE9013300F004F826
:1023A00005B05DF804FB00BF10B572B6FFF7D2FBB5
:1023B000FFF790FB0028FBD1104B114C1149E41A98
:1023C000E408240444F00100FFF768F90E4B1B6891
:1023D000DB0700D500BE44F002000C49FFF75EF9B0
:1023E000BFF34F8F0A490B4BCA6802F4E0621343F4
:1023F000CB60BFF34F8F00BFFDE700BFD06100008F
:10240000F0610000085D0000F0ED00E0145D0000E8
:1024100000ED00E00400FA05D0E90223D1E9020151
:10242000994208BF90422CBF01200020704700BF96
:102430002DE9F04F87B0039000F060FB40B19B495D
:10244000D1E9002312F1807443F10005C1E9004590
:1024500000210398964C00F06DFB60B1236853B1E6
:10246000944B25681B7823B11DB12B7F002B40F0C6
:102470002D81002323600121039800F05BFB0028DD
:1024800040F0F38005A98C4800F0D8FB18B38B4EC0
:10249000884F894D0378012B00F0C680C0F0CC80B6
:1024A000022B0ED130464FF0000801F0B9F930B1DF
:1024B00080F81C80304601F0B3F90028F8D10123E0
:1024C0003B7005A9284600F0E7FB05A9284600F067
:1024D000B5FB0028DED1794E794FDFF8D09103E0CB
:1024E0000D2855D000232360304601F09FF9236862
:1024F000002800F0B48063B12368D0E90201D3E979
:102500000223994208BF90423BD223681B7F002BD5
:102510007FD1304601F084F90546D5E902233846DB
:10252000CDE9002300F018FBD9E90023DFF89481FE
:1025300012EB000A43F1000BD8E900239B4508BFCA
:10254000924503D21AF1807A4BF1000BDDE90001CC
:10255000B0EB0A0061EB0B01012871F1000313DB02
:10256000DFF864A1504559D8AA684FF496030021BA
:10257000384600F03DFA0028B2D12368002B67D01E
:10258000256007B0BDE8F08F0021384600F0C6FA9C
:10259000484B1B78002BA5D02B7F002BA2D03846B0
:1025A00000F0DAFAD8E90023D9E900ABCDE900233D
:1025B0001AEB00024BF1000310461946DDE9002337
:1025C000994208BF904203D210F1807041F100019E
:1025D000D5E90223994208BF904261D32B6903B920
:1025E0002B77D5E905309847296900293FF47AAF60
:1025F0002B7F002B3FF476AFD5E9022312EB010AC3
:1026000043F1000BC5E902AB2946304601F0F4F86E
:1026100068E72168304601F0EFF87AE7384600F0C5
:102620009BFA00EB0A02A0E741682368994213D0A5
:10263000304601F0FFF844E743681A7F002A7FF430
:1026400040AF01221A774168304601F0D5F838E7EB
:10265000039800F09FF993E70023236031E7002BF4
:102660008FD1039800F09AF98BE71548DFF8548072
:1026700000F072FA0D4BD3E90067D8E9002316EB9E
:10268000000947F1000A9A4508BF9145484651465E
:1026900003D219F180704AF10001C8E90001F1E6A6
:1026A0002946304601F0A8F81CE700BF500800207A
:1026B000D008002058080020B4080020285D000041
:1026C00024000020C8080020FFFFB4001D4800F0CF
:1026D00043FA1D4A1D4BD2E90067D3E9002316EBEC
:1026E000000847F10009994508BF90454046494612
:1026F00003D218F1807049F10001D5E90223994213
:1027000008BF904219D32B6903B92B77D5E905305F
:102710009847296900293FF4ACAE2B7F002B3FF48A
:10272000A8AED5E90223561843F10007C5E90267B0
:102730002946074801F060F89BE62946044801F065
:102740005BF896E62400002050080020C80800200E
:10275000285D000010B5134B13491B68134882B065
:1027600058220193082300F015FA044610B12046C0
:1027700002B010BD0E4A0F4801A900F0B3F804469C
:102780000028F4D101210B4800F0AEF901231946CD
:10279000094A084800F006F9084B012220461A7041
:1027A00002B010BD245D00005C080020B4080020C9
:1027B0003124000024000020FFFF7F005808002083
:1027C0004AB1A1F101010368B1FA81F14909C3E9F4
:1027D0000412002070470720704700BF037F0BB131
:1027E000002070472DE9F048826182B004461F48FE
:1027F0000D4600F0B1F91E4B1E49D3E90023D1E983
:10280000006712EB000B43F1000CBC4508BFB34559
:1028100003D21BF1807B4CF1000C1BEB05022169FC
:102820004CF10003C4E9022379B901A9124800F070
:10283000C9F988B100254460057001A90E4800F06F
:10284000EDF968B902B0BDE8F088256101A90A4830
:1028500000F0B8F90028EDD1042002B0BDE8F088FE
:10286000024800F07DF92846ECE700BF2400002074
:1028700050080020C8080020B408002030B500250A
:1028800083B00446057701A90B4800F09BF978B1A5
:1028900001234460037001A9074800F0BFF908B99B
:1028A00003B030BD054800F05BF9284603B030BDE9
:1028B000042003B030BD00BFB40800202400002075
:1028C00072B6024A1368013313607047D4080020BF
:1028D000034A1368013B136003B962B6704700BF37
:1028E000D4080020F8B5234E4579234C234F0346E6
:1028F000234847F82520801B04EBC506C00836791D
:10290000000486BB1A680D88C2F8085593F90420A4
:102910008978002A1FDB02F1604202F56142490119
:10292000C9B282F8001393F90420164F1649012604
:1029300002F01F05520906FA05F547F822505A79A8
:1029400004EBC20540F003002E7144F83230FEF76C
:10295000A5FE0020F8BD0D4D02F00F0249011544FF
:10296000C9B22976DFE740F002000949FEF796FE7A
:102970000820F8BDD0610000D8080020E008002041
:102980000062000000E100E06C5D0000FCEC00E093
:10299000485D0000036801221A6070470368012245
:1029A0005A607047F0B404684FF480358D40C4F825
:1029B000085306688C00C6F8485304F5A0740668EE
:1029C000A4B20027375182B036590468019601F548
:1029D000A87122F07F42019E44F821200268C2F8CB
:1029E000445313B10368C3F8045302B0F0BC7047FA
:1029F0002DE9F04788464FF48037016807FA08F759
:102A0000C1F848730168C1F80873064600684FEAC8
:102A100088040119D0F80455D1F84005C1F8405593
:102A200004F5A074A4B231684FF0000941F8049095
:102A300082B0401B0959009120F07F4001289A463E
:102A400022F07F45009B0BD1264B4FF4806043F072
:102A500001039847336843F804901B590193019B85
:102A60003368D3F80445C3F844732B1B23F07F432A
:102A7000012B08F5A87817D130681A4B013540F8BA
:102A8000285043F001034FF4806098473268D2F831
:102A900004359C4222D1C2F8447333680020C3F845
:102AA000047302B0BDE8F087336843F828503268F9
:102AB000D2F804156B1ACAF1FF1A013B0AF57F4AD6
:102AC00023F07F439A4509D3002BE4D1013542F826
:102AD00028503268D2F804359942DCD00D2002B07B
:102AE000BDE8F087405D000002680223C2F844336D
:102AF00011B10268C2F80433704700BF0368D3F80D
:102B0000040150B1002282B0C3F80421D3F804318B
:102B10000193019B012002B0704770474FF480334E
:102B2000026803FA01F1C2F848130368C3F80813F6
:102B3000704700BF890001F5A07189B20368585839
:102B400040B100225A5082B05B580193019B012092
:102B500002B07047704700BF0368D3F804057047A0
:102B600090F9043005485A09403203F01F0301214F
:102B700001FA03F340F82230704700BF00E100E0A3
:102B8000024A034B10681B68184700BFD808002092
:102B9000E008002099B110B4B2FBF3F403FB142455
:102BA000A4B244B9C0E9001484608281C381204684
:102BB0005DF8044B704709205DF8044B70470E2008
:102BC000704700BF30B482B050E8013F9DB2C48965
:102BD00025448489A54228BF2D1B0489A54202BF34
:102BE000BFF32F8F002207E0C5EA030540E8015438
:102BF000002CE9D14FF001028DF803200193019BD5
:102C00009DF803200B602AB10B880068184402B0BD
:102C100030BC704702F0FF031846F8E70A884B887B
:102C20009A4201D00020704750E8012FC2EA0242C8
:102C300040E80123002BF7D10120704730B482B067
:102C400050E8023F1FFAA3F5C488A54202BFBFF3B4
:102C50002F8F00220DE0C48925448489A54228BF16
:102C60002D1BC3EA054540E80254002CE8D14FF083
:102C700001028DF803200193019B9DF803200B6056
:102C80002AB14B880068184402B030BC704702F08B
:102C9000FF031846F8E700BF0A884B889A4201D024
:102CA0000020704750E8022FC2EA224240E8022387
:102CB000002BF7D10120704750E8002F0B4640E869
:102CC000003C9CF0000FF7D11046704750E8003FE1
:102CD00003EB010240E8002C9CF0000FF6D11046F7
:102CE000704700BF50E8003FA3EB010240E8002C12
:102CF0009CF0000FF6D11046704700BF012350E84A
:102D0000002F42EA030C40E800C191F0000FF6D119
:102D100060467047002350E800CF0CEA030240E809
:102D2000002191F0000FF6D160467047B8B130B481
:102D3000D0E90112521A0468D2B2531E2160DBB2EC
:102D400042B101680A685C1E551C0D601370E3B245
:102D5000FF2BF6D103680020187130BC70470E209D
:102D6000704700BF38B504460020FFF7A9FDD4E93D
:102D700000311A688A4215D9511E19602168A3686A
:102D80000868258A12F8012CE4681B1A0879DBB25E
:102D9000984205FB024400D20B710020FFF798FD1A
:102DA000204638BD0024F8E738B5054600200C461B
:102DB000FFF786FD2A681368591C1160E9682A8AA2
:102DC000641AB4FBF2F41C700020BDE83840FFF731
:102DD0007FBD00BF826842B110B5044643690168F7
:102DE000006998470023A36010BD70470EB400B57A
:102DF00082B0039929B102AA04AB42F8043D00F065
:102E0000A9F802B05DF804EB03B070472DE9F04F6C
:102E1000924683B051450F4605461E46DDE90CB289
:102E2000C0F092800B464FF00108B3FBFAF39A45CD
:102E300008F10108F9D9B04538BFB04612F00109D0
:102E4000A96802D1BBF1000F54D1012402E0013E78
:102E50000AFB04F4012EFAD8B7FBF4F08245F7D947
:102E60003B4E02E0A968B7FBF4F0335C2A680A2BFA
:102E700004FB107702EB010E01F1010029D0A860DC
:102E80008EF80030D5E90131994202D32846FFF788
:102E9000A1FFB4FBFAF4002CE4D1B9F1000F15D076
:102EA000BBF1000F12D0C34510D92024AB682A68AB
:102EB000591CA960D454D5E901329A420BF1FF3B69
:102EC00014D2BBF1000F01D0C345EFD103B0BDE870
:102ED000F08FA8604FF00D005054D5E901108842E2
:102EE0001DD2296801EB000E0130C8E72846FFF724
:102EF00071FFE6E7930722D42024C345A5D92B68A8
:102F00004A1CAA605C54D5E9013199420BF1FF3BA0
:102F100010D2BBF1000F98D0C345F0D195E72846F9
:102F20000193FFF757FFAA682968019B501C01EB2A
:102F3000020EA4E72846FFF74DFFA968E9E7002E37
:102F40000CBF30242024D8E74FF0010873E700BFFE
:102F5000805D0000002900F0B9822DE9F04F0546A0
:102F600087B091460C460E78DFF8C8A64FF00D0BDF
:102F700013E0AB6828680A2E03F1010200EB03019D
:102F800000F04B82AA600E70D5E901329A4280F0BF
:102F90001B812678002E00F01E810134002E00F0E7
:102FA0001A81252EE5D12346002713F8012B2D2A5F
:102FB00000F0E380302A00F0E4802B2A00F0D48077
:102FC0002A2A00F00D81A2F13006F1B2092903D9B5
:102FD0007DE2A1F130060346184606EB860110F8A3
:102FE000012BA2F13004092C02EB4101F1D92E2A68
:102FF00000F002814FF00008013301E013F8012BCB
:1030000002F0FB0168291C46F8D0253A532AC0D8A3
:1030100001A353F822F000BF03340000932F0000F7
:10302000932F0000932F0000932F0000932F000098
:10303000932F0000932F0000932F0000932F000088
:10304000932F0000932F0000932F0000932F000078
:10305000932F0000932F0000932F0000932F000068
:10306000932F0000932F0000932F0000932F000058
:10307000932F0000932F0000932F0000932F000048
:10308000932F0000932F0000932F0000932F000038
:10309000932F0000932F0000932F0000932F000028
:1030A000932F0000932F0000932F0000932F000018
:1030B000932F0000932F0000932F0000932F000008
:1030C000932F0000932F0000932F0000932F0000F8
:1030D000932F0000932F0000932F0000932F0000E8
:1030E000932F0000E7330000932F0000932F000080
:1030F000932F0000932F0000932F0000932F0000C8
:10310000932F0000932F0000932F0000932F0000B7
:103110008B3100006D330000932F0000932F0000CF
:10312000932F0000932F00006D330000932F0000B9
:10313000932F0000932F0000932F0000932F000087
:10314000932F0000D5320000932F0000932F000032
:103150004D320000932F000031320000932F000009
:10316000932F0000E733000047F004071C46234676
:1031700013F8012B2D2A7FF41DAF47F001071C46E1
:10318000F5E747F002071C46F1E7D9F800301A1DB1
:10319000C9F800201E78AB680A2E0CD12A68591C89
:1031A000A96002F803B0D5E90123934203D328466E
:1031B000FFF710FEAB682A68591CA960D654D5E900
:1031C00001329A42FFF4E5AE2846FFF703FE267867
:1031D000002E7FF4E2AE2B7B23BB07B0BDE8F08F5F
:1031E000D9F80020111DC9F80010166862782E2A3F
:1031F00004F102007FF4FEAE5A78A2F13003092BED
:1032000000F2BD814FF0000808EB880802EB480887
:1032100010F8012FA2F13003092BA8F13008F3D9DF
:103220000346E9E6284607B0BDE8F04FFFF7D2BDF8
:10323000D9F800301A1DC9F80020196801974346D3
:1032400000960A222846FFF7E1FDA2E6D9F80030F1
:103250001A1DC9F80020D3F80080FB0700F1E880B0
:10326000B8F1000F00F0A181404602F0FEFA0746D7
:10327000BE4215D9A6B1202100E08EB1AA682B6804
:10328000501CA8609954D5E901329A4206F1FF36E4
:1032900004D328460391FFF79DFD0399BE42ECD16C
:1032A00008F1FF3818F8016F002E3FF472AEAB68DA
:1032B00028680A2E03F1010200EB030100F090815F
:1032C000AA600E70D5E901329A42EBD32846FFF787
:1032D00081FDE7E7D9F80020131DC9F80030AB687D
:1032E00029681768581C3022A860CA54D5E9012300
:1032F000934280F0E6802A68581C7821A860D15457
:10330000D5E90123934280F0D7800F2F03D93A46A5
:1033100012090F2AFCD84FF080560DE0AA6081F800
:103320000080D5E901329A4202D32846FFF752FDC8
:1033300036093FF42EAEAB68B7FBF6F21AF80280FE
:103340002868B8F10A0F06FB127700EB030103F1BE
:103350000102E3D1AA6000F803B0D5E901329A4234
:1033600080F049812B6899180132D7E7D9F80030ED
:103370001A1DC9F80020196881EAE173A3EBE17313
:10338000092B40F30E81AA480122A0FB03C3DB08EE
:10339000092B02F10102F8DC4245134638BF4346CF
:1033A000039307F00203002E40F09580002B00F0FD
:1033B000B780B8F1000F00F0F680F80740F1B08058
:1033C0000029C0F2FF807A0700F1C88007F00303EC
:1033D000022B00F0A780CDE9006743460A22284669
:1033E000FFF714FDD5E5D9F800301A1DC9F8002003
:1033F000196801974346009610222846FFF706FDFC
:10340000C7E5AB682A68581C2521A860D154D5E9C6
:1034100001329A42FFF4BDADD6E6AA6000F803B0CF
:10342000D5E901329A423FD2296811440132A9E517
:103430004146A1EB080311F8017BD7B1AB68D5F881
:1034400000C00A2F03F101020CEB030000F0AF8073
:10345000AA600770D5E901329A42EAD3284603915F
:10346000FFF7B8FC0399A1EB080311F8017B002FCB
:10347000E4D19E427FF68DAD202702E0002E3FF47E
:1034800088ADA9682A68481CA8605754D5E901216D
:10349000914206F1FF3604D328460393FFF79AFCC6
:1034A000039BB342EAD174E52846FFF793FCAB686F
:1034B00029685A1C194465E52846FFF78BFCAB6860
:1034C00023E72846FFF786FCAB6814E770471846E9
:1034D000002623468BE5002920DB7A071ED41BB18A
:1034E000B8F1000F3FF46CAFF8073FF569AFBEB11C
:1034F000039BB342BFF464AF2023AA68501CA860AA
:1035000028688354D5E90102824206F1FF3640D291
:1035100036B1039AB242F0D1164651E7013EDEE7DA
:1035200000264DE7B8F1000F7FF455AF002E6AD0AA
:10353000039BB342BFF44FAF3023AA68501CA8606E
:1035400028688354D5E90102824206F1FF3618D279
:10355000002E58D0039AB242EFD13CE7AA68531C20
:10356000AB602B682B209854D5E901329A42FFF4C6
:103570002DAF28460491FFF72DFC049926E703465A
:1035800038E52846CDE90413FFF724FCDDE90413F0
:10359000DEE72846CDE90413FFF71CFCDDE9041340
:1035A000B6E70122F8E646460AE7474660E6AA6023
:1035B0000CF803B0D5E901329A4226D22B6898184C
:1035C000013245E7AA68531CAB602B682D20985444
:1035D000D5E901329A42C1F10001FFF4F7AEC8E724
:1035E000AA6000F803B0D5E901329A4217D22968DF
:1035F0001144013264E62846FFF7ECFBA9682B680A
:103600004A1C19448AE60026E5E628460391FFF79E
:10361000E1FBA8682B680399421C184418E7284668
:10362000FFF7D8FBAB6829685A1C194448E600BF6D
:10363000CDCCCCCC805D0000FFF778BB2DE9F0410C
:10364000058ACE1C043D2E440746B6FBF5F6FFF76F
:1036500089FB78B3F6B24FF48073013E0446C5800F
:103660000760838027D08046002509E06379AE4259
:1036700003F101036371C8F80000076080461AD0A7
:103680003846FFF76FFB01350028EFD16679721ECF
:1036900014D02346013082421B68FBD11F684EB113
:1036A000002523682146013538461C46FFF77CFB80
:1036B000AE42F6D100242046BDE8F0812768EFE74E
:1036C00004300121FFF702BBF8B5012104460430A4
:1036D000FFF708FBC0B200B1F8BD6679721E12D0C8
:1036E0002346013082421B68FBD11F68002EF3D0B5
:1036F000002523682146013538461C46FFF754FB58
:10370000AE42F6D1F8BD2768F2E700BF2DE9F843D5
:10371000C788467907FB06F6043E02EB030C044615
:10372000664503F1040015468846B0FBF7F238BF42
:10373000F51A07FB120012B1013A2468FCD13E1AB7
:10374000AE4228BF2E469DB14FF000090430AD1B9C
:103750002044324608EB090102F074F8AF42B1444C
:1037600024683E464FF0000028BF2E46002DEDD1C4
:10377000BDE8F8832DE9F843C7884679154607FB6D
:1037800006F6043E05EB030C1A1D66450446884602
:10379000B2FBF7F038BFF51A07FB102110B1013862
:1037A0002468FCD17E1AAE4228BF2E469DB14FF050
:1037B000000904312144AD1B324608EB090002F038
:1037C00041F8AF42B14424683E464FF0000128BFA3
:1037D0002E46002DEDD1BDE8F88300BF826800239E
:1037E000936082681361826853618268D3608268E3
:1037F000536082681360704770B54468064620685D
:103800000D4618B908E02468206828B1B368294635
:1038100098470028F7D120682860256070BD00BF58
:103820004368186808B102681A60704743681868EE
:10383000704700BF4068036873B18B4203D107E053
:10384000814204D0034618680028F9D17047184611
:103850000B680360012070471846704730B585B08B
:10386000047845688DF80040D0E90240064A074BCD
:10387000039053F8213001958DF8084052F821103B
:103880006846984705B030BDE4080020EC080020E9
:1038900030B585B0047845688DF80040D0E9024025
:1038A000064A074B039053F8213001958DF80840E4
:1038B00052F821106846984705B030BDE408002052
:1038C000EC0800202DE9F043DFF8748006784B7F88
:1038D00008F806300D46074696460FCD89B06C466F
:1038E0000FC495E80F003D78DFF85890DFF858C016
:1038F00018F8055049F826E084E80F004CF8260037
:10390000049665B1BEF1000F0B4A694607F1040049
:1039100008BF002201F02EF809B0BDE8F083BEF127
:10392000000F064A694607F10C0008BF002200F0AC
:10393000A1FD09B0BDE8F0835D38000091380000BA
:10394000380A0020EC080020E408002030B5204CA4
:1039500094F86A5083B0002D36D14FF0FF332946DA
:10396000062204F16400C4E90033C4E90233C4E967
:103970000433C4E90633C4E90833C4E90A33C4E9AB
:103980000C33C4E90E33C4E91033C4E91233C4E97B
:103990001433C4E91633236601F05FFF0D4A0E4B62
:1039A0000E491D60C02082F80603402010601B688D
:1039B000019301984FF000430122284684F86A20C1
:1039C000C1F8043303B030BD082003B030BD00BFE0
:1039D000F408002000E100E07C610040006000404D
:1039E000034B93F86A00003018BF0120704700BFF6
:1039F000F4080020F0B5744B1C1894F93050002DD9
:103A00006ADA8E78C6F340069646002E5ED11D6AAD
:103A1000013500F0C48009240C2553F824700137C7
:103A20005DD004F1010C53F82C70013700F0C28016
:103A3000A71CAF4248D253F82720013200F0BC80C7
:103A400004F1030CAC453FD253F82C70013700F061
:103A5000B18004F1040CAC4536D253F82C70013718
:103A600000F0A88004F1050CAC452DD253F82C7061
:103A7000013700F09F8004F1060CAC4524D253F8C6
:103A80002C70013700F0968004F1070CAC451BD276
:103A900053F82C70013700F08D8004F1080CAC4510
:103AA00012D253F82C70013700F0848004F1090C15
:103AB000AC4509D253F82C7001377BD00A34AC42A4
:103AC00002D2DC6A013409D00420F0BD1D68013542
:103AD00074D001240825A0E70820F0BD0B241F188E
:103AE00065B243F824E087F83050002E5ED08A7823
:103AF00054071AD4D60741D41F284A7887BF334EBB
:103B000000F01F0404464FF0A04604F5E074920054
:103B100046F824202E4EC40800F0070C375D012221
:103B200002FA0CF23A4332558A780C7812F002020B
:103B300009D1083D2B44104693F8602042EA8414D2
:103B400083F86040F0BDAB0003F1804303F5C04350
:103B50000202D3F8101521F44F3121F44071C3F85B
:103B600010152404D3F8101504F4403402F47C52E8
:103B700022430A43C3F810250020F0BD1F2887BF49
:103B8000124A00F01F0404464FF0A04202EB8402E8
:103B9000D2F8004724F00204C2F80047BAE708262A
:103BA00084F83060C3F820E0354634461C4484F87D
:103BB00058009CE7644692E73C4690E700251A606F
:103BC00084F8305093E700BFF40800200003005051
:103BD0005809002070B43A4D2E1883B096F9303051
:103BE000072B20DD2B4493F858309B09032B45D03D
:103BF000012B14BF4FF440314FF400311F284DD931
:103C000000F01F002F4B03EB8000D0F8002722F4B8
:103C10004032C0F80027D0F800370B43C0F8003717
:103C200003B070BC7047DAB2072AF9D8980000F1E7
:103C3000804000F5C04003F14002D0F810459200EA
:103C400092B244F0010402F18042C0F8104502F53E
:103C5000C04200200190019C10600029E0D096F93C
:103C6000302055F82220002ADAD00122164902FA23
:103C700003F3C1F8043303B070BC70471F2810D998
:103C8000104BD3F8103500F01F00C34013F0010FA4
:103C90000CBF4FF400314FF44031B3E74FF0A04375
:103CA000B1E74FF0A0421346D2F81025C24012F0FF
:103CB000010F14BF4FF440314FF40031A3E700BFB0
:103CC000F408002000030050006000401F288ABF55
:103CD000054B4FF0A04300F01F00D3F8103523FA36
:103CE00000F000F001007047000300502DE9F0479C
:103CF000002388B0CDE90233CE4A1668012E00F0C9
:103D00003B821E46CC4B1A68012A00F02782CB4B1F
:103D10001A68012A00F01482C94B1A68012A00F0BF
:103D20000182C84B1A68012A00F0EE81C64B1A685E
:103D3000012A00F0DB81C54B1A68012A00F0C88116
:103D4000C34B1A68012A00F0B581C24B1A68012AD8
:103D50000FD100221A601B6801934FF0A042019B13
:103D6000D2F81025BC4B0292D3F81035039346F0DD
:103D7000004616F0FF0F1AD0B84F00240125A3000B
:103D800003F180432E4203F5C0434FEA45050BD0B3
:103D9000D3F8100557F82420D3F81015C0F30520E8
:103DA000C1F3014102B190470134082CE7D1002E44
:103DB00002DB08B0BDE8F087A84CA74F4FF0FF33F7
:103DC000CDE9063394F960300DF1100800225D1C36
:103DD000C8F8042004924FF0010600F0F4805FFA66
:103DE00083FC2CF0C00008AB4FEAD00903EB090EAE
:103DF0000CF007031EF8082C06FA03F312EA030579
:103E000021D022184FEA9C1192F9302054F8222038
:103E1000002A00F02981032900F028811F2800F2E0
:103E2000F98005464FF0A04C0CEB850C1EF8185C91
:103E3000DCF800E71D40CEF3014E40F0DF80BEF11C
:103E4000030F00F0BF8194F96130581C32D0DBB20F
:103E500023F0C00008AA4FEAD00E02EB0E0C03F0CC
:103E600007011CF8082C06FA01F912EA090F21D003
:103E70002218990992F9302054F82220002A00F0E3
:103E8000FB80032900F0FB801F2800F2E980034635
:103E90004FF0A04E0EEB83031CF818ECD3F800C7CC
:103EA0001EEA090FCCF3014C40F0B880BCF1030FBF
:103EB00000F0AE8194F96230591C30D0DBB223F0AF
:103EC000C00008AA4FEAD00E02EB0E0C03F0070167
:103ED0001CF8082C06FA01F912EA090F1FD0221863
:103EE000990992F9302054F82220002A00F0D88055
:103EF000032900F0D8801F287CD803464FF0A04E3D
:103F00000EEB83031CF818ECD3F800C71EEA090F68
:103F1000CCF3014C64D1BCF1030F00F0658194F93E
:103F200063305A1C34D0DBB223F0C00008AA4FEA39
:103F3000D00E02EB0E0C03F007021CF8081C06FA68
:103F400002F2114224D004EB0009990999F930904A
:103F500054F82990B9F1000F00F09880032900F07F
:103F600098801F288BBFBE464FF0A04E03F01F0362
:103F700003460EEB83031CF818ECD3F800C71EEAC7
:103F8000020FCCF3014C20D1BCF1030F00F00181F2
:103F9000002D3FF40EAF4FF0A0430299D3F8103537
:103FA000D7F81025994203D1039991423FF401AF0C
:103FB000DDE90401CDE9023294F960305D1CCDE900
:103FC00006017FF40CAF00253DE7BCF1020FDFD105
:103FD000032900F03481B9F1000F40F0F180D7E7F8
:103FE000BCF1020F9BD1032900F02681002A96D054
:103FF000904794E703F01F03BE4681E7BEF1020F2E
:10400000E1D1032900F021810025002A3FF41BAFF4
:10401000904718E70CF01F05BC4605E7BCF1020FFE
:104020007FF448AF032900F00D81002A3FF442AF2E
:1040300090473FE700610040046100400861004094
:104040000C610040106100401461004018610040A4
:104050001C6100407C61004000030050F408002017
:1040600003F01F03BE4615E70329ACD118F8095029
:104070001D4308F80950D1E603297FF41BAF18F857
:104080000EA04AEA090A08F80EA0FDE603297FF40B
:104090007FAF18F80EA04AEA020A08F80EA060E7FF
:1040A00003297FF43CAF18F80EA04AEA090A08F881
:1040B0000EA020E7664AD2F8042317067FF545AE26
:1040C00000221A601B680093009B46F080063CE6C5
:1040D0005F4AD2F8042352067FF532AE00221A60FE
:1040E0001B680093009B46F0400629E6584AD2F828
:1040F000042391067FF51FAE00221A601B6800930F
:10410000009B46F0200616E6514AD2F80423D0065A
:104110007FF50CAE00221A601B680093009B46F0EE
:10412000100603E64A4AD2F8042314077FF5F9ADD6
:1041300000221A601B680093009B46F00806F0E519
:10414000434AD2F8042355077FF5E6AD00221A60F2
:104150001B680093009B46F00406DDE53C4AD2F85C
:10416000042397077FF5D3AD00221A601B680093E4
:10417000009B46F00206CAE53549D1F8041311F058
:10418000010104D0136013680093009BBAE50E464A
:10419000B8E503297FF41FAF4FF4003CD3F80027A4
:1041A00022F44032C3F80027D3F80027013542EA51
:1041B0000C02EDB2C3F80027B9F1000F3FF4EBAEEB
:1041C000C847E5E603297FF420AF4FF40035DCF85B
:1041D000003723F44033CCF80037DCF800372B43AA
:1041E000CCF80037012510E703297FF4FFAE4FF428
:1041F000003ED3F800C72CF4403CC3F800C7D3F806
:1042000000C701354EEA0C0CEDB2C3F800C7EDE66D
:1042100003297FF40AAF4FF4003ED3F800C72CF413
:10422000403CC3F800C7D3F800C701354EEA0C0C78
:10423000EDB2C3F800C7F8E64FF4403ED9E74FF4BB
:10424000403CABE74FF4403EE7E74FF44035BEE774
:1042500000600040014B1B68184700BF6009002048
:1042600038B50C4B984201D0002038BD00200D46D7
:10427000FEF726FB084B1C7924B10020FEF728FB33
:10428000112038BD012220461D601A71FEF720FB67
:10429000204638BD0020004060090020034B9842B2
:1042A00003D1034B00221A601A71704700200040AE
:1042B0006009002030B56D4AD2F8043399058BB0FF
:1042C00068D5D2F82431002B64D00023C2F8243101
:1042D000D2F8243101934FF40171654B0198C2F873
:1042E000081393F8291009B9012151605F4902228E
:1042F0008DF81820D1F88024C1F880249869D968F5
:1043000009920022CDE90710C3E90622D3E900147F
:1043100006A8A047554AD2F81C31CBB1544B586976
:10432000196A88426BD851490022C1F81C21D1F882
:104330001C1102910299596951B1586999688DF817
:10434000182008905A61079106A8D3E900129047F7
:10435000464AD2F84431DBB10021454BC2F8441142
:10436000D2F8440193F829100090009809B1012176
:1043700011609A6962B10022586AD9689A61012273
:10438000CDE907108DF8182006A8D3E90012904750
:104390000BB030BD354AD2F804335B07BAD5D2F83A
:1043A0000831002BB6D0324B996900293CD000214E
:1043B000C2F80811D2F8081104910499D868596A12
:1043C000D2F8182542545A6A996901325A625A6AD7
:1043D0008A429FD1DA691968002A2ED0D8685D6AAE
:1043E0001C699A61079000220120DC60DA615A6240
:1043F0008DF8180008955B6806A898478AE793F837
:10440000281001F0FF0000298DD1C2F81C01D2F85C
:104410001C11039103999C68186A196A205C013188
:104420001962C2F81C0593E7C2F80811D2F8080116
:1044300005900598D2F81825C9E793F8292012B9F4
:104440000A4A01205060094A4FF40170C2F808037B
:10445000586ADA6808900024012007928DF8180045
:104460005A689C6106A8904754E700BF00200040AE
:10447000680900202DE9F041714F06792C2505FBD4
:10448000067582B095F82A30002B40F09A800D46D0
:1044900004466C4900689046FFF7E2FE002840F0B1
:1044A0008C802B68591C19D01F2B4FF001028ABF3A
:1044B00065494FF0A04103F01F0302FA03F3C1F86E
:1044C00008352B681F2B86BF03F01F035E4A4FF091
:1044D000A04203F5E073032142F823106B685A1CD5
:1044E0000BD01F2B86BF03F01F03574A4FF0A0428B
:1044F00003F5E073002142F823102368AA69C3F88A
:104500002425297D6B7D22680B43C2F86C35D5E9E3
:1045100000122368C3F81425C3F80C152B7D012B5A
:1045200053D02C2303FB06F3FA18C2F804802A693F
:10453000FA50B8F1000F2DD022682B7F434D002197
:10454000C2F81C11D2F81C2100922268DDF800C0CC
:10455000C2F84411D2F84411226801910199C2F8BD
:1045600004532168090B4AB25B01002ADBB261DB0C
:1045700002F1604202F5614282F800332368344D53
:104580001B0B5AB2520903F01F03012101FA03F376
:1045900045F822302C23246803FB067300220425EF
:1045A0000121C4F8005583F82A10C3E9062283F8D4
:1045B00029205A6102B0BDE8F081112002B0BDE8A7
:1045C000F081082002B0BDE8F081AB68591C0BD027
:1045D0001F2B86BF03F01F031B4A4FF0A04203F5B9
:1045E000E073002142F82310EB685A1C1BD01F2BEC
:1045F0004FF001028ABF14494FF0A04103F01F039E
:1046000002FA03F3C1F80835EB681F2B88BF03F0EB
:104610001F0303F5E0738CBF0B4A4FF0A042032148
:1046200042F82310EB682268A968C2F80835C2F87E
:10463000101576E7074A01F00F010A4413769DE74B
:1046400068090020B542000000030050800002000D
:1046500000E100E0FCEC00E0F8B53A4F04790268B4
:104660002C2303FB047300215B68C2F8001583B19F
:104670000368354AC3F808230368344D1B0B5AB24C
:104680005209203203F01F03012101FA03F345F818
:10469000223003684FF0FF3CD3F80C65D3F8145573
:1046A000D3F80825D3F81015C3F814C5C3F80CC502
:1046B00003686645C3F808C5C3F810C50CD01F2EA3
:1046C00086BF06F01F06224B4FF0A04306F5E076AA
:1046D0004FF0020C43F826C06E1C0BD01F2D86BF76
:1046E00005F01F051A4B4FF0A04305F5E0750226B3
:1046F00043F825604D1C0BD01F2986BF01F01F0118
:10470000134B4FF0A04301F5E071022543F821500F
:10471000531C0BD01F2A86BF02F01F020C494FF01A
:10472000A04102F5E072022341F822300068FFF751
:10473000B5FD2C2303FB0474002384F82A30636046
:10474000F8BD00BF680900208402020000E100E01B
:1047500000030050F0B5314E05792C2303FB0563AF
:1047600085B05C69002C53D15A6199601C6283F852
:1047700028400268C2F81C41D2F81C11026802915C
:104780000121029F91600268D3F808C0C2F81C4161
:10479000D2F81C1101910199D3F820E0196A5F68E1
:1047A0001CF80EE001311962C2F81CE517B1204671
:1047B00005B0F0BD5C691A6A0168944203D819E03B
:1047C00093F828203ABBD1F81C21002AF8D0C1F870
:1047D0001C71D1F81C210392039AD3F820E01A6AC5
:1047E0001CF80EE001321A62C1F81CE51A6A944204
:1047F000E9D80168D1F81C31002BFBD00123CB6034
:1048000000202C2303FB056500236B6105B0F0BD80
:10481000112005B0F0BD0F20F3E700BF68090020AC
:10482000F0B5524BD3F824218BB0002A6ED0002172
:10483000C3F82411D3F82421049202228DF8182001
:10484000049AD3F880044A4AC3F880040990D3F844
:104850003C05D3680890C2E90611079311685368B4
:1048600006A89847414BD3F84421BAB10021404AE9
:10487000C3F84411D3F8444190690394039C68B190
:10488000D3F83C35D06808930123C2E9061107909C
:104890008DF8183006A8D2E900139847334BD3F8A7
:1048A0002021BAB10021C3F82011D3F820210292AF
:1048B00001202F4A029CD860506958B1D3F84C05AA
:1048C000936808908DF818105161079306A8D2E9F3
:1048D00000139847254BD3F85821AAB10021C3F8FB
:1048E0005811D3F85801224A01900198506958B1E3
:1048F000D3F84C05936808908DF818105161079310
:1049000006A8D2E9001398470BB0F0BDD3F81011F8
:104910000029A7D0C3F81021D3F81011144805912D
:1049200005998169D3F83C458C429BD1C569C7681C
:10493000D0E900168DB1D3F800C285612CF02005B6
:10494000C261C3F800520369C3600122CDE9077454
:104950008DF8182006A8B04784E701238561CDE9CA
:1049600007748DF8183006A8B0477BE70020004098
:10497000940900202DE9F04307797E4E4FEAC708DD
:1049800008EB070306EB830387B093F82030002B76
:1049900040F0B0800D460446774900689146FFF725
:1049A0005FFC002840F0A2802B68591C19D01F2BF7
:1049B0004FF001028ABF71494FF0A04103F01F037D
:1049C00002FA03F3C1F808352B681F2B86BF03F0EA
:1049D0001F036A4A4FF0A04203F5E073032142F837
:1049E00023106B685A1C0BD01F2B86BF03F01F03CC
:1049F000624A4FF0A04203F5E073002142F8231011
:104A00002368AA69C3F82425297D6A7D23680A439F
:104A1000C3F86C25D5E900312268C2F80C35C2F81C
:104A200014152B7D012B69D008EB07029200B318F7
:104A3000C3F804902B69B350B9F1000F45D0216839
:104A40002A7F4F4D0023C1F81031D1F81011019188
:104A50002168DDF804C0C1F82031D1F8201102919D
:104A60002168DDF808C0C1F82431D1F82411039180
:104A70002168DDF80CC0C1F84431D1F8441104912B
:104A80002168DDF810C0C1F85831D1F858112368F9
:104A900005910599C3F804532168090B53014AB2E3
:104AA000002ADBB25FDB02F1604202F5614282F86C
:104AB00000332368334D1B0B5AB2520903F01F0316
:104AC000012101FA03F345F822304744226806EB3E
:104AD0008706002301240821C2F8001586F820402B
:104AE000C6E90633736107B0BDE8F083112007B053
:104AF000BDE8F083082007B0BDE8F083AB68591C1F
:104B00000BD01F2B86BF03F01F031C4A4FF0A0429F
:104B100003F5E073002142F82310EB685A1C1BD008
:104B20001F2B4FF001028ABF14494FF0A04103F040
:104B30001F0302FA03F3C1F80835EB681F2B88BF87
:104B400003F01F0303F5E0738CBF0C4A4FF0A04243
:104B5000032142F82310EB682268A968C2F80835DF
:104B6000C2F8101560E7084A01F00F010A441376F5
:104B70009FE700BF94090020214800000003005077
:104B80001003420000E100E0FCEC00E0F0B5067923
:104B9000474C0368F500AA1904EB820283B05268FF
:104BA00082B1444AC3F808230368434F1B0B5AB22F
:104BB0005209203203F01F03012101FA03F347F8E1
:104BC00022300368D3F8002222F02002C3F800222A
:104BD00002680123536002680021C2F85811D2F81C
:104BE0005811026801910199D3600268D2F85831D6
:104BF000002BFBD00023C2F8003503684FF0FF3EC6
:104C0000D3F80CC5D3F81475D3F80825D3F81015CC
:104C1000C3F80CE5C3F814E50368F445C3F808E5E8
:104C2000C3F810E50DD0BCF11F0F86BF0CF01F0CB0
:104C3000DFF888E04FF0A04E0CF5E07C02234EF840
:104C40002C307B1C0CD01F2F86BF07F01F07DFF80E
:104C50006CC04FF0A04C07F5E07702234CF82730EA
:104C60004F1C0BD01F2986BF01F01F01134F4FF0BF
:104C7000A04701F5E071022347F82130531C0BD007
:104C80001F2A86BF02F01F020C4B4FF0A04302F513
:104C9000E072022143F822100068FFF7FFFA354462
:104CA00004EB8504002384F82030636003B0F0BD7A
:104CB000940900201003420000E100E000030050CE
:104CC00001F06043B3F1005F2CD1F0B40579264EBA
:104CD000EF007C1906EB840482B0636923BB626138
:104CE000A1600268C2F82031D2F820C10268CDF874
:104CF00004C0DDF804C0C2F85831D2F8582100923F
:104D00000268DDF800C0D4F814C0C2F84415C2F837
:104D100048C502680121916062684AB1184602B034
:104D2000F0BC704710207047112002B0F0BC7047F3
:104D3000036800E0B2B9D3F82011D3F85821002954
:104D4000F8D07AB90122DA600268D2F85831002B23
:104D5000FBD000203D4406EB85060023736102B0C2
:104D6000F0BC70470F20F5E7940900200220FDF702
:104D7000C9B800BF2DE9F0410C460546FDF7DCF847
:104D8000B8B9012C17D00BD3022C12D1134B5C787D
:104D90007CB1134B1B6863B12046BDE8F041184756
:104DA0001048FDF76BFD0D4A0F4B94781B78A3421A
:104DB000EED0BDE8F081094E737834781BB90A4B08
:104DC000B2781A70E4E7094F06483A464FF480413A
:104DD000FDF704FD0028F2D13D70F0E7200A002025
:104DE0002C0A0020E0090020340A0020B809002025
:104DF00010B50078FDF7A0F840B9054B587828B1F8
:104E0000044B1B6813B1BDE81040184710BD00BF2C
:104E1000200A00202C0A0020B44B1B68DB0700D4BA
:104E2000704770B5B24DB34E2B7834786BB1B24B3E
:104E30001B7800202870002B4BD0FDF71FF80120B5
:104E4000FDF71CF80320FDF719F8172C40D8DFE810
:104E500014F0B600F400F400DC000801CA001301ED
:104E6000EE0050004300500043006100180018009D
:104E7000180018001800660077008B009F005D0086
:104E80005D009E48FDF7FAFCD4F11104054600F0E0
:104E90000081002840F0FD80012C13D0C82303FBC3
:104EA00004F44FF47A704FF400430021C3FB040173
:104EB0004FF4FA62002300F0EFFC2A4601468F48C7
:104EC000FDF78CFC0220FCF7C5FF8B4B01221A700A
:104ED00070BDFCF7E7FFB8E7012318462B70FDF71C
:104EE00011F800224FF400518548BDE87040FDF7ED
:104EF00075BC012318462B70FDF704F8002240F220
:104F000066617F48BDE87040FDF768BCFCF7E2FFD2
:104F1000347070BDFCF7DEFF0C23337070BD764B30
:104F20001B78002B00F0BF800020FCF7A7FF0120BA
:104F3000FCF7A4FF0320FCF7A1FF1223337070BD20
:104F40006D4B1B78002B00F0B1800020FCF796FF22
:104F50000120FCF793FF0320FCF790FF0020FCF7F3
:104F600079FF1323337070BD634B1B78002B00F067
:104F7000AD800020FCF782FF0120FCF77FFF0320BB
:104F8000FCF77CFF0120FCF765FF1423337070BD34
:104F9000594B1B78002B00F083800020FCF76EFF3C
:104FA0000120FCF76BFF0320FCF768FF0020FCF7F3
:104FB00051FF0120FCF74EFF1523337070BD4E4B9F
:104FC0001B78002B00F08A800020FCF757FF01209F
:104FD000FCF754FF0320FCF751FF4948FDF74EFC56
:104FE0000023337070BD0020FCF720FF002860D044
:104FF0000020FCF743FF05233370002240F6CD412B
:105000003F48BDE87040FDF7E9BB0020FCF70EFF0C
:1050100000285ED00020FCF731FF43F23331032338
:10502000337000223648BDE87040FDF7D7BB002042
:10503000FCF710FF0723337070BD0020FCF7F6FE6D
:10504000D0B30020FCF71AFF022C47F2333118BF0F
:105050004FF48031347000222948BDE87040FDF7DC
:10506000BDBB0020FCF7E2FED8B30020FCF706FF32
:105070004FF480310423D3E70020FCF743FF0623DD
:105080003370002240F266611D48BDE87040FDF7B4
:10509000A5BB0220FCF7F2FE174B00221A7070BD70
:1050A000FCF700FF82E7FCF7FDFE46E7FCF7FAFE9F
:1050B00054E7FCF7CFFE9EE7FCF7CCFE41F69A11D1
:1050C00040F6CD43022C08BF1946C3E7FCF7EAFEC1
:1050D00058E7FCF7BFFE40F6CD41A0E7FCF7E2FE43
:1050E0007BE7FCF7B7FE41F69A11C3E7240A0020DC
:1050F000280A0020300A0020B9090020C009002039
:10510000000A002038B5C54B1C6814F0010401D119
:10511000204638BDC24C2378054663B1C14B1B788D
:105120000020207023B3FCF7A9FE0120FCF7A6FEA7
:105130000320FCF7A3FE172D00F26D81DFE815F0C8
:10514000C300EC00EC001001D9002301020136017C
:1051500028001B0028001B006A007100710071000C
:10516000710071009A00AD0035004B0064006400CE
:10517000FCF798FEDFE7012318462370FCF7C2FE18
:1051800000224FF40051A848BDE83840FDF726BB87
:10519000012318462370FCF7B5FE002240F2666139
:1051A000A148BDE83840FDF719BB9E4B1B78002B8A
:1051B00000F016810020FCF761FE0120FCF75EFE86
:1051C0000320FCF75BFE0120FCF744FE974B142202
:1051D0001A7000249CE7934B1B78002B00F003818E
:1051E0000020FCF74BFE0120FCF748FE0320FCF7F3
:1051F00045FE0020FCF72EFE0120FCF72BFE8B4B1A
:1052000015221A70002483E7FCF764FE874B002404
:105210001D707DE7FCF75EFE844B0C221A700024A3
:1052200076E78348FDF72AFB0446D5F1110000F02C
:10523000C580002C40F0C280012814D0C82505FB91
:1052400000F54FF400434FF47A700021C3FB0501D1
:105250004FF4FA62002300F01FFB22460146744817
:10526000FDF7BCFA04460220FCF7F4FD6D4B012269
:105270001A704DE76B4B1B78002B00F0AE800020BE
:10528000FCF7FCFD0120FCF7F9FD0320FCF7F6FD1F
:10529000664B12221A7000243AE7624B1B78002BEF
:1052A00000F093800020FCF7E9FD0120FCF7E6FD0B
:1052B0000320FCF7E3FD0020FCF7CCFD5B4B132241
:1052C0001A70002424E7574B1B78002B00F08E80C7
:1052D0000020FCF7D3FD0120FCF7D0FD0320FCF7F4
:1052E000CDFD5148FDF7CAFA504B002204461A7012
:1052F0000EE70020FCF79AFD002869D00020FCF79B
:10530000BDFD4FF48031494B474804241C700022F6
:10531000BDE83840FDF762BA0020FCF787FD0028A1
:105320006CD00020FCF7AAFD022D47F2333118BFE4
:105330004FF480313D4B3C481D700022BDE83840A1
:10534000FDF74CBA0020FCF7DDFD384B364806244B
:105350001C70002240F26661BDE83840FDF73EBA9D
:105360000020FCF763FD002843D00020FCF786FDF9
:1053700043F233312D4B2C4803241C700022BDE82E
:105380003840FDF72BBA0020FCF750FD00283FD035
:105390000020FCF773FD254B234805241C700022D8
:1053A00040F6CD41BDE83840FDF718BA0020FCF7C3
:1053B00051FD1E4B07221A700024A9E60220FCF7BB
:1053C0005DFD184B00221A70A2E6FCF76BFD72E738
:1053D000FCF740FD41F69A1195E7FCF763FD57E7AE
:1053E000FCF760FDEFE6FCF75DFD02E7FCF75AFD18
:1053F00077E7FCF72FFD40F6CD41BBE7FCF72AFD30
:1054000041F69A1140F6CD43022D08BF194691E7A7
:10541000FCF720FDBFE700247AE600BF240A002045
:10542000280A0020B9090020000A0020300A0020C4
:10543000C009002038B5214B214A1960830710604C
:1054400000F0010503D49DB92C46204638BD1D4B04
:105450001D480E241C7040F233320121FCF722FF5C
:105460000446B8B115B10120FCF76CFD204638BDEB
:105470000120FCF767FD154A15480021FDF7A0F94A
:1054800004460028F2D1134A13480121BDE83840F0
:10549000FDF796B9FCF762FF04460028E2D1014609
:1054A0000E4A0F48FDF78CF90446002DDED001208E
:1054B000FCF748FD002CDED0D8E700BF2C0A002006
:1054C000240A0020200A0020B85D0000194E0000C8
:1054D000C85D00006D4D0000C05D0000F14D000092
:1054E000C45D00000E281CD138B5114C2378172B51
:1054F0001ABF0133DBB2002318462370FFF702FE08
:105500000C4B24780C4A0D4952F8242005460C48CF
:10551000C01AC008000440F00300FCF763FA0DB99C
:1055200038BD70472846BDE83840FCF72DBF00BFA6
:10553000350A0020D0610000CC5D0000745C0000E2
:10554000F061000008B505490320FFF773FF00B9BB
:1055500008BDBDE80840FCF717BF00BFE5540000D8
:1055600008B54FF0804301220021C3F818251846E2
:10557000C3F804119A60D0F80431002BFBD0FDF77A
:10558000E9F808B1FCF700FF4FF480410020FCF778
:1055900025F808B1FCF7F8FEFBF7A6FF094B0A480F
:1055A0000A49C01AC008000440F00300FCF776F86E
:1055B000FFF7C8FFFCF78EFA0028FBD140BF20BFE1
:1055C00020BFF7E7D0610000F06100002C5E000012
:1055D00010B44FF080414FF080520020C1F80C0110
:1055E0005E4BC1F81001C1F83805D2F80414C3F8B5
:1055F0002015D2F80814C3F82415D2F80C14C3F8F7
:105600002815D2F81014C3F82C15D2F81414C3F8C6
:105610003015D2F81814C3F83415D2F81C14C3F896
:105620004015D2F82014C3F84415D2F82414C3F856
:105630004815D2F82814C3F84C15D2F82C14C3F826
:105640005015D2F83014C3F85415D2F83414C3F8F6
:105650006015D2F83814C3F86415D2F83C04C3F8C6
:105660006805D2F840043E49C3F86C050968D2F8D1
:105670004424C3F87025082924D04FF08043D3F880
:105680000024D20744BF6FF00102C3F80024354A5A
:10569000D2F8883043F47003C2F88830BFF34F8FDC
:1056A000BFF36F8F4FF01023D3F80022002A23DBC3
:1056B000D3F80432002B1FDB2B4B2C4A1A605DF809
:1056C000044B70472A4B1B68002BD6D129482A4A25
:1056D0002A4C04602A492B4BFB20C2F818050A68A3
:1056E0001B68294822F00F0203F00F0313434FF405
:1056F00000720B600260C0E7244B0122C3F804254E
:10570000D3F80024002AFBD04FF0102312221F49A7
:10571000C3F80022D1F80034002BFBD04FF0102248
:1057200012211A4BC2F80412D3F80024002AFBD02D
:1057300000221649C3F80425D1F80034002BFBD011
:10574000BFF34F8F0749124BCA6802F4E06213435C
:10575000CB60BFF34F8F00BFFDE700BF00C000402C
:105760003001001000ED00E02C0000200090D0037C
:10577000340100108C56004000F0004048810300C6
:10578000E40E0040580200104096024000E0014044
:105790000400FA0508B5074B044613B10021AFF326
:1057A0000080054B1868836A03B19847204600F0D3
:1057B00071F800BF00000000BC60000070B50D4E25
:1057C0000D4CA41BA4100025A54209D10B4E0C4C76
:1057D00000F0E2F9A41BA4100025A54205D170BD7C
:1057E00056F8253098470135EEE756F825309847AA
:1057F0000135F2E700020020000200200002002034
:1058000004020020044B054A1B681B6A002B08BFDA
:105810001346D3F8EC0070473000002094000020BD
:1058200082B001B901A942B14BB113780B60127873
:10583000101C18BF012002B070471046FBE76FF044
:105840000100F8E710B5431E0A44914200D110BD93
:1058500011F8014B03F8014FF7E702440346934266
:1058600000D1704703F8011BF9E7034613F8012B39
:10587000002AFBD1181A0138704749B1FF2A85BFA9
:105880008A2303600A704FF0FF3098BF01207047F1
:1058900008467047FEE700BF53B94AB9002908BF60
:1058A00000281CBF4FF0FF314FF0FF3000F072B9FD
:1058B000ADF1080C6DE904CE00F006F8DDF804E067
:1058C000DDE9022304B070472DE9F047089E044645
:1058D0008846002B4BD18A42154667D9B2FA82F22C
:1058E0004AB1C2F1200701FA02F320FA07F7954006
:1058F00047EA030894404FEA154E230CB8FBFEF725
:105900001FFA85FC0EFB178843EA084307FB0CF1DE
:10591000994209D9EB1807F1FF3080F01B819942B9
:1059200040F21881023F2B445B1AA4B2B3FBFEF095
:105930000EFB103344EA034400FB0CFCA44509D9D8
:105940002C1900F1FF3380F00781A44540F2048157
:1059500002382C4440EA0740A4EB0C0400271EB197
:10596000D4400023C6E900433946BDE8F0878B42A6
:1059700009D9002E00F0EB800027C6E90001384667
:105980003946BDE8F087B3FA83F7002F47D18B4241
:1059900002D3824200F2FA80841A61EB03030120F1
:1059A0009846002EE0D0C6E90048DDE702B9FFDEE8
:1059B000B2FA82F2002A40F08F80491B4FEA154E5E
:1059C0001FFA85F80127B1FBFEFC230C0EFB1C110E
:1059D00043EA014308FB0CF1994207D9EB180CF19B
:1059E000FF3002D2994200F2CD808446591AA3B208
:1059F000B1FBFEF00EFB101443EA044408FB00F870
:105A0000A04507D92C1900F1FF3302D2A04500F2BE
:105A1000B6801846A4EB080440EA0C409FE7C7F1A3
:105A2000200CBB4022FA0CFE4EEA030E01FA07F4EA
:105A300020FA0CF521FA0CF34FEA1E482543B3FB7C
:105A4000F8F92C0C08FB19331FFA8EFA44EA0343C9
:105A500009FB0AF49C4202FA07F200FA07F10BD99B
:105A60001EEB030309F1FF3080F087809C4240F277
:105A70008480A9F1020973441B1BADB2B3FBF8F09B
:105A800008FB103345EA034400FB0AFAA24508D993
:105A90001EEB040400F1FF336BD2A24569D9023832
:105AA000744440EA0940A0FB0289A4EB0A044C4577
:105AB000C2464B4654D351D0002E69D0B1EB0A05F3
:105AC00064EB030404FA0CFCFD40FC404CEA0505C1
:105AD000C6E90054002747E7C2F1200320FA03F784
:105AE000954001FA02F021FA03F34FEA154E3843CC
:105AF000010CB3FBFEF71FFA85F80EFB173341EAE2
:105B0000034107FB08F38B4204FA02F407D9691832
:105B100007F1FF3C2FD28B422DD9023F2944CB1AEB
:105B200081B2B3FBFEF00EFB103341EA034100FBF0
:105B300008F38B4207D9691800F1FF3C17D28B425A
:105B400015D902382944C91A40EA07473BE73746C6
:105B5000304609E70746E7E61846FBE64145ABD283
:105B6000B8EB020A69EB0E0201381346A4E760465F
:105B7000E9E7184695E76746D1E781467CE70238B2
:105B80002C4447E7ACF1020C2B442FE7384608E7DA
:105B90003746E9E6704700BFF8B500BFF8BC08BC5F
:105BA0009E467047F8B500BFF8BC08BC9E467047DB
:105BB000FFFFFFFFFFFFFFFFFFFFFFFFFFFFFFFFF5
:105BC00000000000000000000000D60106010000F7
:105BD000D513000041140000D113000075617274E8
:105BE0005F6C6F675F6261636B656E6400000000ED
:105BF000600700207F000000E00700204261636B27
:105C0000656E647320666C757368656400000000DF
:105C1000617070006C5C00009C5C00004C5C0000DB
:105C2000A45C0000AC5C0000B45C0000BC5C000044
:105C3000C45C0000CC5C00002025303278000000FD
:105C4000202020007C000000256300001B5B313B0E
:105C500033316D0025734C6F67732064726F707001
:105C60006564202825642925730D0A001B5B306DAF
:105C700000000000257300003C25733E2025733A88
:105C8000200000000D0A000000000000D45C0000AD
:105C9000DC5C0000E45C0000EC5C00001B5B313B62
:105CA00033306D001B5B313B33326D001B5B313B8E
:105CB00033336D001B5B313B33346D001B5B313B79
:105CC00033356D001B5B313B33366D001B5B313B65
:105CD00033376D006572726F720000007761726E0B
:105CE000696E6700696E666F00000000646562752A
:105CF00067000000271E1D1F000800206170705FF4
:105D0000627574746F6E0000466174616C20657218
:105D1000726F720053797374656D20726573657468
:105D20000000000001000600000000004C080020F8
:105D3000192400006170705F74696D657200000065
:105D40000338FDD87047000052544320696E7374C5
:105D5000616E636520616C726561647920696E694A
:105D60007469616C697A65642E0000005254433A8C
:105D700020696E697469616C697A65642E0000003F
:105D80003031323334353637383941424344454671
:105D9000736F72746C697374000000004750494F50
:105DA0005445000050525300554152540000000029
:105DB000554152544500000013000300754D00008A
:105DC000C0090020E0090020000A0020445E000015
:105DD000585E0000705E00008C5E0000B05E000047
:105DE000D05E0000F45E00000C5F0000245F000045
:105DF0003C5F0000545F0000685F0000805F0000AF
:105E00009C5F0000B45F0000CC5F0000E45F000016
:105E1000FC5F000014600000306000004C60000077
:105E20006860000084600000A060000042535020C1
:105E30006578616D706C6520737461727465642E31
:105E4000000000004253505F494E444943415445CD
:105E50005F49444C450000004253505F494E44495D
:105E6000434154455F5343414E4E494E4700000065
:105E70004253505F494E4449434154455F41445663
:105E80004552544953494E47000000004253505F69
:105E9000494E4449434154455F4144564552544953
:105EA00053494E475F57484954454C4953540000A5
:105EB0004253505F494E4449434154455F41445623
:105EC0004552544953494E475F534C4F57000000C9
:105ED0004253505F494E4449434154455F41445603
:105EE0004552544953494E475F44495245435445EE
:105EF000440000004253505F494E444943415445D9
:105F00005F424F4E44494E47000000004253505FED
:105F1000494E4449434154455F434F4E4E454354D7
:105F2000454400004253505F494E44494341544563
:105F30005F53454E545F4F4B000000004253505F8B
:105F4000494E4449434154455F53454E445F455291
:105F5000524F52004253505F494E444943415445C9
:105F60005F5243565F4F4B004253505F494E444986
:105F7000434154455F5243565F4552524F520000D1
:105F80004253505F494E4449434154455F46415452
:105F9000414C5F4552524F52000000004253505F47
:105FA000494E4449434154455F414C4552545F304A
:105FB000000000004253505F494E4449434154455C
:105FC0005F414C4552545F31000000004253505F26
:105FD000494E4449434154455F414C4552545F3218
