:1010000000000420B5120000DD120000DF12000015
:10101000E1120000E3120000E512000000000000F1
:10102000000000000000000000000000E7120000C7
:10103000E912000000000000EB120000ED120000B9
:10104000013D0000EF120000E1460000EF12000039
:10105000EF120000EF12000079410000EF120000D3
:10106000EF120000EF120000EF120000EF1200007C
:10107000EF120000EF120000EF120000EF1200006C
:10108000EF120000FD2A0000EF120000EF12000036
:10109000EF120000EF120000EF120000EF1200004C
:1010A000EF120000EF120000EF120000EF1200003C
:1010B000EF120000EF12000000000000000000002E
:1010C000EF120000EF120000EF120000EF1200001C
:1010D000EF120000EF120000EF120000EF1200000C
:1010E000EF120000A9490000EF120000000000000C
:1010F00000000000EF12000000000000C9490000DD
:1011000000000000000000000000000000000000DF
:1011100000000000000000000000000000000000CF
:1011200000000000000000000000000000000000BF
:1011300000000000000000000000000000000000AF
:10114000000000000000000000000000000000009F
:10115000000000000000000000000000000000008F
:10116000000000000000000000000000000000007F
:10117000000000000000000000000000000000006F
:10118000000000000000000000000000000000005F
:10119000000000000000000000000000000000004F
:1011A000000000000000000000000000000000003F
:1011B000000000000000000000000000000000002F
:1011C000000000000000000000000000000000001F
:1011D000000000000000000000000000000000000F
:1011E00000000000000000000000000000000000FF
:1011F00000000000000000000000000000000000EF
:1012000010B5054C237833B9044B13B10448AFF340
:1012100000800123237010BD0802002000000000A0
:101220009C6C000008B5034B1BB103490348AFF3A6
:10123000008008BD000000000C0200209C6C000033
:10124000154B002B08BF134B9D46A3F5803A002198
:101250008B460F461348144A121A05F0B2F80F4B8A
:10126000002B00D098470E4B002B00D09847002051
:10127000002104000D000D48002802D00C48AFF3F7
:10128000008005F04FF82000290004F08DFE05F0E5
:1012900035F800BF00000800000004200000000036
:1012A0000000000008020020C80A00200000000022
:1012B000000000000649074A074B9B1A03DD043B68
:1012C000C858D050FBDC04F037FFFFF7B9FF00002F
:1012D000306D00000800002008020020FEE7FEE755
:1012E000FEE7FEE7FEE7FEE7FEE7FEE7FEE7FEE7D6
:1012F000F0B595B0002415460F4608461E4602F08C
:1013000085F9384623460895082205A91A9D0996AD
:101310000D950A948DF82C400C9402F0D1F99DF8AB
:1013200014308DF81140DDE9061003F00302012AA4
:10133000CDE9020127D0022A04D0384602F06AF92A
:1013400015B0F0BDBDF81650C3F3C2038DF81030D0
:10135000AD090826082D2C4628BF0824334622460E
:101360000EA9384602F0ACF92D1B214608AB02AAA3
:101370000EA8264400F012FC002DEBD1384602F0F6
:1013800049F915B0F0BDBDF81460059DC6F383168C
:10139000C3F3C204B2000EA9384608238DF81040EA
:1013A000C5F3952502F08CF908AB324628460EA904
:1013B000009302AB00F04CFB384602F02BF915B05D
:1013C000F0BD00BF014B01221A7070476802002077
:1013D000704700BF00B583B0044B0093044A40231C
:1013E000FFF786FF03B05DF804FB00BFF5130000B4
:1013F0002802002038B50E480E4D03780E4CEB5CE9
:101400000025D2B2257053B90C3003F07BFF58B9D8
:101410000A4B1B7813B12378002BFCD038BD043065
:1014200004F026FA0028F3D000F03EFFF0E700BFFA
:1014300008000020C40A00206802002024020020C6
:1014400070B51348134A0378D35C88B0DBB90C300D
:1014500003F0DAFE104D0FCD6C460FC495E80F0077
:1014600008AD102645F8206D84E80F0029460022BB
:10147000074802F0C9FB08B100F016FF074B002235
:101480001A7008B070BD043004F058F9E2E700BFEC
:1014900008000020C40A0020186700002402002071
:1014A00070B50D4D0FCD88B06C460FC495E80F0098
:1014B00008AD102645F8206D84E80F002946074A3C
:1014C000074802F0A1FB08B100F0EEFE054B012237
:1014D0001A7008B070BD00BF18670000C513000087
:1014E000080000202402002008B5FFF7D9FF0421DE
:1014F000034800F063FA034B01225A7108BD00BF94
:10150000046D00001C0000200B4B0C4810B500229D
:10151000FF21C3F818249960C3E90022C3F81424FA
:1015200083F8202402F02EF8044610B9044802F093
:1015300077FA204610BD00BF3C030020146D000068
:101540005867000021B9124B03EBC00000687047D8
:10155000104A0F49521AD20815D030B40E4D2B88BC
:10156000834212D0002303E035F82340844205D0A3
:1015700001339A42F8D1002030BC704701EBC30020
:10158000006830BC7047104670470846F8E700BF57
:10159000A46C0000046D000008020020094B013912
:1015A00003EBC00003290BD8DFE801F002080604B2
:1015B00002207047407970470079704704207047D7
:1015C00000207047A46C00002DE9F0412F4C064626
:1015D00000200F46A56801F031F9D4E90121D4F8C3
:1015E00000800A440132A2EB0802012A45D908EA28
:1015F00001010331052208F10203002044F82120F3
:10160000236001F023F9002104F21C4001F012FBD9
:1016100080F3100008F101022A4004EB820200046A
:1016200005EA0803033340EA1640D06014F823208B
:1016300066F3C50204F8232034F823206FF38912DF
:1016400024F8232054F8231067F39F210A46012031
:1016500060F301026FF3820244F8231004F82320A0
:1016600094F820341BB906E000F012F818B1D4E960
:1016700000329A42F8D1BDE8F081012104F21C4009
:1016800001F0E2FA002001F0E1F8E9E73C03002074
:101690002DE9F047874D002384B0C5F81834BFF317
:1016A0004F8FD5E9014604EA0601CB1C05EB830206
:1016B00015F82330580720D52F6813E0022B03D1EB
:1016C0005388023404EB931406EA0401D5F8180495
:1016D000CB1C05EB830280B9A7423DD915F8233016
:1016E0005B070AD5137803F00303012BE6D11388B7
:1016F0000234C3F383131C44E6E705EB8101631C4A
:10170000CA680192334005EB830302F00302DB68F1
:101710000293022A04F1020874D0012A20D0D5F8DD
:1017200010443CB1236820469B689847E3681C68D6
:10173000002CF7D1604B61486149C01AC008000411
:1017400040F00200FFF740FF6F682868C01B18BF19
:10175000012004B0BDE8F0876F6004B0BDE8F087F9
:10176000BDF804205748C2F38313062B28BF062375
:1017700063F3891202339900ADF8042001F004FFED
:1017800081460028CBD001F041FF0023082201A9A7
:10179000484601F061FFBDF8043013F4707F00F09B
:1017A00087806FF0010AAAEB040A082406EA080100
:1017B00003312346042205EB8101484601F04CFF2A
:1017C000BDF8043008F101070AEB0702C3F38313E5
:1017D0009A42B84604F10404E8D3D5F8104464B141
:1017E000E3685A7920464946002A4BD023681B6893
:1017F0009847E3681C68002CF2D1484601F00AFFC4
:101800006F60A2E7BDF806302E489F09502F3C4676
:1018100028BF502464F38F1304F10801ADF806309B
:1018200001F0B2FE814600283FF479AF26EA080AAB
:101830000AF1010A01F0EAFE4FEA8A0A00230822AF
:1018400001A9484601F008FF544526D9E3B2BAF190
:10185000000F1BD006EA0801A3EB0A03033105EBD6
:101860008101DCB252460823484601F0F5FE2246CB
:101870000AF108031449484601F0EEFE033708EB6D
:101880009707AAE71C68002CAAD1B6E722460823CE
:101890000D49484601F0E0FEF0E706EA0801033191
:1018A00005EB810122460823484601F0D5FEE5E715
:1018B000474692E73C030020A46C0000D46C000073
:1018C00064670000146D0000480300202DE9F84310
:1018D000334C0646002090460F46A56800F0AEFF48
:1018E000D4E90123D4F800901A440132A2EB090292
:1018F000022A4CD909EA0303033309F10302452103
:10190000002044F82310226000F0A0FF09F1020338
:101910002B4004EB8303002104F21C40C3F80C802D
:1019200001F088F980F3100009F101022A4004EB6C
:101930008202000405EA0903033340EA1640D0603E
:1019400014F8232066F3C50204F8232034F823207A
:10195000012060F3891224F8232054F8231067F340
:101960009F210A4660F301026FF3820244F82310BC
:1019700004F8232094F820341BB906E0FFF788FE12
:1019800018B1D4E900329A42F8D1BDE8F8830121B8
:1019900004F21C4001F058F9002000F057FFE9E77D
:1019A0003C030020044BD3E900239A4201D0FFF707
:1019B0006FBE0020704700BF3C03002030B4184DBC
:1019C000D5F8104400215CB1E3681A798A4204D149
:1019D00016E0DB681A798A4212D01B68002BF8D116
:1019E000C3681971D5F8103493B1DA68C368126806
:1019F0001A60D5F81034DB68186030BC08467047B0
:101A000001310A29DFD14FF0FF31084630BC704761
:101A1000C5F81004C2681360084630BC704700BFA8
:101A20003C03002038B5094BD3F81044012583F856
:101A300020544CB1E3685D71236820465B68984789
:101A4000E3681C68002CF5D138BD00BF3C030020C2
:101A50002DE9F04784B01D460C9C002394F80C80BF
:101A60002373EB8881460E461746002B40D1297A16
:101A700005290ED06B7AA88873BB404B53F821A080
:101A80000021FFF75FFD524603463D49204601F025
:101A900053F9062F09D8DFE807F0046A4249525D7E
:101AA00033004946204601F047F92B7A052B05D033
:101AB0006B7A5BB93349204601F03EF9204601F0CC
:101AC0002FF984F80C8004B0BDE8F0872E4A2F4926
:101AD000204601F031F9EDE7FFF760FD2C4B2B4973
:101AE00053F82020204601F027F9297AA888C4E776
:101AF000254A00922749284A204601F01DF9B6E7F9
:101B0000D6E90410D6E900230390D6E90207029132
:101B1000CDE900074946204601F00EF9C5E74946E0
:101B2000D6E90023204601F007F9BEE7B168D6E9FF
:101B3000002320460091494601F0FEF8B5E7D6E9BA
:101B40000201D6E90023019100904946204601F0A8
:101B5000F3F8AAE7D6E90371B068D6E90023029149
:101B6000CDE900074946204601F0E6F89DE73268D6
:101B70004946204601F0E0F897E700BFF067000013
:101B8000E0670000EC670000D4670000DC6700003D
:101B90007C670000BC670000B4670000082900D91A
:101BA00070472DE9F04F1D46904600232A7B2B738A
:101BB00085B0B8F80630039207460E46002B7BD15D
:101BC00098F80810052911D098F80930B8F80400E1
:101BD000002B63D13C4B53F821400021FFF7B2FCAE
:101BE000224603463949284601F0A6F8DFF8FCB042
:101BF000DFF8FC90002405E03A5D013401F09CF828
:101C0000082C09D0A64249462846F5D85946013441
:101C100001F092F8082CF5D12D49DFF8D8B0DFF8A3
:101C2000D890284601F088F800240CE017F804A0AA
:101C3000BAF17E0F23D92E2249462846013401F0FD
:101C40007BF8082C08D0A642F0D859462846013423
:101C500001F072F8082CF6D198F80830052B02D064
:101C600098F80930A3B91B49284601F065F82846C1
:101C700001F056F8039B2B7305B0BDE8F08F04F01C
:101C800075FB50445246437813F0970FD3D0D3E7F7
:101C9000114A1249284601F04FF8E4E7FFF77EFCAD
:101CA0000F4B0E4953F82020284601F045F898F8CC
:101CB0000810B8F804008DE7074A009209490A4A5B
:101CC000284601F039F87BE7F0670000E067000084
:101CD000AC670000EC670000D4670000DC67000020
:101CE0007C670000BC670000B4670000A8670000C4
:101CF000A0670000E8670000B0670000074B1B5CAE
:101D00001F2B8ABF064A4FF0A04203F01F03D2F8F0
:101D10000405D840C04300F0010070475C68000033
:101D200000030050074B1B5C1F2B86BF03F01F03F3
:101D300005494FF0A041012202FA03F3C1F80C3526
:101D4000704700BF5C68000000030050074B1B5C3D
:101D50001F2B86BF03F01F0305494FF0A04101224E
:101D600002FA03F3C1F80835704700BF5C68000051
:101D70000003005030B44FF0A043094C80254FF0D1
:101D800080404FF000514FF00042C4F80855C3F8AE
:101D90000805C3F80815C3F8082530BC704700BF14
:101DA0000003005030B44FF0A043094C80254FF0A1
:101DB00080404FF000514FF00042C4F80C55C3F87A
:101DC0000C05C3F80C15C3F80C2530BC704700BFD8
:101DD000000300500A4B195C1F298ABF09484FF0C5
:101DE000A04001F01F01D0F8043501228A4022EA08
:101DF00003011340C0F80815C0F80C35704700BF48
:101E00005C68000000030050133818BF4FF0FF302B
:101E1000704700BFC10707D4830742BF4FF0A043FC
:101E20000C22C3F84C2770474FF0A04311490322FE
:101E300070B4C1F81C278026C3F878274FF080457E
:101E4000C3F874274FF00054C3F87C274FF00042CA
:101E5000C1F80865C3F80855C3F80845C3F8082554
:101E6000820704D54FF0A0430C22C3F84C2770BC66
:101E7000704700BF0003005070B51A4B1D789DB12C
:101E8000194B1C682378C0B2984210D004F10802A4
:101E9000002306E014F833108142164602F10802CE
:101EA00006D001339D42F5D100231B78FFDE264684
:101EB00002F052F97378A3F10103B3FA83F35B09DB
:101EC000834200D070BD094BD3E900231343F9D1FD
:101ED000074B0848196800224908BDE8704000F027
:101EE0000DBC00BFF8070020480800202008002093
:101EF000FC070020000800202DE9F04F974E3378B2
:101F000085B0002B00F02581954F964DDFF860825B
:101F100000244FF00109D7F800B01BF8340002F09C
:101F20001BF90BEBC4031BF834B05B784FEA5B0C76
:101F30001BF0010E15F80C10A3F10103B3FA83F3A3
:101F400014BF0A0901F00F025B09042A00F2BB80EA
:101F5000DFE802F08ABB5B400300834200F0D680DA
:101F6000BEF1000F0CBFF0230F233078194005F8A5
:101F70000C10A8B1D7F800C09CF800305B4500F009
:101F8000DE800CF10802002304E01CF833105945F0
:101F900000F0D68001338342964602F10802F4D164
:101FA0000020039000F04AFCABF12002CBF12003AB
:101FB00029FA03F309FA02F21A4309FA0BF1039220
:101FC0000291D8E90023DDE9020122EA000023EAB8
:101FD000010171E0834232780CD0BEF1000F0CBFDA
:101FE000F0230F2303EA01030CBF0421402119430E
:101FF00005F80C10013494428DDBD8E9002313431B
:1020000040F0938005B0BDE8F08F83426FD1BEF100
:10201000000F14BF0F23F02303EA0103327814BF2B
:1020200030210321194305F80C10002AE5D0D7F818
:1020300000C09CF800305B4500F08E800CF1080178
:102040000023013393428E4601F10801D2D01CF8DF
:1020500033005845F5D1DEF80430002BCAD058467D
:10206000012198473278C5E783422CD1BEF1000F99
:102070000CBFF0230F2303EA01030CBF0121102141
:1020800019430020019005F80C1000F0D7FBABF1CC
:10209000200309FA03F301930198CBF1200129FAF7
:1020A00001F1084309FA0BF101900091D8E90023EE
:1020B000DDE900011043194302460B460020C8E940
:1020C000002300F0C3FB327894E7834213BF002360
:1020D000202302221A46BEF1000F12BF0F20F0206B
:1020E000134601400B4305F80C30327882E7BEF10D
:1020F000000F0CBFF0230F2303EA01030CBF0121E3
:102100001021194305F80C10327873E7BEF1000F67
:1021100014BF0F23F02303EA010314BF302103216E
:10212000194305F80C10327864E70F4B0F48196813
:102130000022490805B0BDE8F04F00F0DFBAE646DE
:10214000DEF80430002B3FF42BAF002158469847AF
:1021500026E7DFF81C8050E7E6467CE7F80700201A
:102160004808002028080020FC0700200008002064
:1021700020080020092A40D9F0B583B00E46054654
:10218000144601F039FE002831D0204A2049214B65
:1021900015600E70202200211F481C6004F011F908
:1021A0001E4B00200021741EC3E90001E4B236B3C7
:1021B00005EBC4041A4E083D032701E0A5421ED0DA
:1021C0009DF8063020788DF8047003F0FC036FF35F
:1021D00082038DF80630A3788DF80530324601A9C8
:1021E00001F014FE083C0028E8D003B0F0BD01F077
:1021F000B9FD0028C9D003B0F0BD07207047094AD7
:102200000948002100F06CFA03B0F0BD4808002036
:10221000F8070020FC0700202808002020080020E4
:10222000791E0000F91E00006068000070B5084DBE
:102230002B785BB1074E00243368012113F834007A
:1022400001F0D4FE2B780134A342F5D8002070BDF4
:10225000F80700204808002070B50F4D2B7853B1C7
:102260000E4E0024336813F8340001F03BFF2B7846
:102270000134A342F6D8002000F0E0FA084B002415
:1022800000250020C3E9004500F0E0FA0548BDE85C
:10229000704000F083BA00BFF80700204808002013
:1022A000200800200008002000B585B0002303901E
:1022B000194601AA44F20100CDE9013300F004F807
:1022C00005B05DF804FB00BF10B572B6FFF7AAFBBE
:1022D000FFF768FB0028FBD1104B114C1149E41AA1
:1022E000E408240444F00100FFF76EF90E4B1B686C
:1022F000DB0700D500BE44F002000C49FFF764F98B
:10230000BFF34F8F0A490B4BCA6802F4E0621343D4
:10231000CB60BFF34F8F00BFFDE700BFA46C000090
:10232000D46C000070680000F0ED00E07C680000F4
:1023300000ED00E00400FA05D0E90223D1E9020132
:10234000994208BF90422CBF01200020704700BF77
:102350002DE9F04F87B0039000F08EFB40B19B4910
:10236000D1E9002312F1807443F10005C1E9004571
:1023700000210398964C00F09BFB60B1236853B199
:10238000944B25681B7823B11DB12B7F002B40F0A7
:102390002D81002323600121039800F089FB002890
:1023A00040F0F38005A98C4800F006FC18B38B4E72
:1023B000884F894D0378012B00F0C680C0F0CC8097
:1023C000022B0ED130464FF0000801F061FB30B116
:1023D00080F81C80304601F05BFB0028F8D1012317
:1023E0003B7005A9284600F015FC05A9284600F019
:1023F000E3FB0028DED1794E794FDFF8D09103E07E
:102400000D2855D000232360304601F047FB236898
:10241000002800F0B48063B12368D0E90201D3E959
:102420000223994208BF90423BD223681B7F002BB6
:102430007FD1304601F02CFB0546D5E90223384612
:10244000CDE9002300F046FBD9E90023DFF89481B1
:1024500012EB000A43F1000BD8E900239B4508BFAB
:10246000924503D21AF1807A4BF1000BDDE90001AD
:10247000B0EB0A0061EB0B01012871F1000313DBE3
:10248000DFF864A1504559D8AA684FF4960300219B
:10249000384600F06BFA0028B2D12368002B67D0D1
:1024A000256007B0BDE8F08F0021384600F0F4FA4F
:1024B000484B1B78002BA5D02B7F002BA2D0384691
:1024C00000F008FBD8E90023D9E900ABCDE90023EF
:1024D0001AEB00024BF1000310461946DDE9002318
:1024E000994208BF904203D210F1807041F100017F
:1024F000D5E90223994208BF904261D32B6903B901
:102500002B77D5E905309847296900293FF47AAF40
:102510002B7F002B3FF476AFD5E9022312EB010AA3
:1025200043F1000BC5E902AB2946304601F09CFAA5
:1025300068E72168304601F097FA7AE7384600F0FC
:10254000C9FA00EB0A02A0E741682368994213D058
:10255000304601F0A7FA44E743681A7F002A7FF467
:1025600040AF01221A774168304601F07DFA38E722
:10257000039800F0CDF993E70023236031E7002BA7
:102580008FD1039800F0C8F98BE71548DFF8548025
:1025900000F0A0FA0D4BD3E90067D8E9002316EB51
:1025A000000947F1000A9A4508BF9145484651463F
:1025B00003D219F180704AF10001C8E90001F1E687
:1025C0002946304601F050FA1CE700BF50080020B1
:1025D000D008002058080020B408002090680000AF
:1025E00024000020C8080020FFFFB4001D4800F0B0
:1025F00071FA1D4A1D4BD2E90067D3E9002316EB9F
:10260000000847F10009994508BF904540464946F2
:1026100003D218F1807049F10001D5E902239942F3
:1026200008BF904219D32B6903B92B77D5E9053040
:102630009847296900293FF4ACAE2B7F002B3FF46B
:10264000A8AED5E90223561843F10007C5E9026791
:102650002946074801F008FA9BE62946044801F09C
:1026600003FA96E62400002050080020C808002045
:102670009068000010B5134B13491B68134882B0D3
:1026800058220193082300F043FA044610B1204673
:1026900002B010BD0E4A0F4801A900F0E1F804464F
:1026A0000028F4D101210B4800F0DCF90123194680
:1026B000094A084800F034F9084B012220461A70F4
:1026C00002B010BD8C6800005C080020B408002037
:1026D0005123000024000020FFFF7F005808002045
:1026E0004AB1A1F101010368B1FA81F14909C3E9D5
:1026F0000412002070470720704700BF037F0BB112
:10270000002070472DE9F048826182B004461F48DE
:102710000D4600F0DFF91E4B1E49D3E90023D1E935
:10272000006712EB000B43F1000CBC4508BFB3453A
:1027300003D21BF1807B4CF1000C1BEB05022169DD
:102740004CF10003C4E9022379B901A9124800F051
:10275000F7F988B100254460057001A90E4800F022
:102760001BFA68B902B0BDE8F088256101A90A48E2
:1027700000F0E6F90028EDD1042002B0BDE8F088B1
:10278000024800F0ABF92846ECE700BF2400002027
:1027900050080020C8080020B408002030B50025EB
:1027A00083B00446057701A90B4800F0C9F978B158
:1027B00001234460037001A9074800F0EDF908B94E
:1027C00003B030BD054800F089F9284603B030BD9C
:1027D000042003B030BD00BFB40800202400002056
:1027E00010B50E4B0E4882B0002401A91C7000F0F9
:1027F000A7F978B102234460037001A9084800F0EA
:10280000CBF908B902B010BD064800F067F92046C0
:1028100002B010BD042002B010BD00BF5808002057
:10282000B408002024000020401A20F07F407047A8
:10283000014800F04FB900BF2400002072B6024AE0
:102840001368013313607047D4080020034A1368EB
:10285000013B136003B962B6704700BFD408002083
:10286000F8B5234E4579234C234F0346234847F8B8
:102870002520801B04EBC506C0083679000486BB02
:102880001A680D88C2F8085593F904208978002A3F
:102890001FDB02F1604202F561424901C9B282F8D0
:1028A000001393F90420164F1649012602F01F0564
:1028B000520906FA05F547F822505A7904EBC20589
:1028C00040F003002E7144F83230FEF77DFE002008
:1028D000F8BD0D4D02F00F0249011544C9B2297629
:1028E000DFE740F002000949FEF76EFE0820F8BD60
:1028F000A46C0000D8080020E0080020E46C000070
:1029000000E100E0DC680000FCEC00E0B8680000DA
:10291000036801221A607047036801225A607047F9
:10292000F0B404684FF480358D40C4F8085306684D
:102930008C00C6F8485304F5A0740668A4B20027BA
:10294000375182B036590468019601F5A87122F01A
:102950007F42019E44F821200268C2F8445313B11B
:102960000368C3F8045302B0F0BC70472DE9F04788
:1029700088464FF48037016807FA08F7C1F84873B2
:102980000168C1F80873064600684FEA8804011917
:10299000D0F80455D1F84005C1F8405504F5A074AD
:1029A000A4B231684FF0000941F8049082B0401B96
:1029B0000959009120F07F4001289A4622F07F4576
:1029C000009B0BD1264B4FF4806043F001039847E6
:1029D000336843F804901B590193019B3368D3F883
:1029E0000445C3F844732B1B23F07F43012B08F5E8
:1029F000A87817D130681A4B013540F8285043F0B9
:102A000001034FF4806098473268D2F804359C4245
:102A100022D1C2F8447333680020C3F8047302B0B3
:102A2000BDE8F087336843F828503268D2F80415BF
:102A30006B1ACAF1FF1A013B0AF57F4A23F07F4364
:102A40009A4509D3002BE4D1013542F82850326869
:102A5000D2F804359942DCD00D2002B0BDE8F087F1
:102A6000B068000002680223C2F8443311B1026862
:102A7000C2F80433704700BF0368D3F8040150B1B3
:102A8000002282B0C3F80421D3F804310193019BE2
:102A9000012002B0704770474FF48033026803FA98
:102AA00001F1C2F848130368C3F80813704700BF68
:102AB000890001F5A07189B20368585840B100221D
:102AC0005A5082B05B580193019B012002B07047BD
:102AD000704700BF0368D3F80405704790F90430CD
:102AE00005485A09403203F01F03012101FA03F39C
:102AF00040F82230704700BF00E100E0024A034B7B
:102B000010681B68184700BFD8080020E0080020A4
:102B100099B110B4B2FBF3F403FB1424A4B244B98A
:102B2000C0E9001484608281C38120465DF8044BB3
:102B3000704709205DF8044B70470E20704700BFB6
:102B400030B482B050E8013F9DB2C48925448489E5
:102B5000A54228BF2D1B0489A54202BFBFF32F8FBA
:102B6000002207E0C5EA030540E80154002CE9D142
:102B70004FF001028DF803200193019B9DF8032083
:102B80000B602AB10B880068184402B030BC704753
:102B900002F0FF031846F8E70A884B889A4201D0F2
:102BA0000020704750E8012FC2EA024240E80123AA
:102BB000002BF7D10120704730B482B050E8023FBB
:102BC0001FFAA3F5C488A54202BFBFF32F8F0022CE
:102BD0000DE0C48925448489A54228BF2D1BC3EA82
:102BE000054540E80254002CE8D14FF001028DF871
:102BF00003200193019B9DF803200B602AB14B88B1
:102C00000068184402B030BC704702F0FF03184659
:102C1000F8E700BF0A884B889A4201D0002070472D
:102C200050E8022FC2EA224240E80223002BF7D1EB
:102C30000120704750E8002F0B4640E8003C9CF014
:102C4000000FF7D11046704750E8003F03EB010238
:102C500040E8002C9CF0000FF6D11046704700BFF2
:102C600050E8003FA3EB010240E8002C9CF0000F6D
:102C7000F6D11046704700BFB8B130B4D0E90112A8
:102C8000521A0468D2B2531E2160DBB242B101680D
:102C90000A685C1E551C0D601370E3B2FF2BF6D161
:102CA00003680020187130BC70470E20704700BFC9
:102CB00038B504460020FFF7C1FDD4E900311A6899
:102CC0008A4215D9511E19602168A3680868258AAF
:102CD00012F8012CE4681B1A0879DBB2984205FB54
:102CE000024400D20B710020FFF7B0FD204638BD32
:102CF0000024F8E738B5054600200C46FFF79EFD96
:102D00002A681368591C1160E9682A8A641AB4FB9E
:102D1000F2F41C700020BDE83840FFF797BD00BFFB
:102D2000826842B110B5044643690168006998475A
:102D30000023A36010BD70470EB400B582B00399A4
:102D400029B102AA04AB42F8043D00F0A9F802B090
:102D50005DF804EB03B070472DE9F04F924683B065
:102D600051450F4605461E46DDE90CB2C0F0928083
:102D70000B464FF00108B3FBFAF39A4508F101083E
:102D8000F9D9B04538BFB04612F00109A96802D19F
:102D9000BBF1000F54D1012402E0013E0AFB04F410
:102DA000012EFAD8B7FBF4F08245F7D93B4E02E08A
:102DB000A968B7FBF4F0335C2A680A2B04FB107790
:102DC00002EB010E01F1010029D0A8608EF800305D
:102DD000D5E90131994202D32846FFF7A1FFB4FBA0
:102DE000FAF4002CE4D1B9F1000F15D0BBF1000FBB
:102DF00012D0C34510D92024AB682A68591CA96099
:102E0000D454D5E901329A420BF1FF3B14D2BBF105
:102E1000000F01D0C345EFD103B0BDE8F08FA8602B
:102E20004FF00D005054D5E9011088421DD2296899
:102E300001EB000E0130C8E72846FFF771FFE6E717
:102E4000930722D42024C345A5D92B684A1CAA6025
:102E50005C54D5E9013199420BF1FF3B10D2BBF133
:102E6000000F98D0C345F0D195E728460193FFF7AE
:102E700057FFAA682968019B501C01EB020EA4E7CA
:102E80002846FFF74DFFA968E9E7002E0CBF302464
:102E90002024D8E74FF0010873E700BFF068000076
:102EA000002900F0B9822DE9F04F054687B0914620
:102EB0000C460E78DFF8C8A64FF00D0B13E0AB6898
:102EC00028680A2E03F1010200EB030100F04B8297
:102ED000AA600E70D5E901329A4280F01B812678F3
:102EE000002E00F01E810134002E00F01A81252EE4
:102EF000E5D12346002713F8012B2D2A00F0E380AB
:102F0000302A00F0E4802B2A00F0D4802A2A00F036
:102F10000D81A2F13006F1B2092903D97DE2A1F1B8
:102F200030060346184606EB860110F8012BA2F185
:102F30003004092C02EB4101F1D92E2A00F0028164
:102F40004FF00008013301E013F8012B02F0FB0100
:102F500068291C46F8D0253A532AC0D801A353F853
:102F600022F000BF4F330000DF2E0000DF2E0000F4
:102F7000DF2E0000DF2E0000DF2E0000DF2E00001D
:102F8000DF2E0000DF2E0000DF2E0000DF2E00000D
:102F9000DF2E0000DF2E0000DF2E0000DF2E0000FD
:102FA000DF2E0000DF2E0000DF2E0000DF2E0000ED
:102FB000DF2E0000DF2E0000DF2E0000DF2E0000DD
:102FC000DF2E0000DF2E0000DF2E0000DF2E0000CD
:102FD000DF2E0000DF2E0000DF2E0000DF2E0000BD
:102FE000DF2E0000DF2E0000DF2E0000DF2E0000AD
:102FF000DF2E0000DF2E0000DF2E0000DF2E00009D
:10300000DF2E0000DF2E0000DF2E0000DF2E00008C
:10301000DF2E0000DF2E0000DF2E0000DF2E00007C
:10302000DF2E0000DF2E0000DF2E0000DF2E00006C
:1030300033330000DF2E0000DF2E0000DF2E000003
:10304000DF2E0000DF2E0000DF2E0000DF2E00004C
:10305000DF2E0000DF2E0000DF2E0000D730000042
:10306000B9320000DF2E0000DF2E0000DF2E00004E
:10307000DF2E0000B9320000DF2E0000DF2E00003E
:10308000DF2E0000DF2E0000DF2E0000DF2E00000C
:1030900021320000DF2E0000DF2E000099310000F9
:1030A000DF2E00007D310000DF2E0000DF2E00004B
:1030B0003333000047F004071C46234613F8012B66
:1030C0002D2A7FF41DAF47F001071C46F5E747F0B6
:1030D00002071C46F1E7D9F800301A1DC9F8002094
:1030E0001E78AB680A2E0CD12A68591CA96002F818
:1030F00003B0D5E90123934203D32846FFF710FE1E
:10310000AB682A68591CA960D654D5E901329A42A5
:10311000FFF4E5AE2846FFF703FE2678002E7FF485
:10312000E2AE2B7B23BB07B0BDE8F08FD9F80020BF
:10313000111DC9F80010166862782E2A04F10200E9
:103140007FF4FEAE5A78A2F13003092B00F2BD8164
:103150004FF0000808EB880802EB480810F8012F30
:10316000A2F13003092BA8F13008F3D90346E9E6B0
:10317000284607B0BDE8F04FFFF7D2BDD9F80030C0
:103180001A1DC9F8002019680197434600960A22C3
:103190002846FFF7E1FDA2E6D9F800301A1DC9F86C
:1031A0000020D3F80080FB0700F1E880B8F1000FA1
:1031B00000F0A181404603F00CF90746BE4215D944
:1031C000A6B1202100E08EB1AA682B68501CA8602F
:1031D0009954D5E901329A4206F1FF3604D32846C4
:1031E0000391FFF79DFD0399BE42ECD108F1FF3832
:1031F00018F8016F002E3FF472AEAB6828680A2EF3
:1032000003F1010200EB030100F09081AA600E704F
:10321000D5E901329A42EBD32846FFF781FDE7E773
:10322000D9F80020131DC9F80030AB682968176869
:10323000581C3022A860CA54D5E90123934280F07B
:10324000E6802A68581C7821A860D154D5E901236A
:10325000934280F0D7800F2F03D93A4612090F2AE4
:10326000FCD84FF080560DE0AA6081F80080D5E9C7
:1032700001329A4202D32846FFF752FD36093FF445
:103280002EAEAB68B7FBF6F21AF802802868B8F1E8
:103290000A0F06FB127700EB030103F10102E3D1F1
:1032A000AA6000F803B0D5E901329A4280F0498162
:1032B0002B6899180132D7E7D9F800301A1DC9F8E0
:1032C0000020196881EAE173A3EBE173092B40F355
:1032D0000E81AA480122A0FB03C3DB08092B02F1DF
:1032E0000102F8DC4245134638BF4346039307F01A
:1032F0000203002E40F09580002B00F0B780B8F15B
:10330000000F00F0F680F80740F1B0800029C0F20D
:10331000FF807A0700F1C88007F00303022B00F05A
:10332000A780CDE9006743460A222846FFF714FD2F
:10333000D5E5D9F800301A1DC9F8002019680197A1
:103340004346009610222846FFF706FDC7E5AB6806
:103350002A68581C2521A860D154D5E901329A4227
:10336000FFF4BDADD6E6AA6000F803B0D5E901329E
:103370009A423FD2296811440132A9E54146A1EBA6
:10338000080311F8017BD7B1AB68D5F800C00A2F4C
:1033900003F101020CEB030000F0AF80AA6007709C
:1033A000D5E901329A42EAD328460391FFF7B8FCE7
:1033B0000399A1EB080311F8017B002FE4D19E4291
:1033C0007FF68DAD202702E0002E3FF488ADA9687E
:1033D0002A68481CA8605754D5E90121914206F19A
:1033E000FF3604D328460393FFF79AFC039BB342AE
:1033F000EAD174E52846FFF793FCAB6829685A1CAC
:10340000194465E52846FFF78BFCAB6823E728469F
:10341000FFF786FCAB6814E7704718460026234682
:103420008BE5002920DB7A071ED41BB1B8F1000F11
:103430003FF46CAFF8073FF569AFBEB1039BB342F1
:10344000BFF464AF2023AA68501CA8602868835486
:10345000D5E90102824206F1FF3640D236B1039A25
:10346000B242F0D1164651E7013EDEE700264DE7B5
:10347000B8F1000F7FF455AF002E6AD0039BB34222
:10348000BFF44FAF3023AA68501CA860286883544B
:10349000D5E90102824206F1FF3618D2002E58D03B
:1034A000039AB242EFD13CE7AA68531CAB602B6889
:1034B0002B209854D5E901329A42FFF42DAF2846CB
:1034C0000491FFF72DFC049926E7034638E52846CA
:1034D000CDE90413FFF724FCDDE90413DEE72846F9
:1034E000CDE90413FFF71CFCDDE90413B6E7012264
:1034F000F8E646460AE7474660E6AA600CF803B0DD
:10350000D5E901329A4226D22B689818013245E754
:10351000AA68531CAB602B682D209854D5E9013262
:103520009A42C1F10001FFF4F7AEC8E7AA6000F8C3
:1035300003B0D5E901329A4217D229681144013209
:1035400064E62846FFF7ECFBA9682B684A1C19447F
:103550008AE60026E5E628460391FFF7E1FBA86826
:103560002B680399421C184418E72846FFF7D8FB3C
:10357000AB6829685A1C194448E600BFCDCCCCCCB6
:10358000F0680000FFF778BB2DE9F041058ACE1CFA
:10359000043D2E440746B6FBF5F6FFF789FB78B3EA
:1035A000F6B24FF48073013E0446C5800760838005
:1035B00027D08046002509E06379AE4203F101037C
:1035C0006371C8F80000076080461AD03846FFF7DC
:1035D0006FFB01350028EFD16679721E14D02346A7
:1035E000013082421B68FBD11F684EB10025236861
:1035F0002146013538461C46FFF77CFBAE42F6D12A
:1036000000242046BDE8F0812768EFE7043001215F
:10361000FFF71ABBF8B5012104460430FFF720FB81
:10362000C0B200B1F8BD6679721E12D023460130D7
:1036300082421B68FBD11F68002EF3D0002523684F
:103640002146013538461C46FFF754FBAE42F6D101
:10365000F8BD2768F2E700BF2DE9F843C78846792F
:1036600007FB06F6043E02EB030C0446664503F135
:10367000040015468846B0FBF7F238BFF51A07FB81
:10368000120012B1013A2468FCD13E1AAE4228BFA2
:103690002E469DB14FF000090430AD1B2044324648
:1036A00008EB090102F082FEAF42B14424683E46B5
:1036B0004FF0000028BF2E46002DEDD1BDE8F88365
:1036C0002DE9F843C7884679154607FB06F6043E00
:1036D00005EB030C1A1D664504468846B2FBF7F05D
:1036E00038BFF51A07FB102110B101382468FCD14E
:1036F0007E1AAE4228BF2E469DB14FF0000904311C
:103700002144AD1B324608EB090002F04FFEAF42E8
:10371000B14424683E464FF0000128BF2E46002DDC
:10372000EDD1BDE8F88300BF184B19481949C01AFC
:10373000C008000470B540F00300FDF745FF164ACD
:10374000164B002414701C60BFF35F8F144915489A
:10375000154E164D00F072F9154A164913691648B0
:1037600043F0100313610C800460144A1448346061
:1037700001212C70FEF7B4FF00B170BD02464FF47A
:1037800080411048BDE87040FEF7B8BFA46C00004F
:10379000F46C00000C6900001009002014090020DE
:1037A000C4690000E408002018090020EC0800208B
:1037B00000ED00E0120900201C09002099390000EA
:1037C00000690000F008002010B50020FFF736F86F
:1037D000F1EE103A23F09F03E1EE103ABFF35F8F52
:1037E0000E4B4022C3F884210020FFF72FF8002061
:1037F000FFF724F8FFF71CF8044620BF40BF20BFA6
:10380000FFF716F82146FFF70FF8054A136803443F
:1038100013600020BDE81040FFF718B800E100E099
:103820001C09002008B50748074B0849C01AC00802
:10383000000440F00400FDF7C7FE054B00221A808B
:1038400008BD00BFF46C0000A46C00000469000017
:10385000120900202DE9F84F404E804601213046E4
:10386000FFF7E8F9BFF35F8F002843D1B8F1040FE9
:1038700064D03B4B1A78002A3ED13A4D012285F89C
:1038800000801A70384B394C39493A4FE41AE40831
:10389000240444F0030442462046FEF717F820466D
:1038A0002A783549FEF712F8D7F80480B8F1000FEE
:1038B00027D0DFF8E0B0BA460AE02046FEF706F867
:1038C000504600F0C5F8D7F80480B8F1000F18D0C2
:1038D000D8F800302878984759468146D8F8002013
:1038E0000028EAD125492046FDF7F0FFBFF35F8F9E
:1038F000C6F80090BDE8F88FBFF35F8F3060BDE879
:10390000F88F1F4B1F491A782046FDF7DFFF20462E
:103910001D49FDF759FEFEF785F8FEF743F800282C
:10392000FBD12B78023B012B0AD94FF080430122B7
:10393000C3F80025BFF34F8F20BFFDE7094DA1E776
:10394000BFF34F8F1149124BCA6802F4E062134370
:10395000CB60BFF34F8F00BFFDE700BF140900200D
:1039600010090020ED080020A46C0000F46C000099
:1039700014690000E4080020286900006469000060
:10398000EC08002088690000A069000000ED00E05C
:103990000400FA0544690000F8B5FEF749FF184E27
:1039A000184D31680746FEF73FFF174A174B2C6842
:1039B00017499B1ADB08021B64241B0404FB02F456
:1039C000B4FBF0F4E4B2224643F00300FDF77EFFBF
:1039D000104B37601A78A2420F4A38BF1C70138808
:1039E0000021022B296003D90C4B187818B1F8BDBF
:1039F00001331380F8BDBDE8F840FFF72BBF00BFCF
:103A0000180900201C090020A46C0000F46C0000C0
:103A1000B4690000EC080020120900201009002001
:103A200082680023936082681361826853618268B0
:103A3000D3608268536082681360704701600B68CE
:103A400043604A68934204BF00234360704700BF4D
:103A5000436843B1026891680B44436052689342E3
:103A600004BF00234360704770B544680646206871
:103A70000D4618B908E02468206828B1B3682946C3
:103A800098470028F7D120682860256070BD00BFE6
:103A90004368186808B102681A607047436818687C
:103AA000704700BF4068036873B18B4203D107E0E1
:103AB000814204D0034618680028F9D1704718469F
:103AC0000B680360012070471846704710B570B14D
:103AD00001280BD10D4C2369A0703BB1D3E9002321
:103AE0000120226198472369002BF7D110BD074CB4
:103AF000A36801226270002BF8D0D3E900230020D4
:103B0000A2609847A368002BF7D1EFE720090020B7
:103B100038B50A4C23786BB909486360A360236108
:103B2000E36000F0B5F8054600F0C0F8012323700B
:103B3000284638BD8525284638BD00BF200900200D
:103B4000CD3A000038B5154CA378054673B110B1D5
:103B50004368012098470020FEF770FEE3680133B8
:103B6000E3600020BDE83840FEF770BE03F0FF00C0
:103B7000FEF764FE65B1226942B1954208D0134652
:103B800001E09D4204D01B68002BFAD12A60256118
:103B9000E368002BE2D100F09BF8DFE7200900206A
:103BA00030B585B0047845688DF80040D0E9024012
:103BB000064A074B039053F8213001958DF80840D1
:103BC00052F821106846984705B030BD34090020EE
:103BD0003C09002030B585B0047845688DF8004078
:103BE000D0E90240064A074B039053F82130019573
:103BF0008DF8084052F821106846984705B030BD4E
:103C0000340900203C0900202DE9F043DFF87480DE
:103C100006784B7F08F806300D46074696460FCDCE
:103C200089B06C460FC495E80F003D78DFF85890D6
:103C3000DFF858C018F8055049F826E084E80F006E
:103C40004CF82600049665B1BEF1000F0B4A694698
:103C500007F1040008BF002201F064FC09B0BDE8D0
:103C6000F083BEF1000F064A694607F10C0008BF59
:103C7000002201F0D7F909B0BDE8F083A13B0000B4
:103C8000D53B0000C40A00203C0900203409002074
:103C9000054A13792BB9012110605371184611712F
:103CA00070478520704700BF44090020074B1A6801
:103CB000D20704D4C021012283F800131A604FF008
:103CC00080430122C3F81825704700BF00E100E0DF
:103CD00010B4094B094A0021196083B01B68019395
:103CE000019C4FF0804102200123C1F804031360BE
:103CF00003B05DF8044B7047040100400800004029
:103D000010B5154B1A6882B07AB10021134A1960B8
:103D10001B68507900934FF080410123009CC1F84B
:103D2000083310B91168537188470D4B1A6882B176
:103D300000221A601B6801934FF080420221074B5A
:103D40000198C2F808131B68012002B0BDE81040BA
:103D5000184702B010BD00BF000100404409002018
:103D60000401004030B5204C94F86A5083B0002D17
:103D700036D14FF0FF332946062204F16400C4E92E
:103D80000033C4E90233C4E90433C4E90633C4E9A7
:103D90000833C4E90A33C4E90C33C4E90E33C4E977
:103DA0001033C4E91233C4E91433C4E9163323666B
:103DB00002F007FB0D4A0E4B0E491D60C02082F831
:103DC0000603402010601B68019301984FF00043E8
:103DD0000122284684F86A20C1F8043303B030BDBC
:103DE000082003B030BD00BF4C09002000E100E016
:103DF0007C61004000600040034B93F86A00003093
:103E000018BF0120704700BF4C090020F0B5744B6B
:103E10001C1894F93050002D6ADA8E78C6F34006EB
:103E20009646002E5ED11D6A013500F0C48009243B
:103E30000C2553F8247001375DD004F1010C53F8C0
:103E40002C70013700F0C280A71CAF4248D253F853
:103E50002720013200F0BC8004F1030CAC453FD2B6
:103E600053F82C70013700F0B18004F1040CAC451C
:103E700036D253F82C70013700F0A88004F1050CFD
:103E8000AC452DD253F82C70013700F09F8004F11F
:103E9000060CAC4524D253F82C70013700F0968004
:103EA00004F1070CAC451BD253F82C70013700F01D
:103EB0008D8004F1080CAC4512D253F82C700137F8
:103EC00000F0848004F1090CAC4509D253F82C7041
:103ED00001377BD00A34AC4202D2DC6A013409D00B
:103EE0000420F0BD1D68013574D001240825A0E729
:103EF0000820F0BD0B241F1865B243F824E087F8B2
:103F00003050002E5ED08A7854071AD4D60741D498
:103F10001F284A7887BF334E00F01F0404464FF035
:103F2000A04604F5E074920046F824202E4EC40802
:103F300000F0070C375D012202FA0CF23A433255C9
:103F40008A780C7812F0020209D1083D2B44104601
:103F500093F8602042EA841483F86040F0BDAB001F
:103F600003F1804303F5C0430202D3F8101521F496
:103F70004F3121F44071C3F810152404D3F8101503
:103F800004F4403402F47C5222430A43C3F810255F
:103F90000020F0BD1F2887BF124A00F01F0404460E
:103FA0004FF0A04202EB8402D2F8004724F0020452
:103FB000C2F80047BAE7082684F83060C3F820E06A
:103FC000354634461C4484F858009CE7644692E722
:103FD0003C4690E700251A6084F8305093E700BF14
:103FE0004C09002000030050B009002070B43A4D85
:103FF0002E1883B096F93030072B20DD2B4493F830
:1040000058309B09032B45D0012B14BF4FF440318E
:104010004FF400311F284DD900F01F002F4B03EB48
:104020008000D0F8002722F44032C0F80027D0F8F2
:1040300000370B43C0F8003703B070BC7047DAB2EA
:10404000072AF9D8980000F1804000F5C04003F13C
:104050004002D0F81045920092B244F0010402F1FF
:104060008042C0F8104502F5C04200200190019C3A
:1040700010600029E0D096F9302055F82220002A5F
:10408000DAD00122164902FA03F3C1F8043303B06F
:1040900070BC70471F2810D9104BD3F8103500F0B2
:1040A0001F00C34013F0010F0CBF4FF400314FF459
:1040B0004031B3E74FF0A043B1E74FF0A0421346C1
:1040C000D2F81025C24012F0010F14BF4FF4403156
:1040D0004FF40031A3E700BF4C090020000300505B
:1040E00000600040194B034493F93030072B13DD77
:1040F0001F288ABF164B4FF0A04300F01F0003EBB0
:104100008000D0F8003723F44033C0F80037D0F8EF
:104110000037C0F800377047DAB2072A14D810B455
:104120009A0002F1804202F5C0420A4CD2F8100512
:10413000012120F0010001FA03F3C2F81005C4F8D0
:1041400008335DF8044B7047704700BF4C090020EE
:1041500000030050006000401F288ABF054B4FF04D
:10416000A04300F01F00D3F8103523FA00F000F050
:1041700001007047000300502DE9F047002388B08C
:10418000CDE90233CE4A1668012E00F03B821E466E
:10419000CC4B1A68012A00F02782CB4B1A68012AFF
:1041A00000F01482C94B1A68012A00F00182C84B42
:1041B0001A68012A00F0EE81C64B1A68012A00F045
:1041C000DB81C54B1A68012A00F0C881C34B1A680D
:1041D000012A00F0B581C24B1A68012A0FD10022D2
:1041E0001A601B6801934FF0A042019BD2F8102582
:1041F000BC4B0292D3F81035039346F0004616F0FC
:10420000FF0F1AD0B84F00240125A30003F180430B
:104210002E4203F5C0434FEA45050BD0D3F81005F5
:1042200057F82420D3F81015C0F30520C1F301413D
:1042300002B190470134082CE7D1002E02DB08B010
:10424000BDE8F087A84CA74F4FF0FF33CDE9063308
:1042500094F960300DF1100800225D1CC8F80420AC
:1042600004924FF0010600F0F4805FFA83FC2CF01A
:10427000C00008AB4FEAD00903EB090E0CF00703AE
:104280001EF8082C06FA03F312EA030521D02218BF
:104290004FEA9C1192F9302054F82220002A00F0B5
:1042A0002981032900F028811F2800F2F9800546A2
:1042B0004FF0A04C0CEB850C1EF8185CDCF800E706
:1042C0001D40CEF3014E40F0DF80BEF1030F00F041
:1042D000BF8194F96130581C32D0DBB223F0C000AA
:1042E00008AA4FEAD00E02EB0E0C03F007011CF8EF
:1042F000082C06FA01F912EA090F21D022189909AF
:1043000092F9302054F82220002A00F0FB80032983
:1043100000F0FB801F2800F2E98003464FF0A04E1A
:104320000EEB83031CF818ECD3F800C71EEA090F44
:10433000CCF3014C40F0B880BCF1030F00F0AE812B
:1043400094F96230591C30D0DBB223F0C00008AAC7
:104350004FEAD00E02EB0E0C03F007011CF8082CFC
:1043600006FA01F912EA090F1FD02218990992F9E9
:10437000302054F82220002A00F0D880032900F0D1
:10438000D8801F287CD803464FF0A04E0EEB830345
:104390001CF818ECD3F800C71EEA090FCCF3014C47
:1043A00064D1BCF1030F00F0658194F963305A1CAD
:1043B00034D0DBB223F0C00008AA4FEAD00E02EBE3
:1043C0000E0C03F007021CF8081C06FA02F2114258
:1043D00024D004EB0009990999F9309054F82990F8
:1043E000B9F1000F00F09880032900F098801F2891
:1043F0008BBFBE464FF0A04E03F01F0303460EEBEB
:1044000083031CF818ECD3F800C71EEA020FCCF3A4
:10441000014C20D1BCF1030F00F00181002D3FF4CD
:104420000EAF4FF0A0430299D3F81035D7F81025FE
:10443000994203D1039991423FF401AFDDE90401B0
:10444000CDE9023294F960305D1CCDE906017FF4BC
:104450000CAF00253DE7BCF1020FDFD1032900F0CE
:104460003481B9F1000F40F0F180D7E7BCF1020FC1
:104470009BD1032900F02681002A96D0904794E72B
:1044800003F01F03BE4681E7BEF1020FE1D103290D
:1044900000F021810025002A3FF41BAF904718E768
:1044A0000CF01F05BC4605E7BCF1020F7FF448AFD6
:1044B000032900F00D81002A3FF442AF90473FE707
:1044C0000061004004610040086100400C61004050
:1044D0001061004014610040186100401C61004000
:1044E0007C610040000300504C09002003F01F03D2
:1044F000BE4615E70329ACD118F809501D4308F84A
:104500000950D1E603297FF41BAF18F80EA04AEA40
:10451000090A08F80EA0FDE603297FF47FAF18F81A
:104520000EA04AEA020A08F80EA060E703297FF409
:104530003CAF18F80EA04AEA090A08F80EA020E7D6
:10454000664AD2F8042317067FF545AE00221A60AA
:104550001B680093009B46F080063CE65F4AD2F859
:10456000042352067FF532AE00221A601B680093C6
:10457000009B46F0400629E6584AD2F804239106EB
:104580007FF51FAE00221A601B680093009B46F067
:10459000200616E6514AD2F80423D0067FF50CAE69
:1045A00000221A601B680093009B46F0100603E689
:1045B0004A4AD2F8042314077FF5F9AD00221A60A5
:1045C0001B680093009B46F00806F0E5434AD2F8CA
:1045D000042355077FF5E6AD00221A601B6800939F
:1045E000009B46F00406DDE53C4AD2F80423970719
:1045F0007FF5D3AD00221A601B680093009B46F044
:104600000206CAE53549D1F8041311F0010104D0BE
:10461000136013680093009BBAE50E46B8E50329C2
:104620007FF41FAF4FF4003CD3F8002722F4403250
:10463000C3F80027D3F80027013542EA0C02EDB297
:10464000C3F80027B9F1000F3FF4EBAEC847E5E629
:1046500003297FF420AF4FF40035DCF8003723F452
:104660004033CCF80037DCF800372B43CCF8003768
:10467000012510E703297FF4FFAE4FF4003ED3F885
:1046800000C72CF4403CC3F800C7D3F800C701357D
:104690004EEA0C0CEDB2C3F800C7EDE603297FF437
:1046A0000AAF4FF4003ED3F800C72CF4403CC3F8E7
:1046B00000C7D3F800C701354EEA0C0CEDB2C3F8C1
:1046C00000C7F8E64FF4403ED9E74FF4403CABE773
:1046D0004FF4403EE7E74FF44035BEE7006000404E
:1046E000014B1B68184700BFB809002038B50C4BB8
:1046F000984201D0002038BD00200D46FEF79EF8FC
:10470000084B1C7924B10020FEF7A0F8112038BD19
:10471000012220461D601A71FEF798F8204638BD28
:1047200000200040B8090020034B984203D1034BFE
:1047300000221A601A71704700200040B80900205A
:10474000444B2DE9F0410024064617461C60E1B1B8
:104750004378023B072B18D8DFE803F07072640A35
:1047600004666B7900230A793B481343C0F83C3652
:10477000CB781B068A7843EA02434A7843EA02234D
:104780000A7835491343C1F83836334A334DDFF8D8
:10479000C4800123C2F80833B378707831781B03E2
:1047A00043EA0023F0780B43317943EA403343EA8C
:1047B0008133717943EAC133C2F8343645F00105DB
:1047C000642402E0A847013C3ED0D8F800304FF402
:1047D0002070002BF6D00023C8F80030FFB17378AA
:1047E0001D4A023BD2F83C16D2F83826072B29D8AE
:1047F000DFE803F0110F0D0B0A0806040B0EFB7126
:104800000B0CBB710B0A7B713971130EFB70130C0F
:10481000BB70130A7B703A700020BDE8F081384607
:10482000BDE8F0810023A5E700234A7943EA02238B
:1048300099E700238A7943EA0243F6E700239FE7DA
:1048400000239AE70020E8E70D20BDE8F081CB794E
:104850001B06EFE70091024000900240106A000042
:10486000F8B5474C2379002B40F083800379FF2B68
:104870007DD04579FF2D7AD08579FF2D77D0C57908
:10488000FF2D74D03F4DC5F824354379FF2B08BF69
:104890004FF0FF33C5F828358379FF2B08BF4FF061
:1048A000FF33C5F83035C379FF2B08BF4FF0FF3316
:1048B000C5F83435037AFF2B08BF4FF0FF33C5F836
:1048C0003835437AFF2B08BF4FF0FF33C5F83C352E
:1048D0000368C5F84035037BC77A867A457B9B0120
:1048E00043EAC7033343002D45D1264DA260C5F8E6
:1048F0004435D5F80036867B077C427C23F07F4325
:1049000023F0FF033343C67B43EA4763002E43EAA9
:1049100002730CBF00224FF0807213430026012265
:10492000C5F8003621606671C5F8082341B1837C63
:10493000154A5B01DBB24FF4007182F829335160F4
:10494000104A124D124E01230021C2F800351E43B9
:10495000237129606424136002E0B047013C0DD04C
:104960002B684FF42070002BF7D00020F8BD0720F3
:10497000F8BD0820F8BD43F08003B6E70D20F8BD70
:10498000C00900200090024000E100E000910240D8
:10499000106A0000034B5B790BB9FFF7D1BE112001
:1049A000704700BFC0090020054A136833B1054BAA
:1049B0000020587110601A6899681047704700BF4E
:1049C00000910240C0090020194BD3F8182102B908
:1049D00070470021174AC3F81811D3F81811D37F74
:1049E00082B0FF2B019101990DD0917F99B11F2BBE
:1049F00086BF03F01F0310484FF0A040012101FAC9
:104A000003F3C0F80C35002353771372D2E9003159
:104A10000A4802B018471F2B86BF03F01F03064841
:104A20004FF0A040012101FA03F3C0F80835EAE78E
:104A300000F00240CC09002000030050D4090020FF
:104A40002DE9F04F0579DFF87C824FEAC50909EBC3
:104A50000506B60008EB060B83B09BF81C70002F10
:104A600040F0E4809A46036801920C46074691495B
:104A700000931846FFF73AFE002840F0DB80019AC9
:104A800048F80620CBF804A0217B009B012940F2C6
:104A9000E78026781F2E86BF06F01F06DFF818C2B3
:104AA0004FF0A04C0121B140CCF8081521781F2906
:104AB00086BF01F01F01804E4FF0A04601F5E07166
:104AC0004FF0010C46F821C06178FF2900F0D78033
:104AD0001F298BBF01F01F0E8E46DFF8DCC14FF09F
:104AE000A04C0EF5E07A012606FA0EF64FF0030E02
:104AF000CCF80C654CF82AE094F802C0BCF1FF0F2A
:104B000000F0C580BCF11F0FE6468BBF0CF01F06FE
:104B10007646DFF8A4C14FF0A04C06F5E0764FF0E2
:104B2000040A4CF826A094F802C009EB050608EB2D
:104B3000860686F820C094F803C086F81FC0E67881
:104B4000FF2E29D094F804C0BCF1000F76D11F2E9F
:104B500086BF06F01F06DFF860A14FF0A04A4FF0B5
:104B6000010C0CFA06F6CAF80865E6781F2E86BF17
:104B700006F01F06DFF840C14FF0A04C06F5E076C6
:104B80004FF0030A4CF826A009EB050608EB860651
:104B900094F804C086F81EC02678C3F80865C3F8E8
:104BA0000C15C3F810E5A168C3F82415617B267BBA
:104BB000003118BF0121022E78D0032E4DD0012ED6
:104BC00001D141F00201C3F85415A179C3F8C01511
:104BD000002A5FD040210722C3F80413C3F8002540
:104BE00039686379090B4AB2002A57DB02F1604247
:104BF00002F561425B01DBB282F800333B682F4C67
:104C00001B0B5AB2520903F01F03012101FA03F3EF
:104C100044F822304D4408EB85080022012388F82F
:104C20001D2088F81C3003B0BDE8F08F082003B0C9
:104C3000BDE8F08F112003B0BDE8F08F1F2E86BFB6
:104C400006F01F06DFF870A04FF0A04A4FF0010CED
:104C50000CFA06F6CAF80C6587E741F00601B2E7E0
:104C600021781F2986BF01F01F01DFF84CC04FF0EB
:104C7000A04C012606FA01F1CCF80C1516E794F8C1
:104C800002C0BCF1FF0F4FF0FF317FF43BAF4FF09C
:104C9000FF3E4AE70722C3F80025BBE7084A01F0B8
:104CA0000F015B010A44DBB21376A7E741F0040170
:104CB00089E700BFC94900000003005000E100E09F
:104CC000FCEC00E0CC0900202DE9F0470479DFF886
:104CD00090C14FEAC40E0EEB04039B0080460CEB20
:104CE00003000D46417F82B0002940F092805CF8BD
:104CF0000330164623B112F0140F04BF012343778B
:104D00000EEB04070CEB870795E80F0097F81F9050
:104D100007F10C0AB9F1FF0F8AE80F000FD0BB7F33
:104D2000002B7AD0B9F11F0F86BF09F01F094B4A3B
:104D30004FF0A042012303FA09F3C2F808352A68AC
:104D400022B102F06043B3F1005F58D1AB6823B1E8
:104D500003F06043B3F1005F51D1D8F800306968C7
:104D6000C3F84425C3F84815D5E90221C3F8342512
:104D70000022C3F83815C3F81821D3F8182101927E
:104D8000019A16F0010218BF0122C3F8502516F04F
:104D9000020218BF0122C3F8402532075CBF01227E
:104DA0001A610EEB04025CF8222062B116F00400D6
:104DB0004FF040021ABFC3F808230020C3F80423B1
:104DC00002B0BDE8F087D3F81821002AFBD0744464
:104DD0000CEB840C9CF81F30FF2B3DD09CF81E2060
:104DE00062B31F2B86BF03F01F031C494FF0A04185
:104DF000012202FA03F3C1F80C350020E0E7744405
:104E00000CEB840C002310208CF81D3002B0BDE8A0
:104E1000F087112002B0BDE8F087B9F11F0F8ABFFB
:104E20000E4A4FF0A04209F01F09012303FA09F3CB
:104E3000C2F80C352A68002A83D187E71F2B86BF6A
:104E400003F01F0305494FF0A041012202FA03F3CA
:104E5000C1F808350020B3E70020B1E70003005097
:104E6000CC09002030B56D4AD2F8043399058BB0D7
:104E700068D5D2F82431002B64D00023C2F8243145
:104E8000D2F8243101934FF40171654B0198C2F8B7
:104E9000081393F8291009B9012151605F490222D2
:104EA0008DF81820D1F88024C1F880249869D96839
:104EB00009920022CDE90710C3E90622D3E90014C4
:104EC00006A8A047554AD2F81C31CBB1544B5869BB
:104ED000196A88426BD851490022C1F81C21D1F8C7
:104EE0001C1102910299596951B1586999688DF85C
:104EF000182008905A61079106A8D3E9001290473C
:104F0000464AD2F84431DBB10021454BC2F8441186
:104F1000D2F8440193F829100090009809B10121BA
:104F200011609A6962B10022586AD9689A610122B7
:104F3000CDE907108DF8182006A8D3E90012904794
:104F40000BB030BD354AD2F804335B07BAD5D2F87E
:104F50000831002BB6D0324B996900293CD0002192
:104F6000C2F80811D2F8081104910499D868596A56
:104F7000D2F8182542545A6A996901325A625A6A1B
:104F80008A429FD1DA691968002A2ED0D8685D6AF2
:104F90001C699A61079000220120DC60DA615A6284
:104FA0008DF8180008955B6806A898478AE793F87B
:104FB000281001F0FF0000298DD1C2F81C01D2F8A1
:104FC0001C11039103999C68186A196A205C0131CD
:104FD0001962C2F81C0593E7C2F80811D2F808015B
:104FE00005900598D2F81825C9E793F8292012B939
:104FF0000A4A01205060094A4FF40170C2F80803C0
:10500000586ADA6808900024012007928DF8180089
:105010005A689C6106A8904754E700BF00200040F2
:10502000F00900202DE9F041714F06792C2505FB90
:10503000067582B095F82A30002B40F09A800D4614
:1050400004466C4900689046FFF750FB002840F08A
:105050008C802B68591C19D01F2B4FF001028ABF7E
:1050600065494FF0A04103F01F0302FA03F3C1F8B2
:1050700008352B681F2B86BF03F01F035E4A4FF0D5
:10508000A04203F5E073032142F823106B685A1C19
:105090000BD01F2B86BF03F01F03574A4FF0A042CF
:1050A00003F5E073002142F823102368AA69C3F8CE
:1050B0002425297D6B7D22680B43C2F86C35D5E928
:1050C00000122368C3F81425C3F80C152B7D012B9F
:1050D00053D02C2303FB06F3FA18C2F804802A6984
:1050E000FA50B8F1000F2DD022682B7F434D0021DC
:1050F000C2F81C11D2F81C2100922268DDF800C011
:10510000C2F84411D2F84411226801910199C2F801
:1051100004532168090B4AB25B01002ADBB261DB50
:1051200002F1604202F5614282F800332368344D97
:105130001B0B5AB2520903F01F03012101FA03F3BA
:1051400045F822302C23246803FB06730022042533
:105150000121C4F8005583F82A10C3E9062283F818
:1051600029205A6102B0BDE8F081112002B0BDE8EB
:10517000F081082002B0BDE8F081AB68591C0BD06B
:105180001F2B86BF03F01F031B4A4FF0A04203F5FD
:10519000E073002142F82310EB685A1C1BD01F2B30
:1051A0004FF001028ABF14494FF0A04103F01F03E2
:1051B00002FA03F3C1F80835EB681F2B88BF03F030
:1051C0001F0303F5E0738CBF0B4A4FF0A04203218D
:1051D00042F82310EB682268A968C2F80835C2F8C3
:1051E000101576E7074A01F00F010A4413769DE790
:1051F000F0090020654E000000030050800002000E
:1052000000E100E0FCEC00E0F8B53A4F04790268F8
:105210002C2303FB047300215B68C2F8001583B1E3
:105220000368354AC3F808230368344D1B0B5AB290
:105230005209203203F01F03012101FA03F345F85C
:10524000223003684FF0FF3CD3F80C65D3F81455B7
:10525000D3F80825D3F81015C3F814C5C3F80CC546
:1052600003686645C3F808C5C3F810C50CD01F2EE7
:1052700086BF06F01F06224B4FF0A04306F5E076EE
:105280004FF0020C43F826C06E1C0BD01F2D86BFBA
:1052900005F01F051A4B4FF0A04305F5E0750226F7
:1052A00043F825604D1C0BD01F2986BF01F01F015C
:1052B000134B4FF0A04301F5E071022543F8215054
:1052C000531C0BD01F2A86BF02F01F020C494FF05F
:1052D000A04102F5E072022341F822300068FFF796
:1052E00023FA2C2303FB0474002384F82A30636020
:1052F000F8BD00BFF00900208402020000E100E0D8
:1053000000030050F0B5314E05792C2303FB0563F3
:1053100085B05C69002C53D15A6199601C6283F896
:1053200028400268C2F81C41D2F81C1102680291A0
:105330000121029F91600268D3F808C0C2F81C41A5
:10534000D2F81C1101910199D3F820E0196A5F6825
:105350001CF80EE001311962C2F81CE517B12046B5
:1053600005B0F0BD5C691A6A0168944203D819E07F
:1053700093F828203ABBD1F81C21002AF8D0C1F8B4
:105380001C71D1F81C210392039AD3F820E01A6A09
:105390001CF80EE001321A62C1F81CE51A6A944248
:1053A000E9D80168D1F81C31002BFBD00123CB6078
:1053B00000202C2303FB056500236B6105B0F0BDC5
:1053C000112005B0F0BD0F20F3E700BFF009002069
:1053D000F0B5524BD3F824218BB0002A6ED00021B7
:1053E000C3F82411D3F82421049202228DF8182046
:1053F000049AD3F880044A4AC3F880040990D3F889
:105400003C05D3680890C2E90611079311685368F8
:1054100006A89847414BD3F84421BAB10021404A2D
:10542000C3F84411D3F8444190690394039C68B1D4
:10543000D3F83C35D06808930123C2E906110790E0
:105440008DF8183006A8D2E900139847334BD3F8EB
:105450002021BAB10021C3F82011D3F820210292F3
:1054600001202F4A029CD860506958B1D3F84C05EE
:10547000936808908DF818105161079306A8D2E937
:1054800000139847254BD3F85821AAB10021C3F83F
:105490005811D3F85801224A01900198506958B127
:1054A000D3F84C05936808908DF818105161079354
:1054B00006A8D2E9001398470BB0F0BDD3F810113D
:1054C0000029A7D0C3F81021D3F810111448059172
:1054D00005998169D3F83C458C429BD1C569C76861
:1054E000D0E900168DB1D3F800C285612CF02005FB
:1054F000C261C3F800520369C3600122CDE9077499
:105500008DF8182006A8B04784E701238561CDE90E
:1055100007748DF8183006A8B0477BE700200040DC
:105520001C0A00202DE9F04307797E4E4FEAC70898
:1055300008EB070306EB830387B093F82030002BBA
:1055400040F0B0800D460446774900689146FFF769
:10555000CDF8002840F0A2802B68591C19D01F2BD1
:105560004FF001028ABF71494FF0A04103F01F03C1
:1055700002FA03F3C1F808352B681F2B86BF03F02E
:105580001F036A4A4FF0A04203F5E073032142F87B
:1055900023106B685A1C0BD01F2B86BF03F01F0310
:1055A000624A4FF0A04203F5E073002142F8231055
:1055B0002368AA69C3F82425297D6A7D23680A43E4
:1055C000C3F86C25D5E900312268C2F80C35C2F861
:1055D00014152B7D012B69D008EB07029200B3183C
:1055E000C3F804902B69B350B9F1000F45D021687E
:1055F0002A7F4F4D0023C1F81031D1F810110191CD
:105600002168DDF804C0C1F82031D1F820110291E1
:105610002168DDF808C0C1F82431D1F824110391C4
:105620002168DDF80CC0C1F84431D1F8441104916F
:105630002168DDF810C0C1F85831D1F8581123683D
:1056400005910599C3F804532168090B53014AB227
:10565000002ADBB25FDB02F1604202F5614282F8B0
:1056600000332368334D1B0B5AB2520903F01F035A
:10567000012101FA03F345F822304744226806EB82
:105680008706002301240821C2F8001586F820406F
:10569000C6E90633736107B0BDE8F083112007B097
:1056A000BDE8F083082007B0BDE8F083AB68591C63
:1056B0000BD01F2B86BF03F01F031C4A4FF0A042E4
:1056C00003F5E073002142F82310EB685A1C1BD04D
:1056D0001F2B4FF001028ABF14494FF0A04103F085
:1056E0001F0302FA03F3C1F80835EB681F2B88BFCC
:1056F00003F01F0303F5E0738CBF0C4A4FF0A04288
:10570000032142F82310EB682268A968C2F8083523
:10571000C2F8101560E7084A01F00F010A44137639
:105720009FE700BF1C0A0020D15300000003005077
:105730001003420000E100E0FCEC00E0F0B5067967
:10574000474C0368F500AA1904EB820283B0526843
:1057500082B1444AC3F808230368434F1B0B5AB273
:105760005209203203F01F03012101FA03F347F825
:1057700022300368D3F8002222F02002C3F800226E
:1057800002680123536002680021C2F85811D2F860
:105790005811026801910199D3600268D2F858311A
:1057A000002BFBD00023C2F8003503684FF0FF3E0A
:1057B000D3F80CC5D3F81475D3F80825D3F8101511
:1057C000C3F80CE5C3F814E50368F445C3F808E52D
:1057D000C3F810E50DD0BCF11F0F86BF0CF01F0CF5
:1057E000DFF888E04FF0A04E0CF5E07C02234EF885
:1057F0002C307B1C0CD01F2F86BF07F01F07DFF853
:105800006CC04FF0A04C07F5E07702234CF827302E
:105810004F1C0BD01F2986BF01F01F01134F4FF003
:10582000A04701F5E071022347F82130531C0BD04B
:105830001F2A86BF02F01F020C4B4FF0A04302F557
:10584000E072022143F822100068FEF76DFF354434
:1058500004EB8504002384F82030636003B0F0BDBE
:105860001C0A00201003420000E100E00003005089
:1058700001F06043B3F1005F2CD1F0B40579264EFE
:10588000EF007C1906EB840482B0636923BB62617C
:10589000A1600268C2F82031D2F820C10268CDF8B8
:1058A00004C0DDF804C0C2F85831D2F85821009283
:1058B0000268DDF800C0D4F814C0C2F84415C2F87C
:1058C00048C502680121916062684AB1184602B079
:1058D000F0BC704710207047112002B0F0BC704738
:1058E000036800E0B2B9D3F82011D3F85821002999
:1058F000F8D07AB90122DA600268D2F85831002B68
:10590000FBD000203D4406EB85060023736102B006
:10591000F0BC70470F20F5E71C0A00200220FCF7BE
:1059200059BA00BF2DE9F0410C460546FCF76CFA68
:10593000B8B9012C17D00BD3022C12D1134B5C78C1
:105940007CB1134B1B6863B12046BDE8F04118479A
:105950001048FCF723FF0D4A0F4B94781B78A342A5
:10596000EED0BDE8F081094E737834781BB90A4B4C
:10597000B2781A70E4E7094F06483A464FF480417E
:10598000FCF7BCFE0028F2D13D70F0E7A80A002029
:10599000B40A0020680A0020BC0A0020400A002047
:1059A00010B50078FCF730FA40B9054B587828B1AB
:1059B000044B1B6813B1BDE81040184710BD00BF71
:1059C000A80A0020B40A0020B44B1B68DB0700D4EF
:1059D000704770B5B24DB34E2B7834786BB1B24B83
:1059E0001B7800202870002B4BD0FCF7AFF901206A
:1059F000FCF7ACF90320FCF7A9F9172C40D8DFE835
:105A000014F0B600F400F400DC000801CA00130131
:105A1000EE005000430050004300610018001800E1
:105A2000180018001800660077008B009F005D00CA
:105A30005D009E48FCF7B2FED4F11104054600F06B
:105A40000081002840F0FD80012C13D0C82303FB07
:105A500004F44FF47A704FF400430021C3FB0401B7
:105A60004FF4FA62002300F0CBFC2A4601468F482F
:105A7000FCF744FE0220FCF755F98B4B01221A700B
:105A800070BDFCF777F9B8E7012318462B70FCF7D7
:105A9000A1F900224FF400518548BDE87040FCF7A1
:105AA0002DBE012318462B70FCF794F9002240F21A
:105AB00066617F48BDE87040FCF720BEFCF772F9D4
:105AC000347070BDFCF76EF90C23337070BD764BEB
:105AD0001B78002B00F0BF800020FCF737F9012075
:105AE000FCF734F90320FCF731F91223337070BD51
:105AF0006D4B1B78002B00F0B1800020FCF726F9DD
:105B00000120FCF723F90320FCF720F90020FCF723
:105B100009F91323337070BD634B1B78002B00F021
:105B2000AD800020FCF712F90120FCF70FF90320EB
:105B3000FCF70CF90120FCF7F5F81423337070BD65
:105B4000594B1B78002B00F083800020FCF7FEF8F7
:105B50000120FCF7FBF80320FCF7F8F80020FCF725
:105B6000E1F80120FCF7DEF81523337070BD4E4BD1
:105B70001B78002B00F08A800020FCF7E7F801205A
:105B8000FCF7E4F80320FCF7E1F84948FCF706FECF
:105B90000023337070BD0020FCF7B0F8002860D0FF
:105BA0000020FCF7D3F805233370002240F6CD41E6
:105BB0003F48BDE87040FCF7A1BD0020FCF79EF80F
:105BC00000285ED00020FCF7C1F843F233310323F4
:105BD000337000223648BDE87040FCF78FBD0020CE
:105BE000FCF7A0F80723337070BD0020FCF786F89F
:105BF000D0B30020FCF7AAF8022C47F2333118BFCB
:105C00004FF48031347000222948BDE87040FCF721
:105C100075BD0020FCF772F8D8B30020FCF796F8A9
:105C20004FF480310423D3E70020FCF7D3F8062398
:105C30003370002240F266611D48BDE87040FCF7F9
:105C40005DBD0220FCF782F8174B00221A7070BD70
:105C5000FCF790F882E7FCF78DF846E7FCF78AF846
:105C600054E7FCF75FF89EE7FCF75CF841F69A1101
:105C700040F6CD43022C08BF1946C3E7FCF77AF87B
:105C800058E7FCF74FF840F6CD41A0E7FCF772F873
:105C90007BE7FCF747F841F69A11C3E7AC0A00200E
:105CA000B00A0020B80A0020410A0020480A00205B
:105CB000880A002038B5214B214A196083071060FB
:105CC00000F0010503D49DB92C46204638BD1D4B7C
:105CD0001D480E241C7040F233320121FCF74AFAB1
:105CE0000446B8B115B10120FCF794F8204638BD40
:105CF0000120FCF78FF8154A15480021FCF7F0FC4D
:105D000004460028F2D1134A13480121BDE8384067
:105D1000FCF7E6BCFCF78AFA04460028E2D101460B
:105D20000E4A0F48FCF7DCFC0446002DDED00120B3
:105D3000FCF770F8002CDED0D8E700BFB40A0020D2
:105D4000AC0A0020A80A0020306A0000C9590000EF
:105D5000406A00001D590000386A0000A159000087
:105D60003C6A000070B9012A08D0012911D00BD378
:105D7000022907D1094B00205A707047012907D02A
:105D80000246F2E707207047044B00209A707047E4
:105D90000E22024B00201A70704700BFA80A002094
:105DA000FCF75ABA08B50020FCF748FD054BD3F8BC
:105DB0001024520704BF01229A600020FCF746FD20
:105DC000002008BD00500040014B01221A707047AE
:105DD000BE0A0020704700BF38B50546214CFDF7CC
:105DE00021FD214B2149E41AE408240444F0030472
:105DF0002046FBF7E9FBA5F10900052807D8DFE8F5
:105E000000F0261C06030607194B01221A7038BD44
:105E1000184D2B782046FBB9012317492B70FBF74F
:105E2000D3FB164B1B78002BF1D02B78002BEED038
:105E30000420BDE83840FDF70DBD0D4B1B7803F085
:105E4000FF002BB10120BDE83840FDF703BD032062
:105E5000BDE83840FDF7FEBC002309492B70FBF775
:105E6000B3FBDEE7D46C0000A46C0000706A000095
:105E7000BF0A0020BD0A0020AC6A0000C00A002052
:105E8000886A000038B5054D044645F001054FF419
:105E90007A40A847013CFAD138BD00BFD06A000063
:105EA00010B52B4B1B7803F0FF04BBB1032810D8AF
:105EB000DFE800F01D30023F264B27482749C01A73
:105EC000C008000440F00100FBF77EFB9020FCF7C7
:105ED000EBF9FCF785FC30B9204610BD204B0122C0
:105EE0001A70204610BDFCF7DFF9204610BD194B93
:105EF00019481C49C01AC008000440F00300FBF711
:105F000063FBFFF74DFFFFF74DFFFCF769FC00282F
:105F1000E2D0E8E70F4B10481349C01AC00800044C
:105F200040F00300FBF750FBFFF73AFF0028D0D00A
:105F3000CDE7084B08480D49C01AC008000440F0DE
:105F40000300FBF741FBFCF74BFC0028C4D0CAE779
:105F5000BD0A0020A46C0000D46C00003C6B000063
:105F6000C00A00201C6B0000FC6A00006C6B000083
:105F700030B585B000230A4C009001251A466946C9
:105F800008482370CDE902330195FEF79DFE20B944
:105F90002378002BFCD005B030BDFCF785F9F7E77E
:105FA000BE0A0020D86A0000F0B54FF480418BB0E3
:105FB0000020FBF7A9FA08B1FCF776F9FBF794FA91
:105FC0006420FFF75FFF514B51485249C01AC00887
:105FD000000440F00300FBF7F7FAFDF799FD08B164
:105FE000FCF762F90020FDF7ADFDFCF743FB08B1BB
:105FF000FCF75AF948490220FFF75CFE08B1FCF7AC
:1060000053F90C2202210020FFF7ACFE08B1FCF787
:106010004BF9002108460A22FFF7A4FE08B1FCF75D
:1060200043F9FDF781FB08B1FCF73EF93B4D0FCD7D
:1060300005AC0FC42B683A492360002205A8FEF77F
:106040000FFC08B1FCF730F9364B93E8030001ACC4
:1060500000220190ADF8081020461146FEF79AFC88
:1060600008B1FCF721F9304B304F0FCB4FF0A04671
:106070000325C6F82057C7F82457C6F8505784E8B8
:106080000F004FF0A0502146062540F60B44039028
:106090000023274A27488DF80750ADF80440FEF743
:1060A000CFFC08B1FCF700F9204C4FF40075C4F8A0
:1060B0000C551420FFF7E6FEC4F808551420FFF72E
:1060C000E1FE4FF0A0440AA801234FF4807500F8C8
:1060D000263DC4F80C55FFF74BFF9620FFF7D2FE84
:1060E0000AA8102300F8253DC4F80C55FFF740FF1F
:1060F0000A20FFF7C7FE6420FFF7C4FEFBF752FC3F
:106100000028FBD1FDF760FBF8E700BFA46C00009E
:10611000D46C0000E06A0000D95D0000446A000011
:10612000D55D0000586A0000606A0000000300505E
:10613000C95D0000D86A000010B44FF080414FF0F4
:1061400080520020C1F80C015E4BC1F81001C1F86B
:106150003805D2F80414C3F82015D2F80814C3F88F
:106160002415D2F80C14C3F82815D2F81014C3F86B
:106170002C15D2F81414C3F83015D2F81814C3F83B
:106180003415D2F81C14C3F84015D2F82014C3F803
:106190004415D2F82414C3F84815D2F82814C3F8CB
:1061A0004C15D2F82C14C3F85015D2F83014C3F89B
:1061B0005415D2F83414C3F86015D2F83814C3F863
:1061C0006415D2F83C04C3F86805D2F840043E498F
:1061D000C3F86C050968D2F84424C3F8702508296F
:1061E00024D04FF08043D3F80024D20744BF6FF08F
:1061F0000102C3F80024354AD2F8883043F4700312
:10620000C2F88830BFF34F8FBFF36F8F4FF010236A
:10621000D3F80022002A23DBD3F80432002B1FDB43
:106220002B4B2C4A1A605DF8044B70472A4B1B68B5
:10623000002BD6D129482A4A2A4C04602A492B4BE4
:10624000FB20C2F818050A681B68294822F00F02D3
:1062500003F00F0313434FF400720B600260C0E7BA
:10626000244B0122C3F80425D3F80024002AFBD0D4
:106270004FF0102312221F49C3F80022D1F8003436
:10628000002BFBD04FF0102212211A4BC2F804123F
:10629000D3F80024002AFBD000221649C3F80425B5
:1062A000D1F80034002BFBD0BFF34F8F0749124BBE
:1062B000CA6802F4E0621343CB60BFF34F8F00BFA4
:1062C000FDE700BF00C000403001001000ED00E01D
:1062D0002C0000200090D003340100108C560040A8
:1062E00000F0004048810300E40E00405802001016
:1062F0004096024000E001400400FA0508B5074B53
:10630000044613B10021AFF30080054B1868836A7F
:1063100003B19847204600F071F800BF000000006C
:106320008C6B000070B50D4E0D4CA41BA410002505
:10633000A54209D10B4E0C4C00F0E2F9A41BA410AD
:106340000025A54205D170BD56F825309847013586
:10635000EEE756F8253098470135F2E700020020B5
:10636000000200200002002004020020044B054A25
:106370001B681B6A002B08BF1346D3F8EC0070475C
:10638000300000209400002082B001B901A942B180
:106390004BB113780B601278101C18BF012002B0AB
:1063A00070471046FBE76FF00100F8E710B5431E99
:1063B0000A44914200D110BD11F8014B03F8014F7E
:1063C000F7E702440346934200D1704703F8011BEC
:1063D000F9E7034613F8012B002AFBD1181A0138FC
:1063E000704749B1FF2A85BF8A2303600A704FF0C6
:1063F000FF3098BF0120704708467047FEE700BF96
:1064000053B94AB9002908BF00281CBF4FF0FF311B
:106410004FF0FF3000F072B9ADF1080C6DE904CE19
:1064200000F006F8DDF804E0DDE9022304B070476F
:106430002DE9F047089E04468846002B4BD18A423E
:10644000154667D9B2FA82F24AB1C2F1200701FAC1
:1064500002F320FA07F7954047EA030894404FEA11
:10646000154E230CB8FBFEF71FFA85FC0EFB1788B0
:1064700043EA084307FB0CF1994209D9EB1807F1ED
:10648000FF3080F01B81994240F21881023F2B447B
:106490005B1AA4B2B3FBFEF00EFB103344EA0344D4
:1064A00000FB0CFCA44509D92C1900F1FF3380F046
:1064B0000781A44540F2048102382C4440EA074099
:1064C000A4EB0C0400271EB1D4400023C6E900430E
:1064D0003946BDE8F0878B4209D9002E00F0EB80E9
:1064E0000027C6E9000138463946BDE8F087B3FA0F
:1064F00083F7002F47D18B4202D3824200F2FA8009
:10650000841A61EB030301209846002EE0D0C6E90F
:106510000048DDE702B9FFDEB2FA82F2002A40F05D
:106520008F80491B4FEA154E1FFA85F80127B1FBF2
:10653000FEFC230C0EFB1C1143EA014308FB0CF18B
:10654000994207D9EB180CF1FF3002D2994200F2C0
:10655000CD808446591AA3B2B1FBFEF00EFB101495
:1065600043EA044408FB00F8A04507D92C1900F1C0
:10657000FF3302D2A04500F2B6801846A4EB08040F
:1065800040EA0C409FE7C7F1200CBB4022FA0CFE0A
:106590004EEA030E01FA07F420FA0CF521FA0CF387
:1065A0004FEA1E482543B3FBF8F92C0C08FB1933BE
:1065B0001FFA8EFA44EA034309FB0AF49C4202FAEA
:1065C00007F200FA07F10BD91EEB030309F1FF30C4
:1065D00080F087809C4240F28480A9F102097344D4
:1065E0001B1BADB2B3FBF8F008FB103345EA0344C4
:1065F00000FB0AFAA24508D91EEB040400F1FF33A0
:106600006BD2A24569D90238744440EA0940A0FB24
:106610000289A4EB0A044C45C2464B4654D351D0E0
:10662000002E69D0B1EB0A0564EB030404FA0CFCFC
:10663000FD40FC404CEA0505C6E90054002747E749
:10664000C2F1200320FA03F7954001FA02F021FA83
:1066500003F34FEA154E3843010CB3FBFEF71FFA64
:1066600085F80EFB173341EA034107FB08F38B4221
:1066700004FA02F407D9691807F1FF3C2FD28B42C4
:106680002DD9023F2944CB1A81B2B3FBFEF00EFB99
:10669000103341EA034100FB08F38B4207D9691824
:1066A00000F1FF3C17D28B4215D902382944C91A90
:1066B00040EA07473BE73746304609E70746E7E643
:1066C0001846FBE64145ABD2B8EB020A69EB0E0275
:1066D00001381346A4E76046E9E7184695E76746A0
:1066E000D1E781467CE702382C4447E7ACF1020C45
:1066F0002B442FE7384608E73746E9E6704700BFE6
:10670000F8B500BFF8BC08BC9E467047F8B500BF9E
:10671000F8BC08BC9E467047FFFFFFFFFFFFFFFF6E
:10672000FFFFFFFFFFFFFFFF000000000000000071
:106730000000D60106010000D5130000411400003E
:10674000D1130000756172745F6C6F675F62616383
:106750006B656E6400000000600700207F00000091
:10676000E00700204261636B656E647320666C75A0
:10677000736865640000000061707000D4670000F9
:1067800004680000B46700000C6800001468000092
:106790001C680000246800002C68000034680000B9
:1067A0002025303278000000202020007C000000EE
:1067B000256300001B5B313B33316D0025734C6F4B
:1067C00067732064726F70706564202825642925C2
:1067D000730D0A001B5B306D000000002573000084
:1067E0003C25733E2025733A200000000D0A00006E
:1067F000000000003C680000446800004C68000095
:10680000546800001B5B313B33306D001B5B313B38
:1068100033326D001B5B313B33336D001B5B313B0F
:1068200033346D001B5B313B33356D001B5B313BFB
:1068300033366D001B5B313B33376D006572726F11
:10684000720000007761726E696E6700696E666F34
:10685000000000006465627567000000271E1D1FB0
:10686000000800206170705F627574746F6E0000C4
:10687000466174616C206572726F72005379737433
:10688000656D2072657365740000000001000600EC
:10689000000000004C080020392300006170705F88
:1068A00074696D65720000000000000000000000C7
:1068B0000338FDD87047000052544320696E73744A
:1068C000616E636520616C726561647920696E69CF
:1068D0007469616C697A65642E0000005254433A11
:1068E00020696E697469616C697A65642E000000C4
:1068F00030313233343536373839414243444546F6
:10690000F00800204665656400000000496E697467
:106910000000000053687574646F776E20726571B3
:10692000756573742025640053687574646F776EA1
:1069300020737461727465642E205479706520250B
:10694000640000005379734F66662068616E646C62
:10695000657220307825303858203D3E20726561C0
:10696000647900005379734F66662068616E646CC9
:10697000657220307825303858203D3E20626C6F9B
:10698000636B696E670000004D6178696D756D20FD
:106990004350552075736167653A2025752525009C
:1069A00053687574646F776E20636F6D706C657477
:1069B000652E00004350552055736167653A2025C8
:1069C00075252500A06C0000A46C000004000000E8
:1069D0007077725F6D676D7400000000736F727482
:1069E0006C69737400000000636C6F636B000000DF
:1069F000434C4F434B0000004750494F5445000063
:106A00005052530000000000000000000000000091
:106A10000338FDD8704700005350494D0000000076
:106A200055415254000000005541525445000000A9
:106A30001300030025590000480A0020680A0020BE
:106A4000880A0020000000002B2D2A2E2F2C040382
:106A50000000010000010600B90101010101000070
:106A6000FFFFFFFF0006FF000000004000000000E5
:106A7000506F776572206D616E6167656D656E74CC
:106A8000206665640000000053797374656D2069A9
:106A900073206E6F7420726561647920666F722056
:106AA00073687574646F776E0000000053797374B7
:106AB000656D20697320726561647920666F72204C
:106AC00073687574646F776E00000000000000004A
:106AD0000338FDD87047000000F0024000000000BD
