:1010000068190020794C0000B9A60000F14A0000E0
:10101000F14A0000F14A0000F14A0000F14A0000E4
:10102000F14A0000F14A0000F14A0000D9490000ED
:10103000F14A0000F14A00008D490000A5A6000019
:10104000394C0000394C0000394C0000394C00008C
:10105000394C0000394C0000394C0000394C00007C
:10106000394C0000394C0000394C0000394C00006C
:10107000394C0000394C0000394C0000394C00005C
:10108000394C0000394C0000394C0000394C00004C
:10109000394C0000394C0000394C0000394C00003C
:1010A000394C0000394C0000394C0000394C00002C
:1010B000394C0000394C0000394C0000394C00001C
:1010C000394C0000394C0000394C0000394C00000C
:1010D000394C0000394C0000394C0000394C0000FC
:1010E000394C0000394C0000394C0000394C0000EC
:1010F000394C0000394C0000394C0000394C0000DC
:101100007BB972B90029BEBF00204FF0004106E054
:1011100008BF00281CBF6FF000414FF0FF3000F007
:10112000BDB9ADF1080C6DE904CE002909DB002B37
:101130001ADB00F04DF8DDF804E0DDE9022304B02D
:101140007047404261EB4101002B1BDB00F040F88F
:10115000DDF804E0DDE9022304B0404261EB410127
:10116000524263EB43037047524263EB430300F088
:101170002FF8DDF804E0DDE9022304B0404261EB22
:1011800041017047524263EB430300F021F8DDF860
:1011900004E0DDE9022304B0524263EB43037047ED
:1011A00053B94AB9002908BF00281CBF4FF0FF31CE
:1011B0004FF0FF3000F072B9ADF1080C6DE904CECC
:1011C00000F006F8DDF804E0DDE9022304B0704722
:1011D0002DE9F047089E04468846002B4BD18A42F1
:1011E000154667D9B2FA82F24AB1C2F1200701FA74
:1011F00002F320FA07F7954047EA030894404FEAC4
:10120000154E230CB8FBFEF71FFA85FC0EFB178862
:1012100043EA084307FB0CF1994209D9EB1807F19F
:10122000FF3080F01B81994240F21881023F2B442D
:101230005B1AA4B2B3FBFEF00EFB103344EA034486
:1012400000FB0CFCA44509D92C1900F1FF3380F0F8
:101250000781A44540F2048102382C4440EA07404B
:10126000A4EB0C0400271EB1D4400023C6E90043C0
:101270003946BDE8F0878B4209D9002E00F0EB809B
:101280000027C6E9000138463946BDE8F087B3FAC1
:1012900083F7002F47D18B4202D3824200F2FA80BB
:1012A000841A61EB030301209846002EE0D0C6E9C2
:1012B0000048DDE702B9FFDEB2FA82F2002A40F010
:1012C0008F80491B4FEA154E1FFA85F80127B1FBA5
:1012D000FEFC230C0EFB1C1143EA014308FB0CF13E
:1012E000994207D9EB180CF1FF3002D2994200F273
:1012F000CD808446591AA3B2B1FBFEF00EFB101448
:1013000043EA044408FB00F8A04507D92C1900F172
:10131000FF3302D2A04500F2B6801846A4EB0804C1
:1013200040EA0C409FE7C7F1200CBB4022FA0CFEBC
:101330004EEA030E01FA07F420FA0CF521FA0CF339
:101340004FEA1E482543B3FBF8F92C0C08FB193370
:101350001FFA8EFA44EA034309FB0AF49C4202FA9C
:1013600007F200FA07F10BD91EEB030309F1FF3076
:1013700080F087809C4240F28480A9F10209734486
:101380001B1BADB2B3FBF8F008FB103345EA034476
:1013900000FB0AFAA24508D91EEB040400F1FF3352
:1013A0006BD2A24569D90238744440EA0940A0FBD7
:1013B0000289A4EB0A044C45C2464B4654D351D093
:1013C000002E69D0B1EB0A0564EB030404FA0CFCAF
:1013D000FD40FC404CEA0505C6E90054002747E7FC
:1013E000C2F1200320FA03F7954001FA02F021FA36
:1013F00003F34FEA154E3843010CB3FBFEF71FFA17
:1014000085F80EFB173341EA034107FB08F38B42D3
:1014100004FA02F407D9691807F1FF3C2FD28B4276
:101420002DD9023F2944CB1A81B2B3FBFEF00EFB4B
:10143000103341EA034100FB08F38B4207D96918D6
:1014400000F1FF3C17D28B4215D902382944C91A42
:1014500040EA07473BE73746304609E70746E7E6F5
:101460001846FBE64145ABD2B8EB020A69EB0E0227
:1014700001381346A4E76046E9E7184695E7674652
:10148000D1E781467CE702382C4447E7ACF1020CF7
:101490002B442FE7384608E73746E9E6704700BF98
:1014A00001282DE9F0410C4607D005F0B3FE1623C4
:1014B00003604FF0FF30BDE8F08109F0C3FF164D27
:1014C00022686668A468A2FB057805FB0688134EAF
:1014D0003A1948EBE473A0FB0645121B06FB0155C5
:1014E00063EB050317469846384609A3D3E9002362
:1014F0004146FFF705FE0A4E05A3D3E90023C6E9DE
:10150000000138464146FFF7FBFD0020B260D2E7FC
:1015100000CA9A3B0000000000CA9A3B40420F00FC
:101520000000002008B50D4B1B6803F00703022BD9
:101530000FD903234FF0000163F30201084A094B5E
:1015400009489B1A6FF3C501DB0863F38F1107F09D
:10155000C3FDBDE8084000F075B800BFD42C0020E2
:101560002CB900002CB9000000C4000008B5034AE3
:10157000002108F023F9002008BD00BFB4C200001C
:101580002DE9F3410B460D46174600210B4ADFF8C3
:101590003080064608F012F90024AC4203D1002046
:1015A00002B0BDE8F08157F824300093424623464C
:1015B0000021304608F002F90134EEE798C200003D
:1015C000A3C2000008B5034A034B002108F0F6F857
:1015D000002008BDE6C20000DFC2000010B50446CE
:1015E000044809F049FF2046034A002108F0E6F8C4
:1015F000002010BD042D0020CDC2000010B504460F
:10160000C8221146044806F07BFF2046034A002109
:1016100008F0D4F8002010BD042D0020BAC200004C
:1016200010B504460A221146044806F069FF204618
:10163000034A002108F0C2F8002010BD042D00204C
:10164000BAC2000010B5204C236803F00703022B38
:101650000FD903234FF0000163F302011B4A1C4B17
:101660001C489B1A6FF3C501DB0863F38F1107F069
:1016700033FD236803F00703012B0FD902234FF03A
:10168000000163F30201114A114B13489B1A6FF3D7
:10169000C501DB0863F38F1107F01EFD23685B07AC
:1016A00011D001234FF0000163F30201074A084BF8
:1016B0000A489B1A6FF3C501DB0863F38F11BDE87D
:1016C000104007F009BD10BDD82C00202CB9000037
:1016D00034B900000FC400001CC400002CC400007A
:1016E000084B1B7883420AD9074B00EB4010184483
:1016F0000023C1E90233054B08604B6070470023AB
:101700000B607047D80900204407002081C5000005
:101710002DE9F341134C2378064643B9124A0421BC
:1017200008F04CF86FF0070002B0BDE8F0810F4AF6
:101730000F4FDFF84080002108F040F800232278A6
:101740005D1CDBB29A4201D80020EDE703EB4312A7
:101750003A44009200214246304608F02FF82B46CA
:10176000EDE700BFD80900203FC5000060C50000BC
:101770004407002077C500002DE9F743DFF85880C3
:10178000DFF8589007461546002698F8003069683B
:10179000F0B2834209D800912B680D4A02213846E5
:1017A00008F00CF86FF007040EE000EB401048441E
:1017B00009F04FF8013604460028E6D101466B686F
:1017C000044A384607F0FAFF204603B0BDE8F0832C
:1017D000EDC40000D8C40000D80900204407002050
:1017E0002DE9F74FDFF890A0DFF8909007464FF013
:1017F000000BD0469AF8001053685FFA8BF4A142B0
:1018000007D81B4A0221384607F0D8FF6FF00705BA
:101810001BE004EB44164E4419463046019209F091
:1018200018F80BF1010B0546019A0028E2D1132CA0
:101830000FD189F8730298F800300E4A013B00215D
:10184000384688F8003007F0B9FF284603B0BDE8F5
:10185000F08F9AF80020121B013404EB441402EBC1
:10186000421209EB0401304609F01FF8E3E700BF1C
:1018700025C5000007C50000D80900204407002046
:101880002DE9F041274C2378132B0646174607D93C
:10189000254A022107F092FF6FF00700BDE8F081B2
:1018A000506808F0CEFF80B2202810D87D68002351
:1018B0009AB290420FD8DFF88880002505EB4510DA
:1018C0007968404408F0C5FF90B9184A00E0184A0A
:1018D00002213046DEE7EA5C42F020016139192935
:1018E00004D9303A092A01D9124AF1E70133DFE776
:1018F0000135142DE2D120787A680F49431C00EBA2
:1019000040104044237004F069FB0C4B21780C48D4
:10191000212206F0E2FE30460A4A002107F04EFF7F
:101920000020BBE7D809002041C40000A8C4000083
:1019300058C400006AC400005DCD0000838600002A
:1019400044070020BCC400002DE9F04F85B09B4641
:101950000E9CDFF88890012CB8BF0124012B0CBF2E
:1019600030232023164682468846029301250A2703
:101970000022B6FBF9F301930AB9B1451DD8019BCA
:10198000414603F13000D04701350122019B013F60
:10199000012F09FB13664FF00A03B9FBF3F9E8D1F5
:1019A000414606F13000D047BBF1030F02D1641B62
:1019B000002C0EDC05B0BDE8F08FBC42E6DBBBF1CD
:1019C000020FE3D84146029803920135D047039AAB
:1019D000DCE741462020D047013CE9E700CA9A3BBA
:1019E000014B1860704700BF282B00202DE9F347FA
:1019F000C4684369066904F1FF3A40F26C74E11867
:101A00004FF0000506F1010645EBE372022E8CBF94
:101A100000230123CC1A62F10005002C75F10003AC
:101A200007464FF4C8724FF0000359DA6FF4C778D5
:101A30004FF0FF3918EB040049EB0501FFF760FB9D
:101A4000294B03FB0044D7E9005398464FEAE3795A
:101A5000BB683C27C7FB0389A8FB0723CDE900230C
:101A6000019B07FB09330193DDE90023022E8CBFA4
:101A70006FF0020C4FF0090C521943EBE573A70805
:101A800040F26D1505FB0475AA4466446425B4FB59
:101A9000F5F4164DAAEB04044FF0990A0AFB06FA76
:101AA000A0FB0589052612480AF1020ABAFBF6FADC
:101AB000544405FB019918EB04060E4C49F100074C
:101AC0004FF0FF3116EB000847EB0109A8FB045665
:101AD000A81804FB096646EB030102B0BDE8F087D5
:101AE00020462946AAE700BF70FEFFFFB13A020078
:101AF0009405F5FF80510100014806F045BA00BF8A
:101B00004C2D002030B5002287B00D490D4809F05A
:101B1000A7FC0D4D0D4900240E23CDE90243CDE96C
:101B20000444CDE900440A4B4FF44072284606F0C5
:101B300045FB0849284606F0BBFA204607B030BDF1
:101B4000F91A00002C00002074000020680A002010
:101B50008D2000009CCA000038B500F02FFB134810
:101B6000134D07F076FA042328221249124809F08F
:101B700085FA124B124A1A604FF4004000F064FDDF
:101B80001048114A121AD2080023934200D138BDDE
:101B900000EBC30155F82340097924F0070401F054
:101BA0000701214345F823100133EEE7240000200C
:101BB000D42C0020A8220020580000202C2B00202C
:101BC000919000002CB900008CB90000F8B50F4BC3
:101BD000BFF35B8F002553E8007F43E80052002AE3
:101BE000F9D1BFF35B8F0A4C0A4E361B3611B54252
:101BF00000DBF8BD63685B792BB12368DB6813B148
:101C000039462046984701351034F0E71C00002083
:101C10008CB900009CB90000064BBFF35B8F53E802
:101C2000002F013243E800210029F8D1BFF35B8F78
:101C3000704700BF1C000020044A054B9B1AB1EB03
:101C4000D30F34BF52F83100002070472CB9000088
:101C50008CB900002DE9F047894616469846B8B978
:101C6000214B224FFF1A3F11044605469A46BC42BB
:101C700002DB2846BDE8F0870AEB041043463246F3
:101C80004946FFF7E7FF854238BF05460134EEE7D6
:101C9000174B184903EBC2031D7943681A790723D0
:101CA00002EB420203FA02F0454551F8263028BF04
:101CB000454623EA000305F0070000FA02F2134349
:101CC0000020032223FA02F404F00704A04202F1E8
:101CD000030238BF20461E2AF4D123F00703034332
:101CE00041F82630C5E700BF8CB900009CB9000060
:101CF0002CB90000D42C0020144BC31A2DE9F0415C
:101D00001B1117464268124C01331371114BE41A30
:101D100005460E46E4084FF00008A0450DD16B685B
:101D20000D4C1E6001225A71227812B90B4806F040
:101D30002BF901232370BDE8F081002142463B4688
:101D40002846FFF787FF08F10108E6E78CB9000095
:101D50008CB900002CB90000D90900204C2D0020BE
:101D6000F8B5114BBFF35B8F53E8004F621C43E89B
:101D700000210029F8D1BFF35B8F2CB90B4D0C4E1D
:101D8000761B3611B44200DBF8BD2701EB191B7B33
:101D900043B1EB595B6903B1984704220021E8196C
:101DA000FFF7AAFF0134EDE7200000208CB9000006
:101DB0009CB90000436870B500245C71074D084B66
:101DC000ED1A0646ED08AC4200D170BD0023224654
:101DD00019463046FFF73EFF0134F4E78CB90000A6
:101DE0002CB9000053B143680749187900EB400350
:101DF00051F82200D84000F007007047034B03EB76
:101E0000C2021079704700BFD42C00202CB900000A
:101E1000164B984237B5044602D3154B98421FD350
:101E2000002201A9134805F0ADFB0546D8B90122EF
:101E3000019BBFF35B8F53E8001F43E8002000289D
:101E4000F9D1BFF35B8F019821461F22043008F0BF
:101E5000D7FC019C7E2384F8233084F8245004347A
:101E6000204603B030BD044CFAE700BF10B70000B5
:101E70000CDD00005800002029C7000048B1054BC8
:101E8000984205D3A03398422CBF00200120704710
:101E900000207047A82200202DE9F04F594B1B78F5
:101EA00085B0054603B960B34FF02003EFF3118608
:101EB00083F31188BFF36F8F534807F0DAF80446B5
:101EC00086F31188BFF36F8F78B1BFF35B8F4F4BF1
:101ED00053E8002F013A43E800210029F8D1BFF36D
:101EE0005B8F95B1204607F0CAF925B9484B1B68AE
:101EF0000BB1FFF76BFE444807F0B9F8051C18BF9B
:101F00000125284605B0BDE8F08F424B1B78DBB9B0
:101F1000237ADA0718D407F0C5F98146204607F07E
:101F20008EF90146484607F0B7F83B4B3B4ADFF8CD
:101F30000CB1D21A4FEAD20A394AD21AC2F3C902F4
:101F4000CDE90223074647B9364E374FDFF8F09008
:101F5000BF1B3F114FF0000851E0B7FA87F6C6F1FA
:101F60001F063146204607F06DF9304B9842024675
:101F700002D32F4B984222D31046FFF77FFFF0B9D0
:101F80002C4B9A421BD063899B0953453CBF039A53
:101F900052F83320DBF8003028BF02465B070ED032
:101FA000012363F30208029B23486FF3C50863F320
:101FB0008F18ADF800804B46314607F0C6F8012374
:101FC00003FA06F627EA0607BDE773685A799AB15D
:101FD00060891B79A17A800903EB430259F820300C
:101FE000D34001F0070103F00703994204D8336896
:101FF00021461B683046984708F101081036B8455D
:10200000E3DB6FE7D909002024000020180000203E
:102010001C000020DA0900202CB900008CB9000057
:1020200044B900008CB900009CB9000010B7000052
:102030000CDD000029C7000047C70000E02C00208D
:10204000D42C0020F8B50E4F3D7875B90D4C0E4ECE
:10205000FFF786FE361B3611B54207DB0020FFF77F
:102060001BFF0028FAD101233B70F8BD63685B7940
:102070001BB1236820461B69984701351034EBE7F4
:10208000DA0900208CB900009CB9000008B5FFF700
:1020900067FE05F073FF0B4B186030B10A4B1B68ED
:1020A000092B02DD094805F06FFF084C0020FFF7FF
:1020B000F3FE0028FAD14FF0FF31204605F08AFFE9
:1020C000F4E700BF1C010020180000204C2D002068
:1020D000264B70B51B68418105469847244CE86043
:1020E000BFF35B8F54E8003F013344E80032002A1D
:1020F000F8D1BFF35B8F4FF02003EFF3118683F32A
:102100001188BFF36F8F1B48294606F0A6FF86F3A0
:102110001188BFF36F8F184B1A787AB14FF02003F4
:10212000EFF3118483F31188BFF36F8F0020FFF763
:10213000B3FE84F31188BFF36F8F70BD0F4923681E
:1021400009680029F9D0012B06D14FF47A710C48A7
:10215000BDE8704006F0D4B90A2BEED1084809F06A
:102160008BF90848BDE8704005F00EBF2C2B00200D
:102170001800002024000020DA0900201C010020A3
:102180002C0000204C2D002007B504380190BFF32F
:102190005B8F50E8003F5A1E40E800210029F8D12B
:1021A000BFF35B8F012B03D101A9034805F018FA97
:1021B00003B05DF804FB00BF5800002020231A463E
:1021C0000149024808F05ABF48230020200100209E
:1021D00073B502AC002344F8043D094E0120FFF71B
:1021E0005BFE0546FFF718FD00222146304605F04C
:1021F000C9F908B1002DF1D1019802B070BD00BF3E
:102200002001002007B502A9002241F8042D05484D
:1022100005F0B8F910B1FFF7DBFF0190019803B0AA
:102220005DF804FB20010020F0B5047A457A85B002
:1022300014F0010401904FEA151510D0019B1A7A91
:10224000920706D504AC5B6944F8043D174D039B27
:102250002BBB01A9154805F0C3F905B0F0BD002D51
:10226000ECD0264617E0314606F0ECFF0746FFF7B4
:1022700005FE78B13CB9019B2946186906F00CFFB0
:1022800004460028DAD024FA06F3DB0702D53846E4
:10229000FFF77AFF0136AE420198E4D3CEE71E681D
:1022A0002146284605F09CF90396D0E7200100203E
:1022B0000EB403B503AB014653F8042B0448019355
:1022C00006F08BFC002002B05DF804EB03B0704711
:1022D000A59500002DE9F04F85B011F002040646E7
:1022E00090469DF8387001F0010901F0080507D00B
:1022F00011F0440F37D11A463249FFF7D9FF04468F
:10230000B9F1000F0AD0304B304953F82720304B39
:102310003046002A08BF1A46FFF7CAFF3DB12D4BD1
:102320002D4953F827203046FFF7C2FF0546B8F184
:10233000000F44D0012303FA07F7284B17F0100FC2
:10234000274F18BF1F46BDF840109DF83C00FFF70F
:1023500073FC394602463046FFF7AAFF2844204462
:1023600005B0BDE8F08F1F4A116831B31E4A4FF423
:10237000616E1468B3FBF4F34FF47A7CB3FBF1F4B1
:10238000B4FBFEF20EFB124E01FB14340CFB04F402
:102390004FF03C0AB4FBF1FB01FB1B44BEFBFAF31C
:1023A0000CFB04F4B4FBF1F1CDE901B10AFB13E13C
:1023B00000910E49FFF77CFFA1E708469FE7084F11
:1023C000C1E700BFBFC70000A8BB00005DCD000093
:1023D000B1C70000BCBB0000E4C70000B6C70000E6
:1023E000BAC700003C01002040010020C8C700001F
:1023F00038B50C46E107054603D5084A0849FFF7FA
:1024000057FFE20608D4A30628464CBF05490649F3
:10241000BDE83840FFF74CBF38BD00BFB1C7000072
:102420005DCD00007CCC000039C800002DE9F047EC
:102430009846089BDD0604460E46174605D49906C5
:102440004CBF29492949FFF733FFDFF8A890002541
:1024500045452ADBDFF8A080DFF8A090DFF894A0E4
:102460000025AF422ED9725D49462046FFF720FF76
:102470000135102D1FD11E49DFF87880DFF88090DC
:102480002046FFF715FF0025AF4227D9725DA2F164
:1024900020035F2B28BF2E2249462046FFF708FF66
:1024A0000135102D13D1BDE8F08749462046FFF7CE
:1024B000FFFE0135CCE76A07D3D151462046FFF72E
:1024C000F7FECEE741462046FFF7F2FED0E76B0766
:1024D000DAD141462046FFF7EBFED5E741462046DC
:1024E000FFF7E6FEDCE700BF7CCC000039C8000047
:1024F00090C700008EC700008CC7000086C7000090
:102500006BCF00002DE9F0478B7A17460A7A13F05B
:1025100007046FEA02028AB005460E46D2B21BD00B
:102520004989C3F3C20389090291CDE9004302F04E
:102530000102F3683946FFF7CDFE8146337ADA07A8
:102540000CD42946304606F0C3FE4CB32246394629
:102550002846FFF74DFF23E0A146EFE734BB2746AF
:10256000EB68069306AA3B46A968304606F09CFE37
:10257000069A6B681A603AB1AB68134413F8014CC1
:10258000A4F10A035C425C41284606F0FEFF069B6C
:102590001F44002BE4D11CB114492846FFF788FEE4
:1025A000284606F0F2FF0AB0BDE8F087304606F094
:1025B00079FE0F4902462846FFF77AFE4FF00008E1
:1025C0004FF0100A05AA434606A93046CDF814A0DC
:1025D00006F06AFE059A002AB8D04B46009706A975
:1025E0002846FFF723FF059B9844EBE792C70000BE
:1025F0005DCD000073B5D0E900435D680F4A42F23B
:102600000F738B4228BF0B466846052103F0CEFCB2
:102610002B46064604222046094906F04CFE2B466E
:1026200032466946204606F046FE2B4617220549EB
:10263000204606F040FE02B070BD00BF56CF00003D
:10264000ACC7000094C70000084A10B50123084C2D
:1026500013600021A04204D801B11360054B18603B
:1026600010BD40085B000121F4E700BF40010020DD
:1026700040420F003C01002000230428CB604B6047
:1026800098BF044B044A98BF53F820308A600B600F
:10269000704700BF10BC0000ECBB00000022084BDC
:1026A0000A60CA604A608B60064A074BD21AB0EBD8
:1026B000221F3EBF03EB00139B680B60704700BFF7
:1026C00050BD00009CB900008CB900002DE9F34713
:1026D000114C124DDFF84880DFF84890DFF848A031
:1026E0002D1B07462D110026AE4203DB002002B051
:1026F000BDE8F087626853791279002B14BF434616
:102700004B46CDE900320021A3685246384607F017
:1027100055F801361034E7E78CB900009CB9000089
:102720000AC8000012C800001BC800002DE9F74FBE
:10273000214B224DED1A4B685B7906460F46ED089A
:102740001BB91F4A042107F039F81E4B1E4ADFF857
:102750008080DFF880900021304607F02FF81B4A78
:102760000021304607F02AF80024AC4203D10020B3
:1027700003B0BDE8F08F2246012300213846FFF761
:1027800031FB00232246194682463846FFF72AFBD2
:10279000214683460020FFF74FFA58F82B3001936B
:1027A00058F82A3000934A4603460021304607F085
:1027B00005F80134D9E700BF2CB900008CB900003E
:1027C00097C80000A9C80000B5C80000D3C8000021
:1027D000FCBB000010C9000010B50023054ACB6007
:1027E0000C464B608A6001461846FFF725FA2060C8
:1027F00010BD00BFECBB00002DE9F04F1F462C4D73
:102800002C4BED1A85B0ED08002A14BF13462B4659
:1028100003934B685B798046894616461BB9264A66
:10282000042106F0CBFFDFF89CA00024039B9C4210
:1028300002DB05B0BDE8F08FBEB357F82430029339
:102840004FF0000BAB4507D157F824301B4A02214B
:10285000404606F0B3FF20E059460020FFF7ECF9B0
:102860004022029908F002F8C8B95A4600210E9B8E
:102870004846FFF7EFF90E9B834283460DD08EB991
:1028800021463046FFF7D8F903465AF82B2000922C
:1028900004210B4A404606F091FF0134C6E70BF1D4
:1028A000010BCFE757F82430EFE72246DEE700BF01
:1028B0008CB900002CB900003CC8000067C80000BB
:1028C00051C80000FCBB00002DE9F04F52F8047C19
:1028D000194D85B080463846924602938B4607F0E4
:1028E000B0FF164A521B1211034601920024019AAE
:1028F000944208DB3B46124A0221404606F05EFF46
:102900006FF0070613E005EB04191A46D9F8081012
:102910000393384607F0AAFF064610B10134039B23
:10292000E5E753465A4649464046029CA047304692
:1029300005B0BDE8F08F00BF8CB900009CB9000065
:1029400024C9000008B5024BFFF7BEFF002008BDF8
:102950002D270000014BFFF7B7BF00BFDB9500003C
:10296000014BFFF7B1BF00BFE3950000014BFFF73C
:10297000ABBF00BFA5290000014BFFF7A5BF00BFFB
:10298000ED950000C369DB6810B51C792CB9044AC9
:10299000022106F013FF204610BD0120FCE700BF16
:1029A00039C900002DE9F74FD3F804A0DFF850B083
:1029B0000746884691461E46002404225BF82410F0
:1029C000504607F053FF054670B10134052CF4D191
:1029D00073680A4A0221384606F0F0FE6FF00705D8
:1029E000284603B0BDE8F08F009406F10803A9F172
:1029F000020241463846FFF7FFFEF1E781C80000BA
:102A0000FCBB000013B5044605F062FCC0F30723CD
:102A10000193C0F307430093044A030E00212046AC
:102A200006F0CCFE002002B010BD00BF82CB00003B
:102A300010B5044608F006FD034A0346002120466F
:102A400006F0BCFE002010BD73CB000010B504469C
:102A500001F03EFF084A03460021204606F0AEFE84
:102A6000064A2046002106F0A9FE2146044805F04A
:102A7000D5FA002010BD00BF4ACB000069CB000092
:102A8000E12A000030B5014687B00546114805F03F
:102A9000C5FA114A0023995CAA2903D10133B3F581
:102AA000006FF8D1C3F5006164224A43D20A0024C2
:102AB00005924FF40062CDE90312CDE901232846C7
:102AC0000094054B054A214606F078FE204607B0E3
:102AD00030BD00BF9D2B0000A81A002004CB0000D1
:102AE000F0B587B004460D46D0F8986008F03DFC7C
:102AF000074605F043FA214B214A002F08BF1F4625
:102B0000204BCDE90047844208BF134600212846E8
:102B10001D4A06F053FE226A019294F90E20237B8F
:102B200000920021194A284606F048FE204605F08A
:102B3000CFFA174A03460021284606F03FFE05A9B2
:102B4000204608F02DFC014638B10346114A002109
:102B5000284606F033FE07B0F0BD059A6423B01A8C
:102B6000CDE9002043430C4AB3FBF6F32846CDE9F8
:102B70000263334606F022FEEDE700BFD5CB00002E
:102B800033DA00008EC70000D8CB0000E4CB000091
:102B90000ECC00001ACC000047CC0000F0B5064671
:102BA00089B00F46D0F8984007A908F0F9FB054610
:102BB00038B10346114A0021384606F0FFFD09B03E
:102BC000F0BD304608F0D1FB07990D4BA4EB010C8A
:102BD000002808BF1846642202FB0CF2CDE9021C53
:102BE000B2FBF4F2CDE90004CDE904423346054AD4
:102BF0002946384606F0E2FDE1E700BF1ACC0000A6
:102C0000D5CB00009BCB000010B5044601F07AFE46
:102C1000034A03460021204606F0D0FD002010BDE7
:102C2000EECA00002DE9F041144D154C154A164F1F
:102C3000DFF85C80641B0021064606F0BFFDA30898
:102C4000124C5C4324F040440C2303FB0454A54283
:102C500002D10020BDE8F08155F8083C63B155F879
:102C60000C3C3A46002130461B6806F0A7FD424660
:102C70000021304606F0A2FD0C35E8E7442C002088
:102C8000E02C002051CD00005BCD0000ABAAAA2AA9
:102C90007CCC0000F8B50C4B0C4F53F821400131AF
:102CA000064653F821500020A54200D8F8BD6368BD
:102CB0003BB1236830461B683A46002106F07EFD92
:102CC00001200C34F0E700BF08BE000060CD00001A
:102CD00010B51F4A0446002106F070FD022120466F
:102CE000FFF7D8FF014618B91A4A204606F066FDDC
:102CF000194A0021204606F061FD03212046FFF716
:102D0000C9FF014618B9134A204606F057FD134A79
:102D10000021204606F052FD00212046FFF7BAFFB1
:102D2000014618B90B4A204606F048FD0C4A00211E
:102D3000204606F043FD01212046FFF7ABFF014688
:102D400018B9044A204606F039FD002010BD00BF26
:102D50000FCD00001DCD000025CD000033CD0000BB
:102D600042CD00007FB50A684B6904924A6803921D
:102D70008A680292CA6801920A690132009203F2DB
:102D80006C73034A002106F019FD07B05DF804FBDF
:102D900018CE0000F7B513783A2B06460F461546B5
:102DA00015D1541C23783A2B2DD1013400230A224B
:102DB00001A92046019307F086FC019B3860A342DD
:102DC00010D01B7873B93C2831D91A4A14E000237B
:102DD0000A2201A92846019307F075FC019CB860FE
:102DE000AC4203D16FF0150003B0F0BD23783A2B4D
:102DF000F8D1172805D9104A0221304606F0DEFC2A
:102E0000F0E70134CEE700230A2201A9204601930E
:102E100007F059FC019B7860A342E3D01A783A2A64
:102E2000E0D13B2801D9054AE6E75C1CBEE718461D
:102E3000DAE700BF57CE000039CE000047CE0000D1
:102E40002DE9F04790B00D46044602A9012017462F
:102E500003F0B8F907A902A803F0D8F8032D61D14F
:102E600010AE4FF000097D6846F83C9D0A223146BD
:102E7000284607F028FC8046019885421AD003783E
:102E80002D2B17D1451C0A2231462846CDF8049037
:102E900007F019FC019B9D420CD01A782D2A09D10C
:102EA00000F1FF3ABAF10B0F0DD92A4A0221204650
:102EB00006F084FC204606F0B0FC6FF015052846AD
:102EC00010B0BDE8F0875D1C0A2231462846CDF8D7
:102ED000049007F0F8FB019B9D42EBD01B78002B80
:102EE000E8D1431E1E2B01D91B4ADFE7A8F26C7301
:102EF000CDE90BA3BA680A9007A92046FFF74AFF5D
:102F00000028D7D107A805F0EAFFCDE90201013179
:102F100008BFB0F1FF3F09D1104A0221204606F058
:102F20004DFCCAE7022DC5D17A68E5E7002302A966
:102F300001200493FEF7B4FA054630B10346084A6F
:102F40000221204606F03AFCB7E707A92046FFF722
:102F500009FFB4E7BCCD0000CBCD0000D8CD000008
:102F600001CE000037B58368D3F8582252060446D4
:102F70000D4608D5B3F85822C0686FF38612A3F83F
:102F8000582207F0C2F8E368DB6863B99DB3A06814
:102F9000383006F0C1FBA36878B303F1380103F5BC
:102FA0009C7007F023FCA268E0680DF1060338323C
:102FB000294607F0ADF858B9A06800F59C71383083
:102FC00007F014FCA068383006F0A6FBADF8060048
:102FD000204606F0D7FE0A4A0A49606906F0A2FBBD
:102FE000204600F07BFEA368BDF806209A865A862C
:102FF000204600F035FE03B030BD83F83801D2E73B
:1030000095CE00005DCD00002DE9F04F9DB0044647
:103010000023039306F0BCFE204606F040FE18B9DC
:103020008B49606906F07EFBA068142200210830FD
:1030300007F07FFC204606F0D9FDA168E0684A8EC3
:10304000383107F09CF8204607F043FAA2680C23B9
:1030500038320FA904A806F05BFC049A03462AB98B
:103060006FF0070528461DB0BDE8F08F28B1794AFA
:103070000221204606F025FFF2E7054680468246FB
:1030800081460646834615E0734957F8340C07F02D
:10309000E0FBE8B157F8342C5946204601F05EFABF
:1030A000022800F08280032827D0013647464FF0DF
:1030B000010AB846049BB34277D9F6B11CAB03EBC7
:1030C0008607664957F8340C07F0C3FB0028DBD1AC
:1030D0002DB9634A0221204606F0F3FEC0E7A3683B
:1030E0000B9503F108050AAE0FCE0FC533682B60B0
:1030F000204606F024FB0125B4E705AB019303ABA2
:1031000008F101070093324643465946204600F035
:1031100055FD0FB1039B83B9002E46D1A368DB692F
:1031200013B1DB68002B40D14E4B00934E4A0F9BEE
:103130000221204606F0C5FE92E719681CAB03EB9E
:10314000860353F8340C07F084FB0028B1D1039FA9
:10315000FB68BBB1BAF1000F07D0204606F018FE9D
:10316000204600F07DFD414AB4E7A368BE4603F166
:10317000080CBEE80F00ACE80F00DEF80030CCF819
:103180000030B146D7F804C0BCF1000F08D0BE46ED
:10319000BEE80F000AAD0FC5DEF800302B606546B3
:1031A000D7F808B00136002783E7BAF1000F09D03D
:1031B000204607F0B0F9A2680C2338320FA904A802
:1031C00006F0A6FBA06843694BB9002D3FF448AF59
:1031D000C3689D428CD00B9500F1080583E7049DE0
:1031E000037EA5EB09058BB19D42427E02D31344B9
:1031F0009D420BD983681E4A0221204606F061FEDB
:10320000204606F09CFA6FF015052BE700F53B70A1
:1032100004F02AFBA368B3F8582242F08002A3F816
:1032200058220FAA29465B6902EB8902204698477B
:103230000546A068B0F858326FF3C713A0F85832AB
:103240004FF0FF3100F53B7004F09CFA0AE700BF35
:103250007CCC0000A2CE0000B9CE0000B6CE0000AB
:10326000C0CE0000DECE0000F2CF0000F2CE0000A3
:1032700021CF00002DE9F04F8368BFF35B8FADB025
:10328000044603F5167353E8002F42F0080243E8A2
:1032900000210029F7D1BFF35B8FA3681B79022BB4
:1032A00040F0788300230B936068036801221D6956
:1032B0000DF12B010BABA8470B9B002B00F06A8391
:1032C0009DF82B301806EFD4A0684179012900F051
:1032D000188347D302294FF0000240F04B8342711C
:1032E000D0F858225207DFD5313B1B2BDCD801A286
:1032F00052F823F03B3900004739000065390000DF
:103300002F390000A9320000A9320000A9320000C4
:10331000A9320000A9320000A9320000A932000041
:10332000A9320000A9320000A9320000A932000031
:10333000A9320000C1380000B73800008B38000007
:103340005D380000A932000033390000A9320000C6
:103350003F390000A9320000A9320000A932000064
:103360004B3900000D2B1CD00A2B1AD0B0F8582274
:103370006FF30F22A0F85822092B57D03BD8002B0F
:1033800092D0082B00F02082A3F120025E2A00F2E6
:103390002A82B0F8582242F04002A0F8582219467A
:1033A00021E1D0F8582212F47F4F05D0D0F85822EE
:1033B000C2F307229342DFD1B0F8582263F30F2201
:1033C000438EA0F8582293B9C26982B9B0F8583236
:1033D00062F38613A0F85832E06806F096FE86493C
:1033E000606906F09FF9204606F0B2F95CE72046D6
:1033F000FFF70AFEF7E71B2B15D07F2BC4D1D0F8BF
:1034000058325F077FF550AFB0F8583243F04003B1
:10341000A0F85832D0F858329E0600F1E0812046DC
:1034200006F090FD40E7012343713DE7D0F85832A4
:1034300059077FF539AFB0F8583243F04003A0F890
:103440005832438EFF2B3FF42FAF828E00F13801AC
:1034500000F59C7007F040FAA268938E1344002197
:1034600083F8381102F59C720C231FA90DA806F0F1
:103470004FFAA3689A8E134493F83730202B55D017
:10348000093B042B8CBF002301230D9919B1002B9C
:103490004FD101294CD100250C950C9B2CAA02EB95
:1034A00083034FF0000B53F8348C404606F034F998
:1034B000CDE904BB82465E46D9461AAF002D45D001
:1034C000A96801972B1C18BF0123039315AB009328
:1034D000039A3346204600F071FB159B002B39D030
:1034E0001868002834D0DA68002A31D19B68B3FA12
:1034F00083F35B0952464146039307F0B7F9039BF8
:1035000093B988B9159B186807F09BF9059B83420E
:1035100038BF03469BB205930BF1010BB9F1000FC5
:1035200002D104964FF001090136C7E70123ACE749
:1035300001390023019310AB00931FAA0CAB204666
:1035400006F0D5FA05460028A7D1ADE62946B8E72A
:103550000023CFE7BBF1010F50D10C9B2CAA02EB4B
:10356000830353F8340C06F0D7F80646002D37D005
:10357000A968A3680833CDE900732046DDE9032379
:1035800000F01CFB1A9B186806F0C6F8864207D0AC
:103590001A9B1968821B92B23144204606F0D0FC77
:1035A000A3689A8E1A4492F83820202A1FD0093A2C
:1035B000042A1CD9D3F85822D20713D5B3F85822BD
:1035C0006FF30002A3F858222021204600F058FC97
:1035D000A268B2F8583243F00103A2F8583263E609
:1035E0002946C6E72021204600F04AFC5CE601217E
:1035F000204606F068FB57E67CCC000006937FF679
:1036000053AE0C9A2CAB03EB820252F8347C384652
:1036100006F082F8A268069BDDF8108008901386F9
:10362000CDF818B0002D00F08F80A968A368039A28
:10363000083301931AAB00932046434600F0BEFACC
:103640001A9B186808F10108002800F0B581DA68B3
:1036500012B99B68002BE5D02FB1089A394607F0C4
:1036600005F90028DED11A9BD3F80090B9F1000FBC
:103670006CD1A36800221A86069B013B0693D1D128
:10368000BD49606906F04EF8204600F02BFC0C9B0B
:103690002CAA02EB830353F8340C06F03DF8049B8C
:1036A000074603F10108002D00F08880A96815ABDA
:1036B00001930EAB00932046DDE9032300F07EFA70
:1036C0000E9BA0681968FF2200F59C7007F098F81F
:1036D0000E9BD3F800904FF6FF76002D72D0A968AC
:1036E000039A1AAB01930FAB00932046434600F0B8
:1036F00065FA0F9A08F1010ADAB1A368106803F5B8
:103700009C73002213F802C0815C614505D121B190
:1037100001324FF6FF718A42F4D10FB1BA424FDB4A
:1037200096420BF1FF3BA8BF1646BBF1010FB6B2A4
:1037300046D1002E3FF4B8ADF21B92B209EB07015F
:10374000204606F0FDFBAFE529466FE78B4805F004
:10375000E3FF059B1844A3681FFA80FA87485E8D33
:1037600005F0DAFF0990484605F0D6FFA268AAEBFB
:10377000000083B20793138E591C1186099AB61A5A
:1037800096FBFAFA1FFA8AFAB3FBFAF60AFB16332B
:103790009BB263B9CDF80090784B794A0721204657
:1037A00006F08FFB0799204600F04AFA64E74B4683
:1037B000744A0721204606F084FBF3E7294676E7A2
:1037C000D0468AE729468BE7D0F858325B077FF569
:1037D0006BADB0F8583243F04003A0F858322046A1
:1037E00006F0CBFB60E5D0F8582255077FF55CADBD
:1037F000013B162B3FF658AD01A252F823F000BF53
:103800003F3900005D380000653800001F340000BB
:10381000333900008B380000A9320000A9320000C3
:10382000A9320000A9320000933800009B38000044
:10383000A9320000B7380000A9320000C1380000EA
:10384000A9320000A9320000A9320000A93200000C
:10385000C5380000A9320000F1380000204606F00B
:103860009EFA21E5204606F093FA204606F017FA64
:1038700018B94149606905F055FFA268B2F858329D
:1038800043F04003A2F85832ADE5204606F08FFA27
:103890000AE5204606F094FA06E560693A4A394995
:1038A00005F040FF6069394A364905F03BFF204684
:1038B00000F018FBF8E400212046FFF753FBF3E487
:1038C0000121F9E7204606F05DFAA3682D490022A0
:1038D00083F838209A865A86A268B2F8583243F0A4
:1038E0004003A2F858326069294A05F01BFFDBE467
:1038F000204600F045FAA268B2F8583243F040037F
:103900006BE65B2B01D102238EE5D0F858225007DD
:1039100009D5622B05D14FF0FF31204606F0F7F9AB
:1039200001E0662BF9D0A36800225A71BCE403239E
:103930004371204606F02CFAB6E403234371204677
:1039400006F020FAB0E403234371D0F85832B0F8FF
:10395000582203F0010383F0010363F30002A0F88F
:103960005822A1E403234371D0F858325B077FF556
:103970009BAC54E5427197E47CCC00008DC70000FD
:103980003CCF00005DCD000099CE00009DCE000030
:1039900095CE0000A368BFF35B8F03F5167353E861
:1039A000002F22F0080243E800210029F7D1BFF3DD
:1039B0005B8F2DB0BDE8F08F002F3FF45AAE52E67A
:1039C0002DE9F041044686B00F464FF441720021C4
:1039D00080681E4606F0ADFFA3682268E0681A60A2
:1039E00006F039FCA06800F53B7007F07CFB4FF453
:1039F00027784FF41775A068284407F07AFEA0686E
:103A00000022431901214044103507F04DFEB5F561
:103A1000277F08F11408EED1A36900221A60A36879
:103A2000B3F85822186842F01002A3F85822B3F8ED
:103A3000582242F00402A3F85822B3F8582242F068
:103A40002002A3F8582201221A71184A9A6205F03E
:103A500063FEA36883F82C00A268B2F8583243F0E2
:103A60000203A2F858326068114A036839461D689B
:103A70002346A8470546A0B9D4E90A010E230393BB
:103A80000C9B0094CDE90163CDE90455094B4FF43B
:103A9000006204F093FBA368616AC3F8000304F0BA
:103AA00007FB284606B0BDE8F08100BF18005000B3
:103AB00065970000E93A000083681B79012B10B577
:103AC00004460BD1002100F011F90649606905F0A8
:103AD00029FE204605F03CFE002010BD6FF02200BC
:103AE000FBE700BF7BCC00002DE9F04104464068B5
:103AF00003680E469B6800211546984700283ED172
:103B000026B12A462146E06906F039FC2046FFF737
:103B1000D3FFA0BB1B4E1C4DA06800F527704FF0D3
:103B2000FF32032104F01AFD0746A06800F53B7040
:103B30004FF0FF3103F026FE3FB13B462046134ACB
:103B40000221BDE8F04106F0BCB9606803685B691A
:103B500003B1984732462046022105F0ADFD2A46C2
:103B60002046002105F0A8FD2046094A012105F064
:103B7000A3FDA06800F53B7003F076FECCE7BDE83E
:103B8000F08100BFE39600007532000042CF0000D4
:103B90007997000010B5044613460A4601460648C8
:103BA00001F026FD23691B7923B12046BDE81040B2
:103BB00005F046BE10BD00BF5998000070B5DDE9A4
:103BC00004460020206052B90F48104A121AB3EB85
:103BD000D20F03D200EBC3035B68236070BD0029E2
:103BE000FCD00A784D683AB118463146A847336888
:103BF000002BF3D02660F1E714225343EA18EB5868
:103C0000002BEBD02260E9E79CB9000004BA000069
:103C1000014A024906F022B859CF00005DCD0000EC
:103C200059B1002981EAE172A2EBE172CCBF4123D4
:103C300042230249406906F011B8704767CF00007F
:103C400059B1002981EAE172A2EBE172CCBF4323B2
:103C500044230249406906F001B8704767CF00006D
:103C600010B5044606F01BF828B160690549BDE8A7
:103C7000104005F0F3BF04F1080005F0FCFF002838
:103C8000F3D110BD7CCC00002DE9F041064605467D
:103C900056F8084F04F12000628EA18E05F022FE36
:103CA0003046B4F82480E78C05F0E5FF18B10A49E6
:103CB000686905F0D3FFB84507D1218C638C28468D
:103CC000C91ABDE8F041FFF7BBBFE18CA38C2846C1
:103CD000C91AFFF7A5FFF0E77CCC00008268024913
:103CE0004069383205F0BABF5DCD0000836807B582
:103CF00093F82E208A4212D083F82E10406989B1A1
:103D0000094B009333238DF804302F316D238DF848
:103D10000510ADF806306A46044905F09FFF03B070
:103D20005DF804FB024AF7E71B5B313B5DCD000009
:103D300063CF000037B50D4609780446FFF7D6FF7C
:103D40006B78CBB1A26892F82F10994214D045F647
:103D50001B31ADF8001034218DF8021003F12F0152
:103D60008DF803106D21ADF8041082F82F3003494F
:103D700060696A4605F072FF03B030BD5DCD00009A
:103D8000F8B583685A8E0546002A47D0988E0028D9
:103D900044D03730184403F138060346C41AB342FE
:103DA000A4B219460ED31978202903F1FF3733D076
:103DB0001946013B0878202804D001349E42A4B261
:103DC0001946F5D9631C4E1C121B1944304606F0E7
:103DD0006CFDA9684A8E121B92B24A860A440027DB
:103DE000614282F83870284609B205F06CFF6869B4
:103DF0000B4A0C4905F032FF39463346094A28463A
:103E000006F05FF86869FFF703FF6869064A05492D
:103E1000BDE8F84005F022BF3B46BFE7F8BD00BF54
:103E20005DCF00005DCD000060CF000070B504469E
:103E30000D46164612B14069FFF7EAFEA268938E5E
:103E40003833134420460C4A002106F03AF8204645
:103E500050F8083F5A8E9A8605F00DFF28B106B13A
:103E60001DB10649606905F0F9FE6942204609B2B4
:103E7000BDE8704005F027BF5DCD00007CCC0000A0
:103E800013B583688DF80710D3F85822D20704467B
:103E90001DD5998E5A8E8A4219D0481C98860B449B
:103EA0009DF8072083F83820A368D3F858325B07C1
:103EB0000BD56069094905F0D1FE204605F0EFFEFB
:103EC00018B10749606905F0C9FE02B010BD0122B2
:103ED0000DF10701204606F001F8F6E76BCF000070
:103EE0007CCC000083680A4A1B6810B50446032195
:103EF00005F0E7FFA368D3F858325B0707D52046E3
:103F0000FFF7ECFE2046BDE81040FFF7BDBE10BD38
:103F10005DCD000007B5074803F056F90423009370
:103F2000012301461A460448FFF74AFD002003B06A
:103F30005DF804FB6ECF0000C8BE0000406810B5FD
:103F40000C4601688B606368C1E900422BB19B6C31
:103F50001BB1024604492046984763689B6A0BB12F
:103F600020469847002010BD6D3F00002DE9F04F1E
:103F7000036885B004461D686B685B6C0BB128460E
:103F800098476B685B6B002B34D028469847002815
:103F900030D03E4E3E4BDFF8FCA0DFF8FCB0F61A06
:103FA000C6F3C9064FF00008E06803A9026904F0EF
:103FB000AEFF0746002842D023680399186843687B
:103FC0009B69002B39D03A4698470146019000285A
:103FD00018BF4FF00108E06804F0B5FF019B0BB17A
:103FE0009F42E1D0B8F1000F04D023680020D3E94C
:103FF000012190476B685B6AE3B128469847C8B1D6
:10400000A068236802691E6803A904F0CEFF054674
:10401000002834D0736803995B6973B30246304655
:1040200098470146A06804F0DFFF23680120D3E928
:104030000121904705B0BDE8F08F1846C5E7DAF8D2
:10404000003003F00703012B0AD9022363F30209AE
:1040500060F3C50966F38F194946584605F03CF8E8
:104060002368186843689B692BB101220DF10B018D
:1040700098470346B3E71846FBE71946D2E73046B0
:1040800005F08CFF2368DD60CFE700BF6CB900004E
:104090002CB90000F42C0020A2CF00002DE9F0473D
:1040A000054690460E4600296BD00A46971B12F82B
:1040B000013B202BFAD0093B042BF7D9DFF8C8903D
:1040C000304606F0BEFBAB68598D80B2C01BA1EB39
:1040D000080398424FF0000406EB070A11D91AF8BA
:1040E0000420202A05D0A2F10900042802D80A2AB7
:1040F0002CD0234608EB0402914226D90134EEE786
:104100000134A04217D01AF804300A2B07EB040937
:10411000F6D1686905F094FB22465146284605F021
:1041200073FE1949686905F089FF4146284609F17F
:104130000107FFF785FDF119686905F07FFF6869E0
:104140001149BDE8F04705F079BF1C46686905F0E4
:1041500077FB22465146284605F056FE3C4434443F
:10416000A71B14F8013B202BFAD0093B042BF7D9ED
:104170004946686905F062FF41462846FFF760FD41
:104180009EE7BDE8F08700BF7CCC00002DE9F04F32
:1041900082688DB01269002304460693002A51D02C
:1041A00098461D4607AE06AFCDE90076A1684346A6
:1041B000012209692046FFF701FD069B08F101096C
:1041C000002B3CD0186810B106F03BFB80B2854252
:1041D00038BF0546B8F1FF3F2FD1204ADFF8809065
:1041E0000021204605F06DFE0023CDE90076A16890
:1041F00001220969204603F1010BFFF7DFFC069B52
:1042000003B31A6816480592D3F8048006F019FB28
:10421000059A82467AB1CDE9012900954B46114AAB
:104220000021204605F04DFEB8F1000F0DD10E49DA
:10423000606905F003FF5B46D7E7C846B4E7B9F10C
:10424000010FCAD10DB0BDE8F08F6A1C02EB4A0223
:1042500092B241462046FFF721FFECE7BBCF0000BA
:10426000D3CF0000C9CF00007CCC0000836873B5B9
:1042700005469868C8B106F0E4FA84B20C4E3046A0
:1042800006F0DFFAAB68009604449B68094A2846AA
:10429000002105F016FEAB68A4B2D9682246284674
:1042A00002B0BDE87040FFF7F9BE0446E6E700BF84
:1042B000B7CF00003DCF000038B5074D074A044690
:1042C0002946406905F001FF6069054A294605F065
:1042D000FCFE002038BD00BF5DCD0000DCCF00003B
:1042E000E0CF000010B50446044A0549406905F0D6
:1042F000ECFEA368034A9A62002010BDE5CF0000DF
:104300005DCD00001800500008B58369034A1B68A2
:10431000002105F053FA002008BD00BF14D20000B0
:1043200010B5064A0446002105F048FA2046044A22
:10433000002105F043FA002010BD00BF23D000008B
:1043400012D10000F0B5104F85B004460025A268D8
:10435000E0680DF10E0302F59C72012105F0D8FE14
:10436000BDF80E00A36858B103F59C7300936E1C52
:104370002B463A460021204605F020FA3546E6E76E
:1043800083F8380105B0F0BD77C50000022907B5F4
:104390000CD1536801930D4B009313680C4A05F040
:1043A0000DFA6FF0150003B05DF804FB8368094A4D
:1043B000D3F8583213F0040F4FF00001064B18BF2A
:1043C0001346064A05F0FAF90020ECE7F8CF0000A2
:1043D000EFCF00000AC30000EBCF00000DD00000BB
:1043E000F0B5012985B005460DD053680193534BB4
:1043F00000931368524A022105F0E0F96FF01504AA
:10440000204605B0F0BD4F4A4F49406905F05DFEBA
:104410006FF0F9012846FFF703FCFA212846FFF761
:104420000FFCA86800244FF48072214600F59C70B0
:104430008DF80B4006F07DFA4449686905F045FEA9
:10444000686905F0FDF94FF47A766868036801221F
:104450001F690DF10B0103ABB847039B53B9013E34
:104460004FF47A70B6B206F07EFF002EEDD16FF0F9
:10447000220431E09DF80B30AA681B2B53D092F830
:1044800038111B29E1D1522B4DD11444002384F85B
:10449000383192F839115B294DD102F59D701F46D4
:1044A000022610F8011B01363B29B6B226D1B6F51B
:1044B000807FDCD006F237101044002310F8014F43
:1044C00034BBFA2B28BFFA23FA2F53853B4628BF6B
:1044D000FA2382F8384113851D4A1B49686905F0A3
:1044E000F4FD002C8CD0AB681A4A9A6204211A4A57
:1044F000284605F063F96FF0070481E707EB8703AF
:1045000001EB4303303BB6F5807F9FB2C9D1AEE7E4
:10451000013603EB8303B6B2303C04EB4304FF2EB9
:10452000A3B2CBD9A3E711190134A4B2092C81F8A5
:1045300038318AD9002382F8383198E7F8CF000063
:10454000EFCF0000D6CF00005DCD00001ED00000F0
:10455000D9CF000018005000DAD100002DE9F04F4B
:1045600089B083461546009129B94FF003084046AB
:1045700009B0BDE8F08F104605F097FF0028F4D091
:1045800000273E464FF00208009A731C01931278F0
:10459000009B5B688AB103A930469847039B002BB8
:1045A0005ED1002FE3D0DBF808002A4600F1360187
:1045B00000F59C7005F074FAD9E71421721C4A4387
:1045C000143A9C189B58002BEBD0002221682846F7
:1045D00004F0A5FA90BBD4F800A0DBF80880BAF18B
:1045E000000F2FD0504606F02CF984B2B8F83630C0
:1045F00023440133B3F5807F26DC294608F59C70FF
:1046000006F0D7F8814640B306F01BF982B2601C71
:1046100001324946484406F048F922465146484688
:1046200006F05AF9202309F80430B8F8363001337F
:104630001C44A8F8364001374FF000080136B0D0CE
:10464000019EA1E75446D1E72B46064A042158466D
:1046500005F037FC4FF00108A3E74FF00208A0E790
:1046600003ACB2E7F2D5000010B50748074C02F0E2
:10467000ABFD074B1860204601F092FC2046FDF789
:10468000AFF9002010BD00BF6ECF000095460000BE
:10469000240500200A2838B50446074D04D12868AF
:1046A00043680D215B68984728684368E1B25B68FE
:1046B0009847204638BD00BF24050020F8B5124DAC
:1046C000AB680C2404FB00340123064663724FF0F0
:1046D0002003EFF3118183F31188BFF36F8F2368F9
:1046E0002BB160681A682260834208BF626081F360
:1046F0001188BFF36F8F03B9F8BDD3E9017231465A
:104700002846B847E3E700BF682C0020154B07B5E3
:104710001A6882B14FF08042D2F80423D1070AD53B
:1047200000221A601B680093009B0F4B9B68587A0D
:1047300008B9FFF7C3FF0D4B1A6882B14FF08042F2
:10474000D2F8042392070AD500221A601B6801934D
:10475000019B012003B05DF804EBFFF7AFBF03B08E
:104760005DF804FB00010040682C002004010040BB
:104770000D4B0022C3F840214FF02002EFF31181CE
:1047800082F31188BFF36F8F084AD3F804051368CA
:10479000C01A20F07F400344136081F31188BFF3F7
:1047A0006F8F03F019BE00BF0010014040050020CC
:1047B00073B5184802F008FD48B34368164D1B68EE
:1047C00001219847002401264FF48033C5F808459D
:1047D000C5F84065C5F8043303F1804303F58A53F7
:1047E0004FF400321C601B680193019B0B4B314658
:1047F000C3F880211120224600F00EF9112000F0AC
:10480000FBF8074B20461E602E6002B070BD4FF0D3
:10481000FF30FAE74AD600000010014000E100E056
:1048200008100140F0B5254FB0F1FF3F08BF3846F2
:104830004FF02003EFF3118583F31188BFF36F8FDF
:104840001F4C204BD4F804651B68F21A22F07F42FB
:10485000B2F5000F19D2411E21EAE171B942A8BF99
:104860003946501C0844B84294BF1818D819861B02
:1048700026F07F4620F07F43022EC4F8403506D94B
:1048800085F31188BFF36F8FF0BD0021E9E7D4F8FD
:1048900004350D4AC31A23F07F43591E914205D9AE
:1048A0000A4B4FF40032C3F80021E9E7012B02BFA5
:1048B000023020F07F40C4F84005E1E7FEFFFF0032
:1048C0000010014040050020FEFF7F0000E100E0F5
:1048D0004FF02002EFF3118382F31188BFF36F8F43
:1048E000064AD2F80405064A1268801A20F07F4072
:1048F00083F31188BFF36F8F704700BF0010014032
:10490000400500204FF02003EFF3118283F311885C
:10491000BFF36F8F0649074B0868D3F8043582F35D
:104920001188BFF36F8F1B1A23F07F431844704721
:10493000400500200010014004488168406A884218
:1049400003D003494FF080520A60704700070020EF
:1049500004ED00E00A4A0B4993680968C3F8A41003
:104960000949C3F8A0004B6843F080534B60002313
:1049700083F31188BFF36F8F9368D3F8A400704757
:104980000007002080C2000000ED00E010498A68A6
:104990004FF030001044EFF3098C80E8F01F202026
:1049A00080F31188BFF36F8F0A4F4FF000664A6A99
:1049B0008A603E60D2F8A0000023C2F8A03080F3E5
:1049C000118802F1300090E8F01F8CF309887047DD
:1049D0000007002004ED00E01EF0040F0CBFEFF311
:1049E0000880EFF30980816911F8021C0229FFD0C9
:1049F00001B505F05DFE01BD43B2002B08DB0122CD
:104A000000F01F0002FA00F05B09024A42F823009E
:104A1000704700BF00E100E043B2002BA8BF03F1E4
:104A2000604301F101014FEA4111AEBF03F561435B
:104A300000F00F00034BC9B2ACBF83F80013195448
:104A4000704700BF14ED00E073B51E460A9B00934B
:104A50008C18099B054606F08AFCA4F120030B4A3A
:104A600023F0070322F001029A61069A5A60079A1E
:104A70009A60089ADA604FF080721E60DA612B65E6
:104A80000023C5F8A03002B070BD00BFCB8E00007F
:104A9000F8B506460C4617461D4600F0C5FC094B06
:104AA0003C4424F007049E60284684F309880021D2
:104AB00063B681F31188BFF36F8F0022002304F0E7
:104AC00004FA00BF00070020014910220A60704765
:104AD00010ED00E072B6404080F31188BFF36F8F95
:104AE000BFF34F8F30BF62B6BFF36F8F704700BF09
:104AF000EFF30880EFF30981724601B500F03EFB49
:104B000001BD00BF73B506460C46002958D0304D94
:104B10002B68580714D001234FF0000263F3020200
:104B20002C492D4B2D485B1ADB086FF3C50263F34C
:104B30008F12ADF80020D4E90123216804F005FBB1
:104B40002B68590714D001234FF0000263F30202CF
:104B50002049214B22485B1ADB086FF3C50263F33F
:104B60008F12ADF80020D4E90423E16804F0EDFAD7
:104B70002B685A0710D001234FF0000263F30202A2
:104B80001449154B17485B1A6FF3C502DB0863F332
:104B90008F12E16904F0ADFA2B685B0710D0012396
:104BA0004FF0000263F302020A490B4B0E485B1AF6
:104BB0006FF3C502DB0863F38F12A16904F099FA61
:104BC0002146304602B0BDE8704002F04DBB00BF48
:104BD000E82C00202CB9000054B9000074D6000065
:104BE000A3D60000D2D60000E1D6000030BFFFF708
:104BF000FDBF00BF0E4A08B50E4B22F07F029A603F
:104C0000BFF34F8FBFF36F8FD3F8882022F4700269
:104C1000C3F88820EFF3148323F0040383F314888C
:104C200002F0C8FB02F0D0FB00F0CAFB02F0FEFB72
:104C30000010000000ED00E001B572B60B4A106AEA
:104C400000281EBF0021116206F016FA62B6EFF3CB
:104C50000580A0F110004FEAC0000549014409C9D0
:104C60009847BDE8014003490847000000070020BD
:104C700010B700003949000005F00CFF202080F338
:104C800011880B484FF0AA014FF4006205F051FE65
:104C900007484FF40061401880F30988EFF314804F
:104CA0000221084380F31488BFF36F8FFFF7A2FF40
:104CB000A81A002010B5534C23685B070FD00123BE
:104CC0004FF0000163F302014F4A504B50489B1ACA
:104CD0006FF3C501DB0863F38F1104F0FDF94D4B51
:104CE0009B6A980112D5236859070FD001234FF012
:104CF000000163F30201444A444B47489B1A6FF397
:104D0000C501DB0863F38F1104F0E6F9414B9B6AA0
:104D1000DA0112D523685B070FD001234FF00001A1
:104D200063F30201384A394B3C489B1A6FF3C501C3
:104D3000DB0863F38F1104F0CFF9364B9B6A18033D
:104D400012D5236859070FD001234FF0000163F3F8
:104D500002012D4A2D4B32489B1A6FF3C501DB0827
:104D600063F38F1104F0B8F92A4B9B6A5A0312D5EA
:104D700023685B070FD001234FF0000163F30201AA
:104D8000214A224B27489B1A6FF3C501DB0863F3C6
:104D90008F1104F0A1F91F4B9B6A980312D5236869
:104DA00059070FD001234FF0000163F30201164AA7
:104DB000164B1D489B1A6FF3C501DB0863F38F1177
:104DC00004F08AF9134B9B6ADA0312D523685B0758
:104DD0000FD001234FF0000163F302010A4A0B4B8D
:104DE00012489B1A6FF3C501DB0863F38F1104F0BF
:104DF00073F9084A936A6FEA03436FEA13439362B5
:104E0000002010BDE82C00202CB9000054B900008F
:104E10006FD8000000ED00E087D800009AD80000AD
:104E2000B4D80000D2D80000F7D8000011D9000093
:104E300070B5584C23685B0706460D460FD001231A
:104E40004FF0000163F30201534A544B54489B1A3C
:104E50006FF3C501DB0863F38F1104F03DF9514B8B
:104E60009B6AD80612D5236859070FD001234FF04B
:104E7000000163F30201484A484B4B489B1A6FF309
:104E8000C501DB0863F38F1104F026F9454B9B6ADB
:104E90001A0712D523685B070FD001234FF00001DA
:104EA00063F302013C4A3D4B40489B1A6FF3C50136
:104EB000DB0863F38F1104F00FF93A4B9B6A9807F4
:104EC00030D5236859070FD001234FF0000163F359
:104ED0000201314A314B36489B1A6FF3C501DB089A
:104EE00063F38F1104F0F8F82E4B596B9B6A1A0686
:104EF00018D523685B070FD001234FF0000263F33E
:104F000002022548254B1B1A6FF3C502DB0863F329
:104F10008F12284804F0EDF826B1224A936A23F054
:104F2000800393621F4B9B6AD80712D523685907E9
:104F30000FD001234FF0000163F30201164A174B13
:104F40001D489B1A6FF3C501DB0863F38F1104F052
:104F5000C3F8144B9B6A9A0612D523685B070FD0DF
:104F600001234FF0000163F302010B4A0B4B13487E
:104F70009B1A6FF3C501DB0863F38F1104F0ACF8E3
:104F8000084B9A6A9A6A002042F0FF029A622870DF
:104F900070BD00BFE82C00202CB9000054B90000FF
:104FA00097D7000000ED00E0ADD70000E0D700008B
:104FB000F3D700000BD8000021D8000040D8000033
:104FC00070B5624C23680D46590706460FD0012381
:104FD0004FF0000163F302015D4A5E4B5E489B1A8D
:104FE0006FF3C501DB0863F38F1104F075F85B4BB9
:104FF0009B6ADA0412D523685B070FD001234FF0B8
:10500000000163F30201524A524B55489B1A6FF359
:10501000C501DB0863F38F1104F05EF84F4B9B6A08
:10502000180512D5236859070FD001234FF000014E
:1050300063F30201464A474B4A489B1A6FF3C50186
:10504000DB0863F38F1104F047F8444B9B6A9A0521
:1050500030D523685B070FD001234FF0000163F3C5
:1050600002013B4A3B4B40489B1A6FF3C501DB08EA
:1050700063F38F1104F030F8384B996B9B6A180476
:1050800018D523685A070FD001234FF0000263F3AD
:1050900002022F482F4B1B1A6FF3C502DB0863F384
:1050A0008F12324804F025F826B12C4A936A23F473
:1050B00000439362294B9B6A5B0512D523685E0708
:1050C0000FD001234FF0000163F30201204A214B6E
:1050D00027489B1A6FF3C501DB0863F38F1103F0B8
:1050E000FBFF1E4A936A13F480731AD02368580793
:1050F0000FD001234FF0000163F30201144A154B56
:105100001C489B1A6FF3C501DB0863F38F1103F092
:10511000E3FF124A936A002043F47F4393622870AE
:1051200070BD926A9104F4D522685207F1D0012231
:105130004FF0000162F3020163F3C501044A054B1D
:105140000D489B1ADB0863F38F11E0E7E82C002081
:105150002CB9000054B900000FD7000000ED00E0AA
:1051600025D70000E0D7000036D700004FD7000059
:1051700064D700007FD7000040D80000F0B57D4B19
:105180005C688BB0C4F30804002585F31188BFF375
:105190006F8F02F07F43B3F17F4F18D102F00C0301
:1051A000082B16D1744B1B6813F0070324D001237E
:1051B0004FF0000163F30201704A714B71489B1A72
:1051C00065F3C501DB0863F38F1103F085FF2E46FD
:1051D00004E012074EBF0E460646012500238DF857
:1051E0000730E31E092B00F2A180DFE803F00781FE
:1051F000857E9F9F9F9F9F891D46E8E75E4F3B6886
:105200005B070FD001234FF0000163F302015B4AFB
:105210005B4B5D489B1A6FF3C501DB0863F38F118D
:1052200003F05AFF534AD36A002413F002038DF8A7
:1052300007402CD03B685F0700F0998001234FF0B6
:10524000000163F302014D4A4D4B50489B1A64F331
:10525000C501DB0863F38F1103F03EFF9DF80730B3
:105260009BB92022314602A805F036FB099B002D90
:1052700078D0C3F3080222B96FEA53236FEA4323BD
:10528000099302A92046FFF73DFC0BB0F0BDD26A9E
:1052900050006CD53A6851070FD001224FF0000141
:1052A00062F3020163F3C501344A354B38489B1A57
:1052B000DB0863F38F1103F00FFF364B1B7833B11C
:1052C0000DF107010120FFF7B3FD0446C6E7324B9D
:1052D0001B782BB10DF107010120FFF771FEF4E7F8
:1052E0002E4B1C88A4B2002CB8D0FFF7E3FCECE7EF
:1052F0000DF107010020E6E70DF107010020ECE7C2
:105300001D4B1B685A0732D001234FF0000163F395
:1053100002011A4A1A4B22489B1A6FF3C501DB0897
:1053200063F38F1103F0D8FE002497E7124B1B683C
:105330005B071CD001224FF0000362F302030F4908
:105340000F4A1848521A1849D2086FF3C50362F37E
:105350008F130F2CC8BF0146A4F11002134803F0AD
:10536000DCFEE1E723F4FF7323F0010388E7002468
:1053700077E700BF00ED00E0E82C00202CB900002A
:1053800054B900003CD9000067D900007ED9000064
:105390009FD9000028ED00E029ED00E02AED00E0B3
:1053A000BED9000009DA0000F4D9000022DA0000BA
:1053B000024A536943F010035361704700ED00E067
:1053C000044800232021C2180133302B82F8001337
:1053D000F9D1704700E100E038B505464FF02003F1
:1053E000EFF3118483F31188BFF36F8F02F048FC51
:1053F000284602F03FFE0A4B9B68AB420BD1094B9B
:105400005A68C2F3080212B92046FFF7A3FA5A6895
:1054100042F080525A602046BDE8384005F0A7BEF1
:105420000007002000ED00E01FB5094B0193094B78
:10543000029304A8084B039301AB40F8103D074AC0
:10544000074B012100F092F805B05DF804FB00BFA6
:10545000000000200000000000000B0600000020FB
:105460000000042038B54B68202B22D9B3F1004F3F
:1054700021D8013BB3FA83F3C3F11F035B00072874
:105480001BD9154B1B685B0710D001234FF000029E
:1054900063F302021149124B5B1A6FF3C502DB087A
:1054A000014663F38F120F4803F023FE6FF01500DF
:1054B00011E00823E3E73E23E1E70C688A680A4D20
:1054C00024F01F0142F0010240F010042143134375
:1054D000A860E9602B6138BDE42C00202CB90000E5
:1054E0004CB900005CDA000090ED00E0034B0522AF
:1054F0005A60BFF34F8FBFF36F8F704790ED00E09E
:10550000BFF35F8F014B00225A60704790ED00E0BF
:1055100013490868082810B51ED8FFF7F1FF114C91
:1055200049680022904201F10C0105D10E4B187020
:10553000FFF7DCFF002010BDA26051F80C3C23F007
:105540001F0343F010031343E36051F8043C43F09E
:10555000010323610132E5E74FF0FF30EBE700BFC5
:1055600094C1000090ED00E0410A0020F8B51B4D09
:10557000074628780E460024B44213DA57F8241060
:105580004B6843B35A1E13420ED11F2B0CD90B6824
:105590001A4209D1C0B2FFF765FF10F1160F19D1F9
:1055A0006FF015002870F8BD0D4B1B685B07F7D036
:1055B00001234FF0000263F302020A490A4B0B4831
:1055C0005B1ADB086FF3C50263F38F12214603F009
:1055D00090FDE5E701300134CEE700BF410A00202D
:1055E000E42C00202CB900004CB9000039DA00008E
:1055F0002DE9F04F9DB0CDE902011E460023019335
:105600001078531C069358B1252800F08880039920
:10561000029B9847013040F00C844FF0FF33019318
:1056200001981DB0BDE8F08F232C6FD064D8002CFA
:10563000F6D0202C0C9B08BF01230C93CDF81880CA
:10564000DDF81880BB4818F8014B214605F0EBF84F
:105650000028E9D12A2C69D132680792002ABFBFFD
:105660005242079201220D92069A331D547802F19C
:1056700002081E462E2C7ED198F800302A2B77D1B6
:10568000356808F10108043698F8004008F101086F
:105690002146A948274605F0C6F800286ED008F133
:1056A0000103682F069398F8004007D1682C05D1B4
:1056B00008F1020398F8014006934827672C7CD82C
:1056C000652C80F03B81472C5CD8452C80F03681DE
:1056D000002CA5D0252C00F0A8830399029B25203F
:1056E0009847013099D00399029B20469847013092
:1056F00093D0019B02339EE32D2C0DD0302C08D08B
:105700002B2C099B08BF0123099397E701230593DD
:1057100094E70123089391E701230D938EE700237B
:1057200008930C9309930D93059389E7A4F1300333
:10573000092B07909ED80A22DDF8188018F8014B33
:10574000A4F13003092B95D8079B02FB0344A4F175
:105750003003CDE90683EFE701FB0535303D904688
:10576000424612F8013BA3F130000928F4D98BE737
:1057700000250A21F4E74FF0FF3589E7CDF81880BE
:1057800007469BE7632C59D021D8582CA5D1331D4F
:105790006F2C0493316840F01C83059B15AF002BE0
:1057A00000F00B8330238DF85430002940F00E8335
:1057B0008DF855108B46012726E0702C00F0E8820A
:1057C00027D86E2C00F0CF82E1D8692C85D13468BF
:1057D000331D002C049380F29E802D238DF85430CD
:1057E00061420DF1550738460A2205F0C3F8099BBE
:1057F000074415A83F1A002B40F020830C9B002B78
:1058000040F01C834FEAD47B002DC0F21C8315AE00
:105810001EE0752CBBD0782CB9D0732C7FF45DAF13
:10582000331D002D36680493B8BF6FF00045002784
:10583000BD4240F0BD820025AB4609E0331D049314
:1058400033681CAE4FF0000B06F81C3D01275D4687
:10585000A5EB070A0025DA44A846A9462AEAEA7A0F
:10586000079B0AEB07041C1B0D9B13B9002C00F3CC
:105870000A8306EB0B039E4240F00783534613F165
:10588000FF3380F00E83A7EB0B07B9F1000F00F098
:105890002D833078F219A0F130010929A2EB06031B
:1058A00040F20A834A46002A40F01183A3EB09091B
:1058B000B8F1000F18D006EB090316F8012B079377
:1058C0000399029B05921046984701303FF4A5AE1C
:1058D000059A079B2E2AA3EB0609EED14346002B1F
:1058E00000F30683A9EB08099DB1307806EB09089F
:1058F000A0F13003092BA8EB060940F206832E28FD
:1059000000F00383A846B8F1000F00F30783A9EB6A
:105910000509B14415E3099B23B12B238DF85430BD
:1059200021465EE70C9B0BB12023F7E7214615AF1C
:1059300059E700BF82DA000088DA0000073626F057
:105940000706D6E9000106F108030493CB0243EAF7
:105950005053C202002823F00049904671F1000321
:10596000C1F30A56CDE9108942DA2D218DF8541081
:105970000DF1550740F2FF718E4254D158EA0903E8
:10598000A4F1410407F1030042D1192C3AD849236C
:105990003B704E237B7046230025BB70FD7015AF16
:1059A000C01BA846A946099B002B40F0D9810C9B3F
:1059B000002B40F0D5819DF854B0ABF12D03D3F10D
:1059C000000B4BEB030B1CAB5B4408EB090713F814
:1059D0001C3C303B2F44092B074400F23882089BC3
:1059E000002B00F03B82079B15AEA3EB070A35E7BF
:1059F000099B0BB12B21B9E70C9B0BB12021B5E71B
:105A000015AFB7E769233B706E237B706623C3E74E
:105A1000192C99BF4E2341226E23612294BF3B7003
:105A20003B707A70B8E7462C48EA060049EAE6710E
:105A300008BF662450EA010300F0DA80002E7AD015
:105A4000DDE910230DF17009104643F0004169E9CA
:105A50000C01A6F2FE38002618F1020F7ADB6FF077
:105A6000004A4FF0000BB8F1000F00F3A48010A81B
:105A700008F1010804F09EFFB8F1040FF7D1002DE2
:105A800004F0DF03B8BF0625472B40F0B980F21CB5
:105A900002DBB54280F2AF80023CE4B2002D00F0A0
:105AA0007582059B013D002B40F07082002DD4BF14
:105AB0004FF0000A4FF0010A662C40F0698215EBA6
:105AC000060840F1A38010230F9366244FF00008CE
:105AD0000DF1700900224FF0006369E90A2318F103
:105AE000FF3880F09580DDE91023DDE9120112EB2B
:105AF000000843EB0109CDE9108909F070484FF027
:105B0000000958EA090306D010A804F067FF10A89E
:105B100004F050FF0136662C40F0C480002E7DDC7E
:105B200030233B70059B07F1010B002B40F08D806B
:105B3000994685E0013E18EB080849EB0909B8F1E0
:105B4000000F79F10003F5DACDE9108978E74846CE
:105B500004F030FFDDE910A000230B930A90DDE98B
:105B60000ABCBD4A0023634508BF5A4508F1010835
:105B7000EDD30522AAFB02AB02FB00BBCDE910ABC3
:105B8000013E4FF0000C002300216FF000409942CD
:105B900008BF584506D2BCF1000F3FF45DAFCDE918
:105BA00010AB59E71AEB0A0A4BEB0B0B08F1FF3865
:105BB0004FF0010CE7E710A804F010FFDDE9100139
:105BC00008F1FF3801364FF0000C00239B4508BF59
:105BD0008A4506D2BCF1000F3FF445AFCDE9100174
:105BE00041E70018494108F1FF384FF0010CECE79C
:105BF0000026B0463BE7059BAD1B23B9662455E75D
:105C00004FF0000A58E74FF0000A58E76624C1E158
:105C1000484604F0E3FE04F0CDFE60E7BB460F9B70
:105C2000002B07DD0FA910A804F009FF013E0BF8B7
:105C3000010BF4D1059B002B40F09F81B1461E461D
:105C4000002D04DC4FF0000820E04FF000092E2268
:105C50000BF101038BF80020002E00F09581002D40
:105C60001EDDC6F10008A845A8BFA846A5EB08059B
:105C70009B4606E00FA910A804F0E1FE0BF8010B0B
:105C8000013D002D02DD0F9B002BF3DCBAF1000F6C
:105C90001ED1002315AF8BF80030ABEB070082E676
:105CA0009B46CFE70FA910A804F0C9FE059B3870EA
:105CB000302818BF06F1FF36002B3BD1002D39DC10
:105CC00007F1010BBAF1000F47D04FF00009C846A9
:105CD0001BF8012C302A0BF1FF333CD02E2A08BFD1
:105CE0009B46002504F0DF03452BD2D1002E5A46F7
:105CF000BABF76422D232B23632E02F8024B8BF87A
:105D000001300ADD642196FBF1F303F130000BF161
:105D100003028BF8020001FB13660A21934696FBEF
:105D2000F1F301FB136603F1300030360BF8020B80
:105D30005670AEE72E2307F1020B7B70002DC1DDFC
:105D40000F9B002BBEDD0FA910A804F078FE013DCB
:105D50000BF8010BF2E79B46BAE7D146D046C1E704
:105D60004FF0010B2FE63246682F52F8043B0492A5
:105D700006D06C2F09D0482F07D1019A1A7001E084
:105D8000019A1A80049E069A3AE4019A1A60F9E789
:105D9000331D0493316847F6300310220DF156008D
:105DA000ADF8543004F0E6FD4FF0020B871C2BE5F4
:105DB000F35D002B45D001373AE538460822C71B72
:105DC00004F0D8FD07444FF0000B1DE50DF1550020
:105DD000F4E7752C05D10A2215A804F0CBFD07467F
:105DE000F1E7059BFBB147F63003ADF854300DF1F8
:105DF00056061022304604F0BDFD582C0CD10DF192
:105E0000530313F8012FA2F1610119299CBF203A15
:105E10001A701A78002AF4D115AF059BF71B0744B6
:105E20004FEA430BF0E415AEE3E703992046FFF792
:105E3000EFBB019B013301930496A3E74FF0010BE5
:105E4000E2E41D46F8E40025A846A946C7E515AEDC
:105E50004FF0000A04E500BF3233333315AEDDF8EE
:105E600020A0FDE405930399029B20209847013070
:105E7000059B3FF4D2AB13F1FF33F3D2019A2244D6
:105E800001921C46F5E42346F5E705930399029B2E
:105E900016F8010B98470130059B7FF4ECACFFF737
:105EA000BCBB05930399029B302098470130059BAA
:105EB0007FF4E5ACFFF7B1BBDDE90231059298470D
:105EC00001303FF4AAAB16F8010F059AE3E40593FD
:105ED0000399029B079230209847079A059B01304F
:105EE00002F1FF327FF4DFACFFF797BBB946DFE486
:105EF00005930399029B30209847059B013003F1DD
:105F0000FF337FF4ECACFFF788BBDDE90231984743
:105F100001303FF482AB16F8010FE9E40399029BCC
:105F200030209847013008F1FF387FF4ECACFFF7E0
:105F300074BB039916F8010B029B984701303FF49C
:105F40006CABA9EB0603002BF3DC019B5B449B4687
:105F5000D34407EB0B03002C01937FF713AF2344CB
:105F6000019314F1FF34FFF40DAF0399029B20203D
:105F700098470130F5D1FFF750BB2E22B1460BF107
:105F800001038BF800200026B04671E64FF0000AAE
:105F900005F10108102398450F93A8BF984697E58F
:105FA000014B1860704700BFA42B00200CB41FB534
:105FB00009B90DF10300CDE9020107AB069A0648C5
:105FC000019302A9FFF714FB029B00221A7005B08F
:105FD0005DF804EB02B070477BAA00000EB40FB569
:105FE00005AB6FF0004153F8042B02900391064873
:105FF000019302A9FFF7FCFA029B00221A7004B079
:106000005DF804EB03B070477BAA00002DE9F84F60
:10601000D0E90089B8F1000F79F100030C46614A1C
:106020004FF0000380F29E805F4D4FF0FF3615EB7E
:10603000080046EB0901FBF763F85C4D06460F4686
:10604000242205FB00850021204604F072FC6FF03D
:10605000030296424FF0FF3377EB03034FF0070242
:106060004FF00003C0F28180301D47F10001FBF7C3
:1060700047F8DFF84881A26118EB060A4FF00009E3
:1060800049EB070BBAF1000F7BF10003484A4FF0D0
:10609000000371DADFF828814FF0000918EB0600E1
:1060A00049EB0701FBF72CF8424F07FB00A748F626
:1060B000AC62B7FBF2F23A4440F2B45C4FF4C878F9
:1060C000B7FBFCF3D21A8E463B4BB7FBF3F3A0FBB6
:1060D0000801D21A48F69468B2FBF8F8B84440F2C6
:1060E0006D13B2FBF3F6B2FBFCF2A8EB020203FB6A
:1060F000162303EB830199225F1C10EB0609023182
:10610000B1FBF2F10A2902FB01F202F102024FF0A7
:10611000050CB2FBFCF2A7EB020234BF03276FF0C1
:1061200008073944A9F26C70022998BF013001397F
:10613000B3F5997F6061C4E9032120D3A3F5997376
:10614000E3614FF46162B5FBF2F302FB13553C22AD
:10615000A360B5FBF2F302FB135563602560204694
:10616000BDE8F88F4046494665E7701D47F10001DC
:10617000FAF7C6FF06327CE75046594692E7B20767
:106180000CD16421B6FBF1F201FB126242B9B6FAFE
:1061900086F252093B331A44E261D2E70022F9E762
:1061A0000122F7E78051010081AEFEFF80AEFEFFC5
:1061B000B13A02004FC5FDFFB03A02006CFA0A0086
:1061C000BCBF080001282DE9F84F0E4609D004286D
:1061D00033D001F01FF8162303604FF0FF30BDE805
:1061E000F88F184BD3E900459F6805F02BF94FF461
:1061F0007A72002380468946FAF7D2FF14EB000A30
:1062000045EBE07BC6E900AB4FF47A7200234046D1
:106210004946FAF7C5FF0C4B03FB02720B4BB26009
:106220009A4208D91AF101044BF10005084BC6E95E
:1062300000451344B3600020D1E700270024002567
:10624000D3E700BF0000002040420F00FFC99A3B87
:10625000003665C44FF02003EFF3118283F31188F9
:10626000BFF36F8F06490123C1F840354FF08041DD
:10627000C1F8783582F31188BFF36F8F0020704723
:1062800000E0014020B1034B800143F001031847B7
:10629000704700BF10BA000008B5094B1A786AB9F8
:1062A0000121197006200521FEF7B6FB0620FEF736
:1062B000A3FB044B4FF00042C3F80423002008BDA9
:1062C000420A0020006000400368F0B59E682D4B34
:1062D0001340B3F5801F46D031D8022B47D0062B90
:1062E00000D09BBBD00654BFC2F34015032582F4F7
:1062F00080749705C2F34020C4F3002407D512F43C
:10630000006F776837D001228A40C7F80825327AB3
:1063100001F01F0141EA42111F2940EA4402C6BFB1
:1063200001F01F01184E4FF0A04642EA032301F589
:10633000E07143EA850346F821300020F0BDB3F553
:10634000800F0ED005D8114883420ED06FF0150093
:10635000F4E70F4883420CD0B3F5A00FF6D1032326
:10636000C0E70223BEE70123BCE70723BAE7042303
:10637000B8E70523B6E7520542BF01228A40C7F8B5
:106380000C25C4E70600F0000003005006001000D2
:10639000020040001F288ABF074B4FF0A04300F0C7
:1063A0001F0003EB8000D0F8003723F4403343EAAA
:1063B0000141C0F80017704700030050F7B50368AB
:1063C00086689B6801F01F040D4648491B7AD1F886
:1063D000042344EA4314D2B2002303F5A27051F817
:1063E0002000C0F30520844267D122FA03F0C007E1
:1063F00063D59A0002F1804202F5C042D2F810053E
:1064000020F00100C2F81005012202FA03F3C1F8DE
:10641000083320460021FFF7BDFFF068E84010F088
:10642000010048D03069E84010F0010043D0B06965
:10643000E84010F001024CD0F369EB40DB0740D498
:10644000736923FA05F515F0010F0CBF0227012728
:10645000264E002101F5A27356F8230010F0030028
:1064600031D18A0002F1804303F5C0432402D3F8FE
:10647000105525F44F3525F44075C3F81055D3F861
:10648000105504F47C5402F1804202F5C24244EA01
:1064900007442C43C3F81045106012680192019A1A
:1064A000D3F8102542F00102C3F81025012303FAA6
:1064B00001F1C6F8041303B0F0BD0133082B8CD1F1
:1064C000A7E70327C4E701310829C3D16FF0120001
:1064D000F1E7736923FA05F515F0010F20460CBFAB
:1064E00003210221FFF756FF1046E4E70060004059
:1064F000B2F5A03F70B4846817D10568AD682E7AF4
:1065000001F01F0545EA46151F2DC6BF05F01F0502
:106510001E4E4FF0A04605F5E07556F82550ED07E4
:1065200007D56FF0220070BC7047B2F5005FE568D8
:1065300026D00125E6688D4035432669E5600125B2
:106540008D40B2F5005F14BF2E43AE432661A669AD
:10655000B2F5A03FE2690CBF2E43AE43B3F5C02FA6
:106560000CBF2A43AA43E2616269A661B3F5802F9A
:106570000CBF154322EA0505656170BCFFF71EBF1D
:1065800001268E4025EA0605D7E700BF000300502C
:10659000F0B5002685B0CDE90266284D2C685CB1C7
:1065A000274804F0E5FA0290264804F0E1FA039047
:1065B0002E602B680093009B234D002201269446F9
:1065C000D5F8043306FA02F119421DD002F18051C8
:1065D00001F5C25189000B68B3B102F5A27304AF93
:1065E00055F82330C1F800C0C3F3403007EB8000FA
:1065F000C3F3042350F8087C06FA03F33B4340F846
:10660000083C0B680193019B0132082AD8D10299FA
:1066100011B10B4804F097FA039911B1094804F03D
:1066200092FA44B1064804F0D6FA064805B0BDE82F
:10663000F04004F0D0BA05B0F0BD00BF7C6100406E
:10664000A42C0020B02C00200060004010B50446AF
:10665000002201210320FEF7DFF92368134A98681E
:10666000234600F1080100F035FC114B984218D088
:10667000104B1B685B0711D001234FF0000263F33E
:1066800002020D490D4B0E485B1ADB086FF3C50281
:1066900063F38F122368196802F02BFD6FF00F006F
:1066A00003E0A06804F003FB002010BD4567000074
:1066B0000000AD0BFC2C00202CB900007CB90000C0
:1066C000CBDA000030B58568EA6C6B6D85B082B9B5
:1066D0007BBB1C4600221146284604F0BEFA6C63C0
:1066E00005F11C0001F050FC002385F85C3005B07A
:1066F00030BD114613B19A4228BF1946AC6CA9654A
:106700000094C4B1002A18BF0A4601922A6D029271
:106710009AB1002B18BF0B460393036800229868B8
:10672000694600F08FFC064B9842E0D06FF00404FD
:10673000D0E71946E2E72246E7E71346ECE700BF59
:106740000000AD0B007838B50D46002863D18C6889
:10675000E36CB3B1A26D9A4231D92F4B1B685A0733
:106760000FD001234FF0000163F302012B4A2C4BA1
:106770009B1A60F3C501DB0863F38F11294802F00F
:10678000ABFC636DB3B1A26D9A422ED9224B1B684C
:106790005B070FD001234FF0000163F302011F4A92
:1067A0001F4B20489B1A6FF3C501DB0863F38F1161
:1067B00002F092FC2846BDE83840FFF783BF9B1AE1
:1067C000E36463B9E36B013BE36363B1A36B03F180
:1067D0000802A2639A68DB68A264E364D1E7A36C51
:1067E000002BCED01344A364CBE79B1A636563B937
:1067F000636C013B636463B1236C03F108022264A0
:106800009A68DB6822656365D4E7236D002BD1D0DD
:1068100013442365CEE738BDFC2C00202CB90000C2
:106820007CB90000ADDA00002DE9F74F846880469E
:106830000F4616461D4604F1040A4FF0FF3150463C
:1068400001F0C8FBD8F80890D9F800309F4200F05A
:10685000DA80BB88D8F8001013F0010217D09E4BE5
:106860001B685B0710D001234FF0000263F30202A4
:106870009A489B4B09681B1A6FF3C502DB0863F348
:106880008F12984802F035FC6FF01504E2E013F027
:10689000080014D0904B1B685F07F5D001234FF020
:1068A000000163F3020162F3C5018D4B8B4A8E48F0
:1068B0009B1ADB0863F38F1102F00EFCE4E713F47C
:1068C000C05212D0844B1B685E07DDD001234FF00D
:1068D000000163F30201814A814B9B1A60F3C501F9
:1068E000DB0863F38F118148E6E7C3F34513082BF8
:1068F00012D0794B1B685D07C6D001234FF0000111
:1069000063F3020162F3C501754B744A78489B1A20
:10691000DB0863F38F11CFE73B687648834212D8D8
:106920006D4B1B685C07AFD001234FF0000163F390
:10693000020162F3C5016A4B684A6F489B1ADB0883
:1069400063F38F11B8E78B680193BB68C9F80070D7
:10695000002B00F086801868002800F082805B68B9
:10696000D0F808B0DBB20093436800991B684FF47D
:106970000072984748B9009A012303FA02F2DBF843
:10698000003023EA0203CBF80030D9F800209368E6
:10699000B2F9042019791868D243D20F04F04CF9E7
:1069A000019B1968BB88980703F0040270D5002A80
:1069B0000CBF02220322022AC3F300136CD0032A65
:1069C0006DD0012A01D143F00203C1F854354B4A7E
:1069D0003B68934266D94A4A934266D9494A9342F0
:1069E00066D9494A934266D9484A934266D902F524
:1069F000741202F5106293428CBF4FF000434FF0C7
:106A00008043C1F82435012384F85C30002E58D02F
:106A100033687268A363E2631A685B68A264E36424
:106A2000002D53D02B686A68236462641A685B681F
:106A300022656365002262630121204604F00DF99E
:106A40004046FFF73FFE4FF0FF3104F11C0001F01C
:106A5000C1FA646B504601F097FA204603B0BDE8D6
:106A6000F08F1D4B1B6803F00703022B98D90323FB
:106A70004FF0000163F30201184A194B24489B1A96
:106A8000DB086FF3C50163F38F1102F025FB87E785
:106A9000003218BF01228EE743F0040395E743F06C
:106AA000060392E74FF00073ABE74FF08063A8E76F
:106AB0004FF00063A5E74FF08053A2E74FF000537B
:106AC0009FE7C4E90E66C4E91266A9E7C4E9105558
:106AD000C4E91455AEE700BFFC2C00202CB900001F
