:10100000E01A0020A94D000053A50000E54D0000A6
:10101000E54D0000E54D0000E54D0000000000003A
:101020000000000000000000000000003D4B000038
:10103000E54D000000000000F14A00003FA500005F
:10104000694D0000694D0000694D0000694D0000C8
:10105000694D0000694D0000694D0000694D0000B8
:10106000694D0000694D0000694D0000694D0000A8
:10107000694D0000694D0000694D0000694D000098
:10108000694D0000694D0000694D0000694D000088
:10109000694D0000694D0000694D0000694D000078
:1010A000694D0000694D0000694D0000694D000068
:1010B000694D0000694D0000694D0000694D000058
:1010C000694D0000694D0000694D0000694D000048
:1010D000694D0000694D0000694D0000694D000038
:1010E000694D0000694D0000694D0000694D000028
:1010F000694D0000694D0000694D0000694D000018
:101100007BB972B90029BEBF00204FF0004106E054
:1011100008BF00281CBF6FF000414FF0FF3000F007
:10112000BFB9ADF1080C6DE904CE002909DB002B35
:101130001ADB00F04DF8DDF804E0DDE9022304B02D
:101140007047404261EB4101002B1BDB00F040F88F
:10115000DDF804E0DDE9022304B0404261EB410127
:10116000524263EB43037047524263EB430300F088
:101170002FF8DDF804E0DDE9022304B0404261EB22
:1011800041017047524263EB430300F021F8DDF860
:1011900004E0DDE9022304B0524263EB43037047ED
:1011A00053B94AB9002908BF00281CBF4FF0FF31CE
:1011B0004FF0FF3000F074B9ADF1080C6DE904CECA
:1011C00000F006F8DDF804E0DDE9022304B0704722
:1011D0002DE9F047089E04468846002B40F08580A4
:1011E0008A42154648D9B2FA82F24AB1C2F12007C2
:1011F00001FA02F320FA07F7954047EA0308944002
:101200004FEA154E230CB8FBFEF71FFA85FC0EFBC8
:10121000178843EA084307FB0CF1994209D9EB18F8
:1012200007F1FF3080F0E380994240F2E080023F16
:101230002B445B1AA4B2B3FBFEF00EFB103344EA5E
:10124000034400FB0CFCA44509D92C1900F1FF3321
:1012500080F0CB80A44540F2C88002382C4440EA9C
:101260000740A4EB0C0400271EB1D4400023C6E9BC
:1012700000433946BDE8F087002A53D0B2FA82F223
:10128000002A40F0B680491B4FEA154E1FFA85F838
:101290000127B1FBFEFC230C0EFB1C1143EA0143AA
:1012A00008FB0CF1994207D9EB180CF1FF3002D280
:1012B000994200F2EC808446591AA3B2B1FBFEF0C9
:1012C0000EFB101443EA044408FB00F8A04507D9BC
:1012D0002C1900F1FF3302D2A04500F2DC80184641
:1012E000A4EB080440EA0C40BEE78B4208D9002E6C
:1012F00078D00027C6E9000138463946BDE8F087B6
:10130000B3FA83F77FB98B4202D3824200F2BD80E9
:10131000841A61EB030301209846002EA9D0C6E988
:101320000048A6E7FFDEC7F12005BB4022FA05FC16
:101330004CEA030C01FA07F420FA05F821FA05F348
:101340004FEA1C4E48EA0404B3FBFEF9210C0EFBE5
:1013500019331FFA8CF841EA034309FB08FA9A454E
:1013600002FA07F200FA07F10BD91CEB030309F1AB
:10137000FF3080F088809A4540F28580A9F102090B
:101380006344A3EB0A03A4B2B3FBFEF00EFB1033DD
:1013900044EA034400FB08F8A04508D91CEB040408
:1013A00000F1FF336BD2A04569D90238644440EAAA
:1013B0000940A4EB0804A0FB02894C45C6464B46F5
:1013C00054D351D0002E69D0B1EB0E0264EB03046C
:1013D00004FA05F522FA07F3FC401D43C6E9005460
:1013E000002746E73746304643E7184637E70746C3
:1013F0001FE7C2F1200320FA03F7954001FA02F03B
:1014000021FA03F34FEA154E3843010CB3FBFEF704
:101410001FFA85F80EFB173341EA034107FB08F377
:101420008B4204FA02F407D9691807F1FF3C28D26D
:101430008B4226D9023F2944CB1A81B2B3FBFEF07E
:101440000EFB103341EA034100FB08F38B4207D93E
:10145000691800F1FF3C10D28B420ED902382944A2
:10146000C91A40EA074714E74145ABD2B8EB020E70
:1014700069EB0C0201381346A4E76046F0E7184612
:1014800095E76746D8E781467BE7384645E7ACF104
:10149000020C2B4410E702382C4421E73746E8E6DB
:1014A000704700BF0000000001282DE978480E4673
:1014B00007D005F0B5FC162303604FF0FF30BDE800
:1014C000788809F0C6FC1C4B34687268A4FB03BC26
:1014D00003FB02CCB3684FF47A761BEB03044CEBAE
:1014E000E375A0FB06BC06FB01CC4FEADB321349D7
:1014F00042EA4C424FEADC30A2FB0123A61A01FB70
:10150000003365EB0305304609A3D3E900232946E0
:10151000FFF7F6FD0A4C06A3D3E90023C4E9000156
:1015200030462946FFF7ECFD0020A260C7E700BF68
:1015300000CA9A3B0000000000CA9A3B40420F00DC
:10154000E001002008B50C4B1B6803F00703022BD9
:101550000DD903234FF0000163F30701074A084B3D
:1015600008489B1ADB0863F38F1107F0D5FCBDE830
:10157000084000F0A5B800BFE4000020B8B20000A9
:10158000B8B2000086BD000008B5034A002108F08B
:1015900069F8002008BD00BF1ABC00002DE9F34126
:1015A0000B460D46174600210B4ADFF830800646F1
:1015B00008F058F80024AC4203D1002002B0BDE886
:1015C000F08157F8243000934246234600213046EC
:1015D00008F048F80134EEE7FEBB000009BC00004B
:1015E00008B5034A034B002108F03CF8002008BD71
:1015F0004CBC000045BC00002DE9F8430B460D46ED
:10160000904600210E4ADFF83C90064608F02AF882
:101610000024AC4202D10020BDE8F88323464A46AC
:101620000021304608F01EF858F82470384609F0BA
:1016300055F839460246304602F012FB0134E8E71D
:10164000FEBB0000F4BB000010B50446044809F0DE
:101650000EFC2046034A002108F004F8002010BDCB
:101660001001002033BC000013B541F69A12044665
:1016700000230648CDE9002306F0A2FD2046044AD7
:10168000002107F0EFFF002002B010BD1001002084
:1016900020BC000013B54FF4A47204460023064892
:1016A000CDE9002306F08CFD2046044A002107F016
:1016B000D9FF002002B010BD1001002020BC0000A6
:1016C00010B51D4C236803F00703022B0DD903232B
:1016D0004FF0000163F30701184A194B19489B1A90
:1016E000DB0863F38F1107F017FC236813F0060F74
:1016F0000DD002234FF0000163F307010F4A104B96
:1017000011489B1ADB0863F38F1107F005FC23686F
:101710005B070FD001234FF0000163F30701074A75
:10172000074B0A489B1ADB0863F38F11BDE8104092
:1017300007F0F2BB10BD00BFE8000020B8B2000007
:10174000C0B2000095BD0000A2BD0000B2BD000007
:10175000084B1B7883420AD9074B00EB4010184412
:101760000023C1E90233054B08604B60704700233A
:101770000B6070476C0B0020D808002007BF0000EA
:101780002DE9F341124D2A78064642B9114A042147
:1017900007F068FF6FF0070002B0BDE8F0810E4A65
:1017A0000E4FDFF83C80002107F05CFF00242A7810
:1017B000E3B29A4201D80020EEE703EB43123A4429
:1017C000009200214246304607F04CFF0134EEE71C
:1017D0006C0B0020C5BE0000E6BE0000D80800204B
:1017E000FDBE00002DE9F743DFF85880DFF8589080
:1017F00007461546002698F800306968F0B2834223
:1018000009D800912B680D4A0221384607F02AFFBB
:101810006FF007040EE000EB4010484408F065FF4D
:10182000013604460028E6D101466B68044A384672
:1018300007F018FF204603B0BDE8F08373BE000038
:101840005EBE00006C0B0020D80800202DE9F74F89
:10185000DFF890A0DFF8909007464FF0000BD046DD
:101860009AF8001053685FFA8BF4A14207D81B4A1C
:101870000221384607F0F6FE6FF007051BE004EB87
:1018800044164E4419463046019208F02EFF0BF1E3
:10189000010B0546019A0028E2D1132C0FD189F8DB
:1018A000730298F800300E4A013B0021384688F850
:1018B000003007F0D7FE284603B0BDE8F08F9AF855
:1018C0000020121B013404EB441402EB421209EB1A
:1018D0000401304608F034FFE3E700BFABBE000070
:1018E0008DBE00006C0B0020D80800202DE9F843C5
:1018F000294C2378132B0546164607D9274A02217F
:1019000007F0B0FE6FF00700BDE8F883506808F0FC
:10191000E5FE80B220280FD8776800239AB2904263
:101920000ED81F4F4FF00008B9467168384608F0CE
:10193000DCFE90B91B4A00E01B4A02212846DFE783
:10194000FA5C42F020016139192904D9303A092A98
:1019500001D9164AF1E70133E0E708F10108B8F1CF
:10196000140F07F12107E0D1207872681049431C59
:1019700000EB40104844237004F074FB0D4B2178B9
:101980000748212206F04AFD28460B4A002107F0AD
:1019900069FE0020B8E700BF6C0B0020C7BD000047
:1019A000D80800202EBE0000DEBD0000F0BD000003
:1019B000E3C60000C383000042BE00002DE9F04FE3
:1019C00085B09B460E9CDFF88890012CB8BF01249F
:1019D000012B0CBF302320231646824688460293F3
:1019E00001250A270022B6FBF9F301930AB9B14594
:1019F0001DD8019B414603F13000D047013501223B
:101A0000019B013F012F09FB13664FF00A03B9FB4D
:101A1000F3F9E8D1414606F13000D047BBF1030F9E
:101A200002D1641B002C0EDC05B0BDE8F08FBC4277
:101A3000E6DBBBF1020FE3D8414602980392013581
:101A4000D047039ADCE741462020D047013CE9E734
:101A500000CA9A3B014B1860704700BF000000208D
:101A600030B585B0CDE901010446002501A905483E
:101A7000039506F01CFFDDE902309842B8BF2554FB
:101A800005B030BD898800002DE9F74F0369C468AF
:101A900003F10108631E1E46436940F26C74E118AD
:101AA0004FF0000545EBE372B8F1020F8CBF002345
:101AB0000123CC1A62F10005002C75F10003814668
:101AC0005DDA6FF4C77020184FF4C8724FF000034E
:101AD00045F1FF31FFF714FB2C4B03FB0044D9E920
:101AE00000539A464FEAE37BD9F808304FF03C0C9C
:101AF000CCFB03ABAAFB0C23B8F1020F0CFB0B339E
:101B00008CBF6FF0020E4FF0090E12EB050943EB8C
:101B1000E57A4FEA940C40F26D1505FB04C5354497
:101B2000F0444FF0640C4FF0990EB4FBFCF4DFF876
:101B300068C02C1B0EFB08FE0EF1020E4FF00508CC
:101B4000BEFBF8FEA644A0FB0C450CFB015510495A
:101B50006318009345F1FF330193DDE900670D49F8
:101B600016EB0E06A6FB014547F1000701FB0755E2
:101B700014EB090045EB0A0103B0BDE8F08F4FF408
:101B8000C872002320462946A4E700BF70FEFFFF6D
:101B90009405F5FF80510100B13A020030B50022F2
:101BA00089B00F490F4809F056F90F4D0F4900222F
:101BB0000023CDE9062300240E23CDE90334CDE92B
:101BC000014400940A4B4FF44072284606F016F97F
:101BD0000849284606F076F8204609B030BD00BF17
:101BE000F91B0000B001002028020020E00B0020BB
:101BF0009121000022C40000014805F0DBBF00BFB6
:101C00005C01002038B500F025FB1348134C07F0A9
:101C10003BF9134913480423282208F06AFF124BAA
:101C2000124A1A604FF4004000F052FD1048114B68
:101C30001B1ADB0800210430994200D138BD10F88E
:101C40003120256802F0070225F007052A4344F8F1
:101C5000042B0131F0E700BF04020020E400002063
:101C6000202400200C02002004000020C78E000069
:101C7000B8B2000008B30000F8B50F4BBFF35B8F9C
:101C8000002553E8007F43E80052002AF9D1BFF352
:101C90005B8F0A4C0A4E361B3611B54200DBF8BD8D
:101CA00063685B792BB12368DB6813B13946204642
:101CB000984701351034F0E7FC01002008B300001C
:101CC00018B30000064BBFF35B8F53E8002F0132BF
:101CD00043E800210029F8D1BFF35B8F704700BFB4
:101CE000FC010020044A054B9B1AB1EBD30F34BF13
:101CF00052F8310000207047B8B2000008B300006D
:101D00002DE9F047894616469846B8B9214B224F2F
:101D1000FF1A3F11044605469A46BC4202DB28469C
:101D2000BDE8F0870AEB0410434632464946FFF708
:101D3000E7FF854238BF05460134EEE7174B1849E7
:101D400003EBC2031D7943681A79072302EB4202B1
:101D500003FA02F0454551F8263028BF454623EAEC
:101D6000000305F0070000FA02F2134300200322EB
:101D700023FA02F404F00704A04202F1030238BF80
:101D800020461E2AF4D123F00703034341F82630EE
:101D9000C5E700BF08B3000018B30000B8B20000E8
:101DA000E4000020F8B5094C094BE41A06460F463A
:101DB000E4080025A54200D1F8BD00212A463B4693
:101DC0003046FFF79DFF0135F4E700BF08B3000080
:101DD000B8B2000038B50C4BC31A0D461B11416850
:101DE000044601330B711146FFF7DCFF6368074CB3
:101DF0001D6001225A71227812B9054805F0DAFEF9
:101E00000123237038BD00BF08B300006D0B002014
:101E10005C01002070B5114BBFF35B8F53E8005F8E
:101E20006A1C43E800210029F8D1BFF35B8F2DB96C
:101E30000B4C0C4E361B3611B54200DB70BD237BBC
:101E400043B123685B6903B198470422002120460F
:101E5000FFF7C0FF01351034EEE700BF000200209D
:101E600008B3000018B3000053B14368074918795C
:101E700000EB400351F82200D84000F00700704703
:101E8000034B03EBC2031879704700BFE400002046
:101E9000B8B20000164B984237B5044602D3154B32
:101EA000984220D30022002301A9134805F06EF9BF
:101EB0000546D8B90122019BBFF35B8F53E8001F91
:101EC00043E800200028F9D1BFF35B8F0198214639
:101ED0001F22043008F0E1FB019C7E2384F82330AC
:101EE00084F824500434204603B030BD034CFAE794
:101EF000D8B000005CD500000C020020AFC000008C
:101F000048B1054B984205D3A03398422CBF00201E
:101F10000120704700207047202400202DE9F04F59
:101F20005A4B1B7885B0054603B960B34FF02003C8
:101F3000EFF3118683F31188BFF36F8F544806F0D7
:101F4000B3FF044686F31188BFF36F8F78B1BFF3F8
:101F50005B8F504B53E8002F013A43E800210029E2
:101F6000F8D1BFF35B8F95B1204607F0A8F825B9EB
:101F7000494B1B680BB1FFF77FFE454806F092FF07
:101F8000051C18BF0125284605B0BDE8F08F434B5E
:101F90001B78DBB9237ADA0718D407F0A3F8814657
:101FA000204607F06CF80146484606F090FF3C4B8F
:101FB0003C4ADFF810B1D21A4FEAD20A3A4AD21A92
:101FC000C2F3C902CDE90223074647B9374E384F5D
:101FD000DFF8F490BF1B3F114FF0000852E0B7FA52
:101FE00087F6C6F11F063146204607F04BF8314B05
:101FF0009842024602D3304B984223D31046FFF753
:102000007FFFF8B92D4B9A421CD063899B09534539
:102010003CBF039A52F83320DBF8003028BF024659
:102020005B070FD028F03F0343F0010363F3070879
:10203000029B234863F38F18ADF800804B4631466E
:1020400006F0A3FF012303FA06F627EA0607BCE71A
:1020500073685A799AB160891B79A17A800903EB78
:10206000430259F82030D34001F0070103F0070381
:10207000994204D8336821461B683046984708F1D6
:1020800001081036B845E3DB6EE700BF6D0B00209A
:1020900004020020F8010020FC0100206E0B00204B
:1020A000B8B2000008B30000D0B2000008B30000CE
:1020B00018B30000D8B000005CD50000AFC000002D
:1020C000CDC00000F0000020E4000020294B73B5D3
:1020D0001B68418105469847274CE860BFF35B8F3A
:1020E00054E8003F013344E80032002AF8D1BFF33E
:1020F0005B8F4FF02003EFF3118683F31188BFF35A
:102100006F8F1E48294606F0C3FE86F31188BFF381
:102110006F8F1B4B1B7883B14FF02003EFF31184BB
:1021200083F31188BFF36F8F0020FFF7F7FE84F36E
:102130001188BFF36F8F02B070BD124A2368126816
:10214000002AF8D0012B0AD100220023CDE9002378
:102150000D484FF40042002306F032F8EBE70A2B5B
:10216000E9D1094808F083FE084802B0BDE8704094
:1021700005F020BD04000020F8010020040200202A
:102180006E0B0020D0020020B00100205C01002076
:1021900010B5FFF73FFE05F007FD0C4B186030B19E
:1021A0000B4B1B68092B02DD0A4805F003FD094CA7
:1021B0000020FFF7B3FE0028FAD14FF0FF324FF0B6
:1021C000FF33204605F01CFDF2E700BFD0020020DF
:1021D000F80100205C010020F8B50E4F3D7875B97C
:1021E0000D4C0E4EFFF716FE361B3611B54207DBBF
:1021F0000020FFF793FE0028FAD101233B70F8BDC1
:1022000063685B791BB1236820461B6998470135D9
:102210001034EBE76E0B002008B3000018B3000089
:1022200007B504380190BFF35B8F50E8003F5A1E9A
:1022300040E800210029F8D1BFF35B8F012B03D1C7
:1022400001A9034804F0D4FF03B05DF804FB00BF0C
:102250000C02002020231A460149024808F049BC1C
:10226000C0240020D402002037B50023094D01937B
:102270000120FFF753FE0446FFF724FD0022002350
:1022800001A9284604F082FF08B1002CF0D1019882
:1022900003B030BDD402002007B500230193002213
:1022A000002301A9054804F071FF10B1FFF7DCFF1E
:1022B0000190019803B05DF804FB00BFD402002038
:1022C000F0B5047A457A85B014F0010401904FEA24
:1022D00015151BD1D5B126463146019806F0D2FE20
:1022E0000746FFF70DFE70B134B9019B2946186906
:1022F00006F0EDFD044648B124FA06F3D90702D5ED
:102300003846FFF78DFF0136AE42E5D3019B1A7ABE
:10231000920704D55B69084C0393039B2BB901A971
:10232000054804F065FF05B0F0BD1D6803A920460F
:1023300004F05EFF0395F0E7D40200200EB403B56D
:1023400003AB014653F8042B0448019306F0AFFA9F
:10235000002002B05DF804EB03B07047E593000085
:102360002DE9F04F85B011F00204064690469DF825
:10237000387001F0010901F0080507D011F0440F91
:1023800037D11A463249FFF7D9FF0446B9F1000F99
:102390000AD0304B304953F82720304B3046002AC2
:1023A00008BF1A46FFF7CAFF3DB12D4B2D4953F820
:1023B00027203046FFF7C2FF0546B8F1000F44D092
:1023C000012303FA07F7284B17F0100F274F18BF08
:1023D0001F46BDF840109DF83C00FFF783FC3946CE
:1023E00002463046FFF7AAFF2844204405B0BDE866
:1023F000F08F1F4A116831B31E4A4FF4616E1468A2
:10240000B3FBF4F34FF47A7CB3FBF1F4B4FBFEF2CC
:102410000EFB124E01FB14340CFB04F44FF03C0A8B
:10242000B4FBF1FB01FB1B44BEFBFAF30CFB04F411
:10243000B4FBF1F1CDE901B10AFB13E100910E49C2
:10244000FFF77CFFA1E708469FE7084FC1E700BF01
:1024500045C100005CB50000E3C6000037C10000C4
:1024600070B500006AC1000041C100003CC100001D
:10247000F0020020F40200204EC1000038B50C46E6
:10248000E107054603D5084A0849FFF757FFE2066A
:1024900008D4A30628464CBF05490649BDE8384084
:1024A000FFF74CBF38BD00BF37C10000E3C60000D6
:1024B00002C60000BFC100002DE9F0479846089B06
:1024C000DD0604460E46174605D499064CBF294939
:1024D0002949FFF733FFDFF8A890002545452ADB9F
:1024E000DFF8A080DFF8A090DFF894A00025BD42BF
:1024F0002ED2725D49462046FFF720FF0135102D90
:102500001FD11E49DFF87880DFF880902046FFF762
:1025100015FF0025AF4227D9725DA2F120035F2B82
:1025200028BF2E2249462046FFF708FF0135102D0F
:1025300013D1BDE8F08749462046FFF7FFFE01357D
:10254000CCE76A07D3D151462046FFF7F7FECEE726
:1025500041462046FFF7F2FED0E76B07DAD141464D
:102560002046FFF7EBFED5E741462046FFF7E6FEA3
:10257000DCE700BF02C60000BFC1000016C10000BA
:1025800014C1000012C100000CC10000FBC8000013
:102590002DE9F0478B7A13F0070417468AB00546F9
:1025A0000E460A7A1CD04989C3F3C2038909D24373
:1025B0000291CDE9004302F00102F3683946FFF7CA
:1025C000CFFE8146337ADA070CD42946304606F02E
:1025D0009FFD4CB3224639462846FFF74FFF23E0C4
:1025E000A146EFE734BB2746EB68069306AA3B46B5
:1025F000A968304606F078FD069A6B681A603AB111
:10260000AB68134413F8014CA4F10A035C425C412B
:10261000284606F0DAFE069B1F44002BE4D11CB1CD
:1026200014492846FFF78AFE284606F0CEFE0AB077
:10263000BDE8F087304606F055FD0F4902462846B2
:10264000FFF77CFE4FF000084FF0100A05AA434642
:1026500006A93046CDF814A006F046FD059A002ADA
:10266000B8D04B46009706A92846FFF725FF059BE3
:102670009844EBE718C10000E3C6000073B5D0E949
:1026800000435D680F4A42F20F738B4228BF0B462E
:102690006846052106F07BFA2B46064604222046B2
:1026A000094906F028FD2B4632466946204606F0C9
:1026B00022FD2B4617220549204606F01CFD02B0DC
:1026C00070BD00BFE6C8000032C100001AC10000A2
:1026D000084A10B50123084C13600021A04204D819
:1026E00001B11360054B186010BD40085B0001216B
:1026F000F4E700BFF402002040420F00F002002087
:1027000000230428CB604B6098BF044B044A98BF59
:1027100053F820308A600B60704700BFC4B50000DA
:10272000A0B500000022084B0A60CA604A608B60B6
:10273000064A074BD21AB0EB221F3EBF03EB001331
:102740009B680B60704700BF04B7000018B300001F
:1027500008B300002DE9F347114C124DDFF8488013
:10276000DFF84890DFF848A02D1B07462D11002602
:10277000AE4203DB002002B0BDE8F0876268537907
:102780001279002B14BF43464B46CDE9003200219D
:10279000A3685246384606F065FF01361034E7E775
:1027A00008B3000018B3000090C1000098C10000F9
:1027B000A1C100002DE9F74F214B224DED1A4B68C6
:1027C0005B7906460F46ED081BB91F4A042106F047
:1027D00049FF1E4B1E4ADFF88080DFF88090002101
:1027E000304606F03FFF1B4A0021304606F03AFF14
:1027F0000024AC4203D1002003B0BDE8F08F224694
:10280000012300213846FFF72FFB002322461946FB
:1028100082463846FFF728FB214683460020FFF713
:1028200061FA58F82B30019358F82A3000934A4641
:1028300003460021304606F015FF0134D9E700BFFA
:10284000B8B2000008B300001DC200002FC2000093
:102850003BC2000059C20000B0B5000096C20000A3
:1028600010B50023054ACB600C464B608A600146D8
:102870001846FFF737FA206010BD00BFA0B5000072
:102880002DE9F04F52F8047C194C85B0804638464B
:10289000914602938B4607F021FF164A121B121134
:1028A000034601920025A246019A954208DB3B4669
:1028B000114A0221404606F0D5FE6FF0070612E0ED
:1028C000A16803931A46384607F01BFF10340646EA
:1028D00010B10135039BE7E74B465A460AEB051159
:1028E0004046029CA047304605B0BDE8F08F00BFCF
:1028F00008B3000018B30000AAC2000008B5024BDC
:10290000FFF7BEFF002008BDB5270000014BFFF711
:10291000B7BF00BF1B940000014BFFF7B1BF00BF62
:1029200023940000014BFFF7ABBF00BF2D2A00002E
:10293000014BFFF7A5BF00BF9F940000C369DB6890
:1029400010B51C792CB9044A022106F08BFE2046F2
:1029500010BD0120FCE700BFBFC200002DE9F04F11
:102960001F462C4D2C4BED1A161E85B04FEAD5058F
:1029700014BF33462B4603934B685B7980468946E8
:102980001BB9264A042106F06DFEDFF89CA0002446
:10299000039B9C4202DB05B0BDE8F08FBEB357F845
:1029A000243002934FF0000B5D4507D157F82430D7
:1029B0001B4A0221404606F055FE20E05946002001
:1029C000FFF790F94022029907F09BFEC8B95A46DA
:1029D00000210E9B4846FFF793F90E9B83428346E6
:1029E0000DD08EB921463046FFF77CF903465AF8E0
:1029F0002B20009204210B4A404606F033FE01349E
:102A0000C6E70BF1010BCFE757F82430EFE722467A
:102A1000DEE700BF08B30000B8B20000C2C100008A
:102A2000EDC10000D7C10000B0B500002DE9F74F9F
:102A3000D3F804B0DFF850800746894692461E4618
:102A40000024042258F8041B584607F05AFE054695
:102A500070B10134052CF4D173680A4A022138465A
:102A600006F000FE6FF00705284603B0BDE8F08FC2
:102A7000009406F10803AAF1020249463846FFF71E
:102A80006DFFF1E707C20000B0B5000013B50446C2
:102A900005F044FAC0F307230193C0F30743009302
:102AA000044A030E0021204606F0DCFD002002B09F
:102AB00010BD00BF08C500002DE97848064608F0A3
:102AC000C8F94FF47A75A0FB05BC05FB01CC0024C6
:102AD0004FEADB3242EA4C433046034A214606F0D5
:102AE000C1FD2046BDE87888F9C4000010B5044651
:102AF00001F0AEFF084A03460021204606F0B2FD71
:102B0000064A2046002106F0ADFD2146044805F0A6
:102B1000A1F8002010BD00BFD0C40000EFC4000029
:102B2000812B000030B5014687B00546114805F0FD
:102B300091F8114A002312F8011BAA2903D101338D
:102B4000B3F5006FF7D1C3F5006164224A43D20A9E
:102B5000002405924FF40062CDE90312CDE9012370
:102B600028460094044B054A214606F07BFD20468A
:102B700007B030BD592C0000201C00208AC4000082
:102B8000F0B587B004460D46D0F8986008F00DF90E
:102B9000074605F009F8214B214A002F08BF1F46C0
:102BA000204BCDE90047844208BF13460021284648
:102BB0001D4A06F057FD236A019394F90E300093E5
:102BC0001A4A237B0021284606F04CFD204605F0DA
:102BD00089F8174A03460021284606F043FD05A957
:102BE000204608F0E4F8014638B10346114A0021B6
:102BF000284606F037FD07B0F0BD059A6423B01AE9
:102C0000CDE9002043430C4AB3FBF6F32846CDE957
:102C10000263334606F026FDEDE700BF5BC500000A
:102C2000C8D3000014C100005EC500006AC50000E2
:102C300094C50000A0C50000CDC5000010B5044635
:102C400001F020FF034A03460021204606F00AFD5A
:102C5000002010BD74C40000F0B5064689B00F46D0
:102C6000D0F8984007A908F0A2F8054638B1034605
:102C7000114A0021384606F0F5FC09B0F0BD304697
:102C800008F093F807990D4BA4EB010C002808BF3E
:102C90001846642202FB0CF2CDE9021CB2FBF4F2EE
:102CA000CDE90004CDE904423346054A29463846B9
:102CB00006F0D8FCE1E700BFA0C500005BC500003E
:102CC00021C500002DE9F0410E4A0F4C0F4E104F68
:102CD000DFF840800021054606F0C4FCB44202D172
:102CE0000020BDE8F081A36853B13A460021284690
:102CF000236806F0B7FC42460021284606F0B2FCE5
:102D00001034EBE7D7C6000094000020E400002058
:102D1000E1C6000002C60000F8B50B4B0B4F53F89C
:102D200021400131064653F821500020A54200D829
:102D3000F8BDA36833B1304623683A46002106F057
:102D400091FC01201034F1E7BCB70000E6C600009A
:102D500010B51F4A0446002106F084FC02212046DB
:102D6000FFF7DAFF014618B91A4A204606F07AFC46
:102D7000194A0021204606F075FC03212046FFF782
:102D8000CBFF014618B9134A204606F06BFC134AE4
:102D90000021204606F066FC00212046FFF7BCFF1C
:102DA000014618B90B4A204606F05CFC0C4A00218B
:102DB000204606F057FC01212046FFF7ADFF0146F3
:102DC00018B9044A204606F04DFC002010BD00BF93
:102DD00095C60000A3C60000ABC60000B9C600003F
:102DE000C8C600007FB50A684B6904924A6803921E
:102DF0008A680292CA6801920A690132009203F25B
:102E00006C73034A002106F02DFC07B05DF804FB4B
:102E10009EC70000F7B513783A2B06460F461546B5
:102E200015D1541C23783A2B2DD1013400230A22CA
:102E300001A92046019307F093FB019B3860A34250
:102E400010D01B7873B93C2831D91A4A14E00023FA
:102E50000A2201A92846019307F082FB019CB86071
:102E6000AC4203D16FF0150003B0F0BD23783A2BCC
:102E7000F8D1172805D9104A0221304606F0F2FB96
:102E8000F0E70134CEE700230A2201A9204601938E
:102E900007F066FB019B7860A342E3D01A783A2AD8
:102EA000E0D13B2801D9054AE6E75C1CBEE718469D
:102EB000DAE700BFDDC70000BFC70000CDC70000D4
:102EC0002DE9F043044691B00D461746012002A9B2
:102ED00003F0C8F907A902A803F0DCF8032D5ED1BE
:102EE0007D684FF000090A2201A92846CDF8049018
:102EF00007F036FB80460198854218D003782D2BC9
:102F000015D1451C0A2201A92846CDF8049007F0E6
:102F100027FB019B9D420AD01A782D2A07D1461E15
:102F20000B2E0DD92A4A0221204606F09BFB204693
:102F300006F0A5FB6FF01505284611B0BDE8F0833B
:102F40005D1C0A2201A92846CDF8049007F008FB71
:102F5000019B9D42EBD01B78002BE8D1431E1E2B1A
:102F600001D91C4ADFE7A8F26C73CDE90B63BA689C
:102F70000A9007A92046FFF74DFF0028D7D107A8E0
:102F800005F01CFECDE90201013108BFB0F1FF3FA1
:102F900009D1114A0221204606F064FBCAE7022D3E
:102FA000C5D17A68E5E7002302A901200493FEF762
:102FB0007BFA054630B10346084A0221204606F056
:102FC00051FBB7E707A92046FFF70CFFB4E700BFA6
:102FD00042C7000051C700005EC7000087C700005D
:102FE00037B58368D3F85822520604460D4608D5F3
:102FF000B3F85822C0686FF38612A3F8582206F07F
:10300000B0FFE368DB6863B99DB3A068383006F0B1
:10301000A5FAA36878B303F1380103F59C7007F0B3
:1030200032FBA268E0680DF106033832294606F04B
:103030009BFF58B9A06800F59C71383007F023FB5E
:10304000A068383006F08AFAADF80600204606F08F
:10305000C4FD0A4A0A49606906F086FA204600F073
:1030600011FFA368BDF806209A865A86204600F014
:10307000CBFE03B030BD83F83801D2E724C800008E
:10308000E3C600002DE9F04F83689FB0DD69044678
:1030900000223833CDE90522039306F0A4FD204633
:1030A00006F029FD18B99C49606906F05DFAA06830
:1030B00014220021083007F084FB204606F0C2FCF1
:1030C000A168E0684A8E383106F085FF204607F097
:1030D0004FF9002D00F019812B681193039B129377
:1030E000EB685BB32F460FCFA668DDF81480083677
:1030F0000FC63B683360AB6823BB6B7CFE2B21D1D2
:103100002E7C08F10103013E0593D5F804E0BEF1E1
:10311000000F08D0AC46BCE80F000CAF0FC7DCF8BE
:1031200000303B60F246059B013305930DF14809E1
:103130004FF0000BCDF808B05F4670E04FF0FF365F
:103140009846E2E74FF0FF36DFE7012A06D128B1C3
:10315000724A0221204606F0E1FD75E0059B002B36
:1031600078D06F49D9F8000007F0BFFA40B9BAF13A
:10317000000F3FD16B4A0221204606F0CFFD63E0ED
:103180006949D9F8000007F0B0FA0028EFD0059B94
:10319000002B5FD0D9F800203946204601F09EFA76
:1031A000022835D1029BABB1204607F003F9A26893
:1031B000D169003118BF012111A80C2300EB810156
:1031C000383205A806F0D8FAA368DB6913B1059B6D
:1031D00001330593A0684369002B40F0AD80BAF13C
:1031E000000F31D0C36853450DD0CDF834A000F1A5
:1031F000080503E0A568CDF834A008350CAE0FCE65
:103200000FC533682B60204606F0BBF901251DE091
:1032100003281FD0059B0133059301230293069BCE
:10322000012BBFD0059B0C2BBCD8002EBAD002239B
:10323000039A494606A806F09FFAD9F8042003929B
:10324000069A0346002A80D16FF0070528461FB072
:10325000BDE8F08FBBF1000F06D107AAD9F8001026
:10326000284606F078FB074609F10409013E002FC5
:1032700039D0029AFB6842B1F3B1204606F0B3FCA4
:10328000204600F0C1FD294A75E7ABB1BC46BCE859
:103290000F00A568DDF8148008350FC5DCF8003094
:1032A0002B60BB6843B97B7CFE2B01BF3E7C08F1E1
:1032B000010306F1FF360593D7F804C0BCF1000FF7
:1032C00008D0BE46BEE80F000CAD0FC5DEF80030DA
:1032D0002B60E2463D4616B9069B022B9FD1059B0B
:1032E000013305939BE7059B63B9A368DB690BB1C9
:1032F000DB683BB90E4B00930E4A119B022120461E
:1033000006F00CFD4FF0010BE5E7AA464FF0FF3643
:10331000A8460DF144090BE702C6000028C80000CA
:103320003CC8000046C800003FC8000064C8000058
:1033300093C8000082C90000059D037EA5EB080527
:10334000B3B1427E4FF6FF71FF2A08BF0A469D4285
:1033500002D313449D420BD98368174A02212046A9
:1033600006F0DCFC204606F00CF96FF015056DE761
:1033700000F53B7006F0F0F8A368B3F8582242F06D
:103380008002A3F8582211AA02EB880229465B6941
:10339000204698470546A068B0F858326FF3C71327
:1033A000A0F858324FF0FF324FF0FF3300F53B707A
:1033B00006F004F94AE700BFA7C800002DE9F04F66
:1033C0008368BFF35B8FA9B0044603F5167353E817
:1033D000002F42F0080243E800210029F7D1BFF393
:1033E0005B8FA3681B79022B40F02B83002309938A
:1033F0006068036801221D690DF1230109ABA8472C
:10340000099B002B00F01D839DF823100806EFD4C4
:10341000A0684379022B00F21283DFE813F0030067
:103420009002A7020D291BD00A2919D0B0F85832F2
:103430006FF30F23A0F85832092953D038D8002948
:10344000D6D0082900F0DF81A1F120035E2B00F225
:10345000E981B0F8583243F04003A0F85832FCE05C
:10346000D0F8583213F47F4F05D0D0F85832C3F358
:1034700007239942E0D1B0F85832428E61F30F230E
:10348000A0F8583282B9B0F8583262F38613A0F827
:103490005832E06806F065FDB549606906F064F8E9
:1034A000204606F077F8A3E72046FFF7EBFDF7E7A5
:1034B0001B2914D07F29C7D1D0F858325F0797D580
:1034C000B0F8583243F04003A0F85832D0F85832E0
:1034D0009E0600F1A381204606F061FC88E70123E7
:1034E000437185E7D0F85832590781D5B0F8583282
:1034F00043F04003A0F85832438EFF2B3FF478AFDF
:10350000828E00F1380100F59C7007F030F9A26856
:10351000938E1344002183F8381102F59C720C231A
:103520001BA90BA806F028F9A068838E034493F822
:103530003730202B61D0093B042B8CBF00230123A3
:103540000B9919B1002B5BD1012958D10023C76910
:103550000A930A9B28AA02EB8303002553F8349CA4
:10356000484605F0FBFFA846824603952E4616AA5C
:103570003146384600F0FAFB834600284DD1012D34
:1035800074D10A9B28AA02EB830353F8340C05F08C
:10359000E5FFA268054608324146384600F0E6FBE2
:1035A0000646006805F0DAFF854206D03168421B06
:1035B00092B22944204606F0F0FBA3689A8E1A4482
:1035C00092F83820202A4CD0093A042A49D9D3F855
:1035D0005822D20740D5B3F858226FF30002A3F85F
:1035E00058222021204600F01DFDA268B2F8583272
:1035F00043F00103A2F85832FAE60123A0E70139AB
:10360000002301930CAB00931BAA0AABC06906F020
:10361000B9F9074600289CD1EAE652464946DBF84C
:10362000000007F06EF8DBF800302BB1DBF80C205F
:1036300012B9DBF808206AB160B9184607F04EF8F5
:10364000039B834238BF03469BB2002D08BFB046A0
:103650000393013501368AE72021204600F0E2FC81
:10366000C6E60121204606F05AFAC1E67FF6C0AE52
:103670000A9BDFF800A128AA02EB8303C14653F896
:10368000343C0293184605F069FFA3680590A3F83F
:1036900030B0AB46A26849460832384600F066FBB7
:1036A0000646006809F10109002852D13368002B51
:1036B00062D1A2681386BBF1010BEBD12C49606982
:1036C00005F052FF204600F0DFFC0A9B28AA02EB1F
:1036D000830308F1010A53F8340C05F03FFF41461B
:1036E00011AA8146384600F041FB0646A0683168C1
:1036F000FF2200F59C7006F0D0FFD6F800804FF650
:10370000FF7616AA514638460AF1010B00F02EFB4F
:1037100000286CD0A368006803F59C73002213F89E
:1037200001CB815C614505D121B101324FF6FF71BA
:103730008A42F4D1B9F1000F01D04A4507DB964225
:1037400005F1FF35A8BF1646012DB6B24FD0DA46B7
:10375000D7E7F36813B9B368002B9BD0029B002B0B
:10376000A4D0059A029906F0CCFF00289ED091E7DC
:1037700002C6000013C100005046069305F0EEFE9D
:10378000039BA168184482B250464E8D049205F006
:10379000E5FE069B0790184605F0E0FE049A07999F
:1037A000101A83B2A0680493B0F830C0069B761A52
:1037B00096FBF2F292B2BCFBF2F102FB11C20CF1E9
:1037C000010E92B2A0F830E05AB90093A64A5346CF
:1037D0000721204606F0A2FA0499204600F004FBD7
:1037E00069E7A24A0721204606F098FAF4E7002E7E
:1037F0003FF4FEADA6EB090292B208EB09012046A8
:1038000006F0CBFAF4E5D0F858325B077FF5F0AD5F
:10381000B0F8583243F04003A0F85832204606F082
:10382000D9FAE5E5D0F858325D077FF5E1AD013909
:1038300016293FF6DDAD01A353F821F0093A000047
:1038400099380000A1380000D7340000FD3900008D
:10385000C7380000F1330000F1330000F1330000FD
:10386000F1330000CF380000D7380000F1330000FA
:10387000F3380000F1330000FD380000F1330000A0
:10388000F1330000F1330000F13300000139000092
:10389000F13300002D390000204606F0ABF9A7E512
:1038A000204606F0A0F9204606F025F918B970491F
:1038B000606905F059FEA268B2F8583243F040033F
:1038C000A2F85832ECE5204606F09CF990E5204637
:1038D00006F0A1F98CE56069664A644905F044FE8A
:1038E0006069654A614905F03FFE204600F0CCFB67
:1038F0007EE500212046FFF773FB79E50121F9E71A
:10390000204606F06AF9A3685849002283F8382057
:103910009A865A86A268B2F8583243F04003A2F859
:1039200058326069554A05F01FFE61E5204600F0F7
:10393000FBFAA268B2F8583243F040035AE65B291A
:1039400001D10223CCE5D0F85832580706D56229B8
:1039500008D14FF0FF31204606F005F9A368002298
:103960005A7145E56629F9D10121F4E70023437135
:10397000D0F858325A077FF53BAD31391B293FF655
:1039800037AD01A353F821F0053A0000113A0000C9
:103990002F3A0000F9390000F1330000F133000044
:1039A000F1330000F1330000F1330000F133000087
:1039B000F1330000F1330000F1330000F133000077
:1039C000F1330000F1330000FD380000F33800004F
:1039D000C738000099380000F1330000FD390000BD
:1039E000F1330000093A0000F1330000F133000028
:1039F000F1330000153A000003234371204606F01E
:103A0000F2F8F5E403234371204606F0E6F8EFE40C
:103A100003234371D0F85832B0F8582203F0010361
:103A200083F0010363F30002A0F85822E0E40323CB
:103A30004371D0F858325B077FF5DAAC4BE50023D1
:103A40004EE5A368BFF35B8F03F5167353E8002FB1
:103A500022F0080243E800210029F7D1BFF35B8F71
:103A600029B0BDE8F08F00BFCCC80000E3C600005D
:103A700002C600001BC800001FC8000024C80000C8
:103A80002DE9F041044688B00F464FF44172002101
:103A900080681E4606F095FEA3682268E0681A60FA
:103AA00006F004FBA06800F53B7007F057F84FF4F0
:103AB00027784FF41775A068284407F0F6FAA06835
:103AC0000022431901214044103504F0D1FBB5F523
:103AD000277F08F11408EED1A36900221A60A368B9
:103AE000B3F85822186842F01002A3F85822B3F82D
:103AF000582242F00402A3F85822B3F8582242F0A8
:103B00002002A3F8582201221A71194A9A6205F07C
:103B100025FDA36883F82C00A268B2F8583243F060
:103B20000203A2F858326068124A036839461D68D9
:103B30002346A8470546B8B9D4E90A010022002364
:103B4000CDE906230E2303930E9B0495CDE9016373
:103B50000094094B4FF4006204F050F9A368616AC5
:103B6000C3F8000304F0AEF8284608B0BDE8F081C1
:103B700018005000A9950000AD3B000083681B7938
:103B8000012B10B504460BD1002100F083F9064942
:103B9000606905F0E9FC204605F0FCFC002010BD42
:103BA0006FF02200FBE700BF01C600002DE9F041E5
:103BB0000446406803680E469B68002115469847F6
:103BC000002843D126B12A462146E06906F031FBA0
:103BD0002046FFF7D3FF002838D11D4F1D4E1E4D44
:103BE000A06800F527704FF0FF334FF0FF3203213C
:103BF00004F052FB034630B12046184A0221BDE8CA
:103C0000F04106F08BB8A0684FF0FF334FF0FF3261
:103C100000F53B7005F0D2FC606803685B6903B196
:103C200098473A462046022105F066FC3246204677
:103C3000002105F061FC20462A46012105F05CFCCC
:103C4000A06800F53B7005F087FCC9E7BDE8F0818E
:103C500023950000BD330000C1950000D2C80000CC
:103C60002DE9F84F0446894617460E460FB9BDE8C0
:103C7000F88F102FA6EB09032B4ADFF8C0A04FF0F6
:103C800000012046B84628BF4FF0100805F0EAFCB6
:103C90000025A84533D9735D244A0021204605F04C
:103CA000E1FC0135102D22D1214ADFF890A0DFF888
:103CB00090B00021204605F0D5FC0025A8452CD960
:103CC000735DA3F120025F2A28BF2E235A460021EC
:103CD000204605F0C7FC0135102D16D1154A0021EC
:103CE000204605F0BFFCA7EB08074644BEE715F0E9
:103CF0000701CED15246204605F0B4FCC9E70E4A72
:103D00000021204605F0AEFCCBE715F00701D5D128
:103D10005246204605F0A6FCD0E752460021204638
:103D200005F0A0FCD7E700BFC2C800000CC100002E
:103D300016C10000C9C8000012C1000014C1000073
:103D4000FBC8000010B5044613460A460146064863
:103D500001F0BEFC23691B7923B12046BDE8104069
:103D600005F0A2BC10BD00BFC196000010B50B4607
:103D7000144650B90E490F4A521AB3EBD20F0FD264
:103D800001EBC3014C68204610BD816841B14A680F
:103D9000097839B11846214690472368002BF2D1A3
:103DA0000024F0E71421594354185358F6E700BF94
:103DB00048B30000B0B30000014A024905F07ABEE2
:103DC000E9C80000E3C6000059B1002981EAE172A8
:103DD000A2EBE172CCBF412342230249406905F0C6
:103DE00069BE7047F7C8000059B1002981EAE17245
:103DF000A2EBE172CCBF432344230249406905F0A2
:103E000059BE7047F7C8000010B5044605F073FEB0
:103E100028B160690549BDE8104005F04BBE04F1CA
:103E2000080005F054FE0028F3D110BD02C60000C2
:103E30002DE9F0410646054656F8084F04F12000EA
:103E4000628EA18E05F082FC3046B4F82480E78CA7
:103E500005F03DFE18B10A49686905F02BFEB8452A
:103E600007D1218C638C2846C91ABDE8F041FFF7C1
:103E7000BBBFE18CA38C2846C91AFFF7A5FFF0E76A
:103E800002C60000826802494069383205F012BE5D
:103E9000E3C60000836807B593F82E208A4212D04B
:103EA00083F82E10406989B1094B009333238DF8B4
:103EB00004302F316D238DF80510ADF806306A46B9
:103EC000044905F0F7FD03B05DF804FB024AF7E78B
:103ED0001B5B313BE3C60000F3C8000037B50D465D
:103EE00009780446FFF7D6FF6B78CBB1A26892F849
:103EF0002F10994214D045F61B31ADF80010342133
:103F00008DF8021003F12F018DF803106D21ADF82B
:103F1000041082F82F30034960696A4605F0CAFD33
:103F200003B030BDE3C60000F8B583685A8E05467D
:103F3000002A46D0988E002843D03730184403F129
:103F400038060346C41AB342A4B219460DD311F879
:103F50000179202F33D01946013B0878202804D05E
:103F600001349E42A4B21946F5D9631C4E1C121BA3
:103F70001944304606F0E4FBA9684A8E121B92B23F
:103F80004A860A440027614282F83870284609B2FE
:103F900005F0C5FD68690B4A0B4905F08BFD3946F4
:103FA0003346094A284605F0B9FE6869FFF704FF61
:103FB0006869064A0449BDE8F84005F07BBD0B4638
:103FC000C0E7F8BDEDC80000E3C60000F0C800007F
:103FD00070B504460D46164612B14069FFF7ECFE77
:103FE000A268938E3833134420460C4A002105F012
:103FF00095FE204650F8083F5A8E9A8605F067FDD8
:1040000028B106B11DB10649606905F053FD69424A
:10401000204609B2BDE8704005F081BDE3C600004E
:1040200002C6000013B583688DF80710D3F8582234
:10403000D20704461DD5998E5A8E8A4219D0481C43
:1040400098860B449DF8072083F83820A368D3F89E
:1040500058325B070BD56069094905F02BFD2046F6
:1040600005F049FD18B10749606905F023FD02B06C
:1040700010BD01220DF10701204605F05CFEF6E7B8
:10408000FBC8000002C6000083680A4A1B6810B51E
:104090000446032105F042FEA368D3F858325B07BB
:1040A00007D52046FFF7EEFE2046BDE81040FFF79B
:1040B000BFBE10BDE3C60000406810B50C460168E5
:1040C0008B60A368C1E900422BB19B6C1BB1024617
:1040D000044920469847A3689B6A0BB1204698473D
:1040E000002010BD1941000007B5094802F074FE18
:1040F000014650B10423009301231A460548FFF7F7
:10410000BFFC002003B05DF804FB6FF01200F9E77C
:10411000FEC8000018B300002DE9F04F036885B019
:1041200004461D68AB685B6C0BB128469847AB68CA
:104130005B6B002B30D02846984700282CD03C4E93
:104140003C4BDFF8F4A0DFF8F4B0F61AC6F3C9066A
:104150000027E06803A9026904F0F2FD8046002808
:104160003FD02368186883689B69002B37D042468C
:1041700003999847031E1946E068019318BF012769
:1041800004F0FAFD019B0BB19845E2D027B12368FA
:104190000020D3E901219047AB685B6AE3B1284670
:1041A0009847C8B1A068236802691E6803A904F093
:1041B00015FE0546002834D0B3685B697BB3024620
:1041C0000399304698470146A06804F028FE23680A
:1041D0000120D3E90121904705B0BDE8F08F1846D2
:1041E000C8E7DAF8003013F0060F0BD029F03F03D0
:1041F00043F0020363F3070966F38F1949465846F3
:1042000004F08AFE2368186883689B692BB1012239
:104210000DF10B0198470346B5E71846FBE7194631
:10422000D2E7304605F0E7FD2368DD60CFE700BF49
:10423000F8B20000B8B200000401002032C900004A
:104240002DE9F047054690460F4600296ED0002420
:104250003B5D202B25D0093B042B22D9DFF8D090E1
:10426000384606F03BFAAB68598D80B2001BA1EBD3
:104270000803984207EB040A15D95046002610F8A7
:10428000012B202A06D0A2F1090CBCF1040F02D8A0
:104290000A2A31D0334608EB060291422BD9013667
:1042A000EDE70134D4E753460026B04217D013F8A7
:1042B000012B0A2A04EB06091BD1686905F0F4F901
:1042C00032465146284605F0CAFC1949686905F08E
:1042D000E2FD4146284609F10104FFF785FD391941
:1042E000686905F0D8FD68691149BDE8F04705F037
:1042F000D2BD0136D9E71E46686905F0D5F93246C8
:104300005146284605F0ABFC34443B5D202B0BD0D6
:10431000093B042B08D94946686905F0BCFD4146B4
:104320002846FFF761FD9BE70134EEE7BDE8F08723
:1043300002C600002DE9F04F866800218DB00546C9
:1043400008360C4607AA304601F10108FFF70EFDBA
:10435000074698B97CB10146204ADFF88CA0284670
:1043600005F0DCFC39461E4F07AA304601F1010971
:10437000FFF7FCFC60B90DB0BDE8F08F386810B1F4
:1043800006F0ACF980B2844238BF04464146D9E712
:104390000368D0F804801248059306F09FF9059B46
:1043A00083467BB1CDE9013700943B460D4A00219D
:1043B000284605F0B3FCB8F1000F05D151466869F5
:1043C00005F069FD4946CFE7621C02EB4B0292B251
:1043D00041462846FFF734FFF4E700BF4BC9000011
:1043E00063C9000059C9000002C60000836873B5A4
:1043F00005469868C8B106F071F984B20C4E304693
:1044000006F06CF9AB68009604449B68094A28469C
:10441000002105F083FCAB68A4B2D9682246284687
:1044200002B0BDE87040FFF70BBF0446E6E700BFEF
:1044300047C90000CDC8000038B5074D074A0446FB
:104440002946406905F06EFD6069054A294605F078
:1044500069FD002038BD00BFE3C600006CC9000044
:1044600070C9000010B50446044A0549406905F0CA
:1044700059FDA368034A9A62002010BD75C9000067
:10448000E3C600001800500008B58369034A1B68A2
:10449000002105F0E7F8002008BD00BFA4CB000014
:1044A00010B5064A0446002105F0DCF82046044A0F
:1044B000002105F0D7F8002010BD00BFB3C90000EF
:1044C000A2CA0000F0B5104F85B004460025A268CE
:1044D000E0680DF10E0302F59C72012105F044FD28
:1044E000BDF80E00A36858B103F59C7300936E1CD1
:1044F0002B463A460021204605F0B4F83546E6E75B
:1045000083F8380105B0F0BDFDBE0000022907B5F3
:104510000CD1536801930D4B009313680C4A05F0BE
:10452000A1F86FF0150003B05DF804FB8368094A39
:10453000D3F8583213F0040F4FF00001064B18BFA8
:104540001346064A05F08EF80020ECE788C9000003
:104550007FC9000070BC00007BC900009DC900003D
:10456000F0B5012985B005460DD053680193534B32
:1045700000931368524A022105F074F86FF0150495
:10458000204605B0F0BD4F4A4F49406905F0CAFCCE
:104590006FF0F9012846FFF717FCFA212846FFF7CC
:1045A00023FCA86800244FF48072214600F59C701B
:1045B0008DF80B4006F005F94449686905F0B2FC36
:1045C000686905F071F84FF47A766868036801222B
:1045D0001F690DF10B0103ABB847039B53B9013EB3
:1045E0004FF47A70B6B206F0DEFB002EEDD16FF01C
:1045F000220431E09DF80B30AA681B2B53D092F8AF
:1046000038111B29E1D1522B4DD11444002384F8D9
:10461000383192F839115B294DD102F59D701F4652
:10462000022610F8011B01363B29B6B226D1B6F599
:10463000807FDCD006F59C701044002310F8014BFD
:1046400034BBFA2B28BFFA23FA2F53853B4628BFE9
:10465000FA2382F8384113851D4A1B49686905F021
:1046600061FC002C8CD0AB681A4A9A6204211A4A69
:10467000284604F0F7FF6FF0070481E707EB870394
:1046800001EB4303303BB6F5807F9FB2C9D1AEE763
:1046900003EB8303013604EB4304B6B2303CFF2E38
:1046A000A3B2CBD9A3E711190134A4B2092C81F824
:1046B00038318AD9002382F8383198E788C9000058
:1046C0007FC9000066C90000E3C60000AEC9000053
:1046D00069C90000180050006ACB00002DE9F04FB6
:1046E000824689B015468B4621B90324204609B07D
:1046F000BDE8F08F104605F027FE0028F5D0002613
:104700003146022422E04C463BE0294607F59C70E6
:1047100005F09CFF804600284CD005F0DFFF82B2F8
:10472000601C01324146404406F00AF822464946E0
:10473000404606F01CF84FF0200308F80430FB8ECA
:104740001C440134FC860136002401994B1C03AA49
:1047500058460193FFF70AFB8046F8B10022D8F8CB
:104760000010284604F07DF80028EED1D8F800901B
:10477000DAF80870B9F1000FC5D0484605F0AEFF71
:1047800084B2FB8E01332344B3F5807FBDDD2B461D
:10479000094A0421504605F0C1FA0124002EA5D093
:1047A000DAF808002A4600F1360100F59C7005F0A1
:1047B000ABF89BE70224F1E787CF000010B507486C
:1047C000074C02F009FB074B1860204601F044FC3F
:1047D0002046FDF73FF9002010BD00BFFEC80000D5
:1047E000E9470000D80600200A2838B50446074DDE
:1047F00004D1286883680D215B689847286883681E
:10480000E1B25B689847204638BD00BFD80600205B
:10481000F8B5124DEB680C2404FB00340123064666
:1048200063724FF02003EFF3118183F31188BFF31C
:104830006F8F23682BB160681A682260834208BFBB
:10484000626081F31188BFF36F8F03B9F8BDD3E9BC
:10485000017231462846B847E3E700BF94000020C4
:10486000154B07B51A6882B14FF08042D2F8042385
:10487000D1070AD500221A601B680093009B0F4BDA
:10488000DB68587A08B9FFF7C3FF0D4B1A6882B18D
:104890004FF08042D2F8042392070AD500221A6012
:1048A0001B680193019B012003B05DF804EBFFF747
:1048B000AFBF03B05DF804FB00010040940000208E
:1048C00004010040821C084B22F07F42C3F84025BF
:1048D000D3F80425904200D17047D3F80405821C18
:1048E00022F07F42F2E700BF00100140044B00229B
:1048F00082B01A601B680193019B02B0704700BF31
:104900004011014008B5FFF7F1FF074B074AD3F804
:1049100040051368C01A20F07F4003441360BDE8CF
:10492000084003F0B3BB00BF00100140F4060020B4
:1049300038B5144802F050FA00B38368124D1B6872
:10494000012100249847C5F80845FFF7CFFF0F4B1A
:104950004FF40032C3F880214FF48033C5F804339C
:1049600022460121112000F009F9112000F0F6F88B
:10497000074A0123136020462B6038BD4FF0FF30FB
:10498000FBE700BFDFCF00000010014000E100E0C6
:104990000810014070B52A4B2A4C1968D4F8042538
:1049A000294D521AB0F1FF3F08BF284622F07F433D
:1049B000120234D4013820EAE070A842A8BF284689
:1049C00001334FF480361844C4F80863A84294BFFA
:1049D0000D184D19D4F80405D4F84015FFF786FFDB
:1049E000091A21F07F4120F07F430129C4F84035A6
:1049F000C4F8446304D10F2006F0D5F9FFF776FF21
:104A0000124B4FF40032C3F88021D4F804052B1A5E
:104A100023F07F43012B04D1FFF754FF0BE000206C
:104A2000CEE725F07F43C4F84035D4F804052D1AAD
:104A3000023D2B02F0D44FF48033C4F8043370BD30
:104A4000F406002000100140FFFF7F0000E100E0BD
:104A50004FF02002EFF3118382F31188BFF36F8FC1
:104A6000064AD2F80405064A1268801A20F07F40F0
:104A700083F31188BFF36F8F704700BF00100140B0
:104A8000F40600204FF02003EFF3118283F3118826
:104A9000BFF36F8F0649074B0868D3F8043582F3DC
:104AA0001188BFF36F8F1B1A23F07F4318447047A0
:104AB000F4060020001001400A4A0B499368096877
:104AC000C3F8A4100949C3F8A0004B6843F0805311
:104AD0004B60002383F31188BFF36F8F9368D3F883
:104AE000A400704794080020DCBB000000ED00E04B
:104AF00010498A684FF030001044EFF3098C80E8C9
:104B0000F01F202080F31188BFF36F8F0A4F4FF002
:104B100000664A6A8A603E60D2F8A0000023C2F8AC
:104B2000A03080F3118802F1300090E8F01F8CF380
:104B3000098870479408002004ED00E01EF0040F7F
:104B40000CBFEFF30880EFF30980816911F8021CB4
:104B50000229FFD001B505F0F8FC01BD43B2002BDE
:104B600008DB012200F01F0002FA00F05B09024A94
:104B700042F82300704700BF00E100E043B2002B81
:104B8000A8BF03F1604301F101014FEA4111AEBF3B
:104B900003F5614300F00F00034BC9B2ACBF83F8CB
:104BA00000131954704700BF14ED00E02DE9F041E7
:104BB0000E4605468C183046AA211746984605F041
:104BC00000FEA4F1200222F00702069B0A49C5E973
:104BD00025675360079B9360089BD3604FF08073F9
:104BE000D36121F0010100239161C2F800802A65A0
:104BF000C5F8A030BDE8F081A98B0000F8B50646E5
:104C00000C4617461D4600F089FC094B3C4424F035
:104C100007049E60284684F30988002163B681F367
:104C20001188BFF36F8F0022002303F0BDFF00BF88
:104C300094080020014910220A60704710ED00E03E
:104C400072B6404080F31188BFF36F8FBFF34F8F70
:104C500030BF62B6BFF36F8F704700BFF7B506462F
:104C60000C46002945D0264F3B68580741D0012209
:104C70004FF0000362F30703224D234A2348AD1A85
:104C8000C5F3C90565F38F13ADF80030D1E90123F1
:104C9000096804F07AF93B6859072AD001224FF0DD
:104CA000000362F3070365F38F13ADF80030D4E916
:104CB0000423E168164804F068F93B685A0718D0E5
:104CC00001234FF0000263F3070265F38F12E169DD
:104CD000104804F02EF93B685B070AD04FF0000241
:104CE000012363F3070265F38F12A1690A4804F0F8
:104CF00020F92146304603B0BDE8F04002F0B8B8D4
:104D0000F8000020E0B20000B8B2000009D00000B6
:104D100038D0000067D0000076D0000030BFFFF729
:104D2000FDBF00BF0E4A08B50E4B22F07F029A600D
:104D3000BFF34F8FBFF36F8FD3F8882022F4700238
:104D4000C3F88820EFF3148323F0040383F314885B
:104D500002F02EF902F036F900F0ACFB02F064F933
:104D60000010000000ED00E001B572B60B4A106AB9
:104D700000281EBF0021116205F0B9FE62B6EFF3F4
:104D80000580A0F110004FEAC0000549014409C99F
:104D90009847BDE8014003490847000094080020F7
:104DA00038B100009954000005F0B4FD202080F3D4
:104DB00011880B484FF0AA014FF4006205F001FD85
:104DC00007484FF40061401880F30988EFF314801E
:104DD0000221084380F31488BFF36F8FFFF7A2FF0F
:104DE000201C0020EFF30880EFF30981724601B523
:104DF00000F03AFA01BD00BF10B54C4C23685B07C8
:104E00000DD001234FF0000163F30701484A494BDD
:104E100049489B1ADB0863F38F1104F07DF8474B78
:104E20009B6A980110D5236859070DD001234FF0D4
:104E3000000163F307013E4A3E4B41489B1ADB08E1
:104E400063F38F1104F068F83C4B9B6ADA0110D5CC
:104E500023685B070DD001234FF0000163F30701C6
:104E6000334A344B37489B1ADB0863F38F1104F045
:104E700053F8324B9B6A180310D5236859070DD09D
:104E800001234FF0000163F30701294A294B2E4803
:104E90009B1ADB0863F38F1104F03EF8274B9B6AE3
:104EA0005A0310D523685B070DD001234FF0000192
:104EB00063F307011E4A1F4B24489B1ADB0863F368
:104EC0008F1104F029F81D4B9B6A980310D52368B5
:104ED00059070DD001234FF0000163F30701144A75
:104EE000144B1B489B1ADB0863F38F1104F014F872
:104EF000124B9B6ADA0310D523685B070DD00123A0
:104F00004FF0000163F30701094A0A4B11489B1A4D
:104F1000DB0863F38F1103F0FFFF084A936A6FEA1F
:104F200003436FEA13439362002010BDF800002092
:104F3000B8B20000E0B2000004D2000000ED00E0D2
:104F40001CD200002FD2000049D2000067D200001E
:104F50008CD20000A6D2000070B5514C23685B07CC
:104F600006460D460DD001234FF0000163F3070103
:104F70004C4A4D4B4D489B1ADB0863F38F1103F0ED
:104F8000CBFF4B4B9B6AD80610D5236859070DD031
:104F900001234FF0000163F30701424A424B4548A9
:104FA0009B1ADB0863F38F1103F0B6FF404B9B6A3B
:104FB0001A0710D523685B070DD001234FF00001BD
:104FC00063F30701374A384B3B489B1ADB0863F30E
:104FD0008F1103F0A1FF364B9B6A98072CD52368ED
:104FE00059070DD001234FF0000163F307012D4A4B
:104FF0002D4B32489B1ADB0863F38F1103F08CFFB3
:105000002B4B596B9B6A1A0616D523685B070DD08C
:1050100001234FF0000263F307022248224B1B1AC0
:10502000DB0863F38F12264803F083FF26B1204A82
:10503000936A23F0800393621D4B9B6AD80710D5B7
:10504000236859070DD001234FF0000163F30701D6
:10505000144A154B1B489B1ADB0863F38F1103F0AE
:105060005BFF134B9B6A9A0610D523685B070DD034
:1050700001234FF0000163F307010A4A0A4B12486B
:105080009B1ADB0863F38F1103F046FF084B9A6A03
:105090009A6A002042F0FF029A62287070BD00BF39
:1050A000F8000020B8B20000E0B200002CD10000EF
:1050B00000ED00E042D1000075D1000088D1000071
:1050C000A0D10000B6D10000D5D1000070B55A4C77
:1050D00023680D46590706460DD001234FF0000105
:1050E00063F30701554A564B56489B1ADB0863F396
:1050F0008F1103F011FF544B9B6ADA0410D523681B
:105100005B070DD001234FF0000163F307014B4A09
:105110004B4B4E489B1ADB0863F38F1103F0FCFEE8
:10512000494B9B6A180510D5236859070DD00123F8
:105130004FF0000163F30701404A414B44489B1A7A
:10514000DB0863F38F1103F0E7FE3F4B9B6A9A0580
:105150002CD523685B070DD001234FF0000163F3CA
:105160000701364A364B3B489B1ADB0863F38F1125
:1051700003F0D2FE344B996B9B6A180416D5236852
:105180005A070DD001234FF0000263F307022B48AA
:105190002B4B1B1ADB0863F38F122F4803F0C9FE59
:1051A00026B1294A936A23F400439362264B9B6AF3
:1051B0005B0510D523685E070DD001234FF0000179
:1051C00063F307011D4A1E4B24489B1ADB0863F357
:1051D0008F1103F0A1FE1C4B9A6AD00518D52368E5
:1051E00059070DD001234FF0000163F30701134A63
:1051F000134B1B489B1ADB0863F38F1103F08CFEE3
:10520000114A936A002043F47F439362287070BD73
:105210009B6A9A04F4D523685B07F1D001234FF011
:10522000000163F30701054A054B0E489B1ADB0892
:1052300063F38F11E2E700BFF8000020B8B200006E
:10524000E0B20000A4D0000000ED00E0BAD0000001
:1052500075D10000CBD00000E4D00000F9D00000F0
:1052600014D10000D5D100002DE9F041774B5F68E3
:105270008AB0C7F308044FF0000888F31188BFF321
:105280006F8F02F07F43B3F17F4F16D102F00C0312
:10529000082B14D16E4B1D6815F0070523D0012390
:1052A0004FF0000163F307016A4A6B4B6B489B1A8E
:1052B000DB0863F38F1103F02FFE464605E0150768
:1052C0004EBF0E4606464FF0010800238DF807300A
:1052D000E31E092B00F29A80DFE803F0077D817955
:1052E000989898989885A846E7E7594F3B685907DA
:1052F0000DD001234FF0000163F30701554A564BCF
:1053000057489B1ADB0863F38F1103F005FE4F4BE0
:10531000DA6A002492078DF807402DD53B685D07B7
:1053200001D100240DE001234FF0000163F30701D8
:10533000484A494B4B489B1ADB0863F38F1103F033
:10534000EBFD9DF80730A3B92022314602A805F0F5
:105350000EFA099BB8F1000F73D0C3F3080222B90B
:105360006FEA53236FEA4323099302A92046FFF70C
:1053700075FC0AB0BDE8F081DB6A5800D1D53B6806
:1053800059070DD001234FF0000163F30701314AA3
:10539000314B35489B1ADB0863F38F1103F0BCFDDA
:1053A000324B1B782BB10DF107010120FFF7D4FD23
:1053B0000FE02F4B1B782BB10DF107010120FFF7F8
:1053C00085FE06E02B4B1B889BB2002BA9D0FFF774
:1053D00013FD0446B5E70DF107010020E6E70DF1E6
:1053E00007010020EBE71A4B1B685A0799D00123ED
:1053F0004FF0000163F30701164A174B1E489B1A32
:10540000DB0863F38F1103F087FD8AE7104B1B68FD
:105410005B0786D001224FF0000362F307030E49B9
:105420000C4A1648891AC90817F4F87F61F38F13DC
:10543000A4F11002124918BF0146124803F08DFD75
:105440006FE723F4FF7323F001038DE700ED00E025
:10545000F8000020B8B20000E0B20000D1D2000095
:10546000FCD2000013D3000034D3000028ED00E08C
:1054700029ED00E02AED00E053D300009ED30000A8
:1054800089D30000B7D30000024A536943F01003E8
:105490005361704700ED00E0044B9968586A8842F8
:1054A00003D003494FF080520A60704794080020EF
:1054B00004ED00E0044800232021C2180133302B02
:1054C00082F80013F9D1704700E100E038B50546D5
:1054D0004FF02003EFF3118483F31188BFF36F8F34
:1054E00002F0C4F9284602F0CFFB0A4B9B68AB429E
:1054F0000BD1094B5A68C2F3080212B92046FFF7D4
:10550000DBFA5A6842F080525A602046BDE83840C3
:1055100005F068BB9408002000ED00E01FB5084BC3
:105520000193084B0293084B039301AB0093074A86
:10553000074B0121684600F0C1F805B05DF804FB97
:10554000000000200000000000000B06000000200A
:1055500000000420F8B5334F0E460021B14211DAA5
:1055600050F821C0DCF80440002C58D09BB104F165
:10557000FF3E14EA0E0F07D02B4B1B685A0730D1A1
:105580006FF015021046F8BD1F2CF5D9DCF800505D
:105590001EEA050FF0D1202CD5B2DCF80020DCF893
:1055A00008C02DD9B4F1004F2CD8013CB4FA84F4D2
:1055B000C4F11F046400072D4CEA040424D91A4BDB
:1055C0001B685B07DCD001234FF0000263F3070286
:1055D0001649174B17485B1ADB0863F38F122946ED
:1055E0000BE001234FF0000263F307020F48104B5A
:1055F0001B1ADB08104863F38F1203F09AFCBFE715
:105600000824D8E73E24D6E722F01F022A4342F0BE
:10561000100244F00104BD60FA603C616A1C013173
:105620009CE700BF90ED00E0F4000020B8B200005D
:10563000D8B20000F1D30000CED30000034B052206
:105640005A60BFF34F8FBFF36F8F704790ED00E04C
:10565000BFF35F8F014B00225A60704790ED00E06E
:1056600013490868082810B51ED8FFF7F1FF114C40
:1056700049680022904201F10C0105D10E4B1870CF
:10568000FFF7DCFF002010BDA26051F80C3C23F0B6
:105690001F03134343F01003E36051F8043C43F04D
:1056A000010323610132E5E74FF0FF30EBE700BF74
:1056B00018BB000090ED00E0D50B002010B5034CA6
:1056C00001232278FFF746FF207010BDD50B002084
:1056D0002DE9F04FA3B0CDE902011E46002301934E
:1056E000134613F8010B089358B1252800F0858064
:1056F0000399029B9847013040F019844FF0FF3323
:105700000193019823B0BDE8F08F232C6CD061D8B1
:10571000002CF6D0202C0E9B08BF01230E93CDF851
:105720002080DDF82080B74818F8014B214604F0AE
:10573000C7FF0028E9D12A2C66D156F8043B09930B
:10574000002BBFBF5B42099301230F93089B98F87E
:10575000004003F102082E2C7BD198F800302A2B50
:1057600074D156F8045B08F1010818F8014BA648FB
:105770002146274604F0A4FF00286DD04346682F39
:1057800013F8014B089307D1682C05D108F10203E7
:1057900098F8014008934827672C7BD8652C80F047
:1057A0003581472C5CD8452C80F03081002CA8D066
:1057B000252C00F0B8830399029B252098470130DF
:1057C0009CD00399029B20469847013096D0019BBC
:1057D0000233AEE32D2C0AD0302C0BD02B2C0B9B9C
:1057E00008BF01230B939AE74FF0010B97E70123C2
:1057F0000F9394E701230A9391E700230A930E93F2
:105800000B930F939B468CE7A4F13003092B09906F
:10581000A1D80A22DDF8208018F8014BA4F130034A
:10582000092B98D8099B02FB0344A4F13003CDE96E
:105830000883EFE701FB0535303D9046424612F8FC
:10584000013BA3F130000928F4D98EE700250A2195
:10585000F4E74FF0FF358AE7CDF8208007469BE755
:10586000632C59D020D8582CA5D16F2C06F10409EF
:10587000316840F02783BBF1000F00F0168330231E
:105880008DF86C30002940F01A838DF86D100F46AA
:10589000012625E0702C00F0F48227D86E2C00F051
:1058A000DD82E2D8692C86D13768002F06F1040921
:1058B00080F29A802D238DF86C3079420DF16D06BF
:1058C00030460A2204F09FFF0B9B06441BA8361AA1
:1058D000002B40F031830E9B002B40F02D83FF0FF7
:1058E000002D21DA0025AB46A846E1E0752CBCD09E
:1058F000782CBAD0732C7FF45EAFB146002D59F8E6
:10590000043BB8BF6FF000450026B54240F0C882A6
:105910002E4600252F4608E0B146002759F8043BE3
:105920008DF86C3001263D461BABEA190025921B11
:10593000AB46A84622EAE27291190691099990199C
:105940000C1A0F9911B9002C00F3138303EB070A0B
:10595000534540F0138312F1FF3280F01D83F61B94
:10596000B8F1000F11D09AF800000AEB0607A0F179
:105970003003092BA7EB0A0640F21983474617F1BB
:10598000FF3780F01D83A6EB0806BBF1000F15D092
:105990000AEB06071AF8018B0399029B40469847C9
:1059A00001303FF4ABAEB8F12E0FA7EB0A06F1D1F0
:1059B0005F46002F00F30D83A6EB0B0695B19AF816
:1059C00000000AEB0607A0F13003092BA7EB0A063B
:1059D00040F20A832E2800F007832F46002F00F3A1
:1059E0000C83761B56441BE30B9B23B12B238DF8B2
:1059F0006C30394662E70E9B0BB12023F7E739463E
:105A00001BAE5DE717D400001DD4000006F10709A6
:105A100029F00709F9E80223D80240EA5250D602D9
:105A200020F0004004960590DDE90467002AC3F3E6
:105A30000A5173F10003CDE9166741DA2D238DF881
:105A40006C300DF16D0740F2FF73994253D1DDE9DF
:105A500004120A43A4F1410407F1030340D1192CB5
:105A600038D849223A704E227A70462200251BAE61
:105A7000BA70FD709B1BAB46A8460B9A002A40F0FB
:105A8000EB810E9A002A40F0E7819DF86C70A7F137
:105A90002D025742574105EB0806334403EB0B0632
:105AA00022AB3B4413F81C3C303B092B00F24882EC
:105AB0000A9B002B00F04782099B9A1B1BAB39E71E
:105AC0000B9B0BB12B23BAE70E9B0BB12023B6E740
:105AD0001BAFB8E769223A706E227A706622C5E77A
:105AE000192C99BF4E2241216E22612194BF3A7038
:105AF0003A707970BAE7049B05980B431093CB1763
:105B000003431193DDE91023462C08BF6624134399
:105B100000F01181002900F09B80179B43F00043A7
:105B2000A1F2FE381793002618F1020FC0F2A480EC
:105B3000B8F1000F00F3DD8016A808F1010804F0A9
:105B400084FEB8F1040FF7D1002D04F0DF03B8BFD5
:105B50000625472B40F0F880F11C02DBAE4240F3F3
:105B6000ED80023CE4B2002D00F0F480013DBBF179
:105B7000000F40F0EF80002DD4BF4FF0000A4FF02F
:105B8000010A662C40F0E88016EB050840F1EC8035
:105B90001023159366244FF0000800224FF0006395
:105BA000CDE9182318F1FF3880F0E080169B189A91
:105BB00019999B18179A41EB0202CDE9163202F0AF
:105BC0007043129300231393DDE91223134306D08D
:105BD00016A804F04CFE16A804F037FE0136662C19
:105BE00040F0E180002E40F3C880159B002B07DDBC
:105BF00015A916A804F067FE013E07F8010BF4D1C1
:105C0000B0463B460026BBF1000F01D1002D15DD4B
:105C10002E2203F8012B002E00F0C080002D40F34F
:105C2000BF80C6F1000BAB45A8BFAB46A5EB0B058B
:105C3000002D03DD159A002A00F3A680BAF1000FAB
:105C400040F0C68000221BAE1A709B1B15E701397D
:105C5000049BDB180493059B5B410593DDE904235A
:105C6000002A73F10003F2DADDE90423CDE91623FB
:105C700053E716A804F0E9FDDDE916EC0023CDF8A2
:105C800030C00D93DDE90C23BB480021994208BFC9
:105C9000904208F10108ECD30520AEFB0023CDE9CA
:105CA0000623079B00FB0C330793DDE90623CDE9B0
:105CB0001623013E4FF0000C0798002100236FF0DF
:105CC00000428B4208BF824208D2BCF1000F3FF471
:105CD0002BAFDDE90623CDE9162325E7069BDB186C
:105CE0000693079B5B41079308F1FF384FF0010CC7
:105CF000E2E716A804F0BBFDDDE916AE08F1FF38B7
:105D000001364FF0000C002300216FF00040994253
:105D100008BF704506D2BCF1000F3FF409AFCDE9D2
:105D200016AE05E71AEB0A0A4EEB0E0E08F1FF3825
:105D30004FF0010CE7E70026B046FDE6AD1BBBF1D6
:105D4000000F04D1662416E74FF0000A19E74FF060
:105D5000000A19E74FF0000A05F1010810239845E1
:105D60001593A8BF984618E76624F7E718A804F02B
:105D70007EFD18A804F069FD14E73B46302203F8C5
:105D8000012B4FF000083EE715A916A8069304F072
:105D90009AFD069B013D03F8010B49E7B34647E72F
:105DA0004FF0000B4AE715A916A804F08CFD302827
:105DB000387018BF06F1FF36BBF1000F37D1002D48
:105DC00035DC7B1CBAF1000F43D04FF0000BD846F6
:105DD0001A4613F8011D3029FAD02E2918BF134690
:105DE000002504F0DF02452A7FF42CAF002E19466F
:105DF000BABF76422D222B22632E01F8024B5A7035
:105E000008DD642096FBF0F202F13004D91C9C708E
:105E100000FB12660A200B4696FBF0F200FB1266AE
:105E200002F13004303603F8024B4E700AE72E229E
:105E3000BB1C7A70002DC5DD159A002AC2DD15A99C
:105E400016A8069304F03FFD069B013D03F8010BE5
:105E5000F0E7D346D046C4E701271CE6B146682FD9
:105E600059F8043B05D001DC482F07D0019A1A608D
:105E700001E0019A1A804E46089A31E4019A1A709C
:105E8000F9E7B14647F63003102259F8041BADF884
:105E90006C300DF16E0004F0B6FC0227861C1FE585
:105EA0009A5D002A4AD001362FE51BAC0822204615
:105EB00004F0A9FC1BAEA61B0644002710E50DF15B
:105EC0006D04F3E7752C05D10A221BA804F09BFC96
:105ED0000646F2E7BBF1000F12D047F63003ADF8EB
:105EE0006C300DF16E081022404604F08CFC582CEA
:105EF00009D01BAEA8EB060606444FEA4B07EFE4B9
:105F00000DF16C08EFE71BAA12F8013BA3F1610148
:105F1000192903D8203B02F8013CF5E712F8013CAF
:105F2000002BF1D1E5E703992046FFF7E2BB019B87
:105F300001330193B1469EE70127D1E41546E9E418
:105F40001BAB0022F8E41BAB0A9AF5E4CDE9093259
:105F50000399029B202098470130DDE909323FF484
:105F6000CDAB1AF1FF3AF1D2019921440191544687
:105F7000ECE4A246F5E700BF3233333313F8010BEC
:105F800009930399029B0A9298470130DDE909328F
:105F90007FF4DEACFFF7B2BB0399029B099230207D
:105FA00098470130099A7FF4D6ACFFF7A7BBDDE92B
:105FB0000231984701303FF4A1AB1AF8010FD6E443
:105FC0000399029B3020984701307FF4D8ACFFF74B
:105FD00095BB0399029B30209847013007F1FF37AA
:105FE0007FF4E7ACFFF78ABBDDE902319847013067
:105FF0003FF484AB1AF8010FE5E40399029B3020CB
:106000009847013007F1FF377FF4E8ACFFF776BB24
:1060100003991AF8010B029B984701303FF46EABCD
:10602000A6EB0A03002BF3DC019B069A002C134419
:1060300001937FF720AF254606E00399029B2020BD
:10604000984701303FF45AAB15F1FF35F5D2019B6B
:10605000234401930FE700BF014B1860704700BF56
:106060007C0000200EB40FB505AB6FF0004153F873
:10607000042B029003910648019302A9FFF728FB25
:10608000029B00221A7004B05DF804EB03B0704765
:10609000FBA800002DE9F74FD0E90067002E77F14B
:1060A00000038A4680F2AA806648674A30184FF09B
:1060B000000347F1FF31FBF723F8644B044603FB71
:1060C00000660D4624220021504604F07AFB6FF052
:1060D000030294424FF0FF3375EB03034FF00702C6
:1060E0004FF00003C0F28F80201D45F10001FBF747
:1060F00007F8574BCAF8182014EB03084FF00003B9
:1061000045EB0309B8F1000F79F1000380F28280BA
:106110005048514A20184FF000014FF0000345EB62
:106120000101FAF7EDFF4D4B03FB008848F6AC6226
:10613000B8FBF2F2424440F2B457B8FBF7F3D21A7C
:10614000474BB8FBF3F3D21A4FF4C8738C46A0FB4D
:10615000030103FB0C1148F69463B2FBF3F34344D1
:1061600040F26D14B2FBF7F7DB1BB2FBF4F510EB5A
:10617000050B04FB153341F1000C03EB8307992158
:106180000237CDE900BCB7FBF1F403F1010C614328
:1061900002314FF0050EB1FBFEF1ACEB010140F214
:1061A000F95C6745009894BF03276FF008073C44EB
:1061B000A0F26C70022C98BF0130013CB3F5997FBE
:1061C000CAF81400CAE9031429D3A3F599734FF44C
:1061D0006162CAF81C30B6FBF2F302FB13663C2284
:1061E000CAF808305046B6FBF2F302FB1366CAF851
:1061F0000430CAF8006003B0BDE8F08F124A0023F3
:106200003046394657E7601D45F10001FAF778FF3F
:1062100006326EE7104A00234046494681E7A90747
:1062200005D16420B5FBF0F100FB11553DB9B2F585
:10623000B67F8CBF002201223B331344C7E7012203
:10624000FAE700BF81AEFEFF8051010080AEFEFF85
:106250006CFA0A00BCBF0800B13A02004FC5FDFF4E
:10626000B03A020001282DE9F84F884609D00428E9
:106270003ED000F0D5FD162303604FF0FF30BDE89F
:10628000F88F1E4BD3E90045D3F8089004F0E1FDE8
:106290004FF47A73A0FB036703FB01774FF0FA72A8
:1062A000002330463946FAF77BFF14EB000A45EB32
:1062B000E07BF00BC8E900AB4FF47A72002340EAB0
:1062C0004740F90BFAF76CFF0D4B03FB02920D4BA5
:1062D000C8F808209A4209D91AF101014BF10003CC
:1062E000C8E90013084B1344C8F808300020C6E77B
:1062F0004FF0000900240025C8E700BFE00100209E
:1063000040420F00FFC99A3B003665C44FF020039E
:10631000EFF3118283F31188BFF36F8F06490123D6
:10632000C1F840354FF08041C1F8783582F31188CB
:10633000BFF36F8F0020704700E0014020B1034B96
:10634000800143F001031847704700BFB0B300005D
:1063500008B5094B1A786AB9012119700620052180
:10636000FEF70CFC0620FEF7F9FB044B4FF0004251
:10637000C3F80423002008BDD60B002000600040B5
:106380002E4B1340B3F5801FF0B5466846D007D8B2
:10639000022B45D0062B13D093B16FF015003CE0D3
:1063A000B3F5800F3ED004D825488342F5D10723AA
:1063B00006E02448834237D0B3F5A00FEDD1032384
:1063C000D00654BFC2F34015032582F480749705AC
:1063D000C2F34020C4F3002407D512F4006F77689D
:1063E00024D001228A40C7F80825327A01F01F0123
:1063F00041EA42111F2940EA4400C8BF01F01F01D1
:1064000040EA0323CCBF104A4FF0A04201F5E071EF
:1064100043EA850342F821300020F0BD0123CFE795
:106420000423CDE70223CBE70523C9E7520542BF8A
:1064300001228A40C7F80C25D7E700BF0600F0000C
:106440000600100002004000000300501F2886BF15
:10645000074B00F01F004FF0A04303EB8003D3F87D
:10646000002722F4403242EA0142C3F80027704775
:1064700000030050F7B54368C7681B7A01F01F0599
:106480000E464A49D1F8042345EA4315D2B2002307
:1064900003F5A27051F82000C0F3052085426BD1AE
:1064A00022FA03F0C00767D59A0002F1804202F594
:1064B000C042D2F8100520F00100C2F810050122F8
:1064C00002FA03F3C1F8083328460021FFF7BEFFA4
:1064D000F868F04010F001004CD03869F04010F03E
:1064E000010047D0B869F04010F0010450D0FB69BA
:1064F000F340DB0744D47B6923FA06F616F0010F5C
:1065000014BF01260226294C002101F5A27354F87C
:10651000230010F0030035D18B0003F1804303F515
:10652000C0432D02D3F8102522F44F3222F44072DA
:10653000C3F81025D3F8102505F47C5545EA064527
:10654000154301F14002920092B202F1804202F53D
:10655000C042C3F81055106012680192019AD3F836
:10656000102542F00102C3F81025012303FA01F1BE
:10657000C4F8041303B0F0BD0133082B88D1A3E79E
:106580000326C0E701310829BFD16FF01200F1E7FF
:106590007B6923FA06F616F0010F28460CBF03218B
:1065A0000221FFF753FF2046E4E700BF00600040F0
:1065B000B2F5A03F70B4C46816D145682E7A01F0D8
:1065C0001F0545EA46151F2DC6BF05F01F051E4EC7
:1065D0004FF0A04605F5E07556F82550ED0707D5B4
:1065E0006FF0220070BC7047B2F5005FE56826D0FE
:1065F0000125E6688D4035432669E56001258D401B
:10660000B2F5005F14BF2E43AE432661A669B2F512
:10661000A03FE2690CBF2E43AE43B3F5C02F0CBFC1
:106620002A43AA43E2616269A661B3F5802F0CBFD9
:10663000154322EA0505656170BCFFF71BBF012603
:106640008E4025EA0605D7E700030050F0B5002686
:1066500085B0CDE90266284D2C685CB1274804F06E
:10666000C1F90290264804F0BDF903902E602B6812
:106670000093009B234D002201269446D5F8043355
:1066800006FA02F119421DD0910001F1804101F595
:10669000C2410B68B3B102F5A27304AF55F82330C1
:1066A000C1F800C0C3F3403007EB8000C3F30423FC
:1066B00050F8087C06FA03F33B4340F8083C0B68AB
:1066C0000193019B0132082AD8D1029911B10B48DC
:1066D00004F074F9039911B1094804F06FF944B159
:1066E000064804F0B6F9064805B0BDE8F04004F0ED
:1066F000B0B905B0F0BD00BF7C610040C40000200F
:10670000D400002000600040054B1B682BB9054BEE
:106710001878003018BF012070470120704700BF73
:106720001C210040D70B0020024BD3F88004C3F893
:106730008004704700200040024B0422C3F8042369
:10674000704700BF00200040024B0422C3F808231A
:10675000704700BF00200040024B1868003018BF8F
:106760000120704708210040024B4FF40072C3F82B
:106770000423704700200040024B4FF40072C3F81E
:106780000823704700200040024B1960024B1A603A
:10679000704700BF380700203C070020034B8022D1
:1067A000C3F808230122DA6004F097B90020004002
:1067B00008B504F091F90D4B01221A608022C3F84C
:1067C000FC224FF02002EFF3118382F31188BFF314
:1067D0006F8F074A12781AB1064A0421C2F80011D5
:1067E00083F31188BFF36F8F08BD00BF08200040FE
:1067F000D70B002000E100E008B50C4BD3F80423D0
:1068000012F0800F1A4605D1D2F8040310F00400EC
:1068100006D108BDFFF778FF0028F5D00120F8E782
:10682000034B1868003018BF0120F2E70020004039
:106830000821004070B54B79012B25D0032B20D1C6
:1068400010268B79032B1CD1CC7924B1012C18D1C3
:1068500043681B78ABB10A7912B1022A11D10E221A
:106860000B6847F61225AB4262D029D8B3F5965F84
:1068700061D014D8B3F5167F5FD007D8B3F5967FF3
:106880005ED06FF0220052E00026DAE7B3F5966F93
:1068900059D0B3F5166FF4D14FF41D233BE0B3F597
:1068A000615F53D004D8B3F5165FEAD1304B32E0C4
:1068B000B3F5964F4DD0B3F5E14FE2D12D4B2AE021
:1068C000B3F5E13F47D011D84DF6C025AB4244D0D7
:1068D00004D8B3F5164FD4D1274B1CE0B3F5614F64
:1068E0003ED0B3F5963FCCD1244B14E0B3F5E12F65
:1068F00038D008D8B3F5613F36D0214DAB42C0D176
:106900004FF0806307E0B3F5612F2FD01D4DAB42F0
:10691000B7D14FF080531C4D34432243C5F8243582
:10692000C5F86C25C36803C983E80300002070BD67
:106930004FF40003EFE7154BEDE74FF41C33EAE7A4
:106940004FF4A033E7E74FF49E23E4E74FF46C13D2
:10695000E1E70F4BDFE70F4BDDE74FF46503DAE7C5
:106960000D4BD8E70D4BD6E70D4BD4E70D4BD2E7D7
:106970000050270000F0750000509D0000903A0183
:1069800090D0030040420F000020004000B01300F0
:1069900000A04E0000E0D70100F0EB0000705F07A0
:1069A00000B0AF0300D0BE0E084B1A6882B022B10F
:1069B00000221A601B680193019B054B1B681BB1E9
:1069C000044A106802B0184702B070472421004002
:1069D000380700203C070020F7B50023094C0A4F78
:1069E0001E46D8B2151A002D02DD256801330DB9F7
:1069F00003B0F0BD266025680195019DD7F81855B4
:106A00000D54EEE70821004000200040F7B50E4687
:106A100004F0C3F91D4D002834D164240127BFF3CD
:106A20005B8F55E8003F002B03D145E80072002A38
:106A3000F7D1BFF35B8F07D021200021013C01F08B
:106A400093F814F0FF04EAD1114A0023136012688E
:106A50000192019A0F4A13700F4B01221A604FF4F2
:106A60007A74C3F81465FFF74FFE20B9012004F0D3
:106A700031F8013CF7D1094B01221A6000232B6049
:106A800003B0F0BD01232B60DEE700BF400700200C
:106A90001C210040D70B0020082000400C200040A3
:106AA000084B1A6882B052B1002018601B6801932D
:106AB000019B054BD3F818350B7002B070474FF0AF
:106AC000FF30FAE708210040002000402DE9F341A3
:106AD0000D4E0E4FDFF838800024E5B2531B002B1B
