:10100000D0100020152E00009F830000C92C000086
:10101000C92C0000C92C0000C92C0000C92C0000FC
:10102000C92C0000C92C0000C92C0000B52B000001
:10103000C92C0000C92C00006D2B00008B83000020
:10104000D52D0000D52D0000D52D0000D52D000098
:10105000D52D0000D52D0000D52D0000D52D000088
:10106000D52D0000D52D0000D52D0000D52D000078
:10107000D52D0000D52D0000D52D0000D52D000068
:10108000D52D0000D52D0000D52D0000D52D000058
:10109000D52D0000D52D0000D52D0000D52D000048
:1010A000D52D0000D52D0000D52D0000D52D000038
:1010B000D52D0000D52D0000D52D0000D52D000028
:1010C000D52D0000D52D0000D52D0000D52D000018
:1010D000D52D0000D52D0000D52D0000D52D000008
:1010E000D52D0000D52D0000D52D0000D52D0000F8
:1010F000D52D0000D52D0000D52D0000D52D0000E8
:1011000053B94AB9002908BF00281CBF4FF0FF316E
:101110004FF0FF3000F072B9ADF1080C6DE904CE6C
:1011200000F006F8DDF804E0DDE9022304B07047C2
:101130002DE9F047089E04468846002B4BD18A4291
:10114000154667D9B2FA82F24AB1C2F1200701FA14
:1011500002F320FA07F7954047EA030894404FEA64
:10116000154E230CB8FBFEF71FFA85FC0EFB178803
:1011700043EA084307FB0CF1994209D9EB1807F140
:10118000FF3080F01B81994240F21881023F2B44CE
:101190005B1AA4B2B3FBFEF00EFB103344EA034427
:1011A00000FB0CFCA44509D92C1900F1FF3380F099
:1011B0000781A44540F2048102382C4440EA0740EC
:1011C000A4EB0C0400271EB1D4400023C6E9004361
:1011D0003946BDE8F0878B4209D9002E00F0EB803C
:1011E0000027C6E9000138463946BDE8F087B3FA62
:1011F00083F7002F47D18B4202D3824200F2FA805C
:10120000841A61EB030301209846002EE0D0C6E962
:101210000048DDE702B9FFDEB2FA82F2002A40F0B0
:101220008F80491B4FEA154E1FFA85F80127B1FB45
:10123000FEFC230C0EFB1C1143EA014308FB0CF1DE
:10124000994207D9EB180CF1FF3002D2994200F213
:10125000CD808446591AA3B2B1FBFEF00EFB1014E8
:1012600043EA044408FB00F8A04507D92C1900F113
:10127000FF3302D2A04500F2B6801846A4EB080462
:1012800040EA0C409FE7C7F1200CBB4022FA0CFE5D
:101290004EEA030E01FA07F420FA0CF521FA0CF3DA
:1012A0004FEA1E482543B3FBF8F92C0C08FB193311
:1012B0001FFA8EFA44EA034309FB0AF49C4202FA3D
:1012C00007F200FA07F10BD91EEB030309F1FF3017
:1012D00080F087809C4240F28480A9F10209734427
:1012E0001B1BADB2B3FBF8F008FB103345EA034417
:1012F00000FB0AFAA24508D91EEB040400F1FF33F3
:101300006BD2A24569D90238744440EA0940A0FB77
:101310000289A4EB0A044C45C2464B4654D351D033
:10132000002E69D0B1EB0A0564EB030404FA0CFC4F
:10133000FD40FC404CEA0505C6E90054002747E79C
:10134000C2F1200320FA03F7954001FA02F021FAD6
:1013500003F34FEA154E3843010CB3FBFEF71FFAB7
:1013600085F80EFB173341EA034107FB08F38B4274
:1013700004FA02F407D9691807F1FF3C2FD28B4217
:101380002DD9023F2944CB1A81B2B3FBFEF00EFBEC
:10139000103341EA034100FB08F38B4207D9691877
:1013A00000F1FF3C17D28B4215D902382944C91AE3
:1013B00040EA07473BE73746304609E70746E7E696
:1013C0001846FBE64145ABD2B8EB020A69EB0E02C8
:1013D00001381346A4E76046E9E7184695E76746F3
:1013E000D1E781467CE702382C4447E7ACF1020C98
:1013F0002B442FE7384608E73746E9E6704700BF39
:101400007FB54848484C06F099FD484BE41AC4F3B0
:10141000C904064628B34FF00001012363F302011B
:101420006FF3C501424864F38F1106F091FA414809
:10143000414CC46002F072FF00286ED13F4806F0B4
:101440002CFA214602A802F047FE21460246002857
:1014500044D03B4806F021FA4FF47A7005F0B6FD0F
:10146000FAE701AA01212F4806F0B2FD054650B166
:101470004FF00001012363F3020166F3C50164F339
:101480008F113048D1E703234FF0000263F30202CB
:1014900060F3C50264F38F1201992B4806F065FAD8
:1014A00002AA02211F4806F093FD50B14FF000013F
:1014B000012363F3020165F3C50164F38F1123482F
:1014C000B3E70299224806F0E8F9DDE90121A2FB21
:1014D0000123110D1F4806F0E0F9A8E71E481F4C34
:1014E0001F4E06F0DAF9651C1C4902A802F06CFEDA
:1014F00078B963786BB12378012B04D12946194858
:1015000006F0CBF9F0E722692946304606F0C5F926
:10151000EAE702A802F0D8FE9EE7134806F0BDF9FC
:101520009AE700BF28A70000CCA40000ACA40000EC
:101530002BA7000000200020A7A70000ACA70000F8
:10154000BBA700003FA700005AA7000069A7000042
:1015500083A7000093A70000D6A700000800002082
:10156000F6A70000EBA700000EA800000B680133EF
:101570000B60014B1B681847202000202DE9F04F1D
:1015800085B09B460E9CDFF88890012CB8BF0124E3
:10159000012B0CBF30232023164682468846029337
:1015A00001250A270022B6FBF9F301930AB9B145D8
:1015B0001DD8019B414603F13000D047013501227F
:1015C000019B013F012F09FB13664FF00A03B9FB92
:1015D000F3F9E8D1414606F13000D047BBF1030FE3
:1015E00002D1641B002C0EDC05B0BDE8F08FBC42BC
:1015F000E6DBBBF1020FE3D84146029803920135C6
:10160000D047039ADCE741462020D047013CE9E778
:1016100000CA9A3B014B1860704700BF2020002091
:1016200013B502AC002344F8043D02460B460348C0
:10163000214605F0BAFF02B010BD00BF6D150000D5
:10164000014805F0F1BC00BF0C22002030B500229B
:1016500087B00D490D4808F0D0FD0D4D0D4900240F
:101660000E23CDE90243CDE90444CDE900440A4B01
:101670004FF44072284605F039FD0849284608F025
:1016800056FD204607B030BD411600006002002024
:10169000A8020020D0050020351A000029A800006B
:1016A00008B500F05FFA094806F00FF90423282274
:1016B0000749084808F0F9FB074B084A1A604FF43D
:1016C0000040BDE8084000F093BC00BF5802002075
:1016D000101A00208C02002024200020097900002C
:1016E000F8B50F4BBFF35B8F002553E8007F43E84D
:1016F0000052002AF9D1BFF35B8F0A4C0A4E361B09
:101700003611B54200DBF8BD63685B792BB1236805
:10171000DB6813B139462046984701351034F0E7AD
:10172000500200200CA500001CA50000064BBFF3D2
:101730005B8F53E8002F013243E800210029F8D1E4
:10174000BFF35B8F704700BF50020020044A054B77
:101750009B1AB1EBD30F34BF52F831000020704711
:10176000ACA400000CA50000094B4268C31A1B1171
:10177000013310B513714368064C196001225A7188
:10178000227812B9044805F04FFC0123237010BDE4
:101790000CA50000AA0500200C220020F8B5114B72
:1017A000BFF35B8F53E8004F621C43E80021002920
:1017B000F8D1BFF35B8F2CB90B4D0C4E761B361155
:1017C000B44200DBF8BD2701EB191B7B43B1EB5999
:1017D0005B6903B1984704220021E819FFF7C4FFB1
:1017E0000134EDE7540200200CA500001CA5000008
:1017F000164B984237B5044602D3154B98421FD377
:10180000002201A9134804F0B9FF0546D8B9012206
:10181000019BBFF35B8F53E8001F43E800200028C3
:10182000F9D1BFF35B8F019821461F22043006F0E7
:10183000C7FD019C7E2384F8233084F824500434AF
:10184000204603B030BD044CFAE700BF60A20000A0
:1018500034B300008C02002031A8000048B1054BD1
:10186000984205D3A03398422CBF00200120704736
:1018700000207047101A00202DE9F04F4D4B1B78C7
:1018800085B0054603B960B34FF02003EFF311862E
:1018900083F31188BFF36F8F474806F026F804469C
:1018A00086F31188BFF36F8F78B1BFF35B8F434B23
:1018B00053E8002F013A43E800210029F8D1BFF393
:1018C0005B8F95B1204606F021F925B93C4B1B688A
:1018D0000BB1FFF705FF384806F005F8051C18BFE7
:1018E0000125284605B0BDE8F08F364B1B78C3B9FB
:1018F000237ADB0715D406F01CF98146204606F052
:10190000E5F80146484606F003F82F4B2F4A0393AB
:10191000D21A4FEAD20A2E4AD21A0746C2F3C90B8C
:1019200037B92C4E2C4FBF1B3F114FF000083EE043
:10193000B7FA87F6C6F11F063146204606F0C9F809
:10194000264B9842024602D3254B98421ED310469E
:10195000FFF784FFD0B9234B9A4217D063899B09C4
:1019600053453CBF039A52F833204FF0010363F311
:1019700002086FF3C5086BF38F1828BF0246ADF855
:1019800000804B463146184806F01BF8012303FA45
:1019900006F627EA0607C3E773685B7923B1336865
:1019A00021461B683046984708F101081036B845B3
:1019B000F2DB87E7AA050020580200204C02002035
:1019C00050020020AB050020ACA400000CA50000D4
:1019D000C4A400000CA500001CA5000060A200002B
:1019E00034B3000031A800004FA80000F8B50E4F36
:1019F0003D7875B90D4C0E4EFFF7D0FE361B3611F3
:101A0000B54207DB0020FFF737FF0028FAD101239A
:101A10003B70F8BD63685B791BB1236820461B6986
:101A2000984701351034EBE7AB0500200CA500000A
:101A30001CA5000008B5FFF7B1FE05F0EFFA0B4B4F
:101A4000186030B10A4B1B68092B02DD094805F00C
:101A5000EBFA084C0020FFF70FFF0028FAD14FF0F7
:101A6000FF31204605F000FBF4E700BF1C03002017
:101A70004C0200200C220020264B70B51B684181CF
:101A800005469847244CE860BFF35B8F54E8003F5D
:101A9000013344E80032002AF8D1BFF35B8F4FF0E6
:101AA0002003EFF3118683F31188BFF36F8F1B4878
:101AB000294605F00EFF86F31188BFF36F8F184B90
:101AC0001A787AB14FF02003EFF3118483F3118871
:101AD000BFF36F8F0020FFF7CFFE84F31188BFF3B1
:101AE0006F8F70BD0F49236809680029F9D0012B59
:101AF00006D14FF47A710C48BDE8704005F094BCF3
:101B00000A2BEED1084808F084FB0848BDE8704075
:101B100005F08ABA242000204C0200205802002040
:101B2000AB0500201C030020600200200C220020D6
:101B300007B504380190BFF35B8F50E8003F5A1E91
:101B400040E800210029F8D1BFF35B8F012B03D1BE
:101B500001A9034804F040FE03B05DF804FB00BF98
:101B60008C02002020231A460149024808F09DB942
:101B7000B01A00202003002073B502AC002344F803
:101B8000043D094E0120FFF777FE0546FFF7CEFD25
:101B900000222146304604F0F1FD08B1002DF1D1BC
:101BA000019802B070BD00BF2003002007B502A954
:101BB000002241F8042D054804F0E0FD10B1FFF7C4
:101BC000DBFF0190019803B05DF804FB20030020C7
:101BD000F0B5047A457A85B014F0010401904FEA1B
:101BE000151510D0019B1A7A920706D504AC5B69D3
:101BF00044F8043D174D039B2BBB01A9154804F085
:101C0000EBFD05B0F0BD002DECD0264617E03146C7
:101C100005F05FFF0746FFF721FE78B13CB9019B55
:101C20002946186905F074FE04460028DAD024FA23
:101C300006F3DB0702D53846FFF77AFF0136AE42DE
:101C40000198E4D3CEE71E682146284604F0C4FD7F
:101C50000396D0E7200300200EB403B503AB014682
:101C600053F8042B0448019305F09FFC002002B0B8
:101C70005DF804EB03B07047E77E00002DE9F04FFC
:101C800085B011F00204064690469DF8387001F0C8
:101C9000010901F0080507D011F0440F37D11A46A9
:101CA0003249FFF7D9FF0446B9F1000F0AD0304B93
:101CB000304953F82720304B3046002A08BF1A46D7
:101CC000FFF7CAFF3DB12D4B2D4953F82720304671
:101CD000FFF7C2FF0546B8F1000F44D0012303FA15
:101CE00007F7284B17F0100F274F18BF1F46BDF8F6
:101CF00040109DF83C00FFF729FD3946024630466A
:101D0000FFF7AAFF2844204405B0BDE8F08F1F4A22
:101D1000116831B31E4A4FF4616E1468B3FBF4F3DB
:101D20004FF47A7CB3FBF1F4B4FBFEF20EFB124EDF
:101D300001FB14340CFB04F44FF03C0AB4FBF1FB40
:101D400001FB1B44BEFBFAF30CFB04F4B4FBF1F102
:101D5000CDE901B10AFB13E100910E49FFF77CFFC9
:101D6000A1E708469FE7084FC1E700BFD4A80000DD
:101D700028A5000097B00000C6A800003CA5000000
:101D8000F9A80000CBA80000CFA800003C03002069
:101D900040030020DDA8000038B50C46E1070546E9
:101DA00003D5084A0849FFF757FFE20608D4A306FF
:101DB00028464CBF05490649BDE83840FFF74CBFEF
:101DC00038BD00BFC6A8000097B00000B8A800004A
:101DD000B7A800002DE9F0479846089BDD060446A9
:101DE0000E46174605D499064CBF29492949FFF7E5
:101DF00033FFDFF8A890002545452ADBDFF8A080F7
:101E0000DFF8A090DFF894A00025AF422ED9725DD4
:101E100049462046FFF720FF0135102D1FD11E49EE
:101E2000DFF87880DFF880902046FFF715FF002567
:101E3000AF4227D9725DA2F120035F2B28BF2E226B
:101E400049462046FFF708FF0135102D13D1BDE8A4
:101E5000F08749462046FFF7FFFE0135CCE76A07C9
:101E6000D3D151462046FFF7F7FECEE74146204644
:101E7000FFF7F2FED0E76B07DAD141462046FFF7C5
:101E8000EBFED5E741462046FFF7E6FEDCE700BF64
:101E9000B8A80000B7A8000094A80000E6B10000B0
:101EA000E4B100008EA8000096A800002DE9F047DC
:101EB0008B7A17460A7A13F007046FEA02028AB097
:101EC00005460E46D2B21BD04989C3F3C203890925
:101ED0000291CDE9004302F00102F3683946FFF7B1
:101EE000CDFE8146337ADA070CD42946304605F018
:101EF00090FE4CB3224639462846FFF74DFF23E0BB
:101F0000A146EFE734BB2746EB68069306AA3B469B
:101F1000A968304605F069FE069A6B681A603AB106
:101F2000AB68134413F8014CA4F10A035C425C4112
:101F3000284605F0CBFF069B1F44002BE4D11CB1C3
:101F400014492846FFF788FE284605F0BFFF0AB06F
:101F5000BDE8F087304605F0ECFD0F490246284603
:101F6000FFF77AFE4FF000084FF0100A05AA43462B
:101F700006A93046CDF814A005F037FE059A002AD0
:101F8000B8D04B46009706A92846FFF723FF059BCC
:101F90009844EBE799A8000097B0000073B5D0E92A
:101FA00000435D680F4A42F20F738B4228BF0B4615
:101FB0006846052101F0F6FF2B4606460B22204617
:101FC000094905F019FE2B4632466946204605F0C0
:101FD00013FE2B461B220549204605F00DFE02B0DC
:101FE00070BD00BFA9B20000BAA800009BA8000005
:101FF000084A10B50123084C13600021A04204D800
:1020000001B11360054B186010BD40085B00012151
:10201000F4E700BF4003002040420F003C030020D3
:1020200008B5034804F0DEF9024B586008BD00BF54
:102030001FA900004C030020014805F047BF00BF66
:1020400068A500000148FFF7A9BF00BF68A5000010
:1020500010B508460C4605F02CFD214604480F2219
:10206000FFF724FF2046BDE8104005F04FBD00BF3C
:1020700068A5000008B5044807F032FF034B0020B4
:10208000C3E9003308BD00BF6003002058030020EF
:10209000F8B5074606F0B5F90646114D11484FF060
:1020A000FF3104F0C3FB2C68AC420ED100240D4874
:1020B00004F02EFC2046F8BDA06806F0A2F9B0425C
:1020C00006D06B689C42F1D02468002CF4D1EDE777
:1020D0003246A168384606F0A9F90028F1D1E6E7B2
:1020E000580300206003002010B504464FF0FF3174
:1020F0001B4804F09BFB0CB1A068B0B901234FF062
:10210000000163F30201174A174B18489B1A6FF33B
:10211000C501DB0863F38F1105F01AFC6FF015049D
:102120000F4804F0F5FB204610BDFFF7B1FF70B17A
:1021300001234FF0000163F302010A4A0A4B0C48E5
:102140009B1A6FF3C501DB0863F38F11E4E7094BBA
:1021500023605A6862605A6814605C600446DFE776
:1021600060030020ACA40000B4A4000037A9000064
:1021700050A900005803002010B50B4B88B0CDE9E2
:1021800000320123CDE903310146059204AACDF8BE
:1021900008D0CDE9062351F8040B436802AA1C6855
:1021A00006ABA04708B010BDEEA9000070B505460B
:1021B0008468184804F016F91749184B2060C4E9E0
:1021C0000113174804F00EF90723636100232376F7
:1021D000AB6820610122134883F820200561FFF7D6
:1021E00083FF2069267D247E8568E30754BF44F47D
:1021F000B05484F42064436822461B6831469847F3
:1022000038B92B680121B140E2074CBF0B438B4327
:102210002B6070BD3EAA0000801A0600002101005C
:1022200044AA00002820002038B503690C489D68A6
:102230000C4695F8201005F00CFF48B9611E0429E2
:102240000AD8DFE801F0030609060500EB69136010
:1022500038BD4FF40073FAE76FF01500F8E700BFE0
:10226000E6A900002DE9F047074688B088461646E3
:1022700007F0B5FF002300F5FA7006900793384683
:1022800005F0D7FEFF2804461BD106A805F0EDFE99
:102290000028F4D102234FF0000263F302022A491E
:1022A0002A4B5B1A60F3C502DB08214663F38F12E9
:1022B000274805F05AFB6FF03B04204608B0BDE804
:1022C000F0870028F9DBFE283AD1DFF888A0002546
:1022D0004FF00109731B402B28BF402308EB050278
:1022E0003946CDE900A3CDE9042304ABCDF808D0ED
:1022F000CDF80C90CDE9063951F8040B436802AAD9
:102300001C6806ABA04704460028D6D14035AE4233
:10231000E0DC032206A93846FFF72EFF044600281A
:10232000CBD19DF818309DF819503246414645EA08
:10233000032505F0BBF8854218BF6FF08904BCE7A0
:102340006FF00404B9E700BFACA40000ECA40000E7
:102350004BAA0000EEA9000070B505460E4605F038
:102360000AFF044660B9284605F09BFE192E044674
:1023700003D80449F140CB0702D4284605F059FEA2
:10238000204670BD0006060308B5FFF7E5FFBDE86F
:1023900008400146014805F05CBE00BF2EAA0000BF
:1023A0002DE9F74F0E46002115469846044605F0E4
:1023B0002CFEDFF8F4B0A844C6EB4529454509D109
:1023C0004FF0000A2046012105F01FFE504603B0E1
:1023D000BDE8F08F637E002B5FD106EB0902182168
:1023E0002046FFF7D1FFB0F1000AEBDB02AFFE237E
:1023F00007F8043D01223946204605F0ABFE82462F
:102400000028DFD14FF400723146204605F0A2FECD
:1024100082460028D6D14FF40072314605F046F8C6
:102420000222030A8DF80500394620468DF8043053
:1024300005F090FE82460028C4D1204605F0F9FD43
:102440000146184805F005FE82460028BAD120460C
:1024500005F05AFE82460028B4D102460D212046DE
:1024600005F089FE82460028ACD1204605F019FE11
:102470000146584605F0EDFD0746204605F0D9FD1A
:102480008246204605F0D5FD002F08DBBAF1000F8B
:1024900098D106F50076013590E72A469FE7BA46BF
:1024A00090E700BFDEA900002EAA00002DE9F04150
:1024B00003699C68AB4B6360012392B084F82030C1
:1024C00007F08DFE00F59C5008304FF4A013A64D88
:1024D000A64E029003930121204605F096FD0A22A4
:1024E0002946204605F036FE0021204605F08DFDE8
:1024F000002211462046FFF72FFF011E55DB012960
:1025000004D0304605F0A5FD00284ED14FF4D57219
:102510000821204605F02FFE064620B908A92046CE
:1025200005F0D8FD0646002E13DB012E05D03146FE
:102530008E4805F08EFD064658B9089BDAB2AA2AE5
:1025400030D103F47063B3F5807F14BF6FF02206BF
:10255000002601223B212046FFF7FEFE051E2BDB55
:10256000012D05D02946814805F073FD054618BBAD
:10257000002E0CBF4FF08045002500223721204659
:10258000FFF7EAFE2A4629212046FFF7FDFE002834
:1025900000F0E18002A805F068FD0028EDD16FF0A1
:1025A0003B0509E06FF00106D3E702A805F05DFDE9
:1025B000002890D16FF001052046012105F025FD8E
:1025C000284612B0BDE8F08102A805F04EFD98B192
:1025D00000223A21204605F0CEFD18B901A9204677
:1025E00005F078FD0146304605F033FD054600282C
:1025F000E2D1019B002BE7DA019B13F0804309D164
:1026000063764FF4007210212046FFF7BDFE0546A9
:1026100010B1D1E701236376002209212046FFF79C
:10262000B3FE05460028C7D110220DEB020120465B
:10263000FFF718FE05460028BED19DF810309B0913
:1026400004D0012B78D06FF02205B5E79DF8155026
:1026500005F00F05A5F10903022BF4D80DF11600C2
:1026600005F0C8FC9DF819209DF81A3043EA0223B2
:10267000C3F3C213C0F38B301D440130073D00FA91
:1026800005F5E5613A4B3B4EE1693B484FF00308E5
:102690004FF00002F61A68F302026FF3C502C6F3A8
:1026A000C90666F38F12C90A05F05FF900220A21F4
:1026B0002046FFF769FE054600287FF47DAF102213
:1026C0000DEB02012046FFF7CDFD054600287FF403
:1026D00073AF9DF8103008939DF8113009939DF861
:1026E00012300A939DF813300B939DF814300C931D
:1026F0009DF815300D934FF000079DF816300E939E
:1027000068F302079DF817300F9360F3C5079DF833
:10271000183010930DF1190005F06CFC66F38F175B
:1027200011903B460A2208A9144805F065F9144B9C
:10273000636084F820503FE70DF1160005F05AFC65
:1027400041F20F03C0F3150098427FF67CAF0130D1
:102750008002E06196E70190002E7FF44DAF034EBA
:1027600036E700BF801A0600EEA900002EAA00007E
:10277000ACA40000ECA4000079A9000094A900001A
:1027800000093D002DE9F0411F46036915489C688A
:102790000D4694F82010164605F05BFC28B93B4620
:1027A0002946204605F007FDD0B110F13C0F04D0BA
:1027B000431D02D010F18A0F12D10D2100222046B4
:1027C000FFF7E2FD94F82010064805F042FC38B906
:1027D0003B46324629462046BDE8F04105F0EBBCB9
:1027E000BDE8F081E6A900002DE9F0411F4603692C
:1027F00015489C680D4694F82010164605F029FCF3
:1028000028B93B4629462046FFF7CAFDD0B110F152
:102810003C0F04D0431D02D010F18A0F12D10D21BC
:1028200000222046FFF7B0FD94F82010064805F07E
:1028300010FC38B93B46324629462046BDE8F041F7
:10284000FFF7AEBDBDE8F081E6A9000010B507486E
:10285000074C03F0C7FD074B1860204601F09CFBB6
:102860002046FEF7D7FE002010BD00BF1FA90000C4
:1028700079280000980300200A2838B50446074D3F
:1028800004D1286843680D215B689847286843682D
:10289000E1B25B689847204638BD00BF980300202E
:1028A000F8B5124DAB680C2404FB00340123064636
:1028B00063724FF02003EFF3118183F31188BFF3AC
:1028C0006F8F23682BB160681A682260834208BF4B
:1028D000626081F31188BFF36F8F03B9F8BDD3E94C
:1028E000017231462846B847E3E700BF382100208F
:1028F000154B07B51A6882B14FF08042D2F8042315
:10290000D1070AD500221A601B680093009B0F4B69
:102910009B68587A08B9FFF7C3FF0D4B1A6882B15C
:102920004FF08042D2F8042392070AD500221A60A1
:102930001B680193019B012003B05DF804EBFFF7D6
:10294000AFBF03B05DF804FB000100403821002058
:10295000040100400D4B0022C3F840214FF020023B
:10296000EFF3118182F31188BFF36F8F084AD3F818
:1029700004051368C01A20F07F400344136081F3FC
:102980001188BFF36F8F04F0BBBC00BF0010014083
:10299000B403002073B5184803F024FD48B343681E
:1029A000164D1B6801219847002401264FF48033FF
:1029B000C5F80845C5F84065C5F8043303F1804300
:1029C00003F58A534FF400321C601B680193019B8E
:1029D0000B4B3146C3F880211120224600F00AF942
:1029E000112000F0F7F8074B20461E602E6002B061
:1029F00070BD4FF0FF30FAE77EAA000000100140E2
:102A000000E100E008100140F0B5254FB0F1FF3FB4
:102A100008BF38464FF02003EFF3118583F3118888
:102A2000BFF36F8F1F4C204BD4F804651B68F21A5C
:102A300022F07F42B2F5000F19D2411E21EAE17166
:102A4000B942A8BF3946501C0844B84294BF181870
:102A5000D819861B26F07F4620F07F43022EC4F84B
:102A6000403506D985F31188BFF36F8FF0BD002183
:102A7000E9E7D4F804350D4AC31A23F07F43591E01
:102A8000914205D90A4B4FF40032C3F80021E9E71F
:102A9000012B02BF023020F07F40C4F84005E1E77F
:102AA000FEFFFF0000100140B4030020FEFF7F0086
:102AB00000E100E04FF02002EFF3118382F3118870
:102AC000BFF36F8F064AD2F80405064A1268801ACF
:102AD00020F07F4083F31188BFF36F8F704700BFF2
:102AE00000100140B40300204FF02003EFF31182E7
:102AF00083F31188BFF36F8F0649074B0868D3F83B
:102B0000043582F31188BFF36F8F1B1A23F07F43C4
:102B100018447047B4030020001001400448816845
:102B2000406A884203D003494FF080520A607047E0
:102B30006805002004ED00E0094A0A499368096825
:102B400019670949D8664B6843F080534B600023EE
:102B500083F31188BFF36F8F9368186F704700BFBE
:102B600068050020F4A6000000ED00E00F498A6827
:102B70004FF030001044EFF3098C80E8F01F202064
:102B800080F31188BFF36F8F094F4FF000664A6AD8
:102B90008A603E60D06E0023D36680F3118802F114
:102BA000300090E8F01F8CF309887047680500201A
:102BB00004ED00E01EF0040F0CBFEFF30880EFF30C
:102BC0000980816911F8021C0229FFD001B505F0C6
:102BD000E2FB01BD43B2002B08DB012200F01F0025
:102BE00002FA00F05B09024A42F82300704700BF76
:102BF00000E100E043B2002BA8BF03F1604301F104
:102C000001014FEA4111AEBF03F5614300F00F002F
:102C1000034BC9B2ACBF83F800131954704700BF0F
:102C200014ED00E073B51E460A9B00938C18099BB7
:102C3000054607F081FAA4F120030A4A23F00703AE
:102C400022F001029A61069A5A60079A9A60089ADD
:102C5000DA604FF080721E60DA612B650023EB664C
:102C600002B070BDB5780000F8B506460C461746B0
:102C70001D4600F0DFFB094B3C4424F007049E6036
:102C8000284684F30988002163B681F31188BFF3D5
:102C90006F8F0022002304F00DFE00BF68050020A6
:102CA000014910220A60704710ED00E072B6404002
:102CB00080F31188BFF36F8FBFF34F8F30BF62B6C1
:102CC000BFF36F8F704700BFEFF30880EFF3098108
:102CD000724601B500F07EFA01BD00BFF7B50746A8
:102CE0000C4600293DD0224A224D234801264FF0B0
:102CF0000003AD1A66F30203C5F3C9056FF3C503FC
:102D000065F38F13ADF80030D1E90123096804F0B1
:102D100058FE4FF0000366F302036FF3C50365F33B
:102D20008F13ADF80030D4E90423E168134804F0B0
:102D300048FE4FF0000266F302026FF3C50265F32E
:102D40008F12E1690E4804F010FE4FF0000266F3A6
:102D500002026FF3C50265F38F12A169094804F0FE
:102D600004FE2146384603B0BDE8F04003F07EBBC8
:102D7000ACA40000DCA40000A8AA0000D7AA0000B0
:102D800006AB000015AB000030BFFFF7FDBF00BF72
:102D90000E4A08B50E4B22F07F029A60BFF34F8FA8
:102DA000BFF36F8FD3F8882022F47002C3F8882015
:102DB000EFF3148323F0040383F3148803F0EAFB96
:102DC00003F0F2FB00F004FB03F02CFC0010000009
:102DD00000ED00E001B572B60B4A106A00281EBF74
:102DE0000021116207F05FF862B6EFF30580A0F1F1
:102DF00010004FEAC0000549014409C99847BDE8E1
:102E000001400349084700006805002060A2000057
:102E10001D2B000005F0F7FB202080F311880848E7
:102E20004FF40061401880F30988EFF31480022109
:102E3000084380F31488BFF36F8FFFF7A9FF0000EA
:102E40001012002070B53B4B3B4C3C4D3C480126DA
:102E50004FF00001E41A66F302016FF3C501C4F3F9
:102E6000C90464F38F1104F073FDAA6A93010AD5B3
:102E70004FF0000166F302016FF3C50164F38F1197
:102E8000304804F065FDAB6ADD010BD54FF0000161
:102E9000012363F302016FF3C50164F38F112A4824
:102EA00004F056FD254DAA6A10030BD54FF0000122
:102EB000012363F302016FF3C50164F38F1123480B
:102EC00004F046FDAB6A59030BD54FF00001012316
:102ED00063F302016FF3C50164F38F111C4804F022
:102EE00037FD164DAA6A92030BD54FF0000101235E
:102EF00063F302016FF3C50164F38F11154804F009
:102F000027FDAB6ADB030BD54FF00001012363F310
:102F100002016FF3C50164F38F110F4804F018FD2F
:102F2000064A936A6FEA03436FEA134393620020F1
:102F300070BD00BFACA40000DCA4000000ED00E008
:102F4000A3AC0000BBAC0000CEAC0000E8AC0000BD
:102F500006AD00002BAD000045AD00002DE9F041AD
:102F60003F4B404C404D0E464FF001084FF00001E2
:102F7000E41A68F302016FF3C501C4F3C90464F3F2
:102F80008F110746394804F0E3FCAA6AD1060AD536
:102F90004FF0000168F302016FF3C50164F38F1174
:102FA000334804F0D5FCAB6A1A070BD54FF000018B
:102FB000012363F302016FF3C50164F38F112D4800
:102FC00004F0C6FC284DAB6A9B0720D54FF00108E2
:102FD0004FF0000168F302016FF3C50164F38F1134
:102FE000254804F0B5FC696BAB6A18060FD54FF0A5
:102FF000000268F302026FF3C50264F38F121F48E8
:1030000004F0B3FC1FB1AB6A23F08003AB62164D32
:10301000AA6AD2070BD54FF00001012363F3020126
:103020006FF3C50164F38F11154804F091FCAB6A8E
:103030009B060BD54FF00001012363F302016FF3F0
:10304000C50164F38F110F4804F082FC064B9A6AA5
:103050009A6A002042F0FF029A623070BDE8F08167
:10306000ACA40000DCA4000000ED00E0CBAB00004D
:10307000E1AB000014AC000027AC00003FAC000046
:1030800055AC000074AC00002DE9F041464B474CB4
:10309000474D0E464FF001084FF00001E41A68F367
:1030A00002016FF3C501C4F3C90464F38F1107462D
:1030B000404804F04DFCAA6AD1040AD54FF0000143
:1030C00068F302016FF3C50164F38F113A4804F00D
:1030D0003FFCAB6A1A050BD54FF00001012363F3E7
:1030E00002016FF3C50164F38F11344804F030FC22
:1030F0002F4DAB6A9B0520D54FF001084FF0000122
:1031000068F302016FF3C50164F38F112C4804F0DA
:103110001FFCA96BAB6A18040FD54FF0000268F3CF
:1031200002026FF3C50264F38F12264804F01DFCFF
:103130001FB1AB6A23F40043AB621D4DAB6A590566
:103140000BD54FF00001012363F302016FF3C501BA
:1031500064F38F111C4804F0FBFBAB6A13F480731B
:1031600014D04FF00001012363F302016FF3C50196
:10317000164864F38F1104F0EBFB0D4A936A0020AC
:1031800043F47F4393623070BDE8F081AA6A9204F1
:10319000F3D54FF00001012262F3020163F3C50190
:1031A00064F38F110A48E6E7ACA40000DCA4000039
:1031B00000ED00E043AB000059AB000014AC000090
:1031C0006AAB000083AB000098AB0000B3AB00001B
:1031D00074AC00002DE9F0416B4B5C688AB0C4F31D
:1031E0000804002585F31188BFF36F8F02F07F4339
:1031F000B3F17F4F13D102F00C03082B11D101233F
:103200004FF0000163F30201604A614B61489B1A71
:1032100065F3C501DB0863F38F1104F099FB2E46BB
:1032200004E013074EBF0E460646012500238DF825
:103230000730E31E092B00F28A80DFE803F0056EF9
:10324000726B888888888876504B514F52484FF06F
:1032500001084FF00001FF1A68F302016FF3C50186
:10326000C7F3C90767F38F1104F072FB464AD36AAC
:10327000002413F002038DF8074024D04FF0000122
:1032800068F3020164F3C50167F38F11434804F04A
:103290005FFB9DF807309BB92022314602A805F05C
:1032A000D4F8099B002D6AD0C3F3080222B96FEA53
:1032B00053236FEA4323099302A92046FFF70EFD2B
:1032C0000AB0BDE8F081D46A14F08044E4D04FF035
:1032D000000168F3020163F3C50167F38F11304801
:1032E00004F036FB2F4B1B7833B10DF1070140463C
:1032F000FFF734FE0446CCE72B4B1B782BB10DF1C6
:1033000007014046FFF7C0FEF4E7284B1C88A4B233
:10331000002CBED0FFF796FDECE70DF10701002071
:10332000E6E70DF107010020ECE701234FF0000173
:1033300063F30201154A164B1D489B1A6FF3C50132
:10334000DB0863F38F1104F003FB0024A1E70122E3
:103350004FF0000362F302030C490D4A1548521A5C
:103360001549D2086FF3C50362F38F130F2CC8BF42
:103370000146A4F11002114804F00BFBE5E723F429
:10338000FF7323F0010396E700ED00E0ACA400001A
:10339000DCA4000070AD00009BAD0000B2AD0000E9
:1033A000D3AD000028ED00E029ED00E02AED00E0BB
:1033B000F2AD00003DAE000028AE000056AE0000A9
:1033C000024A536943F010035361704700ED00E077
:1033D000044800232021C2180133302B82F8001347
:1033E000F9D1704700E100E038B505464FF0200301
:1033F000EFF3118483F31188BFF36F8F03F092FC16
:103400000A4B9B68AB420BD1094B5A68C2F30802C6
:1034100012B92046FFF790FB5A6842F080525A607A
:103420002046BDE8384006F096BD00BF6805002084
:1034300000ED00E01FB5094B0193094B029304A86E
:10344000084B039301AB40F8103D074A074B01219D
:1034500000F08EF805B05DF804FB00BF000000200E
:103460000000000000000B06000000200000042007
:1034700038B5D1E90043202B896820D9B3F1004F3A
:103480001FD8013BB3FA83F3C3F11F035B00072886
:1034900041F0010217D901234FF0000263F3020249
:1034A0000F49104B5B1ADB086FF3C502014663F34B
:1034B0008F120D4804F059FA6FF0150038BD08233B
:1034C000E5E73E23E3E724F01F0140F01004074D39
:1034D000E4B221431343A860E9602B61EEE700BF2B
:1034E000ACA40000D4A4000090AE000090ED00E079
:1034F000034B05225A60BFF34F8FBFF36F8F7047A6
:1035000090ED00E0BFF35F8F014B00225A607047DF
:1035100090ED00E013490868082810B51ED8FFF7A1
:10352000F1FF114C49680022904201F10C0105D1D4
:103530000E4B1870FFF7DCFF002010BDA26051F8A1
:103540000C3C23F01F0343F010031343E36051F8D6
:10355000043C43F0010323610132E5E74FF0FF3003
:10356000EBE700BFB0A5000090ED00E0AD05002046
:10357000F8B5194D074628780E460024B44211DAF2
:1035800057F824104B6823B35A1E13420CD11F2B3B
:103590000AD90B681A4207D1C0B2FFF769FF10F1D0
:1035A000160F15D12870F8BD01234FF0000263F308
:1035B00002020A490A4B0B485B1ADB086FF3C5028B
:1035C00063F38F12214604F0D0F96FF01500E9E79C
:1035D00001300134D2E700BFAD050020ACA40000EB
:1035E000D4A400006DAE00002DE9F04F9DB0CDE9F0
:1035F00002011E46002301931078531C069358B114
:10360000252800F088800399029B9847013040F0FC
:103610000C844FF0FF33019301981DB0BDE8F08F8B
:10362000232C6FD064D8002CF6D0202C0C9B08BF24
:1036300001230C93CDF81880DDF81880BB4818F8EA
:10364000014B214604F0CFFE0028E9D12A2C69D194
:1036500032680792002ABFBF5242079201220D92A0
:10366000069A331D547802F102081E462E2C7ED194
:1036700098F800302A2B77D1356808F10108043614
:1036800098F8004008F101082146A948274604F0AF
:10369000AAFE00286ED008F10103682F069398F85F
:1036A000004007D1682C05D108F1020398F80140C9
:1036B00006934827672C7CD8652C80F03B81472CEB
:1036C0005CD8452C80F03681002CA5D0252C00F04C
:1036D000A8830399029B25209847013099D003992C
:1036E000029B20469847013093D0019B02339EE312
:1036F0002D2C0DD0302C08D02B2C099B08BF01237A
:10370000099397E70123059394E70123089391E731
:1037100001230D938EE7002308930C9309930D93D7
:10372000059389E7A4F13003092B07909ED80A225C
:10373000DDF8188018F8014BA4F13003092B95D857
:10374000079B02FB0344A4F13003CDE90683EFE7B6
:1037500001FB0535303D9046424612F8013BA3F18E
:1037600030000928F4D98BE700250A21F4E74FF04F
:10377000FF3589E7CDF8188007469BE7632C59D0C1
:1037800021D8582CA5D1331D6F2C0493316840F0FB
:103790001C83059B15AF002B00F00B8330238DF8A5
:1037A0005430002940F00E838DF855108B460127C8
:1037B00026E0702C00F0E88227D86E2C00F0CF8233
:1037C000E1D8692C85D13468331D002C049380F234
:1037D0009E802D238DF8543061420DF155073846F7
:1037E0000A2204F080FE099B074415A83F1A002B0B
:1037F00040F020830C9B002B40F01C834FEAD47BCD
:10380000002DC0F21C8315AE1EE0752CBBD0782CA9
:10381000B9D0732C7FF45DAF331D002D366804934F
:10382000B8BF6FF000450027BD4240F0BD820025C3
:10383000AB4609E0331D049333681CAE4FF0000B18
:1038400006F81C3D01275D46A5EB070A0025DA4472
:10385000A846A9462AEAEA7A079B0AEB07041C1B3A
:103860000D9B13B9002C00F30A8306EB0B039E4259
:1038700040F00783534613F1FF3380F00E83A7EB2C
:103880000B07B9F1000F00F02D833078F219A0F189
:1038900030010929A2EB060340F20A834A46002AB6
:1038A00040F01183A3EB0909B8F1000F18D006EB23
:1038B000090316F8012B07930399029B0592104602
:1038C000984701303FF4A5AE059A079B2E2AA3EB3B
:1038D0000609EED14346002B00F30683A9EB080945
:1038E0009DB1307806EB0908A0F13003092BA8EB55
:1038F000060940F206832E2800F00383A846B8F19B
:10390000000F00F30783A9EB0509B14415E3099BF8
:1039100023B12B238DF8543021465EE70C9B0BB16D
:103920002023F7E7214615AF59E700BFB6AE0000E8
:10393000BCAE0000073626F00706D6E9000106F106
:1039400008030493CB0243EA5053C202002823F039
:103950000049904671F10003C1F30A56CDE9108980
:1039600042DA2D218DF854100DF1550740F2FF7108
:103970008E4254D158EA0903A4F1410407F103002F
:1039800042D1192C3AD849233B704E237B704623F1
:103990000025BB70FD7015AFC01BA846A946099B4A
:1039A000002B40F0D9810C9B002B40F0D5819DF875
:1039B00054B0ABF12D03D3F1000B4BEB030B1CAB5D
:1039C0005B4408EB090713F81C3C303B2F44092BE0
:1039D000074400F23882089B002B00F03B82079BD3
:1039E00015AEA3EB070A35E7099B0BB12B21B9E70D
:1039F0000C9B0BB12021B5E715AFB7E769233B70EE
:103A00006E237B706623C3E7192C99BF4E23412296
:103A10006E23612294BF3B703B707A70B8E7462CEE
:103A200048EA060049EAE67108BF662450EA010345
:103A300000F0DA80002E7AD0DDE910230DF1700954
:103A4000104643F0004169E90C01A6F2FE38002659
:103A500018F1020F7ADB6FF0004A4FF0000BB8F15B
:103A6000000F00F3A48010A808F1010804F05BFD2A
:103A7000B8F1040FF7D1002D04F0DF03B8BF06251D
:103A8000472B40F0B980F21C02DBB54280F2AF80D8
:103A9000023CE4B2002D00F07582059B013D002B35
:103AA00040F07082002DD4BF4FF0000A4FF0010AA1
:103AB000662C40F0698215EB060840F1A3801023C4
:103AC0000F9366244FF000080DF1700900224FF0AB
:103AD000006369E90A2318F1FF3880F09580DDE979
:103AE0001023DDE9120112EB000843EB0109CDE9D7
:103AF000108909F070484FF0000958EA090306D010
:103B000010A804F024FD10A804F00DFD0136662C69
:103B100040F0C480002E7DDC30233B70059B07F114
:103B2000010B002B40F08D80994685E0013E18EB9B
:103B3000080849EB0909B8F1000F79F10003F5DA3B
:103B4000CDE9108978E7484604F0EDFCDDE910A0E6
:103B500000230B930A90DDE90ABCBD4A00236345AC
:103B600008BF5A4508F10108EDD30522AAFB02ABB4
:103B700002FB00BBCDE910AB013E4FF0000C00236F
:103B800000216FF00040994208BF584506D2BCF1B1
:103B9000000F3FF45DAFCDE910AB59E71AEB0A0A0D
:103BA0004BEB0B0B08F1FF384FF0010CE7E710A8C7
:103BB00004F0CDFCDDE9100108F1FF3801364FF0CB
:103BC000000C00239B4508BF8A4506D2BCF1000FBC
:103BD0003FF445AFCDE9100141E70018494108F134
:103BE000FF384FF0010CECE70026B0463BE7059BA1
:103BF000AD1B23B9662455E74FF0000A58E74FF094
:103C0000000A58E76624C1E1484604F0A0FC04F02D
:103C10008AFC60E7BB460F9B002B07DD0FA910A8AD
:103C200004F0C6FC013E0BF8010BF4D1059B002B00
:103C300040F09F81B1461E46002D04DC4FF0000885
:103C400020E04FF000092E220BF101038BF8002039
:103C5000002E00F09581002D1EDDC6F10008A8455C
:103C6000A8BFA846A5EB08059B4606E00FA910A82B
:103C700004F09EFC0BF8010B013D002D02DD0F9BB3
:103C8000002BF3DCBAF1000F1ED1002315AF8BF827
:103C90000030ABEB070082E69B46CFE70FA910A8E8
:103CA00004F086FC059B3870302818BF06F1FF36FB
:103CB000002B3BD1002D39DC07F1010BBAF1000FCD
:103CC00047D04FF00009C8461BF8012C302A0BF1F1
:103CD000FF333CD02E2A08BF9B46002504F0DF03AB
:103CE000452BD2D1002E5A46BABF76422D232B2324
:103CF000632E02F8024B8BF801300ADD642196FB3B
:103D0000F1F303F130000BF103028BF8020001FB29
:103D100013660A21934696FBF1F301FB136603F148
:103D2000300030360BF8020B5670AEE72E2307F149
:103D3000020B7B70002DC1DD0F9B002BBEDD0FA998
:103D400010A804F035FC013D0BF8010BF2E79B468F
:103D5000BAE7D146D046C1E74FF0010B2FE6324615
:103D6000682F52F8043B049206D06C2F09D0482FDC
:103D700007D1019A1A7001E0019A1A80049E069AEE
:103D80003AE4019A1A60F9E7331D0493316847F663
:103D9000300310220DF15600ADF8543004F0A3FBAF
:103DA0004FF0020B871C2BE5F35D002B45D001374C
:103DB0003AE538460822C71B04F095FB07444FF04C
:103DC000000B1DE50DF15500F4E7752C05D10A2215
:103DD00015A804F088FB0746F1E7059BFBB147F601
:103DE0003003ADF854300DF156061022304604F081
:103DF0007AFB582C0CD10DF1530313F8012FA2F1CB
:103E0000610119299CBF203A1A701A78002AF4D14E
:103E100015AF059BF71B07444FEA430BF0E415AEC3
:103E2000E3E703992046FFF7EFBB019B01330193C2
:103E30000496A3E74FF0010BE2E41D46F8E40025E9
:103E4000A846A946C7E515AE4FF0000A04E500BF35
:103E50003233333315AEDDF820A0FDE4059303992A
:103E6000029B202098470130059B3FF4D2AB13F111
:103E7000FF33F3D2019A224401921C46F5E4234613
:103E8000F5E705930399029B16F8010B984701305B
:103E9000059B7FF4ECACFFF7BCBB05930399029B39
:103EA000302098470130059B7FF4E5ACFFF7B1BBAC
:103EB000DDE902310592984701303FF4AAAB16F8CC
:103EC000010F059AE3E405930399029B07923020C2
:103ED0009847079A059B013002F1FF327FF4DFAC6F
:103EE000FFF797BBB946DFE405930399029B3020A7
:103EF0009847059B013003F1FF337FF4ECACFFF7EB
:103F000088BBDDE90231984701303FF482AB16F8F7
:103F1000010FE9E40399029B30209847013008F132
:103F2000FF387FF4ECACFFF774BB039916F8010B74
:103F3000029B984701303FF46CABA9EB0603002BC2
:103F4000F3DC019B5B449B46D34407EB0B03002C43
:103F500001937FF713AF2344019314F1FF34FFF46F
:103F60000DAF0399029B202098470130F5D1FFF750
:103F700050BB2E22B1460BF101038BF80020002626
:103F8000B04671E64FF0000A05F10108102398458C
:103F90000F93A8BF984697E5014B1860704700BF84
:103FA0003C2000200CB41FB509B90DF10300CDE988
:103FB000020107AB069A0648019302A9FFF714FB1A
:103FC000029B00221A7005B05DF804EB02B0704746
:103FD000ED8500004FF02003EFF3118283F3118889
:103FE000BFF36F8F06490123C1F840354FF0804180
:103FF000C1F8783582F31188BFF36F8F00207047C6
:1040000000E0014020B1034B800143F00103184759
:10401000704700BF20A50000014802F079BC00BF36
:10402000C80300204FF0FF31014802F0FFBB00BF82
:10403000C803002008B5044805F052FF034B0020D8
:10404000C3E9003308BD00BFC8030020C00300203F
:104050002DE9F74F0190084615468A4604F0D1F93C
:104060008346FFF7DFFF1B4A14684FF000099046B4
:10407000944208BF00244F465CB9FFF7CDFF1FB341
:10408000019B1F601DB3BB692B60002003B0BDE81E
:10409000F08FA669B14511D8B3450FD3012E04D9CD
:1040A0001AF806202F2A00D042B93246E16850465D
:1040B00004F0BCF9002804BFB1462746D8F8042014
:1040C0009442DAD02468D7E76FF00100DEE7284693
:1040D000DCE700BFC003002073B506460D46A1B95A
:1040E00001234FF0000163F302012F4A2F4B3048A8
:1040F0009B1ADB086FF3C50163F38F1103F028FCF3
:104100006FF01504204602B070BD084604F079F93E
:104110000028E5D02B782F2BE2D12649284604F041
:1041200078F9044658B9FFF77DFF234A7460136895
:10413000934208BF00233360FFF76EFFE2E70022DF
:10414000294601A8FFF784FF041E11DA01234FF06E
:10415000000263F302021449144B18485B1A6FF310
:10416000C502DB08164963F38F1203F0FEFBC9E7B3
:10417000019B7360DB691B6A002BC3D02946304664
:104180009847041EBEDA01234FF0000263F30202D7
:104190000549064B0B485B1A6FF3C502DB0863F356
:1041A0008F122146E1E700BFACA40000BCA40000D0
:1041B000A0AF0000E4AF0000C0030020B4AF0000D7
:1041C000D3AE0000E6AF000043682DE9F04107469A
:1041D0000E4613B3DB695B6A002B50D0DFF8E48036
:1041E0004D1C7B68DB6931465B6A38469847041E84
:1041F0004BDB737873B13378012B0BD141462846E2
:1042000004F007F90028ECD02949284604F001F908
:104210000028E6D02046BDE8F08104680CB94C7057
:10422000F8E7FFF7FFFE234B1C6898469C4208BF47
:1042300000245B680CB9254613E03A68A24216D107
:104240003046E16801250C2200F8015B294404F0A6
:10425000B7F8D8F8042000239442737333610AD06E
:104260002468FFF7D9FE6DB13C600024D2E79C4280
:1042700003D02468DEE71C46F3E70024DBE76FF099
:104280001504C7E76FF00104C4E701234FF00002F3
:1042900063F302020849094B09485B1ADB086FF314
:1042A000C50263F38F12214603F05FFBB2E700BF44
:1042B00000B00000C0030020ACA40000BCA40000BB
:1042C00003B000008CA8000038B54468054614B956
:1042D0000460204638BDE3699B6AA3B19847041E79
:1042E00013DA01234FF0000263F302020849094B7D
:1042F00009485B1ADB086FF3C50263F38F1221468E
:1043000003F033FBE5E76FF0150400236B60E0E793
:10431000ACA40000BCA40000DEAE0000F8B504466A
:1043200008B1C3689BB901234FF0000163F3020198
:10433000514A524B52489B1ADB086FF3C50163F395
:104340008F1103F005FB6FF015063046F8BDFFF73F
:1043500069FE237A012B03D84A4A52F82370A7B981
:1043600001234FF0000163F30201434A434B4648E7
:104370009B1ADB086FF3C50163F38F1103F0E8FAB2
:104380006FF00106FFF748FEDFE7E06804F039F858
:10439000A061E06803782F2B12D001234FF00001B9
:1043A00063F30201344A354B38489B1A6FF3C50159
:1043B000DB0863F38F1103F0CBFA6FF01506E1E72A
:1043C00004F01FF80128E8D9FB6A73B901224FF005
:1043D000000162F3020163F3C501274A274B2C4811
:1043E0009B1ADB0863F38F11E5E72A4D2E68AE4276
:1043F0001AD1FB6A20469847061E34DA01234FF093
:10440000000263F302021C491C4B23485B1ADB08C1
:104410006FF3C50263F38F12314603F0A6FAB1E7DA
:104420006B689E42E5D03668002EE2D0A269B3697F
:104430009A42F5D1F168E06803F0F8FF0028EFD167
:1044400001234FF0000163F302010B4A0B4B9B1A4F
:1044500060F3C501DB0863F38F11104803F078FAAD
:104460006FF00F068EE76B6863606B682560E7612D
:104470001C606C6086E700BFACA40000BCA4000018
:10448000F9AE0000B803002017AF00003EAF0000F7
:1044900054AF0000C00300208CAF00006FAF0000DD
:1044A00038B504460D46FFF7BDFD012C15D9012393
:1044B0004FF0000163F302010A4A0B4B0B489B1AB1
:1044C000DB086FF3C50163F38F1103F041FA6FF05E
:1044D0001504FFF7A1FD204638BD054B43F82450D5
:1044E0000024F6E7ACA40000BCA400001DB000004E
:1044F000B803002001490020FFF7D2BF4020002070
:1045000030B587B0481C6946154605F07DFA04466B
:1045100080B99DF808302846C3F3001300F8013B2A
:104520000DF1090103F042FF009B2B61044B18576A
:1045300007B030BD1328F9D96FF00400F8E700BFC9
:1045400041B0000008B5481C05F070FB132896BF69
:10455000024B6FF00400185608BD00BF41B00000C8
:1045600008B5481C05F015FB132896BF024B6FF0E9
:104570000400185608BD00BF41B0000030B5541CFF
:1045800087B00D462046694605F03EFA48B92046F8
:1045900005F0FFFA28B1132808D96FF0040007B01E
:1045A00030BD2146681C05F0F1FBF4E7014B1856BD
:1045B000F5E700BF41B00000C168012208B5114411
:1045C000002001F0D7FB132896BF024B6FF00400C8
:1045D000185608BD41B0000010B5C1680122ADF504
:1045E000027D04461144006901F0C4FB0D2810D17E
:1045F000E0684FF400730093002202AB0921013000
:1046000001F0E0FB28B9E16820690122114401F0C2
:10461000B1FB13289ABF034B18566FF004000DF539
:10462000027D10BD41B0000038B50546006805F0B8
:10463000C1F929460446054802F0CEF8132C96BF6E
:10464000034B6FF00400185738BD00BFD421002081
:1046500041B0000030B587B00C460068694605F0EF
:10466000B2F9054668B90DF10901601C03F09EFE20
:10467000607848B19DF80830C3F300132370009BA5
:104680002361132D284603D8034B185607B030BDBD
:104690006FF00400FAE700BF41B0000037B50546EF
:1046A0000C46002201A90D4802F068F8014670B9D5
:1046B0002C22019803F0F6FE01982860611C05F099
:1046C00046F9132806D8064B185603B030BD6FF0D4
:1046D0000B00FAE76FF00400F7E700BFD4210020D9
:1046E00041B0000038B50546006805F0A3F829463A
:1046F0000446054802F070F8132C96BF034B6FF088
:104700000400185738BD00BFF021002041B0000060
:1047100008B5006805F05AF8132896BF024B6FF0F1
:104720000400185608BD00BF41B00000012A08B5BA
:104730000FD0022A11D09AB9002911DB0068C36892
:104740008B420DD305F083F813280CD8074B18566D
:1047500008BD03685B691944EEE70368DB68FAE7A4
:104760006FF01500F4E76FF00400F1E741B00000CE
:10477000F7B5054600680F46C66805F068F828B129
:10478000132815D96FF0040003B0F0BDBE423446C3
:10479000286802DD05F0C1F9F2E73146476905F006
:1047A00056F80028ECD18DF80300BC4203DB002052
:1047B000064B1856E8E701AB01220DF1030128680A
:1047C00004F049FF0028DBD10134EEE741B00000DE
:1047D00007B5006801AB04F03EFF30B1132806D8DE
:1047E000044B185603B05DF804FB0198FAE76FF02C
:1047F0000400F7E741B0000007B5006801AB04F022
:104800009AFE30B1132806D8044B185603B05DF851
:1048100004FB0198FAE76FF00400F7E741B00000ED
:1048200037B505460C46002201A90D4801F0A6FF48
:10483000014678B92822019803F034FE01982860D7
:104840001322611C04F09EFD132806D8054B185650
:1048500003B030BD6FF00B00FAE76FF00400F7E72C
:10486000F021002041B0000008B5094B1A786AB960
:104870000121197006200521FEF7BCF90620FEF77C
:10488000A9F9044B4FF00042C3F80423002008BDEF
:10489000AE050020006000400368F0B59E682D4B17
:1048A0001340B3F5801F46D031D8022B47D0062BDA
:1048B00000D09BBBD00654BFC2F34015032582F441
:1048C00080749705C2F34020C4F3002407D512F486
:1048D000006F776837D001228A40C7F80825327AFE
:1048E00001F01F0141EA42111F2940EA4402C6BFFC
:1048F00001F01F01184E4FF0A04642EA032301F5D4
:10490000E07143EA850346F821300020F0BDB3F59D
:10491000800F0ED005D8114883420ED06FF01500DD
:10492000F4E70F4883420CD0B3F5A00FF6D1032370
:10493000C0E70223BEE70123BCE70723BAE704234D
:10494000B8E70523B6E7520542BF01228A40C7F8FF
:104950000C25C4E70600F00000030050060010001C
:10496000020040001F288ABF074B4FF0A04300F011
:104970001F0003EB8000D0F8003723F4403343EAF4
:104980000141C0F80017704700030050F7B50368F5
:1049900086689B6801F01F040D4648491B7AD1F8D0
:1049A000042344EA4314D2B2002303F5A27051F861
:1049B0002000C0F30520844267D122FA03F0C0072B
:1049C00063D59A0002F1804202F5C042D2F8100588
:1049D00020F00100C2F81005012202FA03F3C1F829
:1049E000083320460021FFF7BDFFF068E84010F0D3
:1049F000010048D03069E84010F0010043D0B069B0
:104A0000E84010F001024CD0F369EB40DB0740D4E2
:104A1000736923FA05F515F0010F0CBF0227012772
:104A2000264E002101F5A27356F8230010F0030072
:104A300031D18A0002F1804303F5C0432402D3F848
:104A4000105525F44F3525F44075C3F81055D3F8AB
:104A5000105504F47C5402F1804202F5C24244EA4B
:104A600007442C43C3F81045106012680192019A64
:104A7000D3F8102542F00102C3F81025012303FAF0
:104A800001F1C6F8041303B0F0BD0133082B8CD13B
:104A9000A7E70327C4E701310829C3D16FF012004B
:104AA000F1E7736923FA05F515F0010F20460CBFF5
:104AB00003210221FFF756FF1046E4E700600040A3
:104AC000B2F5A03F70B4846817D10568AD682E7A3E
:104AD00001F01F0545EA46151F2DC6BF05F01F054D
:104AE0001E4E4FF0A04605F5E07556F82550ED072F
:104AF00007D56FF0220070BC7047B2F5005FE56823
:104B000026D00125E6688D4035432669E5600125FC
:104B10008D40B2F5005F14BF2E43AE432661A669F7
:104B2000B2F5A03FE2690CBF2E43AE43B3F5C02FF0
:104B30000CBF2A43AA43E2616269A661B3F5802FE4
:104B40000CBF154322EA0505656170BCFFF71EBF67
:104B500001268E4025EA0605D7E700BF0003005076
:104B6000F0B5002685B0CDE90266284D2C685CB111
:104B7000274803F0D2FD0290264803F0CEFD0390B3
:104B80002E602B680093009B234D00220126944643
:104B9000D5F8043306FA02F119421DD002F1805112
:104BA00001F5C25189000B68B3B102F5A27304AFDD
:104BB00055F82330C1F800C0C3F3403007EB800044
:104BC000C3F3042350F8087C06FA03F33B4340F890
:104BD000083C0B680193019B0132082AD8D1029945
:104BE00011B10B4803F084FD039911B1094803F09A
:104BF0007FFD44B1064803F0C3FD064805B0BDE89B
:104C0000F04003F0BDBD05B0F0BD00BF7C610040C9
:104C10008C210020982100200060004010B504463F
:104C2000002201210320FDF7E5FF2368114A98685F
:104C3000234600F1080100F0BFFC0F4B984214D04E
:104C400001234FF0000263F302020C490C4B0D48A4
:104C50005B1ADB086FF3C50263F38F1223681968D0
:104C600002F083FE6FF00F0010BDA06803F0F4FDAA
:104C70000020F9E7094D00000000AD0BACA40000D6
:104C8000FCA400007AB0000030B58568EA6B6B6C5C
:104C900085B082B97BBB1C4600221146284603F032
:104CA000B1FD6C6205F1140002F0BEF9002385F835
:104CB0004C3005B030BD114613B19A4228BF194699
:104CC000AC6BA9640094C4B1002A18BF0A460192D3
:104CD0002A6C02929AB1002B18BF0B46039303680B
:104CE00000229868694600F01FFD064B9842E0D00C
:104CF0006FF00404D0E71946E2E72246E7E71346DF
:104D0000ECE700BF0000AD0B007838B50D46002879
:104D10005BD18C68E36B93B1A26C9A4229D90123D1
:104D20004FF0000163F30201284A294B9B1A60F3FC
:104D3000C501DB0863F38F11264802F009FE636C9E
:104D400093B1A26C9A422AD901234FF0000163F378
:104D500002011E4A1E4B1F489B1A6FF3C501DB0858
:104D600063F38F1102F0F4FD2846BDE83840FFF7E9
:104D70008BBF9B1AE36363B9E36A013BE36263B1F0
:104D8000A36A03F10802A2629A68DB68A263E36384
:104D9000D5E7A36B002BD2D01344A363CFE79B1AB4
:104DA000636463B9636B013B636363B1236B03F1BA
:104DB000080222639A68DB6822646364D4E7236C88
:104DC000002BD1D013442364CEE738BDACA400003F
:104DD000FCA400005CB000002DE9F74F8468804619
:104DE0000F4616461D4604F1040A4FF0FF315046A7
:104DF00002F03AF9D8F80890D9F800309F4200F054
:104E0000CA80BB88D8F8001013F0010219D0012322
:104E10004FF0000263F302028D488E4B09681B1AA3
:104E20006FF3C502DB0863F38F128B4802F09DFD20
:104E30006FF01504504602F0F7F8204603B0BDE8C5
:104E4000F08F13F0080010D001234FF0000163F33E
:104E5000020162F3C5017F4B7D4A80489B1ADB0843
:104E600063F38F1102F074FDE2E713F4C0520ED029
:104E700001234FF0000163F30201754A754B9B1A41
:104E800060F3C501DB0863F38F117548EAE7C3F3EC
:104E90004513082B0ED001234FF0000163F30201EC
:104EA00062F3C5016B4B6A4A6E489B1ADB0863F3D9
:104EB0008F11D7E73B686C4883420ED801234FF02F
:104EC000000163F3020162F3C501624B604A674867
:104ED0009B1ADB0863F38F11C4E78B680193BB68EF
:104EE000C9F80070002B7ED0186800287BD05B6862
:104EF000D0F808B0DBB20093436800991B684FF408
:104F00000072984748B9009A012303FA02F2DBF8CD
:104F1000003023EA0203CBF80030D9F80020936870
:104F2000B2F9042019791868D243D20F03F059FC62
:104F3000019B1968BB88980703F0040264D5002A16
:104F40000CBF02220322022AC3F3001360D0032AFB
:104F500061D0012A01D143F00203C1F85435444A1B
:104F60003B6893425AD9434A93425AD9424A9342A0
:104F70005AD9424A93425AD9414A93425AD902F5E0
:104F8000741202F5106293428CBF4FF000434FF051
:104F90008043C1F82435012384F84C30002E4CD0D6
:104FA00033687268A362E2621A685B68A263E363B3
:104FB000002D47D02B686A68236362631A685B68B8
:104FC00022646364002262620121204603F01AFC1D
:104FD0004046FFF759FE4FF0FF3104F1140002F094
:104FE00043F8646A26E703234FF0000163F30201EC
:104FF000174A184B23489B1ADB086FF3C50163F36C
:105000008F1102F0A5FC93E7003218BF01229AE746
:1050100043F00403A1E743F006039EE74FF000735B
:10502000B7E74FF08063B4E74FF00063B1E74FF0AC
:105030008053AEE74FF00053ABE7C4E90A66C4E91A
:105040000E66B5E7C4E90C55C4E91055BAE700BFD0
:10505000ACA40000FCA400009AB00000BCB00000AA
:10506000DBB00000FEB0000047E801002DB10000F9
:105070008FD003001FA107003F420F007F841E0056
:10508000FF083D005EB10000024B0B60012313607E
:10509000704700BF1C040020F8B50D46164603F00B
:1050A000B4FD31460746B6FBF0F4284603F0F6FBA4
:1050B000D8B1B5FBF7F307FB1353B3B907FB14677C
:1050C0009FB9ACB14FF0FF310A4801F0CDFF03F0BA
:1050D0009CFD0446284600F021FA361B2544F9D1F0
:1050E000044801F0A1FF3046F8BD6FF01500FBE762
:1050F0002046F9E72404002010B501221146064895
:10510000064C05F000F803F084FD206003F07DFDFF
:105110006060002010BD00BF240400201C0400209B
:1051200070B50D462846194616461C4603F0B6FBD8
:10513000F8B1A9071DD1A2071BD1ECB14FF0FF3187
:105140000E4801F091FF24F003042C44761BA54285
:1051500009D10B4AD2F80034DB07FBD5074801F030
:1051600063FF002070BD7159284600F0F7F904353F
:10517000EDE76FF01500F5E72046F3E72404002083
:1051800000E00140F0B54B79012B29D0032B24D14D
:1051900010268B79032B20D1CC792CB1012C1CD17A
:1051A00003689B681B79C3B10A7912B1022A14D132
:1051B0000E2203689B681D680B6847F61227BB42E6
:1051C0006FD029D8B3F5965F65D014D8B3F5167FA4
:1051D0004FD007D8B3F5967F78D06FF0220056E015
:1051E0000026D6E7B3F5966F52D0B3F5166FF4D11B
:1051F0004FF41D233FE0B3F5615F4ED004D8B3F503
:10520000165FEAD1334B36E0B3F5964F47D0B3F58E
:10521000E14FE2D1304B2EE0B3F5E13F4AD012D856
:105220004DF6C027BB423FD005D8B3F5164FD4D1B9
:105230004FF41D031FE0B3F5614F38D0B3F5963F2F
:10524000CBD1264B17E0B3F5E12F39D008D8B3F511
:10525000613F32D0224FBB42BFD14FF080630AE0A2
:10526000B3F5612F2FD01F4FBB42B6D14FF0805303
:1052700001E04FF41C33C5F8243544EA0603134318
:10528000C5F86C35836803C983E803000020F0BDCE
:105290004FF49E23EFE7144BEDE7144BEBE7144B71
:1052A000E9E74FF40003E6E74FF46503E3E74FF463
:1052B0006B03E0E74FF0EB73DDE74FF06C73DAE779
:1052C0004FF0E863D7E74FF07063D4E74FF4A033B3
:1052D000D1E700BF0050270000C0750000903A01E0
:1052E00090D0030040420F0000B0130000F03A00DD
:1052F00000A04E000A4B1B685A1C05BF094B0A4A06
:105300000A4A10680ABF1B781068C0F30310082B04
:1053100004D103288CBF0020012070470020704773
:1053200030010010E00F00F0E80F00F03401001031
:10533000054B1868043B1B68082B06BFB0FA80F0C9
:1053400040090020704700BF3401001008B5FFF786
:10535000D1FF40B14FF080430022C3F80C21C3F8C5
:105360001021C3F83825FFF7C5FF002846D04FF0BD
:105370008052584BD2F80414C3F82015D2F8081400
:10538000C3F82415D2F80C14C3F82815D2F8101459
:10539000C3F82C15D2F81414C3F83015D2F8181429
:1053A000C3F83415D2F81C14C3F84015D2F82014F1
:1053B000C3F84415D2F82414C3F84815D2F82814B9
:1053C000C3F84C15D2F82C14C3F85015D2F8301489
:1053D000C3F85415D2F83414C3F86015D2F8381451
:1053E000C3F86415D2F83C14C3F86815D2F8401419
:1053F000C3F86C15D2F84424C3F87025FFF798FF62
:1054000010B1354B354A1A60FFF792FF18B1344B93
:10541000FB22C3F81825FFF78BFF48B13149324B07
:105420000A681B6822F00F0203F00F0313430B609E
:10543000FFF77EFF18B12D4B4FF400721A60FFF793
:1054400059FF48B14FF08043D3F80024D20744BF3E
:105450006FF00102C3F800244FF01023D3F80022AC
:10546000002A03DBD3F80432002B2FDA204B012271
:10547000C3F80425D3F80024002AFBD04FF01022F3
:105480001221C2F80012D3F80024002AFBD04FF0FA
:1054900010231222C3F80422154B1A46D3F8001425
:1054A0000029FBD00021C3F80415D2F80034002BEA
:1054B000FBD0BFF34F8F0F490F4BCA6802F4E06275
:1054C0001343CB60BFF34F8F00BFFDE70B4B0C4A7C
:1054D0001A6008BD00C000408C560040488103009F
:1054E00000F00040E40E00405802001040960240D8
:1054F00000E0014000ED00E00400FA05FC2000207F
:105500000090D003044AD2F80034DB07FBD50160D9
:10551000BFF35F8F704700BF00E001404FF0805342
:105520001A69B0FBF2F302FB130373B9084B0222B2
:10553000C3F80425C3F80805D3F80024D207FBD527
:105540000022C3F80425034870470348704700BF92
:1055500000E001400000AD0B0A00AD0B10B5054C9A
:105560000123C4F80435FFF7CDFF0023C4F8043548
:1055700010BD00BF00E001401F2886BF00F01F00E3
:10558000044A4FF0A042012303FA00F0C2F80C05D0
:10559000704700BF000300501F2886BF00F01F00A7
:1055A000044A4FF0A042012303FA00F0C2F80805B4
:1055B000704700BF000300502DE9F0410679564CBA
:1055C00007462C207043251895F81CC0BCF1000F2D
:1055D00040F0A0806B600B7B2250012B087800F21A
:1055E0008A80FFF7C9FF0B781F2B86BF03F01F03CC
:1055F0004A4A4FF0A04203F5E073012042F823002D
:105600004D78FF2D7AD02846FFF7B6FF1F2D8BBFB0
:1056100005F01F032B46414A4FF0A04203F5E0730B
:10562000032042F823008B78FF2B6AD01F2B887B46
:1056300087BFDFF8E8C003F01F021A464FF0A04C06
:1056400002F5E07280004CF8220098463A792C204E
:1056500000FB0242D377C878FF280ED0FFF79CFFEB
:10566000CB781F2B86BF03F01F032C4A4FF0A042BC
:1056700003F5E073032042F823003A79C8782C231D
:1056800003FB0243987738680B78C0F808358B68BD
:10569000C0F80C55C0F81085C0F824354B7B0D7B45
:1056A000003318BF0123022D2ED0032D2FD0012D42
:1056B00001D143F00203C0F854352C2303FB02420E
:1056C00073434979E35882F8201013B10422C0F8DB
:1056D00004230122C0F800251BB140F30730FDF779
:1056E00079FA2C2303FB0644002363770C4801233B
:1056F0002377BDE8F081FFF74FFF74E74FF0FF35E8
:1057000091E74FF0FF38A1E743F00403D3E743F0FC
:105710000603D0E70348ECE7340400200003005000
:105720000000AD0B0500AD0B2DE9F74306793D4CAC
:105730002C2373439046E2180F46517F814600297F
:105740006DD1E3580BB10123537797E80F002C2557
:1057500005FB064505F10C0C8CE80F00A87F002323
:10576000FF2885F8283001D0FFF706FF2C23B8F179
:10577000000F07D003FB064300222B485A7703B0E3
:10578000BDE8F083D9F800500422C5F8082303FBD4
:105790000643C5F80881D5F80821C3F82480009293
:1057A000009A7A689AB13B681B78C5F81C35012AC3
:1057B00010D93B685B78C5F81C352C2101FB06F33A
:1057C000E35883B10423C5F804331848D7E793F8A6
:1057D0002030EAE7FB68012BEFD92C2303FB0643BB
:1057E00093F82030E7E706FB01479846D5F80831E3
:1057F000002BFBD0C5F80881D5F808310193394654
:105800002846019B03F009FA0028EFD12C2303FB63
:105810000644A07FFF28D8D0FFF7BEFED5E7044896
:10582000ADE700BF340400200300AD0B0000AD0B5A
:105830000B00AD0B13B50E4B0E4C0F4800221A6037
:105840001B6801932146019B03F0E7F970B9A07F23
:10585000FF2801D0FFF7A0FE002363772372D4E96D
:105860000031064802B0BDE81040184702B010BD34
:105870000831004034040020003000403C04002087
:10588000F0B50468054624B323461A4613F8011BF5
:10589000202929D93A29F8D12378A3F13000092801
:1058A0001AD9DFF850C0013200235CF8237020467B
:1058B00010F8011B17F8016BA1F1610EBEF1190F71
:1058C0009CBF2039C9B28EB1B142F1D00133082B4F
:1058D000EBD14FF0FF3008E0631C9A42E1D107287A
:1058E000F7D801322A6000E00020F0BD8242EDD1FD
:1058F0001846F7E7A0A60000002310B5C3704FF0CC
:10590000FF33C362044603F06FFA30BB94F82F22D2
:1059100094F82E3243EA02234AF6552293421ED1CE
:1059200094F83030E92B05D0236B104A03F0FF13B5
:10593000934216D104F1660003F0A3F90C4B20F05A
:105940007F4098420FD004F1820003F09AF9094B8E
:10595000984214BF0220002010BD0420FCE7032061
:10596000FAE70220F8E70020F6E700BFEB0090001E
:1059700046415400464154332DE9F043002385B09D
:105980000B600F461546FFF77BFF061EC0F22E8107
:10599000994B53F82640002C00F02A813C60237874
:1059A00005F0FE0573B1607800F0C0FCC10709D4B2
:1059B000002D00F0F68010F0040000D00A2005B0A1
:1059C000BDE8F0830023F0B22370607000F0BAFCF1
:1059D000C20700F10F810DB14307EFD4002120462B
:1059E000FFF78AFF022840F0E78004F5FB750021ED
:1059F00015F8040C10B1284603F043F94DF82100C6
:105A00000131042905F11005F2D100265DF8265078
:105A1000002D00F0C88029462046FFF76DFF0128C1
:105A200000F2C28094F83C2094F83B3043EA022311
:105A3000B3F5007F40F0C48094F8473094F8466096
:105A400056EA032604D104F1540003F01AF906467D
:105A500094F84090A66109F1FF33012B84F802907D
:105A600000F2AE8094F83D70BBB26381002B00F071
:105A7000A7807B1E3B4240F0A38094F8423094F80C
:105A8000418048EA032818F00F0FA4F8088040F07E
:105A9000978094F8441094F8430050EA012003D111
:105AA00004F1500003F0EDF894F83F2094F83E30F4
:105AB00053EA022300F0848006FB09FC03EB181272
:105AC000624490427CD3811AB1FBF7F1002977D070
:105AD0004FF6F577B9428CBF0327022740F6F570E1
:105AE000814298BF01272B4402312A44032F616170
:105AF000E5612362A26267D194F85B2094F85A3082
:105B000053EA02235CD1B8F1000F59D104F15C00D3
:105B100003F0B7F86062890001F2FF11B6EB512F74
:105B20004ED34FF0FF33C4E90333032F4FF080030C
:105B300023712FD194F8612094F8603043EA022356
:105B4000012B27D1691C204603F04EF910BB94F8B5
:105B50002F2294F82E32207143EA02234AF655226E
:105B6000934217D104F1300003F08BF8234B984295
:105B700010D104F5057003F084F8214B984209D147
:105B800004F5067003F07DF8206104F5077003F05A
:105B900078F8E0601B4A2770138801339BB21380AA
:105BA000E38000200BE703200136042E7FF42EAFA4
:105BB000042805D1012002E70428FBD0012801D9DF
:105BC0000D20FCE600252DE7B8F1000FF8D0022FDC
:105BD0004FEA410018BF4018634418BF01F00101AB
:105BE00063620CBF014601EB500195E70B20E6E62E
:105BF0000C20E4E60320E2E66004002052526141FA
:105C000072724161A80500202DE9F0410768044641
:105C10000D4611F8013B2F2BFAD05C2BF8D0002356
:105C2000A3602B781F2B59D904F120060B222021C9
:105C3000304603F036F8002205F1FF3C11460820FB
:105C40001CF8013F202B01F101010DD92F2B01D0B0
:105C50005C2B4BD16818411B10F801CBBCF12F0F06
:105C6000F9D0BCF15C0FF6D00D44002A4ED094F868
:105C70002020D4F80080E52A04BF052284F82020E3
:105C8000212B34BF0423002384F82B30204603F05B
:105C900076FA00283ED1A169404603F0A5F8002815
:105CA00038D1E3691A78002A3FD0DA7A02F03F024D
:105CB000A271DA7A11070CD403F10B0C314613F8F8
:105CC000012B11F801EB6345A2EB0E0220D0002A54
:105CD000F5D00021204603F085FADAE7802384F826
:105CE0002B302046BDE8F04103F049BA2E2B30D0CE
:105CF00090420BD913F0800F08D1DFF8748018F8A8
:105D000001EFBEF1000F29D07345F8D106200AE05B
:105D1000002ADED194F82B3048B1042803D113F0C7
:105D2000040F08BF0520BDE8F0810420F2E75A0700
:105D3000F9D4A379DB060AD523693878C3F30803BD
:105D400007F13001194402F0E1FFA0606EE7052081
:105D5000E9E70B28DAD008220B2071E7A3F1610EE6
:105D6000BEF1190F01D8203BDBB2B354013267E713
:105D7000E7B100001FB5CDE9001004A8144640F8B3
:105D8000041DFFF77DFD011E15DB0D4B53F82100AF
:105D900008B100220270019808B10022027043F895
:105DA000210030B1012C08D1002201A96846FFF77B
:105DB000E3FD04B010BD0B20FBE70020F9E700BFB6
:105DC000600400202DE9F04F89B008AE0D4646F87A
:105DD0000C0D304617461C46FFF752FD0028C0F256
:105DE0003982A04B53F820300BB100221A70C6B292
:105DF000304600F0A7FAC20700F12E82430700F1F7
:105E00002D8206AA0321304600F0C0FA30B9069A66
:105E1000531EB3F5004F01D21A4201D0012306935D
:105E200047B1914BA7F500729A4203D9132009B0EC
:105E3000BDE8F08F7B1E3B42F8D1129B23F4FF7329
:105E400023F0010304930BB90E20F0E707AA012108
:105E5000304600F09BFA002840F0E58015F008037A
:105E60000393079B0CBF4FF03F094FF000094B45D0
:105E7000EAD3A3EB09037F2B0793E5D97A0A802A9B
:105E8000D4D815F0020E07D005F00701022900F062
:105E9000EB81E80740F1E881E907C7D5002A3AD14C
:105EA00072481D0B4FF0010830F8021F09B1A942DA
:105EB0001BD940F6F571B3FBF8F58D429BBF05EB9E
:105EC0004505013502356D088CBF6D00033505F2BF
:105ED000FF154FF020018CBF022701276D0A4FF0FC
:105EE000010A0291E1E15200C3E14FEA4808DBE711
:105EF000022F1DD14FF6F5718B450ED9002A40F0C7
:105F0000AF814FEA4802402AC8D9BEF1000F40F0E5
:105F1000AD81802A98D89046CBE740F6F5718B4545
:105F20000BD8002A90D14FEA4802802AB6D98BE7D5
:105F300040F6F5739B4587D801274FF40072002186
:105F4000204602F0AEFE0B224949204602F0D5FE63
:105F5000079984F80EA000230222032FE372227314
:105F6000CAF3072A4FF00102637418BF0223B1F588
:105F7000803F84F80D8084F80FA02274A37454D25B
:105F8000E174C1F307212175F82363753F230022D3
:105F90002376FF23A3766276E276494604F11C005D
:105FA00002F077FE032F4FF0210343D184F84530F0
:105FB000482384F8432084F8442084F84630294656
:105FC00004F1240002F065FE022384F82C30012342
:105FD00084F83030062384F83230802384F840304F
:105FE000244984F82D20292384F82E2084F82F209A
:105FF00084F8312084F8332084F84230132204F1ED
:10600000470002F07AFE4FF0550384F8FE316FF03E
:10601000550384F8FF314A4601232146304600F0FB
:10602000A9F9824650B3012001E704F1200002F0F3
:1060300030FEA9E784F82930482384F82A30C5F3D4
:106040000723E375802384F82430292384F827204C
:1060500084F82820A57584F826301322064904F117
:106060002B00CEE76004002000FEFF000AA700001E
:10607000B4B10000C0B10000D4B10000032F41D181
:10608000012309F106022146304600F073F94FF46E
:1060900000725146204602F004FE52234122722132
:1060A000237063706123A370E27084F8E41184F8B4
:1060B000E51184F8E62184F8E7310BF1FF3104F5AE
:1060C000F47002F0E6FD022384F8EC314FF0550342
:1060D00084F8FE316FF0550384F8FF3109F10702AF
:1060E0000123214684F8EDA184F8EEA184F8EFA104
:1060F000304600F03FF9012309EB03022146304608
:1061000000F038F9049A0021204602F0CAFD032F5E
:1061100058D1F8232370FF236370A370E3702371B9
:106120006371A371E37123726372A3720F23E3722D
:10613000129B4FEA532B5D45AA4628BFDA462146FB
:106140005346019A304600F015F9014600287FF4C5
:106150006AAF4FF40072204602F0A3FD019BB5EB3D
:106160000A0553440193E6D1029B032F08BF43461F
:106170000293029B019A5B4528BF5B46214630464D
:106180001D4600F0F7F800287FF44DAF019B2B442B
:106190000193029B5B1B0293EBD1032F1BD0079B48
:1061A000B3F5803F19D2022F14BF01230423039AB1
:1061B000AAB100221146304600F0E8F8003018BFBE
:1061C000012034E6012F5649204618BF6FF0070121
:1061D00002F05FFDACE70C23E9E70623E7E74FF4A5
:1061E00000720399204602F05CFD552284F8FE21DE
:1061F000AA2284F8FF21039A84F8BE2184F8C121E1
:10620000079A84F8C2314A4443F6C163B2FBF3F201
:10621000FE2384F8C331930843F03F03012584F83B
:10622000C43184F8C521494604F5E37084F8BF51B0
:1062300084F8C05102F02DFD079904F5E57002F0D5
:1062400028FD2B46039A2146304600F093F800289B
:10625000AFD0E8E60B20EAE50320E8E50A20E6E512
:10626000BEF1000F3FF4F0AD002A57D12D485D0C70
:10627000012230F8021F19B1A9427FF634AE002185
:10628000B3FBF2F0284F8500A0F57F40F63805F209
:106290000725B8424FEA55253FF6D6AD90460A4647
:1062A000002102914FF0200A03270AEB0901019116
:1062B0000299DDF818C06818019908440CF1FF3103
:1062C0000144032FCCF1000C01EA0C0C08BF01992A
:1062D000ACEB000C04BF61440191C9EB0811084408
:1062E0000CBFE24465448342FFF4AEADA3EB0A0B5E
:1062F0000299ABEB050B032FABEB010BBBFBF8FBE0
:106300007FF4F6AD4FF6F5718B453FF616AE002AD9
:106310007FF49AAD5FEA58023FF496AD1146AFE7BD
:10632000F8FFFF0018A70000FFFFFE0F08B5044BA1
:1063300053F8200001F010FE003018BF012008BD06
:10634000C0A6000008B5044B53F8200001F0F6FD8C
:10635000003018BF012008BDC0A6000010B5044CD5
:1063600054F8200001F006FE003018BF012010BDD7
:10637000C0A6000010B5044C54F8200001F011FE36
:10638000003018BF012010BDC0A60000012908B5CB
:1063900005D003D303290BD0042008E00521054BC9
:1063A00053F8200001F014FE003018BF012008BD92
:1063B0000421F4E7C0A60000094B70B553F8204053
:1063C0000130002653F82050A54200D870BD236844
:1063D00020465B68984700B166600C34F4E700BF64
:1063E000E0A60000104B70B5104C05461E469C42BE
:1063F00004D10E4CB44209D1002412E062681AB1F3
:1064000022681268AA420CD00C34F0E763680BB91A
:106410000C34EFE723682846196801F0FAFF0028DA
:10642000F6D1204670BD00BFD421002008210020F5
:1064300010B50446FBF7DAFA01234FF0000163F3CD
:106440000201074A074B08489B1ADB086FF3C50196
:1064500063F38F1101F07CFA204603F01BFD00BFAF
:10646000ACA40000DCA4000015B200002DE9F74345
:10647000054688464FF02003EFF3118983F3118816
:10648000BFF36F8F00F0CAFD01224FF0000362F3EB
:1064900002032B4C2B4A042DA4EB02046FF3C5031B
:1064A00096BF294A294A52F82520C4F3C90464F347
:1064B0008F130746ADF8003029460023244801F029
:1064C00080FAB8F1000F10D0D8F81C30C3F30803DD
:1064D0005BB14FF00001012363F302016FF3C501CB
:1064E00064F38F111B4801F033FA4FF000060123CB
:1064F00063F302066FF3C506384664F38F1603F0A4
:1065000019FED0B10278144B002A08BF1846FBF7D9
:106510006FF9334602463946104801F03AFA4146CF
:106520002846FFF785FF89F31188BFF36F8F384640
:1065300003B0BDE8F043FCF757BF0748E7E700BFEB
:10654000DCA40000ACA40000F8A600006EB20000BD
:1065500084B20000ACB200007CB20000CDB20000FA
:1065600008B50B4D4FF02002EFF3118382F3118831
:10657000BFF36F8F03F005FE012102280446D8BF48
:10658000084603F00EFE2C62FCF790FBEAE700BF22
:10659000680500200248034A0021121A01F082BF58
:1065A00000000020D005002008B50648064A07492B
:1065B000121A01F04AFF064A06490748BDE808409A
:1065C00001F043BF002000203022002034B300003F
:1065D0000000000034B300000000002008B50C4BA0
:1065E000012202201A70FFF7E7FE0A4A0A490B4807
:1065F00001F053F90320FFF7DFFE00F0A7FDFAF7E3
:10660000FFFE074A137B23F00103137308BD00BF8D
:10661000CF050020B9A80000E5B2000005B30000D6
:10662000F40400202DE98048A5B0FBF739F8DFF825
:10663000FCA08AF30888354D354E6B69DFF8F0B061
:10664000DFF8F090334F43F4007300246B61E023D4
:1066500085F82230EC772C766C76AC766B6A43F456
:10666000E0236B62FCF7ACFEFCF71AFB4FF0FF3344
:10667000AB62EB6207AB74222146184601F012FFB1
:10668000254D4FF00108A86020468DF82980FFF7BE
:1066900093FE4046FFF790FE00F03EFC1F4B6E62FB
:1066A0004FF400624946CDE9048330465B46CDE9AC
:1066B0000244CDE9004400F0FBFC737B304623F03C
:1066C0000403737303F063FC154B1649CDE904838F
:1066D0000F23CDE902434FF4A072134B3846CDE9A6
:1066E000004400F0E5FC7B7BEF6023F004037B7348
:1066F00005F11803C5E906332C75C5F804A05B46FF
:106700004FF4006249463046FCF7AEFA00ED00E077
:10671000F4040020800400206805002024A8000064
:106720002FB30000D010002061650000101A002077
:10673000DD650000D008002070B50E4B0E4CA34262
:1067400001D3002070BDD3E9030141EA000212F039
:1067500003020BD19D685A61AA4201D11C33EEE7B6
:106760005E690E60013259610144F5E76FF0150072
:10677000E8E700BFD42100200C22002010B513460A
:106780000C464FF02002EFF3118182F31188BFF322
:106790006F8F426962B1226043691B6843618369FC
:1067A00001338361002081F31188BFF36F8F0DE007
:1067B0001BB923606FF00B00F5E70246044800F0B8
:1067C00053FB18B9034B9B685B69236010BD00BF86
:1067D000D00500206805002070B504460D464FF036
:1067E0002003EFF3118683F31188BFF36F8F03F05B
:1067F0005DFC58B12A6842610021016703F0C7FBC4
:1068000031460948BDE8704003F09ABB2B686269C5
:106810001A602B686361A369013BA36186F3118849
:10682000BFF36F8F70BD00BFD0050020F8B50446E0
:106830000F464FF02003EFF3118583F31188BFF368
:106840006F8FC26830495AB180688E68B04215D0E7
:10685000B7B985F31188BFF36F8F6FF00F000CE0AD
:106860008B6893F90E30236101328B68E260A3607C
:1068700085F31188BFF36F8F0020F8BD2369F2E71D
:1068800090F90E3096F90E109942A8BF194621EAE8
:10689000E17199422BDA00F0FBFA06463B462246AC
:1068A00029461A4800F0E0FA0028E6D04FF020030D
:1068B000EFF3118583F31188BFF36F8F236821698C
:1068C0009C4207D033B193F90E309942A8BF1946C4
:1068D00021EAE171A06890F90E30994209D16EB1B8
:1068E00029460A4803F02CFB6FF00A00C5E7002692
:1068F000D4E700F0CDFA0028F2D1F0E785F3118853
:10690000BFF36F8FF0E700BF68050020D0050020BF
:1069100038B583680446002B36D01E4A92689342ED
:1069200035D1DA7B013ADA73C368012B05D0013B1C
:10693000C36000F0DDF8002038BD4FF02003EFF316
:10694000118583F31188BFF36F8F0169806890F917
:106950000E30994201D000F09BFA204603F0A6FBCE
:10696000A06058B190F90E2022610022026703F066
:106970000EFB2946084803F0E3FADAE7E06085F306
:106980001188BFF36F8FD4E76FF01500D4E74FF095
:10699000FF30D1E768050020D005002070B504461F
:1069A00021EAE1764FF4004540F2E73000214FF450
:1069B0007A72C5FB06010023FAF7A2FB0349421CC9
:1069C00004F11800BDE8704000F056BCAF9F000015
:1069D00010B5084C23685BB1FCF76CF82368064AD5
:1069E0001844106100211846BDE8104003F0D9BBDF
:1069F00010BD00BFA005002068050020F8B50D46B9
:106A00004FF02003EFF3118483F31188BFF36F8FEE
:106A10000D4B4FF4004140F2E7360027E1FB0067E1
:106A200000221A6130464FF47A7200233946FAF791
:106A300067FB064B1860064B1D60FFF7C9FF84F328
:106A40001188BFF36F8FF8BD68050020A0050020F6
:106A50009C0500204FF02003EFF3118183F3118890
:106A6000BFF36F8F044B9A68D37B013BD37381F3E1
:106A70001188BFF36F8F704768050020094B03F141
:106A80002802824205D19B688B4202D14B7BDB06F8
:106A900007D1D1E900231A600A6853600023C1E9D5
:106AA000003370476805002070B5104C064604F1AD
:106AB000280003F066FAA368597B0546880644BFA0
:106AC00041F00801597305B9E5684EB95A7BD20601
:106AD00006D1AA6922B9DA897F2A01D9636270BD19
