:1010000000000420B5120000DD120000DF12000015
:10101000E1120000E3120000E512000000000000F1
:10102000000000000000000000000000E7120000C7
:10103000E912000000000000EB120000ED120000B9
:101040001D3D0000EF120000813D0000EF12000086
:10105000EF120000EF120000EF120000EF1200008C
:10106000EF120000EF120000EF120000EF1200007C
:10107000EF120000EF120000EF120000EF1200006C
:10108000EF120000EF120000EF120000EF1200005C
:10109000EF120000EF120000EF120000EF1200004C
:1010A000EF120000EF120000EF120000EF1200003C
:1010B000EF120000EF12000000000000000000002E
:1010C000EF120000EF120000EF120000EF1200001C
:1010D000EF120000EF120000EF120000EF1200000C
:1010E000EF120000EF120000EF12000000000000FD
:1010F00000000000EF12000000000000E13D0000D1
:1011000000000000000000000000000000000000DF
:1011100000000000000000000000000000000000CF
:1011200000000000000000000000000000000000BF
:1011300000000000000000000000000000000000AF
:10114000000000000000000000000000000000009F
:10115000000000000000000000000000000000008F
:10116000000000000000000000000000000000007F
:10117000000000000000000000000000000000006F
:10118000000000000000000000000000000000005F
:10119000000000000000000000000000000000004F
:1011A000000000000000000000000000000000003F
:1011B000000000000000000000000000000000002F
:1011C000000000000000000000000000000000001F
:1011D000000000000000000000000000000000000F
:1011E00000000000000000000000000000000000FF
:1011F00000000000000000000000000000000000EF
:1012000010B5054C237833B9044B13B10448AFF340
:1012100000800123237010BD0802002000000000A0
:10122000C88E000008B5034B1BB103490348AFF358
:10123000008008BD000000000C020020C88E0000E5
:10124000154B002B08BF134B9D46A3F5803A002198
:101250008B460F461348144A121A03F090FF0F4BA7
:10126000002B00D098470E4B002B00D09847002051
:10127000002104000D000D48002802D00C48AFF3F7
:10128000008003F02DFF2000290003F0ADFD03F0E6
:1012900013FF00BF00000800000004200000000051
:1012A0000000000008020020A40800200000000048
:1012B000000000000649074A074B9B1A03DD043B68
:1012C000C858D050FBDC03F011FEFFF7B9FF000057
:1012D000388F00000800002008020020FEE7FEE72B
:1012E000FEE7FEE7FEE7FEE7FEE7FEE7FEE7FEE7D6
:1012F000014B01221A70704724020020704700BF82
:1013000008B5054802F0ECFE4FF0A0434FF4801200
:10131000C3F80C2508BD00BFA85A000030B587B03F
:10132000002806A814BF2123202300F8113D4FF008
:10133000A04200234FF480710B4CC2F80C1501251C
:1013400002901A4602A909482370CDE90433039597
:1013500002F020FF20B92378002BFCD007B030BD6D
:1013600001F0D4FAF7E700BF24020020A85A0000D9
:1013700070B5032898BF224B224C98BF1D5C86B0E5
:1013800006A84FF0360300F8113D4FF0A0424FF091
:1013900000034FF48071C2F80C154FF00106029063
:1013A0001A4602A91848237088BF0025CDE90433E6
:1013B000039602F0EFFEE8B92378002BFCD006A8D4
:1013C0004FF0A04200F8125D00234FF48075C2F880
:1013D000085502A9012502901A460B482370CDE951
:1013E0000433039502F0D6FE38B92378002BFCD0E5
:1013F00006B070BD01F08AFADEE701F087FAF4E783
:101400009C5A000024020020A85A00002DE9F04157
:10141000224B234F0FCB8AB04FF0A045032406AEDA
:10142000C5F82047C7F82447C5F8504786E80F009D
:101430004FF0A052062040F60B44002308928DF88E
:101440001B003146174A1848ADF8184002F004FD59
:10145000164D4FF400738046C7F80C3545F0010572
:1014600014244FF47A40A847013CFAD10C4B4FF4B6
:101470000072C3F8082514244FF47A40A847013CB1
:10148000FAD14FF0A0434FF48012C3F80825B8F109
:10149000000F0DD040460AB0BDE8F0818C5A000024
:1014A00000030050F1120000A85A0000A05A0000EA
:1014B0000AA8012700F8237D4FF48072C64CC3F8B8
:1014C0000C25314606904246C448CDF82480CDE92B
:1014D000077884F8008002F05DFE002840F0218249
:1014E0002378002BFCD096274FF47A40A847013F81
:1014F000FAD10AAB11214FF0A04203F8221D4FF49C
:101500008071C2F80C154FF0010C3A463146B348D1
:101510000693CDE908772770CDF81CC002F03AFE9B
:10152000002840F034822378002BFCD00A274FF4A7
:101530007A40A847013FFAD10AAB3A214FF0A042C6
:1015400003F8211D4FF48071C2F80C154FF0010C07
:101550003A463146A1480693CDE908772770CDF881
:101560001CC002F017FE002840F00E822378002BEA
:10157000FCD00AA9552301F8203D4FF0A0420023DA
:101580004FF48070C2F80805012706911A463146CB
:1015900092482370CDE90833079702F0FBFD00283D
:1015A00040F0EF812378002BFCD00A274FF47A40DB
:1015B000A847013FFAD10AAB36214FF0A04203F809
:1015C0001F1D4FF48071C2F80C154FF0010C3A4604
:1015D000314682480693CDE908772770CDF81CC0C4
:1015E00002F0D8FD002840F0C9812378002BFCD000
:1015F0000AA9A82301F81E3D4FF0A04200234FF492
:101600008070C2F80805012706911A4631467348D2
:101610002370CDE90833079702F0BCFD002840F0A5
:10162000AA812378002BFCD00AA92A2301F81D3DAA
:101630004FF0A04200234FF48070C2F80C05012740
:1016400006911A46314665482370CDE9083307975D
:1016500002F0A0FD002840F08B812378002BFCD005
:101660000AA8002300F81C3D4FF0A0424FF48071FF
:10167000C2F80815012706901A46314657482370CC
:10168000CDE90833079702F085FD002840F06D8111
:101690002378002BFCD00AA9502301F81B3D4FF002
:1016A000A04200234FF48070C2F80805012706917C
:1016B0001A46314649482370CDE90833079702F0AE
:1016C00069FD002840F04E812378002BFCD00AA849
:1016D000012700F81A7D4FF0A04200234FF48071DB
:1016E000C2F8081506901A4631463C480993CDE9E0
:1016F0000773237002F04EFD002840F030812378FC
:10170000002BFCD00AA93F2301F8193D4FF0A0425D
:1017100000234FF48070C2F80805012706911A468D
:1017200031462E482370CDE90833079702F032FD89
:10173000002840F011812378002BFCD00AA92B232C
:1017400001F8183D4FF0A04200234FF48070C2F81A
:101750000C05012706911A46314620482370CDE931
:101760000833079702F016FD002840F0F280237836
:10177000002BFCD00AA8002300F8173D4FF0A04230
:101780004FF48071C2F80815012706901A463146B9
:1017900012482370CDE90833079702F0FBFC0028BC
:1017A00040F0D4802378002BFCD00AA8002300F856
:1017B000163D4FF0A0424FF48071C2F80815012782
:1017C00006901A46314605482370CDE9083307973D
:1017D00002F0E0FC04E000BF24020020A85A000050
:1017E000002840F0B0802378002BFCD00AA800230A
:1017F00000F8153D4FF0A0424FF48071C2F8081573
:10180000012706901A46314662482370CDE9083315
:10181000079702F0BFFC002840F092802378002B4D
:10182000FCD00AA9EF2301F8143D4FF0A042002399
:101830004FF48070C2F80805012706911A46314618
:1018400054482370CDE90833079702F0A3FC002821
:1018500073D12378002BFCD00AA9212301F8133D72
:101860004FF0A04200234FF48070C2F80C0501270E
:1018700006911A46314647482370CDE90833079749
:1018800002F088FC002855D12378002BFCD00A27D1
:101890004FF47A40A847013FFAD10AAB13214FF029
:1018A000A04203F8121D4FF48071C2F80C154FF0DE
:1018B000010C3A46314637480693CDE90877277040
:1018C000CDF81CC002F066FC88BB2378002BFCD04E
:1018D0000A274FF47A40A847013FFAD10AAB2921E1
:1018E0004FF0A04203F8111D4FF48070C2F80C05B0
:1018F00031463A46012627480693CDE908772770F6
:10190000079602F047FC78B92378002BFCD00A2414
:101910004FF47A40A847013CFAD140460AB0BDE8EE
:10192000F08100F0F3FFDBE500F0F0FFECE700F002
:10193000EDFFCAE700F0EAFFA6E700F0E7FF88E75F
:1019400000F0E4FF6AE700F0E1FF4CE700F0DEFFA3
:1019500028E700F0DBFF0AE700F0D8FFEBE600F035
:10196000D5FFCCE600F0D2FFAEE600F0CFFF8FE669
:1019700000F0CCFF71E600F0C9FF52E600F0C6FFB0
:1019800033E600F0C3FF0DE600F0C0FFEEE500F027
:10199000BDFFC8E5A85A00002DE9F04F89B00DF150
:1019A000200E2A244FF0A0450EF8114D4FF0000CE8
:1019B0004FF48076AC4CC5F80C6500F1500902F18B
:1019C00050070E464FF0010B04A96246A748CDF818
:1019D00010E01D461FFA89FA1FFA87F8CDE906CCF8
:1019E00084F800C0CDF814B002F0D4FB002840F019
:1019F00019812378002BFCD008A94FEA1A2A01F894
:101A000012AD4FF0A04200234FF48070C2F80805D9
:101A10004FF0010C04911A4604A994482370CDE9B3
:101A20000633CDF814C002F0B5FB002840F0188151
:101A30002378002BFCD008A94FF0A04201F8139D99
:101A400000234FF48070C2F808054FF0010C049198
:101A50001A4604A985482370CDE90633CDF814C091
:101A600002F098FB002840F0F8802378002BFCD08F
:101A700008A94FEA182801F8148D4FF0A04200235E
:101A80004FF48070C2F808054FF0010C04911A461B
:101A900004A976482370CDE90633CDF814C002F0CE
:101AA00079FB002840F0D6802378002BFCD008A9D1
:101AB0004FF0A04201F8157D00234FF48070C2F86A
:101AC0000805012704911A4604A968482370CDE946
:101AD0000633059702F05EFB002840F0B8802378BB
:101AE000002BFCD008A92B2301F8163D4FF0A04293
:101AF00000234FF48070C2F80C05012704911A46A8
:101B000004A95A482370CDE90633059702F042FB39
:101B1000002840F099802378002BFCD008A80023EF
:101B200000F8173D4FF0A0424FF48071C2F808153D
:101B3000012704901A4604A94C482370CDE90633C6
:101B4000059702F027FB00287BD12378002BFCD0DF
:101B500008A94FF0A04201F8186D00234FF48070DF
:101B6000C2F80805012604911A4604A93F482370CB
:101B7000CDE90633059602F00DFB00285ED12378EF
:101B8000002BFCD008A8002300F8193D4FF0A0421C
:101B90004FF48071C2F80815012604901A4604A972
:101BA00032482370CDE90633059602F0F3FA002897
:101BB00041D12378002BFCD008A94FF0A04201F8B6
:101BC0001A5D00234FF48070C2F8080501250491C6
:101BD0001A4604A925482370CDE90633059502F07D
:101BE000D9FA28BB2378002BFCD008A82C2300F8B6
:101BF0001B3D4FF0A04200234FF48075C2F80C55F6
:101C000004A9012504901A4618482370CDE906332B
:101C1000059502F0BFFA40B92378002BFCD009B03B
:101C2000BDE8F08F00F072FEE3E600F06FFEF3E730
:101C300000F06CFED6E700F069FEBAE700F066FE41
:101C40009DE700F063FE80E700F060FE63E700F0D0
:101C50005DFE44E700F05AFE26E700F057FE04E779
:101C600000F054FEE4E600BF24020020A85A000061
:101C700070B5C0B2CBB286B0144619460246FFF723
:101C80008BFE04F4FC6242EAC42242EAD4224FF002
:101C9000A041150A00234FF48070114C8DF80520E7
:101CA0008DF8045001AEC1F8080502251A4602A9B4
:101CB0000C482370CDE90433CDE9026502F06AFADD
:101CC00050B92378002BFCD04FF0A0434FF4807222
:101CD000C3F80C2506B070BD00F018FEF1E700BF98
:101CE00024020020A85A0000F0B587B01E46C0B2FA
:101CF000C9B21546013B013A0C9C0B440244DBB2CD
:101D0000D2B2FFF749FE04F4FC6305FB06F543EA93
:101D1000C42343EAD42305F007024FF0A0411C0A74
:101D200007354FF48070013A8DF804408DF8053086
:101D3000ED10C1F8080501AE5F4C02AF062A08D8C5
:101D4000DFE802F08F7D6955422F1B00013D00F056
:101D50009B8000234FF0020C1A46394657480296E2
:101D6000CDE904332370CDF80CC002F013FA00283B
:101D700040F09E802378002BFCD000234FF0020C13
:101D80001A4639464D480296CDE904332370CDF802
:101D90000CC002F0FFF908B100F0B8FD2378002B69
:101DA000FCD000234FF0020C1A46394643480296F5
:101DB000CDE904332370CDF80CC002F0EBF9002814
:101DC00073D12378002BFCD000234FF0020C1A466D
:101DD00039463A480296CDE904332370CDF80CC059
:101DE00002F0D8F900285DD12378002BFCD0002325
:101DF0004FF0020C1A46394630480296CDE90433BA
:101E00002370CDF80CC002F0C5F908B100F07EFDDA
:101E10002378002BFCD000234FF0020C1A463946E1
:101E200026480296CDE904332370CDF80CC002F0A9
:101E3000B1F908B100F06AFD2378002BFCD0002333
:101E40004FF0020C1A4639461C480296CDE904337D
:101E50002370CDF80CC002F09DF900BB2378002B55
:101E6000FCD000234FF0020C1A4639461348029664
:101E7000CDE904332370CDF80CC002F08BF958B9CA
:101E80002378002BFCD061E74FF0A0434FF4807221
:101E9000C3F80C2507B0F0BD00F038FDF0E700F006
:101EA00035FDDBE700F032FD9EE700F02FFD88E70F
:101EB00000F02CFD5EE700BF24020020A85A0000BD
:101EC000F0B595B0002415460F4608461E4601F0B1
:101ED00011FE384623460895082205A91A9D099641
:101EE0000D950A948DF82C400C9401F05DFE9DF840
:101EF00014308DF81140DDE9061003F00302012AC9
:101F0000CDE9020127D0022A04D0384601F0F6FDBF
:101F100015B0F0BDBDF81650C3F3C2038DF81030F4
:101F2000AD090826082D2C4628BF08243346224632
:101F30000EA9384601F038FE2D1B214608AB02AA37
:101F40000EA8264400F032FC002DEBD1384601F0FB
:101F5000D5FD15B0F0BDBDF81460059DC6F3831620
:101F6000C3F3C204B2000EA9384608238DF810400E
:101F7000C5F3952501F018FE08AB324628460EA998
:101F8000009302AB00F06CFB384601F0B7FD15B0D2
:101F9000F0BD00BF014B01221A707047680200209B
:101FA000704700BF00B583B0044B0093044A402340
:101FB000FFF786FF03B05DF804FB00BFC51F0000FC
:101FC0002802002038B50E480E4D03780E4CEB5C0D
:101FD0000025D2B2257053B90C3002F0F9FB58B984
:101FE0000A4B1B7813B12378002BFCD038BD04308A
:101FF00002F0A4FE0028F3D000F088FCF0E700BF58
:10200000100000209C08002068020020250200200B
:1020100070B51348134A0378D35C88B0DBB90C3031
:1020200002F058FB104D0FCD6C460FC495E80F0021
:1020300008AD102645F8206D84E80F0029460022DF
:10204000074801F027FE08B100F060FC074B0022B2
:102050001A7008B070BD043002F0D6FDE2E700BF90
:10206000100000209C080020D05A0000250200200B
:1020700070B50D4D0FCD88B06C460FC495E80F00BC
:1020800008AD102645F8206D84E80F002946074A60
:10209000074801F0FFFD08B100F038FC054B0122B4
:1020A0001A7008B070BD00BFD05A0000951F000024
:1020B000100000202502002008B5FFF7D9FF0421F9
:1020C000034800F083FA034B01225A7108BD00BF98
:1020D0000C8F000024000020F0B5324C85B004F5D0
:1020E000836000F08FFC04F2144000F08BFCD4E914
:1020F000013703EA0702D01C04EB800114F820002A
:1021000010F0040044D003F1020C0E7806F0030630
:10211000012E654635D0022E02F1030621D004EBD4
:1021200086010028F1D104EB82020133D2680192CA
:102130003B4004EB830302F00302012ADE6829D04E
:10214000022A23D1BDF806309B090333360C05EB78
:102150009305154800F062FC00B16560304605B09B
:10216000F0BD4B880CEB931307EA0302D11C03F17B
:10217000020C14F82100654604EB810100F0040014
:10218000CFE70B88C3F383136344EDE70026E0E752
:102190009D1CC8E7BDF80430C3F38313360C1D44FF
:1021A000D7E700BF3C030020500700200B4B0C4832
:1021B00010B50022FF21C3F818249960C3E900225A
:1021C000C3F8142483F8202401F050FC044610B90D
:1021D000044801F01DFD204610BD00BF3C03002057
:1021E0001C8F0000105B000021B9124B03EBC000F4
:1021F00000687047104A0F49521AD20815D030B4FF
:102200000E4D2B88834212D0002303E035F8234083
:10221000844205D001339A42F8D1002030BC704787
:1022200001EBC300006830BC704710467047084699
:10223000F8E700BFCC8E00000C8F000008020020E1
:10224000094B013903EBC00003290BD8DFE801F08B
:1022500002080604022070474079704700797047F1
:102260000420704700207047CC8E00002DE9F84311
:10227000DFF8D890074600208846D9F8084000F0DB
:102280008DFBD9E90132D9F80060134401339B1B5F
:10229000012B56D809F21C450121284600F09AFB73
:1022A000FFF71AFF0146284600F094FBD9E90132F6
:1022B000D9F80010134401335B1A012BECD90A4002
:1022C000033205230231002049F82230C9F80010FA
:1022D00000F06CFB00211C4800F072FB80F3100042
:1022E000731C234009EB830300043440033440EAA9
:1022F0001740D86019F8243067F3C50309F8243073
:1023000039F824306FF3891329F8243059F8242040
:1023100068F39F221346012161F301036FF38203E7
:1023200049F8242009F8243099F820341BB906E034
:1023300000F00EF818B1D9E900329A42F8D1BDE8A0
:10234000F8833146BBE700BF580700203C0300205C
:102350002DE9F047914C002384B0C4F81834BFF342
:102360004F8FD4E9015605EA0602D31C04EB830122
:1023700014F82330580719D527680B7803F00303A6
:10238000012B43D0022B03D14B88023505EB93156B
:1023900006EA0502D4F81804D31C04EB830128B91B
:1023A000AF4239D914F823305B07E6D404EB82023C
:1023B0006B1CD2680192334004EB830302F00302EA
:1023C000DB680293022A05F1020700F08980012AE6
:1023D00026D0D4F810543DB12B6828469B68984706
:1023E000EB681D68002DF7D16D486E4B6E49C01A21
:1023F000C008000440F00200FFF738FFD4E90030C5
:10240000C01A18BF012004B0BDE8F0870B88023560
:10241000C3F383131D44BBE7676004B0BDE8F087D6
:10242000BDF804206148C2F38313062B28BF06239E
:1024300063F3891202339900ADF8042001F018FB10
:1024400080460028C5D001F055FB0023082201A9D1
:10245000404601F075FBBDF8043013F4707F00F0C6
:102460009B806FF0010AAAEB050A082506EA07011E
:1024700003312B46042204EB8101404601F060FB4E
:10248000BDF8043007F101090AEB0902C3F3831315
:1024900093424F4605F10405E8D8D4F81834002BD0
:1024A00064D1D4F8105465B1EB685A792846414696
:1024B000002A57D02B681B689847EB681D68002DD1
:1024C000F2D1404601F01AFB002000F067FAD4F880
:1024D00018340BB9C4F80490002000F067FA8DE7B7
:1024E000BDF8063031484FEA93194D46502D28BFAC
:1024F000502565F38F1305F10801ADF8063001F0A2
:10250000B7FA804600283FF464AF26EA070A0AF1CA
:10251000010A01F0EFFA4FEA8A0A0023082201A912
:10252000404601F00DFB55452BD9EBB2BAF1000F37
:1025300020D006EA0701A3EB0A03033104EB810173
:10254000DDB252460823404601F0FAFA2A460AF163
:1025500008031749404601F0F3FA09F1030907EBB4
:1025600099099AE71D68002D9ED1AAE7404601F01F
:10257000C5FA43E72A4608230D49404601F0E0FA30
:10258000EBE706EA0701033104EB81012A46082341
:10259000404601F0D5FAE0E7B9467EE73C0300206B
:1025A000F48E0000CC8E00001C5B00001C8F00002D
:1025B00048030020044BD3E900239A4201D0FFF7DF
:1025C000C7BE0020704700BF3C03002030B4184D48
:1025D000D5F8104400215CB1E3681A798A4204D12D
:1025E00016E0DB681A798A4212D01B68002BF8D1FA
:1025F000C3681971D5F8103493B1DA68C3681268EA
:102600001A60D5F81034DB68186030BC0846704793
:1026100001310A29DFD14FF0FF31084630BC704745
:10262000C5F81004C2681360084630BC704700BF8C
:102630003C03002038B5094BD3F81044012583F83A
:1026400020544CB1E3685D71236820465B6898476D
:10265000E3681C68002CF5D138BD00BF3C030020A6
:102660002DE9F04784B01D460C9C002394F80C80A3
:102670002373EB8881460E461746002B40D1297AFA
:1026800005290ED06B7AA88873BB404B53F821A064
:102690000021FFF7A9FD524603463D49204600F0C0
:1026A00029FA062F09D8DFE807F0046A4249525D8B
:1026B00033004946204600F01DFA2B7A052B05D041
:1026C0006B7A5BB93349204600F014FA204600F0DB
:1026D00005FA84F80C8004B0BDE8F0872E4A2F4933
:1026E000204600F007FAEDE7FFF7AAFD2C4B2B4937
:1026F00053F82020204600F0FDF9297AA888C4E785
:10270000254A00922749284A204600F0F3F9B6E707
:10271000D6E90410D6E900230390D6E90207029116
:10272000CDE900074946204600F0E4F9C5E74946EF
:10273000D6E90023204600F0DDF9BEE7B168D6E90E
:10274000002320460091494600F0D4F9B5E7D6E9C8
:102750000201D6E90023019100904946204600F08D
:10276000C9F9AAE7D6E90371B068D6E90023029156
:10277000CDE900074946204600F0BCF99DE73268E4
:102780004946204600F0B6F997E700BFA85B000075
:10279000985B0000A45B00008C5B0000945B000071
:1027A000345B0000745B00006C5B0000082900D9FA
:1027B00070472DE9F04F1D46904600232A7B2B736E
:1027C00085B0B8F80630039207460E46002B7BD141
:1027D00098F80810052911D098F80930B8F80400C5
:1027E000002B63D13C4B53F821400021FFF7FCFC48
:1027F000224603463949284600F07CF9DFF8FCB050
:10280000DFF8FC90002405E03A5D013400F072F935
:10281000082C09D0A64249462846F5D85946013425
:1028200000F068F9082CF5D12D49DFF8D8B0DFF8B1
:10283000D890284600F05EF900240CE017F804A0B8
:10284000BAF17E0F23D92E2249462846013400F0E2
:1028500051F9082C08D0A642F0D859462846013430
:1028600000F048F9082CF6D198F80830052B02D072
:1028700098F80930A3B91B49284600F03BF92846CF
:1028800000F02CF9039B2B7305B0BDE8F08F02F02C
:102890004BFC50445246437813F0970FD3D0D3E704
:1028A000114A1249284600F025F9E4E7FFF7C8FC71
:1028B0000F4B0E4953F82020284600F01BF998F8DA
:1028C0000810B8F804008DE7074A009209490A4A3F
:1028D000284600F00FF97BE7A85B0000985B00003A
:1028E000645B0000A45B00008C5B0000945B000054
:1028F000345B0000745B00006C5B0000605B0000F8
:10290000585B0000A05B0000685B000000B585B06C
:1029100000230390194601AA44F20100CDE90133D6
:1029200000F004F805B05DF804FB00BF10B572B606
:10293000FFF780FEFFF73EFE0028FBD1104B114C45
:102940001149E41AE408240444F00100FFF78EFC66
:102950000E4B1B68DB0700D500BE44F002000C499B
:10296000FFF784FCBFF34F8F0A490B4BCA6802F490
:10297000E0621343CB60BFF34F8F00BFFDE700BFA2
:10298000CC8E0000F48E0000145C0000F0ED00E03E
:10299000205C000000ED00E00400FA0572B6024A77
:1029A0001368013313607047F8070020034A136867
:1029B000013B136003B962B6704700BFF8070020FF
:1029C00050E8002F0B4640E8003C9CF0000FF7D188
:1029D0001046704750E8003F03EB010240E8002C2E
:1029E0009CF0000FF6D11046704700BF50E8003F42
:1029F000A3EB010240E8002C9CF0000FF6D110463A
:102A0000704700BF012350E8002F42EA030C40E862
:102A100000C191F0000FF6D160467047002350E8E6
:102A200000CF0CEA030240E8002191F0000FF6D13C
:102A300060467047B8B130B4D0E90112521A046848
:102A4000D2B2531E2160DBB242B101680A685C1E3B
:102A5000551C0D601370E3B2FF2BF6D10368002004
:102A6000187130BC70470E20704700BF38B504465F
:102A70000020FFF793FFD4E900311A688A4215D984
:102A8000511E19602168A3680868258A12F8012C74
:102A9000E4681B1A0879DBB2984205FB024400D2B5
:102AA0000B710020FFF782FF204638BD0024F8E7B5
:102AB00038B5054600200C46FFF770FF2A681368FA
:102AC000591C1160E9682A8A641AB4FBF2F41C707C
:102AD0000020BDE83840FFF769BF00BF826842B1FF
:102AE00010B5044643690168006998470023A36054
:102AF00010BD70470EB400B582B0039929B102AA87
:102B000004AB42F8043D00F0A9F802B05DF804EB14
:102B100003B070472DE9F04F924683B051450F4600
:102B200005461E46DDE90CB2C0F092800B464FF020
:102B30000108B3FBFAF39A4508F10108F9D9B04549
:102B400038BFB04612F00109A96802D1BBF1000FED
:102B500054D1012402E0013E0AFB04F4012EFAD80C
:102B6000B7FBF4F08245F7D93B4E02E0A968B7FB0A
:102B7000F4F0335C2A680A2B04FB107702EB010E99
:102B800001F1010029D0A8608EF80030D5E90131AB
:102B9000994202D32846FFF7A1FFB4FBFAF4002CB8
:102BA000E4D1B9F1000F15D0BBF1000F12D0C3452D
:102BB00010D92024AB682A68591CA960D454D5E9DF
:102BC00001329A420BF1FF3B14D2BBF1000F01D04E
:102BD000C345EFD103B0BDE8F08FA8604FF00D0002
:102BE0005054D5E9011088421DD2296801EB000E2E
:102BF0000130C8E72846FFF771FFE6E7930722D4C4
:102C00002024C345A5D92B684A1CAA605C54D5E989
:102C1000013199420BF1FF3B10D2BBF1000F98D06C
:102C2000C345F0D195E728460193FFF757FFAA68FF
:102C30002968019B501C01EB020EA4E72846FFF710
:102C40004DFFA968E9E7002E0CBF30242024D8E707
:102C50004FF0010873E700BF305C0000002900F06E
:102C6000B9822DE9F04F054687B091460C460E78A3
:102C7000DFF8C8A64FF00D0B13E0AB6828680A2EEA
:102C800003F1010200EB030100F04B82AA600E7019
:102C9000D5E901329A4280F01B812678002E00F09F
:102CA0001E810134002E00F01A81252EE5D1234625
:102CB000002713F8012B2D2A00F0E380302A00F0C2
:102CC000E4802B2A00F0D4802A2A00F00D81A2F1A2
:102CD0003006F1B2092903D97DE2A1F1300603469D
:102CE000184606EB860110F8012BA2F13004092CDE
:102CF00002EB4101F1D92E2A00F002814FF00008C9
:102D0000013301E013F8012B02F0FB0168291C4696
:102D1000F8D0253A532AC0D801A353F822F000BFB7
:102D20000B3100009B2C00009B2C00009B2C000012
:102D30009B2C00009B2C00009B2C00009B2C000077
:102D40009B2C00009B2C00009B2C00009B2C000067
:102D50009B2C00009B2C00009B2C00009B2C000057
:102D60009B2C00009B2C00009B2C00009B2C000047
:102D70009B2C00009B2C00009B2C00009B2C000037
:102D80009B2C00009B2C00009B2C00009B2C000027
:102D90009B2C00009B2C00009B2C00009B2C000017
:102DA0009B2C00009B2C00009B2C00009B2C000007
:102DB0009B2C00009B2C00009B2C00009B2C0000F7
:102DC0009B2C00009B2C00009B2C00009B2C0000E7
:102DD0009B2C00009B2C00009B2C00009B2C0000D7
:102DE0009B2C00009B2C00009B2C0000EF3000006F
:102DF0009B2C00009B2C00009B2C00009B2C0000B7
:102E00009B2C00009B2C00009B2C00009B2C0000A6
:102E10009B2C00009B2C0000932E000075300000BE
:102E20009B2C00009B2C00009B2C00009B2C000086
:102E3000753000009B2C00009B2C00009B2C000098
:102E40009B2C00009B2C00009B2C0000DD2F000021
:102E50009B2C00009B2C0000552F00009B2C000099
:102E6000392F00009B2C00009B2C0000EF3000004D
:102E700047F004071C46234613F8012B2D2A7FF444
:102E80001DAF47F001071C46F5E747F002071C4657
:102E9000F1E7D9F800301A1DC9F800201E78AB6898
:102EA0000A2E0CD12A68591CA96002F803B0D5E992
:102EB0000123934203D32846FFF710FEAB682A682C
:102EC000591CA960D654D5E901329A42FFF4E5AE07
:102ED0002846FFF703FE2678002E7FF4E2AE2B7B18
:102EE00023BB07B0BDE8F08FD9F80020111DC9F849
:102EF0000010166862782E2A04F102007FF4FEAEFC
:102F00005A78A2F13003092B00F2BD814FF000087E
:102F100008EB880802EB480810F8012FA2F13003F3
:102F2000092BA8F13008F3D90346E9E6284607B093
:102F3000BDE8F04FFFF7D2BDD9F800301A1DC9F82F
:102F4000002019680197434600960A222846FFF799
:102F5000E1FDA2E6D9F800301A1DC9F80020D3F827
:102F60000080FB0700F1E880B8F1000F00F0A181BC
:102F7000404602F02DF90746BE4215D9A6B12021E0
:102F800000E08EB1AA682B68501CA8609954D5E95E
:102F900001329A4206F1FF3604D328460391FFF727
:102FA0009DFD0399BE42ECD108F1FF3818F8016F7E
:102FB000002E3FF472AEAB6828680A2E03F10102BE
:102FC00000EB030100F09081AA600E70D5E9013298
:102FD0009A42EBD32846FFF781FDE7E7D9F80020B6
:102FE000131DC9F80030AB6829681768581C3022D7
:102FF000A860CA54D5E90123934280F0E6802A688C
:10300000581C7821A860D154D5E90123934280F05F
:10301000D7800F2F03D93A4612090F2AFCD84FF058
:1030200080560DE0AA6081F80080D5E901329A420D
:1030300002D32846FFF752FD36093FF42EAEAB68A7
:10304000B7FBF6F21AF802802868B8F10A0F06FBFF
:10305000127700EB030103F10102E3D1AA6000F84B
:1030600003B0D5E901329A4280F049812B68991862
:103070000132D7E7D9F800301A1DC9F800201968C5
:1030800081EAE173A3EBE173092B40F30E81AA48B7
:103090000122A0FB03C3DB08092B02F10102F8DCCB
:1030A0004245134638BF4346039307F00203002E00
:1030B00040F09580002B00F0B780B8F1000F00F0D1
:1030C000F680F80740F1B0800029C0F2FF807A074F
:1030D00000F1C88007F00303022B00F0A780CDE9C0
:1030E000006743460A222846FFF714FDD5E5D9F8C4
:1030F00000301A1DC9F80020196801974346009650
:1031000010222846FFF706FDC7E5AB682A68581C61
:103110002521A860D154D5E901329A42FFF4BDAD12
:10312000D6E6AA6000F803B0D5E901329A423FD250
:10313000296811440132A9E54146A1EB080311F8C1
:10314000017BD7B1AB68D5F800C00A2F03F10102AB
:103150000CEB030000F0AF80AA600770D5E90132E4
:103160009A42EAD328460391FFF7B8FC0399A1EBF2
:10317000080311F8017B002FE4D19E427FF68DAD4C
:10318000202702E0002E3FF488ADA9682A68481C79
:10319000A8605754D5E90121914206F1FF3604D3C6
:1031A00028460393FFF79AFC039BB342EAD174E5E8
:1031B0002846FFF793FCAB6829685A1C194465E55B
:1031C0002846FFF78BFCAB6823E72846FFF786FC11
:1031D000AB6814E770471846002623468BE50029A4
:1031E00020DB7A071ED41BB1B8F1000F3FF46CAF9F
:1031F000F8073FF569AFBEB1039BB342BFF464AFBC
:103200002023AA68501CA86028688354D5E90102CD
:10321000824206F1FF3640D236B1039AB242F0D173
:10322000164651E7013EDEE700264DE7B8F1000FF4
:103230007FF455AF002E6AD0039BB342BFF44FAF6B
:103240003023AA68501CA86028688354D5E901027D
:10325000824206F1FF3618D2002E58D0039AB242AD
:10326000EFD13CE7AA68531CAB602B682B20985425
:10327000D5E901329A42FFF42DAF28460491FFF7B9
:103280002DFC049926E7034638E52846CDE90413CA
:10329000FFF724FCDDE90413DEE72846CDE904133B
:1032A000FFF71CFCDDE90413B6E70122F8E6464609
:1032B0000AE7474660E6AA600CF803B0D5E9013298
:1032C0009A4226D22B689818013245E7AA68531C07
:1032D000AB602B682D209854D5E901329A42C1F198
:1032E0000001FFF4F7AEC8E7AA6000F803B0D5E923
:1032F00001329A4217D229681144013264E6284605
:10330000FFF7ECFBA9682B684A1C19448AE60026E3
:10331000E5E628460391FFF7E1FBA8682B680399CF
:10332000421C184418E72846FFF7D8FBAB68296809
:103330005A1C194448E600BFCDCCCCCC305C000010
:103340002DE9F04F85B01546BDF9389001931A4626
:103350000746581A4FF6FF7391422CBF98464FF01C
:1033600001084D45B8BF01230C46009301F0A0FEB3
:103370008346A9EB050001F09BFEFB699A8801B228
:10338000A24206460FFA8BFA039107D95B88AB423B
:1033900004D9BB680F9A294620469847039B9A4553
:1033A0001A463ADB7600B6B2A3EB0A0AA6EB0B0B81
:1033B0004FEA4A0A444402960FFA8BFB1FFA8AFA34
:1033C000A4B2009E13E035440AEB030BADB20FFA32
:1033D0008BFBFB699A88A24220460F9A294604D9A2
:1033E0005B88AB4201D9BB6898474444A4B2A94565
:1033F0001FFA8BF308D0BBF1000FE4DA029A02EB5C
:10340000030B0FFA8BFBE4E7A4EB0802019992B2DD
:103410009142F0D105B0BDE8F08F4FEA4B0B1FFA97
:103420008BF3AAEB020B9E1B4FEA4B0B029336B2B7
:103430001FFA8BFB2B4611E08CB206B21FFA8AFCF6
:10344000FB699A88A24261460F9A204604D95B889C
:10345000634501D9BB6898471FFA8AF3009DB2B251
:10346000994502EB0B0004EB080103EB050A0AD0B7
:10347000002EE1DA02995618009A03EB020A36B2DE
:103480001FFA8AFCDCE7019DAC42F1D105B0BDE832
:10349000F08F00BF10B503680446984710B9E36980
:1034A00001221A7010BD00BF2DE9F04FC3690D88CD
:1034B0009C88A54283B003D98F885E88B74275D8AF
:1034C0004E88A64203D95B88CC889C426ED8804641
:1034D0008888281A0C46914601F0EAFDE3880546E3
:1034E0006088C01A01F0E4FD85422EDC2688A3889E
:1034F000B4F808A067889E424FF0000B52462ED0C9
:10350000E588BD422BD0BAF1000F53D0CAB14FF0BD
:10351000000A03E026886788A388E58853440AEBFD
:1035200006012DB29BB289B2CDE900593A46404618
:10353000FFF706FF0AF1010A23891FFA8AFA5345A9
:10354000E8D8002003B0BDE8F08F2688A388B4F83F
:1035500008B067889E424FF0000A5A46D0D1981BA7
:1035600001F0A6FD63880546E088C01A01F0A0FDC1
:10357000D8F81C2093889E42E3D25188B942E0D902
:10358000AA449B1B1FFA8AF29A425844A1EB0701F6
:10359000C8BF9AB283B28B42CDF80090C8BF8BB23D
:1035A000D8F80C4039463046A047CAE7072003B098
:1035B000BDE8F08FBBF1000F1AD022B9C1E7268811
:1035C0006788A388E588CDF80490554407EB0A0284
:1035D0002DB2009592B231464046FFF7B1FE0AF196
:1035E000010A23891FFA8AFA5345E8D80020A9E77F
:1035F0002DB24046CDE900593A463146FFF7A0FECC
:103600005846D4E72DE9F0438E8887B0012E9DF807
:1036100038C02DD0CD88012D2AD05400B44227DCEB
:10362000AC4225DC1746C269B1F802E099468046F3
:103630009388088898420C461ED8BCF1000F25D00C
:10364000984252881ED272451CD91B1AA2EB0E0258
:103650009E42C8BF9EB29542C8BF95B2CDF80090B9
:10366000D8F80C402B4632467146A047002000E0B7
:10367000072007B0BDE8F08353887345F8D3BCF149
:10368000000F03D0002007B0BDE8F08306EB000C6C
:1036900003A9ADF80C004A464046ADF80EE0ADF87F
:1036A00012E0ED1BADF810C0ADF81470FFF7FCFE92
:1036B00063882288B4F804C0ADF80C20ADB22B4466
:1036C0009BB2944403A94A464046ADF80E30ADF88B
:1036D0001230ADF810C0FFF7E7FE6388B4F800C001
:1036E000ADF80CC05A1903A93B44ADF8122040466E
:1036F0004A46ADF80E30ADF810C0FFF7D5FE23886E
:1037000064881E44F61BB6B203A94A4640462544C7
:103710002744ADF80C60ADF81060ADF81250ADF86C
:103720000E70FFF7C1FE0020A3E700BFC3699A88AF
:103730005AB15B884BB110B582B00C4600940021A1
:10374000C4680846A04702B010BD70472DE9F04F8D
:103750008BB0D0F81CB0DDF850A09DF85450BBF8E9
:103760000240009281469AF800000693CDE90815C0
:1037700049880591241AA14200F372811B78002B1D
:1037800000F06A81089A9AF8014012880492BBF806
:1037900004E05A4633E0B449DAF80470A1FB005162
:1037A000059DC908054411FA85F189B2059108996A
:1037B000098804911B1BDBB217F823300499AEEB88
:1037C0000303994214DD099B002B00F04581089DFD
:1037D000A54B2D880495A3FB0013059D518800EB94
:1037E000D3031D44ABB2091A8B42059300F3348115
:1037F000069911F8013F0691002B00F02D810A2B4C
:10380000C9D0202B00F02281191BC9B2DAF804704C
:103810004FEA810B17F82110002800F00881049B63
:10382000059E0731C910073302914FF0000889B295
:103830009BB20191CDF80C80079307EB0B01029B23
:10384000002B00F00181079C0025DAF80830488839
:1038500043442B441B5CD80918D0E01F80B2864536
:1038600014D9B2F802C0B44510D9D9F80830009A7A
:1038700031469847DAE9017307EB0B014344D9F865
:103880001C204888B2F804E02B441B5C580618D56D
:10389000A01F80B2704514D2B2F802C0B44510D94E
:1038A000D9F80830009A31469847DAE9017307EBF6
:1038B0000B014344D9F81C204888B2F804E02B449B
:1038C0001B5C980618D5601F80B2704514D2B2F800
:1038D00002C0B44510D9D9F80830009A314698474B
:1038E000DAE9017307EB0B014344D9F81C2048883F
:1038F000B2F804E02B441B5CD80618D5201F80B218
:10390000704514D2B2F802C0B44510D9D9F80830C5
:10391000009A31469847DAE9017307EB0B014344FB
:10392000D9F81C204888B2F804E02B441B5C180727
:1039300018D5E01E80B2704514D2B2F802C0B4456A
:1039400010D9D9F80830009A31469847DAE901735E
:1039500007EB0B014344D9F81C204888B2F804E077
:103960002B441B5C580718D5A01E80B2704514D29A
:10397000B2F802C0B44510D9D9F80830009A3146DF
:103980009847DAE9017307EB0B014344D9F81C208F
:103990004888B2F804E02B441B5C980718D5601ED9
:1039A00080B2704514D2B2F802C0B44510D9D9F82B
:1039B0000830009A31469847DAE9017307EB0B01AA
:1039C0004344D9F81C204888B2F804E02B441B5C1F
:1039D000DB0712D5744510D25388B3420DD9009A33
:1039E000D9F80830314620469847D9F81C20DAF833
:1039F0000470B2F804E007EB0B0101350198ABB29B
:103A000008349842A4B23FF620AF9AF80000029C16
:103A1000039B01339BB2013683420393B6B2A044A9
:103A2000FFF40DAF069B09781B789AF801409AF8CD
:103A30000350049E2E4435460D44A9B2202B049118
:103A40007FF4B8AE4308B9E61C46E1E7049B03EBFC
:103A500050039BB20493F5E700200BB0BDE8F08F54
:103A600007200BB0BDE8F08FCDCCCCCCFEF7E2BF89
:103A70002DE9F041058ACE1C043D2E440746B6FBD5
:103A8000F5F6FEF7F3FF78B3F6B24FF48073013E1C
:103A90000446C5800760838027D08046002509E062
:103AA0006379AE4203F101036371C8F80000076057
:103AB00080461AD03846FEF7D9FF01350028EFD1ED
:103AC0006679721E14D02346013082421B68FBD1F6
:103AD0001F684EB1002523682146013538461C4633
:103AE000FEF7E6FFAE42F6D100242046BDE8F081A5
:103AF0002768EFE704300121FEF76CBFF8B501211C
:103B000004460430FEF772FFC0B200B1F8BD66791A
:103B1000721E12D02346013082421B68FBD11F68FF
:103B2000002EF3D0002523682146013538461C4677
:103B3000FEF7BEFFAE42F6D1F8BD2768F2E700BF40
:103B40002DE9F843C788467907FB06F6043E02EBE9
:103B5000030C0446664503F1040015468846B0FB95
:103B6000F7F238BFF51A07FB120012B1013A2468C8
:103B7000FCD13E1AAE4228BF2E469DB14FF000093F
:103B80000430AD1B2044324608EB090101F0ECFA89
:103B9000AF42B14424683E464FF0000028BF2E4695
:103BA000002DEDD1BDE8F8832DE9F843C7884679AB
:103BB000154607FB06F6043E05EB030C1A1D664589
:103BC00004468846B2FBF7F038BFF51A07FB102110
:103BD00010B101382468FCD17E1AAE4228BF2E46AF
:103BE0009DB14FF0000904312144AD1B324608EB72
:103BF000090001F0B9FAAF42B14424683E464FF0E3
:103C0000000128BF2E46002DEDD1BDE8F88300BF8E
:103C100082680023936082681361826853618268BE
:103C2000D3608268536082681360704730B585B096
:103C3000047845688DF80040D0E90240064A074BF9
:103C4000039053F8213001958DF8084052F8211067
:103C50006846984705B030BDFC07002004080020E6
:103C600030B585B0047845688DF80040D0E9024051
:103C7000064A074B039053F8213001958DF8084010
:103C800052F821106846984705B030BDFC07002067
:103C9000040800202DE9F043DFF8748006784B7F9C
:103CA00008F806300D46074696460FCD89B06C469B
:103CB0000FC495E80F003D78DFF85890DFF858C042
:103CC00018F8055049F826E084E80F004CF8260063
:103CD000049665B1BEF1000F0B4A694607F1040076
:103CE00008BF002200F084FE09B0BDE8F083BEF1F9
:103CF000000F064A694607F10C0008BF002200F0D9
:103D0000F7FB09B0BDE8F0832D3C0000613C0000EA
:103D10009C08002004080020FC07002010B5154B6B
:103D20001A6882B07AB10021134A19601B68507971
:103D300000934FF080410123009CC1F8083310B973
:103D40001168537188470D4B1A6882B100221A60BE
:103D50001B6801934FF080420221074B0198C2F883
:103D600008131B68012002B0BDE81040184702B0DC
:103D700010BD00BF000100400C08002004010040FD
:103D8000014B1B68184700BF1408002038B50C4BC6
:103D9000984201D0002038BD00200D46FEF7FEFD00
:103DA000084B1C7924B10020FEF700FE112038BD1D
:103DB000012220461D601A71FEF7F8FD204638BD2D
:103DC0000020004014080020034B984203D1034B0D
:103DD00000221A601A717047002000401408002069
:103DE000194BD3F8182102B970470021174AC3F8BC
:103DF0001811D3F81811D37F82B0FF2B01910199CC
:103E00000DD0917F99B11F2B86BF03F01F0310487F
:103E10004FF0A040012101FA03F3C0F80C35002354
:103E200053771372D2E900310A4802B018471F2BAA
:103E300086BF03F01F0306484FF0A040012101FA9E
:103E400003F3C0F80835EAE700F002401C08002040
:103E500000030050240800202DE9F04F0579DFF819
:103E60007C824FEAC50909EB0506B60008EB060B94
:103E700083B09BF81C70002F40F0E4809A460368E2
:103E800001920C460746914900931846FFF77EFFC2
:103E9000002840F0DB80019A48F80620CBF804A007
:103EA000217B009B012940F2E78026781F2E86BFE8
:103EB00006F01F06DFF818C24FF0A04C0121B140F8
:103EC000CCF8081521781F2986BF01F01F01804E0C
:103ED0004FF0A04601F5E0714FF0010C46F821C00B
:103EE0006178FF2900F0D7801F298BBF01F01F0EDA
:103EF0008E46DFF8DCC14FF0A04C0EF5E07A0126CB
:103F000006FA0EF64FF0030ECCF80C654CF82AE0DA
:103F100094F802C0BCF1FF0F00F0C580BCF11F0F88
:103F2000E6468BBF0CF01F067646DFF8A4C14FF0C3
:103F3000A04C06F5E0764FF0040A4CF826A094F861
:103F400002C009EB050608EB860686F820C094F847
:103F500003C086F81FC0E678FF2E29D094F804C06D
:103F6000BCF1000F76D11F2E86BF06F01F06DFF8CA
:103F700060A14FF0A04A4FF0010C0CFA06F6CAF807
:103F80000865E6781F2E86BF06F01F06DFF840C1E1
:103F90004FF0A04C06F5E0764FF0030A4CF826A04F
:103FA00009EB050608EB860694F804C086F81EC0E7
:103FB0002678C3F80865C3F80C15C3F810E5A168A6
:103FC000C3F82415617B267B003118BF0121022E26
:103FD00078D0032E4DD0012E01D141F00201C3F85B
:103FE0005415A179C3F8C015002A5FD040210722DB
:103FF000C3F80413C3F8002539686379090B4AB282
:10400000002A57DB02F1604202F561425B01DBB23C
:1040100082F800333B682F4C1B0B5AB2520903F055
:104020001F03012101FA03F344F822304D4408EB49
:1040300085080022012388F81D2088F81C3003B071
:10404000BDE8F08F082003B0BDE8F08F112003B069
:10405000BDE8F08F1F2E86BF06F01F06DFF870A0A8
:104060004FF0A04A4FF0010C0CFA06F6CAF80C65A6
:1040700087E741F00601B2E721781F2986BF01F0EA
:104080001F01DFF84CC04FF0A04C012606FA01F1E9
:10409000CCF80C1516E794F802C0BCF1FF0F4FF0F6
:1040A000FF317FF43BAF4FF0FF3E4AE70722C3F8F2
:1040B0000025BBE7084A01F00F015B010A44DBB2AF
:1040C0001376A7E741F0040189E700BFE13D000056
:1040D0000003005000E100E0FCEC00E01C080020C0
:1040E000F8B50679254C0368F500AA199200A118C5
:1040F000A2589AB11A0B53B25B09203302F01F0287
:104100000127DFF888E0DFF888C007FA02F24EF8EE
:1041100023200368C3F808C34A7F22BBAA1904EB13
:10412000820292F82020FF2A0BD01F2A8ABF02F0B9
:104130001F024FF0A041124902F5E072022741F838
:104140002270104A00219342C3F8001502D10E4B91
:1041500001221A600068FFF737FEAB1904EB8303F6
:1041600000221A77F8BD5F61D3F80421002AFBD042
:10417000AA1904EB820200215177CFE71C08002026
:104180000003005000F0024004F0024000E100E0B3
:10419000520108002DE9F0470479DFF890C14FEA99
:1041A000C40E0EEB04039B0080460CEB03000D468F
:1041B000417F82B0002940F092805CF803301646BF
:1041C00023B112F0140F04BF012343770EEB040751
:1041D0000CEB870795E80F0097F81F9007F10C0A82
:1041E000B9F1FF0F8AE80F000FD0BB7F002B7AD008
:1041F000B9F11F0F86BF09F01F094B4A4FF0A042CB
:10420000012303FA09F3C2F808352A6822B102F043
:104210006043B3F1005F58D1AB6823B103F0604352
:10422000B3F1005F51D1D8F800306968C3F8442574
:10423000C3F84815D5E90221C3F834250022C3F894
:104240003815C3F81821D3F818210192019A16F0F5
:10425000010218BF0122C3F8502516F0020218BF50
:104260000122C3F8402532075CBF01221A610EEB20
:1042700004025CF8222062B116F004004FF0400204
:104280001ABFC3F808230020C3F8042302B0BDE816
:10429000F087D3F81821002AFBD074440CEB840C6F
:1042A0009CF81F30FF2B3DD09CF81E2062B31F2BC3
:1042B00086BF03F01F031C494FF0A041012202FA00
:1042C00003F3C1F80C350020E0E774440CEB840CD8
:1042D000002310208CF81D3002B0BDE8F0871120BB
:1042E00002B0BDE8F087B9F11F0F8ABF0E4A4FF048
:1042F000A04209F01F09012303FA09F3C2F80C35A3
:104300002A68002A83D187E71F2B86BF03F01F038B
:1043100005494FF0A041012202FA03F3C1F8083524
:104320000020B3E70020B1E7000300501C08002084
:1043300030B56D4AD2F8043399058BB068D5D2F800
:104340002431002B64D00023C2F82431D2F8243168
:1043500001934FF40171654B0198C2F8081393F86B
:10436000291009B9012151605F4902228DF81820F6
:10437000D1F88024C1F880249869D9680992002274
:10438000CDE90710C3E90622D3E9001406A8A04727
:10439000554AD2F81C31CBB1544B5869196A88423E
:1043A0006BD851490022C1F81C21D1F81C1102918F
:1043B0000299596951B1586999688DF81820089087
:1043C0005A61079106A8D3E900129047464AD2F8ED
:1043D0004431DBB10021454BC2F84411D2F844010D
:1043E00093F829100090009809B1012111609A6991
:1043F00062B10022586AD9689A610122CDE907109A
:104400008DF8182006A8D3E9001290470BB030BDF4
:10441000354AD2F804335B07BAD5D2F80831002BFD
:10442000B6D0324B996900293CD00021C2F808115E
:10443000D2F8081104910499D868596AD2F818255D
:1044400042545A6A996901325A625A6A8A429FD121
:10445000DA691968002A2ED0D8685D6A1C699A61E9
:10446000079000220120DC60DA615A628DF81800A2
:1044700008955B6806A898478AE793F8281001F02A
:10448000FF0000298DD1C2F81C01D2F81C11039144
:1044900003999C68186A196A205C01311962C2F894
:1044A0001C0593E7C2F80811D2F808010590059899
:1044B000D2F81825C9E793F8292012B90A4A012031
:1044C0005060094A4FF40170C2F80803586ADA686C
:1044D00008900024012007928DF818005A689C610A
:1044E00006A8904754E700BF002000404008002085
:1044F0002DE9F041714F06792C2505FB067582B038
:1045000095F82A30002B40F09A800D4604466C49FD
:1045100000689046FFF73AFC002840F08C802B683A
:10452000591C19D01F2B4FF001028ABF65494FF06B
:10453000A04103F01F0302FA03F3C1F808352B680A
:104540001F2B86BF03F01F035E4A4FF0A04203F506
:10455000E073032142F823106B685A1C0BD01F2B09
:1045600086BF03F01F03574A4FF0A04203F5E073E4
:10457000002142F823102368AA69C3F82425297D65
:104580006B7D22680B43C2F86C35D5E900122368B5
:10459000C3F81425C3F80C152B7D012B53D02C2305
:1045A00003FB06F3FA18C2F804802A69FA50B8F13E
:1045B000000F2DD022682B7F434D0021C2F81C1123
:1045C000D2F81C2100922268DDF800C0C2F8441124
:1045D000D2F84411226801910199C2F8045321686C
:1045E000090B4AB25B01002ADBB261DB02F16042D7
:1045F00002F5614282F800332368344D1B0B5AB236
:10460000520903F01F03012101FA03F345F8223098
:104610002C23246803FB0673002204250121C4F81F
:10462000005583F82A10C3E9062283F829205A612D
:1046300002B0BDE8F081112002B0BDE8F081082091
:1046400002B0BDE8F081AB68591C0BD01F2B86BFB0
:1046500003F01F031B4A4FF0A04203F5E073002153
:1046600042F82310EB685A1C1BD01F2B4FF001029D
:104670008ABF14494FF0A04103F01F0302FA03F36D
:10468000C1F80835EB681F2B88BF03F01F0303F543
:10469000E0738CBF0B4A4FF0A042032142F8231075
:1046A000EB682268A968C2F80835C2F8101576E7E9
:1046B000074A01F00F010A4413769DE740080020E5
:1046C00031430000000300508000020000E100E0E0
:1046D000FCEC00E0F8B53A4F047902682C2303FBA8
:1046E000047300215B68C2F8001583B10368354A82
:1046F000C3F808230368344D1B0B5AB25209203209
:1047000003F01F03012101FA03F345F82230036887
:104710004FF0FF3CD3F80C65D3F81455D3F80825B7
:10472000D3F81015C3F814C5C3F80CC50368664563
:10473000C3F808C5C3F810C50CD01F2E86BF06F0FD
:104740001F06224B4FF0A04306F5E0764FF0020C17
:1047500043F826C06E1C0BD01F2D86BF05F01F0529
:104760001A4B4FF0A04305F5E075022643F825608B
:104770004D1C0BD01F2986BF01F01F01134B4FF0BA
:10478000A04301F5E071022543F82150531C0BD0E2
:104790001F2A86BF02F01F020C494FF0A04102F50C
:1047A000E072022341F822300068FFF70DFB2C2352
:1047B00003FB0474002384F82A306360F8BD00BF53
:1047C000400800208402020000E100E000030050E5
:1047D000F0B5314E05792C2303FB056385B05C6988
:1047E000002C53D15A6199601C6283F828400268FA
:1047F000C2F81C41D2F81C11026802910121029FEB
:1048000091600268D3F808C0C2F81C41D2F81C11AC
:1048100001910199D3F820E0196A5F681CF80EE055
:1048200001311962C2F81CE517B1204605B0F0BD90
:104830005C691A6A0168944203D819E093F8282049
:104840003ABBD1F81C21002AF8D0C1F81C71D1F86C
:104850001C210392039AD3F820E01A6A1CF80EE098
:1048600001321A62C1F81CE51A6A9442E9D801685B
:10487000D1F81C31002BFBD00123CB6000202C236E
:1048800003FB056500236B6105B0F0BD112005B089
:10489000F0BD0F20F3E700BF40080020F0B5524BF9
:1048A000D3F824218BB0002A6ED00021C3F8241144
:1048B000D3F82421049202228DF81820049AD3F808
:1048C00080044A4AC3F880040990D3F83C05D368B1
:1048D0000890C2E9061107931168536806A8984723
:1048E000414BD3F84421BAB10021404AC3F84411E6
:1048F000D3F8444190690394039C68B1D3F83C35E4
:10490000D06808930123C2E9061107908DF818308A
:1049100006A8D2E900139847334BD3F82021BAB147
:104920000021C3F82011D3F82021029201202F4A40
:10493000029CD860506958B1D3F84C059368089030
:104940008DF818105161079306A8D2E90013984713
:10495000254BD3F85821AAB10021C3F85811D3F838
:104960005801224A01900198506958B1D3F84C057A
:10497000936808908DF818105161079306A8D2E942
:10498000001398470BB0F0BDD3F810110029A7D041
:10499000C3F81021D3F810111448059105998169C5
:1049A000D3F83C458C429BD1C569C768D0E9001655
:1049B0008DB1D3F800C285612CF02005C261C3F827
:1049C00000520369C3600122CDE907748DF81820F5
:1049D00006A8B04784E701238561CDE907748DF807
:1049E000183006A8B0477BE7002000406C08002084
:1049F0002DE9F04307797E4E4FEAC70808EB07031D
:104A000006EB830387B093F82030002B40F0B08092
:104A10000D460446774900689146FFF7B7F900282C
:104A200040F0A2802B68591C19D01F2B4FF00102B7
:104A30008ABF71494FF0A04103F01F0302FA03F34C
:104A4000C1F808352B681F2B86BF03F01F036A4A85
:104A50004FF0A04203F5E073032142F823106B6886
:104A60005A1C0BD01F2B86BF03F01F03624A4FF066
:104A7000A04203F5E073002142F823102368AA69DD
:104A8000C3F82425297D6A7D23680A43C3F86C2571
:104A9000D5E900312268C2F80C35C2F814152B7D17
:104AA000012B69D008EB07029200B318C3F80490F9
:104AB0002B69B350B9F1000F45D021682A7F4F4DC3
:104AC0000023C1F81031D1F8101101912168DDF8EF
:104AD00004C0C1F82031D1F8201102912168DDF81D
:104AE00008C0C1F82431D1F8241103912168DDF800
:104AF0000CC0C1F84431D1F8441104912168DDF8AB
:104B000010C0C1F85831D1F85811236805910599A2
:104B1000C3F804532168090B53014AB2002ADBB2DF
:104B20005FDB02F1604202F5614282F800332368E4
:104B3000334D1B0B5AB2520903F01F03012101FA36
:104B400003F345F822304744226806EB870600232A
:104B500001240821C2F8001586F82040C6E9063372
:104B6000736107B0BDE8F083112007B0BDE8F083A2
:104B7000082007B0BDE8F083AB68591C0BD01F2B91
:104B800086BF03F01F031C4A4FF0A04203F5E073F9
:104B9000002142F82310EB685A1C1BD01F2B4FF04A
:104BA00001028ABF14494FF0A04103F01F0302FA2B
:104BB00003F3C1F80835EB681F2B88BF03F01F0310
:104BC00003F5E0738CBF0C4A4FF0A042032142F87A
:104BD0002310EB682268A968C2F80835C2F81015DE
:104BE00060E7084A01F00F010A4413769FE700BF0F
:104BF0006C0800209D480000000300501003420094
:104C000000E100E0FCEC00E0F0B50679474C0368F9
:104C1000F500AA1904EB820283B0526882B1444ABB
:104C2000C3F808230368434F1B0B5AB252092032C2
:104C300003F01F03012101FA03F347F82230036850
:104C4000D3F8002222F02002C3F8002202680123D8
:104C5000536002680021C2F85811D2F85811026856
:104C600001910199D3600268D2F85831002BFBD032
:104C70000023C2F8003503684FF0FF3ED3F80CC59F
:104C8000D3F81475D3F80825D3F81015C3F80CE53C
:104C9000C3F814E50368F445C3F808E5C3F810E564
:104CA0000DD0BCF11F0F86BF0CF01F0CDFF888E0A1
:104CB0004FF0A04E0CF5E07C02234EF82C307B1C0C
:104CC0000CD01F2F86BF07F01F07DFF86CC04FF016
:104CD000A04C07F5E07702234CF827304F1C0BD08F
:104CE0001F2986BF01F01F01134F4FF0A04701F5A8
:104CF000E071022347F82130531C0BD01F2A86BFD6
:104D000002F01F020C4B4FF0A04302F5E0720221AB
:104D100043F822100068FFF757F8354404EB850488
:104D2000002384F82030636003B0F0BD6C080020DD
:104D30001003420000E100E00003005001F0604376
:104D4000B3F1005F2CD1F0B40579264EEF007C1949
:104D500006EB840482B0636923BB6261A1600268D0
:104D6000C2F82031D2F820C10268CDF804C0DDF8C5
:104D700004C0C2F85831D2F8582100920268DDF818
:104D800000C0D4F814C0C2F84415C2F848C502687F
:104D90000121916062684AB1184602B0F0BC7047C8
:104DA00010207047112002B0F0BC7047036800E08B
:104DB000B2B9D3F82011D3F858210029F8D07AB924
:104DC0000122DA600268D2F85831002BFBD00020B3
:104DD0003D4406EB85060023736102B0F0BC7047CA
:104DE0000F20F5E76C0800202DE9F04F002189B075
:104DF0000846FDF7DBF908B1FDF788FDFDF75CF922
:104E00003048314B3149C01AC008000440F003005B
:104E1000FDF72CFAFDF7CEFB0028FBD12C48FEF75E
:104E200039FB08B1FDF772FD2A4C2948002108AE74
:104E3000FEF77CFC236846F80C3D01230193264BCA
:104E400000933146254B22484FF47842FEF77EFC12
:104E500008B1FDF75BFD224BE268224CDFF8708061
:104E600093E803000DF120090DF10C0A8AE8030014
:104E700049F8182D44F00104002501272A461A4953
:104E8000304600F085F900231A4651460097404607
:104E9000FEF7B8FB104B0093019733464FF4FC62CA
:104EA00049464046FEF752FC48B901354FF47A7B3B
:104EB0004FF47A40A047BBF1010BF9D1DEE7FDF7D3
:104EC00025FDF2E7F48E0000CC8E0000488D000036
:104ED000B05A0000248D0000188D0000708D000075
:104EE000288D0000408D0000808D000010B44FF030
:104EF00080414FF080520020C1F80C015E4BC1F898
:104F00001001C1F83805D2F80414C3F82015D2F8FE
:104F10000814C3F82415D2F80C14C3F82815D2F8D5
:104F20001014C3F82C15D2F81414C3F83015D2F8A5
:104F30001814C3F83415D2F81C14C3F84015D2F86D
:104F40002014C3F84415D2F82414C3F84815D2F835
:104F50002814C3F84C15D2F82C14C3F85015D2F805
:104F60003014C3F85415D2F83414C3F86015D2F8CD
:104F70003814C3F86415D2F83C04C3F86805D2F8B5
:104F800040043E49C3F86C050968D2F84424C3F8CC
:104F90007025082924D04FF08043D3F80024D2078D
:104FA00044BF6FF00102C3F80024354AD2F88830BC
:104FB00043F47003C2F88830BFF34F8FBFF36F8F95
:104FC0004FF01023D3F80022002A23DBD3F8043259
:104FD000002B1FDB2B4B2C4A1A605DF8044B7047EB
:104FE0002A4B1B68002BD6D129482A4A2A4C046038
:104FF0002A492B4BFB20C2F818050A681B68294870
:1050000022F00F0203F00F0313434FF400720B6002
:105010000260C0E7244B0122C3F80425D3F8002422
:10502000002AFBD04FF0102312221F49C3F80022A0
:10503000D1F80034002BFBD04FF0102212211A4B74
:10504000C2F80412D3F80024002AFBD0002216492B
:10505000C3F80425D1F80034002BFBD0BFF34F8FE9
:105060000749124BCA6802F4E0621343CB60BFF3F6
:105070004F8F00BFFDE700BF00C0004030010010AF
:1050800000ED00E02C0000200090D003340100105F
:105090008C56004000F0004048810300E40E0040C0
:1050A000580200104096024000E001400400FA055A
:1050B0000028B8BF4042704708B5074B044613B1FB
:1050C0000021AFF30080054B1868836A03B198474D
:1050D000204600F0CDFC00BF00000000848D0000E1
:1050E00070B50D4E0D4CA41BA4100025A54209D18E
:1050F0000B4E0C4C00F0BEFCA41BA4100025A542D6
:1051000005D170BD56F8253098470135EEE756F8C1
:10511000253098470135F2E7000200200002002008
:105120000002002004020020044B054A1B681B6A91
:10513000002B08BF1346D3F8EC0070473000002066
:105140009400002082B001B901A942B14BB113789B
:105150000B601278101C18BF012002B07047104677
:10516000FBE76FF00100F8E710B5431E0A449142D7
:1051700000D110BD11F8014B03F8014FF7E70244CD
:105180000346934200D1704703F8011BF9E7000082
:105190000EB400B59CB01DAB029006906FF00041BC
:1051A000094807910491094953F8042B05910068B7
:1051B000019302A900F07CF8029B00221A701CB037
:1051C0005DF804EB03B07047300000200802FFFFD9
:1051D000034613F8012B002AFBD1181A0138704737
:1051E00049B1FF2A85BF8A2303600A704FF0FF3060
:1051F00098BF01207047084670472DE9F0478E6838
:105200009E4282460C469046994637D88A8912F4C7
:10521000906F31D0256809696F1A6569022305EB23
:10522000450595FBF3F509F101033B449D4238BF69
:105230001D46530530D5294600F072FB064650B98D
:105240000C23CAF80030A38943F04003A3814FF038
:10525000FF30BDE8F0873A462169FFF785FFA38953
:1052600023F4906343F08003A381266165613E448B
:10527000ED1B2660A5604E464E4500D94E4632468F
:105280004146206800F0E4FAA3689B1BA3602368F2
:105290001E4426600020DCE72A4600F09BFB064601
:1052A0000028E2D12169504600F0ECFAC8E700007E
:1052B0002DE9F04F1D468B891F069DB080460C4698
:1052C00016460FD50B696BB9402100F029FB206011
:1052D000206128B90C23C8F800304FF0FF30C8E037
:1052E000402363610023099320238DF82930302364
:1052F0008DF82A3003954FF0010B37463D4615F8DF
:10530000013B0BB1252B3ED1B7EB060A0BD0534620
:10531000324621464046FFF770FF013000F0A4807E
:10532000099B534409933B78002B00F09D80002398
:105330004FF0FF32CDE90523049307938DF85330E6
:105340001A932F46052217F8011B504800F030FA37
:10535000049BD0B9D90644BF20228DF853201A07E8
:1053600044BF2B228DF853202A782A2A15D0079A79
:105370002F4600200A25394611F8013B303B092B06
:105380004DD9B8B10FE02F46B8E7404A801A0BFA62
:1053900000F0184304903D46D3E7039A111D1268AC
:1053A0000391002A01DB079204E0524243F002031A
:1053B000079204933B782E2B0CD17B782A2B33D188
:1053C000039B1A1D1B680392002BB8BF4FF0FF33DD
:1053D000023705932E4D39780322284600F0E8F96C
:1053E00038B14023401B03FA00F0049B034301370C
:1053F0000493397827488DF8281006227E1C00F087
:10540000D7F9002838D0244B13BB039B073323F074
:10541000070308330393099B4B4409936DE705FB8E
:10542000023201200F46A6E70023013705931946F3
:105430000A25384610F8012B303A092A03D9002BE7
:10544000C8D00591C6E705FB012101230746F0E717
:1054500003AB00932246114B04A94046AFF30080F2
:10546000B0F1FF3F8146D6D1A3895B063FF535AF4A
:1054700009981DB0BDE8F08F03AB00932246074B9F
:1054800004A9404600F082F8EAE700BF938E0000CE
:10549000998E00009D8E000000000000FB5100006E
:1054A0002DE9F04791461F468A680B69DDF8208098
:1054B0009342B8BF1346C9F8003091F8432006461E
:1054C0000C4612B10133C9F800302368990642BF77
:1054D000D9F800300233C9F80030256815F0060508
:1054E00007D104F1190AE368D9F800209B1AAB42EE
:1054F00028DC94F843302268003318BF0123920659
:105500002DD404F1430239463046C047013020D043
:105510002368E568D9F8002003F00603042B08BFD0
:10552000AD1AA36822690CBF25EAE57500259342F0
:10553000C4BF9B1AED184FF000091A344D451AD11B
:10554000002008E00123524639463046C04701306A
:1055500003D14FF0FF30BDE8F0870135C3E7E11814
:105560005A1C302081F84300224494F8451082F8F8
:1055700043100233C5E70123224639463046C0476F
:105580000130E6D009F10109D8E700002DE9F04328
:1055900001F1430C0C46097E85B06E29174606467C
:1055A00098460C9A00F0B38022D8632936D00AD8E6
:1055B000002900F0B980582900F0838004F14205E9
:1055C00084F8421032E0642901D06929F6D12068BC
:1055D0001368050603F104012AD51B681160002B2E
:1055E00003DA2D225B4284F843206F480A2239E017
:1055F000732900F09D8008D86F2920D07029DDD153
:10560000236843F02003236003E0752917D078292D
:10561000D4D1782384F84530644855E01368191DC7
:105620001B68116004F1420584F8423001238CE0CC
:105630001B68116010F0400F18BF1BB2CFE7136852
:105640002568181D1060280601D51B6802E0680651
:10565000FBD51B8854486F2914BF0A220822002159
:1056600084F843106568A560002DC0F2958021681C
:1056700021F004012160002B3DD1002D40F08E80EF
:105680006546082A0BD12368DB0708D523696268C1
:105690009A42DEBF302305F8013C05F1FF35ACEB43
:1056A00005032361CDF800803B4603AA214630461E
:1056B000FFF7F6FE01304DD14FF0FF3005B0BDE8E9
:1056C000F083394884F84510136821681D1D1B6854
:1056D00015600A060BD5CA0744BF41F020012160BE
:1056E0001BB9226822F0200222601022B7E74D0683
:1056F00048BF9BB2EFE76546B3FBF2F102FB113303
:10570000C35C05F8013D0B460029F5D1B9E71368E4
:1057100025686169181D106028061B6801D519608D
:1057200002E06A06FBD51980002323616546B9E7CC
:105730001368191D11601D6862680021284600F079
:1057400037F808B1401B606063682361002384F868
:105750004330A7E723692A4639463046C04701301F
:10576000AAD023689B0713D4E068039B9842B8BF74
:105770001846A3E701234A4639463046C047013060
:105780009AD00135E368039A9B1AAB42F2DCEBE74F
:10579000002504F11909F5E7002BACD1037884F852
:1057A000423004F142056CE7A48E0000B58E000083
:1057B00001F0FF01102A2BDB10F0070F08D010F8C2
:1057C000013B013A8B422DD010F0070F42B3F6D1C6
:1057D000F0B441EA012141EA014122F007047FF0DF
:1057E00000070023F0E80256083C85EA010586EA36
:1057F000010685FA47F5A3FA87F586FA47F6A5FA72
:1058000087F68EB9EED1F0BC01F0FF0102F007027D
:1058100032B110F8013B013A83EA010313B1F8D128
:105820000020704701387047002D06BF3546033809
:10583000073815F0010F07D1013015F4807F02BF42
:10584000013015F4C03F0130F0BC0138704700BF93
:10585000884210B501EB020307D8421E99420AD0D4
:1058600011F8014B02F8014FF8E78342F5D981188E
:10587000D21AD34200D110BD13F8014D01F8014DE9
:10588000F7E7000038B50546002945D051F8043C3B
:105890000C1F002BB8BFE41800F0D2F81F4A1368A1
:1058A000104633B9636014602846BDE8384000F004
:1058B000C8B8A3420CD921686218934204BF1A6881
:1058C0005B68636004BF521822600460ECE7134613
:1058D0005A680AB1A242FAD919685818A0420BD1E5
:1058E00020680144581882421960DDD1106852685E
:1058F0005A6001441960D7E702D90C232B60D3E723
:10590000206821188A4204BF11685268626004BF8F
:10591000091821605C60C7E738BD00BF900800200F
:1059200070B5CD1C25F0030508350C2D38BF0C25AE
:10593000002D064601DBA94203D90C233360002069
:1059400070BD00F07DF8214A1468214691B9204CC1
:1059500023681BB9304600F063F8206029463046C2
:1059600000F05EF8431C24D10C233360304600F075
:1059700068F8E4E70B685B1B18D40B2B0FD90B609E
:10598000CD50CC18304600F05CF804F10B00231D1C
:1059900020F00700C31AD3D05A42E250D0E78C421D
:1059A0004B6816BF636013600C46EBE70C46496812
:1059B000CCE7C41C24F00304A04205D0211A3046D1
:1059C00000F02EF80130CFD02560DBE790080020F2
:1059D00094080020F8B5074614460E4621B9114632
:1059E000BDE8F840FFF79CBF22B9FFF74BFF254603
:1059F0002846F8BD00F026F8A0420FD221463846CE
:105A0000FFF78EFF05460028F2D031462246FFF709
:105A1000ABFB31463846FFF735FFE9E73546E7E7A8
:105A200038B5064C002305460846236000F012F8FE
:105A3000431C02D1236803B12B6038BDA0080020AD
:105A40007047704751F8043C181F002BBCBF0B581F
:105A5000C0187047044A05491368002B08BF0B465D
:105A6000184410601846704798080020A8080020C5
:105A7000FEE700BFF8B500BFF8BC08BC9E46704703
:105A8000F8B500BFF8BC08BC9E467047FFFFFFFF9B
:105A90000006FF000000004000000000C0A0006001
:105AA0000338FDD87047000000F0024000000000FD
:105AB0000D14000001130000711C0000E91C00001F
:105AC000FD120000711300001D13000008000020EB
:105AD000FFFFFFFFFFFFFFFFFFFFFFFFFFFFFFFFD6
:105AE00000000000000000000000D60106010000D8
:105AF000A51F000011200000A11F00007561727435
:105B00005F6C6F675F6261636B656E6400000000CD
:105B1000600700207F000000E00700204261636B07
:105B2000656E647320666C757368656400000000C0
:105B3000617070008C5B0000BC5B00006C5B00005F
:105B4000C45B0000CC5B0000D45B0000DC5B0000A9
:105B5000E45B0000EC5B00002025303278000000A0
:105B6000202020007C000000256300001B5B313BEF
:105B700033316D0025734C6F67732064726F7070E2
:105B80006564202825642925730D0A001B5B306D90
:105B900000000000257300003C25733E2025733A69
:105BA000200000000D0A000000000000F45B00006F
:105BB000FC5B0000045C00000C5C00001B5B313BE4
:105BC00033306D001B5B313B33326D001B5B313B6F
:105BD00033336D001B5B313B33346D001B5B313B5A
:105BE00033356D001B5B313B33366D001B5B313B46
:105BF00033376D006572726F720000007761726EEC
:105C0000696E6700696E666F00000000646562750A
:105C100067000000466174616C206572726F7200EB
:105C200053797374656D20726573657400000000AC
:105C300030313233343536373839414243444546C2
:105C400067667800636C6F636B000000434C4F43E2
:105C50004B000000505253005350494D00000000CB
:105C60005541525400000000554152544500000077
:105C700000000000F0F0F0F0F0F0F0F0F0F0F0F0E4
:105C8000E0E0E0E0E0E0E06060600000000060F084
:105C9000F0F06000000000000000000000000000C4
:105CA00000000000000000E3C0E1C0E1C0E1C0E18D
:105CB000C0E1C0E1C0E1C0E1C0E1C0E180E180003D
:105CC00000000000000000000000000000000000D4
:105CD00000000000000000000000000000000000C4
:105CE00000000000000000000000000000000000B4
:105CF00000000000000000000000000000000000A4
:105D00000000000000000000000000000000000093
:105D1000000000000000701C0000701C00006018F3
:105D200000006018000060180000E0380000E03853
:105D3000001FFFFFE03FFFFFC03FFFFFC000C0307C
:105D40000000C0300001C0300001C0700001C07010
:105D50000001C0700001807000018060000180605F
:105D6000007FFFFF807FFFFF80FFFFFF800380E059
:105D7000000380E0000300E0000300C0000300C057
:105D8000000701C0000701C0000000000000000083
:105D90000000000000000000000000000000000003
:105DA00000000000000000000000000000000000F3
:105DB0000000000000000000000000000070000073
:105DC000700000700000F00007FE000FFF001F07CA
:105DD000803C03C0380100780000700000700000B3
:105DE0007800007800003C00003E00001F80000F9B
:105DF000F00003FC0000FF00003F800007C000012E
:105E0000E00000E00000F000007000007020007072
:105E10006000F0F000E07801E03E07C01FFF800F57
:105E2000FF0001F80000700000700000700000002A
:105E30000000000000000000000000000000000062
:105E40000000000000000000000000000000000052
:105E50000000000000000F0007803F800F007FC09F
:105E60000E0071E01E00E0E03C00E0E03800E06081
:105E70007800E0E0F000F0E0F00071E1E0007FC3C6
:105E8000C0003F83C0000F07800000070000000F24
:105E90000000001E0000001C0000003C0000007814
:105EA0003C0000707F0000F0FF8001E1E38001C151
:105EB000C1C003C1C1C00781C1C00701C1C00F017A
:105EC000C1C01E01E3801C00FF803C007F00780001
:105ED0003E00000000000000000000000000000084
:105EE00000000000000000000000000000000000B2
:105EF00000000000000000000000000000000000A2
:105F0000000000000000000000000000000003E0AE
:105F1000000FF8001FFC003E1E00380E00780F0036
:105F20007007007000007800003800003C00003E60
:105F300000001F00000F80000FC0001FE0003DF0B8
:105F40000078F800707C04F03E0EE01F1FE00FBEEA
:105F5000E007FCE003F8F001F07003F87807FC3E7E
:105F60000FBE1FFF1F0FFC0E03F004000000000017
:105F70000000000000000000000000000000000021
:105F80000000000000000000000000000000000011
:105F9000000000E0E0E0E0E0E0E0E0E0E0E0E00081
:105FA00000000000000000000000000000000000F1
:105FB00000000000000000000000000000000020C1
:105FC00001E003E007E00F000E001E001C003C0093
:105FD000380078007000700070007000F000E00081
:105FE000E000E000E000E000E000E000E000E000B1
:105FF000E000E000E000E000E000E000E000F00091
:1060000070007000700070003800380038001C000C
:106010001C000E000F0007C003E000E08000E0005D
:10602000F000F8003C001E000E000F000700070003
:10603000078003800380038003C001C001C001C04A
:1060400001C001C001C001C001C001C001C001C048
:1060500001C001C001C001C001C001C001C001C038
:106060000380038003800380070007000E000E00FA
:106070001C003C00F800F000C00000000000000020
:1060800000001200330036001E00EFC0FFC01C00ED
:106090001600330032000000000000000000000085
:1060A00000000000000000000000000000000000F0
:1060B00000000000000000000000000000000000E0
:1060C00000000000000000000000000000000000D0
:1060D00000000000000000000000000000000000C0
:1060E00000000000000000000000000000000000B0
:1060F0000000000018000018000018000018000040
:1061000018000018000018000018000018000018FF
:1061100000001800001800FFFFFFFFFFFFFFFFFF58
:1061200000180000180000180000180000180000F7
:1061300018000018000018000018000018000018CF
:10614000000000000000000000000000000000004F
:10615000000000000000000000000000000000003F
:10616000000000000000000000000000000000002F
:10617000000000000000000000000000000000001F
:1061800000000060F0F8F8781818303070E0C000B7
:1061900000000000000000000000000000000000FF
:1061A00000000000000000000000000000000000EF
:1061B00000000000000000000000000000000000DF
:1061C0000000FFFCFFFCFFFC0000000000000000DE
:1061D00000000000000000000000000000000000BF
:1061E00000000000000000000000000000000000AF
:1061F000000000000000000000000000000000009F
:10620000000000000000000000000000000000008E
:106210007078F878700000000000000000000000B6
:10622000000000000000000000000000000000006E
:1062300000000007800000070000000F0000000EB3
:106240000000001C0000001C0000003800000038A6
:106250000000007000000070000000E0000000E09E
:10626000000001C0000003C00000038000000780A0
:106270000000070000000F0000000E0000001E00DC
:1062800000001C0000003C00000038000000780006
:10629000000070000000F0000000E0000001E000DD
:1062A0000001C0000003C000000380000007800060
:1062B00000070000000F0000000E0000001E00009C
:1062C000001C0000003C00000038000000700000CE
:1062D00000F00000000000000000000000000000CE
:1062E00000000000000000000000FC0003FF0007A9
:1062F000FF800F87C01E03C03C01E03C00F0780027
:10630000F0780070700078F00078F00038F0003815
:10631000E00038E00038E00038E00038E00038F015
:106320000038F00038F0007870007878007078005D
:10633000F03C00F03C01E01E03C00F87C007FF8067
:1063400003FF0000FC00000000000000000000004F
:10635000000000000000000000000000000000003D
:10636000000000000000000000000000000000002D
:10637000000007800F801F807F80FF80F380E38014
:10638000C3808380038003800380038003800380B5
:1063900003800380038003800380038003800380E5
:1063A00003800380038003800380038003800380D5
:1063B00000000000000000000000000000000000DD
:1063C00000000000000000000000000000000000CD
:1063D0000000000001F80007FE001FFF003E0F80D4
:1063E0003C03C07801C07001E07001E07001E00082
:1063F00001E00001E00001C00003C00003C000078D
:1064000080000F00001E00003C00007C0000F8002F
:1064100001F00001E00003C0000780000F00001E33
:1064200000003C0000780000FFFFF0FFFFF0FFFFDE
:10643000F00000000000000000000000000000006C
:10644000000000000000000000000000000000004C
:10645000000000000000000000000000000000003C
:106460000001F80007FC001FFF001E0F003C078022
:106470003803803803800003C000038000038000DD
:106480000780000F0001FE0001FC0001FE00000F6C
:10649000800003800003C00001E00001E00000E094
:1064A0000000E0F000E07001E07001E07803C03C23
:1064B00003C03E0F801FFF0007FE0001F800000030
:1064C00000000000000000000000000000000000CC
:1064D00000000000000000000000000000000000BC
:1064E00000000000000000000000000000000007A5
:1064F000C0000FC0000FC0001FC0001FC0003BC085
:10650000007BC00073C000E3C001E3C001C3C0034F
:10651000C3C00383C00703C00F03C00E03C01E0324
:10652000C03C03C03803C07803C07003C0FFFFF84D
:10653000FFFFF8FFFFF80003C00003C00003C00026
:1065400003C00003C00003C00003C000000000003F
:10655000000000000000000000000000000000003B
:10656000000000000000000000000000000000002B
:1065700000000000000000000000003FFF803FFF1F
:10658000803FFF803800007800007000007000003D
:1065900070000070000070000073F8007FFE00FFC4
:1065A000FF00FC1F807007C01003C00001E0000165
:1065B000E00000E00000E00000E00000E00000E09B
:1065C0000001E02001E06003C0F007C0FC1F803F35
:1065D000FF001FFE0003F0000000000000000000AC
:1065E00000000000000000000000000000000000AB
:1065F000000000000000000000000000000000009B
:1066000000000000000000000007C0000F00000FA5
:1066100000001E00003C0000780000F00000F000C8
:1066200001E00003C00007FE0007FF800FFFC01F4E
:1066300007E03C01F03C00F07800787000787000D2
:1066400038F0003CF0003CF0003C70003878003836
:106650007800783C00F03E00F01F83E00FFFC0039D
:10666000FF8000FE000000000000000000000000AD
:10667000000000000000000000000000000000001A
:10668000000000000000000000000000000000000A
:106690000000000000FFFFF0FFFFF0FFFFE000013F
:1066A000E00001C00003C0000380000780000F006D
:1066B000000F00001E00001E00003C00003800001B
:1066C000780000700000F00000E00001E00003C06E
:1066D0000003C0000780000780000F00000F0000CB
:1066E0001E00001C00003C0000780000780000F054
:1066F000000000000000000000000000000000009A
:106700000000000000000000000000000000000089
:106710000000000000000000000000000000000079
:10672000000003F00007FC001FFE001E0F003C07E6
:106730008038038038038038038038038038038032
:106740003C07801E0F000FFF000FFC001FFE003EE5
:106750000F007807807803C0F001C0F001E0E0008E
:10676000E0E000E0E001E0F001E0F001E07803C0EB
:106770007C07C03E0F801FFF000FFE0003F80000E3
:106780000000000000000000000000000000000009
:1067900000000000000000000000000000000000F9
:1067A00000000000000000000000000000000001E8
:1067B000FC0007FF000FFFC01F07E03C01F038009E
:1067C000F0780078700078700038F0003CF0003C01
:1067D000F0003C7000387800387800783C00F03EDB
:1067E00000F01F83E00FFFC007FF8001FF80000F54
:1067F00000001E00003C00003C0000780000F0009B
:1068000001E00003C00003C0000F80000000000092
:106810000000000000000000000000000000000078
:106820000000000000000000000000000000000068
:10683000000000000000000000000000000060F008
:10684000F0F060000000000000000000000060F0B8
:10685000F0F06000000000000000000000000000F8
:106860000000000000000000000000000060F0F0E8
:10687000F060000000000000000000000060F0F880
:10688000F8783818303060E0C000000000000000E8
:1068900000000000000000000000000000000000F8
:1068A00000000000000000000C00003C0000FC00A4
:1068B00003F0000FC0003F80007E0001F80007E0F9
:1068C000001F80007E0000F80000E00000F00000E3
:1068D000FC00003F00000FC00007E00001F80000CE
:1068E0007E00001F800007E00001F800007C00002F
:1068F0001C00000400000000000000000000000078
:106900000000000000000000000000000000000087
:106910000000000000000000000000000000000077
:106920000000000000000000000000000000000067
:106930000000000000000000000000000000000057
:106940000000000000000000000000000000000047
:1069500000FFFFFFFFFFFFFFFFFF00000000000040
:10696000000000000000000000FFFFFFFFFFFFFF2E
:10697000FFFF000000000000000000000000000019
:106980000000000000000000000000000000000007
:1069900000000000000000000000000000000000F7
:1069A00000000000000000000000000000000000E7
:1069B00000000000000000000000000000000000D7
:1069C000800000E00000F800007E00001F8000074B
:1069D000E00001F800007E00001F80000FE00003CF
:1069E000F00000FC00003C00003C0000FC0003F054
:1069F000000FC0003F0000FC0003F0000FC0003F8C
:106A00000000FC0000F00000C0000080000000005A
:106A10000000000000000000000000000000000076
:106A20000000000000000000000000000000000066
:106A30000000000000000000000000000000000056
:106A40000003F0000FFC001FFF003E0F00780780DE
:106A50007003807001C0F001C00001C00001C000DF
:106A600003C0000380000780001F00007E00007844
:106A70000000F00000E00000E00000E00000E000A6
:106A800000E0000000000000000000000000000026
:106A9000E00001E00001F00001E00000E000000083
:106AA00000000000000000000000000000000000E6
:106AB00000000000000000000000000000000000D6
:106AC00000000000000000000000000000000000C6
:106AD00000000000000000000000000000000000B6
