:10100000D0400020ED6200006B7F01004D620000C7
:101010004D6200004D6200004D6200004D62000014
:101020004D6200004D6200004D620000D96000007A
:101030004D6200004D62000091600000537F01008E
:10104000AD6200000D0F0100AD620000AD62000056
:10105000AD620000AD620000AD620000AD62000054
:10106000AD620000AD620000AD620000AD62000044
:10107000AD620000AD620000AD620000AD62000034
:10108000AD620000AD620000AD620000AD62000024
:10109000AD620000AD620000AD620000AD62000014
:1010A000AD620000AD620000AD620000AD62000004
:1010B000AD620000AD620000AD620000AD620000F4
:1010C000AD620000AD620000AD620000AD620000E4
:1010D000AD620000AD620000AD620000AD620000D4
:1010E000AD620000AD620000AD620000AD620000C4
:1010F000AD620000AD620000AD620000AD620000B4
:1011000053B94AB9002908BF00281CBF4FF0FF316E
:101110004FF0FF3000F072B9ADF1080C6DE904CE6C
:1011200000F006F8DDF804E0DDE9022304B07047C2
:101130002DE9F047089E04468846002B4BD18A4291
:10114000154667D9B2FA82F24AB1C2F1200701FA14
:1011500002F320FA07F7954047EA030894404FEA64
:10116000154E230CB8FBFEF71FFA85FC0EFB178803
:1011700043EA084307FB0CF1994209D9EB1807F140
:10118000FF3080F01B81994240F21881023F2B44CE
:101190005B1AA4B2B3FBFEF00EFB103344EA034427
:1011A00000FB0CFCA44509D92C1900F1FF3380F099
:1011B0000781A44540F2048102382C4440EA0740EC
:1011C000A4EB0C0400271EB1D4400023C6E9004361
:1011D0003946BDE8F0878B4209D9002E00F0EB803C
:1011E0000027C6E9000138463946BDE8F087B3FA62
:1011F00083F7002F47D18B4202D3824200F2FA805C
:10120000841A61EB030301209846002EE0D0C6E962
:101210000048DDE702B9FFDEB2FA82F2002A40F0B0
:101220008F80491B4FEA154E1FFA85F80127B1FB45
:10123000FEFC230C0EFB1C1143EA014308FB0CF1DE
:10124000994207D9EB180CF1FF3002D2994200F213
:10125000CD808446591AA3B2B1FBFEF00EFB1014E8
:1012600043EA044408FB00F8A04507D92C1900F113
:10127000FF3302D2A04500F2B6801846A4EB080462
:1012800040EA0C409FE7C7F1200CBB4022FA0CFE5D
:101290004EEA030E01FA07F420FA0CF521FA0CF3DA
:1012A0004FEA1E482543B3FBF8F92C0C08FB193311
:1012B0001FFA8EFA44EA034309FB0AF49C4202FA3D
:1012C00007F200FA07F10BD91EEB030309F1FF3017
:1012D00080F087809C4240F28480A9F10209734427
:1012E0001B1BADB2B3FBF8F008FB103345EA034417
:1012F00000FB0AFAA24508D91EEB040400F1FF33F3
:101300006BD2A24569D90238744440EA0940A0FB77
:101310000289A4EB0A044C45C2464B4654D351D033
:10132000002E69D0B1EB0A0564EB030404FA0CFC4F
:10133000FD40FC404CEA0505C6E90054002747E79C
:10134000C2F1200320FA03F7954001FA02F021FAD6
:1013500003F34FEA154E3843010CB3FBFEF71FFAB7
:1013600085F80EFB173341EA034107FB08F38B4274
:1013700004FA02F407D9691807F1FF3C2FD28B4217
:101380002DD9023F2944CB1A81B2B3FBFEF00EFBEC
:10139000103341EA034100FB08F38B4207D9691877
:1013A00000F1FF3C17D28B4215D902382944C91AE3
:1013B00040EA07473BE73746304609E70746E7E696
:1013C0001846FBE64145ABD2B8EB020A69EB0E02C8
:1013D00001381346A4E76046E9E7184695E76746F3
:1013E000D1E781467CE702382C4447E7ACF1020C98
:1013F0002B442FE7384608E73746E9E6704700BF39
:101400002DE9F04FC74C8FB094F8CC60022306F062
:1014100001060C93002800F03981002E40F07E81F7
:1014200094F8290094F87C7094F82C202D2327251B
:1014300000F0030005FB074715FB02350EF0E6FE42
:1014400094F8DA0000F00303023B012B07F17D075B
:1014500004EB050840F21F82605D3146C0F3801046
:1014600006F09CFC06220146064608F1020016F032
:10147000A8FD31460622B81C16F0A3FD4FF0FF0967
:10148000635D5A0600F1FE8103F00F03012B00F2A9
:101490005581636A002B40F0418109F0E9FC8246E6
:1014A000002800F04C8209F0EFFC8346002800F091
:1014B0008A820BF00BF90646002800F081824FF675
:1014C000FF73806FB38506F11C030A93002800F0B8
:1014D0007F8206F16C0206F1680105F0AFF996F81B
:1014E000643096F8DC2096F83D1096F865E096F8A2
:1014F00040C0012060F3020303F0F70360F306131A
:1015000086F8643002F0FE02002363F3410261F0CA
:101510007F0163F3861186F8DC207F2286F83D1078
:1015200086F8C1201B2186F8C22096F87E20A6F8F6
:101530005C1060F3020E63F3000C4FF4A470A6F885
:101540005E10062186F865E0B36786F87C3086F881
:101550007D3086F8C33086F83F30F3867386B386D5
:10156000C6E913337365A6F8C830A6F8CC30A6F8E0
:10157000E83086F840C0A6F86000A6F86200A6F839
:10158000C41002F0E80286F8EA3096F8521196F894
:10159000220196F872C1C6F8003163F3C30286F8DF
:1015A0007E2001F0FC0196F89A21A6F8043163F33D
:1015B000820100F0FD0063F3041C63F3C30263F3D4
:1015C000000086F852115849C6F81C1186F872C1FD
:1015D00086F89A21A6F8183186F8213186F820314C
:1015E00086F82B3186F8513186F85031A6F87031E3
:1015F000A6F89831A6F8A431C6F82CA186F82201E5
:101600000B930BF0E3FBA6F8D6000BF0E5FB96F886
:10161000AB210B9BA6F8A83102F0F70263F300029E
:1016200086F8AB21A6F8D8000BF0DCFB96F8AC21CD
:1016300060F3020286F8AC210BF0DAFBC4E934ABAC
:101640000A9B636296F8AC210B9B96F82010C6F8B3
:10165000C03160F3061263F3C30263F30001C6F8FE
:10166000BC31C6F8B831C6F8B431C6F8B031C6E9F5
:101670000533F66186F8AC2186F820100FF084FF60
:1016800000285BD00AF028F8032048E00D93002ED4
:1016900044D0204609F08AFC84420CD040F2EC434E
:1016A000224A2349234816F064FA404080F3118807
:1016B0004FF0030002DF94F82830D9070DAD0ED5A6
:1016C000032100951C4B0122002006F01BFB29463C
:1016D00009F060FC002840F0638102230D93032190
:1016E0000095154B0222002006F00CFB294609F05C
:1016F00051FC002800F0E4800A4809F057FC8442BD
:101700000CD040F20553094A09490A4816F031FA4B
:10171000404080F311884FF0030002DF0C200FB02F
:10172000BDE8F08F78210020FF4901009C9901005D
:10173000209A0100E895010089AF000094F8283054
:1017400084F82A900EA8C3F3420300F8043D012157
:1017500005F0E8F9002800F08E80625D98F801300D
:101760007E7802F00F02022A00F1FF3100F00D81B5
:10177000012A00F0DF80F6008036002A40F019814F
:101780001033DB00F01800F54D7003F59A7303FB7E
:10179000010094F82070984AE4610026312366F332
:1017A0000007A0FB0201236084F8207090A3D3E916
:1017B0000023C4E90566C4E90166FFF7A1FCE06007
:1017C000B4F8D88006F0E4FA0746B8F1000F07D164
:1017D000665D06F00F06A6F10106B6FA86F67609F2
:1017E00094F82800D4F80CC066F3000010F001054E
:1017F00084F8280000F0A580804D814B05930020DF
:101800000CAE03210694CDF810C0CDF804C0CDE98C
:101810000756CDE9020000903B46022206F0CEF9C1
:10182000314609F0B7FB30BB764905914AF2D83210
:10183000CDE90756009202250694CDE90300CDE9D3
:1018400001003B46012203210C9506F0B7F9314611
:1018500009F0A0FB78B994F8CC3043F0010384F888
:10186000CC300AF001FB044600284FD101200EF0D5
:10187000BDFC204653E7636A002B3FF44FAF09F0ED
:101880002BFF4BE7062108F1020004F0CBFF0028F4
:1018900079D0635DF8E5C0F38000324604F1DB01E6
:1018A0000EF080FDFF28814632D142464946564817
:1018B0000EF0F2FC3A46494653480EF0EDFCDFE5E7
:1018C000524809F0ABFB38BB4F4809F079FB844222
:1018D0000CD040F20E534E4A4E494F4816F049F98B
:1018E000404080F311884FF0030002DF636A0BB1C0
:1018F00009F0F2FE94F8CC306FF3000384F8CC309A
:1019000000200AF0B1FA04460028B0D0002006E713
:1019100030460EF0AFFFC8E740F20B533C4A3F4958
:101920003D4816F026F9404080F311884FF003003F
:1019300002DFC9E74FF47F704FF4F27327E7072007
:10194000EDE63748DFF8B8E006941FFA88F8A8FB00
:101950000001912303FB0811284B02950CAECDE941
:10196000073623A3D3E90023CDE9035CCDF814E0C7
:10197000FFF7C6FB3B46CDE9005002222846032173
:1019800006F01CF963E71220C9E603F11002D20049
:1019900000FB02F000F5AA70642303FB0100F8E6E7
:1019A000194809F003FB84423FF4B8AE40F2F64315
:1019B000A9E6062A10D04FF41B704FF4DA73E6E65E
:1019C000584609F067FA504609F058FA0720A6E68B
:1019D00006F17000B0677CE503F11002D20002F559
:1019E0004D70304402F59A73D1E600BFAFF300802A
:1019F0008D49FD1A0700000000CA9A3B89AF00001C
:101A000059B4000055B60000782100209421002030
:101A10009C990100209A0100E8950100609901005D
:101A2000002AE784000000002DE9F047184D9DF8DA
:101A300020C095F8484014F001081FD195F8326095
:101A4000DFF850E0A5F842101FFA82F960F3C716DC
:101A500063F34204A9FB0E016CF3C406912303FB5C
:101A6000091185F8484008A3D3E9002385F83260BE
:101A7000FFF746FB68644046BDE8F0874FF00C086E
:101A80004046BDE8F08700BF8D49FD1A0700000001
:101A900074220020002AE7842DE9784805469DF845
:101AA0001860AC7D0C48EA841FFA83FB61F3C7140D
:101AB0009123ABFB000166F3C40403FB0B11AC756F
:101AC00003A3D3E90023FFF71BFBA862BDE87888D6
:101AD0008D49FD1A07000000002AE784000000007D
:101AE0002DE9F04390F83230044600F1350190F8CA
:101AF000480003F0F903C0F340008FB060F3861391
:101B000084F8323002230B9306F048F9B4F84260AF
:101B100094F820304848E4610025A6FB000165F3F5
:101B20000003912202FB061184F82030C4E9055518
:101B30003FA3D3E90023FFF7E3FA636C6560064631
:101B40000933A6F1310293424FF03101A56028BF5D
:101B50006564216034BFE360E26006F019F9656AEC
:101B60008146002D47D00694B4F842703248E268AE
:101B7000DFF8D0C00492A7FB0001912303FB0711FB
:101B80002E4B059300250BAF29A3D3E90023CDF8F5
:101B90001CC003950897FFF7B3FA104619464FF497
:101BA0007A720023FFF7ACFA0095CDE901604B464D
:101BB00028460422032106F001F8394609F0EAF923
:101BC000054668B994F8483043F0010384F848307A
:101BD00009F0BEFF044638B128460FB0BDE8F083D7
:101BE0000C200FB0BDE8F08302200EF0FFFA204673
:101BF0000FB0BDE8F0830EABE16843F8045D31310E
:101C00000CAA03200C950EF009F90D990029AAD011
:101C10000B4807A3D3E90023A1FB0001FFF770FAEB
:101C20000C9B20F07F4000EB03099CE7AFF30080A2
:101C30008D49FD1A07000000002AE784A5BB0000BB
:101C400000CA9A3B89AF00002DE9F04F0446808D11
:101C50004FF6FF7398428FB00D46164600F08C8009
:101C600094F8E93094F8E82093424BD0D31A03F06B
:101C70000303022B58D094F8292194F828319A4272
:101C80003CD04B4804F084FD78B394F8283184F8B4
:101C900029310379022243F0030342710371C271B7
:101CA000D4F8B03194F82A210272002B58D094F85D
:101CB0005221910754D494F8AB21D20750D4D4F8D0
:101CC000BC21934204BF1A68C4F8BC21D4F8B421E3
:101CD000002A48D11A68026018600368C4F8B40189
:101CE000C4F8B8010BB9C4F8C001B4F8CC0028B9E5
:101CF000B4F8C630012B4DD9A4F8CC3000200FB079
:101D0000BDE8F08F94F8527117F00108B3D194F840
:101D1000051194F80401884200F09A83023B0122E5
:101D200084F8E93084F8EA2094F8983194F89921FD
:101D30009A4207D094F89A2102F00701081F01285F
:101D400040F2D08394F8EA30013B052B00F2728315
:101D5000DFE813F01202E6018D01700350018000EC
:101D6000D4F8B421E2B1D4F8B8311A68026018602E
:101D7000C4F8B8010368B5E74FF444730D4A0E493F
:101D80000E4815F0F6FE404080F311884FF0030036
:101D900002DF65E70133A4F8CC300FB0BDE8F08F67
:101DA0000360C4F8B001C4F8B401C4F8B80199E7FD
:101DB000B4250020A89B0100889C0100E895010043
:101DC000C1F3820384F8A901980741F1F883022343
:101DD00063F3840184F8AA1194F8AA3159098D0794
:101DE00041F1E483022161F3471384F8AA3194F8A6
:101DF000AA1194F86430C1F3820003F00703834210
:101E000094F8EC3014BF60F384036FF3840384F818
:101E1000EC3094F8653094F8AB01490903F00703FE
:101E20008B4294F8EC3014BF61F347136FF3471300
:101E300084F8EC3094F8EC10C0F3800041F001011C
:101E4000931E60F34101062284F8E93084F8EC1017
:101E500084F8EA20E38E628E94F8EC5013441E441A
:101E6000EF07B6B2AB4600F1B783B4F8EE20B61A6E
:101E700032043FF500AF94F8DC2094F8648094F8C5
:101E800065A094F8E81084F8E910D30708F0070873
:101E90000AF0070AB4F86060B4F86290B4F8D87039
:101EA000D4F81C1140F1D984080540F1D684B7F567
:101EB000296F28BF4FF42967B7F5A47F4FF4296332
:101EC00038BF4FF4A4770A9315F01C0F0DD094F887
:101ED000642094F85C00C5F3820161F3020284F887
:101EE00064203A460AF04AF8064615F0E00F0CD096
:101EF00094F8652094F85E00690961F3020284F8A1
:101F000065200A9A0AF03AF8814694F8AC2194F8D0
:101F10006410D4F80051C2F3C00262F3C30184F824
:101F20006410002D00F0FD852868002800F0F98578
:101F300094F8641094F865204368C4F80031C1F344
:101F40000201C2F302021BF0020F5FFA81FC5FFA8A
:101F500082FE02D1E04500F08F87A38DEB804FF029
:101F60000E0C002385F8211085F8222085F804C086
:101F700085F82030294608F093FFD4F80051002D51
:101F800000F035862868002800F03186B4F860300B
:101F90004268C4F80021B34209D3BB4207D8B4F861
:101FA00062304B4503D30A9A934240F27987A4F8F2
:101FB0006060A4F8629095F82030A28DEA8043F02A
:101FC0000303092285F8212085F82030B4F85E301B
:101FD000B4F85C10AB840222152329852A7185F898
:101FE00023302946A5F826906E8508F059FF08F0A1
:101FF00061FF40E65F4804F0CBFB00283FF43BAEB6
:1020000094F8E83084F8E930012302794371D4F878
:10201000B03142F0030212210271C171002B00F0B5
:102020000F8494F85221910700F10A8494F8AB21AF
:10203000D20700F10584D4F8BC21934204BF1A688A
:10204000C4F8BC21D4F8B421002A01F01781D4F8D7
:10205000B8311A6802601860C4F8B80103680BB997
:10206000C4F8C001B4F8CA30A4F8CC3003E694F840
:10207000EC3013F003057FF4FEAD3E4804F088FB1E
:10208000064600283FF4F7AD94F93D30002B80F26E
:102090005A8594F8ED50002D00F08F87037994F85D
:1020A000DC2043F003030371D00740F10E87D4F81E
:1020B0001C31590740F10987112203237572F2710F
:1020C00033727371D4F8B031002284F8ED20002B04
:1020D00000F07F8594F85221920700F17A8594F8F8
:1020E000AB21D70700F17585D4F8BC21934204BF1A
:1020F0001A68C4F8BC21D4F8B421002A01F0E280A7
:10210000D4F8B8311A6832601E60C4F8B861336818
:102110000BB9C4F8C06194F8E83084F8E930AAE556
:10212000E38E618E94F8EC200B441E44D707B6B2C0
:1021300000F1AA82B4F8F230F61A35043FF59BADEF
:1021400094F8E83084F8E93004F13805052204F108
:10215000ED01284615F035FF2846052104F0E2FC84
:1021600094F83D30012260F3050384F83D3084F893
:10217000C42180E5B4250020DFF85884D8F8003069
:10218000002B00F05A83E38E618E94F806210B44F5
:10219000334412F003029FB240F0AA82B4F8EC304C
:1021A000FF1ABFB239043FF566AD94F8701194F888
:1021B000713194F8040184F805018B4294F8E80029
:1021C00084F8E90009D094F8723103F00703052B75
:1021D00004BF84F87111A4F8CC20D8F800309C42D8
:1021E00004BF0023C8F80030D4F80081B8F1000F14
:1021F00000F04983D8F80000002800F04483B4F8C8
:102200000831E18D4268C4F800219942B4F80A21EE
:10221000B4F80CE100F06A84A18DA8F806104FF024
:102220000A0C0021A8F82230A8F82420A8F826E0FB
:1022300088F804C088F82010414608F031FE08F004
:1022400039FE2368002B09DAD4E9011223F0004398
:102250008A422CBFAD186D182360ED1AE38DB4F8D7
:10226000088113FB07F39BB2B3FBF8F11FFA81FA65
:1022700018FB0AF292B2934280F0F482D31AC84853
:1022800040F2E24202FB03F3A3FB0001C2A3D3E945
:102290000023FEF735FF20F07F400544638E94F95C
:1022A0003D203344DB1B534440F2E24B002A63865B
:1022B0000BFB08F9C0F2B884D4F81001B849B6A3F2
:1022C000D3E90023A0FB0101FEF71AFF20F07F40B5
:1022D000431C0D934E46B4F80C21B4F80A11B14BCF
:1022E000A4F82E8042F2107000FB0292AE482186C4
:1022F0004B444844B3FBF9F3013AB2FBF9F2B0FBAB
:10230000F9F9A4F8C62098B28A1D9042A4F8D20028
:10231000A4F8CA9004DDC1F57F41FA31014488B2C6
:1023200094F80631A4F8CE005B0744BF0023A4F85C
:10233000C8300221012011F095FD002202218346C0
:10234000012004F0CBFA4FF4E4729849204604F0DF
:1023500055FA05305FFA80FA954B009452460121F8
:10236000002005F0CFFC30F002030CD040F66813DB
:10237000904A9149914815F0FCFB404080F3118848
:102380004FF0030002DF864BA6FB0367304682A3B3
:10239000D3E900233946FEF7B3FE894A8046072376
:1023A00020F07F40002103FB00F302FB0133A0FB80
:1023B0000212CDE90A121A440B92DDE90A01301A21
:1023C00067EB01014FF47A720023FEF799FE7D4E10
:1023D00094F93D207C4BE168049136EA220628BF3F
:1023E0001E467A490D9B029028F07F4700200093FB
:1023F00007912B4601970894069452460596039040
:10240000012105F0DBFB30F002030CD040F6821313
:10241000684A6949694815F0ACFB404080F311886F
:102420004FF0030002DFBBF1000F40F056836FF066
:10243000470064E440F296335E4A65495F4815F010
:1024400098FB404080F311884FF0030002DF12E454
:1024500094F8190194F818C1604565D194F82101E8
:1024600094F820C1604500F01E82A0EB0C00C1076B
:102470007FF501AC94F8223113F0010700F03386A8
:102480009A0740F1008608F039FD014620B394F820
:10249000203184F8213190F82030A28DC28043F0A1
:1024A000030381F82030022006220C2381F821202A
:1024B00081F82330087194F82301B4F82421B4F88A
:1024C0002631A1F8273081F82400A1F825200868DA
:1024D00008F0E6FC08F0EEFC94F8E82094F8E93007
:1024E000FFF7C4BBC2F30207F8B207280ED04FF0C3
:1024F000010808FA00FC1CF04E0E7FF423AC1CF01F
:10250000300F40F07284002800F02E8640F63353DE
:10251000284A2F49294815F02CFB404080F31188A8
:102520004FF0030002DF0DE4A0EB0C00C1077FF5C4
:10253000A2AB94F8DC3013F0010900F0018408F03C
:10254000DDFC07460028C7D094F8183184F819310B
:1025500090F82030A28DC28043F0030309220220AC
:10256000414687F82030387187F8212087F82320EA
:1025700007F12400082215F051FDD4F81C3187F82A
:102580002430C3F307221B0C87F8252087F8263058
:1025900039469CE7AFF300808D49FD1A0700000023
:1025A00000CA9A3B7FC3C901FF596202DC220020A6
:1025B000F9C20000A89B01000C9B0100E8950100F6
:1025C0008D49FD1AF9F4000085F30000A1C2000056
:1025D00074950100A4240020022008F071FC8046BC
:1025E00000283FF448ABC44804F0D2F80546002860
:1025F0003FF441AB94F8EC206FF30002D3B2C3F385
:10260000820757EA531784F8EC2040F04D8594F880
:10261000E820A4F8EE709E0784F8E92000F108860F
:102620003B46394605226A712F722A796B72D4F8BB
:10263000B031698142F0030218212A71E971002B3F
:102640004AD094F85221900746D494F8AB21D10790
:1026500042D4D4F8BC21934204BF1A68C4F8BC2108
:10266000D4F8B421002A00F02086D4F8B8311A68D2
:102670002A601D60C4F8B8512B68002B7FF4FBAAB8
:10268000C4F8C051FFF7F7BA9B4804F081F805463B
:1026900000283FF4F0AA228E037994F8EC10063259
:1026A00043F0030316446FF300010820012284F86D
:1026B000EC10A4F8F26004F1ED012B716871EA717D
:1026C0002818052215F07DFCD4F8B031B4F8F220BA
:1026D000A5F80D20002BB4D1D4F8B421002AC4D120
:1026E0002B60C4F8B051C4F8B451C4F8B851C4E771
:1026F000012008F0E5FB804600283FF4BCAA7E4894
:1027000004F046F8064600283FF4B5AA08F0F6FBA8
:10271000D8F80030D4F800215A6094F80631C4F893
:10272000008103F00303012B00F02484022B40F00E
:1027300024847249238E94F80621307906333B4471
:102740009BB26FF301020C2784F80621A4F8EC3049
:1027500040F003007771D4F81021694F30710020E8
:10276000F071A7FB020294F8147120683772B4F874
:102770000871A6F80B70B4F80A71A6F80D70C2F3D0
:102780008F22B4F80C71A6F80F700028A6F811304B
:10279000A6F80920C4F8F4500ADAD4E9012320F09D
:1027A000004093422CBFED18AD18281AC4F8F4006D
:1027B000544D06F109030122C4F8F030E9602B46BC
:1027C00010460221AC6004F0BDF860B140F64C0345
:1027D0004D4A4E494E4815F0CCF9404080F31188DF
:1027E0004FF0030002DFD4F8B031002B00F00F826D
:1027F00094F85221950700F10A8294F8AB21D00792
:1028000000F10582D4F8BC21934204BF1A68C4F8D1
:10281000BC21D4F8B421002A00F0B785D4F8B8312F
:102820001A6832601E60C4F8B8613368002B7FF408
:1028300022AAC4F8C061FFF71EBAC8F80040A2E49B
:10284000D4F8B421002A7FF402AC0360C4F8B001CC
:10285000C4F8B401C4F8B80101E44FF4A4770A97AE
:10286000FFF732BB08FB113340F2E2429BB229482A
:1028700002FB03F3A3FB00011DA3D3E90023FEF732
:102880003FFC2D1A0AE540F6C3031F4A224920489F
:1028900015F06FF9404080F311884FF0030002DF1C
:1028A000D8F80000ABE494F871C194F87001844545
:1028B00000F00B82DFF86480D8F80000002800F0F8
:1028C000A18484427FF4D7A994F8720100F0070034
:1028D000052800F2F484DFE800F08D4F23030303A2
:1028E00011461A460B46FFF7C1B900BFAFF300808F
:1028F0008D49FD1A07000000B425002031FE0000BC
:102900005917B7D1EC540020A89B0100389801005A
:10291000E895010000CA9A3BA49C0100A424002071
:10292000BB073FF5A8A908F0E9FA014600283FF4E3
:10293000D3AD90F8203094F87221A78D032060F376
:1029400002020343182084F8722181F8203081F8B4
:102950002100B4F87401B4F87621B4F87831888491
:10296000B4F87A01CA840B8502220F23CF804885F0
:102970000A7181F82330AAE594F87371002F40F0B2
:102980001D8594F93D30002BC0F2BE8594F872315C
:1029900094F87C21C4F81071052060F30203012033
:1029A00084F8723184F81401002A00F01186B4F81A
:1029B000743193FBF2F3034413FB02F3A4F80831E0
:1029C00094F80631B4F8780194F87221A4F80A0159
:1029D0000220C2F3C00260F3010362F382030139F3
:1029E000B4F87A2184F8051184F80631A4F80C2192
:1029F000FFF741B9C848B4F83690B4F832A003F0F4
:102A0000C7FE074600283FF467AD027994F87211BB
:102A1000042060F3020142F00302182084F87211CE
:102A200009EB0A033A717871B4F87401B4F87611BD
:102A3000B4F8782138813344B4F87A017981BA81C5
:102A40000F210022A7F811304FF0FF33F881F97100
:102A50003A74FA743A757B75BB75FB753B767B7679
:102A6000BB76FB763B777B77BB773946204609F010
:102A7000D1FA2268B4F8CA30C8F80040002AC4F875
:102A80009051A4F8CC300ADAD4E9011322F00042C4
:102A90008B422CBFEB186B189B1AC4F89031DFF8EF
:102AA0009CC213370122C4F88C7163461046022180
:102AB000CCF8084003F046FF00283FF40DAD974ADC
:102AC000974940F67933974815F053F8404080F322
:102AD00011884FF0030002DFFEE4012210460221BC
:102AE00003F0FCFE6FF04700FFF709B9B4F830C0FF
:102AF00094457FF491AB40F2E24909FB01F942F2BF
:102B0000107101FB0E91B4F8C6C00139B1FBF9F1A7
:102B100089B28C457FF480AB032388F80430FFF73B
:102B20008BBB40F63B637D4A7F497E4815F021F818
:102B3000404080F311884FF0030002DF286894F8CA
:102B4000ECB0FFF7F5B904F17F073B462A4604F1E4
:102B5000EE0104F25D1010F0E7FB3946102204F19B
:102B6000A00015F02EFA082204F1980104F1B90032
:102B700015F027FA94F8971094F8B82094F87E305E
:102B800084F88F5043F0080365F3000142F001021E
:102B900084F8971084F87E3084F8905084F891502F
:102BA00084F8925084F8935084F8945084F89550A7
:102BB00084F89650C4F8B050C4F8B45084F8B820E3
:102BC000311D204609F038FCD4F8B031002B7FF4D9
:102BD00081AAD4F8B421002A7FF492AA3360C4F801
:102BE000B061C4F8B461C4F8B861FFF791BA40F6B7
:102BF00067634A4A4C494B4814F0BBFF404080F39E
:102C000011884FF0030002DF2868FFF7BFB9D4F83E
:102C1000B421002A7FF402AE3360C4F8B061C4F876
:102C2000B461C4F8B86101E6E26C636C3F4E03FB2B
:102C30001727E7640FF050FD074694F8DC00C0F357
:102C400082000FF04BFD3B1809FB03F3384FE26C99
:102C500094F8141103F5742303F23F23A7FB030335
:102C60009F0C07FB0AF04FEA59030244963B9A4235
:102C70000BFB01FC28BF1A464FF0000EC4E91232CC
:102C8000A0FB060122A3D3E90023C4F854C0C4F872
:102C9000E4E06764FEF734FA264AD4F81031A2FB68
:102CA00003239B0A0BFB03FB2D1A19A3D3E9002373
:102CB000ABFB0601FEF724FA20F07F43A9EB0706E1
:102CC0000D93B4F80881FFF706BB94F8980194F8C7
:102CD0009911814200F0FF8094F89A31C3F3020702
:102CE000FAB2072A0CD00121914011F04E0F7EF468
:102CF000C2AF11F0300F40F00583002A00F0888346
:102D000040F63353054A0C49DDE600BFAFF30080BF
:102D10008D49FD1A07000000B4250020A89B010082
:102D200038980100E8950100A49C010000CA9A3B74
:102D300083DE1B435917B7D174950100FC54002062
:102D4000D24803F025FD074600283FF4C5AB94F8B0
:102D50001931CF4AC4F81C21013B092284F81931EA
:102D6000427194F93D200379002AB4BF0E22082253
:102D700043F00303C271082203714946104415F061
:102D80004DF9D4F81C313B72C3F307221B0C7A7245
:102D9000BB72D4F8B031002B00F08B8094F8522134
:102DA000920700F1868094F8AB21D00700F1818072
:102DB000D4F8BC21934204BF1A68C4F8BC21D4F8EB
:102DC000B421002A00F0F182D4F8B8311A683A60D0
:102DD0001F60C4F8B8713B680BB9C4F8C071B4F88F
:102DE000CA30A4F8CC30FFF777BBB4F89C71B4F8C4
:102DF000A001A4F85E700429A4F86200B4F89E81D2
:102E0000B4F8A27100F0A681062363F3020284F8ED
:102E10009A21D4F80091B9F1000F00F0BE80D9F8E2
:102E20000000002800F0B98099F820304268C4F80A
:102E3000002143F003030921A28D89F8203089F88D
:102E40002110B4F85E30B4F86210A9F80620A9F891
:102E5000243002221523A9F8261089F8042089F8C5
:102E600023304946A9F82880A9F82A7008F018F8F4
:102E700008F020F8FEF766BFF2457FF46EA8032342
:102E80002B71294608F00CF8D4F80051002D00F001
:102E90002A822868002800F026824368C4F800319E
:102EA00003232B71294607F0FBFF08F003F8FEF718
:102EB000E2BED4F8B421002A86D13B60C4F8B071D8
:102EC000C4F8B471C4F8B87186E70D23F371357294
:102ED0000223FFF7F6B894F8A80194F8A9118142EB
:102EE0003EF4C9AE94F8AA1101F00307032F00F2D3
:102EF000F7810FF2080C5CF827F000BF0D2F0000DF
:102F0000E1280000E1280000C11D00005F4803F037
:102F10003FFC014600283FF4DFAA94F8AA0194F888
:102F2000AC3194F8AB710A794FF0010C6CF30100ED
:102F30005FFA80FCCCF3820E6EF30203CCF3421CEA
:102F40006CF30613C7F3400767F3C30384F8AA01C1
:102F500084F8AC3142F00302032016230A7181F891
:102F600008E081F809C04871CB710022204609F0C1
:102F700051F834E74749FFF7DDBB40F69203464A74
:102F80004649474814F0F5FD404080F311884FF062
:102F9000030002DF0021FFF7CDBB40F60B533E4A92
:102FA00040493F4814F0E5FD404080F311884FF060
:102FB000030002DFD9F8000036E704F17F073B4643
:102FC0002A4604F1EE0104F25D1010F0ADF9394625
:102FD000102204F1A00014F0F4FF082204F198017B
:102FE00004F1B90014F0EDFF94F8972094F8B810AC
:102FF00094F87E3084F88F5042F0010265F30001AE
:1030000043F00803012084F8972084F8B81084F86E
:103010007E3084F8905084F8915084F8925084F86F
:10302000935084F8945084F8955084F89650C4F8DE
:10303000B050C4F8B45032797071D4F8B03142F065
:10304000030205213271F171002B75D094F85221E1
:10305000950771D494F8AB21D0076DD4D4F8BC2176
:10306000934204BF1A68C4F8BC21D4F8B421002AE2
:103070007FF446A81A6832601E60C4F8B461C4F8D0
:10308000B861FFF744B840F62A333BE6B425002088
:10309000FF4901002DFE0000A89B0100749501006E
:1030A000E8950100A49C0100238E06331E44A4F879
:1030B000EE6007F023FFD8F80030D4F800215A6002
:1030C000C4F8008107F01AFF0368D4F800215A60A1
:1030D00094F8EC30C4F80001C3F38207B4F8EE10A2
:1030E0005B09FFF79FBAC64803F052FB00283FF484
:1030F000F3A994F8213194F82211013B84F821318D
:10310000037941F0010143F0030384F822110C21FB
:1031100003710A234FF0060C3A46C1716FF00E0797
:10312000052103724FF0FF33817280F805C04772AA
:10313000C3720373014619E7D4F8B421002A7EF460
:10314000DFAF3360C4F8B061C4F8B461C4F8B861EB
:10315000FEF7DDBFB4F8A411002940F0998084F88F
:103160009931A4F8CC1054E6A54803F011FB0028CF
:103170003EF4E8AD94F89A11B4F89E21B4F8A23167
:10318000A4F8D620A4F8D83068F30201037984F8B3
:103190009A110921417194F8DC10828147F01B0ECD
:1031A00043F003034FF0140C477280F808E00371FA
:1031B00080F807C0CF07B4F8D830D4F81C2140F10C
:1031C0008B80110540F1EB80B3F5296F28BF4FF4D8
:1031D0002963B3F5A47F38BF4FF4A4734FF4296279
:1031E000B2F5A47F38BF4FF4A4724281C381014677
:1031F0000022204608F00EFFB4F8CA30A4F8CC3004
:10320000FEF7A0BD94F8723103F00703052B56D8E2
:1032100001A252F823F000BFF5290000792900002F
:1032200021290000771C0000771C0000771C00009B
:1032300007F064FEA28D88F8207094F86430A8F836
:103240000620C3F3020388F8213094F86530D8F8DB
:103250000000C3F302030E2288F82230414688F8AA
:10326000042007F01DFE07F025FE94F8EC30B4F8BA
:10327000EE10C3F382075B09FFF7D4B91A68026046
:1032800018600368C4F8B401C4F8B801FEF7E7BEDB
:103290006EF30202B4F8A63184F89A21A4F89E11C4
:1032A000A4F8A4E1A4F8A231B3E51A682A601D606D
:1032B0002B68C4F8B451C4F8B851FFF7DEB940F632
:1032C00037431FE51A6832601E603368C4F8B46182
:1032D000C4F8B861FEF71CBF4FF4A4731A467FE729
:1032E00040F6AE530EE540F64A63464A4649474823
:1032F00014F03FFC404080F311884FF0030002DFE0
:103300002868CAE5B4F89C21A4F85E2003F00702FF
:10331000B4F8A011A4F86210042AB4F89E91B4F88D
:10332000A28100F0E880062262F3020384F89A3159
:10333000D4F80071002F00F0CF803868002800F02A
:10334000CB8097F820304268C4F8002143F0030393
:103350000921A28D87F8203087F82110B4F85E305B
:10336000B4F86210FA80BB8402221523F9843A7102
:1033700087F823303946A7F82890A7F82A8007F065
:103380008FFD07F097FDFFF7A7B81A6832601E603F
:103390003368C4F8B461C4F8B861FFF747BAD70519
:1033A0004FF4A4739AD5A8221AE71A683A601F60EE
:1033B0003B68C4F8B471C4F8B8710DE5104803F067
:1033C000E7F9014600283FF487A8037943F0030397
:1033D0000B71112003220F23C8714A710B7294F8EC
:1033E00073314B720022204608F014FE94F87031BD
:1033F00084F871310023C8F80030FFF76DB800BFC2
:10340000B4250020A89B0100A49C0100E8950100C0
:10341000904803F0BDF900283FF45EA894F89A1193
:10342000B4F89E21B4F8A2C1A4F8D8C00123A4F82E
:10343000D62063F30201037984F89A1109214171BE
:1034400047F01B0C8281D4F81C21477294F8DC7081
:1034500080F808C043F003031421C1710371FF0712
:10346000B4F8D83002F4006140F1E280002940F065
:10347000E380D2054FF4A47340F1DC80A821D4F896
:10348000B021C381B1F5A47F38BF4FF4A47141814D
:10349000002A7FD094F852319B077BD494F8AB314B
:1034A000DF0777D4D4F8BC319A4204BF1368C4F85C
:1034B000BC31D4F8B431002B00F0B280D4F8B8316C
:1034C0001A6802601860C4F8B8010368002B7FF422
:1034D00086ACC4F8C00182E440F60B535E4A5F49F3
:1034E0005F4814F046FB404080F311884FF0030022
:1034F00002DF386825E7B4F8A421002A6ED184F8E9
:103500009901A4F8CC2013E7524803F041F9014691
:1035100000283EF4E1AF0379182243F0030303715E
:103520004271B4F87421B4F87631B4F878010A81A4
:10353000B4F87A214B8110238881CA81CB7194F829
:103540007C310B74B4F87E31B4F88001B4F8822178
:10355000A1F81130B4F88431A1F81300B4F8860151
:10356000A1F81520B4F88821A1F81730B4F88A31F1
:10357000A1F81D30A1F81900A1F81B2020463A46F9
:1035800008F048FD94F87031C8F8007084F8713183
:10359000FEF7A2BFD4F8B431002B8FD10260C4F87B
:1035A000B001C4F8B401C4F8B8018EE7C80723D548
:1035B000012161F3471384F8AA31FEF718BCDF0735
:1035C00024D5012363F3840184F8AA11FEF704BC17
:1035D000B4F87631A4F80831FFF7F2B9002161F3AD
:1035E0000203A4F89E21B4F8A62184F89A31A4F825
:1035F000A411A4F8A2219BE611F0040118BF042134
:1036000061F3471384F8AA31FEF7F1BB13F004030A
:1036100018BF042363F3840184F8AA11FEF7DCBB0E
:10362000136803601060C4F8B401C4F8B8014CE733
:103630004FF4A473194622E7B3F5296F28BF4FF45E
:103640002963B3F5A47F38BF4FF4A4734FF4296105
:1036500015E700BFB4250020A89B0100A49C010031
:10366000E8950100000000002DE9F04F9346126834
:1036700097B01F46156853F80C4B0A950D4600216C
:1036800091600F9005F132011846032207F10808F6
:1036900014F097FC07F11C0605F12E0104224046A8
:1036A00014F08FFC0522304605F13E0114F089FC30
:1036B0003046052103F036FA95F8432097F821604B
:1036C00094F8DC1060F305061346C2F3040287F891
:1036D000216087F822202E8F7E8295F83A2095F877
:1036E0003B005B0942EA0022BA8263F38401EB8E5D
:1036F00084F8DC10ADF840300EF0EEFF824694F80E
:10370000DC00C0F382000EF0E9FF40F2E24909FB61
:1037100006F6504406FB00F0DFF840C395F835107C
:10372000BA8AC54B00F5742000F23F20ACFB00C004
:103730004FEA560C09FB01F1800CACF1960CB86213
:10374000F963C7F82CC0B5F83C90BC4842F2107140
:1037500001FB0961334402F1060CB3FBF6F30139B6
:10376000B1FBF6F1A4F8C61099B261453044A4F853
:10377000D210B0FBF6F0A4F8CA0004DDC2F57F4217
:10378000FA320A4491B2A4F8CE100422414604F160
:10379000E00014F016FC05F12203062205F12801D1
:1037A00014A895F820A09BF815800C9314F009FC40
:1037B00095F820300C99C3F38013062212A88DF8D7
:1037C000443014F0FEFB95F820204FF48073CAF3C8
:1037D000C01A85F82FA02B84C2F3401A14A9062220
:1037E00005F1300014F0EDFB05F129035FFA8AF2D0
:1037F000B8F1FF0F0E930D9205F1230300F0F38053
:103800001A460C9940460CF043FC95F822300E986D
:10381000023312A985F82230062214F0D2FB94F864
:10382000DC30798ABA8A2A87C3F3820385F83C3070
:10383000E986A5F83A90204608F054FF29463882D8
:10384000E880DBF804500F9807F02AFB3B8AEB80F6
:103850000D232B710D9B2868002B00F0C18097F879
:1038600009E03B7A97F80BC0B97A97F8212041EA32
:103870000C2143EA0E234B4042F0400201217B849D
:1038800087F8212085F82010294607F009FB07F06A
:1038900011FBDBF810506A4A4FF0000805F2524065
:1038A0003123A0FB02012360C4E9018860A3D3E9AE
:1038B0000023FDF725FCDBF80C30BF6AA3F5AE73DF
:1038C0005D1BBDF8403020F07F4040F2E24202FB39
:1038D000032302214246E06001201D44F61B02F052
:1038E000FDFF0A9F384608F017F9821CD2B2404605
:1038F0000097544B012104F005FA012800F08C8058
:103900000A9B93F82830DB077ED44D4B2046A6FB5C
:10391000036708F0E7FE46A3D3E900238246394651
:103920003046FDF7EDFB484A06948046072320F019
:103930007F40002103FB00F302FB0133A0FB0201E7
:10394000CDE90A0119440B91DDE90A0140F21D128B
:10395000DBF808C0DFF808E108923C4ACDF81CE02B
:103960000592E3680493301A67EB01014FF47A7211
:1039700000270023ACF131060397FDF7C1FB304966
:1039800002902BA3D3E9002328F07F44A5FB01017B
:103990000194FDF7B5FB0AF1050A20F07F405FFABC
:1039A0008AFA0090334652463846012104F006F95F
:1039B00030F002030CD040F21F13254A2549264857
:1039C00014F0D7F8404080F311884FF0030002DF75
:1039D00001221046022102F081FF17B0BDE8F08FEE
:1039E00085F820A050E70E980C930622002114F0D1
:1039F00015FB9DF8443085F822300C9B12A918461F
:103A0000062214F0DEFA0AE700230122009318468A
:103A1000114604F077F978E707F0DEFA0A9B834253
:103A20003FF46EAF0BF08AFC6AE700BFAFF3008093
:103A30008D49FD1A070000007FC3C901FF596202CA
:103A400000CA9A3B69F300008D49FD1A85F3000016
:103A5000709D01000C9B0100E895010083DE1B4373
:103A60000DF30000000000002DE9F0410F46D0E901
:103A70000C15C66A4C193034A642904618D9144C1D
:103A800011A3D3E90023A6FB0401FDF739FB303570
:103A900020F07F4038600CA3D3E90023A5FB04018C
:103AA000FDF72EFB20F07F40C8F80000BDE8F08154
:103AB000074D05A3D3E90023A1FB0501FDF720FB7A
:103AC000A41BE5E7AFF300808D49FD1A0700000055
:103AD00000CA9A3B000000002DE9F04F174695B050
:103AE000126891F820A0D2F800900C900C461D4668
:103AF0004FF0000801F12203C2F80880194606229F
:103B000012A80D9397F815B02E6814F05AFA94F88D
:103B1000203004F12801C3F3C01C062210A88DF840
:103B20003CC014F04EFA94F82030A4F82080CAF378
:103B3000801A84F82FA00622C3F3401A12A904F1B8
:103B4000300014F03EFA5FFA8AF20B92BBF1FF0FDD
:103B500004F1230204F129030E9200F0D8800D999C
:103B60000E9358460CF094FA94F822200E9B0232E1
:103B700084F8222010A91846062214F022FA6B8A33
:103B8000AA8AE386B9F83030638722870EF0A2FD57
:103B900084F83C00304608F0A5FD03462882214603
:103BA000E3800C987C6807F07BF92B8AE3800D2377
:103BB00023710B9B2068002B00F0A68095F809E08C
:103BC0002B7A95F80BC0A97A95F8212041EA0C21AF
:103BD00043EA0E234B4042F0400201216B8485F8FA
:103BE000212084F82010214607F05AF907F062F9E5
:103BF000D7F810B0DFF858A1002431230BF252405F
:103C00003360C6E901444AA3D3E90023A0FB0A01BB
:103C1000FDF776FAB5F812C0FB6820F07F40F0603F
:103C200022460221012040F2E24808FB0CF8A3F5ED
:103C3000877502F053FE484608F0FAF8021DD2B22A
:103C400000923D4B0121204604F05CF823460322FC
:103C500001210094204604F055F8304608F042FD5A
:103C600006964FF41973D7F808C0344A0893344BBA
:103C700007920593F368049388FB0A89471D494618
:103C800040462BA3D3E90023ACF131060394FDF7A2
:103C900037FA104619464FF47A720023FDF730FACE
:103CA00023A3D3E90023029049464046FDF728FAB2
:103CB000A5EB0B051EA3D3E900230190A5FB0A0188
:103CC000FDF71EFAFFB220F07F40009033463A46DF
:103CD0002046012103F072FF30F002030CD040F2C5
:103CE0006623184A1849194813F043FF404080F3EF
:103CF00011884FF0030002DF01221046022102F07A
:103D0000EDFD15B0BDE8F08F84F820A06BE74146CB
:103D10001846062214F082F99DF83C3084F82230CF
:103D200010A90E98062214F04CF928E7AFF3008092
:103D30008D49FD1A07000000C5F40000C9F4000019
:103D4000F9F40000009E01000C9B0100E8950100C1
:103D500000CA9A3B000000002DE9F04F83B00446F2
:103D60000FF07EFD10F0FF0F12D10FF063FD0FF08A
:103D700031FE0FF017FE10F035F80FF0DBFD214695
:103D8000B9480FF02DFC03B0BDE8F04F0FF03ABD7D
:103D90000FF086FD5FFA80F80FF00CFEC6B20FF050
:103DA00013FE074610F02AF8C5B210F015F8824647
:103DB0000FF0C8FD81460FF03DFD0FF00BFE0FF038
:103DC000F1FD10F00FF80FF0B5FD002E53D1002DCE
:103DD00066D1FF27B8F1000FD1D0A37D190752D5C6
:103DE000002E7CD0012007F057F98046002800F013
:103DF000E181A3685FFA89F6002B5BD0A37D1A07E7
:103E000040F1CC8198F8200010F00F0379D198F898
:103E10002130252B40F29E8000F00F000428AED107
:103E200098F82130252BAAD8A37DDA07A7D50FF063
:103E300045FD98F820300278C3F38013B3EBD21F0E
:103E40009DD10830062208F1220114F0AAF80028BA
:103E500095D198F821304FF00009002B8FD0A3683E
:103E6000002B8CD1002D14BF3946FF214A46304625
:103E70000EF01AFB83E7A07DF9B2C0F3C0000CF08E
:103E8000B7FE0746A6E7002EACD0394628460CF010
:103E90009FFF0028A6D1A37D1B077FF570AFA1E788
:103EA0005FFA8AF00CF00EFF074693E738460CF0F5
:103EB0007FFEC0B398F8200010F00F0316D198F8D9
:103EC0002130252B3FF65BAF94F91620002AC0F273
:103ED0008981252B3FF653AF4FF00009BDE73846E7
:103EE0000CF03CFF00287FF47DAF48E7062B00F084
:103EF0006F81022B40F0EF8198F82130252BEBD910
:103F00008AE7012BF2D198F821300C2B7FF437AFE0
:103F100008F12809C00949463A460CF0CBFFC8B958
:103F2000E37DDB07C2D4A37D98F82000C3F38012A1
:103F3000B2EBD01F00F03E82C3F3C1039807B9D59E
:103F400098F92030002BB5DA98F82D3003F0C00333
:103F5000402BAFD1042007F09FF800283FF40FAFAB
:103F60000FF056FEA36A814643B9E28C40F27123FA
:103F700003FB02F3B0FBF3F203FB120923683B4897
:103F8000DB680722A3FB000102FB031134A3D3E982
:103F90000023FDF7B5F8A0F242304845FFF4EFAE3C
:103FA0000FF0AAFCD4F808B00FF088FC037803F0F7
:103FB000D00343F02503037098F820300278C3F350
:103FC000801363F3C7122221417002708246384683
:103FD0000CF0EEFDE37DDA0701460AF1020040F144
:103FE000A081002900F09D819AF8003043F0400341
:103FF0008AF80030062213F0E4FF062208F12201BD
:104000000AF1080013F0DDFF04220BF108010AF1A8
:104010000E0013F0D6FF03220BF10C010AF112007F
:1040200013F0CFFF01238AF81530BBF8123001934B
:104030000FF0EEFDD4F8109000F5DB60B9F1000F41
:1040400000F07E81019A40F2E24303FB02F3B9F1F2
:10405000000F01DB48450BD99944F8E7AFF3008026
:1040600000CA9A3B00000000AD2101008D49FD1AF5
:10407000C8499AF81520A9EB0003A1FB0313C3F369
:104080008F230132AAF816308AF81520BBF81210D7
:10409000BBF81420A38AAAF81C30AAF81810AAF8B2
:1040A0001A200BF11C0105220AF11E0013F089FFF2
:1040B0009BF822209AF8233062F304038AF8233015
:1040C0000EF008FB9AF8233060F347138AF8233088
:1040D00050460FF069FB0FF0B9FB60B140F223339B
:1040E000AD4AAE49AE4813F044FD404080F311881C
:1040F0004FF0030002DF2146AA480FF071FA1EB10B
:104100000FF012FC8BF8A500237943F00102DB07C6
:1041100022710CD540F249339F4AA349A04813F0BD
:1041200028FD404080F311884FF0030002DF06F0C5
:10413000D1FF4FF6FF730646082298F820800271DF
:1041400051462422C380203013F03BFF96F82030E4
:10415000B460C8F3401868F3451386F820300FF0B8
:10416000FBFC0021306108460FF02EFB0021A9EB7B
:104170000000706108460FF01DFB002D08BFFF27EF
:10418000B061777706F0A6FF3146F060306806F040
:10419000B9FF03B0BDE8F04F06F0C4BFFF2F00F039
:1041A0008380207EC01BB0FA80F0400900287FF495
:1041B00029AE7FE640F2AA23774A7C49784813F07B
:1041C000D8FC404080F311884FF0030002DF10E676
:1041D00098F82130252B3FF61FAE94F91620002ABF
:1041E000BFF677AEA268002A7FF473AE96200FF078
:1041F00001FC00200FF066FB002D14BF3946FF21A3
:10420000304600220EF050F900287FF4B8AD0FF0D0
:1042100055FB0378032262F30303037098F8203000
:1042200002780546C3F3801363F3C7120C236B7047
:1042300038462A700CF0BCFCE37DDE07014640F1F5
:104240008E80002800F08B802A78284642F04002B9
:1042500000F8022B062213F0B4FE08F12201062218
:1042600005F1080013F0ADFE28460FF09DFA0FF09F
:10427000EDFA60B14FF46973474A4849484813F072
:1042800078FC404080F311884FF0030002DF0FF00C
:10429000B7FCA37D464843F001032146A37503B054
:1042A000BDE8F04F0FF09CB998F82000C3F340131D
:1042B000C0F3801293427FF4FFAD062208F1220181
:1042C00004F11F0013F06DFEB0FA80F040090028E1
:1042D0007FF498ADEEE5012B7FF49EAD98F8213088
:1042E0000C2B7FF44CAD08F1280AC00951463A4620
:1042F0000CF0E0FD814600287FF4ABADA37D98F87B
:104300002000C3F38012B2EBD01F1FD0C3F3C10350
:10431000980703D598F92030002B2FDB98F8200060
:104320007AE5A37D9AF80020C3F3801363F3861225
:104330008AF8002004F11901062213F042FE5CE61F
:104340008AF816908AF8179081469FE65146062211
:1043500004F1190013F025FEC0B1A37DD6E7A37DBB
:104360002A78C3F38013284663F3861200F8022BE1
:1043700004F11901062213F024FE6EE798F82D309F
:1043800003F0C003402BC9D14FF0010998F8213048
:1043900063E500BF5917B7D11CA2010008A20100B4
:1043A000E8950100ED2301006099010080A2010061
:1043B000C12101004946062204F1190013F0F1FD64
:1043C00000283FF4C7ADA37DB6E500BF08B50020C7
:1043D00000F058FB20B10348BDE8084013F0C9BB0A
:1043E0000148F9E7D4A60100E9A601000B680133F2
:1043F0000B60014B1B681847985100202DE9F04FC6
:1044000085B09B460E9CDFF88890012CB8BF012434
:10441000012B0CBF30232023164682468846029388
:1044200001250A270022B6FBF9F301930AB9B14529
:104430001DD8019B414603F13000D04701350122D0
:10444000019B013F012F09FB13664FF00A03B9FBE3
:10445000F3F9E8D1414606F13000D047BBF1030F34
:1044600002D1641B002C0EDC05B0BDE8F08FBC420D
:10447000E6DBBBF1020FE3D8414602980392013517
:10448000D047039ADCE741462020D047013CE9E7CA
:1044900000CA9A3B014B1860704700BF985100203A
:1044A00013B502AC002344F8043D02460B46034812
:1044B000214613F0E6F902B010BD00BFED43000045
:1044C0002DE9F041114B124D124C5B1B9B106343C5
:1044D000114C4FF0240ED4F824C000249C4203D188
:1044E0006FF02200BDE8F0810EFB04567768674547
:1044F0000AD3366946B197F802800779B84503D1E7
:104500003346BDE8F04118470134E7E7A0580020E2
:104510007C580020398EE338180000202DE9F04146
:10452000114B124D124C5B1B9B106343114C4FF00F
:10453000240ED4F824C000249C4203D16FF0220042
:10454000BDE8F0810EFB0456776867450AD3B6696B
:1045500046B197F802808788B84503D13346BDE855
:10456000F04118470134E7E7A05800207C580020AC
:10457000398EE338180000202DE9F84F9046104B93
:10458000104A0F469B1A10499B10064601FB03FA7E
:10459000002491464FF0240BA24502D16FF0220077
:1045A0000BE00BFB04935D690DB90134F4E742465F
:1045B00039463046A8470028F7D1BDE8F88F00BF3C
:1045C000A05800207C580020398EE33807B5837846
:1045D0008DF800300379427943EA0223ADF80230C6
:1045E000C378684603F003038DF8043001F08AFABB
:1045F00010F1450F04D018B1002003B05DF804FBA2
:104600009DF8000001F0F8FA10F1450F01D00028E4
:10461000F2D1024B012083F8B900EEE71800002028
:104620002DE9F74F264C274F274A3F1BBB1002FBB3
:1046300003FA031F012B0546894629D8234E96F815
:10464000B9302BB300F0B0FC042D21D1A0464FF0BF
:10465000000BDA4519D0D8F82010002298F81C0079
:10466000D3B2984204D80BF1010B08F12408F0E70B
:1046700001EBC30301921879009101F0DFFA019A6E
:104680000099002802F10102E8DA002386F8B93027
:104690000026B74208D10D4B1B6A6BB1494628462C
:1046A00003B0BDE8F04F1847A019C36813B14A46DC
:1046B000294698472436ECE703B0BDE8F08F00BFE9
:1046C0007C580020A0580020398EE33818000020C4
:1046D00008B509480378C3F341130A3350F823306F
:1046E0003BB100F1080200F110019847C043C00F30
:1046F00008BD1846FCE700BF180000202DE9F04F68
:10470000894DAB6985B006460C46904663B937784B
:1047100007F01F07012F00F089800BD3022F00F054
:10472000CA806FF0150002E098470028EFD105B06D
:10473000BDE8F08F72787088D8F80030092AF0D878
:1047400001A151F822F000BF71470000234700008B
:104750002347000023470000234700007D47000057
:104760008747000023470000B5470000BF4700000F
:1047700000201870587002232360D8E7C0B201F0FF
:10478000B1F90020D3E7020A131F012BC9D9072A68
:10479000C7D86B6A0021C0B21D78002DC1D05E78E9
:1047A000964203D1884200F0B68001312B44F3E7F2
:1047B0001B78B6E095F8BA201A700123B1E0C6B2B2
:1047C0008DF80F6016B985F8BA60DAE74FF0FF0888
:1047D0006C6A0027C146237843B9EB691BB10DF120
:1047E0000F0103209847002F9BD0ECE76378042B40
:1047F0000DD0052B0ED0022B06D194F805809DF824
:104800000F30434508BF012723781C44E3E794F8A1
:104810000390F9E79DF80F304345F5D1B9F1000F4A
:10482000F2D12046FFF7D2FE0746EDE77078D8F8C0
:1048300000300A2805D00B2807D000287FF471AF7C
:1048400097E700201870276071E796F804A096F8A3
:1048500002B06E6AFF27B9464FF0000833783BB9C3
:10486000EB6913B1414607209847002020605EE7BE
:104870007378042B04D0052B0BD033781E44EDE75E
:10488000B77896F80390BA45F7D1CB4508BFB04644
:10489000F3E7BA45F1D1CB4509D0B3780193184677
:1048A00000F05AFB019B184601F0C8F9E5E73046D5
:1048B000FFF78CFEE1E773783079D8F800808DF847
:1048C0000F00012B18D010D3032B7FF42AAF74886C
:1048D000002C7FF426AF01F035F9EB69002B3FF493
:1048E00050AF0DF10F01082013E0414601F06AF9C5
:1048F000002088F80100A6E77488002C7FF411AF2F
:1049000001F046F9EB69002B3FF43BAF0DF10F01CD
:104910000920984735E7022AC8F800307FF448AFED
:104920005B8823602DE700BF1800002013B50E4CF4
:10493000237D83B902ABE26843F8042DA16880208F
:1049400013F04EF90199A268E3680A445B1AA26069
:10495000E36002B010BD00231A461946802023757B
:1049600001F08AF9F5E700BF1800002037B50022F2
:1049700001920B46024600284DD12C4C59BB08220F
:10498000214613F0C5FA002804DA802001F0DAF895
:1049900003B030BDE588802D07D92378DB0904D129
:1049A000802001F0CFF80020F0E7214B2561C4E919
:1049B00002350023237515B12378DB09E8D0FFF712
:1049C00087FE0028E1D02369AB42D4BFE360E560F5
:1049D000FFF7ACFFDCE7D4E90215002D01AB04DCE6
:1049E00013F096FA0028D3DACFE72A4613F090FAAC
:1049F0000028D5DB0199A268E3680A445B1AA2602B
:104A0000E360002BC4D104F13803A360FFF760FE1C
:104A10000028BAD0DCE78028BAD1044BDA68002A33
:104A2000D6D11B7D002BD3D1B2E700BF18000020E8
:104A300050000020054B064A9A62064ADA62064A8E
:104A40001A63064A58629A610020704718000020D5
:104A5000FD460000C1440000794500001D450000EE
:104A6000074B10B593F8B84024B900F0B5F918B168
:104A7000FFF7E0FF002010BD4FF0FF30FBE700BF65
:104A8000180000202DE9F7430446384E38484FF00F
:104A9000FF3111F01FFE96F8B850002D43D1354874
:104AA0003462F06101F0EAF900F0D0FF041E3BDB54
:104AB00000F0C0FA041E37DB02AF402307F8085DA0
:104AC0003846ADF802308DF8045001F01BF8041E92
:104AD0002ADB4FF0800838468DF8008001F012F88C
:104AE000041E21DB2449284601F0B6F9041E1BDB15
:104AF0002149404601F0B0F9041E15DB1F4C204B44
:104B0000204F1B1B9B105F43AF4214D1002001F0CC
:104B100073F8041E08DB802001F06EF8041E03DB2E
:104B2000012386F8B8300024114811F045FE2046D4
:104B300003B0BDE8F083D4F820904FF00008227F46
:104B40005FFA88F39A4202D801352434DCE709EB96
:104B5000C30259F83310107901F07EF908F1010809
:104B60000028ECD04FF0FF34DEE700BF1800002033
:104B700048570020214600006D4900007C58002065
:104B8000A0580020398EE33830B51D4B89B003AAF8
:104B900003F1100518685968144603C40833AB4282
:104BA0002246F7D11B78237001AC08220021204651
:104BB00013F034FA12220021124813F02FFA0821C0
:104BC000204613F0B4F900280E4915DD0023E21A3F
:104BD00008A8D27900EB121008AD02F00F0210F80D
:104BE000140C01F813002A4401EB4300013312F8BE
:104BF000142C4270082BEAD1024809B030BD00BF26
:104C000004A70100C43000202DE9F04F6D4A6E4B1F
:104C10006E499B1A87B09B1000264B4304460093B5
:104C20004FF0011AB146B0463746934623783BB958
:104C3000674AA01C904200F0C280FFF7E5FF26E023
:104C40006378052B0CD8DFE803F0810BB8810327CC
:104C5000E3782BB9A378EBB109F101095FFA89F97F
:104C600023781C44E2E702FB03B8D8F804108C4216
:104C700007D1D8F80830002BEED049462046984797
:104C8000EAE7013300999942EDD14FF0FF3007B0C8
:104C9000BDE8F08F2422F5E7B8F1000FF5D000232E
:104CA000012198F81C209342EFDAD8F82020A5784B
:104CB00002EBC3021079854246D1012594F803C066
:104CC00094F805E00CF0030C8DF814C094F804C0BF
:104CD0004CEA0E2CADF812C094F802C08DF810C04A
:104CE0001CF0800FE8B227D005F1100C01FA0CFC83
:104CF0001CEA0A0F25D160F07F008DF8100004A88F
:104D0000CDE90221019313F0EAF8DDE901320399BC
:104D1000B8B99DF81030A37013F0800F137118BF4D
:104D200010354FF0010315BFAB4003FA05F54AEA11
:104D3000030A4AEA050A93E701FA05FC1CEA0A0F8E
:104D4000DBD00135102DB9D10133AAE7032E1ED1D6
:104D5000FFF71AFF054668B113F00EF950B1019044
:104D60001C4813F009F9019A824203D12946A01C7C
:104D700013F027F92146002011F8023BDA1E5B08E8
:104D8000013B0B44002A0FDA0136F6B268E7002E29
:104D9000F0D1002F3FF479AFE31BBB70C3F30723BF
:104DA000FB7087F80490EFE78854013B8D1893F867
:104DB00000C005F801CC023AE4E7274650E7184660
:104DC00065E700BF7C580020A0580020398EE338EA
:104DD0007B58002004A7010008B50448FFF714FF22
:104DE0000028024818BF002008BD00BFFC57002063
:104DF000014600F10803BFF35B8F53E8002F42F038
:104E0000010043E8000CBCF1000FF6D1BFF35B8F4B
:104E1000D30702D4014813F084BE70473430002019
:104E200073B5184C0D4606460023442101FB03F2DE
:104E3000105DB04212D114446B1E012B0CD894B9F2
:104E4000012D09D101AB01220DF10301304600F023
:104E50007FFF019B002BF5D102B070BD0133042B05
:104E6000E4D10024E8E714F01CF8343408B1012D33
:104E700003D1204612F0D1FEEEE72046FFF7B8FF3F
:104E8000EAE700BFD40000202DE9F04F85B00546C9
:104E90000191904699464FF02003EFF3118B83F375
:104EA0001188BFF36F8F2B4E0027442306F11C029D
:104EB00003FB07F4039302EB040A0292002150461D
:104EC00012F050F8DDE9022350B937197B6813F16D
:104ED000100F12D10193504612F01EF8019B04E00E
:104EE0000137042FE4D16FF00B038BF31188BFF36C
:104EF0006F8F184605B0BDE8F08F019B3861C7E998
:104F000002380E9B7B610F9BBB616FF00F03C7F8EC
:104F100040907B602846355500F0B6FF58B12846D2
:104F200000F0B2FFB8FBF0F303FB108018B13B6C4C
:104F300043F004033B6419F0020F06D004F134007F
:104F40003044FFF755FF0023CFE7284600F048FF25
:104F50000346CAE7D400002070B54FF02003EFF3FA
:104F6000118483F31188BFF36F8F0E49002244250B
:104F700005FB02F35E5C86420BD1CA185068103004
:104F80000AD16FF0470034335060C818FFF730FF84
:104F900002E00132042AEBD184F31188BFF36F8F52
:104FA00070BD00BFD40000202DE9F041104D002459
:104FB0006FF0470705F134084FF02003EFF3118637
:104FC00083F31188BFF36F8F2B195A68103204D105
:104FD0005F6008EB0400FFF70BFF86F31188BFF357
:104FE0006F8F4434B4F5887FE6D1BDE8F08100BF0F
:104FF000D4000020F0B504468BB00D4616461F467F
:105000000122002104A813F03CFF03AB0193084BDD
:10501000009332463B4629462046FFF735FF28B924
:105020004FF0FF3104A811F09DFF03980BB0F0BDC5
:10503000117C0100F8B5094C094F04F5887600256C
:10504000C4E906572562012220461146443413F074
:1050500018FFB442F4D10020F8BD00BFF0000020DA
:105060001B7C0100014B9970704700BF175800204E
:105070000B682DE9F0410F469046E3B14C2B1ADC4A
:105080000021104813F03EF80546B8B100F10806BB
:1050900000213046002413F054F82C753A68D8F8F3
:1050A0000010304613F064F80748294613F04DF815
:1050B0002046BDE8F0816FF01500FAE76FF00B00B5
:1050C000F7E700BFDC5700206C57002013B500291C
:1050D0001EDD9389114819440223918113751146ED
:1050E00013F033F84FF0FF310D4813F00BF80021A7
:1050F0000446083013F025F80A4B187B0A4B00933E
:10510000019401231F22A168FFF7BEFE02B010BD6B
:10511000002AE7D010460FF0F1F8E3E76C570020C3
:105120009C5700209C510020CD50000038B5074D01
:105130004FF0FF31284612F0EBFF044601F0E6FA8B
:105140000028F5D020460FF0D9F8F1E76C57002081
:1051500070B50E4E0E4D4FF0FF31304612F0D8FFB5
:10516000037D012B044605D0032B0AD020460FF007
:10517000C5F8F0E78289816828790623FFF73AFFAE
:10518000F4E782898168287D0223F7E75C570020D5
:105190009C510020032910B502D0042908D010BD6D
:1051A000094B00221146187BBDE81040FFF78EBF67
:1051B000054C2079FFF7D0FE207DFFF7CDFE207B48
:1051C000BDE81040FFF7C8BE9C51002030B5124822
:1051D00087B001F0A1FA0446D8B96FF00705CDE910
:1051E0000400CDE90205CDE900000C4B0C490D4847
:1051F0004FF4007211F010FF0B4B0C490C48CDE935
:105200000444CDE90245CDE900444FF4007211F0A9
:1052100003FF204607B030BD5C570020515100000D
:1052200010310020E40100202D5100001033002037
:105230005802002010B50748074C11F09DF8074BA5
:105240001860204601F00EFA2046FFF723F90020EF
:1052500010BD00BF15A7010061520000CC02002064
:105260000A2838B50446074D04D1286843680D2143
:105270005B68984728684368E1B25B6898472046B6
:1052800038BD00BFCC020020F8B5124DAB680C242D
:1052900004FB00340123064663724FF02003EFF352
:1052A000118183F31188BFF36F8F23682BB160687E
:1052B0001A682260834208BF626081F31188BFF3DD
:1052C0006F8F03B9F8BDD3E9017231462846B8475C
:1052D000E3E700BF54560020254B07B51A6882B19A
:1052E0004FF08042D2F80423D1070AD500221A6079
:1052F0001B680093009B1F4B9B68587A08B9FFF707
:10530000C3FF1D4B1A686AB14FF08042D2F80423E4
:10531000920707D500221A601B6801930120019BA8
:10532000FFF7B2FF80214FF48E7012F0B6FD18B176
:105330004FF48E7000F068FB4FF400714FF49270E0
:1053400012F0ABFD18B14FF4927000F05DFB4FF41A
:1053500080714FF4907012F0A0FD30B14FF4907056
:1053600003B05DF804EB00F04FBB03B05DF804FB45
:10537000000100405456002004010040014601484D
:1053800013F0CFBB7C57002000F07F02082A43B205
:105390000FD8002B00F00F0007DA07280BD8084BB6
:1053A000242202FB003028307047072805D8093036
:1053B000F5E700207047034870470348704700BF77
:1053C0002012002068130020AC14002038B50546D8
:1053D0000D4810F0D1FF90B10C4C217855B139B97E
:1053E00043681B68984710B110F1440F09D125702C
:1053F000002006E031B1436829465B68F2E76FF0B0
:10540000120038BD0846FCE71CA70100D63000207A
:105410000949BFF35B8F51E8003F43F0010241E8C7
:1054200000200028F7D1BFF35B8FDB0703D40839D6
:10543000024813F076BB704730120020D4140020CD
:1054400010B5054C0021204613F099FB18B104302B
:1054500013F0DFFAF6E710BD7C57002013B56C4659
:10546000002318222146134811F0AAF8002818DA60
:10547000FFF7E6FF0023182221460E4811F0A0F89E
:1054800000280CDB009B94E803001A1D82E803004F
:1054900004221A751846FFF771FFFFF7B9FF0023C2
:1054A00005E0009B94E803001A1D82E803001846FB
:1054B00002B010BD00570020817870B5064608463E
:1054C000FFF762FF0B060546F47813D5002C41D197
:1054D000FFF7C4FF034600283CD0012285F8224094
:1054E000027503220274DD60FFF748FFBDE87040DB
:1054F000FFF78EBF54B1012C2CD1FFF7AFFF03464D
:1055000040B385F8214004750474ECE7FFF7A6FF6B
:1055100000B3B27812F0800F02F00F030E4A0FD0E2
:10552000072B9BBF142101FB0323D2F8A836D3F825
:105530000836EB600123037502230374C560D3E7CB
:10554000072B9BBF142101FB0323D2F8A837D3F804
:105550000837EEE770BD00BF00700240F0B50646A8
:1055600089B01822002102A812F058FD3378013BBF
:10557000052B20D8DFE803F07703141F67160323F9
:105580008DF814300024FFF769FF034698B105A990
:10559000047500F10C0203C982E8030018461DE0FF
:1055A0000423EDE7B1780846FFF7EEFE837A05465F
:1055B0001BB1032B43D909B0F0BD0B06F47812D50B
:1055C000002CF8D1FFF74AFF03460028F3D0012250
:1055D00085F82240027503220274DD60FFF7CEFEDB
:1055E000FFF716FFE7E75CB1012CE4D1FFF736FFC8
:1055F00003460028DFD085F8214004750474ECE7E9
:10560000FFF72CFF07460028D5D00123037502239E
:105610000374C56005F10C01B07813F0A5F9134AC5
:10562000E968B2F8B0328B4206D95B1AA2F8B03200
:1056300010F070FB3846D1E7A2F8B042FAE73046E6
:10564000FFF73AFFB7E7684610F03EFB9DF80130E0
:10565000052B04D19DF8003013F0600FABD0044B44
:10566000059301248FE702248DE700BF201200205C
:105670008C130020F8B500253F4F2E4665F07F00C3
:10568000C0B2FFF781FE03690446002B56D02369A0
:10569000E660C4E9063301231D44082D84F8203058
:1056A00084F8216084F82260E8D10025324F2E462C
:1056B000E8B2FFF769FE03690446002B49D023696D
:1056C000E660C4E9063301231D44082D84F8203028
:1056D00084F8216084F82260EAD1284CD4F858314B
:1056E000002B3FD0D4F85831C4F86031C4F864318D
:1056F0000122002384F86821C4F8543184F8693108
:1057000084F86A31D4F89C323BB94FF480621C496A
:10571000194810F055FF002818DBD4F89C32C4F863
:10572000A4320020C4F8A832012384F8AC32C4F8B3
:10573000980284F8AD0284F8AE0209E000F110018D
:105740004022384610F03CFF0028A0DA6FF00B0032
:10575000F8BD00F110014022384610F031FF00285A
:10576000ADDAF3E74FF4806204F5AC71024810F053
:1057700027FF0028B6DAE9E7E456002020120020CF
:10578000BC1400202DE9F043DFF87892994D85B0E4
:1057900007460021484613F0F2F910B905B0BDE8FC
:1057A000F0836B79027D00F1040833B9002A00F020
:1057B0008480404613F02DF9EBE7042AF9D8DFE89E
:1057C00012F07C000500EA00FE000601037CC468BC
:1057D000032BEED8DFE803F0023B5A5FA6690822EC
:1057E0000021304612F01AFC834BD3F8802432702B
:1057F000D3F884247270D3F88824D3F88C1442EA46
:1058000001227280D3F89024D3F8941442EA012242
:10581000B280D3F89824D3F89C3442EA0323F3806F
:105820000823E36000212368607A98473378DB0916
:1058300009D1F2883AB1B5F8B0329B1AA5F8B03266
:1058400010F068FAB5E70023A5F8B032B1E794F894
:105850002130002BADD094F82030002BA9D00026A9
:1058600084F8216084F820604FF0FF31634810F025
:1058700031FFA36901936368CDE9023601A9607A1B
:105880000FF0F8FF5D4812F028FB92E72368012132
:10589000607A98478DE7A37A63B994F823304BB9BF
:1058A0004FF0FF31554810F015FF10F06FFA5348D4
:1058B00012F013FB23680221EAE7027B042A3FF679
:1058C00078AFDFE802F043030E515D000FF088FF70
:1058D00000287FF46EAF0FF093FE0120FFF776FDF6
:1058E00067E7002464F07F00C0B2FFF74DFD037A44
:1058F00013B1407A10F0CAFC0134082CF2D195F8AB
:1059000050311BB195F8510110F0C0FC0024E0B2F9
:10591000FFF73AFD037A13B1407A10F0B7FC013477
:10592000082CF4D195F894321BB195F8950210F03B
:10593000ADFC01200FF030FF01236B712B68002BB1
:105940003FF437AF00210220984732E700246C7102
:1059500010F028FC2046FFF739FD2B68002B3FF4A0
:1059600028AF21460420EFE7002B3FF422AF10F0D0
:1059700031FC2B68002B3FF41CAF00210520E3E72E
:105980002A68002A3FF415AF002B3FF412AF002124
:10599000062090470DE707F10C044FF0FF31204639
:1059A00010F098FEFFF766FE204612F096FA57F8C0
:1059B000083C002B3FF4FDAE00210120C4E757F85E
:1059C000083C002B3FF4F5AE00210A20BCE7002084
:1059D00012F076FA10F0E6FB0FF008FEFFF730FD4C
:1059E000FFF748FE012012F06BFA05480FF002FFA6
:1059F000DFE600BF201200200070024034120020B9
:105A00005D5500007C570020B0F5907F10B517D091
:105A1000B0F5927F04D0B0F58E7F13D1012400E061
:105A20000224FFF71BFD68B1002202750473FFF723
:105A3000A5FC054B1B792BB1BDE81040FFF7E8BC76
:105A40000024EEE710BD00BF2012002038B51E4C28
:105A50002579A5BB4FF0FF334FF480621B491C48EA
:105A600011F064FB1B4BA560C4E9033504F114007D
:105A700012F0EBFF2A460121272000F06FFB1648A9
:105A80000FF0B8FE154B98421BD1012012F018FA06
:105A9000FFF7F0FD054608B901232371104B1B6881
:105AA0000BB1FFF7B5FC4FF08043D3F83834DB0778
:105AB00003D54FF48E70FFF7A7FF284638BD0025A9
:105AC000FBE76FF00405F8E72012002010350020F6
:105AD000D4140020855700005D5500000000AD0B78
:105AE0007C570020064B1A7932B15B79002B0CBF32
:105AF0006FF01200002070476FF01200704700BF77
:105B00002012002038B50E4B1B790146A3B1057851
:105B10002846FFF739FC18B96FF01504204638BD48
:105B200045720B79498883724C1E0C404160F3D159
:105B3000284612F014FFF1E76FF01204EEE700BF01
:105B400020120020114B1A7910B50146BAB15B79C9
:105B5000ABB1FFF719FC0446A0B1837A032B05D83B
:105B6000DFE803F00210090910F018F90020A3691A
:105B7000E060E36110BD084610F078F8F6E76FF0DA
:105B80001200F7E76FF01500F4E700BF20120020C5
:105B90000B4B1A7910B5044662B15B7953B1FFF72C
:105BA000F3FB50B1204610F083F8204610F0BEFB06
:105BB000002010BD6FF01200FBE76FF01500F8E752
:105BC0002012002038B50B4B1A7905460C465AB105
:105BD0005B794BB1FFF7D8FB48B141B1284610F0D3
:105BE0004DF82070002038BD6FF01200FBE76FF019
:105BF0001500F8E720120020F8B50F4F3B79064654
:105C00008BB1FFF7C1FB044680B1304610F050F86D
:105C1000257A75B978790123237218B1304610F0CE
:105C200035FB2846F8BD6FF01200FBE76FF015005A
:105C3000F8E76FF04400F5E7201200200D4B1A79C9
:105C400010B501466AB15B795BB1FFF79DFB044675
:105C500050B1037A5BB1084610F0ECFA00202072D4
:105C600010BD6FF01200FBE76FF01500F8E76FF062
:105C70004400F5E7201200202DE9F043314C1F4687
:105C8000237985B0064689469046002B53D0637928
:105C9000002B50D0030651D5FFF776FB05460028B0
:105CA0004CD0037A002B49D04FF0FF3104F114009F
:105CB00010F010FD95F8223003F0FF024BB104F113
:105CC000140012F00AF96FF00A04204605B0BDE88E
:105CD000F0836C68A869A04595BF4446012385F808
:105CE000232085F823302246494612F06AF9EC60F9
:105CF00007B13C60AC7A4CB910F058F8864205D038
:105D000010F044F8104812F0E8F8DEE7012385F8B7
:105D10002230AB6901930024EB68029301A930465D
:105D200003940FF0A7FD094B98421CBF85F8224051
:105D30006FF00404E6E76FF01204C6E76FF0150495
:105D4000C3E700BF20120020341200200000AD0B7A
:105D50002DE9F0411D46204B90461A790F46002A46
:105D600033D05B79002B30D0030631D411B9B8F1B0
:105D7000000F2DD1FFF708FB044648B3037A3BB36D
:105D80004FF0FF31154810F0A5FCE36843451E466F
:105D900028BF464657B9B8F1000F07D105B12B60AF
:105DA0000E4812F09AF80020BDE8F0813246E16911
:105DB000384612F006F9E3693344E361E3689B1B5C
:105DC000E360002DECD02E60EAE76FF01200EBE705
:105DD0006FF01500E8E700BF201200203412002009
:105DE00038B51B4D2A79034642B36A7932B31B0694
:105DF00027D4FFF7C9FA044618B3037A0BB34FF060
:105E0000FF3105F1140010F065FCE3688BB9012542
:105E1000A36984F82050E36194F821304BB1FFF777
:105E20001DFB88B10575C4600574FFF7A7FAFFF77D
:105E3000EFFA084812F051F8002038BD6FF0120058
:105E4000FBE76FF01500F8E76FF00B00F5E700BF18
:105E5000201200203412002008B5074B1B792BB10B
:105E6000FFF792FA28B10160002008BD6FF0120020
:105E7000FBE76FF01500F8E720120020014B1860D7
:105E8000704700BF2012002008B5074B1B7923B1D3
:105E9000FFF77AFA20B1406808BD6FF01200FBE707
:105EA0006FF01500F8E700BF201200200D4B002214
:105EB000C3F840214FF02002EFF3118182F31188E3
:105EC000BFF36F8F084AD3F804051368C01A20F097
:105ED0007F400344136081F31188BFF36F8F11F08B
:105EE00011BA00BF001001405815002073B51848C2
:105EF00010F042FA48B34368164D1B6801219847D9
:105F0000002401264FF48033C5F80845C5F84065E4
:105F1000C5F8043303F1804303F58A534FF400328C
:105F20001C601B680193019B0B4B3146C3F8802119
:105F30001120224600F012F9112000F0DDF8074B85
:105F400020461E602E6002B070BD4FF0FF30FAE7B1
:105F50001CA701000010014000E100E00810014012
:105F6000F0B5254FB0F1FF3F08BF38464FF0200392
:105F7000EFF3118583F31188BFF36F8F1F4C204B14
:105F8000D4F804651B68F21A22F07F42B2F5000FC4
:105F900019D2411E21EAE171B942A8BF3946501C0D
:105FA0000844B84294BF1818D819861B26F07F46BB
:105FB00020F07F43022EC4F8403506D985F31188BE
:105FC000BFF36F8FF0BD0021E9E7D4F804350D4A27
:105FD000C31A23F07F43591E914205D90A4B4FF44F
:105FE0000032C3F80021E9E7012B02BF023020F0A4
:105FF0007F40C4F84005E1E7FEFFFF0000100140CC
:1060000058150020FEFF7F0000E100E04FF0200265
:10601000EFF3118382F31188BFF36F8F064AD2F832
:106020000405064A1268801A20F07F4083F3118825
:10603000BFF36F8F704700BF00100140581500205C
:1060400004488168406A884203D003494FF0805277
:106050000A607047F82F002004ED00E0094A0A4961
:106060009368096819670949D8664B6843F08053FB
:106070004B60002383F31188BFF36F8F9368186F11
:10608000704700BFF82F0020A4A6010000ED00E03B
:106090000F498A684FF030001044EFF3098C80E814
:1060A000F01F202080F31188BFF36F8F094F4FF04E
:1060B00000664A6A8A603E60D06E0023D36680F331
:1060C000118802F1300090E8F01F8CF309887047C6
:1060D000F82F002004ED00E01EF0040F0CBFEFF3DA
:1060E0000880EFF30980816911F8021C0229FFD0B2
:1060F00001B511F036FF01BD43B2002B08DB0122D0
:1061000000F01F0002FA00F05B09024A42F8230087
:10611000704700BF00E100E043B2002B0DDB01221D
:106120005B0900F01F0002FA00F02033034A42F836
:106130002300BFF34F8FBFF36F8F704700E100E084
:106140004209054B00F01F0053F82220012303FAF7
:1061500000F01040704700BF00E100E043B2002BA8
:10616000A8BF03F1604301F101014FEA4111AEBF45
:1061700003F5614300F00F00034BC9B2ACBF83F8D5
:1061800000131954704700BF14ED00E008B572B653
:10619000044B186A18B100221A6212F038FC62B679
:1061A00008BD00BFF82F002073B51E460A9B009360
:1061B0008C18099B054612F07FFEA4F120030A4AC1
:1061C00023F0070322F001029A61069A5A60079AA7
:1061D0009A60089ADA604FF080721E60DA612B656F
:1061E0000023EB6602B070BD8D7B0100F8B506465A
:1061F0000C4617461D4600F08BF9094B3C4424F031
:1062000007049E60284684F30988002163B681F361
:106210001188BFF36F8F0022002311F0B7FC00BF7D
:10622000F82F0020014910220A60704710ED00E0AD
:1062300072B6404080F31188BFF36F8FBFF34F8F6A
:1062400030BF62B6BFF36F8F704700BFEFF30880B7
:10625000EFF30981724601B500F0ACF801BD00BF53
:1062600030BFFFF7FDBF00BF0E4A08B50E4B22F04E
:106270007F029A60BFF34F8FBFF36F8FD3F88820F0
:1062800022F47002C3F88820EFF3148323F0040390
:1062900083F3148810F0B0F810F0B8F800F006F9A5
:1062A00010F0F2F80010000000ED00E001B572B649
:1062B0000B4A106A00281EBF0021116212F0A7FBD2
:1062C00062B6EFF30580A0F110004FEAC000054967
:1062D000014409C99847BDE8014003490847000047
:1062E000F82F0020C09201004160000011F0BAFEBA
:1062F000202080F3118808484FF40061401880F393
:106300000988EFF314800221084380F31488BFF357
:106310006F8FFFF7A9FF0000104200200C4B9A6A14
:106320009A6A9A6A920708D55A6B9A6A120604D535
:1063300018B19A6A22F080029A629A6A9A6A9A6AF4
:106340009A6A002042F0FF029A620870704700BF0C
:1063500000ED00E00D4B9A6A9A6A9A6A920508D598
:106360009A6B9A6A120404D518B19A6A22F4004210
:106370009A629A6A9A6AD205044A58BF9B6A936ADB
:10638000002043F47F4393620870704700ED00E003
:10639000074B9A6A9A6A9A6A9A6A9A6A9A6A9A6A8F
:1063A0006FEA02426FEA12429A620020704700BF11
:1063B00000ED00E070B5364B5B688AB0C3F30803AC
:1063C000002585F31188BFF36F8F02F07F44B4F18D
:1063D0007F4F12D102F00C04082C0ED014074EBFD0
:1063E0000E46064601250022033B8DF80720032BAD
:1063F00047D8DFE803F0043E423B2E46F3E7244B48
:10640000DA6A92073DD4DC6A14F0804408D028335D
:106410001B78EBB10DF107010120FFF77FFF044668
:106420009DF8073093B92022314602A811F0C9FD2A
:10643000099B45B3C3F3080222B96FEA53236FEAFD
:106440004323099302A9204611F089FD0AB070BDCB
:10645000104B1B782BB10DF107010120FFF77AFFDC
:10646000DDE70D4B1C88A4B2002CD9D0FFF790FFBC
:10647000D5E70DF107010020CFE70DF1070100205E
:10648000ECE70024CCE723F4FF7323F00103D8E703
:1064900000ED00E029ED00E02AED00E0024A53693A
:1064A00043F010035361704700ED00E004480023FF
:1064B0002021C2180133302B82F80013F9D1704724
:1064C00000E100E038B505464FF02003EFF31184FA
:1064D00083F31188BFF36F8F10F078FB0A4B9B6832
:1064E000AB420BD1094B5A68C2F3080212B92046DD
:1064F000FFF7B4FD5A6842F080525A602046BDE86A
:10650000384012F0B8BB00BFF82F002000ED00E0CB
:106510001FB5094B0193094B029304A8084B039341
:1065200001AB40F8103D074A074B012100F076F817
:1065300005B05DF804FB00BF000000200000000073
:1065400000000B06000000200000042030B5D1E957
:106550000043202B896817D9B3F1004F16D8013BAF
:10656000B3FA83F3C3F11F035B00072841F0010274
:106570000ED8094D24F01F0140F0100421431343AD
:10658000A860E9602B6130BD0823EEE73E23ECE70D
:106590006FF01500F7E700BF90ED00E0034B052218
:1065A0005A60BFF34F8FBFF36F8F704790ED00E0DD
:1065B000BFF35F8F014B00225A60704790ED00E0FF
:1065C00013490868082810B51ED8FFF7F1FF114CD1
:1065D00049680022904201F10C0105D10E4B187060
:1065E000FFF7DCFF002010BDA26051F80C3C23F047
:1065F0001F0343F010031343E36051F8043C43F0DE
:10660000010323610132E5E74FF0FF30EBE700BF04
:106610003C95010090ED00E0D7300020F8B5104C1B
:10662000074620780E460025B54208DA57F82510AF
:106630004B6893B15A1E134203D06FF015002070BF
:10664000F8BD1F2BF9D90B681A42F6D1C0B2FFF77B
:106650007DFF10F1160FF0D001300135E4E700BFE7
:10666000D7300020014B1860704700BFB4510020A4
:106670004FF02003EFF3118283F31188BFF36F8F84
:1066800006490123C1F840354FF08041C1F8783503
:1066900082F31188BFF36F8F0020704700E0014044
:1066A00020B1034B800143F001031847704700BF3E
:1066B00000950100074A136833B9C16839B101690F
:1066C00029B11060184670476FF0440070476FF0B2
:1066D000150070475C15002038B50546054811F0D7
:1066E00011FD044620B10021083011F02AFD257566
:1066F000204638BDBC57002008B5034B014618683A
:1067000011F023FD002008BD60150020014B1B681F
:106710001B6918475C150020044B054A1B68106074
:106720000BB1DB6818476FF0120070475C15002052
:10673000601500202DE9F0411446C21D22F003022D
:10674000671EBFB2186082B005460E4601FB070007
:1067500014800021042211F061FCB7B1023CA4B204
:1067600004FB066304FB06F71D44FF1A4FF6FF788F
:106770000422013CE8190DEB0201A4B2019511F0CD
:1067800020FC4445A5EB0605F2D102B0BDE8F0813E
:1067900070B5046882B094B1E31D23F003030422B2
:1067A000054621460DEB02001E8811F00AFC019BF4
:1067B00023B1DA1D22F00302013E16802B60204631
:1067C00002B070BD0B6870B50D46064683B1073345
:1067D00023F003031C880134A4B204222946304666
:1067E00011F0EFFBF31D23F003031C802E6070BD3E
:1067F0000124F2E702FB0100704700BF401A80B29B
:10680000B0FBF2F0704700BF531E11449BB23AB187
:10681000C218013811F8013D00F8013F9042F9D14A
:10682000704700BF014402E010F8013B1BB98842E9
:10683000FAD1002070470120704700BF1060086047
:10684000704700BF03680A68934209BF0022002313
:106850000A6002601846704710B41468206014681B
:106860006160106010BC7047884203D01AB1436861
:1068700013607047002070470B68834207D00AB14D
:10688000586810600BB11A680A60184670470023F8
:10689000FBE700BF2DE9F047DFF83890DFF83880DC
:1068A000A9F1300A002609EB06040AEB0607454663
:1068B000221D214628460C3CFFF7C0FFBC42A5F133
:1068C0000805F5D1303E16F1C00FA8F12008EAD135
:1068D000BDE8F0879C160020DC15002030B403468C
:1068E0000C469AB101EB41010801144D03EB430141
:1068F00000EB81012944487A0D7AA84204BF013097
:1069000008722146184630BC0DF08CBA01EB4102EA
:1069100012010A4D00EB400302EB83032B449D7AE6
:10692000DA7AAA4201D030BC7047054D01329A7222
:1069300001236B5430BC0DF0D1BA00BFE815002024
:10694000E415002070B51C4606460D469AB16378E2
:106950002078C01A10F0030031D001280AD001338A
:10696000DBB223701E4B3046012229465A550DF0EA
:10697000B5FA002070BD0DF093FA0028E7D0294643
:1069800030460DF06FFA0028E1D005EB4502110109
:106990001448637806EB460201EB82020244917AC6
:1069A000D27A9142D4D12278D21A920702D00233FD
:1069B000DBB22370D4E902039847002070BD302277
:1069C000042112FB05110C2212FB061201330549AA
:1069D0006068DBB20A4423702146FFF73DFFC1E740
:1069E000E4150020E81500202DE9F04F4B4C235C06
:1069F00087B0002B72D04A4F3C23002203FB007368
:106A000000EB40010433225482460392019307EBCA
:106A1000011702924FF00309002305AAD7E90901E3
:106A20000593FFF721FF8346002836D007F124089D
:106A3000059C63782578ED1A05F00305012D03F117
:106A4000FF3205D1D4E9020362709847059C637850
:106A50002678D7F828C0F6B2F31A03F00303012B07
:106A60004FF00002414660460DD0FFF705FF627807
:106A70002378C4F804B09B1A03F00303012B66705B
:106A80003FD0D7F828C0786A614605AAFFF7ECFE28
:106A9000012D834625D00028CAD197F82E3097F8CB
:106AA0002F209A4203D087F82F300123029397F8C2
:106AB0002C3097F82D209A4203D087F82D300123EF
:106AC000039309F1FF395FFA89F9B9F1FF0FA7F1D3
:106AD0000C07A1D1029B0BB1039BCBB107B0BDE862
