:10100000C84A0020ED6300007F8101001D640000DC
:101010001D6400001D6400001D640000000000004D
:10102000000000000000000000000000FD61000062
:101030001D64000000000000B56100006781010030
:10104000AD63000031130100AD630000AD6300002B
:10105000AD630000AD630000AD630000AD63000050
:10106000AD630000AD630000AD630000AD63000040
:10107000AD630000AD630000AD630000AD63000030
:10108000AD630000AD630000AD630000AD63000020
:10109000AD630000AD630000AD630000AD63000010
:1010A000AD630000AD630000AD630000AD63000000
:1010B000AD630000AD630000AD630000AD630000F0
:1010C000AD630000AD630000AD630000AD630000E0
:1010D000AD630000AD630000AD630000AD630000D0
:1010E000AD630000AD630000AD630000AD630000C0
:1010F000AD630000AD630000AD630000AD630000B0
:1011000053B94AB9002908BF00281CBF4FF0FF316E
:101110004FF0FF3000F074B9ADF1080C6DE904CE6A
:1011200000F006F8DDF804E0DDE9022304B07047C2
:101130002DE9F047089E04468846002B40F0858044
:101140008A42154648D9B2FA82F24AB1C2F1200762
:1011500001FA02F320FA07F7954047EA03089440A2
:101160004FEA154E230CB8FBFEF71FFA85FC0EFB69
:10117000178843EA084307FB0CF1994209D9EB1899
:1011800007F1FF3080F0E380994240F2E080023FB7
:101190002B445B1AA4B2B3FBFEF00EFB103344EAFF
:1011A000034400FB0CFCA44509D92C1900F1FF33C2
:1011B00080F0CB80A44540F2C88002382C4440EA3D
:1011C0000740A4EB0C0400271EB1D4400023C6E95D
:1011D00000433946BDE8F087002A53D0B2FA82F2C4
:1011E000002A40F0B680491B4FEA154E1FFA85F8D9
:1011F0000127B1FBFEFC230C0EFB1C1143EA01434B
:1012000008FB0CF1994207D9EB180CF1FF3002D220
:10121000994200F2EC808446591AA3B2B1FBFEF069
:101220000EFB101443EA044408FB00F8A04507D95C
:101230002C1900F1FF3302D2A04500F2DC801846E1
:10124000A4EB080440EA0C40BEE78B4208D9002E0C
:1012500078D00027C6E9000138463946BDE8F08756
:10126000B3FA83F77FB98B4202D3824200F2BD808A
:10127000841A61EB030301209846002EA9D0C6E929
:101280000048A6E7FFDEC7F12005BB4022FA05FCB7
:101290004CEA030C01FA07F420FA05F821FA05F3E9
:1012A0004FEA1C4E48EA0404B3FBFEF9210C0EFB86
:1012B00019331FFA8CF841EA034309FB08FA9A45EF
:1012C00002FA07F200FA07F10BD91CEB030309F14C
:1012D000FF3080F088809A4540F28580A9F10209AC
:1012E0006344A3EB0A03A4B2B3FBFEF00EFB10337E
:1012F00044EA034400FB08F8A04508D91CEB0404A9
:1013000000F1FF336BD2A04569D90238644440EA4A
:101310000940A4EB0804A0FB02894C45C6464B4695
:1013200054D351D0002E69D0B1EB0E0264EB03040C
:1013300004FA05F522FA07F3FC401D43C6E9005400
:10134000002746E73746304643E7184637E7074663
:101350001FE7C2F1200320FA03F7954001FA02F0DB
:1013600021FA03F34FEA154E3843010CB3FBFEF7A5
:101370001FFA85F80EFB173341EA034107FB08F318
:101380008B4204FA02F407D9691807F1FF3C28D20E
:101390008B4226D9023F2944CB1A81B2B3FBFEF01F
:1013A0000EFB103341EA034100FB08F38B4207D9DF
:1013B000691800F1FF3C10D28B420ED90238294443
:1013C000C91A40EA074714E74145ABD2B8EB020E11
:1013D00069EB0C0201381346A4E76046F0E71846B3
:1013E00095E76746D8E781467BE7384645E7ACF1A5
:1013F000020C2B4410E702382C4421E73746E8E67C
:10140000704700BF000000002DE9F04FAC4C8FB0DA
:1014100094F8CC60022306F001060C93002800F03B
:10142000E580BEBB94F87C8094F8290094F82C20C9
:1014300027272D2307FB084800F0030017FB02377E
:10144000FF2384F82A300FF0C3F894F8DA008107FC
:1014500008F17D0804EB070921D4E05D3146C0F3B3
:10146000801006F097FE06220146054609F10200AB
:1014700016F0AFFE0622294608F1020016F0A9FE7A
:10148000E35D5A0622D413F00E0F2BD1636A002BB2
:1014900000F026810C2630460FB0BDE8F08FC0F377
:1014A0008000324604F1DB010FF09AFAFF2884F83D
:1014B0002A0040F0E981494681480FF0CFF84146C3
:1014C0007F480FF0CBF8E35D5A06DCD5062109F121
:1014D000020005F007FB002800F02D82E35D13F009
:1014E0000E0FD3D094F828300121C3F342030DA886
:1014F0008DF8343005F074FC002870D0E15D99F867
:10150000013098F8015001F00F01022900F1FF327B
:1015100011D0012900F01982ED008035002940F03A
:101520000C821033DB0003F54D71294403F59A70EA
:1015300000FB021008E01033DB0000FB03F303F5AF
:10154000AA73642000FB023094F820C05D4AE46175
:10155000002565F3000C3123A0FB0201236084F811
:1015600020C055A3D3E90023C4E90555C4E90155BA
:10157000FFF7C6FDB4F8D890E06006F005FE80469F
:10158000B9F1000F07D1E55D05F00F05A5F10105E3
:10159000B5FA85F56D0994F82800E76865F3000051
:1015A00010F0010584F8280000F07281464D474B89
:1015B000059300200DF1300903210694049701974B
:1015C000CDE90759CDE9020000904346022206F01A
:1015D00023FD494609F0DAFE002800F09881636A8D
:1015E000002B3FF457AF0AF08BFA53E70D93002E10
:1015F0003FF450AF204609F0D7FE84420CD040F2B1
:10160000EA43334A3349344816F024F9404080F322
:1016100011884FF0030002DF94F82830D8070DAD91
:101620000ED503210095284B0122002006F064FD11
:10163000294609F0ABFE002840F0BC8102230D933F
:1016400003210095204B0222002006F055FD29467B
:1016500009F09CFE002840F09181204809F0E0FE4E
:10166000002840F07781164809F0AAFE84420CD089
:1016700040F20C53164A1749174816F0EBF8404051
:1016800080F311884FF0030002DF636A0BB10AF0A8
:1016900037FA94F8CC3000206FF3000384F8CC3094
:1016A0000AF0F0FD0646002800F02E8100263046A4
:1016B0000FB0BDE8F08F00BF8D49FD1A0700000094
:1016C0007C2B002000CA9A3B81B3000071B8000057
:1016D0002896010094960100C0920100982B0020EA
:1016E00009F0BEFD8246002800F0468109F0C4FDE5
:1016F0008346002800F059810BF0F2F905460028D6
:1017000000F050814FF6FF73806FAB8505F11C032D
:101710000B93002800F02C8105F16C0205F16801A3
:1017200005F0ECF9B5F86420A94995F840C095F8A2
:101730003DE095F8DC00A74B2B660A4042F4887226
:1017400042F0010295F82611A5F86420002262F308
:10175000000C20F0030021F0030185F840C00EF0DA
:101760003F0E4FF01B1C6EF07F0E85F8DC0085F8F5
:1017700026117F20C5F85CC0974985F83F204FF0BF
:10178000060C6A866A63C5E913226A65A5F8C82053
:10179000A5F8CC20A5F8E82085F8EA20C5F80021B6
:1017A000A5F80421A5F81821C5F82021A5F82421C1
:1017B00085F82F2185F83DE085F8C100A5F8C4C063
:1017C000C5F81C11C5F830A1AA6795F876E195F81F
:1017D0009EC195F87E0095F85611A5F87C2062F31D
:1017E000041E62F3C30C21F0070120F01F00A5F8CE
:1017F0005421A5F87421A5F89C21A5F8A82185F805
:1018000076E185F89EC185F8561185F87E000BF0CB
:10181000E9FCA5F8D6000BF0EBFCD5F8AC116F4B4A
:10182000A5F8D8000B40C5F8AC310BF0E7FC95F8F3
:10183000B01160F3020185F8B0110BF0E5FCC4E9CA
:1018400034AB0B9B636295F8B01195F82030ED61D5
:10185000002260F3061162F3C30162F30003C5F8CE
:10186000C421C5E96F22C5E96D22C5E9052285F8C5
:10187000B01185F8203010F0A9F800283FF432AEFE
:101880000AF03EF9032606E630460EF06FFF12E638
:101890005348DFF870C1534A06941FFA89F9A9FB2F
:1018A0000001912303FB091107F24713CCF8003024
:1018B0000DF130094C4B0497CDE9072905934FF6FC
:1018C000FF7741A3D3E900230295CDF824C0039705
:1018D000FFF716FC4346CDE90050022228460321BB
:1018E00006F040FB494609F051FD00287FF477AE31
:1018F00094F8CC3043F0010384F8CC300AF0C2FCF9
:1019000000287FF4D3AE01200EF040FEC3E5374936
:1019100005914AF2D832CDE9075900920225069482
:10192000CDE90300CDE901004346012203210C95D6
:1019300006F072FBD6E71226ADE506293FF4F1ADBD
:101940004FF41B714FF4DA70F2E54FF47F714FF4EE
:10195000F270EDE540F20953254A2649264815F074
:1019600079FF404080F311884FF0030002DF7AE6F0
:1019700005F17000A867CFE607268CE51F4809F03F
:1019800013FD84423FF486AD40F20353184A1C49CC
:10199000194815F05FFF404080F311884FF00300B5
:1019A00002DF77E5584609F06DFC504609F05EFC11
:1019B000072670E5114809F0F7FC84423FF46AAD50
:1019C00040F2F443E2E700BF8D49FD1A0700000032
:1019D00080F8FFFF48014801FF4901000000FFF6C1
:1019E000002AE78481B3000071B800007DBA0000CE
:1019F00028960100EC950100C09201007C2B00208C
:101A000094960100602C00202DE9F047184D9DF8B8
:101A100020C095F8484014F001081FD195F83260B5
:101A2000DFF850E0A5F842101FFA82F960F3C716FC
:101A300063F34204A9FB0E016CF3C406912303FB7C
:101A4000091185F8484008A3D3E9002385F83260DE
:101A5000FFF756FB68644046BDE8F0874FF00C087E
:101A60004046BDE8F08700BF8D49FD1A0700000021
:101A7000842C0020002AE7842DE9784805469DF84B
:101A80001860AC7D0C48EA841FFA83FB61F3C7142D
:101A90009123ABFB000166F3C40403FB0B11AC758F
:101AA00003A3D3E90023FFF72BFBA862BDE87888E6
:101AB0008D49FD1A07000000002AE784000000009D
:101AC0002DE9F04390F83230044600F1350190F8EA
:101AD000480003F0F903C0F340008FB060F38613B1
:101AE00084F8323002230B9306F054FBB4F84260C2
:101AF00094F820304848E4610025A6FB000165F316
:101B00000003912202FB061184F82030C4E9055538
:101B10003FA3D3E90023FFF7F3FA636C6560064641
:101B20000933A6F1310293424FF03101A56028BF7D
:101B30006564216034BFE360E26006F025FB656AFE
:101B40008146002D40D00694B4F842703248E268D5
:101B5000DFF8D0C00492A7FB0001912303FB07111B
:101B60002E4B059300250BAF29A3D3E90023CDF815
:101B70001CC003950897FFF7C3FA104619464FF4A7
:101B80007A720023FFF7BCFA0095CDE901604B465D
:101B900028460422032106F03FFA394609F0F6FBF5
:101BA000054668B994F8483043F0010384F848309A
:101BB0000AF0E0F9044608B328460FB0BDE8F08308
:101BC0000C200FB0BDE8F083E1680C9531310DAB0E
:101BD0000CAA03200D950EF0F1FA0D990029B2D050
:101BE0000F480BA3D3E90023A1FB0001FFF788FAFC
:101BF0000C9B20F07F4000EB0309A4E702200EF0CD
:101C0000C5FC20460FB0BDE8F08300BFAFF30080F5
:101C10008D49FD1A07000000002AE784C9BF0000B3
:101C200000CA9A3B81B300002DE9F04F04464FF6FD
:101C3000FF70A38D83428DB00D46164600F08F8055
:101C400094F8E90094F8E820904271D0121A02F05A
:101C50000302022A09D094F82D2194F82C319A42DB
:101C60001ED100200DB0BDE8F08F94F89C3194F89F
:101C70009D11994206D094F89E2102F00601042994
:101C800000F0E08394F8EA707B1E052B00F282835B
:101C9000DFE813F088001903C00280034303DF016B
:101CA0003C4804F0D5FE58B394F82C3184F82D311B
:101CB0000379022243F0030342710371C271D4F825
:101CC000B43194F82E2102722BB394F85621910767
:101CD00021D494F8AF21D2071DD4D4F8C021934267
:101CE00004BF1A68C4F8C021D4F8B821BAB91A6878
:101CF000026018600368C4E96E000BB9C4F8C4013F
:101D0000B4F8CC000028ACD1B4F8C630012B34D9DB
:101D1000A4F8CC30A5E7D4F8B821002A33D0D4F801
:101D2000BC311A6802601860C4F8BC010368E4E7BB
:101D300094F8563113F001088DD194F8051194F8F8
:101D400004718F4200F034830123821E84F8EA304C
:101D500084F8E92094F89C3194F89D1189E740F2C9
:101D600011330D4A0D490E4815F074FD404080F3C3
:101D700011884FF0030002DF62E70133A4F8CC3092
:101D80000DB0BDE8F08F0360C4E96D00C4F8BC017C
:101D9000B3E700BFC82F002004980100CC980100D1
:101DA000C0920100DFF86884D8F80030002B00F002
:101DB000DC84E78E628E94F806311744374413F0C2
:101DC0000303BFB240F0A083B4F8EC90A7EB090A7C
:101DD0001FFA8AFA1AF4004F7FF43DAF94F8741199
:101DE00094F8752194F8040184F805018A4294F866
:101DF000E80084F8E90009D094F8762102F007029F
:101E0000052A04BF84F87511A4F8CC30D8F8003046
:101E10009C4204BF0023C8F80030D4F80081B8F118
:101E2000000F00F0A085D8F80000002800F09B8586
:101E3000B4F80831E28D4168C4F800119342B4F857
:101E40000A11B4F80CC100F03286A28DA8F8062061
:101E50004FF00A0E0022A8F82230A8F82410A8F8A3
:101E600026C088F804E088F82020414609F010FADE
:101E700009F018FA2368002B09DAD4E9011223F0DB
:101E800000438A422CBFAD186D182360ED1AE38D14
:101E9000B4F8088113FB0AF39BB2B3FBF8F11FFA05
:101EA00081FB18FB0BF292B2934280F0C284D31AEA
:101EB000CB4840F2E24202FB03F3A3FB0001C6A3BE
:101EC000D3E90023FFF71CF920F07F400544638E1F
:101ED000A9EB07071E4494F93D305F44374440F2B4
:101EE000E249002B678609FB08F6C0F21486D4F895
:101EF0001001BB49B8A3D3E90023A0FB0101FFF700
:101F0000FFF820F07F4000F101093746B4F80C21BA
:101F1000B4F80A11B34BA4F82E8042F2107000FB03
:101F20000262B148218633443044B3FBF6F3013AF0
:101F3000B2FBF6F2B0FBF6F6A4F8C62098B28A1D02
:101F40009042A4F8D200A4F8CA6002DD401A063814
:101F500080B294F80631A4F8CE005E0744BF002397
:101F6000A4F8C8300221012012F09AF900220221BF
:101F70008246012004F010FE4FF4E6729B49204691
:101F800004F09CFD05305FFA80F8994B00944246BE
:101F90000121002006F0B0F830F002030CD040F62A
:101FA0006E13944A9449954815F054FC404080F3D0
:101FB00011884FF0030002DF894EA7FB066786A356
:101FC000D3E9002330463946FFF79AF88C4A20F0CF
:101FD0007F4BABFB02230721B01A01FB0B3367EBEE
:101FE00003014FF47A720023FFF78AF8854E94F9C3
:101FF0003D20854BE168049116EA220638BF1E4653
:102000008249029000272B460791CDF804B008942E
:102010000694CDF800904246059603973846012174
:1020200005F0FAFF30F002030CD040F68813714A35
:102030007149724815F00EFC404080F311884FF052
:10204000030002DFBAF1000F40F04B856FF047004C
:1020500008E6E38E628E94F8EC5013441E44EF07BA
:10206000B6B2AB4600F14283B4F8EE20B61A37049C
:102070003FF5F1AD94F8DC2094F8648094F865A005
:1020800094F8E81084F8E910D60708F007080AF079
:10209000070AB4F8627040F12D85D4F81C211005B0
:1020A00040F12885B4F8D890B9F5296F28BF4FF4CE
:1020B0002969B9F5A47F4FF4296338BF4FF4A47997
:1020C0000B9315F01C0F40F03386B4F8606015F0E8
:1020D000E00F0CD094F8652094F85E00690961F374
:1020E000020284F865200B9A0AF054F9074694F826
:1020F000B02194F86410D4F80051C2F3C00262F326
:10210000C30184F86410002D00F09386286800282D
:1021100000F08F8694F8641094F865204368C4F842
:102120000031C1F30201C2F302021BF0020F5FFA99
:1021300081FC5FFA82FE02D1E04500F06587A38D45
:10214000EB804FF00E0C002385F8211085F822203B
:1021500085F804C085F82030294609F099F8D4F8AC
:102160000051002D00F077862868002800F0738663
:10217000B4F860304268C4F80021B34209D34B453B
:1021800007D8B4F86230BB4203D30B9A934240F2B3
:102190004F87A4F86060A4F8627095F82030A28D93
:1021A000EA8043F00303092285F8212085F82030D6
:1021B000B4F85E30B4F85C10AB8402221523298594
:1021C0002A7185F823302946EF846E8509F060F87E
:1021D00009F068F83FE500BF8D49FD1A07000000CF
:1021E00000CA9A3B7FC3C901FF596202EC2C002050
:1021F00019C700000498010068970100C09201000F
:102200008D49FD1A6DF70000E1F80000C1C600001D
:10221000B82E002094F8EC3013F003057FF41BADCA
:10222000B54804F015FC064600283FF414AD94F9B7
:102230003D30002B80F2D88494F8ED50002D00F052
:10224000A382037994F8DC2043F00303D2070371DF
:1022500040F1E985D4F81C315B0740F1E485112297
:1022600003234572C27103727771D4F8B43100222E
:1022700084F8ED20002B00F0D18294F856219507C8
:1022800000F1CC8294F8AF21D00700F1C782D4F8D6
:10229000C021934204BF1A68C4F8C021D4F8B82101
:1022A000002A01F03080D4F8BC311A6832601E6018
:1022B000C4F8BC613368002B00F0B18594F8E830B5
:1022C00084F8E930C7E4E38E618E94F8EC200B4487
:1022D0001E44D007B6B200F1BE81B4F8F230F61A4F
:1022E00031043FF5B8AC94F8E83084F8E93004F1F3
:1022F0003805052204F1ED01284615F06AFF28464D
:10230000052104F06DFD94F83D30012260F30503D2
:1023100084F83D3084F8C8219DE4774804F098FBA8
:1023200000283FF498AC94F8E83084F8E9300123B1
:1023300002794371D4F8B43142F0030212210271E0
:10234000C171002B00F0158294F85621910700F11D
:10235000108294F8AF21D20700F10B82D4F8C0218B
:10236000934204BF1A68C4F8C021D4F8B821002AE7
:1023700000F09F87D4F8BC311A6802601860C4F876
:10238000BC010368002B00F0CF84B4F8CA30A4F875
:10239000CC3060E440F29733584A5949594815F017
:1023A00059FA404080F311884FF0030002DF52E4F5
:1023B00094F8197194F818C1674566D194F825719D
:1023C00094F824C1674500F0DF82A7EB0C07FF07F4
:1023D0007FF541AC94F82631D80740F168869F0715
:1023E00040F1628608F084FF0146002800F0B582C3
:1023F00094F8243184F8253190F82030A28DC280E1
:1024000043F0030381F82030022006220C2381F8D8
:10241000212081F82330087194F82701B4F828218D
:10242000B4F82A31A1F8273081F82400A1F825203A
:10243000086808F02DFF08F035FF94F8E82094F8BC
:10244000E90003E4C2F30207F9B207290ED04FF006
:10245000010808FA01F010F04E0C7FF413AC10F0F4
:10246000300F40F09584002900F0788640F63A530A
:10247000224A2349234815F0EDF9404080F31188A2
:102480004FF0030002DFFFF7FDBBA7EB0C07F807D7
:102490007FF5E1AB94F8DC1011F0010900F0EB835B
:1024A00008F026FF0746002800F0578294F81831FC
:1024B00084F8193190F82030A28DC28043F00303D4
:1024C00009220220414687F82030387187F8212000
:1024D00087F8232007F12400082215F0A4FED4F881
:1024E000203187F82430C3F307221B0C87F82520FE
:1024F00087F8263039469BE7C82F00200498010052
:1025000054930100C0920100012008F0D1FE8046E2
:1025100000283FF4A0ABD24804F09AFA06460028FF
:102520003FF499AB08F0E4FED8F80030D4F800216D
:102530005A6094F80631C4F8008103F00303012BBC
:1025400000F0A784022B00F0968440F69803C54A59
:10255000C549C64815F07EF9404080F311884FF018
:10256000030002DF0021238E94F8062130793B44DA
:1025700006339BB26FF301020C2784F80621A4F8FE
:10258000EC3040F003007771D4F81021B84F30716F
:102590000020F071A7FB020294F8147120683772D2
:1025A000B4F80871A6F80B70B4F80A71A6F80D70AB
:1025B000C2F38F22B4F80C71A6F80F700028A6F8A9
:1025C0001130A6F80920C4F8F4500ADAD4E901233E
:1025D00020F0004093422CBFEB18AB18181AC4F837
:1025E000F400A44D06F109030122C4F8F030E960BB
:1025F0002B4610460221AC6004F002FB002840F09C
:102600004B84D4F8B431002B00F07A8294F8562130
:10261000920700F1758294F8AF21D70700F170821C
:10262000D4F8C021934204BF1A68C4F8C021D4F87A
:10263000B821002A00F07B86D4F8BC311A683260D9
:102640001E60C4F8BC613368002B7FF404ABC4F88F
:10265000C461FFF700BB824804F0FAF90546002880
:102660003FF4F9AA238E027994F8EC101E44B31DAE
:10267000A4F8F2306FF30001012342F003020820B6
:1026800084F8EC102A716871EB71052204F1ED01F8
:10269000281815F09EFDD4F8B431B4F8F220A5F84E
:1026A0000D20002B57D094F85621910753D494F85D
:1026B000AF21D2074FD4D4F8C021934204BF1A6887
:1026C000C4F8C021D4F8B821002A00F02486D4F838
:1026D000BC311A682A601D60C4F8BC512B68002BFD
:1026E0007FF4B9AAC4F8C451FFF7B5BA022008F0C4
:1026F000DFFD804600283FF4AEAA594804F0A8F94F
:10270000054600283FF4A7AA94F8EC206FF30002D6
:10271000D3B2C3F3820757EA531784F8EC2040F092
:10272000908494F8E820A4F8EE70980784F8E920E3
:1027300000F17F853B46394605226A712F722A795E
:102740006B72D4F8B431698142F0030218212A7106
:10275000E971002BA7D1D4F8B821002AB7D12B609A
:10276000C4E96D55C4F8BC51B9E7C8F80040FFF79B
:1027700020BBD4F8B821002A7FF4FCAD0360C4E983
:102780006D00C4F8BC01FDE504F17F073B462A4615
:1027900004F1EE0104F2611010F0D0FF394610226E
:1027A00004F1A00015F015FD082204F1980104F1D0
:1027B000B90015F00EFD94F8972094F8B81094F82D
:1027C0007E3084F88F5042F0010265F3000143F03F
:1027D0000803012084F8972084F8B81084F87E302C
:1027E00084F8905084F8915084F8925084F8935073
:1027F00084F8945084F8955084F89650C4F8B050FA
:10280000C4F8B45032797071D4F8B43142F0030294
:1028100005213271F171002B7FF42FADD4F8B8216E
:10282000002A7FF440AD3360C4E96D66C4F8BC6132
:1028300041E508FB113340F2E2429BB20E4802FB35
:1028400003F3A3FB000104A3D3E90023FEF758FC24
:102850002D1AFFF73CBB00BF8D49FD1A0700000091
:10286000C82F00200498010054930100C092010079
:102870005917B7D18403002000CA9A3BD048B4F856
:102880003690B4F832A004F0E3F80746002864D08C
:10289000027994F87611042060F3020142F00302F9
:1028A000182084F8761109EB0A033A717871B4F8AC
:1028B0007801B4F87A11B4F87C2138813344B4F843
:1028C0007E017981BA810F210022A7F811304FF0E3
:1028D000FF33F881F9713A74FA743A757B75BB75F8
:1028E000FB753B767B76BB76FB763B777B77BB775E
:1028F0003946204609F0A2FD2268B4F8CA30C8F86B
:102900000040002AC4F89451A4F8CC300ADAD4E983
:10291000011322F000428B422CBFEB186B189B1A5C
:10292000C4F89431DFF8B4C213370122C4F89071AF
:10293000634610460221CCF8084004F061F960B10A
:10294000A04AA1494FF43863A04814F083FF4040E7
:1029500080F311884FF0030002DF94F8E82094F828
:10296000E900FFF773B940F6C903964A98499748BA
:1029700014F070FF404080F311884FF0030002DF35
:10298000D8F80000FFF754BA94F875C194F8747140
:10299000BC4500F0DD81DFF84882D8F80070002FD8
:1029A00000F06D84BC427FF456A994F8767107F06C
:1029B0000707052F00F27A860FF2040C5CF827F067
:1029C0007D2800002F2A0000D92900004D1C00009E
:1029D0004D1C00004D1C000098073FF53CA908F075
:1029E00087FC01460028B8D090F8203094F8762172
:1029F000A78D032060F302020343182084F8762198
:102A000081F8203081F82100B4F87801B4F87A21F7
:102A1000B4F87C318884B4F87E01CA840B85022224
:102A20000F23CF8048850A7181F8233000E594F8A0
:102A30007771002F40F0DB8494F93D30002BC0F219
:102A4000118594F8763194F88021C4F8107105202E
:102A500060F30203012084F8763184F81401002A1F
:102A600000F0F785B4F87831B3FBF2F3034413FBBD
:102A700002F39BB294F8062194F87601A4F8083189
:102A8000022363F301021346C0F3C00262F3820320
:102A90000139B4F87C01B4F87E2184F8051184F87A
:102AA0000631A4F80A01A4F80C21FFF7D4B8228E4D
:102AB0008A427FF4CAA940F2E24202FB03FB42F2DF
:102AC000107202FB0CB2B4F8C6E0013AB2FBFBF2A2
:102AD00092B296457FF4B9A9032388F80430FFF732
:102AE000C4B901221046022104F056F86FF04700E5
:102AF000FFF7B8B84FF4A479CDF82C90FFF7E1BAFE
:102B0000D4F8B821002A7FF497AD3360C4E96D662C
:102B1000C4F8BC6198E5E26C636CDFF8C88003FB25
:102B20001A23E36410F002F8074694F8DC00C0F3BF
:102B300082000FF0FDFF3B1806FB03F303F574233F
:102B4000244FE26C94F8141103F23F23A7FB0337E0
:102B5000BF0C07FB0BF073080244963B9A4209FB3B
:102B600001FC28BF1A464FF0000E6764C4E9123218
:102B7000A0FB080110A3D3E90023C4F854C0C4F893
:102B8000E4E0FEF7BDFA144AD4F81031A2FB0323A7
:102B90009B0A09FB03F92D1A07A3D3E90023A9FB1C
:102BA0000801FEF7ADFAF71B20F07F49B4F8088161
:102BB000FFF7ACB9AFF300808D49FD1A07000000A4
:102BC000C82F002004980100DC940100C09201008D
:102BD000E898010083DE1B435917B7D19403002006
:102BE000B82E002000CA9A3B04F17F073B462A46D4
:102BF00004F1EE0104F2611010F0A0FD394610223C
:102C000004F1A00015F0E5FA082204F1980104F19E
:102C1000B90015F0DEFA94F8971094F8B82094F8FB
:102C20007E3084F88F5043F0080365F3000142F0D2
:102C3000010284F8971084F87E3084F8905084F86C
:102C4000915084F8925084F8935084F8945084F80A
:102C5000955084F89650C4F8B050C4F8B45084F835
:102C6000B820311D204609F0F5FDD4F8B431002B11
:102C70007FF403ABD2E5DB4803F0EAFE0746002809
:102C80003FF46BAE94F81931D74AC4F81C21013BCC
:102C9000092284F81931427194F93D200379002A00
:102CA000ACBF08220E2243F00303C2710822037155
:102CB0004946104415F0B7FAD4F81C313B72C3F3FF
:102CC00007221B0C7A72BB72D4F8B431002B00F0CF
:102CD000D58094F85621910700F1D08094F8AF2167
:102CE000D20700F1CB80D4F8C021934204BF1A6808
:102CF000C4F8C021D4F8B821002A00F0AC83D4F87D
:102D0000BC311A683A601F60C4F8BC713B68002B84
:102D100000F0CC82B4F8CA30A4F8CC3094F8E820A3
:102D200094F8E900FEF792BFC4F8C401FFF72DBB89
:102D300094F8642094F85C00C5F3820161F3020208
:102D400084F864204A4609F025FB0646FFF7BFB920
:102D500094F89C3194F89D11994200F0AC8094F85D
:102D60009E21C2F30207F9B207290CD00120884046
:102D700010F04E0F7EF46FAF10F0300F40F0DF8296
:102D8000002900F0C58340F63A53984A9849DBE59C
:102D900002F00700B4F8A0E1B4F8A411A4F85EE0D2
:102DA0000428A4F86210B4F8A281B4F8A67100F067
:102DB000CB81062363F3020284F89E21D4F80091AC
:102DC000B9F1000F00F05C81D9F80000002800F094
:102DD000578199F820304268B4F82CC0C4F800211B
:102DE00043F00303022289F820304FF0090A15232B
:102DF000A9F806C0A9F824E0A9F8261089F804204B
:102E000089F823304946A9F82880A9F82A7089F85A
:102E100021A008F03DFA08F045FAFEF733BFC4F8E8
:102E2000C461FFF74BBA0D233572F3710227FFF728
:102E30001BBA40F642636D4A6E496F4814F00AFDB2
:102E4000404080F311884FF0030002DF286894F8B7
:102E5000ECB0FFF75FB940F66E63644A65496648B7
:102E600014F0F8FC404080F311884FF0030002DFBB
:102E70002868FFF77DB96149FFF775BBD4F8B82121
:102E8000002A7FF43CAF3B60C4E96D77C4F8BC71A5
:102E90003DE75B49FFF767BB40F65203534A594988
:102EA000554814F0D7FC404080F311884FF00300E0
:102EB00002DFFFF7A6BB94F8ACC194F8AD7167458B
:102EC0003EF4C9AE94F8AE7107F0030EBEF1030FE5
:102ED00000F2E8830FF2040858F82EF0ED2E0000FF
:102EE0004D1C00004D1C0000552F00003D4803F014
:102EF000AFFD014600283FF430AD94F8AE0194F8E0
:102F0000B03194F8AF710A794FF0010C6CF3010005
:102F10005FFA80FCCCF3820E6EF30203CCF3421C0A
:102F20006CF30613C7F3400767F3C30384F8AE01DD
:102F300084F8B03142F00302032016230A7148716D
:102F400081F808E081F809C0CB710022204609F021
:102F500075FADFE6C7F3820212F0020F84F8ADC102
:102F600000F05083022262F3840784F8AE7194F873
:102F7000AE21570917F0020F00F03B83022767F3D9
:102F8000471284F8AE2194F8AE7194F8648094F8F6
:102F900065E094F8EC20C7F3820C08F00708E045E0
:102FA00008BF4FF0000C0EF0070E7F096CF384028F
:102FB000BE4508BF002767F3471294F8AFC1D2B2ED
:102FC00042F00107CCF3800C6CF34107821E4FF0F6
:102FD000060C84F8E92084F8EC7084F8EAC0FEF767
:102FE00048BE00BFC82F0020FF490100049801001F
:102FF00054930100E8980100C0920100D101010042
:10300000CD010100DC940100F2457FF498A8032370
:103010002B71294608F03CF9D4F80051002D00F03E
:10302000D9822868002800F0D5824368C4F80031AE
:1030300003232B71294608F02BF908F033F9FEF72A
:103040000ABE238E1E44B31DA4F8EE3008F050F9DA
:10305000D8F80030D4F800215A60C4F8008108F094
:1030600047F90368D4F800215A6094F8EC30C4F8AA
:103070000001C3F38207B4F8EE105B09FFF75CBBF5
:1030800040F61253D24AD349D34814F0E3FB4040F0
:1030900080F311884FF0030002DFD9F80000B4F884
:1030A0005EE0B4F8621094E640F631336DE6CB484A
:1030B00003F0CEFC00283FF450AC94F8252194F89E
:1030C0002631013A84F82521027943F001030621D3
:1030D00084F8263142F003024171D4F8B431027110
:1030E0000B216FF00E020C270172427205214FF086
:1030F000FF32C7718172C2720273002B00F0E1804F
:1031000094F85621910700F1DC8094F8AF21D207A2
:1031100000F1D780D4F8C021934204BF1A68C4F8E4
:10312000C021D4F8B821002A00F08782D4F8BC313D
:103130001A6802601860C4F8BC010368002B7FF4B1
:10314000E9ADC4F8C401E5E5B4F8A801002840F0F1
:10315000CD8084F89D31A4F8CC002FE69F4803F081
:1031600077FC00283EF48EAD94F89E21B4F8A211AD
:10317000B4F8A631A4F8D61068F302024FF0090C97
:10318000A4F8D83084F89E2180F805C094F8DCC0FB
:103190000279818142F0030247F01B0E14211CF0DA
:1031A000010F02714772D4F81C2180F808E0C17148
:1031B00000F0B980110540F11381B3F5296F28BFE4
:1031C0004FF42963B3F5A47F38BF4FF4A4734FF4D1
:1031D0002962D4F8B411C381B2F5A47F38BF4FF48B
:1031E000A4724281002977D094F856319B0773D49A
:1031F00094F8AF31DF076FD4D4F8C031994204BFDF
:103200000B68C4F8C031D4F8B831002B00F01B8231
:10321000D4F8BC311A6802601860C4F8BC010368B5
:10322000002B00F0D180B4F8CA30A4F8CC30FEF7FF
:1032300029BD08F05DF8A28D88F8207094F86430FC
:10324000A8F80620C3F3020388F8213094F865300B
:10325000D8F80000C3F302030E2288F8223041465A
:1032600088F8042008F014F808F01CF894F8EC3002
:10327000B4F8EE10C3F382075B09FFF75DBA94F868
:10328000762102F00702052A00F2108201A050F810
:1032900022F000BF7D2800002F2A0000D92900005D
:1032A000571C0000571C0000571C0000C4F8C471D4
:1032B00030E51A68026018600368C4E96E00FFF721
:1032C00061B8D4F8B821002A7FF430AF0360C4E9B4
:1032D0006D00C4F8BC0130E7D4F8B831002B97D1A9
:1032E0000160C4E96D00C4F8BC0198E76CF3020208
:1032F000B4F8AA3184F89E21A4F8A201A4F8A8C1C8
:10330000A4F8A6315AE51A6832601E603368C4E931
:103310006E66FEF7D0BF1A682A601D602B68C4E98C
:103320006E55FFF7DCB94FF4A4731A4651E71A68DB
:1033300032601E603368C4E96E66FFF785B9B4F881
:10334000A011A4F85E1002F00701B4F8A401A4F8DB
:1033500062000429B4F8A291B4F8A68100F0CE80EE
:10336000062363F3020284F89E21D4F80071002F33
:1033700062D0386800285FD097F820304268C4F8DF
:10338000002143F003030921A28D87F8203087F83C
:103390002110B4F85E30B4F86210FA80BB840222C7
:1033A00015233A71F98487F823303946A7F8289015
:1033B000A7F82A8007F06CFF07F074FF94F8E82064
:1033C00094F8E900FEF742BCC4F8C4012BE700BF43
:1033D00004980100E8980100C0920100C82F002065
:1033E000D2054FF4A47340F18780A822F1E6B148DA
:1033F00003F02EFB014600283FF4AFAA037943F007
:1034000003030B71112003220F23C8714A710B7241
:1034100094F877314B720022204609F00FF894F8A7
:10342000743184F875310023C8F8003094F8E8202E
:1034300094F8E900FEF70ABC40F612539E4A9F49F1
:103440009F4814F007FA404080F311884FF00300C2
:1034500002DF386890E71A683A601F603B68C4E989
:103460006E7754E4934803F0F3FA014600283FF4E2
:1034700074AA0379182243F0030303714271B4F86C
:103480007821B4F87A31B4F87C010A81B4F87E214D
:103490004B8110238881CA81CB7194F880310B74E1
:1034A000B4F88231B4F88401B4F88621A1F811305F
:1034B000B4F88831A1F81300B4F88A01A1F81520F6
:1034C000B4F88C21A1F81730B4F88E31A1F81D3072
:1034D000A1F81900A1F81B2020463A4608F0AEFFDB
:1034E00094F87431C8F8007084F8753194F8E820C5
:1034F00094F8E900FEF7AABB1A466AE6B4F8A811E8
:10350000002940F0AA8084F89D31A4F8CC102CE763
:10351000684803F09DFA00283FF41FAA94F89E2102
:10352000B4F8A211B4F8A631A4F8D6104FF0010CEB
:103530006CF302024FF0090CA4F8D83084F89E21F5
:1035400080F805C094F8DCC00279818142F0030262
:1035500047F01B0E14211CF0010F02714772D4F8C2
:103560001C2180F808E0C17100F09080110540F145
:103570009180B3F5296F28BF4FF42963B3F5A47F79
:1035800038BF4FF4A4734FF42961D4F8B421C38138
:10359000B1F5A47F38BF4FF4A4714181002A6AD0ED
:1035A00094F85631990766D494F8AF31DB0762D4AA
:1035B000D4F8C0319A4204BF1368C4F8C031D4F8BB
:1035C000B831002B7FF4B2AD136803601060C4E91A
:1035D0006E00B2E540F65163374A3849384814F076
:1035E00039F9404080F311884FF0030002DF28686A
:1035F0001BE517F0010F0ED0012767F3471284F87F
:10360000AE21C0E412F0010F0ED0012262F3840754
:1036100084F8AE71ABE417F0040718BF042767F312
:10362000471284F8AE21AEE412F0040218BF04225F
:1036300062F3840784F8AE7199E41A680260186036
:10364000C4E96E0079E50B6803600860C4E96E00A8
:10365000E5E5B4F87A31FFF70DBA002363F302020F
:10366000A4F8A211B4F8AA1184F89E21A4F8A831F4
:10367000A4F8A61179E6D4F8B831002B7FF456AD42
:103680000260C4E96D00C4F8BC0156E54FF4A473B0
:1036900019467AE7D7054FF4A47301D5A82174E73A
:1036A000194672E740F6B553FFF76FBB40F63E434D
:1036B000FFF76BBBC82F002004980100E8980100B9
:1036C000C0920100000000002DE9F04F1D4695B0AA
:1036D00053F80C6B0B90904612680C46002118466C
:1036E0009160D2F8009004F13201032205F1080A3A
:1036F00014F06FFD05F11C0704F12E010422504661
:1037000014F067FD04F13E010522384614F061FD16
:103710003846052103F064FB95F8213000F03F00A6
:1037200060F30503012885F821300AD994F8432075
:10373000C2F304014B1F03F0FF030B2B85F822108B
:1037400002D915B0BDE8F08F278F6F8294F83A3018
:1037500094F83B0096F8DC10520943EA002362F328
:103760008401AB82E38E86F8DC10ADF83C300FF0BC
:10377000DDF90C9096F8DC00C0F382000FF0D8F968
:103780000C9BDFF834C394F83510AA8A40F2E24B60
:103790000BFB07F7184407FB00F000F5742000F25C
:1037A0003F20ACFB00C04FEA570C0BFB01F1800C33
:1037B000ACF1960CA862E963C5F82CC0B4F83CB033
:1037C000B34BB44842F2107101FB0B713B4402F160
:1037D000060CB3FBF7F30139B1FBF7F1A6F8C610FD
:1037E00099B261453844A6F8D210B0FBF7F0A6F8BC
:1037F000CA0002DD891A063989B2A6F8CE10042261
:10380000514606F1E00014F0E4FC94F8203004F195
:10381000220A5146C3F38013062212A88DF84430C1
:1038200014F0D7FC94F820304FF48072228498F87A
:10383000162099F82A000E92C3F340138DF8303009
:103840000DF0BAFB9DF830300D930146062204F1CD
:103850002F00002940F0EB8014F0E5FC0E9804F1F5
:103860002903FF28109304F1230300F0EA801A468D
:1038700051460CF0DBFD94F822201098023284F8B7
:10388000222012A9062214F0A4FC96F8DC30698AE2
:10389000AA8A2287C3F3820384F83C30E186A4F825
:1038A0003AB0304609F028F921462882E080D8F85D
:1038B00004400B9807F0ECFC2B8AE3800D23237166
:1038C0000D9B2068002B00F0B78095F809E02B7A5B
:1038D00095F80BC0A97A95F8212041EA0C2143EA1A
:1038E0000E234B4042F0400201216B8485F82120D9
:1038F00084F82010214607F0CBFC07F0D3FCD8F861
:1039000010B0654A00240BF252403123A0FB0201A3
:103910003360C6E901445CA3D3E90023FDF7F0FB63
:10392000D8F80C30AD6AA3F5AE7320F07F40A3EB5E
:103930000B0BBDF83C30F06022460221012040F222
:10394000E24A0AFB03AA03F027F9484608F0F6FA10
:10395000821CD2B22046CDF80090504B012104F0D9
:10396000CBFB0128A7EB0507DA4400F0838099F828
:103970002830DB0776D4304609F0BEF8DFF818B1FE
:10398000A7FB0B4540A3D3E9002307462946204661
:10399000FDF7B6FB424A069620F07F49A9FB0223B9
:1039A000072101FB093340F22111D8F808C0089122
:1039B0003C4907913C490591A01A65EB0301F36866
:1039C000049300254FF47A720023ACF1310403957F
:1039D000FDF796FB2CA3D3E900230290AAFB0B0171
:1039E000CDF80490FDF78CFB053720F07F40FFB247
:1039F000009023463A462846012104F00DFB30F0A2
:103A000002030CD040F22313284A2949294813F015
:103A100021FF404080F311884FF0030002DF0122B4
:103A20001046022103F0B8F815B0BDE8F08F04F19C
:103A3000280114F0CEFB11E79DF8303084F82030D7
:103A400058E710980E930622002114F0ECFB9DF825
:103A5000443084F822300E9B12A91846062214F036
:103A6000B8FB12E70023012200931846114604F028
:103A700043FB80E707F0B0FC81453FF478AF0BF0E3
:103A800051FE74E7AFF300808D49FD1A0700000076
:103A90007FC3C901FF59620200CA9A3B51F7000077
:103AA0008D49FD1AF5F600006DF7000078990100C8
:103AB00068970100C092010083DE1B4300000000F4
:103AC0002DE9F0410F46D0E90C15C66A4C19303487
:103AD000A642904618D8144D11A3D3E90023A1FBA8
:103AE0000501FDF70DFBA41B20F07F4038600CA3FF
:103AF000D3E90023A5FB0401FDF702FB20F07F4082
:103B0000C8F80000BDE8F081074C05A3D3E9002305
:103B1000A6FB0401FDF7F4FA3035E5E7AFF30080CA
:103B20008D49FD1A0700000000CA9A3B0000000002
:103B30002DE9F04F91F8206091B0174612680C9073
:103B40000C464FF000091D46C2F80890C6F3C0139A
:103B5000D2F800808DF83430283106220EA82E6865
:103B600014F037FB94F82030A4F82090797D97F872
:103B70001690C3F3401A5FFA8AF311F001010B9318
:103B800004F12F004FF0060200F0E68004F122015C
:103B900014F01FFBB9F1FF0F04F1290304F1230B0B
:103BA00000F0E4805A46484604F122010D930CF0DF
:103BB0003DFC94F822200D9B023284F822200EA9AD
:103BC0001846062214F005FB6B8AAA8AE386B8F829
:103BD0003030638722870EF0A7FF84F83C00304620
:103BE00008F08AFF034628822146E3800C987C680F
:103BF00007F04EFB2B8AE3800D2323710B9B20687B
:103C0000002B00F0A68095F809E02B7A95F80BC000
:103C1000A97A95F8212041EA0C2143EA0E234B4072
:103C200042F0400201216B8485F8212084F82010A5
:103C3000214607F02DFB07F035FBD7F810B0DFF871
:103C400070A1002431230BF252403360C6E90144D5
:103C50004FA3D3E90023A0FB0A01FDF751FAB5F801
:103C600012C0FB6820F07F40F06022460221012054
:103C700040F2E24909FB0CF9A3F5877502F08CFFCD
:103C8000404608F0E3FA021DD2B20092424B0121F5
:103C9000204604F031FA23460322012100942046F5
:103CA00004F02AFA304608F027FF069640F2652312
:103CB000D7F808C0394A0893394B07920593F3683F
:103CC000049389FB0A89471D4946404630A3D3E93E
:103CD0000023ACF131060394FDF712FA10461946A1
:103CE0004FF47A720023FDF70BFA29A3D3E90023DE
:103CF000029049464046FDF703FAA5EB0B0524A3C5
:103D0000D3E900230190A5FB0A01FDF7F9F9FFB201
:103D100020F07F40009033463A462046012104F0CF
:103D20007BF930F002030CD040F267231D4A1E4994
:103D30001E4813F08FFD404080F311884FF00300C0
:103D400002DF01221046022102F026FF11B0BDE879
:103D5000F08F84F820A06BE714F065FAB9F1FF0F3B
:103D600004F1290304F1230B7FF41CAF184606224B
:103D7000002114F058FA9DF8343084F822300EA94E
:103D80005846062214F025FA1EE700BFAFF3008064
:103D90008D49FD1A07000000ADF80000B1F80000E1
:103DA000E1F80000F499010068970100C092010059
:103DB00000CA9A3B000000002DE9F04F83B0044692
:103DC0000FF064FF10F0FF0F12D10FF049FF10F059
:103DD00017F80FF0FDFF10F023FA0FF0C1FF214696
:103DE000CB480FF011FE03B0BDE8F04F0FF020BF3D
:103DF0000FF06CFF5FFA80F80FF0F2FFC6B20FF021
:103E0000F9FF074610F018FAC5B210F003FA82461F
:103E10000FF0AEFF81460FF023FF0FF0F1FF0FF020
:103E2000D7FF10F0FDF90FF09BFF002E40F0AC80A3
:103E3000002D40F0BB80FF27B8F1000FCFD0A37D4D
:103E4000190700F1A980002E40F0EF81012007F052
:103E500027FB8046002800F0FF81A3685FFA89F6FF
:103E6000002B00F0D680A37D1A0740F1EA8198F874
:103E7000200010F00F0340F09F8098F82130252B90
:103E800000F21881042007F00BFB0028A7D010F0E7
:103E9000D5F8A36A814643B9E28C40F2712303FB53
:103EA00002F3B0FBF3F203FB120923689948DB68C5
:103EB0000722A3FB000102FB031193A3D3E9002314
:103EC000FDF71EF9A0F24230484588D30FF02AFFD3
:103ED000A36800930FF008FF98F820200378C2F33E
:103EE000801262F3C71303F0D00343F025032222AC
:103EF00003704270824638460DF06CF8E37D019005
:103F0000DA0701460AF1020040F1D481002900F0ED
:103F1000D1819AF8003043F040038AF8003006223D
:103F200014F057F9062208F122010AF1080014F0F2
:103F300050F9009B042203F108010AF10E0014F06D
:103F400048F9009903220C310AF1120014F041F9EA
:103F5000012300998AF81530B1F812B010F06EF80C
:103F6000D4F8109000F5DB60B9F1000F00F0B181DA
:103F700040F2E24303FB0BFBB9F1000F02DB4845C3
:103F800040F2CA80D944F7E7A07DF9B2C0F3C0007F
:103F90000DF03EF807464FE7002E7FF457AF384646
:103FA0000DF0EEF800287FF451AF18E75FFA8AF0C1
:103FB0000DF094F807463FE7012B51D198F82130D6
:103FC0000C2B7FF40CAF08F12809C00949463A468A
:103FD0000DF082F900287FF455AFE37DDB0700F197
:103FE000F081A37D98F82000C3F38012B2EBD01FBC
:103FF00000F03282C3F3C10398070AD598F9203044
:10400000002B06DA98F82D3003F0C003402B3FF464
:1040100039AF98F8200010F00F0321D198F8213023
:10402000252B3FF6DCAE94F91620002A03DAA268AD
:10403000002A00F07681252B98BF4FF0000939D86F
:10404000002B3FF4CCAEA368002B7FF4C8AE002D4C
:1040500014BF3946FF214A4630460EF04FFCBEE6FB
:10406000062B00F00781022B00F00A81012B21D1E1
:1040700098F821300C2B7FF4B2AE08F1280AC00961
:1040800051463A460DF028F98146A8BBA37D98F821
:104090002000C3F38012B2EBD01F00F09981C3F36C
:1040A000C103980704D598F92030002BC0F29A81FB
:1040B00098F8200000F00F0004287FF490AE98F8E4
:1040C0002130252B3FF68BAEA37DDA077FF587AE37
:1040D0000FF00AFE98F820300278C3F38013B3EB98
:1040E000D21F7FF47CAE0830062208F1220114F0C2
:1040F00060F800287FF473AE98F821304FF0000983
:104100009EE700BFAFF3008000CA9A3B00000000AA
:10411000F92501008D49FD1AC7499AF81520A9EB28
:104120000003A1FB0313C3F38F230132AAF8163057
:104130008AF815200098A38A418A828AAAF81A2050
:10414000AAF81810AAF81C3000F11C0105220AF187
:104150001E0014F03EF800989AF8233090F82220C0
:1041600062F304038AF823300EF0DEFC9AF8233061
:1041700060F347138AF8233050460FF02BFD0FF001
:104180007BFD002840F0BF802146AC480FF03CFC8E
:10419000002E40F0B280237943F00102DB07227148
:1041A00000F19D8007F09CF94FF6FF730646082248
:1041B00098F82080027151462422C380203014F0E8
:1041C00008F896F82030B460C8F3401868F3451337
:1041D00086F820300FF0D6FE0021306108460FF03F
:1041E00009FD0021A9EB0000706108460FF0F8FC02
:1041F000002D08BFFF27B777E37DB06113F00103FF
:1042000003D0019B003318BF0123727F63F30002C8
:10421000727707F065F93146F060306807F078F999
:1042200003B0BDE8F04F07F083B9394628460CF0DB
:10423000E1FF00287FF40AAEA37D1B077FF5CFAD19
:1042400004E6FF2F1FD0207EC01BB0FA80F040098B
:1042500000287FF40CAEDCE640F2AA23784A7949C4
:10426000794813F0F7FA404080F311884FF00300CB
:1042700002DFF2E598F82130252B7FF6D4AE19E75E
:1042800098F82130D7E698F82000C3F34013C0F324
:10429000801293427FF4BFAE062208F1220104F19E
:1042A0001F0013F086FFB0FA80F0400900287FF469
:1042B000DEADAEE6A37D9AF80020C3F3801363F36E
:1042C00086128AF8002004F11901062213F081FFFA
:1042D00028E68AF816908AF8179081462AE740F275
:1042E0004933574A5949584813F0B4FA404080F3CB
:1042F00011884FF0030002DF54E70FF02BFD009B05
:1043000083F8A50047E740F223334D4A50494E4811
:1043100013F0A0FA404080F311884FF0030002DF51
:1043200032E796200FF07CFD00200FF0E1FC002D1D
:1043300014BF3946FF21304600220EF0DFFA002874
:104340007FF44DAD0FF0D0FC0378032262F303033A
:10435000037098F8203002780546C3F3801363F3A6
:10436000C7120C236B7038462A700CF033FEE37DC5
:10437000DE07014642D5002840D02A78284642F080
:10438000400200F8022B062213F023FF08F122015D
:10439000062205F1080013F01CFF28460FF01AFC56
:1043A0000FF06AFC002838D10FF040FEA37D2948A9
:1043B00043F001032146A37503B0BDE8F04F0FF0B1
:1043C00023BB38460CF006FE00287FF422AE08E638
:1043D0005146062204F1190013F0EBFE002846D0E6
:1043E000A37D5CE698F82D3003F0C003402B7FF4EA
:1043F0005FAE98F821304FF0010921E6A37D2A78BD
:10440000C3F38013284663F3861200F8022B04F1ED
:104410001901062213F0DDFEB8E740F2A533084A81
:104420000B49094813F016FA404080F311884FF009
:10443000030002DFB8E700BF5917B7D139280100E0
:10444000C09D01000C9E0100C0920100EC9501008E
:10445000AC9D01000D2601004946062204F1190019
:1044600013F0A7FE00283FF40DADA37DC2E598F838
:104470002130E5E508B5002000F052FB20B10348EB
:10448000BDE8084013F0E6B90148F9E7B4A101001E
:10449000C9A101000B6801330B60014B1B68184771
:1044A000100000202DE9F04F85B09B460E9CDFF8F0
:1044B0008890012CB8BF0124012B0CBF302320238E
:1044C000164682468846029301250A270022B6FB3B
:1044D000F9F301930AB9B1451DD8019B414603F197
:1044E0003000D04701350122019B013F012F09FB1C
:1044F00013664FF00A03B9FBF3F9E8D1414606F120
:104500003000D047BBF1030F02D1641B002C0EDC3E
:1045100005B0BDE8F08FBC42E6DBBBF1020FE3D88B
:104520004146029803920135D047039ADCE74146A1
:104530002020D047013CE9E700CA9A3B014B1860B4
:10454000704700BF1000002007B50023019302460A
:104550000B46034801A913F00DF803B05DF804FB06
:1045600095440000F0B5104B104C114DE41AA41006
:104570006C43104DD5F824C00025A54202D16FF040
:104580002200F0BD5F6867450AD31E6946B197F8FF
:1045900002E00779BE4503D13346BDE8F040184735
:1045A00001352433E9E700BF6C06002090060020A7
:1045B000398EE338A80600202DE9F041124B134C48
:1045C000134DE41AA4106C43124DD5F824C00025F5
:1045D000A54203D16FF02200BDE8F0815E68664518
:1045E0000ED39F6967B196F80280B0F804E0F045F9
:1045F00003D13B46BDE8F04118477679012EF8D04B
:1046000001352433E4E700BF6C060020900600204B
:10461000398EE338A80600202DE9F8430F4C104BE3
:1046200017461B1B0F4A9B1005460E4602FB03F95B
:104630004FF00008C14502D16FF022000BE0636922
:104640001BB908F101082434F4E73A4631462846FC
:1046500098470028F5D1BDE8F88300BF6C0600201C
:1046600090060020398EE33807B583788DF8003046
:104670000379427943EA0223ADF80230C3786846F1
:1046800003F003038DF8043001F0B8FA10F1450F80
:1046900004D018B1002003B05DF804FB9DF80000C1
:1046A00001F028FB10F1450F01D00028F2D1024B98
:1046B000012083F8B900EEE7A80600202DE9F14FAC
:1046C000254B264C264E1B1B9B105E43031F012BC4
:1046D00005460F4625D8234B93F8B920984602B3D8
:1046E00000F0ACFC042D1CD14FF000094E4515D054
:1046F000D4F820B04FF0000A227F5FFA8AF39A4282
:1047000003D809F101092434F0E70BEBC3030AF1E4
:10471000010A187901F010FB0028EDDA002388F86F
:10472000B9300E4C4FF00008B04508D10D4B1B6A54
:104730007BB13946284601B0BDE8F04F1847E36821
:104740001BB13A4629462046984708F1010824340F
:10475000EAE701B0BDE8F08F900600206C0600206B
:10476000398EE338A80600202DE9F04F8B4DAB6958
:1047700085B007460E4614468BB997F8008008F0BE
:104780001F08B8F1010F00F08A80B8F1000F0CD0BB
:10479000B8F1020F00F0C8806FF0150002E09847F2
:1047A0000028EAD105B0BDE8F08F7A7878882368D0
:1047B000092AF1D801A151F822F000BFE547000015
:1047C0009947000099470000994700009947000069
:1047D000F1470000FB47000099470000294800000E
:1047E0003348000000201870587002233360D9E766
:1047F000C0B201F0F3F90020D4E7020A131F012B25
:10480000CAD9072AC8D86B6A0021C0B21D78002D0A
:10481000C2D05F78974203D1884200F0B78001315F
:104820002B44F3E71B78B6E095F8BA201A70012301
:10483000B1E0C6B28DF80F6076B14FF0FF086C6A38
:104840000027C146237853B9EB691BB10DF10F0165
:1048500003209847002F9FD085F8BA60CBE7637894
:10486000042B0DD0052B0ED0022B06D194F8058019
:104870009DF80F30434508BF012723781C44E1E72A
:1048800094F80390F9E79DF80F304345F5D1B9F15D
:10489000000FF2D12046FFF7E7FE0746EDE77878F4
:1048A00023680A2805D00B2808D000287FF474AFAD
:1048B00099E700201870C6F8008073E797F804A005
:1048C00097F802B06C6AFF27B9464FF000082378CA
:1048D0003BB9EB6913B1414607209847002030608F
:1048E00060E76378042B04D0052B0BD023781C449D
:1048F000EDE7A77894F80390BA45F7D1CB4508BF08
:10490000A046F3E7BA45F1D1CB4509D0A37801938E
:10491000184600F06BFB019B184601F00DFAE5E725
:104920002046FFF7A1FEE1E77B783879D4F80090C4
:104930008DF80F00012B1AD05CB284B1032B7FF4E9
:104940002BAF7C88002C7FF427AF01F079F9EB695D
:10495000002B3FF450AF0DF10F01082014E0494641
:1049600001F0AEF989F80140C6F8008043E77C8881
:10497000002C7FF411AF01F089F9EB69002B3FF4B3
:104980003AAF0DF10F010920984734E7022A23605E
:104990007FF448AF5B8833602DE700BFA806002096
:1049A00008B509480378C3F341130A3350F823309C
:1049B0003BB100F1080200F110019847C043C00F5D
:1049C00008BD1846FCE700BFA806002013B50D4C33
:1049D000237D7BB9E268A168019201AB802013F0CE
:1049E000C7F90199A268E3680A445B1AA260E36010
:1049F00002B010BD00231A4619468020237501F02D
:104A0000B9F9F5E7A806002037B5002201920B4658
:104A1000024600284DD12C4C59BB0822214613F0E8
:104A200063FB002804DA802001F00AF903B030BDEE
:104A3000E588802D07D92378DB0904D1802001F097
:104A4000FFF80020F0E7214B2561C4E9023500237F
:104A5000237515B12378DB09E8D0FFF7A1FF002803
:104A6000E1D02369AB42D4BFE360E560FFF7AEFF5E
:104A7000DCE7D4E90215002D01AB04DC13F034FBB4
:104A80000028D3DACFE72A4613F02EFB0028D5DB27
:104A90000199A268E3680A445B1AA260E360002BF4
:104AA000C4D104F13803A360FFF77AFF0028DDD1F9
:104AB000B9E78028BAD1044BDA68002AD6D11B7D29
:104AC000002BD3D1B2E700BFA8060020E0060020EB
:104AD000054B064A9A62064ADA62064A1A63064A91
:104AE00058629A6100207047A806002069470000BC
:104AF0006545000019460000B9450000074B10B598
:104B000093F8B84024B900F0B3F918B1FFF7E0FF0B
:104B1000002010BD4FF0FF30FBE700BFA8060020CB
:104B20002DE9F7430446384E38484FF0FF324FF036
:104B3000FF3311F0A7FD96F8B850002D41D134484D
:104B40003462F06101F024FA00F0FCFF041E39DB4E
:104B500000F0B8FA041E35DB40236846ADF8023099
:104B60008DF804508DF8005001F048F8041E29DB40
:104B7000802768468DF8007001F040F8041E21DBA4
:104B80002449284601F0F2F9041E1BDB214938466E
:104B900001F0ECF9041E15DB1F4C204B204F1B1BB2
:104BA0009B105F43AF4214D1002001F0A3F8041E14
:104BB00008DB802001F09EF8041E03DB012386F849
:104BC000B8300024114811F0D5FD204603B0BDE8EF
:104BD000F083D4F820904FF00008227F5FFA88F32A
:104BE0009A4202D801352434DCE709EBC30259F8B4
:104BF0003310107901F0BAF908F101080028ECD05F
:104C00004FF0FF34DEE700BFA806002000050020BB
:104C1000BD460000094A00006C06002090060020F6
:104C2000398EE33830B51C4B89B003AA03F1100567
:104C300018685968144603C40833AB422246F7D1BA
:104C40001B7823700822002101A813F0ECFA12222D
:104C50000021124813F0E7FA082101A813F053FAD3
:104C6000002816DD0D4901AA002012F8013B08AC0E
:104C700004EB131403F00F0314F8144C0C7008AC7D
:104C80002344013013F8143C4B70082801F1020151
:104C9000EBD1024809B030BDE4A10100BC3A0020CC
:104CA0002DE9F04F6D4A6E4B6E499B1A87B09B10F1
:104CB00000264B43044601934FF0011AB146374694
:104CC000B046934623783BB9674AA01C904200F057
:104CD000C280FFF7E5FF17E06378052B05D8DFE812
:104CE00003F081040381072BA04623781C44E9E7E5
:104CF000E378002BF9D1A3789BB9584A1F46019B52
:104D0000BB4204D14FF0FF3007B0BDE8F08F243232
:104D100052F8203C9C4209D1242303FB07B7BB680F
:104D200033B909F101095FFA89F9DEE70137E6E7EE
:104D3000494620469847F4E7002FE3D0002301219D
:104D40003A7F9342DEDA3A6AA57802EBC302107921
:104D5000854201D00133F3E7012594F803C094F8AC
:104D600005E00CF0030C8DF814C094F804C04CEA74
:104D70000E2CADF812C094F802C08DF810C01CF0D3
:104D8000800FE8B225D005F1100C01FA0CFC1CEAEA
:104D90000A0F23D160F07F008DF8100004A8CDE940
:104DA000023213F089F9DDE902320121B0B99DF830
:104DB0001030A37013F0800F137118BF10350B461D
:104DC00015BFAB4003FA05F54AEA030A4AEA050AA9
:104DD0008BE701FA05FC1CEA0A0FDDD00135102D26
:104DE000BBD1B7E7032E1ED1FFF71CFF054668B104
:104DF00013F0CCF9029048B11C4813F0C7F9029A9D
:104E0000824203D12946A01C13F0E3F923786FF006
:104E10000201E218091B04EB53030020D14213D511
:104E20000136F6B261E7002EF0D1B8F1000F3FF481
:104E300069AFA4EB080388F80230C3F3072388F8AE
:104E4000033088F80490EBE702F8010C13F80159DD
:104E500002F8025DE2E7184656E700BF6C06002044
:104E600090060020398EE3386B060020E4A1010093
:104E700008B50448FFF714FF0028024818BF0020B7
:104E800008BD00BFEC050020014600F10803BFF398
:104E90005B8F53E8002F42F0010043E8000CBCF1A7
:104EA000000FF6D1BFF35B8FD30702D4014813F094
:104EB00061BD7047243A002073B5184C0D46064674
:104EC0000023442101FB03F2105DB04212D11444CF
:104ED0006B1E012B0CD894B9012D09D101AB012215
:104EE0000DF10301304600F0B5FF019B002BF5D119
:104EF00002B070BD0133042BE4D10024E8E713F0C5
:104F00008EFE343408B1012D03D1204612F04DFF3E
:104F1000EEE72046FFF7B8FFEAE700BF640700208E
:104F20002DE9F74F074691469A464FF02003EFF3DD
:104F3000118B83F31188BFF36F8FDFF8AC800024EF
:104F40004426019106FB04F500220023404611F09F
:104F5000F9FF019958B9234E7419636813F1100FC2
:104F600014D10193404611F0C7FF019B06E00134C4
:104F7000042C08F14408E4D16FF00B038BF3118883
:104F8000BFF36F8F184603B0BDE8F08F0C9B6361D1
:104F90000D9BA3616FF00F0320617755C4E90219DF
:104FA000C4F840A06360384600F0F8FF58B13846B6
:104FB00000F0F4FFB9FBF0F303FB109018B1236C81
:104FC00043F0040323641AF0020F06D005F1340005
:104FD0003044FFF759FF0023D0E7384600F084FF44
:104FE0000346CBE7640700208007002070B54FF030
:104FF0002003EFF3118483F31188BFF36F8F0E4901
:105000000022442505FB02F35E5C86420BD1CA18E0
:10501000506810300AD16FF0470034335060C81820
:10502000FFF732FF02E00132042AEBD184F311884A
:10503000BFF36F8F70BD00BF64070020F8B50F4C41
:1050400000256FF047074FF02003EFF3118683F33D
:105050001188BFF36F8F6368103304D104F13400FB
:105060006760FFF711FF86F31188BFF36F8F01357B
:10507000042D04F14404E6D1F8BD00BF640700200C
:10508000F0B504468BB00D4616461F46012200219E
:1050900004A813F0B4FD03AB0193094B009332460F
:1050A0003B4629462046FFF73BFF38B94FF0FF3219
:1050B0004FF0FF3304A811F045FF03980BB0F0BD8B
:1050C000A17D0100F8B50025094C0A4F2E46C4E920
:1050D0000D67E663012204F11C001146013513F04F
:1050E0008EFD042D04F14404F1D10020F8BD00BF71
:1050F00064070020AB7D0100014B9970704700BF31
:105100000706002007B50B6801931368009300227F
:105110000023002001F08EFB014630B1044813F05B
:1051200019F9002003B05DF804FB6FF00B00F9E7FC
:105130001405002013B50C1E13DD01F03DFC0F4BD0
:10514000009301280CBF0420022001944FF0FF328D
:105150004FF0FF3301F06EFB70B10146084813F0C9
:10516000F9F8002301930748074B009320220123FD
:105170000249007BFFF7D4FE02B010BDCE3A0020FA
:1051800014050020140000203551000070B5124EA7
:10519000124D4FF0FF324FF0FF33304613F0BCF8A2
:1051A000044601F009FC012806D1032323750223DC
:1051B000A289A168287D0CE0237D012B05D0032B5B
:1051C000F5D020460FF0E6FAE3E7A289A168287936
:1051D0000623FFF755FFF4E72C05002014000020FC
:1051E00038B5084D4FF0FF324FF0FF33284613F02B
:1051F00093F8044601F07AFB0028F3D020460FF024
:10520000C9FAEFE71405002038B504214FF6104025
:1052100003F04AFB00F1080405460221204613F082
:10522000A6F80223002143700170204613F0AEF867
:105230000121204613F0AAF82946024813F08AF803
:10524000FF2038BD2C050020032910B502D0042909
:1052500008D010BD094B00221146187BBDE8104054
:10526000FFF768BF054C2079FFF7C0FE207DFFF7F0
:10527000BDFE207BBDE81040FFF7B8BE1400002043
:10528000F0B5164889B001F0A7FB044618BB02210F
:10529000134801F097FB002600276FF00705CDE9C2
:1052A00006670494CDE90245CDE900440D4B0E4953
:1052B0000E484FF4007211F0ADFE0D4B0094CDE995
:1052C0000667CDE90354CDE901444FF40072094962
:1052D000094811F09FFE204609B0F0BD2C050020C2
:1052E0002C000020E1510000083B00207408002041
:1052F0008D510000083D0020E808002010B5074847
:10530000074C11F091F8074B1860204601F042FA63
:105310002046FFF713F9002010BD00BFF5A10100E2
:10532000295300005C0900200A2838B50446074DBF
:1053300004D1286883680D215B68984728688368D2
:10534000E1B25B689847204638BD00BF5C09002089
:10535000F8B5124DEB680C2404FB0034012306461B
:1053600063724FF02003EFF3118183F31188BFF3D1
:105370006F8F23682BB160681A682260834208BF70
:10538000626081F31188BFF36F8F03B9F8BDD3E971
:10539000017231462846B847E3E700BF4C040020BD
:1053A000254B07B51A6882B14FF08042D2F804232A
:1053B000D1070AD500221A601B680093009B1F4B7F
:1053C000DB68587A08B9FFF7C3FF1D4B1A686AB14A
:1053D0004FF08042D2F80423920707D500221A60CA
:1053E0001B6801930120019BFFF7B2FF80214FF45E
:1053F0008E7012F027FE18B14FF48E7000F080FB13
:105400004FF400714FF4927012F01CFE18B14FF47B
:10541000927000F075FB4FF480714FF4907012F0B1
:1054200011FE30B14FF4907003B05DF804EB00F062
:1054300067BB03B05DF804FB000100404C04002092
:105440000401004000F07F03082B42B204D010F0AA
:10545000780F01D000207047002A00F00F0300F001
:10546000080006DA68B90948242202FB0300283044
:10547000704740B903F10900044B242202FB0030BD
:10548000F5E7034870470348704700BFB81B00208A
:10549000001D0020441E00200146014813F06ABA96
:1054A0004405002038B505460D4810F0BDFF90B109
:1054B0000C4C217855B139B983681B68984710B1F5
:1054C00010F1440F09D12570002006E031B1836846
:1054D00029465B68F2E76FF0120038BD0846FCE72A
:1054E000FCA10100EE3A00200949BFF35B8F51E8AF
:1054F000003F43F0010241E800200028F7D1BFF34C
:105500005B8FDB0703D40839024813F033BA7047C6
:10551000C81B00206C1E002010B5064C0022002382
:10552000204611F06DF918B1043013F085F9F5E754
:1055300010BD00BF44050020DFB50026002702ACE7
:10554000CDE9006718222146134813F058F90028C6
:1055500019DAFFF7E1FFCDE90067182221460E486E
:1055600013F04DF900280CDB029B94E803001A1D90
:1055700082E8030004221A751846FFF78DFFFFF733
:10558000B3FF002305E0029B94E803001A1D82E8A4
:105590000300184604B0D0BD48000020817870B5E3
:1055A00006460846FFF74EFF0B060546F47813D56E
:1055B000002C45D1FFF7C0FF0346002840D0012250
:1055C00085F82240027503220274DD60FFF764FF54
:1055D000BDE87040FFF788BF54B1012C30D1FFF710
:1055E000ABFF034660B385F8214004750474ECE713
:1055F000FFF7A2FF20B3B378124A13F0800F03F035
:10560000080111D041B1D2F8A836EB60012303752F
:1056100002230374C560D9E703F00F03142101FBD3
:105620000323D3F80836F0E711B1D2F8A837ECE736
:1056300003F00F03142101FB0323D3F80837E4E739
:1056400070BD00BF00700240F0B5064689B0182258
:10565000002102A812F0E7FD3378013B052B20D88A
:10566000DFE803F07703141F671603238DF8143067
:105670000024FFF761FF034698B105A9047500F106
:105680000C0203C982E8030018461DE00423EDE77D
:10569000B1780846FFF7D6FE837A05461BB1032B87
:1056A00043D909B0F0BD0B06F47812D5002CF8D11F
:1056B000FFF742FF03460028F3D0012285F822407D
:1056C000027503220274DD60FFF7E6FEFFF70CFFB0
:1056D000E7E75CB1012CE4D1FFF72EFF0346002879
:1056E000DFD085F8214004750474ECE7FFF724FF50
:1056F00007460028D5D00123037502230374C56033
:1057000005F10C01B07812F0BBFF134AE968B2F85A
:10571000B0328B4206D95B1AA2F8B03210F0F2FB1D
:105720003846D1E7A2F8B042FAE73046FFF736FF35
:10573000B7E7684610F0C0FB9DF80130052B04D197
:105740009DF8003013F0600FABD0044B059301249B
:105750008FE702248DE700BFB81B0020241D002026
:105760002DE97343344E00244FF000084FF0000938
:1057700064F07F00C0B2FFF765FE0369054693B38E
:105780002846013412F080FC082CF1D12A4E002466
:105790004FF000084FF00009E0B2FFF753FE036935
:1057A00005467BB32846013412F06EFC082CF3D179
:1057B000224CD4F8583183B3214812F065FCD4F858
:1057C0009C325BB900220023CDE900231D491A4811
:1057D0004FF4806213F013F800280EDB1A4812F021
:1057E00053FC00200BE000F11001CDE900894022BC
:1057F000304613F004F80028C2DA6FF00B0002B054
:10580000BDE8708300F11001CDE9008940223046E7
:1058100012F0F5FF0028C5DAEFE700220023CDE9FA
:10582000002304F5AC714FF48062034812F0E7FFE7
:105830000028C1DAE1E700BF44000020B81B0020C7
:10584000001D0020541E0020441E00202DE9F043BE
:10585000DFF8A892A44D85B00746002200234846F1
:1058600010F0CEFF10B905B0BDE8F0836B79027D72
:1058700000F1040833B9002A00F08580404612F098
:10588000DBFFEAE7042AF9D8DFE812F07D00050023
:10589000EB0001011C01037CC468032BEED8DFE898
:1058A00003F00238595EA66908220021304612F042
:1058B000BAFC8E4BD3F880243270D3F884247270F3
:1058C000D3F88824D3F88C1442EA01227280D3F8EA
:1058D0009024D3F8941442EA0122B280D3F8982499
:1058E000D3F89C3442EA0323F3800823E3600021C9
:1058F0002368607A98473378DB0906D1F38823B1AF
:10590000A5F8B03210F0FEFAB8E70023A5F8B032DF
:10591000B4E794F82130002BB0D094F82030002B5D
:10592000ACD0002684F821604FF0FF3284F820606C
:105930004FF0FF336E4812F0BDFBA369019363681B
:10594000CDE9023601A9607A10F0D4F8684812F067
:1059500099FB93E723680121607A98478EE7A37A41
:1059600073B994F823305BB94FF0FF324FF0FF3337
:105970005F4812F09FFB10F0F1FA5D4812F082FBD5
:1059800023680221E8E7027B042A3FF677AFDFE8CD
:1059900002F043030E515D0010F060F800287FF420
:1059A0006DAF0FF081FF0120FFF77CFD66E700245B
:1059B00064F07F00C0B2FFF745FD037A13B1407A6F
:1059C00010F0BAFC0134082CF2D195F850311BB11B
:1059D00095F8510110F0B0FC0024E0B2FFF732FD61
:1059E000037A13B1407A10F0A7FC0134082CF4D1EB
:1059F00095F894321BB195F8950210F09DFC0120AA
:105A000010F00EF801236B712B68002B3FF436AFBA
:105A100000210220984731E700246C7110F018FC37
:105A20002046FFF73FFD2B68002B3FF427AF2146B0
:105A30000420EFE7002B3FF421AF10F021FC2B688E
:105A4000002B3FF41BAF00210520E3E72A68002A62
:105A50003FF414AF002B3FF411AF00210620904714
:105A60000CE707F10C044FF0FF334FF0FF322046F4
:105A700012F020FBFFF774FE204612F003FB57F8EC
:105A8000083C002B3FF4FAAE00210120C2E795F854
:105A900094327BB1012485F8AD4285F8AC42FFF722
:105AA0004BFD38B1134A04750474C260FFF7F4FC6F
:105AB000FFF71AFD57F8083C002B3FF4DFAE00213A
:105AC0000A20A7E7002012F0D0FA10F0C1FB0FF077
:105AD000E1FEFFF721FDFFF743FE012012F0C5FABA
:105AE00005480FF0C5FFC9E6B81B00200070024052
:105AF000CC1B0020441E0020495600004405002015
:105B0000B0F5907F10B515D0B0F5927F14D0B0F5F8
:105B10008E7F13D10124FFF70FFD78B100220275AB
:105B20000473FFF7B9FC064B1B793BB1BDE810408D
:105B3000FFF7DABC0024EEE70224ECE710BD00BF5B
:105B4000B81B002038B51E4C2579A5BB4FF0FF339C
:105B50004FF480621B491C4811F0ECFA1B4BA56006
:105B6000C4E9033504F1140012F085FE2A46012130
:105B7000272000F085FB16480FF07AFF154B98425E
:105B80001BD1012012F071FAFFF7EAFD054608B9B2
:105B900001232371104B1B680BB1FFF7A5FC4FF0DD
:105BA0008043D3F83834DB0703D54FF48E70FFF70A
:105BB000A7FF284638BD0025FBE76FF00405F8E78E
:105BC000B81B0020083F00206C1E00204D5800002C
:105BD000495600000000AD0B44050020064B1A7921
:105BE00032B15B79002B0CBF6FF0120000207047C0
:105BF0006FF01200704700BFB81B00200F4B1B79DD
:105C000010B50146B3B104782046FFF71BFC10B96C
:105C10006FF0150010BD44720B79837249884160A2
:105C2000230702D44B1E0B42F2D1204612F023FD73
:105C30000020EFE76FF01200ECE700BFB81B002078
:105C4000114B1A7910B50146BAB15B79ABB1FFF7C8
:105C5000F9FB0446A0B1837A032B05D8DFE803F0F3
:105C60000210090910F082F90020A369E060E361E5
:105C700010BD084610F0F2F8F6E76FF01200F7E7F3
:105C80006FF01500F4E700BFB81B00200B4B1A792A
:105C900010B5044662B15B7953B1FFF7D3FB50B145
:105CA000204610F0FDF8204610F098FB002010BDB3
:105CB0006FF01200FBE76FF01500F8E7B81B00204B
:105CC00038B50B4B1A7905460C465AB15B794BB186
:105CD000FFF7B8FB48B141B1284610F0C7F8207073
:105CE000002038BD6FF01200FBE76FF01500F8E7F9
:105CF000B81B0020F8B50F4F3B7906468BB1FFF774
:105D0000A1FB044680B1304610F0CAF8257A75B977
:105D100078790123237218B1304610F00DFB284624
:105D2000F8BD6FF01200FBE76FF01500F8E76FF0B9
:105D30004400F5E7B81B00200D4B1A7910B5014659
:105D40006AB15B795BB1FFF77DFB044650B1037A22
:105D50005BB1084610F0C4FA0020207210BD6FF04D
:105D60001200FBE76FF01500F8E76FF04400F5E76D
:105D7000B81B00202DE9FF47334E9846337907467C
:105D800089461446002B58D07379002B55D0030652
:105D900056D5FFF757FB0546002851D090F808A0CC
:105DA000BAF1000F4CD04FF0FF324FF0FF3306F145
:105DB000140012F07FF995F8222002F0FF034AB197
:105DC00006F1140012F05EF96FF00A04204604B0E8
:105DD000BDE8F0876A68A869A2423CBF14465346F2
:105DE00085F823302246494612F0F3F9EC60B8F109
:105DF000000F01D0C8F80040AC7A4CB910F0BEF8E2
:105E0000874205D010F0AAF8104812F03BF9DDE700
:105E1000012385F82230AB6901930024EB680293DB
:105E200001A9384603940FF065FE094B98421CBF48
:105E300085F822406FF00404E6E76FF01204C5E72E
:105E40006FF01504C2E700BFB81B0020CC1B002078
:105E50000000AD0B2DE9F0411D46214B90461A790B
:105E60000F46002A35D05B79002B32D0030633D49D
:105E700011B9B8F1000F2FD1FFF7E4FA044658B377
:105E8000037A4BB34FF0FF334FF0FF32154812F057
:105E900011F9E36843451E4628BF464657B9B8F195
:105EA000000F07D105B12B600E4812F0EBF800206F
:105EB000BDE8F0813246E169384612F08AF9E369BB
:105EC0003344E361E3689B1BE360002DECD02E605C
:105ED000EAE76FF01200EBE76FF01500E8E700BFAC
:105EE000B81B0020CC1B002070B51E4D2A7903463C
:105EF0008AB36A797AB31B0630D4FFF7A3FA044653
:105F000060B3037A53B34FF0FF334FF0FF3205F124
:105F1000140012F0CFF8E368C3B90126A36984F82E
:105F20002060E36194F8213083B1FFF705FB30B9BD
:105F300005F1140012F0A6F86FF00B0070BD0675A5
:105F4000C4600674FFF7A8FAFFF7CEFA064812F00D
:105F500099F80020F2E76FF01200EFE76FF01500FC
:105F6000ECE700BFB81B0020CC1B002008B5074B96
:105F70001B792BB1FFF766FA28B10160002008BD3C
:105F80006FF01200FBE76FF01500F8E7B81B002078
:105F9000014B1860704700BFB81B002008B5074BC5
:105FA0001B7923B1FFF74EFA20B1406808BD6FF0AE
:105FB0001200FBE76FF01500F8E700BFB81B0020E8
:105FC000821C084B22F07F42C3F84025D3F80425F9
:105FD000904200D17047D3F80405821C22F07F4222
:105FE000F2E700BF00100140044B002282B01A60AB
:105FF0001B680193019B02B0704700BF4011014034
:1060000008B5FFF7F1FF074B074AD3F840051368BF
:10601000C01A20F07F4003441360BDE8084011F02F
:10602000A3B900BF00100140F81E002038B5144885
:1060300010F0FAF900B38368124D1B6801210024A7
:106040009847C5F80845FFF7CFFF0F4B4FF40032D4
:10605000C3F880214FF48033C5F804332246012170
:10606000112000F00DF9112000F0D8F8074A0123A3
:10607000136020462B6038BD4FF0FF30FBE700BFB8
:10608000FCA101000010014000E100E00810014007
:1060900070B52A4B2A4C1968D4F80425294D521A98
:1060A000B0F1FF3F08BF284622F07F43120234D4EC
:1060B000013820EAE070A842A8BF284601334FF417
:1060C00080361844C4F80863A84294BF0D184D19CF
:1060D000D4F80405D4F84015FFF786FF091A21F01B
:1060E0007F4120F07F430129C4F84035C4F8446360
:1060F00004D10F2012F099FDFFF776FF124B4FF4F9
:106100000032C3F88021D4F804052B1A23F07F4312
:10611000012B04D1FFF754FF0BE00020CEE725F060
:106120007F43C4F84035D4F804052D1A023D2B02F4
:10613000F0D44FF48033C4F8043370BDF81E00204F
:1061400000100140FFFF7F0000E100E04FF020025F
:10615000EFF3118382F31188BFF36F8F064AD2F8F1
:106160000405064A1268801A20F07F4083F31188E4
:10617000BFF36F8F704700BF00100140F81E002072
:10618000094A0A499368096819670949D8664B683A
:1061900043F080534B60002383F31188BFF36F8F6C
:1061A0009368186F704700BFE839002084A1010090
:1061B00000ED00E00F498A684FF030001044EFF323
:1061C000098C80E8F01F202080F31188BFF36F8FC7
:1061D000094F4FF000664A6A8A603E60D06E002325
:1061E000D36680F3118802F1300090E8F01F8CF341
:1061F00009887047E839002004ED00E01EF0040F24
:106200000CBFEFF30880EFF30980816911F8021CDD
:106210000229FFD001B511F0AEFF01BD43B2002B42
:1062200008DB012200F01F0002FA00F05B09024ABD
:1062300042F82300704700BF00E100E043B2002BAA
:106240000DDB01225B0900F01F0002FA00F0203391
:10625000034A42F82300BFF34F8FBFF36F8F70479D
:1062600000E100E04209054B00F01F0053F8222036
:10627000012303FA00F01040704700BF00E100E086
:1062800043B2002BA8BF03F1604301F101014FEAC3
:106290004111AEBF03F5614300F00F00034BC9B2DB
:1062A000ACBF83F800131954704700BF14ED00E031
:1062B00008B572B6044B186A18B100221A6212F0BF
:1062C00036FA62B608BD00BFE8390020C0E91812EE
:1062D0000A44203A22F0070208491360009B5360E9
:1062E000019B9360029BD3604FF08073D36121F0D8
:1062F0000101002391610265C36670476F78010058
:10630000F8B506460C4617461D4600F099F9094BAC
:106310003C4424F007049E60284684F30988002149
:1063200063B681F31188BFF36F8F0022002311F051
:106330009EFA00BFE8390020014910220A60704728
:1063400010ED00E072B6404080F31188BFF36F8F0C
:10635000BFF34F8F30BF62B6BFF36F8F704700BF80
:1063600030BFFFF7FDBF00BF0E4A08B50E4B22F04D
:106370007F029A60BFF34F8FBFF36F8FD3F88820EF
:1063800022F47002C3F88820EFF3148323F004038F
:1063900083F3148810F086F810F08EF800F01EF9E0
:1063A00010F0C8F80010000000ED00E001B572B672
:1063B0000B4A106A00281EBF0021116212F0B7F9C3
:1063C00062B6EFF30580A0F110004FEAC000054966
:1063D000014409C99847BDE8014003490847000046
:1063E000E839002088900100C165000011F040FFED
:1063F000202080F3118808484FF40061401880F392
:106400000988EFF314800221084380F31488BFF356
:106410006F8FFFF7A9FF0000084C0020EFF3088002
:10642000EFF30981724601B500F04EF801BD00BFDF
:106430000C4B9A6A9A6A9A6A920708D55A6B9A6ABA
:10644000120604D518B19A6A22F080029A62054BAE
:106450009A6A9A6A9A6A9A6A002042F0FF029A62DD
:106460000870704700ED00E00D4B9A6A9A6A9A6ACC
:10647000920508D59A6B9A6A120404D518B19A6AE3
:1064800022F400429A62064B9A6A9A6AD20558BF71
:106490009A6A9A6A002042F47F429A6208707047B2
:1064A00000ED00E0074B9A6A9A6A9A6A9A6A9A6AB9
:1064B0009A6A9A6A6FEA02426FEA12429A6200206E
:1064C000704700BF00ED00E070B5364B5B688AB0E6
:1064D000C3F30803002585F31188BFF36F8F02F023
:1064E0007F44B4F17F4F12D102F00C04082C0ED07F
:1064F00014074EBF0E46064601250022033B8DF8C9
:106500000720032B47D8DFE803F0043E423B2E462A
:10651000F3E7244BDA6A92073DD4DC6A14F0804436
:1065200008D028331B78EBB10DF107010120FFF7EC
:106530007FFF04469DF8073093B92022314602A818
:1065400011F047FE099B45B3C3F3080222B96FEA75
:1065500053236FEA4323099302A9204611F009FE51
:106560000AB070BD104B1B782BB10DF10701012053
:10657000FFF77AFFDDE70D4B1C88A4B2002CD9D0C1
:10658000FFF790FFD5E70DF107010020CFE70DF1F0
:1065900007010020ECE70024CCE723F4FF7323F08D
:1065A0000103D8E700ED00E029ED00E02AED00E06E
:1065B000024A536943F010035361704700ED00E055
:1065C000044B9968586A884203D003494FF08052BF
:1065D0000A607047E839002004ED00E00448002319
:1065E0002021C2180133302B82F80013F9D17047F3
:1065F00000E100E038B505464FF02003EFF31184C9
:1066000083F31188BFF36F8F10F0D4FA0A4B9B68A5
:10661000AB420BD1094B5A68C2F3080212B92046AB
:10662000FFF7AEFD5A6842F080525A602046BDE83E
:10663000384012F0F9B900BFE839002000ED00E061
:106640001FB5084B0193084B0293084B039301AB12
:106650000093074A074B0121684600F091F805B006
:106660005DF804FB000000200000000000000B06A5
:106670000000002000000420F0B5204F00268E42CC
:1066800001DB1046F0BD50F826C0DCF8044094B39E
:106690005BB104F1FF3E14EA0E0F1AD11F2C18D97A
:1066A000DCF800501EEA050F13D1202CDCF8005056
:1066B000DCF808C0D2B20FD9B4F1004F0ED8013CBB
:1066C000B4FA84F4C4F11F046400072A4CEA0404F9
:1066D00006D96FF01502D4E70824F6E73E24F4E764
:1066E00025F01F05154345F0100544F00104BA607C
:1066F000FD6001323C610136C1E700BF90ED00E072
:10670000034B05225A60BFF34F8FBFF36F8F704763
:1067100090ED00E0BFF35F8F014B00225A6070479D
:1067200090ED00E013490868082810B51ED8FFF75F
:10673000F1FF114C49680022904201F10C0105D192
:106740000E4B1870FFF7DCFF002010BDA26051F85F
:106750000C3C23F01F03134343F01003E36051F894
:10676000043C43F0010323610132E5E74FF0FF30C1
:10677000EBE700BF2C92010090ED00E0EF3A002023
:1067800010B5034C01232278FFF776FF207010BD6F
:10679000EF3A0020014B1860704700BF4C0000200A
:1067A0004FF02003EFF3118283F31188BFF36F8F53
:1067B00006490123C1F840354FF08041C1F87835D2
:1067C00082F31188BFF36F8F0020704700E0014013
:1067D00020B1034B800143F001031847704700BF0D
:1067E00010920100074A136833B9C16839B10169D1
:1067F00029B11060184670476FF0440070476FF081
:1068000015007047FC1E0020012838B5054601D050
:1068100003280BD1064811F07AFD044620B101216E
:10682000083011F093FD2575204638BD0024FBE7A4
:10683000C40500202DE9F04102280446DDE9066781
:1068400029D0042802D040B300251EE0144909785D
:106850000129F9D13478012C1AD0022CF4D1114835
:106860000136013F11F053FD05460028ECD000F140
:1068700008080121404611F069FD2C752EB127B1A1
:106880003A463146404611F078FD2846BDE8F08191
:1068900005480024E4E70348E4E70348E2E700BFD3
:1068A000F03A0020740500209C05002010B50D4B27
:1068B0001B78012B04460CD1037D012B04D0032B44
:1068C0000ED06FF0150010BD042104F1080011F086
:1068D00065FD054B2146186811F03CFD0020F2E7EC
:1068E0000221F2E7F03A0020081F00202DE9F047CE
:1068F000057D04468DBBDFF8A890D9F8003063B35E
:1069000000F10808404611F05AFDA789022F0646FB
:1069100040D90321404611F04AFDA18983788B427A
:1069200038D81D4BB0F80080D9F80020D3F800C04B
:106930002B4663450CD0104632F80C5B454513D10D
:106940004368994224D3836820469847054668B92E
:106950002369A78113FA86F6A660104B1B682046B0
:106960001B69BDE8F04718470133E2E7FF280CD068
:106970000121404601F098FF01210446083011F042
:10698000F6FC05702046FFF791FF2846BDE8F0872A
:106990001225EDE71225F8E7041F0020FC1E002059
:1069A000001F002001289DBF024B187000206FF0CF
:1069B00015007047F03A0020014B1878704700BF6F
:1069C000F03A0020024B1860024B1960704700BF7C
:1069D000001F0020041F0020044B054A1B681060A4
:1069E0000BB1DB6818476FF012007047FC1E0020E7
:1069F000081F00202DE9F0411446C21D22F00302B9
:106A0000671EBFB2186082B005460E4601FB070044
:106A100014800021042211F006FCB7B1023CA4B29C
:106A200004FB066304FB06F71D44FF1A4FF6FF78CC
:106A30000422013CE8190DEB0201A4B2019511F00A
:106A4000C8FB4445A5EB0605F2D102B0BDE8F081D4
:106A500070B5046882B094B1E31D23F003030422EF
:106A6000054621460DEB02001E8811F0B2FB019B8A
:106A700023B1DA1D22F00302013E16802B6020466E
:106A800002B070BD0B6870B50D46064683B1073382
:106A900023F003031C880134A4B2042229463046A3
:106AA00011F097FBF31D23F003031C802E6070BDD3
:106AB0000124F2E702FB0100704700BF401A80B2D8
:106AC000B0FBF2F0704700BF531E11449BB242B1BD
:106AD000DB43CA18013811F8013D00F8013F91422B
